{"contracts/JobEscrow.sol":{"JobEscrow":{"abi":[{"inputs":[{"internalType":"address","name":"_client","type":"address"},{"internalType":"address","name":"_freelancer","type":"address"},{"internalType":"address","name":"_usdt","type":"address"},{"internalType":"uint256","name":"_amountUSDT","type":"uint256"},{"internalType":"string","name":"","type":"string"},{"internalType":"uint16","name":"_platformFeeBps","type":"uint16"},{"internalType":"address","name":"_platformWallet","type":"address"},{"internalType":"address","name":"_resolver","type":"address"},{"internalType":"address","name":"_profile","type":"address"},{"internalType":"uint64","name":"_cancelWindowSecs","type":"uint64"},{"internalType":"uint64","name":"_deliveryDueTs","type":"uint64"},{"internalType":"uint64","name":"_reviewWindowSecs","type":"uint64"},{"internalType":"uint8","name":"_autoApproveDefaultRating","type":"uint8"},{"internalType":"address","name":"_escrowFactory","type":"address"}],"stateMutability":"nonpayable","type":"constructor"},{"inputs":[],"name":"AlreadyDelivered","type":"error"},{"inputs":[],"name":"AlreadyTerminal","type":"error"},{"inputs":[],"name":"AmountZero","type":"error"},{"inputs":[],"name":"BpsTooHigh","type":"error"},{"inputs":[],"name":"CancelNotRequested","type":"error"},{"inputs":[],"name":"CancelWindowOver","type":"error"},{"inputs":[],"name":"Disputed","type":"error"},{"inputs":[],"name":"InvalidCaller","type":"error"},{"inputs":[],"name":"NoDispute","type":"error"},{"inputs":[],"name":"NotClient","type":"error"},{"inputs":[],"name":"NotDelivered","type":"error"},{"inputs":[],"name":"NotFactory","type":"error"},{"inputs":[],"name":"NotFreelancer","type":"error"},{"inputs":[],"name":"NotResolver","type":"error"},{"inputs":[],"name":"TooEarly","type":"error"},{"inputs":[],"name":"ZeroAddress","type":"error"},{"anonymous":false,"inputs":[{"indexed":true,"internalType":"bytes32","name":"jobKey","type":"bytes32"},{"indexed":false,"internalType":"uint8","name":"rating","type":"uint8"}],"name":"AutoApproved","type":"event"},{"anonymous":false,"inputs":[{"indexed":true,"internalType":"bytes32","name":"jobKey","type":"bytes32"}],"name":"CancelAccepted","type":"event"},{"anonymous":false,"inputs":[{"indexed":true,"internalType":"bytes32","name":"jobKey","type":"bytes32"},{"indexed":true,"internalType":"address","name":"by","type":"address"}],"name":"CancelRequested","type":"event"},{"anonymous":false,"inputs":[{"indexed":true,"internalType":"bytes32","name":"jobKey","type":"bytes32"},{"indexed":true,"internalType":"address","name":"by","type":"address"},{"indexed":false,"internalType":"string","name":"reasonURI","type":"string"}],"name":"DisputeRaised","type":"event"},{"anonymous":false,"inputs":[{"indexed":true,"internalType":"bytes32","name":"jobKey","type":"bytes32"},{"indexed":false,"internalType":"enum JobEscrow.Resolution","name":"outcome","type":"uint8"},{"indexed":false,"internalType":"uint16","name":"payoutBps","type":"uint16"},{"indexed":false,"internalType":"uint8","name":"rating","type":"uint8"},{"indexed":false,"internalType":"uint256","name":"paidToFreelancer","type":"uint256"},{"indexed":false,"internalType":"uint256","name":"refundedToClient","type":"uint256"}],"name":"DisputeResolved","type":"event"},{"anonymous":false,"inputs":[{"indexed":true,"internalType":"bytes32","name":"jobKey","type":"bytes32"},{"indexed":true,"internalType":"address","name":"to","type":"address"},{"indexed":false,"internalType":"uint256","name":"netAmount","type":"uint256"},{"indexed":false,"internalType":"uint256","name":"feeAmount","type":"uint256"}],"name":"Paid","type":"event"},{"anonymous":false,"inputs":[{"indexed":true,"internalType":"bytes32","name":"jobKey","type":"bytes32"},{"indexed":true,"internalType":"address","name":"to","type":"address"},{"indexed":false,"internalType":"uint256","name":"amount","type":"uint256"}],"name":"Refunded","type":"event"},{"anonymous":false,"inputs":[{"indexed":true,"internalType":"bytes32","name":"jobKey","type":"bytes32"},{"indexed":false,"internalType":"string","name":"uri","type":"string"}],"name":"WorkDelivered","type":"event"},{"inputs":[],"name":"acceptCancel","outputs":[],"stateMutability":"nonpayable","type":"function"},{"inputs":[],"name":"amount","outputs":[{"internalType":"uint256","name":"","type":"uint256"}],"stateMutability":"view","type":"function"},{"inputs":[{"internalType":"uint8","name":"rating","type":"uint8"}],"name":"approveWork","outputs":[],"stateMutability":"nonpayable","type":"function"},{"inputs":[],"name":"autoApproveDefaultRating","outputs":[{"internalType":"uint8","name":"","type":"uint8"}],"stateMutability":"view","type":"function"},{"inputs":[],"name":"bootstrapRegisterJob","outputs":[],"stateMutability":"nonpayable","type":"function"},{"inputs":[],"name":"cancelRequestedBy","outputs":[{"internalType":"address","name":"","type":"address"}],"stateMutability":"view","type":"function"},{"inputs":[],"name":"cancelWindowEnd","outputs":[{"internalType":"uint64","name":"","type":"uint64"}],"stateMutability":"view","type":"function"},{"inputs":[],"name":"client","outputs":[{"internalType":"address","name":"","type":"address"}],"stateMutability":"view","type":"function"},{"inputs":[],"name":"currentDeadlines","outputs":[{"internalType":"uint64","name":"cancelEnd","type":"uint64"},{"internalType":"uint64","name":"_deliveryDue","type":"uint64"},{"internalType":"uint64","name":"_reviewDue","type":"uint64"}],"stateMutability":"view","type":"function"},{"inputs":[{"internalType":"string","name":"deliveryURI","type":"string"}],"name":"deliverWork","outputs":[],"stateMutability":"nonpayable","type":"function"},{"inputs":[],"name":"delivered","outputs":[{"internalType":"bool","name":"","type":"bool"}],"stateMutability":"view","type":"function"},{"inputs":[],"name":"deliveryDue","outputs":[{"internalType":"uint64","name":"","type":"uint64"}],"stateMutability":"view","type":"function"},{"inputs":[],"name":"disputed","outputs":[{"internalType":"bool","name":"","type":"bool"}],"stateMutability":"view","type":"function"},{"inputs":[],"name":"escrowFactory","outputs":[{"internalType":"address","name":"","type":"address"}],"stateMutability":"view","type":"function"},{"inputs":[],"name":"freelancer","outputs":[{"internalType":"address","name":"","type":"address"}],"stateMutability":"view","type":"function"},{"inputs":[],"name":"jobKey","outputs":[{"internalType":"bytes32","name":"","type":"bytes32"}],"stateMutability":"view","type":"function"},{"inputs":[],"name":"lastDeliveryURI","outputs":[{"internalType":"string","name":"","type":"string"}],"stateMutability":"view","type":"function"},{"inputs":[],"name":"lastDisputeURI","outputs":[{"internalType":"string","name":"","type":"string"}],"stateMutability":"view","type":"function"},{"inputs":[],"name":"platformFeeBps","outputs":[{"internalType":"uint16","name":"","type":"uint16"}],"stateMutability":"view","type":"function"},{"inputs":[],"name":"platformWallet","outputs":[{"internalType":"address","name":"","type":"address"}],"stateMutability":"view","type":"function"},{"inputs":[],"name":"processTimeouts","outputs":[],"stateMutability":"nonpayable","type":"function"},{"inputs":[],"name":"profile","outputs":[{"internalType":"contract FreelancerProfile","name":"","type":"address"}],"stateMutability":"view","type":"function"},{"inputs":[{"internalType":"string","name":"reasonURI","type":"string"}],"name":"raiseDispute","outputs":[],"stateMutability":"nonpayable","type":"function"},{"inputs":[],"name":"requestCancel","outputs":[],"stateMutability":"nonpayable","type":"function"},{"inputs":[{"internalType":"uint16","name":"payoutBps","type":"uint16"},{"internalType":"uint8","name":"rating","type":"uint8"},{"internalType":"enum JobEscrow.Resolution","name":"outcome","type":"uint8"}],"name":"resolveDispute","outputs":[],"stateMutability":"nonpayable","type":"function"},{"inputs":[],"name":"resolver","outputs":[{"internalType":"address","name":"","type":"address"}],"stateMutability":"view","type":"function"},{"inputs":[],"name":"reviewDue","outputs":[{"internalType":"uint64","name":"","type":"uint64"}],"stateMutability":"view","type":"function"},{"inputs":[],"name":"reviewWindowSecs","outputs":[{"internalType":"uint64","name":"","type":"uint64"}],"stateMutability":"view","type":"function"},{"inputs":[],"name":"terminal","outputs":[{"internalType":"bool","name":"","type":"bool"}],"stateMutability":"view","type":"function"},{"inputs":[],"name":"usdt","outputs":[{"internalType":"contract IERC20","name":"","type":"address"}],"stateMutability":"view","type":"function"}],"evm":{"bytecode":{"linkReferences":{},"object":"610220806040523461045257612641803803809161001d8285610482565b833981016101c08282031261045257610035826104a5565b91610042602082016104a5565b9161004f604083016104a5565b60608301516080840151919290916001600160401b0381116104525784019080601f83011215610452578151916001600160401b03831161046c57604051916100a2601f8501601f191660200184610482565b838352602084830101116104525760005b838110610457575050600091016020015260a083015161ffff811695868203610452576100e260c086016104a5565b6100ee60e087016104a5565b6100fb61010088016104a5565b9161010961012089016104b9565b946101176101408a016104b9565b966101256101608b016104b9565b986101808b01519a60ff8c168c03610452576101a061014491016104a5565b60016000556001600160a01b0388169d9097908e158015610441575b8015610430575b801561041f575b801561040e575b80156103fd575b80156103ec575b6103db5783156103ca57612710106103b9576080528b60a05260018060a01b031660c05260e05261010052610120526101405260018060a01b0316610160526101805260018060401b031660018060401b0342160160018060401b0381116103a3576101a0526101c0526101e05261020052604051906020820192308452604083015260018060a01b0316606082015260608152610222608082610482565b51902060015560405161217390816104ce82396080518181816102c501528181610b7901528181611056015281816114c6015281816119360152611d17015260a05181818161037f015281816109ad01528181610dd30152818161158201528181611a390152611f7e015260c051818181610fd20152818161128c01528181611c3c0152611de4015260e0518161094701526101005181818161101c015281816113760152611e2c01526101205181818161024f015281816115fc0152611ff9015261014051818181610f5101526110bf0152610160518181816104510152818161090001528181610c1701528181610e48015281816113aa0152818161163f01528181611c890152611e610152610180518181816107770152610e1501526101a05181818161019a0152818161080701526119fc01526101c0518181816101c601528181610215015281816117e5015261181701526101e05181818161042301528181610b0701526118f2015261020051818181610a2e01526118400152f35b634e487b7160e01b600052601160045260246000fd5b63bbf4268d60e01b60005260046000fd5b6365e52d5160e11b60005260046000fd5b63d92e233d60e01b60005260046000fd5b506001600160a01b03891615610183565b506001600160a01b0388161561017c565b506001600160a01b03871615610175565b506001600160a01b0386161561016e565b506001600160a01b03831615610167565b506001600160a01b038e1615610160565b600080fd5b806020809284010151828286010152016100b3565b634e487b7160e01b600052604160045260246000fd5b601f909101601f19168101906001600160401b0382119082101761046c57604052565b51906001600160a01b038216820361045257565b51906001600160401b03821682036104525756fe608080604052600436101561001357600080fd5b600090813560e01c90816304f3bcec146110ab575080630695c46c14611085578063109e94cf1461104057806322dcd13e146110015780632f48ab7d14610fbc57806346a8634814610f1457806350ec709a14610e02578063725a3b4b14610b595780637a1a464d14610b2b578063805bf08a14610ae7578063916b2f8814610a5257806392c67f7214610a14578063a0d3db85146109dc578063a37dda2c14610997578063a9ac153e1461096a578063aa8c217c1461092f578063ab60636c146108ea578063b533a0cc146108c0578063b6d98b6b1461082b578063b7810853146107e7578063bbdfbfba146107c4578063bcc9c5ed146107a6578063bdd1daaa14610761578063dd3d06b914610694578063e4933ae31461036e578063f0df51b3146102a4578063f45d0bc61461027e578063fa2af9da14610239578063fd35b33c146101f55763fe5d97c81461016b57600080fd5b346101f257806003193601126101f25760606001600160401b0360025460181c16604051906001600160401b037f00000000000000000000000000000000000000000000000000000000000000001682526001600160401b037f00000000000000000000000000000000000000000000000000000000000000001660208301526040820152f35b80fd5b50346101f257806003193601126101f25760206040516001600160401b037f0000000000000000000000000000000000000000000000000000000000000000168152f35b50346101f257806003193601126101f2576040517f00000000000000000000000000000000000000000000000000000000000000006001600160a01b03168152602090f35b50346101f257806003193601126101f257602060ff60025460101c166040519015158152f35b50346101f25760203660031901126101f25760043560ff8116810361036a577f00000000000000000000000000000000000000000000000000000000000000006001600160a01b0316330361035b5760ff60025460101c1661034c57610308611a68565b60025460ff81161561033d5760081c60ff1661032e5761032790611db3565b6001815580f35b6362e6201d60e01b8252600482fd5b630a8bd16f60e21b8352600483fd5b63e405a43360e01b8252600482fd5b630836f21d60e21b8252600482fd5b5080fd5b50346101f25761037d366110ee565b7f00000000000000000000000000000000000000000000000000000000000000006001600160a01b031633036106855760025460ff8160101c166106765760ff81166106675760ff19166001176002556001600160401b038111610653576103e6600354611142565b601f81116105e8575b508083601f821160011461057857849161056d575b508160011b906000198360031b1c1916176003555b6001600160401b037f00000000000000000000000000000000000000000000000000000000000000001680610513575b5060015483907f00000000000000000000000000000000000000000000000000000000000000006001600160a01b031690813b1561050457829160448392604051948593849263a3abe42560e01b84526004840152600360248401525af18015610508576104ef575b50507f6d9e4862e2f82a8175fcd785cd60c14f21a2af0c38c0b7682015fece7158e7e490600154926104e96040519283928361175b565b0390a280f35b816104f99161117c565b6105045782386104b2565b8280fd5b6040513d84823e3d90fd5b6001600160401b034216016001600160401b038111610559576affffffffffffffff0000006002549160181b16906affffffffffffffff00000019161760025538610449565b634e487b7160e01b84526011600452602484fd5b905082013538610404565b600385526000805160206120fe833981519152915082601f198116865b8181106105cd5750106105b3575b5050600181811b01600355610419565b830135600019600384901b60f8161c1916905538806105a3565b86840135855560019094019360209384019386935001610595565b60038452601f820160051c6000805160206120fe83398151915201906020831061063d575b601f0160051c6000805160206120fe83398151915201905b81811061063257506103ef565b848155600101610625565b6000805160206120fe833981519152915061060d565b634e487b7160e01b83526041600452602483fd5b63b9f7965360e01b8452600484fd5b63e405a43360e01b8452600484fd5b633832386960e11b8352600483fd5b50346101f257806003193601126101f2576040519080600354906106b782611142565b808552916001811690811561073a57506001146106ef575b6106eb846106df8186038261117c565b604051918291826111b3565b0390f35b600381526000805160206120fe833981519152939250905b808210610720575090915081016020016106df826106cf565b919260018160209254838588010152019101909291610707565b60ff191660208087019190915292151560051b850190920192506106df91508390506106cf565b50346101f257806003193601126101f2576040517f00000000000000000000000000000000000000000000000000000000000000006001600160a01b03168152602090f35b50346101f257806003193601126101f2576020600154604051908152f35b50346101f257806003193601126101f257602060ff600254166040519015158152f35b50346101f257806003193601126101f25760206040516001600160401b037f0000000000000000000000000000000000000000000000000000000000000000168152f35b50346101f257806003193601126101f25760405190806004549061084e82611142565b808552916001811690811561073a5750600114610875576106eb846106df8186038261117c565b6004815260008051602061211e833981519152939250905b8082106108a6575090915081016020016106df826106cf565b91926001816020925483858801015201910190929161088d565b50346101f257806003193601126101f25760206001600160401b0360025460181c16604051908152f35b50346101f257806003193601126101f2576040517f00000000000000000000000000000000000000000000000000000000000000006001600160a01b03168152602090f35b50346101f257806003193601126101f25760206040517f00000000000000000000000000000000000000000000000000000000000000008152f35b50346101f257806003193601126101f25760025460405160589190911c6001600160a01b03168152602090f35b50346101f257806003193601126101f2576040517f00000000000000000000000000000000000000000000000000000000000000006001600160a01b03168152602090f35b50346101f257806003193601126101f25760ff60025460101c16610a0557610a02611933565b80f35b63e405a43360e01b8152600490fd5b50346101f257806003193601126101f257602060405160ff7f0000000000000000000000000000000000000000000000000000000000000000168152f35b50346101f257806003193601126101f25760ff60025460101c16610a0557610a78611a68565b60025460581c6001600160a01b03168015610ad8573314610ac957610a9b611c24565b6001547f4897449f1b0ce6101a99ba5e17eea100dbfc65a5eb810060f708a392668bce978280a26001815580f35b6348f5c3ed60e01b8152600490fd5b6399fcd6df60e01b8252600482fd5b50346101f257806003193601126101f25760206040516001600160401b037f0000000000000000000000000000000000000000000000000000000000000000168152f35b50346101f257806003193601126101f25760ff60025460101c16610a0557610b51611a68565b610327611783565b50346101f257610b68366110ee565b60025460ff8160101c1661067657337f00000000000000000000000000000000000000000000000000000000000000006001600160a01b0316141580610dcf575b610dc05760ff8160081c16610db15761ff001916610100176002556001600160401b03811161065357610bdd600454611142565b601f8111610d46575b508083601f8211600114610cd6578491610ccb575b508160011b906000198360031b1c1916176004555b60015483907f00000000000000000000000000000000000000000000000000000000000000006001600160a01b031690813b1561050457829160448392604051948593849263a3abe42560e01b84526004840152600560248401525af1801561050857610cb6575b50507f49e53fd224357020766ce272815e8a15c300aace14a011cfcded9335798fbd0e610cb06001549260405191829133968361175b565b0390a380f35b81610cc09161117c565b610504578238610c78565b905082013538610bfb565b6004855260008051602061211e833981519152915082601f198116865b818110610d2b575010610d11575b5050600181811b01600455610c10565b830135600019600384901b60f8161c191690553880610d01565b86840135855560019094019360209384019386935001610cf3565b60048452601f820160051c60008051602061211e833981519152019060208310610d9b575b601f0160051c60008051602061211e83398151915201905b818110610d905750610be6565b848155600101610d83565b60008051602061211e8339815191529150610d6b565b6362e6201d60e01b8452600484fd5b6348f5c3ed60e01b8452600484fd5b50337f00000000000000000000000000000000000000000000000000000000000000006001600160a01b03161415610ba9565b50346101f257806003193601126101f2577f00000000000000000000000000000000000000000000000000000000000000006001600160a01b03163303610f05576001547f00000000000000000000000000000000000000000000000000000000000000006001600160a01b03169190823b1561036a5760405190631f481a5d60e31b82526004820152818160248183875af1801561050857610ef5575b508091600154813b15610ef157829160448392604051948593849263a3abe42560e01b84526004840152600260248401525af1801561050857610ee05750f35b81610eea9161117c565b6101f25780f35b5050fd5b81610eff9161117c565b38610ea0565b631966391b60e11b8152600490fd5b50346101f25760603660031901126101f2576004359061ffff821682036101f25760243560ff8116810361036a57604435906002821015610504577f00000000000000000000000000000000000000000000000000000000000000006001600160a01b03163303610fad5760ff60025460101c16610f9e576103279293610f99611a68565b611255565b63e405a43360e01b8352600483fd5b635d154fe160e11b8352600483fd5b50346101f257806003193601126101f2576040517f00000000000000000000000000000000000000000000000000000000000000006001600160a01b03168152602090f35b50346101f257806003193601126101f257602060405161ffff7f0000000000000000000000000000000000000000000000000000000000000000168152f35b50346101f257806003193601126101f2576040517f00000000000000000000000000000000000000000000000000000000000000006001600160a01b03168152602090f35b50346101f257806003193601126101f257602060ff60025460081c166040519015158152f35b90503461036a578160031936011261036a577f00000000000000000000000000000000000000000000000000000000000000006001600160a01b03168152602090f35b90602060031983011261113d576004356001600160401b03811161113d578260238201121561113d578060040135926001600160401b03841161113d576024848301011161113d576024019190565b600080fd5b90600182811c92168015611172575b602083101461115c57565b634e487b7160e01b600052602260045260246000fd5b91607f1691611151565b90601f801991011681019081106001600160401b0382111761119d57604052565b634e487b7160e01b600052604160045260246000fd5b91909160208152825180602083015260005b8181106111e6575060409293506000838284010152601f8019910116010190565b80602080928701015160408286010152016111c5565b8181029291811591840414171561120f57565b634e487b7160e01b600052601160045260246000fd5b9190820391821161120f57565b90600282101561123f5752565b634e487b7160e01b600052602160045260246000fd5b91906002549260ff60009460081c161561174c5761ffff16612710811161173d576040516370a0823160e01b8152306004820152917f00000000000000000000000000000000000000000000000000000000000000006020846024816001600160a01b0385165afa9384156117325786946116fa575b5060028510156116e6578415611335575050507f81084fdb1640d4d17bced528639ccc751b0b4d9e399790b6d89dccf33c1b66409160a09161130b611c24565b6001549461131c6040518094611232565b80602084015280604084015260608301526080820152a2565b61135061271061134885879699976111fc565b048094611225565b938381811561163857600160ff86161061162f575b600560ff861611611626575b61ffff7f000000000000000000000000000000000000000000000000000000000000000016806115ce575b508161155d575b50506001547f00000000000000000000000000000000000000000000000000000000000000006001600160a01b031690813b156105045760405163a3abe42560e01b81526004808201929092526024810191909152828160448183865af180156115525790839161153d575b5050600154813b15610504576040516304e29d0960e51b815260ff8616600482015260248101919091529082908290604490829084905af1801561050857611528575b50509160ff60a094927f81084fdb1640d4d17bced528639ccc751b0b4d9e399790b6d89dccf33c1b664096945b846114c0575b506201000062ff0000196002541617600255600154976114a86040518097611232565b602086015216604084015260608301526080820152a2565b6114ec857f00000000000000000000000000000000000000000000000000000000000000008093611abe565b6001547ff552ca82e113ac3c539c3d617f29fcd19c172a0c75dad017555c9e109f7fe1836020604051938885526001808c1b031693a338611485565b61153382809261117c565b6101f25780611452565b816115479161117c565b61036a57813861140f565b6040513d85823e3d90fd5b7f5ce467ae5694ddb233a02ca7eb987835c5e2ea71eec0e379bf3a5e1207ae245960407f00000000000000000000000000000000000000000000000000000000000000006115ac858289611abe565b600154825195865260208601949094526001600160a01b031693a338806113a3565b61271092506115de9150866111fc565b046115e98186611225565b90806115f6575b3861139c565b611621817f000000000000000000000000000000000000000000000000000000000000000086611abe565b6115f0565b60059450611371565b60019450611365565b50506001547f00000000000000000000000000000000000000000000000000000000000000006001600160a01b0316803b156105045760405163a3abe42560e01b815260048101929092526006602483015282908290604490829084905af18015610508579260ff9260a09795927f81084fdb1640d4d17bced528639ccc751b0b4d9e399790b6d89dccf33c1b66409997956116d6575b505061147f565b816116e09161117c565b386116cf565b634e487b7160e01b86526021600452602486fd5b9093506020813d60201161172a575b816117166020938361117c565b81010312611726575192386112cb565b8580fd5b3d9150611709565b6040513d88823e3d90fd5b63bbf4268d60e01b8452600484fd5b63126ea8e960e31b8452600484fd5b90918060409360208452816020850152848401376000828201840152601f01601f1916010190565b60025460ff81169081611923575b816118f0575b816118d9575b816118c3575b5061183e5760ff60025416158061180c575b806117da575b6117d05763085de62560e01b60005260046000fd5b6117d8611c24565b565b506001600160401b037f00000000000000000000000000000000000000000000000000000000000000001642116117bb565b506001600160401b037f00000000000000000000000000000000000000000000000000000000000000001615156117b5565b7f0000000000000000000000000000000000000000000000000000000000000000600160ff8216106118bb575b600560ff8216116118b3575b61188081611db3565b7f1be1750ddd59392ba6c564a4194b0874f9295a7595042a77fc9b7f34938aa0af60206001549260ff60405191168152a2565b506005611877565b50600161186b565b6001600160401b03915060181c164211386117a3565b90506001600160401b038160181c1615159061179d565b7f00000000000000000000000000000000000000000000000000000000000000006001600160401b031615159150611797565b905060ff8160081c161590611791565b337f00000000000000000000000000000000000000000000000000000000000000006001600160a01b031614801580611a35575b611a245760ff60025416156119e1575b50600280547fff0000000000000000000000000000000000000000ffffffffffffffffffffff1633605881901b600160581b600160f81b0316919091179091556001547f7c2fb7ad28ff3012b206b788cc80d55099949fd45e69314f27fdace959bae761600080a3565b806119f1575b6117d05738611977565b506001600160401b037f0000000000000000000000000000000000000000000000000000000000000000164211156119e7565b6348f5c3ed60e01b60005260046000fd5b50337f00000000000000000000000000000000000000000000000000000000000000006001600160a01b03161415611967565b600260005414611a79576002600055565b60405162461bcd60e51b815260206004820152601f60248201527f5265656e7472616e637947756172643a207265656e7472616e742063616c6c006044820152606490fd5b60405163a9059cbb60e01b602082019081526001600160a01b039093166024820152604480820194909452928352909190611afa60648361117c565b60018060a01b031690600080604094855193611b16878661117c565b602085527f5361666545524332303a206c6f772d6c6576656c2063616c6c206661696c65646020860152519082865af13d15611c17573d906001600160401b03821161119d578451611b87949092611b78601f8201601f19166020018561117c565b83523d6000602085013e612068565b8051908115918215611bf4575b505015611b9e5750565b5162461bcd60e51b815260206004820152602a60248201527f5361666545524332303a204552433230206f7065726174696f6e20646964206e6044820152691bdd081cdd58d8d9595960b21b6064820152608490fd5b819250906020918101031261113d5760200151801515810361113d573880611b94565b91611b8792606091612068565b6040516370a0823160e01b81523060048201526000907f00000000000000000000000000000000000000000000000000000000000000006020826024816001600160a01b0385165afa918215611552578392611d7f575b5081611d11575b50506001547f00000000000000000000000000000000000000000000000000000000000000006001600160a01b0316803b156105045760405163a3abe42560e01b815260048101929092526006602483015282908290604490829084905af1801561050857611d01575b50506201000062ff0000196002541617600255565b81611d0b9161117c565b38611cec565b611d3d827f00000000000000000000000000000000000000000000000000000000000000008093611abe565b6001546040519283526001600160a01b03909116917ff552ca82e113ac3c539c3d617f29fcd19c172a0c75dad017555c9e109f7fe18390602090a33880611c82565b9091506020813d602011611dab575b81611d9b6020938361117c565b8101031261050457519038611c7b565b3d9150611d8e565b600160ff821610612060575b600560ff821611612058575b6040516370a0823160e01b8152306004820152600091907f00000000000000000000000000000000000000000000000000000000000000006020826024816001600160a01b0385165afa918215611f49578492612024575b5083908261ffff7f00000000000000000000000000000000000000000000000000000000000000001680611fc7575b505082611f54575b50506001547f00000000000000000000000000000000000000000000000000000000000000006001600160a01b03169150813b15611f315760405163a3abe42560e01b81526004808201929092526024810191909152838160448183865af18015611f4957611f35575b5060015491813b15611f31576040516304e29d0960e51b815260ff919091166004820152602481019290925282908290604490829084905af1801561050857611f1c5750506201000062ff0000196002541617600255565b611f2782809261117c565b6101f25780611cec565b8380fd5b83611f429194929461117c565b9138611ec4565b6040513d86823e3d90fd5b60407f5ce467ae5694ddb233a02ca7eb987835c5e2ea71eec0e379bf3a5e1207ae245991611fa4857f00000000000000000000000000000000000000000000000000000000000000008093611abe565b600154825195865260208601949094526001600160a01b031693a3388080611e5a565b819350611fd790612710926111fc565b049182611fe5575b80611e52565b611ff29193508290611225565b9161201e827f000000000000000000000000000000000000000000000000000000000000000083611abe565b38611fdf565b9091506020813d602011612050575b816120406020938361117c565b81010312611f3157519038611e23565b3d9150612033565b506005611dcb565b506001611dbf565b919290156120ca575081511561207c575090565b3b156120855790565b60405162461bcd60e51b815260206004820152601d60248201527f416464726573733a2063616c6c20746f206e6f6e2d636f6e74726163740000006044820152606490fd5b8251909150156120dd5750805190602001fd5b60405162461bcd60e51b81529081906120f990600483016111b3565b0390fdfec2575a0e9e593c00f959f8c92f12db2869c3395a3b0502d05e2516446f71f85b8a35acfbc15ff81a39ae7d344fd709f28e8600b4aa8c65c6b64bfe7fe36bd19ba2646970667358221220dc2ac18ab36503ee100dad92e682e70a3387aafa9f29625d4cb4283a9fab35ae64736f6c634300081c0033","opcodes":"PUSH2 0x220 DUP1 PUSH1 0x40 MSTORE CALLVALUE PUSH2 0x452 JUMPI PUSH2 0x2641 DUP1 CODESIZE SUB DUP1 SWAP2 PUSH2 0x1D DUP3 DUP6 PUSH2 0x482 JUMP JUMPDEST DUP4 CODECOPY DUP2 ADD PUSH2 0x1C0 DUP3 DUP3 SUB SLT PUSH2 0x452 JUMPI PUSH2 0x35 DUP3 PUSH2 0x4A5 JUMP JUMPDEST SWAP2 PUSH2 0x42 PUSH1 0x20 DUP3 ADD PUSH2 0x4A5 JUMP JUMPDEST SWAP2 PUSH2 0x4F PUSH1 0x40 DUP4 ADD PUSH2 0x4A5 JUMP JUMPDEST PUSH1 0x60 DUP4 ADD MLOAD PUSH1 0x80 DUP5 ADD MLOAD SWAP2 SWAP3 SWAP1 SWAP2 PUSH1 0x1 PUSH1 0x1 PUSH1 0x40 SHL SUB DUP2 GT PUSH2 0x452 JUMPI DUP5 ADD SWAP1 DUP1 PUSH1 0x1F DUP4 ADD SLT ISZERO PUSH2 0x452 JUMPI DUP2 MLOAD SWAP2 PUSH1 0x1 PUSH1 0x1 PUSH1 0x40 SHL SUB DUP4 GT PUSH2 0x46C JUMPI PUSH1 0x40 MLOAD SWAP2 PUSH2 0xA2 PUSH1 0x1F DUP6 ADD PUSH1 0x1F NOT AND PUSH1 0x20 ADD DUP5 PUSH2 0x482 JUMP JUMPDEST DUP4 DUP4 MSTORE PUSH1 0x20 DUP5 DUP4 ADD ADD GT PUSH2 0x452 JUMPI PUSH1 0x0 JUMPDEST DUP4 DUP2 LT PUSH2 0x457 JUMPI POP POP PUSH1 0x0 SWAP2 ADD PUSH1 0x20 ADD MSTORE PUSH1 0xA0 DUP4 ADD MLOAD PUSH2 0xFFFF DUP2 AND SWAP6 DUP7 DUP3 SUB PUSH2 0x452 JUMPI PUSH2 0xE2 PUSH1 0xC0 DUP7 ADD PUSH2 0x4A5 JUMP JUMPDEST PUSH2 0xEE PUSH1 0xE0 DUP8 ADD PUSH2 0x4A5 JUMP JUMPDEST PUSH2 0xFB PUSH2 0x100 DUP9 ADD PUSH2 0x4A5 JUMP JUMPDEST SWAP2 PUSH2 0x109 PUSH2 0x120 DUP10 ADD PUSH2 0x4B9 JUMP JUMPDEST SWAP5 PUSH2 0x117 PUSH2 0x140 DUP11 ADD PUSH2 0x4B9 JUMP JUMPDEST SWAP7 PUSH2 0x125 PUSH2 0x160 DUP12 ADD PUSH2 0x4B9 JUMP JUMPDEST SWAP9 PUSH2 0x180 DUP12 ADD MLOAD SWAP11 PUSH1 0xFF DUP13 AND DUP13 SUB PUSH2 0x452 JUMPI PUSH2 0x1A0 PUSH2 0x144 SWAP2 ADD PUSH2 0x4A5 JUMP JUMPDEST PUSH1 0x1 PUSH1 0x0 SSTORE PUSH1 0x1 PUSH1 0x1 PUSH1 0xA0 SHL SUB DUP9 AND SWAP14 SWAP1 SWAP8 SWAP1 DUP15 ISZERO DUP1 ISZERO PUSH2 0x441 JUMPI JUMPDEST DUP1 ISZERO PUSH2 0x430 JUMPI JUMPDEST DUP1 ISZERO PUSH2 0x41F JUMPI JUMPDEST DUP1 ISZERO PUSH2 0x40E JUMPI JUMPDEST DUP1 ISZERO PUSH2 0x3FD JUMPI JUMPDEST DUP1 ISZERO PUSH2 0x3EC JUMPI JUMPDEST PUSH2 0x3DB JUMPI DUP4 ISZERO PUSH2 0x3CA JUMPI PUSH2 0x2710 LT PUSH2 0x3B9 JUMPI PUSH1 0x80 MSTORE DUP12 PUSH1 0xA0 MSTORE PUSH1 0x1 DUP1 PUSH1 0xA0 SHL SUB AND PUSH1 0xC0 MSTORE PUSH1 0xE0 MSTORE PUSH2 0x100 MSTORE PUSH2 0x120 MSTORE PUSH2 0x140 MSTORE PUSH1 0x1 DUP1 PUSH1 0xA0 SHL SUB AND PUSH2 0x160 MSTORE PUSH2 0x180 MSTORE PUSH1 0x1 DUP1 PUSH1 0x40 SHL SUB AND PUSH1 0x1 DUP1 PUSH1 0x40 SHL SUB TIMESTAMP AND ADD PUSH1 0x1 DUP1 PUSH1 0x40 SHL SUB DUP2 GT PUSH2 0x3A3 JUMPI PUSH2 0x1A0 MSTORE PUSH2 0x1C0 MSTORE PUSH2 0x1E0 MSTORE PUSH2 0x200 MSTORE PUSH1 0x40 MLOAD SWAP1 PUSH1 0x20 DUP3 ADD SWAP3 ADDRESS DUP5 MSTORE PUSH1 0x40 DUP4 ADD MSTORE PUSH1 0x1 DUP1 PUSH1 0xA0 SHL SUB AND PUSH1 0x60 DUP3 ADD MSTORE PUSH1 0x60 DUP2 MSTORE PUSH2 0x222 PUSH1 0x80 DUP3 PUSH2 0x482 JUMP JUMPDEST MLOAD SWAP1 KECCAK256 PUSH1 0x1 SSTORE PUSH1 0x40 MLOAD PUSH2 0x2173 SWAP1 DUP2 PUSH2 0x4CE DUP3 CODECOPY PUSH1 0x80 MLOAD DUP2 DUP2 DUP2 PUSH2 0x2C5 ADD MSTORE DUP2 DUP2 PUSH2 0xB79 ADD MSTORE DUP2 DUP2 PUSH2 0x1056 ADD MSTORE DUP2 DUP2 PUSH2 0x14C6 ADD MSTORE DUP2 DUP2 PUSH2 0x1936 ADD MSTORE PUSH2 0x1D17 ADD MSTORE PUSH1 0xA0 MLOAD DUP2 DUP2 DUP2 PUSH2 0x37F ADD MSTORE DUP2 DUP2 PUSH2 0x9AD ADD MSTORE DUP2 DUP2 PUSH2 0xDD3 ADD MSTORE DUP2 DUP2 PUSH2 0x1582 ADD MSTORE DUP2 DUP2 PUSH2 0x1A39 ADD MSTORE PUSH2 0x1F7E ADD MSTORE PUSH1 0xC0 MLOAD DUP2 DUP2 DUP2 PUSH2 0xFD2 ADD MSTORE DUP2 DUP2 PUSH2 0x128C ADD MSTORE DUP2 DUP2 PUSH2 0x1C3C ADD MSTORE PUSH2 0x1DE4 ADD MSTORE PUSH1 0xE0 MLOAD DUP2 PUSH2 0x947 ADD MSTORE PUSH2 0x100 MLOAD DUP2 DUP2 DUP2 PUSH2 0x101C ADD MSTORE DUP2 DUP2 PUSH2 0x1376 ADD MSTORE PUSH2 0x1E2C ADD MSTORE PUSH2 0x120 MLOAD DUP2 DUP2 DUP2 PUSH2 0x24F ADD MSTORE DUP2 DUP2 PUSH2 0x15FC ADD MSTORE PUSH2 0x1FF9 ADD MSTORE PUSH2 0x140 MLOAD DUP2 DUP2 DUP2 PUSH2 0xF51 ADD MSTORE PUSH2 0x10BF ADD MSTORE PUSH2 0x160 MLOAD DUP2 DUP2 DUP2 PUSH2 0x451 ADD MSTORE DUP2 DUP2 PUSH2 0x900 ADD MSTORE DUP2 DUP2 PUSH2 0xC17 ADD MSTORE DUP2 DUP2 PUSH2 0xE48 ADD MSTORE DUP2 DUP2 PUSH2 0x13AA ADD MSTORE DUP2 DUP2 PUSH2 0x163F ADD MSTORE DUP2 DUP2 PUSH2 0x1C89 ADD MSTORE PUSH2 0x1E61 ADD MSTORE PUSH2 0x180 MLOAD DUP2 DUP2 DUP2 PUSH2 0x777 ADD MSTORE PUSH2 0xE15 ADD MSTORE PUSH2 0x1A0 MLOAD DUP2 DUP2 DUP2 PUSH2 0x19A ADD MSTORE DUP2 DUP2 PUSH2 0x807 ADD MSTORE PUSH2 0x19FC ADD MSTORE PUSH2 0x1C0 MLOAD DUP2 DUP2 DUP2 PUSH2 0x1C6 ADD MSTORE DUP2 DUP2 PUSH2 0x215 ADD MSTORE DUP2 DUP2 PUSH2 0x17E5 ADD MSTORE PUSH2 0x1817 ADD MSTORE PUSH2 0x1E0 MLOAD DUP2 DUP2 DUP2 PUSH2 0x423 ADD MSTORE DUP2 DUP2 PUSH2 0xB07 ADD MSTORE PUSH2 0x18F2 ADD MSTORE PUSH2 0x200 MLOAD DUP2 DUP2 DUP2 PUSH2 0xA2E ADD MSTORE PUSH2 0x1840 ADD MSTORE RETURN JUMPDEST PUSH4 0x4E487B71 PUSH1 0xE0 SHL PUSH1 0x0 MSTORE PUSH1 0x11 PUSH1 0x4 MSTORE PUSH1 0x24 PUSH1 0x0 REVERT JUMPDEST PUSH4 0xBBF4268D PUSH1 0xE0 SHL PUSH1 0x0 MSTORE PUSH1 0x4 PUSH1 0x0 REVERT JUMPDEST PUSH4 0x65E52D51 PUSH1 0xE1 SHL PUSH1 0x0 MSTORE PUSH1 0x4 PUSH1 0x0 REVERT JUMPDEST PUSH4 0xD92E233D PUSH1 0xE0 SHL PUSH1 0x0 MSTORE PUSH1 0x4 PUSH1 0x0 REVERT JUMPDEST POP PUSH1 0x1 PUSH1 0x1 PUSH1 0xA0 SHL SUB DUP10 AND ISZERO PUSH2 0x183 JUMP JUMPDEST POP PUSH1 0x1 PUSH1 0x1 PUSH1 0xA0 SHL SUB DUP9 AND ISZERO PUSH2 0x17C JUMP JUMPDEST POP PUSH1 0x1 PUSH1 0x1 PUSH1 0xA0 SHL SUB DUP8 AND ISZERO PUSH2 0x175 JUMP JUMPDEST POP PUSH1 0x1 PUSH1 0x1 PUSH1 0xA0 SHL SUB DUP7 AND ISZERO PUSH2 0x16E JUMP JUMPDEST POP PUSH1 0x1 PUSH1 0x1 PUSH1 0xA0 SHL SUB DUP4 AND ISZERO PUSH2 0x167 JUMP JUMPDEST POP PUSH1 0x1 PUSH1 0x1 PUSH1 0xA0 SHL SUB DUP15 AND ISZERO PUSH2 0x160 JUMP JUMPDEST PUSH1 0x0 DUP1 REVERT JUMPDEST DUP1 PUSH1 0x20 DUP1 SWAP3 DUP5 ADD ADD MLOAD DUP3 DUP3 DUP7 ADD ADD MSTORE ADD PUSH2 0xB3 JUMP JUMPDEST PUSH4 0x4E487B71 PUSH1 0xE0 SHL PUSH1 0x0 MSTORE PUSH1 0x41 PUSH1 0x4 MSTORE PUSH1 0x24 PUSH1 0x0 REVERT JUMPDEST PUSH1 0x1F SWAP1 SWAP2 ADD PUSH1 0x1F NOT AND DUP2 ADD SWAP1 PUSH1 0x1 PUSH1 0x1 PUSH1 0x40 SHL SUB DUP3 GT SWAP1 DUP3 LT OR PUSH2 0x46C JUMPI PUSH1 0x40 MSTORE JUMP JUMPDEST MLOAD SWAP1 PUSH1 0x1 PUSH1 0x1 PUSH1 0xA0 SHL SUB DUP3 AND DUP3 SUB PUSH2 0x452 JUMPI JUMP JUMPDEST MLOAD SWAP1 PUSH1 0x1 PUSH1 0x1 PUSH1 0x40 SHL SUB DUP3 AND DUP3 SUB PUSH2 0x452 JUMPI JUMP INVALID PUSH1 0x80 DUP1 PUSH1 0x40 MSTORE PUSH1 0x4 CALLDATASIZE LT ISZERO PUSH2 0x13 JUMPI PUSH1 0x0 DUP1 REVERT JUMPDEST PUSH1 0x0 SWAP1 DUP2 CALLDATALOAD PUSH1 0xE0 SHR SWAP1 DUP2 PUSH4 0x4F3BCEC EQ PUSH2 0x10AB JUMPI POP DUP1 PUSH4 0x695C46C EQ PUSH2 0x1085 JUMPI DUP1 PUSH4 0x109E94CF EQ PUSH2 0x1040 JUMPI DUP1 PUSH4 0x22DCD13E EQ PUSH2 0x1001 JUMPI DUP1 PUSH4 0x2F48AB7D EQ PUSH2 0xFBC JUMPI DUP1 PUSH4 0x46A86348 EQ PUSH2 0xF14 JUMPI DUP1 PUSH4 0x50EC709A EQ PUSH2 0xE02 JUMPI DUP1 PUSH4 0x725A3B4B EQ PUSH2 0xB59 JUMPI DUP1 PUSH4 0x7A1A464D EQ PUSH2 0xB2B JUMPI DUP1 PUSH4 0x805BF08A EQ PUSH2 0xAE7 JUMPI DUP1 PUSH4 0x916B2F88 EQ PUSH2 0xA52 JUMPI DUP1 PUSH4 0x92C67F72 EQ PUSH2 0xA14 JUMPI DUP1 PUSH4 0xA0D3DB85 EQ PUSH2 0x9DC JUMPI DUP1 PUSH4 0xA37DDA2C EQ PUSH2 0x997 JUMPI DUP1 PUSH4 0xA9AC153E EQ PUSH2 0x96A JUMPI DUP1 PUSH4 0xAA8C217C EQ PUSH2 0x92F JUMPI DUP1 PUSH4 0xAB60636C EQ PUSH2 0x8EA JUMPI DUP1 PUSH4 0xB533A0CC EQ PUSH2 0x8C0 JUMPI DUP1 PUSH4 0xB6D98B6B EQ PUSH2 0x82B JUMPI DUP1 PUSH4 0xB7810853 EQ PUSH2 0x7E7 JUMPI DUP1 PUSH4 0xBBDFBFBA EQ PUSH2 0x7C4 JUMPI DUP1 PUSH4 0xBCC9C5ED EQ PUSH2 0x7A6 JUMPI DUP1 PUSH4 0xBDD1DAAA EQ PUSH2 0x761 JUMPI DUP1 PUSH4 0xDD3D06B9 EQ PUSH2 0x694 JUMPI DUP1 PUSH4 0xE4933AE3 EQ PUSH2 0x36E JUMPI DUP1 PUSH4 0xF0DF51B3 EQ PUSH2 0x2A4 JUMPI DUP1 PUSH4 0xF45D0BC6 EQ PUSH2 0x27E JUMPI DUP1 PUSH4 0xFA2AF9DA EQ PUSH2 0x239 JUMPI DUP1 PUSH4 0xFD35B33C EQ PUSH2 0x1F5 JUMPI PUSH4 0xFE5D97C8 EQ PUSH2 0x16B JUMPI PUSH1 0x0 DUP1 REVERT JUMPDEST CALLVALUE PUSH2 0x1F2 JUMPI DUP1 PUSH1 0x3 NOT CALLDATASIZE ADD SLT PUSH2 0x1F2 JUMPI PUSH1 0x60 PUSH1 0x1 PUSH1 0x1 PUSH1 0x40 SHL SUB PUSH1 0x2 SLOAD PUSH1 0x18 SHR AND PUSH1 0x40 MLOAD SWAP1 PUSH1 0x1 PUSH1 0x1 PUSH1 0x40 SHL SUB PUSH32 0x0 AND DUP3 MSTORE PUSH1 0x1 PUSH1 0x1 PUSH1 0x40 SHL SUB PUSH32 0x0 AND PUSH1 0x20 DUP4 ADD MSTORE PUSH1 0x40 DUP3 ADD MSTORE RETURN JUMPDEST DUP1 REVERT JUMPDEST POP CALLVALUE PUSH2 0x1F2 JUMPI DUP1 PUSH1 0x3 NOT CALLDATASIZE ADD SLT PUSH2 0x1F2 JUMPI PUSH1 0x20 PUSH1 0x40 MLOAD PUSH1 0x1 PUSH1 0x1 PUSH1 0x40 SHL SUB PUSH32 0x0 AND DUP2 MSTORE RETURN JUMPDEST POP CALLVALUE PUSH2 0x1F2 JUMPI DUP1 PUSH1 0x3 NOT CALLDATASIZE ADD SLT PUSH2 0x1F2 JUMPI PUSH1 0x40 MLOAD PUSH32 0x0 PUSH1 0x1 PUSH1 0x1 PUSH1 0xA0 SHL SUB AND DUP2 MSTORE PUSH1 0x20 SWAP1 RETURN JUMPDEST POP CALLVALUE PUSH2 0x1F2 JUMPI DUP1 PUSH1 0x3 NOT CALLDATASIZE ADD SLT PUSH2 0x1F2 JUMPI PUSH1 0x20 PUSH1 0xFF PUSH1 0x2 SLOAD PUSH1 0x10 SHR AND PUSH1 0x40 MLOAD SWAP1 ISZERO ISZERO DUP2 MSTORE RETURN JUMPDEST POP CALLVALUE PUSH2 0x1F2 JUMPI PUSH1 0x20 CALLDATASIZE PUSH1 0x3 NOT ADD SLT PUSH2 0x1F2 JUMPI PUSH1 0x4 CALLDATALOAD PUSH1 0xFF DUP2 AND DUP2 SUB PUSH2 0x36A JUMPI PUSH32 0x0 PUSH1 0x1 PUSH1 0x1 PUSH1 0xA0 SHL SUB AND CALLER SUB PUSH2 0x35B JUMPI PUSH1 0xFF PUSH1 0x2 SLOAD PUSH1 0x10 SHR AND PUSH2 0x34C JUMPI PUSH2 0x308 PUSH2 0x1A68 JUMP JUMPDEST PUSH1 0x2 SLOAD PUSH1 0xFF DUP2 AND ISZERO PUSH2 0x33D JUMPI PUSH1 0x8 SHR PUSH1 0xFF AND PUSH2 0x32E JUMPI PUSH2 0x327 SWAP1 PUSH2 0x1DB3 JUMP JUMPDEST PUSH1 0x1 DUP2 SSTORE DUP1 RETURN JUMPDEST PUSH4 0x62E6201D PUSH1 0xE0 SHL DUP3 MSTORE PUSH1 0x4 DUP3 REVERT JUMPDEST PUSH4 0xA8BD16F PUSH1 0xE2 SHL DUP4 MSTORE PUSH1 0x4 DUP4 REVERT JUMPDEST PUSH4 0xE405A433 PUSH1 0xE0 SHL DUP3 MSTORE PUSH1 0x4 DUP3 REVERT JUMPDEST PUSH4 0x836F21D PUSH1 0xE2 SHL DUP3 MSTORE PUSH1 0x4 DUP3 REVERT JUMPDEST POP DUP1 REVERT JUMPDEST POP CALLVALUE PUSH2 0x1F2 JUMPI PUSH2 0x37D CALLDATASIZE PUSH2 0x10EE JUMP JUMPDEST PUSH32 0x0 PUSH1 0x1 PUSH1 0x1 PUSH1 0xA0 SHL SUB AND CALLER SUB PUSH2 0x685 JUMPI PUSH1 0x2 SLOAD PUSH1 0xFF DUP2 PUSH1 0x10 SHR AND PUSH2 0x676 JUMPI PUSH1 0xFF DUP2 AND PUSH2 0x667 JUMPI PUSH1 0xFF NOT AND PUSH1 0x1 OR PUSH1 0x2 SSTORE PUSH1 0x1 PUSH1 0x1 PUSH1 0x40 SHL SUB DUP2 GT PUSH2 0x653 JUMPI PUSH2 0x3E6 PUSH1 0x3 SLOAD PUSH2 0x1142 JUMP JUMPDEST PUSH1 0x1F DUP2 GT PUSH2 0x5E8 JUMPI JUMPDEST POP DUP1 DUP4 PUSH1 0x1F DUP3 GT PUSH1 0x1 EQ PUSH2 0x578 JUMPI DUP5 SWAP2 PUSH2 0x56D JUMPI JUMPDEST POP DUP2 PUSH1 0x1 SHL SWAP1 PUSH1 0x0 NOT DUP4 PUSH1 0x3 SHL SHR NOT AND OR PUSH1 0x3 SSTORE JUMPDEST PUSH1 0x1 PUSH1 0x1 PUSH1 0x40 SHL SUB PUSH32 0x0 AND DUP1 PUSH2 0x513 JUMPI JUMPDEST POP PUSH1 0x1 SLOAD DUP4 SWAP1 PUSH32 0x0 PUSH1 0x1 PUSH1 0x1 PUSH1 0xA0 SHL SUB AND SWAP1 DUP2 EXTCODESIZE ISZERO PUSH2 0x504 JUMPI DUP3 SWAP2 PUSH1 0x44 DUP4 SWAP3 PUSH1 0x40 MLOAD SWAP5 DUP6 SWAP4 DUP5 SWAP3 PUSH4 0xA3ABE425 PUSH1 0xE0 SHL DUP5 MSTORE PUSH1 0x4 DUP5 ADD MSTORE PUSH1 0x3 PUSH1 0x24 DUP5 ADD MSTORE GAS CALL DUP1 ISZERO PUSH2 0x508 JUMPI PUSH2 0x4EF JUMPI JUMPDEST POP POP PUSH32 0x6D9E4862E2F82A8175FCD785CD60C14F21A2AF0C38C0B7682015FECE7158E7E4 SWAP1 PUSH1 0x1 SLOAD SWAP3 PUSH2 0x4E9 PUSH1 0x40 MLOAD SWAP3 DUP4 SWAP3 DUP4 PUSH2 0x175B JUMP JUMPDEST SUB SWAP1 LOG2 DUP1 RETURN JUMPDEST DUP2 PUSH2 0x4F9 SWAP2 PUSH2 0x117C JUMP JUMPDEST PUSH2 0x504 JUMPI DUP3 CODESIZE PUSH2 0x4B2 JUMP JUMPDEST DUP3 DUP1 REVERT JUMPDEST PUSH1 0x40 MLOAD RETURNDATASIZE DUP5 DUP3 RETURNDATACOPY RETURNDATASIZE SWAP1 REVERT JUMPDEST PUSH1 0x1 PUSH1 0x1 PUSH1 0x40 SHL SUB TIMESTAMP AND ADD PUSH1 0x1 PUSH1 0x1 PUSH1 0x40 SHL SUB DUP2 GT PUSH2 0x559 JUMPI PUSH11 0xFFFFFFFFFFFFFFFF000000 PUSH1 0x2 SLOAD SWAP2 PUSH1 0x18 SHL AND SWAP1 PUSH11 0xFFFFFFFFFFFFFFFF000000 NOT AND OR PUSH1 0x2 SSTORE CODESIZE PUSH2 0x449 JUMP JUMPDEST PUSH4 0x4E487B71 PUSH1 0xE0 SHL DUP5 MSTORE PUSH1 0x11 PUSH1 0x4 MSTORE PUSH1 0x24 DUP5 REVERT JUMPDEST SWAP1 POP DUP3 ADD CALLDATALOAD CODESIZE PUSH2 0x404 JUMP JUMPDEST PUSH1 0x3 DUP6 MSTORE PUSH1 0x0 DUP1 MLOAD PUSH1 0x20 PUSH2 0x20FE DUP4 CODECOPY DUP2 MLOAD SWAP2 MSTORE SWAP2 POP DUP3 PUSH1 0x1F NOT DUP2 AND DUP7 JUMPDEST DUP2 DUP2 LT PUSH2 0x5CD JUMPI POP LT PUSH2 0x5B3 JUMPI JUMPDEST POP POP PUSH1 0x1 DUP2 DUP2 SHL ADD PUSH1 0x3 SSTORE PUSH2 0x419 JUMP JUMPDEST DUP4 ADD CALLDATALOAD PUSH1 0x0 NOT PUSH1 0x3 DUP5 SWAP1 SHL PUSH1 0xF8 AND SHR NOT AND SWAP1 SSTORE CODESIZE DUP1 PUSH2 0x5A3 JUMP JUMPDEST DUP7 DUP5 ADD CALLDATALOAD DUP6 SSTORE PUSH1 0x1 SWAP1 SWAP5 ADD SWAP4 PUSH1 0x20 SWAP4 DUP5 ADD SWAP4 DUP7 SWAP4 POP ADD PUSH2 0x595 JUMP JUMPDEST PUSH1 0x3 DUP5 MSTORE PUSH1 0x1F DUP3 ADD PUSH1 0x5 SHR PUSH1 0x0 DUP1 MLOAD PUSH1 0x20 PUSH2 0x20FE DUP4 CODECOPY DUP2 MLOAD SWAP2 MSTORE ADD SWAP1 PUSH1 0x20 DUP4 LT PUSH2 0x63D JUMPI JUMPDEST PUSH1 0x1F ADD PUSH1 0x5 SHR PUSH1 0x0 DUP1 MLOAD PUSH1 0x20 PUSH2 0x20FE DUP4 CODECOPY DUP2 MLOAD SWAP2 MSTORE ADD SWAP1 JUMPDEST DUP2 DUP2 LT PUSH2 0x632 JUMPI POP PUSH2 0x3EF JUMP JUMPDEST DUP5 DUP2 SSTORE PUSH1 0x1 ADD PUSH2 0x625 JUMP JUMPDEST PUSH1 0x0 DUP1 MLOAD PUSH1 0x20 PUSH2 0x20FE DUP4 CODECOPY DUP2 MLOAD SWAP2 MSTORE SWAP2 POP PUSH2 0x60D JUMP JUMPDEST PUSH4 0x4E487B71 PUSH1 0xE0 SHL DUP4 MSTORE PUSH1 0x41 PUSH1 0x4 MSTORE PUSH1 0x24 DUP4 REVERT JUMPDEST PUSH4 0xB9F79653 PUSH1 0xE0 SHL DUP5 MSTORE PUSH1 0x4 DUP5 REVERT JUMPDEST PUSH4 0xE405A433 PUSH1 0xE0 SHL DUP5 MSTORE PUSH1 0x4 DUP5 REVERT JUMPDEST PUSH4 0x38323869 PUSH1 0xE1 SHL DUP4 MSTORE PUSH1 0x4 DUP4 REVERT JUMPDEST POP CALLVALUE PUSH2 0x1F2 JUMPI DUP1 PUSH1 0x3 NOT CALLDATASIZE ADD SLT PUSH2 0x1F2 JUMPI PUSH1 0x40 MLOAD SWAP1 DUP1 PUSH1 0x3 SLOAD SWAP1 PUSH2 0x6B7 DUP3 PUSH2 0x1142 JUMP JUMPDEST DUP1 DUP6 MSTORE SWAP2 PUSH1 0x1 DUP2 AND SWAP1 DUP2 ISZERO PUSH2 0x73A JUMPI POP PUSH1 0x1 EQ PUSH2 0x6EF JUMPI JUMPDEST PUSH2 0x6EB DUP5 PUSH2 0x6DF DUP2 DUP7 SUB DUP3 PUSH2 0x117C JUMP JUMPDEST PUSH1 0x40 MLOAD SWAP2 DUP3 SWAP2 DUP3 PUSH2 0x11B3 JUMP JUMPDEST SUB SWAP1 RETURN JUMPDEST PUSH1 0x3 DUP2 MSTORE PUSH1 0x0 DUP1 MLOAD PUSH1 0x20 PUSH2 0x20FE DUP4 CODECOPY DUP2 MLOAD SWAP2 MSTORE SWAP4 SWAP3 POP SWAP1 JUMPDEST DUP1 DUP3 LT PUSH2 0x720 JUMPI POP SWAP1 SWAP2 POP DUP2 ADD PUSH1 0x20 ADD PUSH2 0x6DF DUP3 PUSH2 0x6CF JUMP JUMPDEST SWAP2 SWAP3 PUSH1 0x1 DUP2 PUSH1 0x20 SWAP3 SLOAD DUP4 DUP6 DUP9 ADD ADD MSTORE ADD SWAP2 ADD SWAP1 SWAP3 SWAP2 PUSH2 0x707 JUMP JUMPDEST PUSH1 0xFF NOT AND PUSH1 0x20 DUP1 DUP8 ADD SWAP2 SWAP1 SWAP2 MSTORE SWAP3 ISZERO ISZERO PUSH1 0x5 SHL DUP6 ADD SWAP1 SWAP3 ADD SWAP3 POP PUSH2 0x6DF SWAP2 POP DUP4 SWAP1 POP PUSH2 0x6CF JUMP JUMPDEST POP CALLVALUE PUSH2 0x1F2 JUMPI DUP1 PUSH1 0x3 NOT CALLDATASIZE ADD SLT PUSH2 0x1F2 JUMPI PUSH1 0x40 MLOAD PUSH32 0x0 PUSH1 0x1 PUSH1 0x1 PUSH1 0xA0 SHL SUB AND DUP2 MSTORE PUSH1 0x20 SWAP1 RETURN JUMPDEST POP CALLVALUE PUSH2 0x1F2 JUMPI DUP1 PUSH1 0x3 NOT CALLDATASIZE ADD SLT PUSH2 0x1F2 JUMPI PUSH1 0x20 PUSH1 0x1 SLOAD PUSH1 0x40 MLOAD SWAP1 DUP2 MSTORE RETURN JUMPDEST POP CALLVALUE PUSH2 0x1F2 JUMPI DUP1 PUSH1 0x3 NOT CALLDATASIZE ADD SLT PUSH2 0x1F2 JUMPI PUSH1 0x20 PUSH1 0xFF PUSH1 0x2 SLOAD AND PUSH1 0x40 MLOAD SWAP1 ISZERO ISZERO DUP2 MSTORE RETURN JUMPDEST POP CALLVALUE PUSH2 0x1F2 JUMPI DUP1 PUSH1 0x3 NOT CALLDATASIZE ADD SLT PUSH2 0x1F2 JUMPI PUSH1 0x20 PUSH1 0x40 MLOAD PUSH1 0x1 PUSH1 0x1 PUSH1 0x40 SHL SUB PUSH32 0x0 AND DUP2 MSTORE RETURN JUMPDEST POP CALLVALUE PUSH2 0x1F2 JUMPI DUP1 PUSH1 0x3 NOT CALLDATASIZE ADD SLT PUSH2 0x1F2 JUMPI PUSH1 0x40 MLOAD SWAP1 DUP1 PUSH1 0x4 SLOAD SWAP1 PUSH2 0x84E DUP3 PUSH2 0x1142 JUMP JUMPDEST DUP1 DUP6 MSTORE SWAP2 PUSH1 0x1 DUP2 AND SWAP1 DUP2 ISZERO PUSH2 0x73A JUMPI POP PUSH1 0x1 EQ PUSH2 0x875 JUMPI PUSH2 0x6EB DUP5 PUSH2 0x6DF DUP2 DUP7 SUB DUP3 PUSH2 0x117C JUMP JUMPDEST PUSH1 0x4 DUP2 MSTORE PUSH1 0x0 DUP1 MLOAD PUSH1 0x20 PUSH2 0x211E DUP4 CODECOPY DUP2 MLOAD SWAP2 MSTORE SWAP4 SWAP3 POP SWAP1 JUMPDEST DUP1 DUP3 LT PUSH2 0x8A6 JUMPI POP SWAP1 SWAP2 POP DUP2 ADD PUSH1 0x20 ADD PUSH2 0x6DF DUP3 PUSH2 0x6CF JUMP JUMPDEST SWAP2 SWAP3 PUSH1 0x1 DUP2 PUSH1 0x20 SWAP3 SLOAD DUP4 DUP6 DUP9 ADD ADD MSTORE ADD SWAP2 ADD SWAP1 SWAP3 SWAP2 PUSH2 0x88D JUMP JUMPDEST POP CALLVALUE PUSH2 0x1F2 JUMPI DUP1 PUSH1 0x3 NOT CALLDATASIZE ADD SLT PUSH2 0x1F2 JUMPI PUSH1 0x20 PUSH1 0x1 PUSH1 0x1 PUSH1 0x40 SHL SUB PUSH1 0x2 SLOAD PUSH1 0x18 SHR AND PUSH1 0x40 MLOAD SWAP1 DUP2 MSTORE RETURN JUMPDEST POP CALLVALUE PUSH2 0x1F2 JUMPI DUP1 PUSH1 0x3 NOT CALLDATASIZE ADD SLT PUSH2 0x1F2 JUMPI PUSH1 0x40 MLOAD PUSH32 0x0 PUSH1 0x1 PUSH1 0x1 PUSH1 0xA0 SHL SUB AND DUP2 MSTORE PUSH1 0x20 SWAP1 RETURN JUMPDEST POP CALLVALUE PUSH2 0x1F2 JUMPI DUP1 PUSH1 0x3 NOT CALLDATASIZE ADD SLT PUSH2 0x1F2 JUMPI PUSH1 0x20 PUSH1 0x40 MLOAD PUSH32 0x0 DUP2 MSTORE RETURN JUMPDEST POP CALLVALUE PUSH2 0x1F2 JUMPI DUP1 PUSH1 0x3 NOT CALLDATASIZE ADD SLT PUSH2 0x1F2 JUMPI PUSH1 0x2 SLOAD PUSH1 0x40 MLOAD PUSH1 0x58 SWAP2 SWAP1 SWAP2 SHR PUSH1 0x1 PUSH1 0x1 PUSH1 0xA0 SHL SUB AND DUP2 MSTORE PUSH1 0x20 SWAP1 RETURN JUMPDEST POP CALLVALUE PUSH2 0x1F2 JUMPI DUP1 PUSH1 0x3 NOT CALLDATASIZE ADD SLT PUSH2 0x1F2 JUMPI PUSH1 0x40 MLOAD PUSH32 0x0 PUSH1 0x1 PUSH1 0x1 PUSH1 0xA0 SHL SUB AND DUP2 MSTORE PUSH1 0x20 SWAP1 RETURN JUMPDEST POP CALLVALUE PUSH2 0x1F2 JUMPI DUP1 PUSH1 0x3 NOT CALLDATASIZE ADD SLT PUSH2 0x1F2 JUMPI PUSH1 0xFF PUSH1 0x2 SLOAD PUSH1 0x10 SHR AND PUSH2 0xA05 JUMPI PUSH2 0xA02 PUSH2 0x1933 JUMP JUMPDEST DUP1 RETURN JUMPDEST PUSH4 0xE405A433 PUSH1 0xE0 SHL DUP2 MSTORE PUSH1 0x4 SWAP1 REVERT JUMPDEST POP CALLVALUE PUSH2 0x1F2 JUMPI DUP1 PUSH1 0x3 NOT CALLDATASIZE ADD SLT PUSH2 0x1F2 JUMPI PUSH1 0x20 PUSH1 0x40 MLOAD PUSH1 0xFF PUSH32 0x0 AND DUP2 MSTORE RETURN JUMPDEST POP CALLVALUE PUSH2 0x1F2 JUMPI DUP1 PUSH1 0x3 NOT CALLDATASIZE ADD SLT PUSH2 0x1F2 JUMPI PUSH1 0xFF PUSH1 0x2 SLOAD PUSH1 0x10 SHR AND PUSH2 0xA05 JUMPI PUSH2 0xA78 PUSH2 0x1A68 JUMP JUMPDEST PUSH1 0x2 SLOAD PUSH1 0x58 SHR PUSH1 0x1 PUSH1 0x1 PUSH1 0xA0 SHL SUB AND DUP1 ISZERO PUSH2 0xAD8 JUMPI CALLER EQ PUSH2 0xAC9 JUMPI PUSH2 0xA9B PUSH2 0x1C24 JUMP JUMPDEST PUSH1 0x1 SLOAD PUSH32 0x4897449F1B0CE6101A99BA5E17EEA100DBFC65A5EB810060F708A392668BCE97 DUP3 DUP1 LOG2 PUSH1 0x1 DUP2 SSTORE DUP1 RETURN JUMPDEST PUSH4 0x48F5C3ED PUSH1 0xE0 SHL DUP2 MSTORE PUSH1 0x4 SWAP1 REVERT JUMPDEST PUSH4 0x99FCD6DF PUSH1 0xE0 SHL DUP3 MSTORE PUSH1 0x4 DUP3 REVERT JUMPDEST POP CALLVALUE PUSH2 0x1F2 JUMPI DUP1 PUSH1 0x3 NOT CALLDATASIZE ADD SLT PUSH2 0x1F2 JUMPI PUSH1 0x20 PUSH1 0x40 MLOAD PUSH1 0x1 PUSH1 0x1 PUSH1 0x40 SHL SUB PUSH32 0x0 AND DUP2 MSTORE RETURN JUMPDEST POP CALLVALUE PUSH2 0x1F2 JUMPI DUP1 PUSH1 0x3 NOT CALLDATASIZE ADD SLT PUSH2 0x1F2 JUMPI PUSH1 0xFF PUSH1 0x2 SLOAD PUSH1 0x10 SHR AND PUSH2 0xA05 JUMPI PUSH2 0xB51 PUSH2 0x1A68 JUMP JUMPDEST PUSH2 0x327 PUSH2 0x1783 JUMP JUMPDEST POP CALLVALUE PUSH2 0x1F2 JUMPI PUSH2 0xB68 CALLDATASIZE PUSH2 0x10EE JUMP JUMPDEST PUSH1 0x2 SLOAD PUSH1 0xFF DUP2 PUSH1 0x10 SHR AND PUSH2 0x676 JUMPI CALLER PUSH32 0x0 PUSH1 0x1 PUSH1 0x1 PUSH1 0xA0 SHL SUB AND EQ ISZERO DUP1 PUSH2 0xDCF JUMPI JUMPDEST PUSH2 0xDC0 JUMPI PUSH1 0xFF DUP2 PUSH1 0x8 SHR AND PUSH2 0xDB1 JUMPI PUSH2 0xFF00 NOT AND PUSH2 0x100 OR PUSH1 0x2 SSTORE PUSH1 0x1 PUSH1 0x1 PUSH1 0x40 SHL SUB DUP2 GT PUSH2 0x653 JUMPI PUSH2 0xBDD PUSH1 0x4 SLOAD PUSH2 0x1142 JUMP JUMPDEST PUSH1 0x1F DUP2 GT PUSH2 0xD46 JUMPI JUMPDEST POP DUP1 DUP4 PUSH1 0x1F DUP3 GT PUSH1 0x1 EQ PUSH2 0xCD6 JUMPI DUP5 SWAP2 PUSH2 0xCCB JUMPI JUMPDEST POP DUP2 PUSH1 0x1 SHL SWAP1 PUSH1 0x0 NOT DUP4 PUSH1 0x3 SHL SHR NOT AND OR PUSH1 0x4 SSTORE JUMPDEST PUSH1 0x1 SLOAD DUP4 SWAP1 PUSH32 0x0 PUSH1 0x1 PUSH1 0x1 PUSH1 0xA0 SHL SUB AND SWAP1 DUP2 EXTCODESIZE ISZERO PUSH2 0x504 JUMPI DUP3 SWAP2 PUSH1 0x44 DUP4 SWAP3 PUSH1 0x40 MLOAD SWAP5 DUP6 SWAP4 DUP5 SWAP3 PUSH4 0xA3ABE425 PUSH1 0xE0 SHL DUP5 MSTORE PUSH1 0x4 DUP5 ADD MSTORE PUSH1 0x5 PUSH1 0x24 DUP5 ADD MSTORE GAS CALL DUP1 ISZERO PUSH2 0x508 JUMPI PUSH2 0xCB6 JUMPI JUMPDEST POP POP PUSH32 0x49E53FD224357020766CE272815E8A15C300AACE14A011CFCDED9335798FBD0E PUSH2 0xCB0 PUSH1 0x1 SLOAD SWAP3 PUSH1 0x40 MLOAD SWAP2 DUP3 SWAP2 CALLER SWAP7 DUP4 PUSH2 0x175B JUMP JUMPDEST SUB SWAP1 LOG3 DUP1 RETURN JUMPDEST DUP2 PUSH2 0xCC0 SWAP2 PUSH2 0x117C JUMP JUMPDEST PUSH2 0x504 JUMPI DUP3 CODESIZE PUSH2 0xC78 JUMP JUMPDEST SWAP1 POP DUP3 ADD CALLDATALOAD CODESIZE PUSH2 0xBFB JUMP JUMPDEST PUSH1 0x4 DUP6 MSTORE PUSH1 0x0 DUP1 MLOAD PUSH1 0x20 PUSH2 0x211E DUP4 CODECOPY DUP2 MLOAD SWAP2 MSTORE SWAP2 POP DUP3 PUSH1 0x1F NOT DUP2 AND DUP7 JUMPDEST DUP2 DUP2 LT PUSH2 0xD2B JUMPI POP LT PUSH2 0xD11 JUMPI JUMPDEST POP POP PUSH1 0x1 DUP2 DUP2 SHL ADD PUSH1 0x4 SSTORE PUSH2 0xC10 JUMP JUMPDEST DUP4 ADD CALLDATALOAD PUSH1 0x0 NOT PUSH1 0x3 DUP5 SWAP1 SHL PUSH1 0xF8 AND SHR NOT AND SWAP1 SSTORE CODESIZE DUP1 PUSH2 0xD01 JUMP JUMPDEST DUP7 DUP5 ADD CALLDATALOAD DUP6 SSTORE PUSH1 0x1 SWAP1 SWAP5 ADD SWAP4 PUSH1 0x20 SWAP4 DUP5 ADD SWAP4 DUP7 SWAP4 POP ADD PUSH2 0xCF3 JUMP JUMPDEST PUSH1 0x4 DUP5 MSTORE PUSH1 0x1F DUP3 ADD PUSH1 0x5 SHR PUSH1 0x0 DUP1 MLOAD PUSH1 0x20 PUSH2 0x211E DUP4 CODECOPY DUP2 MLOAD SWAP2 MSTORE ADD SWAP1 PUSH1 0x20 DUP4 LT PUSH2 0xD9B JUMPI JUMPDEST PUSH1 0x1F ADD PUSH1 0x5 SHR PUSH1 0x0 DUP1 MLOAD PUSH1 0x20 PUSH2 0x211E DUP4 CODECOPY DUP2 MLOAD SWAP2 MSTORE ADD SWAP1 JUMPDEST DUP2 DUP2 LT PUSH2 0xD90 JUMPI POP PUSH2 0xBE6 JUMP JUMPDEST DUP5 DUP2 SSTORE PUSH1 0x1 ADD PUSH2 0xD83 JUMP JUMPDEST PUSH1 0x0 DUP1 MLOAD PUSH1 0x20 PUSH2 0x211E DUP4 CODECOPY DUP2 MLOAD SWAP2 MSTORE SWAP2 POP PUSH2 0xD6B JUMP JUMPDEST PUSH4 0x62E6201D PUSH1 0xE0 SHL DUP5 MSTORE PUSH1 0x4 DUP5 REVERT JUMPDEST PUSH4 0x48F5C3ED PUSH1 0xE0 SHL DUP5 MSTORE PUSH1 0x4 DUP5 REVERT JUMPDEST POP CALLER PUSH32 0x0 PUSH1 0x1 PUSH1 0x1 PUSH1 0xA0 SHL SUB AND EQ ISZERO PUSH2 0xBA9 JUMP JUMPDEST POP CALLVALUE PUSH2 0x1F2 JUMPI DUP1 PUSH1 0x3 NOT CALLDATASIZE ADD SLT PUSH2 0x1F2 JUMPI PUSH32 0x0 PUSH1 0x1 PUSH1 0x1 PUSH1 0xA0 SHL SUB AND CALLER SUB PUSH2 0xF05 JUMPI PUSH1 0x1 SLOAD PUSH32 0x0 PUSH1 0x1 PUSH1 0x1 PUSH1 0xA0 SHL SUB AND SWAP2 SWAP1 DUP3 EXTCODESIZE ISZERO PUSH2 0x36A JUMPI PUSH1 0x40 MLOAD SWAP1 PUSH4 0x1F481A5D PUSH1 0xE3 SHL DUP3 MSTORE PUSH1 0x4 DUP3 ADD MSTORE DUP2 DUP2 PUSH1 0x24 DUP2 DUP4 DUP8 GAS CALL DUP1 ISZERO PUSH2 0x508 JUMPI PUSH2 0xEF5 JUMPI JUMPDEST POP DUP1 SWAP2 PUSH1 0x1 SLOAD DUP2 EXTCODESIZE ISZERO PUSH2 0xEF1 JUMPI DUP3 SWAP2 PUSH1 0x44 DUP4 SWAP3 PUSH1 0x40 MLOAD SWAP5 DUP6 SWAP4 DUP5 SWAP3 PUSH4 0xA3ABE425 PUSH1 0xE0 SHL DUP5 MSTORE PUSH1 0x4 DUP5 ADD MSTORE PUSH1 0x2 PUSH1 0x24 DUP5 ADD MSTORE GAS CALL DUP1 ISZERO PUSH2 0x508 JUMPI PUSH2 0xEE0 JUMPI POP RETURN JUMPDEST DUP2 PUSH2 0xEEA SWAP2 PUSH2 0x117C JUMP JUMPDEST PUSH2 0x1F2 JUMPI DUP1 RETURN JUMPDEST POP POP REVERT JUMPDEST DUP2 PUSH2 0xEFF SWAP2 PUSH2 0x117C JUMP JUMPDEST CODESIZE PUSH2 0xEA0 JUMP JUMPDEST PUSH4 0x1966391B PUSH1 0xE1 SHL DUP2 MSTORE PUSH1 0x4 SWAP1 REVERT JUMPDEST POP CALLVALUE PUSH2 0x1F2 JUMPI PUSH1 0x60 CALLDATASIZE PUSH1 0x3 NOT ADD SLT PUSH2 0x1F2 JUMPI PUSH1 0x4 CALLDATALOAD SWAP1 PUSH2 0xFFFF DUP3 AND DUP3 SUB PUSH2 0x1F2 JUMPI PUSH1 0x24 CALLDATALOAD PUSH1 0xFF DUP2 AND DUP2 SUB PUSH2 0x36A JUMPI PUSH1 0x44 CALLDATALOAD SWAP1 PUSH1 0x2 DUP3 LT ISZERO PUSH2 0x504 JUMPI PUSH32 0x0 PUSH1 0x1 PUSH1 0x1 PUSH1 0xA0 SHL SUB AND CALLER SUB PUSH2 0xFAD JUMPI PUSH1 0xFF PUSH1 0x2 SLOAD PUSH1 0x10 SHR AND PUSH2 0xF9E JUMPI PUSH2 0x327 SWAP3 SWAP4 PUSH2 0xF99 PUSH2 0x1A68 JUMP JUMPDEST PUSH2 0x1255 JUMP JUMPDEST PUSH4 0xE405A433 PUSH1 0xE0 SHL DUP4 MSTORE PUSH1 0x4 DUP4 REVERT JUMPDEST PUSH4 0x5D154FE1 PUSH1 0xE1 SHL DUP4 MSTORE PUSH1 0x4 DUP4 REVERT JUMPDEST POP CALLVALUE PUSH2 0x1F2 JUMPI DUP1 PUSH1 0x3 NOT CALLDATASIZE ADD SLT PUSH2 0x1F2 JUMPI PUSH1 0x40 MLOAD PUSH32 0x0 PUSH1 0x1 PUSH1 0x1 PUSH1 0xA0 SHL SUB AND DUP2 MSTORE PUSH1 0x20 SWAP1 RETURN JUMPDEST POP CALLVALUE PUSH2 0x1F2 JUMPI DUP1 PUSH1 0x3 NOT CALLDATASIZE ADD SLT PUSH2 0x1F2 JUMPI PUSH1 0x20 PUSH1 0x40 MLOAD PUSH2 0xFFFF PUSH32 0x0 AND DUP2 MSTORE RETURN JUMPDEST POP CALLVALUE PUSH2 0x1F2 JUMPI DUP1 PUSH1 0x3 NOT CALLDATASIZE ADD SLT PUSH2 0x1F2 JUMPI PUSH1 0x40 MLOAD PUSH32 0x0 PUSH1 0x1 PUSH1 0x1 PUSH1 0xA0 SHL SUB AND DUP2 MSTORE PUSH1 0x20 SWAP1 RETURN JUMPDEST POP CALLVALUE PUSH2 0x1F2 JUMPI DUP1 PUSH1 0x3 NOT CALLDATASIZE ADD SLT PUSH2 0x1F2 JUMPI PUSH1 0x20 PUSH1 0xFF PUSH1 0x2 SLOAD PUSH1 0x8 SHR AND PUSH1 0x40 MLOAD SWAP1 ISZERO ISZERO DUP2 MSTORE RETURN JUMPDEST SWAP1 POP CALLVALUE PUSH2 0x36A JUMPI DUP2 PUSH1 0x3 NOT CALLDATASIZE ADD SLT PUSH2 0x36A JUMPI PUSH32 0x0 PUSH1 0x1 PUSH1 0x1 PUSH1 0xA0 SHL SUB AND DUP2 MSTORE PUSH1 0x20 SWAP1 RETURN JUMPDEST SWAP1 PUSH1 0x20 PUSH1 0x3 NOT DUP4 ADD SLT PUSH2 0x113D JUMPI PUSH1 0x4 CALLDATALOAD PUSH1 0x1 PUSH1 0x1 PUSH1 0x40 SHL SUB DUP2 GT PUSH2 0x113D JUMPI DUP3 PUSH1 0x23 DUP3 ADD SLT ISZERO PUSH2 0x113D JUMPI DUP1 PUSH1 0x4 ADD CALLDATALOAD SWAP3 PUSH1 0x1 PUSH1 0x1 PUSH1 0x40 SHL SUB DUP5 GT PUSH2 0x113D JUMPI PUSH1 0x24 DUP5 DUP4 ADD ADD GT PUSH2 0x113D JUMPI PUSH1 0x24 ADD SWAP2 SWAP1 JUMP JUMPDEST PUSH1 0x0 DUP1 REVERT JUMPDEST SWAP1 PUSH1 0x1 DUP3 DUP2 SHR SWAP3 AND DUP1 ISZERO PUSH2 0x1172 JUMPI JUMPDEST PUSH1 0x20 DUP4 LT EQ PUSH2 0x115C JUMPI JUMP JUMPDEST PUSH4 0x4E487B71 PUSH1 0xE0 SHL PUSH1 0x0 MSTORE PUSH1 0x22 PUSH1 0x4 MSTORE PUSH1 0x24 PUSH1 0x0 REVERT JUMPDEST SWAP2 PUSH1 0x7F AND SWAP2 PUSH2 0x1151 JUMP JUMPDEST SWAP1 PUSH1 0x1F DUP1 NOT SWAP2 ADD AND DUP2 ADD SWAP1 DUP2 LT PUSH1 0x1 PUSH1 0x1 PUSH1 0x40 SHL SUB DUP3 GT OR PUSH2 0x119D JUMPI PUSH1 0x40 MSTORE JUMP JUMPDEST PUSH4 0x4E487B71 PUSH1 0xE0 SHL PUSH1 0x0 MSTORE PUSH1 0x41 PUSH1 0x4 MSTORE PUSH1 0x24 PUSH1 0x0 REVERT JUMPDEST SWAP2 SWAP1 SWAP2 PUSH1 0x20 DUP2 MSTORE DUP3 MLOAD DUP1 PUSH1 0x20 DUP4 ADD MSTORE PUSH1 0x0 JUMPDEST DUP2 DUP2 LT PUSH2 0x11E6 JUMPI POP PUSH1 0x40 SWAP3 SWAP4 POP PUSH1 0x0 DUP4 DUP3 DUP5 ADD ADD MSTORE PUSH1 0x1F DUP1 NOT SWAP2 ADD AND ADD ADD SWAP1 JUMP JUMPDEST DUP1 PUSH1 0x20 DUP1 SWAP3 DUP8 ADD ADD MLOAD PUSH1 0x40 DUP3 DUP7 ADD ADD MSTORE ADD PUSH2 0x11C5 JUMP JUMPDEST DUP2 DUP2 MUL SWAP3 SWAP2 DUP2 ISZERO SWAP2 DUP5 DIV EQ OR ISZERO PUSH2 0x120F JUMPI JUMP JUMPDEST PUSH4 0x4E487B71 PUSH1 0xE0 SHL PUSH1 0x0 MSTORE PUSH1 0x11 PUSH1 0x4 MSTORE PUSH1 0x24 PUSH1 0x0 REVERT JUMPDEST SWAP2 SWAP1 DUP3 SUB SWAP2 DUP3 GT PUSH2 0x120F JUMPI JUMP JUMPDEST SWAP1 PUSH1 0x2 DUP3 LT ISZERO PUSH2 0x123F JUMPI MSTORE JUMP JUMPDEST PUSH4 0x4E487B71 PUSH1 0xE0 SHL PUSH1 0x0 MSTORE PUSH1 0x21 PUSH1 0x4 MSTORE PUSH1 0x24 PUSH1 0x0 REVERT JUMPDEST SWAP2 SWAP1 PUSH1 0x2 SLOAD SWAP3 PUSH1 0xFF PUSH1 0x0 SWAP5 PUSH1 0x8 SHR AND ISZERO PUSH2 0x174C JUMPI PUSH2 0xFFFF AND PUSH2 0x2710 DUP2 GT PUSH2 0x173D JUMPI PUSH1 0x40 MLOAD PUSH4 0x70A08231 PUSH1 0xE0 SHL DUP2 MSTORE ADDRESS PUSH1 0x4 DUP3 ADD MSTORE SWAP2 PUSH32 0x0 PUSH1 0x20 DUP5 PUSH1 0x24 DUP2 PUSH1 0x1 PUSH1 0x1 PUSH1 0xA0 SHL SUB DUP6 AND GAS STATICCALL SWAP4 DUP5 ISZERO PUSH2 0x1732 JUMPI DUP7 SWAP5 PUSH2 0x16FA JUMPI JUMPDEST POP PUSH1 0x2 DUP6 LT ISZERO PUSH2 0x16E6 JUMPI DUP5 ISZERO PUSH2 0x1335 JUMPI POP POP POP PUSH32 0x81084FDB1640D4D17BCED528639CCC751B0B4D9E399790B6D89DCCF33C1B6640 SWAP2 PUSH1 0xA0 SWAP2 PUSH2 0x130B PUSH2 0x1C24 JUMP JUMPDEST PUSH1 0x1 SLOAD SWAP5 PUSH2 0x131C PUSH1 0x40 MLOAD DUP1 SWAP5 PUSH2 0x1232 JUMP JUMPDEST DUP1 PUSH1 0x20 DUP5 ADD MSTORE DUP1 PUSH1 0x40 DUP5 ADD MSTORE PUSH1 0x60 DUP4 ADD MSTORE PUSH1 0x80 DUP3 ADD MSTORE LOG2 JUMP JUMPDEST PUSH2 0x1350 PUSH2 0x2710 PUSH2 0x1348 DUP6 DUP8 SWAP7 SWAP10 SWAP8 PUSH2 0x11FC JUMP JUMPDEST DIV DUP1 SWAP5 PUSH2 0x1225 JUMP JUMPDEST SWAP4 DUP4 DUP2 DUP2 ISZERO PUSH2 0x1638 JUMPI PUSH1 0x1 PUSH1 0xFF DUP7 AND LT PUSH2 0x162F JUMPI JUMPDEST PUSH1 0x5 PUSH1 0xFF DUP7 AND GT PUSH2 0x1626 JUMPI JUMPDEST PUSH2 0xFFFF PUSH32 0x0 AND DUP1 PUSH2 0x15CE JUMPI JUMPDEST POP DUP2 PUSH2 0x155D JUMPI JUMPDEST POP POP PUSH1 0x1 SLOAD PUSH32 0x0 PUSH1 0x1 PUSH1 0x1 PUSH1 0xA0 SHL SUB AND SWAP1 DUP2 EXTCODESIZE ISZERO PUSH2 0x504 JUMPI PUSH1 0x40 MLOAD PUSH4 0xA3ABE425 PUSH1 0xE0 SHL DUP2 MSTORE PUSH1 0x4 DUP1 DUP3 ADD SWAP3 SWAP1 SWAP3 MSTORE PUSH1 0x24 DUP2 ADD SWAP2 SWAP1 SWAP2 MSTORE DUP3 DUP2 PUSH1 0x44 DUP2 DUP4 DUP7 GAS CALL DUP1 ISZERO PUSH2 0x1552 JUMPI SWAP1 DUP4 SWAP2 PUSH2 0x153D JUMPI JUMPDEST POP POP PUSH1 0x1 SLOAD DUP2 EXTCODESIZE ISZERO PUSH2 0x504 JUMPI PUSH1 0x40 MLOAD PUSH4 0x4E29D09 PUSH1 0xE5 SHL DUP2 MSTORE PUSH1 0xFF DUP7 AND PUSH1 0x4 DUP3 ADD MSTORE PUSH1 0x24 DUP2 ADD SWAP2 SWAP1 SWAP2 MSTORE SWAP1 DUP3 SWAP1 DUP3 SWAP1 PUSH1 0x44 SWAP1 DUP3 SWAP1 DUP5 SWAP1 GAS CALL DUP1 ISZERO PUSH2 0x508 JUMPI PUSH2 0x1528 JUMPI JUMPDEST POP POP SWAP2 PUSH1 0xFF PUSH1 0xA0 SWAP5 SWAP3 PUSH32 0x81084FDB1640D4D17BCED528639CCC751B0B4D9E399790B6D89DCCF33C1B6640 SWAP7 SWAP5 JUMPDEST DUP5 PUSH2 0x14C0 JUMPI JUMPDEST POP PUSH3 0x10000 PUSH3 0xFF0000 NOT PUSH1 0x2 SLOAD AND OR PUSH1 0x2 SSTORE PUSH1 0x1 SLOAD SWAP8 PUSH2 0x14A8 PUSH1 0x40 MLOAD DUP1 SWAP8 PUSH2 0x1232 JUMP JUMPDEST PUSH1 0x20 DUP7 ADD MSTORE AND PUSH1 0x40 DUP5 ADD MSTORE PUSH1 0x60 DUP4 ADD MSTORE PUSH1 0x80 DUP3 ADD MSTORE LOG2 JUMP JUMPDEST PUSH2 0x14EC DUP6 PUSH32 0x0 DUP1 SWAP4 PUSH2 0x1ABE JUMP JUMPDEST PUSH1 0x1 SLOAD PUSH32 0xF552CA82E113AC3C539C3D617F29FCD19C172A0C75DAD017555C9E109F7FE183 PUSH1 0x20 PUSH1 0x40 MLOAD SWAP4 DUP9 DUP6 MSTORE PUSH1 0x1 DUP1 DUP13 SHL SUB AND SWAP4 LOG3 CODESIZE PUSH2 0x1485 JUMP JUMPDEST PUSH2 0x1533 DUP3 DUP1 SWAP3 PUSH2 0x117C JUMP JUMPDEST PUSH2 0x1F2 JUMPI DUP1 PUSH2 0x1452 JUMP JUMPDEST DUP2 PUSH2 0x1547 SWAP2 PUSH2 0x117C JUMP JUMPDEST PUSH2 0x36A JUMPI DUP2 CODESIZE PUSH2 0x140F JUMP JUMPDEST PUSH1 0x40 MLOAD RETURNDATASIZE DUP6 DUP3 RETURNDATACOPY RETURNDATASIZE SWAP1 REVERT JUMPDEST PUSH32 0x5CE467AE5694DDB233A02CA7EB987835C5E2EA71EEC0E379BF3A5E1207AE2459 PUSH1 0x40 PUSH32 0x0 PUSH2 0x15AC DUP6 DUP3 DUP10 PUSH2 0x1ABE JUMP JUMPDEST PUSH1 0x1 SLOAD DUP3 MLOAD SWAP6 DUP7 MSTORE PUSH1 0x20 DUP7 ADD SWAP5 SWAP1 SWAP5 MSTORE PUSH1 0x1 PUSH1 0x1 PUSH1 0xA0 SHL SUB AND SWAP4 LOG3 CODESIZE DUP1 PUSH2 0x13A3 JUMP JUMPDEST PUSH2 0x2710 SWAP3 POP PUSH2 0x15DE SWAP2 POP DUP7 PUSH2 0x11FC JUMP JUMPDEST DIV PUSH2 0x15E9 DUP2 DUP7 PUSH2 0x1225 JUMP JUMPDEST SWAP1 DUP1 PUSH2 0x15F6 JUMPI JUMPDEST CODESIZE PUSH2 0x139C JUMP JUMPDEST PUSH2 0x1621 DUP2 PUSH32 0x0 DUP7 PUSH2 0x1ABE JUMP JUMPDEST PUSH2 0x15F0 JUMP JUMPDEST PUSH1 0x5 SWAP5 POP PUSH2 0x1371 JUMP JUMPDEST PUSH1 0x1 SWAP5 POP PUSH2 0x1365 JUMP JUMPDEST POP POP PUSH1 0x1 SLOAD PUSH32 0x0 PUSH1 0x1 PUSH1 0x1 PUSH1 0xA0 SHL SUB AND DUP1 EXTCODESIZE ISZERO PUSH2 0x504 JUMPI PUSH1 0x40 MLOAD PUSH4 0xA3ABE425 PUSH1 0xE0 SHL DUP2 MSTORE PUSH1 0x4 DUP2 ADD SWAP3 SWAP1 SWAP3 MSTORE PUSH1 0x6 PUSH1 0x24 DUP4 ADD MSTORE DUP3 SWAP1 DUP3 SWAP1 PUSH1 0x44 SWAP1 DUP3 SWAP1 DUP5 SWAP1 GAS CALL DUP1 ISZERO PUSH2 0x508 JUMPI SWAP3 PUSH1 0xFF SWAP3 PUSH1 0xA0 SWAP8 SWAP6 SWAP3 PUSH32 0x81084FDB1640D4D17BCED528639CCC751B0B4D9E399790B6D89DCCF33C1B6640 SWAP10 SWAP8 SWAP6 PUSH2 0x16D6 JUMPI JUMPDEST POP POP PUSH2 0x147F JUMP JUMPDEST DUP2 PUSH2 0x16E0 SWAP2 PUSH2 0x117C JUMP JUMPDEST CODESIZE PUSH2 0x16CF JUMP JUMPDEST PUSH4 0x4E487B71 PUSH1 0xE0 SHL DUP7 MSTORE PUSH1 0x21 PUSH1 0x4 MSTORE PUSH1 0x24 DUP7 REVERT JUMPDEST SWAP1 SWAP4 POP PUSH1 0x20 DUP2 RETURNDATASIZE PUSH1 0x20 GT PUSH2 0x172A JUMPI JUMPDEST DUP2 PUSH2 0x1716 PUSH1 0x20 SWAP4 DUP4 PUSH2 0x117C JUMP JUMPDEST DUP2 ADD SUB SLT PUSH2 0x1726 JUMPI MLOAD SWAP3 CODESIZE PUSH2 0x12CB JUMP JUMPDEST DUP6 DUP1 REVERT JUMPDEST RETURNDATASIZE SWAP2 POP PUSH2 0x1709 JUMP JUMPDEST PUSH1 0x40 MLOAD RETURNDATASIZE DUP9 DUP3 RETURNDATACOPY RETURNDATASIZE SWAP1 REVERT JUMPDEST PUSH4 0xBBF4268D PUSH1 0xE0 SHL DUP5 MSTORE PUSH1 0x4 DUP5 REVERT JUMPDEST PUSH4 0x126EA8E9 PUSH1 0xE3 SHL DUP5 MSTORE PUSH1 0x4 DUP5 REVERT JUMPDEST SWAP1 SWAP2 DUP1 PUSH1 0x40 SWAP4 PUSH1 0x20 DUP5 MSTORE DUP2 PUSH1 0x20 DUP6 ADD MSTORE DUP5 DUP5 ADD CALLDATACOPY PUSH1 0x0 DUP3 DUP3 ADD DUP5 ADD MSTORE PUSH1 0x1F ADD PUSH1 0x1F NOT AND ADD ADD SWAP1 JUMP JUMPDEST PUSH1 0x2 SLOAD PUSH1 0xFF DUP2 AND SWAP1 DUP2 PUSH2 0x1923 JUMPI JUMPDEST DUP2 PUSH2 0x18F0 JUMPI JUMPDEST DUP2 PUSH2 0x18D9 JUMPI JUMPDEST DUP2 PUSH2 0x18C3 JUMPI JUMPDEST POP PUSH2 0x183E JUMPI PUSH1 0xFF PUSH1 0x2 SLOAD AND ISZERO DUP1 PUSH2 0x180C JUMPI JUMPDEST DUP1 PUSH2 0x17DA JUMPI JUMPDEST PUSH2 0x17D0 JUMPI PUSH4 0x85DE625 PUSH1 0xE0 SHL PUSH1 0x0 MSTORE PUSH1 0x4 PUSH1 0x0 REVERT JUMPDEST PUSH2 0x17D8 PUSH2 0x1C24 JUMP JUMPDEST JUMP JUMPDEST POP PUSH1 0x1 PUSH1 0x1 PUSH1 0x40 SHL SUB PUSH32 0x0 AND TIMESTAMP GT PUSH2 0x17BB JUMP JUMPDEST POP PUSH1 0x1 PUSH1 0x1 PUSH1 0x40 SHL SUB PUSH32 0x0 AND ISZERO ISZERO PUSH2 0x17B5 JUMP JUMPDEST PUSH32 0x0 PUSH1 0x1 PUSH1 0xFF DUP3 AND LT PUSH2 0x18BB JUMPI JUMPDEST PUSH1 0x5 PUSH1 0xFF DUP3 AND GT PUSH2 0x18B3 JUMPI JUMPDEST PUSH2 0x1880 DUP2 PUSH2 0x1DB3 JUMP JUMPDEST PUSH32 0x1BE1750DDD59392BA6C564A4194B0874F9295A7595042A77FC9B7F34938AA0AF PUSH1 0x20 PUSH1 0x1 SLOAD SWAP3 PUSH1 0xFF PUSH1 0x40 MLOAD SWAP2 AND DUP2 MSTORE LOG2 JUMP JUMPDEST POP PUSH1 0x5 PUSH2 0x1877 JUMP JUMPDEST POP PUSH1 0x1 PUSH2 0x186B JUMP JUMPDEST PUSH1 0x1 PUSH1 0x1 PUSH1 0x40 SHL SUB SWAP2 POP PUSH1 0x18 SHR AND TIMESTAMP GT CODESIZE PUSH2 0x17A3 JUMP JUMPDEST SWAP1 POP PUSH1 0x1 PUSH1 0x1 PUSH1 0x40 SHL SUB DUP2 PUSH1 0x18 SHR AND ISZERO ISZERO SWAP1 PUSH2 0x179D JUMP JUMPDEST PUSH32 0x0 PUSH1 0x1 PUSH1 0x1 PUSH1 0x40 SHL SUB AND ISZERO ISZERO SWAP2 POP PUSH2 0x1797 JUMP JUMPDEST SWAP1 POP PUSH1 0xFF DUP2 PUSH1 0x8 SHR AND ISZERO SWAP1 PUSH2 0x1791 JUMP JUMPDEST CALLER PUSH32 0x0 PUSH1 0x1 PUSH1 0x1 PUSH1 0xA0 SHL SUB AND EQ DUP1 ISZERO DUP1 PUSH2 0x1A35 JUMPI JUMPDEST PUSH2 0x1A24 JUMPI PUSH1 0xFF PUSH1 0x2 SLOAD AND ISZERO PUSH2 0x19E1 JUMPI JUMPDEST POP PUSH1 0x2 DUP1 SLOAD PUSH32 0xFF0000000000000000000000000000000000000000FFFFFFFFFFFFFFFFFFFFFF AND CALLER PUSH1 0x58 DUP2 SWAP1 SHL PUSH1 0x1 PUSH1 0x58 SHL PUSH1 0x1 PUSH1 0xF8 SHL SUB AND SWAP2 SWAP1 SWAP2 OR SWAP1 SWAP2 SSTORE PUSH1 0x1 SLOAD PUSH32 0x7C2FB7AD28FF3012B206B788CC80D55099949FD45E69314F27FDACE959BAE761 PUSH1 0x0 DUP1 LOG3 JUMP JUMPDEST DUP1 PUSH2 0x19F1 JUMPI JUMPDEST PUSH2 0x17D0 JUMPI CODESIZE PUSH2 0x1977 JUMP JUMPDEST POP PUSH1 0x1 PUSH1 0x1 PUSH1 0x40 SHL SUB PUSH32 0x0 AND TIMESTAMP GT ISZERO PUSH2 0x19E7 JUMP JUMPDEST PUSH4 0x48F5C3ED PUSH1 0xE0 SHL PUSH1 0x0 MSTORE PUSH1 0x4 PUSH1 0x0 REVERT JUMPDEST POP CALLER PUSH32 0x0 PUSH1 0x1 PUSH1 0x1 PUSH1 0xA0 SHL SUB AND EQ ISZERO PUSH2 0x1967 JUMP JUMPDEST PUSH1 0x2 PUSH1 0x0 SLOAD EQ PUSH2 0x1A79 JUMPI PUSH1 0x2 PUSH1 0x0 SSTORE JUMP JUMPDEST PUSH1 0x40 MLOAD PUSH3 0x461BCD PUSH1 0xE5 SHL DUP2 MSTORE PUSH1 0x20 PUSH1 0x4 DUP3 ADD MSTORE PUSH1 0x1F PUSH1 0x24 DUP3 ADD MSTORE PUSH32 0x5265656E7472616E637947756172643A207265656E7472616E742063616C6C00 PUSH1 0x44 DUP3 ADD MSTORE PUSH1 0x64 SWAP1 REVERT JUMPDEST PUSH1 0x40 MLOAD PUSH4 0xA9059CBB PUSH1 0xE0 SHL PUSH1 0x20 DUP3 ADD SWAP1 DUP2 MSTORE PUSH1 0x1 PUSH1 0x1 PUSH1 0xA0 SHL SUB SWAP1 SWAP4 AND PUSH1 0x24 DUP3 ADD MSTORE PUSH1 0x44 DUP1 DUP3 ADD SWAP5 SWAP1 SWAP5 MSTORE SWAP3 DUP4 MSTORE SWAP1 SWAP2 SWAP1 PUSH2 0x1AFA PUSH1 0x64 DUP4 PUSH2 0x117C JUMP JUMPDEST PUSH1 0x1 DUP1 PUSH1 0xA0 SHL SUB AND SWAP1 PUSH1 0x0 DUP1 PUSH1 0x40 SWAP5 DUP6 MLOAD SWAP4 PUSH2 0x1B16 DUP8 DUP7 PUSH2 0x117C JUMP JUMPDEST PUSH1 0x20 DUP6 MSTORE PUSH32 0x5361666545524332303A206C6F772D6C6576656C2063616C6C206661696C6564 PUSH1 0x20 DUP7 ADD MSTORE MLOAD SWAP1 DUP3 DUP7 GAS CALL RETURNDATASIZE ISZERO PUSH2 0x1C17 JUMPI RETURNDATASIZE SWAP1 PUSH1 0x1 PUSH1 0x1 PUSH1 0x40 SHL SUB DUP3 GT PUSH2 0x119D JUMPI DUP5 MLOAD PUSH2 0x1B87 SWAP5 SWAP1 SWAP3 PUSH2 0x1B78 PUSH1 0x1F DUP3 ADD PUSH1 0x1F NOT AND PUSH1 0x20 ADD DUP6 PUSH2 0x117C JUMP JUMPDEST DUP4 MSTORE RETURNDATASIZE PUSH1 0x0 PUSH1 0x20 DUP6 ADD RETURNDATACOPY PUSH2 0x2068 JUMP JUMPDEST DUP1 MLOAD SWAP1 DUP2 ISZERO SWAP2 DUP3 ISZERO PUSH2 0x1BF4 JUMPI JUMPDEST POP POP ISZERO PUSH2 0x1B9E JUMPI POP JUMP JUMPDEST MLOAD PUSH3 0x461BCD PUSH1 0xE5 SHL DUP2 MSTORE PUSH1 0x20 PUSH1 0x4 DUP3 ADD MSTORE PUSH1 0x2A PUSH1 0x24 DUP3 ADD MSTORE PUSH32 0x5361666545524332303A204552433230206F7065726174696F6E20646964206E PUSH1 0x44 DUP3 ADD MSTORE PUSH10 0x1BDD081CDD58D8D95959 PUSH1 0xB2 SHL PUSH1 0x64 DUP3 ADD MSTORE PUSH1 0x84 SWAP1 REVERT JUMPDEST DUP2 SWAP3 POP SWAP1 PUSH1 0x20 SWAP2 DUP2 ADD SUB SLT PUSH2 0x113D JUMPI PUSH1 0x20 ADD MLOAD DUP1 ISZERO ISZERO DUP2 SUB PUSH2 0x113D JUMPI CODESIZE DUP1 PUSH2 0x1B94 JUMP JUMPDEST SWAP2 PUSH2 0x1B87 SWAP3 PUSH1 0x60 SWAP2 PUSH2 0x2068 JUMP JUMPDEST PUSH1 0x40 MLOAD PUSH4 0x70A08231 PUSH1 0xE0 SHL DUP2 MSTORE ADDRESS PUSH1 0x4 DUP3 ADD MSTORE PUSH1 0x0 SWAP1 PUSH32 0x0 PUSH1 0x20 DUP3 PUSH1 0x24 DUP2 PUSH1 0x1 PUSH1 0x1 PUSH1 0xA0 SHL SUB DUP6 AND GAS STATICCALL SWAP2 DUP3 ISZERO PUSH2 0x1552 JUMPI DUP4 SWAP3 PUSH2 0x1D7F JUMPI JUMPDEST POP DUP2 PUSH2 0x1D11 JUMPI JUMPDEST POP POP PUSH1 0x1 SLOAD PUSH32 0x0 PUSH1 0x1 PUSH1 0x1 PUSH1 0xA0 SHL SUB AND DUP1 EXTCODESIZE ISZERO PUSH2 0x504 JUMPI PUSH1 0x40 MLOAD PUSH4 0xA3ABE425 PUSH1 0xE0 SHL DUP2 MSTORE PUSH1 0x4 DUP2 ADD SWAP3 SWAP1 SWAP3 MSTORE PUSH1 0x6 PUSH1 0x24 DUP4 ADD MSTORE DUP3 SWAP1 DUP3 SWAP1 PUSH1 0x44 SWAP1 DUP3 SWAP1 DUP5 SWAP1 GAS CALL DUP1 ISZERO PUSH2 0x508 JUMPI PUSH2 0x1D01 JUMPI JUMPDEST POP POP PUSH3 0x10000 PUSH3 0xFF0000 NOT PUSH1 0x2 SLOAD AND OR PUSH1 0x2 SSTORE JUMP JUMPDEST DUP2 PUSH2 0x1D0B SWAP2 PUSH2 0x117C JUMP JUMPDEST CODESIZE PUSH2 0x1CEC JUMP JUMPDEST PUSH2 0x1D3D DUP3 PUSH32 0x0 DUP1 SWAP4 PUSH2 0x1ABE JUMP JUMPDEST PUSH1 0x1 SLOAD PUSH1 0x40 MLOAD SWAP3 DUP4 MSTORE PUSH1 0x1 PUSH1 0x1 PUSH1 0xA0 SHL SUB SWAP1 SWAP2 AND SWAP2 PUSH32 0xF552CA82E113AC3C539C3D617F29FCD19C172A0C75DAD017555C9E109F7FE183 SWAP1 PUSH1 0x20 SWAP1 LOG3 CODESIZE DUP1 PUSH2 0x1C82 JUMP JUMPDEST SWAP1 SWAP2 POP PUSH1 0x20 DUP2 RETURNDATASIZE PUSH1 0x20 GT PUSH2 0x1DAB JUMPI JUMPDEST DUP2 PUSH2 0x1D9B PUSH1 0x20 SWAP4 DUP4 PUSH2 0x117C JUMP JUMPDEST DUP2 ADD SUB SLT PUSH2 0x504 JUMPI MLOAD SWAP1 CODESIZE PUSH2 0x1C7B JUMP JUMPDEST RETURNDATASIZE SWAP2 POP PUSH2 0x1D8E JUMP JUMPDEST PUSH1 0x1 PUSH1 0xFF DUP3 AND LT PUSH2 0x2060 JUMPI JUMPDEST PUSH1 0x5 PUSH1 0xFF DUP3 AND GT PUSH2 0x2058 JUMPI JUMPDEST PUSH1 0x40 MLOAD PUSH4 0x70A08231 PUSH1 0xE0 SHL DUP2 MSTORE ADDRESS PUSH1 0x4 DUP3 ADD MSTORE PUSH1 0x0 SWAP2 SWAP1 PUSH32 0x0 PUSH1 0x20 DUP3 PUSH1 0x24 DUP2 PUSH1 0x1 PUSH1 0x1 PUSH1 0xA0 SHL SUB DUP6 AND GAS STATICCALL SWAP2 DUP3 ISZERO PUSH2 0x1F49 JUMPI DUP5 SWAP3 PUSH2 0x2024 JUMPI JUMPDEST POP DUP4 SWAP1 DUP3 PUSH2 0xFFFF PUSH32 0x0 AND DUP1 PUSH2 0x1FC7 JUMPI JUMPDEST POP POP DUP3 PUSH2 0x1F54 JUMPI JUMPDEST POP POP PUSH1 0x1 SLOAD PUSH32 0x0 PUSH1 0x1 PUSH1 0x1 PUSH1 0xA0 SHL SUB AND SWAP2 POP DUP2 EXTCODESIZE ISZERO PUSH2 0x1F31 JUMPI PUSH1 0x40 MLOAD PUSH4 0xA3ABE425 PUSH1 0xE0 SHL DUP2 MSTORE PUSH1 0x4 DUP1 DUP3 ADD SWAP3 SWAP1 SWAP3 MSTORE PUSH1 0x24 DUP2 ADD SWAP2 SWAP1 SWAP2 MSTORE DUP4 DUP2 PUSH1 0x44 DUP2 DUP4 DUP7 GAS CALL DUP1 ISZERO PUSH2 0x1F49 JUMPI PUSH2 0x1F35 JUMPI JUMPDEST POP PUSH1 0x1 SLOAD SWAP2 DUP2 EXTCODESIZE ISZERO PUSH2 0x1F31 JUMPI PUSH1 0x40 MLOAD PUSH4 0x4E29D09 PUSH1 0xE5 SHL DUP2 MSTORE PUSH1 0xFF SWAP2 SWAP1 SWAP2 AND PUSH1 0x4 DUP3 ADD MSTORE PUSH1 0x24 DUP2 ADD SWAP3 SWAP1 SWAP3 MSTORE DUP3 SWAP1 DUP3 SWAP1 PUSH1 0x44 SWAP1 DUP3 SWAP1 DUP5 SWAP1 GAS CALL DUP1 ISZERO PUSH2 0x508 JUMPI PUSH2 0x1F1C JUMPI POP POP PUSH3 0x10000 PUSH3 0xFF0000 NOT PUSH1 0x2 SLOAD AND OR PUSH1 0x2 SSTORE JUMP JUMPDEST PUSH2 0x1F27 DUP3 DUP1 SWAP3 PUSH2 0x117C JUMP JUMPDEST PUSH2 0x1F2 JUMPI DUP1 PUSH2 0x1CEC JUMP JUMPDEST DUP4 DUP1 REVERT JUMPDEST DUP4 PUSH2 0x1F42 SWAP2 SWAP5 SWAP3 SWAP5 PUSH2 0x117C JUMP JUMPDEST SWAP2 CODESIZE PUSH2 0x1EC4 JUMP JUMPDEST PUSH1 0x40 MLOAD RETURNDATASIZE DUP7 DUP3 RETURNDATACOPY RETURNDATASIZE SWAP1 REVERT JUMPDEST PUSH1 0x40 PUSH32 0x5CE467AE5694DDB233A02CA7EB987835C5E2EA71EEC0E379BF3A5E1207AE2459 SWAP2 PUSH2 0x1FA4 DUP6 PUSH32 0x0 DUP1 SWAP4 PUSH2 0x1ABE JUMP JUMPDEST PUSH1 0x1 SLOAD DUP3 MLOAD SWAP6 DUP7 MSTORE PUSH1 0x20 DUP7 ADD SWAP5 SWAP1 SWAP5 MSTORE PUSH1 0x1 PUSH1 0x1 PUSH1 0xA0 SHL SUB AND SWAP4 LOG3 CODESIZE DUP1 DUP1 PUSH2 0x1E5A JUMP JUMPDEST DUP2 SWAP4 POP PUSH2 0x1FD7 SWAP1 PUSH2 0x2710 SWAP3 PUSH2 0x11FC JUMP JUMPDEST DIV SWAP2 DUP3 PUSH2 0x1FE5 JUMPI JUMPDEST DUP1 PUSH2 0x1E52 JUMP JUMPDEST PUSH2 0x1FF2 SWAP2 SWAP4 POP DUP3 SWAP1 PUSH2 0x1225 JUMP JUMPDEST SWAP2 PUSH2 0x201E DUP3 PUSH32 0x0 DUP4 PUSH2 0x1ABE JUMP JUMPDEST CODESIZE PUSH2 0x1FDF JUMP JUMPDEST SWAP1 SWAP2 POP PUSH1 0x20 DUP2 RETURNDATASIZE PUSH1 0x20 GT PUSH2 0x2050 JUMPI JUMPDEST DUP2 PUSH2 0x2040 PUSH1 0x20 SWAP4 DUP4 PUSH2 0x117C JUMP JUMPDEST DUP2 ADD SUB SLT PUSH2 0x1F31 JUMPI MLOAD SWAP1 CODESIZE PUSH2 0x1E23 JUMP JUMPDEST RETURNDATASIZE SWAP2 POP PUSH2 0x2033 JUMP JUMPDEST POP PUSH1 0x5 PUSH2 0x1DCB JUMP JUMPDEST POP PUSH1 0x1 PUSH2 0x1DBF JUMP JUMPDEST SWAP2 SWAP3 SWAP1 ISZERO PUSH2 0x20CA JUMPI POP DUP2 MLOAD ISZERO PUSH2 0x207C JUMPI POP SWAP1 JUMP JUMPDEST EXTCODESIZE ISZERO PUSH2 0x2085 JUMPI SWAP1 JUMP JUMPDEST PUSH1 0x40 MLOAD PUSH3 0x461BCD PUSH1 0xE5 SHL DUP2 MSTORE PUSH1 0x20 PUSH1 0x4 DUP3 ADD MSTORE PUSH1 0x1D PUSH1 0x24 DUP3 ADD MSTORE PUSH32 0x416464726573733A2063616C6C20746F206E6F6E2D636F6E7472616374000000 PUSH1 0x44 DUP3 ADD MSTORE PUSH1 0x64 SWAP1 REVERT JUMPDEST DUP3 MLOAD SWAP1 SWAP2 POP ISZERO PUSH2 0x20DD JUMPI POP DUP1 MLOAD SWAP1 PUSH1 0x20 ADD REVERT JUMPDEST PUSH1 0x40 MLOAD PUSH3 0x461BCD PUSH1 0xE5 SHL DUP2 MSTORE SWAP1 DUP2 SWAP1 PUSH2 0x20F9 SWAP1 PUSH1 0x4 DUP4 ADD PUSH2 0x11B3 JUMP JUMPDEST SUB SWAP1 REVERT INVALID 0xC2 JUMPI GAS 0xE SWAP15 MSIZE EXTCODECOPY STOP 0xF9 MSIZE 0xF8 0xC9 0x2F SLT 0xDB 0x28 PUSH10 0xC3395A3B0502D05E2516 PREVRANDAO PUSH16 0x71F85B8A35ACFBC15FF81A39AE7D344F 0xD7 MULMOD CALLCODE DUP15 DUP7 STOP 0xB4 0xAA DUP13 PUSH6 0xC6B64BFE7FE3 PUSH12 0xD19BA2646970667358221220 0xDC 0x2A 0xC1 DUP11 0xB3 PUSH6 0x3EE100DAD92 0xE6 DUP3 0xE7 EXP CALLER DUP8 0xAA STATICCALL SWAP16 0x29 PUSH3 0x5D4CB4 0x28 GASPRICE SWAP16 0xAB CALLDATALOAD 0xAE PUSH5 0x736F6C6343 STOP ADDMOD SHR STOP CALLER "},"methodIdentifiers":{"acceptCancel()":"916b2f88","amount()":"aa8c217c","approveWork(uint8)":"f0df51b3","autoApproveDefaultRating()":"92c67f72","bootstrapRegisterJob()":"50ec709a","cancelRequestedBy()":"a9ac153e","cancelWindowEnd()":"b7810853","client()":"109e94cf","currentDeadlines()":"fe5d97c8","deliverWork(string)":"e4933ae3","delivered()":"bbdfbfba","deliveryDue()":"fd35b33c","disputed()":"0695c46c","escrowFactory()":"bdd1daaa","freelancer()":"a37dda2c","jobKey()":"bcc9c5ed","lastDeliveryURI()":"dd3d06b9","lastDisputeURI()":"b6d98b6b","platformFeeBps()":"22dcd13e","platformWallet()":"fa2af9da","processTimeouts()":"7a1a464d","profile()":"ab60636c","raiseDispute(string)":"725a3b4b","requestCancel()":"a0d3db85","resolveDispute(uint16,uint8,uint8)":"46a86348","resolver()":"04f3bcec","reviewDue()":"b533a0cc","reviewWindowSecs()":"805bf08a","terminal()":"f45d0bc6","usdt()":"2f48ab7d"}}}}}