{"contracts/JobBoard.sol":{"JobBoard":{"abi":[{"inputs":[{"internalType":"address","name":"_owner","type":"address"}],"stateMutability":"nonpayable","type":"constructor"},{"inputs":[],"name":"AlreadyApplied","type":"error"},{"inputs":[],"name":"AlreadyHiredOrClosed","type":"error"},{"inputs":[],"name":"ApplicationNotFound","type":"error"},{"inputs":[],"name":"InvalidStatus","type":"error"},{"inputs":[],"name":"JobNotFound","type":"error"},{"inputs":[],"name":"KYCGated","type":"error"},{"inputs":[],"name":"NotAllowedFactory","type":"error"},{"inputs":[],"name":"NotClient","type":"error"},{"inputs":[],"name":"NotExpired","type":"error"},{"inputs":[],"name":"NotFreelancer","type":"error"},{"inputs":[],"name":"NotOpen","type":"error"},{"inputs":[],"name":"NotOwner","type":"error"},{"inputs":[],"name":"NotReopenable","type":"error"},{"inputs":[],"name":"Reentrancy","type":"error"},{"inputs":[],"name":"TooManyTags","type":"error"},{"inputs":[],"name":"USDCNotSet","type":"error"},{"inputs":[],"name":"WrongBond","type":"error"},{"inputs":[],"name":"ZeroAddress","type":"error"},{"anonymous":false,"inputs":[{"indexed":false,"internalType":"uint8","name":"mode","type":"uint8"},{"indexed":false,"internalType":"uint256","name":"postingBondUSDC","type":"uint256"}],"name":"AntiSpamModeSet","type":"event"},{"anonymous":false,"inputs":[{"indexed":true,"internalType":"address","name":"factory","type":"address"},{"indexed":false,"internalType":"bool","name":"allowed","type":"bool"}],"name":"FactoryAllowed","type":"event"},{"anonymous":false,"inputs":[{"indexed":true,"internalType":"address","name":"factory","type":"address"}],"name":"FreelancerFactorySet","type":"event"},{"anonymous":false,"inputs":[{"indexed":false,"internalType":"bool","name":"enabled","type":"bool"}],"name":"GasSponsorshipSet","type":"event"},{"anonymous":false,"inputs":[{"indexed":true,"internalType":"uint256","name":"jobId","type":"uint256"},{"indexed":true,"internalType":"address","name":"freelancer","type":"address"}],"name":"JobApplicationWithdrawn","type":"event"},{"anonymous":false,"inputs":[{"indexed":true,"internalType":"uint256","name":"jobId","type":"uint256"},{"indexed":true,"internalType":"address","name":"freelancer","type":"address"},{"indexed":false,"internalType":"uint64","name":"appliedAt","type":"uint64"}],"name":"JobApplied","type":"event"},{"anonymous":false,"inputs":[{"indexed":true,"internalType":"uint256","name":"jobId","type":"uint256"},{"indexed":true,"internalType":"address","name":"client","type":"address"}],"name":"JobCancelled","type":"event"},{"anonymous":false,"inputs":[{"indexed":true,"internalType":"uint256","name":"jobId","type":"uint256"},{"indexed":true,"internalType":"address","name":"client","type":"address"},{"indexed":true,"internalType":"address","name":"freelancer","type":"address"},{"indexed":false,"internalType":"address","name":"escrow","type":"address"}],"name":"JobCompleted","type":"event"},{"anonymous":false,"inputs":[{"indexed":true,"internalType":"uint256","name":"jobId","type":"uint256"},{"indexed":false,"internalType":"uint64","name":"expiresAt","type":"uint64"}],"name":"JobExpiredClosed","type":"event"},{"anonymous":false,"inputs":[{"indexed":true,"internalType":"uint256","name":"jobId","type":"uint256"},{"indexed":true,"internalType":"address","name":"client","type":"address"},{"indexed":true,"internalType":"address","name":"freelancer","type":"address"},{"indexed":false,"internalType":"address","name":"escrow","type":"address"}],"name":"JobHired","type":"event"},{"anonymous":false,"inputs":[{"indexed":true,"internalType":"uint256","name":"jobId","type":"uint256"},{"indexed":true,"internalType":"address","name":"client","type":"address"},{"indexed":false,"internalType":"string","name":"title","type":"string"},{"indexed":false,"internalType":"string","name":"descriptionURI","type":"string"},{"indexed":false,"internalType":"uint256","name":"budgetUSDC","type":"uint256"},{"indexed":false,"internalType":"bytes32[]","name":"tags","type":"bytes32[]"},{"indexed":false,"internalType":"uint64","name":"expiresAt","type":"uint64"}],"name":"JobPosted","type":"event"},{"anonymous":false,"inputs":[{"indexed":true,"internalType":"uint256","name":"jobId","type":"uint256"},{"indexed":false,"internalType":"uint64","name":"newExpiresAt","type":"uint64"}],"name":"JobReopened","type":"event"},{"anonymous":false,"inputs":[{"indexed":true,"internalType":"uint256","name":"jobId","type":"uint256"},{"indexed":false,"internalType":"string","name":"title","type":"string"},{"indexed":false,"internalType":"string","name":"descriptionURI","type":"string"},{"indexed":false,"internalType":"uint256","name":"budgetUSDC","type":"uint256"},{"indexed":false,"internalType":"bytes32[]","name":"tags","type":"bytes32[]"},{"indexed":false,"internalType":"uint64","name":"expiresAt","type":"uint64"}],"name":"JobUpdated","type":"event"},{"anonymous":false,"inputs":[{"indexed":true,"internalType":"address","name":"user","type":"address"},{"indexed":false,"internalType":"bool","name":"isVerified","type":"bool"}],"name":"KYCSet","type":"event"},{"anonymous":false,"inputs":[{"indexed":true,"internalType":"address","name":"previousOwner","type":"address"},{"indexed":true,"internalType":"address","name":"newOwner","type":"address"}],"name":"OwnerChanged","type":"event"},{"anonymous":false,"inputs":[{"indexed":false,"internalType":"bool","name":"paused","type":"bool"}],"name":"PausedSet","type":"event"},{"anonymous":false,"inputs":[{"indexed":false,"internalType":"bool","name":"required","type":"bool"}],"name":"RequireApplicationToHireSet","type":"event"},{"anonymous":false,"inputs":[{"indexed":true,"internalType":"address","name":"usdc","type":"address"}],"name":"USDCSet","type":"event"},{"inputs":[{"internalType":"address","name":"","type":"address"}],"name":"allowedFactory","outputs":[{"internalType":"bool","name":"","type":"bool"}],"stateMutability":"view","type":"function"},{"inputs":[],"name":"antiSpamMode","outputs":[{"internalType":"enum JobBoard.AntiSpamMode","name":"","type":"uint8"}],"stateMutability":"view","type":"function"},{"inputs":[{"internalType":"uint256","name":"jobId","type":"uint256"}],"name":"applyToJob","outputs":[],"stateMutability":"nonpayable","type":"function"},{"inputs":[{"internalType":"uint256","name":"jobId","type":"uint256"},{"internalType":"string","name":"proposalURI","type":"string"},{"internalType":"uint256","name":"bidAmount","type":"uint256"},{"internalType":"uint64","name":"deliveryDays","type":"uint64"}],"name":"applyToJob","outputs":[],"stateMutability":"nonpayable","type":"function"},{"inputs":[{"internalType":"uint256","name":"jobId","type":"uint256"}],"name":"cancelJob","outputs":[],"stateMutability":"nonpayable","type":"function"},{"inputs":[{"internalType":"uint256","name":"jobId","type":"uint256"}],"name":"closeExpired","outputs":[],"stateMutability":"nonpayable","type":"function"},{"inputs":[],"name":"freelancerFactory","outputs":[{"internalType":"contract IFreelancerFactory","name":"","type":"address"}],"stateMutability":"view","type":"function"},{"inputs":[],"name":"gasSponsorshipEnabled","outputs":[{"internalType":"bool","name":"","type":"bool"}],"stateMutability":"view","type":"function"},{"inputs":[{"internalType":"uint256","name":"jobId","type":"uint256"}],"name":"getApplicantCount","outputs":[{"internalType":"uint256","name":"","type":"uint256"}],"stateMutability":"view","type":"function"},{"inputs":[{"internalType":"uint256","name":"jobId","type":"uint256"},{"internalType":"address","name":"freelancer","type":"address"}],"name":"getApplicantDetails","outputs":[{"internalType":"address","name":"_freelancer","type":"address"},{"internalType":"uint64","name":"appliedAt","type":"uint64"},{"internalType":"string","name":"proposalURI","type":"string"},{"internalType":"uint256","name":"bidAmount","type":"uint256"},{"internalType":"uint64","name":"deliveryDays","type":"uint64"}],"stateMutability":"view","type":"function"},{"inputs":[{"internalType":"uint256","name":"jobId","type":"uint256"},{"internalType":"uint256","name":"offset","type":"uint256"},{"internalType":"uint256","name":"limit","type":"uint256"}],"name":"getApplicants","outputs":[{"internalType":"address[]","name":"freelancers","type":"address[]"},{"internalType":"uint64[]","name":"appliedAt","type":"uint64[]"}],"stateMutability":"view","type":"function"},{"inputs":[{"internalType":"uint256","name":"jobId","type":"uint256"}],"name":"getJob","outputs":[{"internalType":"address","name":"client","type":"address"},{"internalType":"string","name":"title","type":"string"},{"internalType":"string","name":"descriptionURI","type":"string"},{"internalType":"uint256","name":"budgetUSDC","type":"uint256"},{"internalType":"enum JobBoard.JobStatus","name":"status","type":"uint8"},{"internalType":"address","name":"hiredFreelancer","type":"address"},{"internalType":"address","name":"escrow","type":"address"},{"internalType":"uint64","name":"createdAt","type":"uint64"},{"internalType":"uint64","name":"updatedAt","type":"uint64"},{"internalType":"uint64","name":"expiresAt","type":"uint64"},{"internalType":"bytes32[]","name":"tags","type":"bytes32[]"},{"internalType":"uint256","name":"postingBond","type":"uint256"}],"stateMutability":"view","type":"function"},{"inputs":[{"internalType":"address","name":"freelancer","type":"address"}],"name":"getJobsAppliedBy","outputs":[{"internalType":"uint256[]","name":"","type":"uint256[]"}],"stateMutability":"view","type":"function"},{"inputs":[{"internalType":"address","name":"","type":"address"}],"name":"isKYC","outputs":[{"internalType":"bool","name":"","type":"bool"}],"stateMutability":"view","type":"function"},{"inputs":[{"internalType":"uint256","name":"","type":"uint256"}],"name":"jobs","outputs":[{"internalType":"address","name":"client","type":"address"},{"internalType":"string","name":"title","type":"string"},{"internalType":"string","name":"descriptionURI","type":"string"},{"internalType":"uint256","name":"budgetUSDC","type":"uint256"},{"internalType":"enum JobBoard.JobStatus","name":"status","type":"uint8"},{"internalType":"address","name":"hiredFreelancer","type":"address"},{"internalType":"address","name":"escrow","type":"address"},{"internalType":"uint64","name":"createdAt","type":"uint64"},{"internalType":"uint64","name":"updatedAt","type":"uint64"},{"internalType":"uint64","name":"expiresAt","type":"uint64"},{"internalType":"uint256","name":"postingBond","type":"uint256"}],"stateMutability":"view","type":"function"},{"inputs":[{"internalType":"address","name":"clientAddr","type":"address"}],"name":"jobsByClient","outputs":[{"internalType":"uint256[]","name":"","type":"uint256[]"}],"stateMutability":"view","type":"function"},{"inputs":[{"internalType":"address","name":"clientAddr","type":"address"},{"internalType":"uint256","name":"offset","type":"uint256"},{"internalType":"uint256","name":"limit","type":"uint256"}],"name":"jobsByClientPaginated","outputs":[{"internalType":"uint256[]","name":"out","type":"uint256[]"}],"stateMutability":"view","type":"function"},{"inputs":[{"internalType":"address","name":"","type":"address"},{"internalType":"uint256","name":"","type":"uint256"}],"name":"jobsOf","outputs":[{"internalType":"uint256","name":"","type":"uint256"}],"stateMutability":"view","type":"function"},{"inputs":[{"internalType":"uint256","name":"jobId","type":"uint256"}],"name":"markAsCompleted","outputs":[],"stateMutability":"nonpayable","type":"function"},{"inputs":[{"internalType":"uint256","name":"jobId","type":"uint256"},{"internalType":"address","name":"freelancer","type":"address"},{"internalType":"address","name":"escrow","type":"address"}],"name":"markAsHired","outputs":[],"stateMutability":"nonpayable","type":"function"},{"inputs":[],"name":"nextJobId","outputs":[{"internalType":"uint256","name":"","type":"uint256"}],"stateMutability":"view","type":"function"},{"inputs":[{"internalType":"uint256","name":"offset","type":"uint256"},{"internalType":"uint256","name":"limit","type":"uint256"}],"name":"openJobs","outputs":[{"internalType":"uint256[]","name":"out","type":"uint256[]"}],"stateMutability":"view","type":"function"},{"inputs":[],"name":"owner","outputs":[{"internalType":"address","name":"","type":"address"}],"stateMutability":"view","type":"function"},{"inputs":[],"name":"paused","outputs":[{"internalType":"bool","name":"","type":"bool"}],"stateMutability":"view","type":"function"},{"inputs":[{"internalType":"string","name":"title","type":"string"},{"internalType":"string","name":"descriptionURI","type":"string"},{"internalType":"uint256","name":"budgetUSDC","type":"uint256"},{"internalType":"bytes32[]","name":"tags","type":"bytes32[]"},{"internalType":"uint64","name":"expiresAt","type":"uint64"}],"name":"postJob","outputs":[{"internalType":"uint256","name":"jobId","type":"uint256"}],"stateMutability":"nonpayable","type":"function"},{"inputs":[],"name":"postingBondUSDC","outputs":[{"internalType":"uint256","name":"","type":"uint256"}],"stateMutability":"view","type":"function"},{"inputs":[{"internalType":"uint256","name":"jobId","type":"uint256"},{"internalType":"uint64","name":"newExpiresAt","type":"uint64"}],"name":"reopen","outputs":[],"stateMutability":"nonpayable","type":"function"},{"inputs":[],"name":"requireApplicationToHire","outputs":[{"internalType":"bool","name":"","type":"bool"}],"stateMutability":"view","type":"function"},{"inputs":[{"internalType":"address","name":"factory","type":"address"},{"internalType":"bool","name":"allowed","type":"bool"}],"name":"setAllowedFactory","outputs":[],"stateMutability":"nonpayable","type":"function"},{"inputs":[{"internalType":"uint8","name":"mode","type":"uint8"},{"internalType":"uint256","name":"bondAmount","type":"uint256"}],"name":"setAntiSpamMode","outputs":[],"stateMutability":"nonpayable","type":"function"},{"inputs":[{"internalType":"address","name":"factory_","type":"address"}],"name":"setFreelancerFactory","outputs":[],"stateMutability":"nonpayable","type":"function"},{"inputs":[{"internalType":"bool","name":"enabled","type":"bool"}],"name":"setGasSponsorship","outputs":[],"stateMutability":"nonpayable","type":"function"},{"inputs":[{"internalType":"address","name":"user","type":"address"},{"internalType":"bool","name":"verified","type":"bool"}],"name":"setKYC","outputs":[],"stateMutability":"nonpayable","type":"function"},{"inputs":[{"internalType":"bool","name":"_paused","type":"bool"}],"name":"setPaused","outputs":[],"stateMutability":"nonpayable","type":"function"},{"inputs":[{"internalType":"bool","name":"required","type":"bool"}],"name":"setRequireApplicationToHire","outputs":[],"stateMutability":"nonpayable","type":"function"},{"inputs":[{"internalType":"address","name":"token","type":"address"}],"name":"setUSDC","outputs":[],"stateMutability":"nonpayable","type":"function"},{"inputs":[{"internalType":"address","name":"token","type":"address"},{"internalType":"uint256","name":"amount","type":"uint256"}],"name":"sweepERC20","outputs":[],"stateMutability":"nonpayable","type":"function"},{"inputs":[{"internalType":"address","name":"clientAddr","type":"address"}],"name":"totalJobsOf","outputs":[{"internalType":"uint256","name":"","type":"uint256"}],"stateMutability":"view","type":"function"},{"inputs":[],"name":"totalOpenJobs","outputs":[{"internalType":"uint256","name":"","type":"uint256"}],"stateMutability":"view","type":"function"},{"inputs":[{"internalType":"address","name":"_newOwner","type":"address"}],"name":"transferOwnership","outputs":[],"stateMutability":"nonpayable","type":"function"},{"inputs":[{"internalType":"uint256","name":"jobId","type":"uint256"},{"internalType":"string","name":"title","type":"string"},{"internalType":"string","name":"descriptionURI","type":"string"},{"internalType":"uint256","name":"budgetUSDC","type":"uint256"},{"internalType":"bytes32[]","name":"tags","type":"bytes32[]"},{"internalType":"uint64","name":"expiresAt","type":"uint64"}],"name":"updateJob","outputs":[],"stateMutability":"nonpayable","type":"function"},{"inputs":[],"name":"usdc","outputs":[{"internalType":"contract IERC20","name":"","type":"address"}],"stateMutability":"view","type":"function"},{"inputs":[{"internalType":"uint256","name":"jobId","type":"uint256"}],"name":"withdrawApplication","outputs":[],"stateMutability":"nonpayable","type":"function"}],"evm":{"bytecode":{"linkReferences":{},"object":"60803460b457601f6130bf38819003918201601f19168301916001600160401b0383118484101760b95780849260209460405283398101031260b457516001600160a01b0381169081900360b4576001600b55801560a357600080546001600160a01b03191682178155600160065560405191907fb532073b38c83145e3e5135377a08bf9aab55bc0fd7c1179cd4fb995d2a5159c8180a3612fef90816100d08239f35b63d92e233d60e01b60005260046000fd5b600080fd5b634e487b7160e01b600052604160045260246000fdfe608080604052600436101561001357600080fd5b60003560e01c90816316c38b3c146126ff57508063180aedf31461260c5780631dffa3dc1461251f5780631ec1de93146125015780632ce606e3146124d85780632edea1a0146124b2578063312090611461230057806331dc20ff146122e257806336ae41ca146122105780633e413bee146121e35780633e8a00c8146121c05780633f19599314612181578063455f16c5146121105780634f464cb014611d3e5780635123bacc14611c9557806357147aca14611c5b578063583e42a414611be85780635a4434ba14611bbe5780635c975abb14611b985780636c79bce71461165657806372ffa84d146115bf5780637c1ee3b5146115375780637f8305e5146114ce5780638da5cb5b146114a55780638e1a32d0146111325780639944f518146110f3578063b0c2aa5e146110d5578063b3e089a21461104d578063beacece114611021578063bec7a01d14610faa578063bf22c45714610e24578063c0a6026c14610d29578063c6b9caf414610c73578063cbff7df514610ba7578063d2f57da41461074e578063d566a41114610722578063d8acddb1146106c9578063dc74fde5146106a7578063e5d53c3b14610620578063e6d119991461057a578063ee64a6aa14610408578063f1d5314a146102965763f2fde38b146101f857600080fd5b346102915760203660031901126102915761021161290b565b600054906001600160a01b0382169033829003610280576001600160a01b031691821561026f576001600160a01b031916821760009081557fb532073b38c83145e3e5135377a08bf9aab55bc0fd7c1179cd4fb995d2a5159c9080a3005b63d92e233d60e01b60005260046000fd5b6330cd747160e01b60005260046000fd5b600080fd5b346102915760203660031901126102915760043560ff60005460a01c166103f7576001600b54036103e6576002600b556000818152600e6020908152604080832033845290915290205480156103d55760001981019081116103bf5761030b60039183600052600d6020526040600020612cc7565b5080546001600160e01b03191681556001810180546000919061032d9061278d565b601f81116103a0575b505560006002820155016001600160401b0319815416905580600052600e602052604060002060018060a01b0333166000526020526000604081205533907f6917335efdeedc9e175d9104c30bd132f219f66cbb6c05631b4e7991ca798023600080a36001600b55005b818352602083206103b991601f0160051c810190612a01565b85610336565b634e487b7160e01b600052601160045260246000fd5b630bd94e9760e11b60005260046000fd5b63558a1e0360e11b60005260046000fd5b6307a92f1960e51b60005260046000fd5b34610291576040366003190112610291576004356024356001600160401b0381168082036102915760ff60005460a01c166103f7576000838152600760205260409020546001600160a01b0316801561056957330361055857826000526007602052604060002090600482019160ff83541660068110156105425760038114159081610536575b50610525578115158061051b575b6103f757825460ff191660011790925560069190910180546001600160801b031916426001600160401b03161760409390931b67ffffffffffffffff60401b16929092179091557f64e5fe93a1512528f7d137734ea381e242e5f5b078b993159fdb3c72ab8e9ef79060209061051284612f6b565b604051908152a2005b504282111561049d565b633f2e0a8760e21b60005260046000fd5b6005915014158661048f565b634e487b7160e01b600052602160045260246000fd5b630836f21d60e21b60005260046000fd5b63c0a8563160e01b60005260046000fd5b346102915760403660031901126102915761059361290b565b6000546001600160a01b031690338290036102805760405163a9059cbb60e01b81526001600160a01b03928316600482015260248035908201529160209183916044918391600091165af18015610614576105ea57005b61060b9060203d60201161060d575b61060381836127e2565b810190612b9c565b005b503d6105f9565b6040513d6000823e3d90fd5b34610291576020366003190112610291576001600160a01b0361064161290b565b166000526008602052604060002060405190816020825491828152019160005260206000209060005b8181106106915761068d85610681818703826127e2565b6040519182918261297e565b0390f35b825484526020909301926001928301920161066a565b346102915760403660031901126102915761068d610681602435600435612db5565b34610291576040366003190112610291576106e261290b565b6001600160a01b031660009081526008602052604090208054602435919082101561029157602091610713916129e9565b90549060031b1c604051908152f35b3461029157602036600319011261029157600435600052600d6020526020604060002054604051908152f35b34610291576080366003190112610291576004356024356001600160401b03811161029157610781903690600401612921565b600092919250606435906001600160401b0382168092036102915760ff60005460a01c166103f7576001600b54036103e6576002600b556001600160401b038111610aa257604051936107de601f8301601f1916602001866127e2565b818552368282011161029157816000926020928388013785010152600082815260076020526040902080546001600160a01b0316156105695760ff600482015416600681101561054257600103610b96576006015460401c6001600160401b03168015159081610b8b575b50610b7a57600c546001600160a01b031680610ade575b506000828152600e60209081526040808320338452909152902054610ace576001600160401b0342169282600052600d6020526040600020549183600052600d6020526040600020604051926108b5846127c7565b338452602084018781526040850191825260608501926044358452608086019485528054600160401b811015610aa2576108f491600182018155612cc7565b959095610ab85751855491516001600160e01b03199092166001600160a01b03919091161760a09190911b67ffffffffffffffff60a01b1617845551805160018501916001600160401b038211610aa25761095982610953855461278d565b85612a18565b602090601f8311600114610a2d5792610999836001600160401b039794600397948997600092610a22575b50508160011b916000199060031b1c19161790565b90555b5160028601555116920191166001600160401b0319825416179055600181018091116103bf576000828152600e60209081526040808320338452825280832093909355600f9052206109ef908290612bb4565b6040519182527fffce64a4a888e2eca6ed6b5e083b220b5f57250b9c0c7badb33012f1607a084760203393a36001600b55005b015190508d80610984565b90601f1983169184600052816000209260005b818110610a8a575093600396936001600160401b03989593600193838b999610610a72575b505050811b01905561099c565b0151600019838a1b60f8161c191690558c8080610a65565b92936020600181928786015181550195019301610a40565b634e487b7160e01b600052604160045260246000fd5b634e487b7160e01b600052600060045260246000fd5b62540c0360e11b60005260046000fd5b602060249160405192838092630f5664e760e31b82523360048301525afa90811561061457600091610b31575b506001600160a01b031615610b205783610860565b633832386960e11b60005260046000fd5b6020813d602011610b72575b81610b4a602093836127e2565b81010312610b6e5751906001600160a01b0382168203610b6b575084610b0b565b80fd5b5080fd5b3d9150610b3d565b63d0404f8560e01b60005260046000fd5b905042101584610849565b631bb5f5b360e31b60005260046000fd5b3461029157604036600319011261029157600435610bc36128f5565b81600052600e60205260406000209060018060a01b03166000526020526040600020549081156103d557600052600d602052604060002060001982019182116103bf576001600160401b0391610c1891612cc7565b50805490600281015490610c64610c386001866003850154169301612803565b604080516001600160a01b038716815260a096871c9097166020880152860185905285948501906128a7565b91606084015260808301520390f35b3461029157606036600319011261029157610c95604435602435600435612ce3565b906040519182916040830160408452815180915260206060850192019060005b818110610d075750505082810360208401526020808351928381520192019060005b818110610ce5575050500390f35b82516001600160401b0316845285945060209384019390920191600101610cd7565b82516001600160a01b0316845286955060209384019390920191600101610cb5565b346102915760203660031901126102915760043560ff60005460a01c166103f75733600052600160205260ff6040600020541615610e1357600081815260076020526040902080549091906001600160a01b03161561056957600482019060ff8254166006811015610542576002036103f757815460ff1916600417825560068301805467ffffffffffffffff1916426001600160401b0316179055825491546005909301546040516001600160a01b03918216815260089490941c8116939216917f074fd40586a68e670c4541fb4b871f9b85af2929dbe255702e111e588ff4b2a890602090a4005b6309270ebd60e11b60005260046000fd5b3461029157602036600319011261029157600435600090815260076020526040902080546001600160a01b0316801561056957600382015491600481015460058201549160068101546007820193600883015493610e906002610e8960018701612803565b9501612803565b604051948560208954918281520190819960005260206000209060005b818110610f945750505092610f006001600160401b03959293610ef28795610edb8b60209c9b99038b6127e2565b6101806040519e8f908152818d82015201906128a7565b8c810360408e0152906128a7565b9a60608b0152610f1660808b0160ff83166128e8565b60081c6001600160a01b0390811660a08b81019190915290821660c08b01521c1660e088015280821661010088015260401c16610120860152848603610140860152518086526000959190910192905b808610610f7c5750508293506101608301520390f35b90926020806001928651815201940195019490610f66565b8254845260209093019260019283019201610ead565b34610291576020366003190112610291576001600160a01b03610fcb61290b565b16600052600f602052604060002060405190816020825491828152019160005260206000209060005b81811061100b5761068d85610681818703826127e2565b8254845260209093019260019283019201610ff4565b346102915760603660031901126102915761068d61068161104061290b565b6044359060243590612c08565b346102915760203660031901126102915761106661290b565b6000546001600160a01b03163303610280576001600160a01b03811690811561026f5760028054610100600160a81b03191660089290921b610100600160a81b03169190911790557f4a13891118f8dba1996f8eac118f83bb98e645807a9b9cecf6bc6d014048e7e3600080a2005b34610291576000366003190112610291576020600654604051908152f35b34610291576020366003190112610291576001600160a01b0361111461290b565b166000526004602052602060ff604060002054166040519015158152f35b346102915760203660031901126102915760043560ff60005460a01c166103f7576001600b54036103e6576002600b5560209060405161117283826127e2565b6000808252828152600784526040902080546001600160a01b0316156105695760ff600482015416600681101561054257600103610b96576006015460401c6001600160401b0316801515908161149a575b50610b7a57600c546001600160a01b0316838161141b575b50506000828152600e845260408082203383528552902054610ace576001600160401b0342169282600052600d81526040600020549183600052600d825260406000206040519161122c836127c7565b33835283830190878252604084019081526060840191600083526080850193600085528054600160401b811015610aa25761126c91600182018155612cc7565b959095610ab85751855491516001600160e01b03199092166001600160a01b03919091161760a09190911b67ffffffffffffffff60a01b1617845551805160018501916001600160401b038211610aa2576112cb82610953855461278d565b8690601f83116001146113a65792611309836001600160401b03979460039794899760009261139b5750508160011b916000199060031b1c19161790565b90555b5160028601555116920191166001600160401b0319825416179055600182018092116103bf577fffce64a4a888e2eca6ed6b5e083b220b5f57250b9c0c7badb33012f1607a08479183600052600e8252604060002060018060a01b033316600052825260406000205533600052600f815261138b836040600020612bb4565b6040519384523393a36001600b55005b015190508e80610984565b90601f1983169184600052886000209260005b8a82821061140557505093600396936001600160401b03989593600193838b9996106113ed575b505050811b01905561130c565b0151600019838a1b60f8161c191690558d80806113e0565b60018596829396860151815501950193016113b9565b604051630f5664e760e31b815233600482015291829060249082905afa9081156106145760009161145d575b506001600160a01b031615610b205783836111dc565b8481813d8311611493575b61147281836127e2565b81010312610b6e5751906001600160a01b0382168203610b6b575084611447565b503d611468565b9050421015846111c4565b34610291576000366003190112610291576000546040516001600160a01b039091168152602090f35b34610291576020366003190112610291576114e761276f565b6000546001600160a01b031633036102805760207fe45eebf975e8498157f15e4245144789293d518243944ce72e49418a0cfa598391151560ff196005541660ff821617600555604051908152a1005b346102915760403660031901126102915760043560ff811680910361029157600054602435906001600160a01b0316330361028057600282116103f7576003821015610542577f7d63308b92fa01d1151ab58553671d1b5ade1d78731eb1b099f55ac41ea2464e916040918160ff1960025416176002558060035582519182526020820152a1005b34610291576040366003190112610291576115d861290b565b6115e061277e565b6000549091906001600160a01b03163303610280576001600160a01b031690811561026f5760207f24c9a6b477fff74db04905dbc966242385b5b163a4abd979698a56ea761371db91836000526001825261164b8160406000209060ff801983541691151516179055565b6040519015158152a2005b346102915760a0366003190112610291576004356001600160401b03811161029157611686903690600401612921565b906024356001600160401b038111610291576116a6903690600401612921565b9092604435916064356001600160401b038111610291576116cb90369060040161294e565b949093608435926001600160401b038416958685036102915760ff60005460a01c166103f7576001600b54036103e6576002600b556002549660ff8816976003891015610542576002891480611b7f575b611b6e57600160009914611abb575b5060058911611aaa578015159081611a9f575b506103f7576006549760001989146103bf57600189810160065560008a815260076020526040902080546001600160a01b03191633178155989089016001600160401b038911610aa25761179c89611796835461278d565b83612a18565b600089601f8111600114611a3b57806117cb92600091611a30575b508160011b916000199060031b1c19161790565b90555b600289016001600160401b038511610aa2576117ee85611796835461278d565b6000858d601f82116001146119c55761181e92600091836119ba5750508160011b916000199060031b1c19161790565b90555b6003890185905560048901805460ff1916600117905560058901805467ffffffffffffffff60a01b19164260a081901b67ffffffffffffffff60a01b169190911790915560068a01805467ffffffffffffffff60401b60408b901b166001600160401b039093166001600160801b031990911617919091179055600889015580611916575b50507f1e340188ef02ed93224295b9e0a03660720f89cfd12522e974a49b530e346e039360209893889693611906933360005260088c526118eb896040600020612bb4565b6118f489612f6b565b6040519687966007339c019488612b1a565b0390a36001600b55604051908152f35b61191f81612ab7565b805160078a0192916001600160401b038211610aa2576020906119428386612a5d565b0183600052602060002060005b8381106119a6575050505060005b81811061196b5750506118a6565b806119796001928487612ae9565b3561199e61198783876129e9565b819391549060031b91821b91600019901b19161790565b90550161195d565b60019060208451940193818401550161194f565b013590508f8f610984565b838352602083209290915087601f198116825b818110611a105750106119f6575b505050600185811b019055611821565b0135600019600388901b60f8161c191690558c8c816119e6565b936020925083958392946001920135815501940192018f929189916119d8565b90508901358f6117b7565b5081815260208120908a601f198116825b8b828210611a8557505010611a6b575b5050600189811b0190556117ce565b88013560001960038c901b60f8161c191690558c80611a5c565b84013585556001909401936020938401938e935001611a4c565b90504210158a61173e565b63ee39e85560e01b60005260046000fd5b60081c6001600160a01b03168015611b5f57600354988915611b505750602060009160648b60405194859384926323b872dd60e01b845233600485015230602485015260448401525af190811561061457600091611b31575b5015611b20578a61172b565b63501c2aaf60e01b60005260046000fd5b611b4a915060203d60201161060d5761060381836127e2565b8b611b14565b63501c2aaf60e01b8152600490fd5b63e92eebef60e01b8952600489fd5b633b529a9760e11b60005260046000fd5b5033600052600460205260ff604060002054161561171c565b3461029157600036600319011261029157602060ff60005460a01c166040519015158152f35b346102915760003660031901126102915760ff600254166040516003821015610542576020918152f35b3461029157602036600319011261029157611c0161276f565b6000546001600160a01b031633036102805760207ffcedad5b627dd7e8aa295bc0afeb76597c18047112fa7d4ac4d131f0e250a3c2911515600c5460ff60a01b8260a01b169060ff60a01b191617600c55604051908152a1005b34610291576020366003190112610291576001600160a01b03611c7c61290b565b1660005260086020526020604060002054604051908152f35b3461029157604036600319011261029157611cae61290b565b611cb661277e565b9060018060a01b036000541633141580611d25575b610e13576001600160a01b031690811561026f5760207f97b4072981ad9b2269406ff8cc9d70c26afd27cea67b75e2573b8710a5e880c991836000526004825261164b8160406000209060ff801983541691151516179055565b5033600052600160205260ff6040600020541615611ccb565b346102915760c0366003190112610291576004356024356001600160401b03811161029157611d71903690600401612921565b6044929192356001600160401b03811161029157611d93903690600401612921565b6064949194356084356001600160401b03811161029157611db890369060040161294e565b92909660a435976001600160401b038916808a036102915760ff60005460a01c166103f7576000898152600760205260409020546001600160a01b031680156105695733036105585788600052600760205260406000209060ff600483015416600681101561054257600103610b965760058711611aaa578015159081612105575b506103f757600181016001600160401b038911610aa257611e5f89611796835461278d565b600089601f81116001146120a15780611e8d9260009161209657508160011b916000199060031b1c19161790565b90555b60028101906001600160401b038511610aa257611eb785611eb1845461278d565b84612a18565b60009185601f811160011461202e5780611ee99160079560009161202357508160011b916000199060031b1c19161790565b90555b600381018690556006810180546001600160801b031916426001600160401b03161760408d901b67ffffffffffffffff60401b16179055019485546000875580611ffc575b5080611f75575b505091611f7093917ff9cdeb830204e1e6135fb07822aaac23761d75003d5dde41bcb94fa818c1b52197989360405197889788612b1a565b0390a2005b611f7e81612ab7565b8051906001600160401b038211610aa257602090611f9c838a612a5d565b0187600052602060002060005b838110611fe8575050505060005b818110611fc45750611f38565b80611fd26001928486612ae9565b35611fe0611987838b6129e9565b905501611fb7565b600190602084519401938184015501611fa9565b866000526020600020908101905b8181106120175750611f31565b6000815560010161200a565b90508701358f6117b7565b50808352602083208387601f1981165b80871061207857600796501061205e575b5050600186811b019055611eec565b860135600019600389901b60f8161c191690558c8061204f565b8883013584556020968701966001909401939092019189915061203e565b90508a01358e6117b7565b5081815260208120908a601f198116825b8c8282106120eb575050106120d1575b5050600189811b019055611e90565b89013560001960038c901b60f8161c191690558b806120c2565b84013585556001909401936020938401938e9350016120b2565b90504210158b611e3a565b346102915760203660031901126102915761212961290b565b6000546001600160a01b0316330361028057600c80546001600160a01b0319166001600160a01b039290921691821790557ff51d0449bf7d477688401ef33c6c6e576ec0a95e4e9337a86904163bb41c2673600080a2005b34610291576020366003190112610291576001600160a01b036121a261290b565b166000526001602052602060ff604060002054166040519015158152f35b3461029157600036600319011261029157602060ff600554166040519015158152f35b346102915760003660031901126102915760025460405160089190911c6001600160a01b03168152602090f35b3461029157602036600319011261029157600435600081815260076020526040902080546001600160a01b03161561056957600481019060ff825416600681101561054257600103610b96576006016001600160401b03815460401c1680159081156122d8575b50610b7a576001600160401b036020917fe77a20b7941129acbb78a11f4d13c89ec2c9d5d36d21f0f7083e304c3e4338c993600560ff19825416179055818042161682198254161781556122ca85612e2a565b5460401c16604051908152a2005b9050421084612277565b34610291576000366003190112610291576020600954604051908152f35b346102915760603660031901126102915760043561231c6128f5565b906044356001600160a01b03811691908290036102915760ff60005460a01c166103f75733600052600160205260ff6040600020541615610e13576001600b54036103e6576002600b556001600160a01b03831692831580156124aa575b61026f57600082815260076020526040902080546001600160a01b03161561056957600481019160ff8354166006811015610542576001036124995760ff600c5460a01c16612472575b8254610100600160a81b03191660089190911b610100600160a81b03161782556005810180546001600160a01b03191685179055815460ff191660021790915560068101805467ffffffffffffffff1916426001600160401b03161790557f18d75305648a74597b581f82d18a431cb8a7ddbf7a7131ceb3e9e5343ed770899060209061245084612e2a565b61245981612eec565b546040519485526001600160a01b031693a46001600b55005b9083600052600e602052604060002086600052602052604060002054156103d557906123c4565b635e78c1e560e01b60005260046000fd5b50821561237a565b3461029157600036600319011261029157602060ff600c5460a01c166040519015158152f35b3461029157600036600319011261029157600c546040516001600160a01b039091168152602090f35b34610291576000366003190112610291576020600354604051908152f35b346102915760203660031901126102915760043560ff60005460a01c166103f7576000818152600760205260409020546001600160a01b03168015610569573303610558576001600b54036103e6576002600b5580600052600760205260406000206004810160ff815416600681101561054257600103610b9657805460ff1916600317905560068101805467ffffffffffffffff1916426001600160401b03161790556125cc82612e2a565b6125d581612eec565b546001600160a01b0316907ff1ab0865975dad5c69ae8e4baaf13114c875728afa7cc86368534c22a631d0b0600080a36001600b55005b3461029157602036600319011261029157600435600090815260076020526040902080546001600160a01b031661264560018301612803565b9161265260028201612803565b6001600160401b036003830154928160048201546005830154906126a660086006860154950154966126986040519b8c9b8c5261016060208d01526101608c01906128a7565b908a820360408c01526128a7565b9660608901526126bc6080890160ff83166128e8565b60081c6001600160a01b0390811660a08981019190915290821660c08901521c1660e086015280821661010086015260401c166101208401526101408301520390f35b346102915760203660031901126102915761271861276f565b600054916001600160a01b0383163303610280577f40db37ff5c0bdc2c427fbb2078c8f24afea940abac0e3c23bb4ea3bf2da2b2129260209215159060ff60a01b8260a01b169060ff60a01b1916176000558152a1005b60043590811515820361029157565b60243590811515820361029157565b90600182811c921680156127bd575b60208310146127a757565b634e487b7160e01b600052602260045260246000fd5b91607f169161279c565b60a081019081106001600160401b03821117610aa257604052565b90601f801991011681019081106001600160401b03821117610aa257604052565b90604051918260008254926128178461278d565b8084529360018116908115612885575060011461283e575b5061283c925003836127e2565b565b90506000929192526020600020906000915b81831061286957505090602061283c928201013861282f565b6020919350806001915483858901015201910190918492612850565b90506020925061283c94915060ff191682840152151560051b8201013861282f565b919082519283825260005b8481106128d3575050826000602080949584010152601f8019910116010190565b806020809284010151828286010152016128b2565b9060068210156105425752565b602435906001600160a01b038216820361029157565b600435906001600160a01b038216820361029157565b9181601f84011215610291578235916001600160401b038311610291576020838186019501011161029157565b9181601f84011215610291578235916001600160401b038311610291576020808501948460051b01011161029157565b602060408183019282815284518094520192019060005b8181106129a25750505090565b8251845260209384019390920191600101612995565b6009548110156129d357600960005260206000200190600090565b634e487b7160e01b600052603260045260246000fd5b80548210156129d35760005260206000200190600090565b818110612a0c575050565b60008155600101612a01565b9190601f8111612a2757505050565b61283c926000526020600020906020601f840160051c83019310612a53575b601f0160051c0190612a01565b9091508190612a46565b90600160401b8111610aa257815491818155828210612a7b57505050565b600052602060002091820191015b818110612a94575050565b60008155600101612a89565b6001600160401b038111610aa25760051b60200190565b90612ac182612aa0565b612ace60405191826127e2565b8281528092612adf601f1991612aa0565b0190602036910137565b91908110156129d35760051b0190565b908060209392818452848401376000828201840152601f01601f1916010190565b95949390612b3890612b46949399989960a0895260a0890191612af9565b918683036020880152612af9565b90604084015282810360608401526020825491828152019160005260206000209060005b818110612b86575050506001600160401b036080919416910152565b8254845260209093019260019283019201612b6a565b90816020910312610291575180151581036102915790565b805490600160401b821015610aa25781611987916001612bd6940181556129e9565b9055565b919082018092116103bf57565b919082039182116103bf57565b80518210156129d35760209160051b010190565b6001600160a01b031660008181526008602052604090205490939281831015612ca857612c4991612c3a849283612bda565b90808211612ca0575b50612be7565b90612c5382612ab7565b9360005b838110612c645750505050565b600190826000526008602052612c886040600020612c828387612bda565b906129e9565b90549060031b1c612c998289612bf4565b5201612c57565b905038612c43565b5050509050604051612cbb6020826127e2565b60008152600036813790565b80548210156129d35760005260206000209060021b0190600090565b92909192600052600d60205260406000209283549081841015612d7b57612d0f91612c3a859283612bda565b612d1881612ab7565b93612d2282612ab7565b9360005b838110612d335750505050565b806001600160401b03612d51612d4b60019486612bda565b86612cc7565b5054838060a01b038116612d65848c612bf4565b5260a01c16612d748289612bf4565b5201612d26565b5050915050602090604051612d9083826127e2565b60008152600036813760405192612da781856127e2565b600084525060003681379190565b91906009549081841015612e1857612dd291612c3a859283612bda565b612ddb81612ab7565b9260005b828110612deb57505050565b80612e00612dfb60019385612bda565b6129b8565b90549060031b1c612e118288612bf4565b5201612ddf565b50509050604051612cbb6020826127e2565b80600052600a602052604060002054908115612ee8576000198201918083116103bf576009546000198101939084116103bf57612e66846129b8565b90549060031b1c906000948103612ec5575b5050506009548015612eb15760001901612e91816129b8565b8154906000199060031b1b191690556009558152600a6020526040812055565b634e487b7160e01b83526031600452602483fd5b612ed261198783926129b8565b90558352600a6020526040832055388080612e78565b5050565b6008810180548015612f6657600091829055600254925460405163a9059cbb60e01b81526001600160a01b03918216600482015260248101929092529092602092849260449284929160089190911c165af1801561061457612f4b5750565b612f639060203d60201161060d5761060381836127e2565b50565b505050565b80600052600a602052604060002054612f6357600954600160401b811015610aa257612fa361198782600185940160095560096129e9565b905560095490600052600a60205260406000205556fea2646970667358221220b7c50c4bc81ecce021c0a47f234d95106e237e31080ff763898373680150b05764736f6c634300081c0033","opcodes":"PUSH1 0x80 CALLVALUE PUSH1 0xB4 JUMPI PUSH1 0x1F PUSH2 0x30BF CODESIZE DUP2 SWAP1 SUB SWAP2 DUP3 ADD PUSH1 0x1F NOT AND DUP4 ADD SWAP2 PUSH1 0x1 PUSH1 0x1 PUSH1 0x40 SHL SUB DUP4 GT DUP5 DUP5 LT OR PUSH1 0xB9 JUMPI DUP1 DUP5 SWAP3 PUSH1 0x20 SWAP5 PUSH1 0x40 MSTORE DUP4 CODECOPY DUP2 ADD SUB SLT PUSH1 0xB4 JUMPI MLOAD PUSH1 0x1 PUSH1 0x1 PUSH1 0xA0 SHL SUB DUP2 AND SWAP1 DUP2 SWAP1 SUB PUSH1 0xB4 JUMPI PUSH1 0x1 PUSH1 0xB SSTORE DUP1 ISZERO PUSH1 0xA3 JUMPI PUSH1 0x0 DUP1 SLOAD PUSH1 0x1 PUSH1 0x1 PUSH1 0xA0 SHL SUB NOT AND DUP3 OR DUP2 SSTORE PUSH1 0x1 PUSH1 0x6 SSTORE PUSH1 0x40 MLOAD SWAP2 SWAP1 PUSH32 0xB532073B38C83145E3E5135377A08BF9AAB55BC0FD7C1179CD4FB995D2A5159C DUP2 DUP1 LOG3 PUSH2 0x2FEF SWAP1 DUP2 PUSH2 0xD0 DUP3 CODECOPY RETURN JUMPDEST PUSH4 0xD92E233D PUSH1 0xE0 SHL PUSH1 0x0 MSTORE PUSH1 0x4 PUSH1 0x0 REVERT JUMPDEST PUSH1 0x0 DUP1 REVERT JUMPDEST PUSH4 0x4E487B71 PUSH1 0xE0 SHL PUSH1 0x0 MSTORE PUSH1 0x41 PUSH1 0x4 MSTORE PUSH1 0x24 PUSH1 0x0 REVERT INVALID PUSH1 0x80 DUP1 PUSH1 0x40 MSTORE PUSH1 0x4 CALLDATASIZE LT ISZERO PUSH2 0x13 JUMPI PUSH1 0x0 DUP1 REVERT JUMPDEST PUSH1 0x0 CALLDATALOAD PUSH1 0xE0 SHR SWAP1 DUP2 PUSH4 0x16C38B3C EQ PUSH2 0x26FF JUMPI POP DUP1 PUSH4 0x180AEDF3 EQ PUSH2 0x260C JUMPI DUP1 PUSH4 0x1DFFA3DC EQ PUSH2 0x251F JUMPI DUP1 PUSH4 0x1EC1DE93 EQ PUSH2 0x2501 JUMPI DUP1 PUSH4 0x2CE606E3 EQ PUSH2 0x24D8 JUMPI DUP1 PUSH4 0x2EDEA1A0 EQ PUSH2 0x24B2 JUMPI DUP1 PUSH4 0x31209061 EQ PUSH2 0x2300 JUMPI DUP1 PUSH4 0x31DC20FF EQ PUSH2 0x22E2 JUMPI DUP1 PUSH4 0x36AE41CA EQ PUSH2 0x2210 JUMPI DUP1 PUSH4 0x3E413BEE EQ PUSH2 0x21E3 JUMPI DUP1 PUSH4 0x3E8A00C8 EQ PUSH2 0x21C0 JUMPI DUP1 PUSH4 0x3F195993 EQ PUSH2 0x2181 JUMPI DUP1 PUSH4 0x455F16C5 EQ PUSH2 0x2110 JUMPI DUP1 PUSH4 0x4F464CB0 EQ PUSH2 0x1D3E JUMPI DUP1 PUSH4 0x5123BACC EQ PUSH2 0x1C95 JUMPI DUP1 PUSH4 0x57147ACA EQ PUSH2 0x1C5B JUMPI DUP1 PUSH4 0x583E42A4 EQ PUSH2 0x1BE8 JUMPI DUP1 PUSH4 0x5A4434BA EQ PUSH2 0x1BBE JUMPI DUP1 PUSH4 0x5C975ABB EQ PUSH2 0x1B98 JUMPI DUP1 PUSH4 0x6C79BCE7 EQ PUSH2 0x1656 JUMPI DUP1 PUSH4 0x72FFA84D EQ PUSH2 0x15BF JUMPI DUP1 PUSH4 0x7C1EE3B5 EQ PUSH2 0x1537 JUMPI DUP1 PUSH4 0x7F8305E5 EQ PUSH2 0x14CE JUMPI DUP1 PUSH4 0x8DA5CB5B EQ PUSH2 0x14A5 JUMPI DUP1 PUSH4 0x8E1A32D0 EQ PUSH2 0x1132 JUMPI DUP1 PUSH4 0x9944F518 EQ PUSH2 0x10F3 JUMPI DUP1 PUSH4 0xB0C2AA5E EQ PUSH2 0x10D5 JUMPI DUP1 PUSH4 0xB3E089A2 EQ PUSH2 0x104D JUMPI DUP1 PUSH4 0xBEACECE1 EQ PUSH2 0x1021 JUMPI DUP1 PUSH4 0xBEC7A01D EQ PUSH2 0xFAA JUMPI DUP1 PUSH4 0xBF22C457 EQ PUSH2 0xE24 JUMPI DUP1 PUSH4 0xC0A6026C EQ PUSH2 0xD29 JUMPI DUP1 PUSH4 0xC6B9CAF4 EQ PUSH2 0xC73 JUMPI DUP1 PUSH4 0xCBFF7DF5 EQ PUSH2 0xBA7 JUMPI DUP1 PUSH4 0xD2F57DA4 EQ PUSH2 0x74E JUMPI DUP1 PUSH4 0xD566A411 EQ PUSH2 0x722 JUMPI DUP1 PUSH4 0xD8ACDDB1 EQ PUSH2 0x6C9 JUMPI DUP1 PUSH4 0xDC74FDE5 EQ PUSH2 0x6A7 JUMPI DUP1 PUSH4 0xE5D53C3B EQ PUSH2 0x620 JUMPI DUP1 PUSH4 0xE6D11999 EQ PUSH2 0x57A JUMPI DUP1 PUSH4 0xEE64A6AA EQ PUSH2 0x408 JUMPI DUP1 PUSH4 0xF1D5314A EQ PUSH2 0x296 JUMPI PUSH4 0xF2FDE38B EQ PUSH2 0x1F8 JUMPI PUSH1 0x0 DUP1 REVERT JUMPDEST CALLVALUE PUSH2 0x291 JUMPI PUSH1 0x20 CALLDATASIZE PUSH1 0x3 NOT ADD SLT PUSH2 0x291 JUMPI PUSH2 0x211 PUSH2 0x290B JUMP JUMPDEST PUSH1 0x0 SLOAD SWAP1 PUSH1 0x1 PUSH1 0x1 PUSH1 0xA0 SHL SUB DUP3 AND SWAP1 CALLER DUP3 SWAP1 SUB PUSH2 0x280 JUMPI PUSH1 0x1 PUSH1 0x1 PUSH1 0xA0 SHL SUB AND SWAP2 DUP3 ISZERO PUSH2 0x26F JUMPI PUSH1 0x1 PUSH1 0x1 PUSH1 0xA0 SHL SUB NOT AND DUP3 OR PUSH1 0x0 SWAP1 DUP2 SSTORE PUSH32 0xB532073B38C83145E3E5135377A08BF9AAB55BC0FD7C1179CD4FB995D2A5159C SWAP1 DUP1 LOG3 STOP JUMPDEST PUSH4 0xD92E233D PUSH1 0xE0 SHL PUSH1 0x0 MSTORE PUSH1 0x4 PUSH1 0x0 REVERT JUMPDEST PUSH4 0x30CD7471 PUSH1 0xE0 SHL PUSH1 0x0 MSTORE PUSH1 0x4 PUSH1 0x0 REVERT JUMPDEST PUSH1 0x0 DUP1 REVERT JUMPDEST CALLVALUE PUSH2 0x291 JUMPI PUSH1 0x20 CALLDATASIZE PUSH1 0x3 NOT ADD SLT PUSH2 0x291 JUMPI PUSH1 0x4 CALLDATALOAD PUSH1 0xFF PUSH1 0x0 SLOAD PUSH1 0xA0 SHR AND PUSH2 0x3F7 JUMPI PUSH1 0x1 PUSH1 0xB SLOAD SUB PUSH2 0x3E6 JUMPI PUSH1 0x2 PUSH1 0xB SSTORE PUSH1 0x0 DUP2 DUP2 MSTORE PUSH1 0xE PUSH1 0x20 SWAP1 DUP2 MSTORE PUSH1 0x40 DUP1 DUP4 KECCAK256 CALLER DUP5 MSTORE SWAP1 SWAP2 MSTORE SWAP1 KECCAK256 SLOAD DUP1 ISZERO PUSH2 0x3D5 JUMPI PUSH1 0x0 NOT DUP2 ADD SWAP1 DUP2 GT PUSH2 0x3BF JUMPI PUSH2 0x30B PUSH1 0x3 SWAP2 DUP4 PUSH1 0x0 MSTORE PUSH1 0xD PUSH1 0x20 MSTORE PUSH1 0x40 PUSH1 0x0 KECCAK256 PUSH2 0x2CC7 JUMP JUMPDEST POP DUP1 SLOAD PUSH1 0x1 PUSH1 0x1 PUSH1 0xE0 SHL SUB NOT AND DUP2 SSTORE PUSH1 0x1 DUP2 ADD DUP1 SLOAD PUSH1 0x0 SWAP2 SWAP1 PUSH2 0x32D SWAP1 PUSH2 0x278D JUMP JUMPDEST PUSH1 0x1F DUP2 GT PUSH2 0x3A0 JUMPI JUMPDEST POP SSTORE PUSH1 0x0 PUSH1 0x2 DUP3 ADD SSTORE ADD PUSH1 0x1 PUSH1 0x1 PUSH1 0x40 SHL SUB NOT DUP2 SLOAD AND SWAP1 SSTORE DUP1 PUSH1 0x0 MSTORE PUSH1 0xE PUSH1 0x20 MSTORE PUSH1 0x40 PUSH1 0x0 KECCAK256 PUSH1 0x1 DUP1 PUSH1 0xA0 SHL SUB CALLER AND PUSH1 0x0 MSTORE PUSH1 0x20 MSTORE PUSH1 0x0 PUSH1 0x40 DUP2 KECCAK256 SSTORE CALLER SWAP1 PUSH32 0x6917335EFDEEDC9E175D9104C30BD132F219F66CBB6C05631B4E7991CA798023 PUSH1 0x0 DUP1 LOG3 PUSH1 0x1 PUSH1 0xB SSTORE STOP JUMPDEST DUP2 DUP4 MSTORE PUSH1 0x20 DUP4 KECCAK256 PUSH2 0x3B9 SWAP2 PUSH1 0x1F ADD PUSH1 0x5 SHR DUP2 ADD SWAP1 PUSH2 0x2A01 JUMP JUMPDEST DUP6 PUSH2 0x336 JUMP JUMPDEST PUSH4 0x4E487B71 PUSH1 0xE0 SHL PUSH1 0x0 MSTORE PUSH1 0x11 PUSH1 0x4 MSTORE PUSH1 0x24 PUSH1 0x0 REVERT JUMPDEST PUSH4 0xBD94E97 PUSH1 0xE1 SHL PUSH1 0x0 MSTORE PUSH1 0x4 PUSH1 0x0 REVERT JUMPDEST PUSH4 0x558A1E03 PUSH1 0xE1 SHL PUSH1 0x0 MSTORE PUSH1 0x4 PUSH1 0x0 REVERT JUMPDEST PUSH4 0x7A92F19 PUSH1 0xE5 SHL PUSH1 0x0 MSTORE PUSH1 0x4 PUSH1 0x0 REVERT JUMPDEST CALLVALUE PUSH2 0x291 JUMPI PUSH1 0x40 CALLDATASIZE PUSH1 0x3 NOT ADD SLT PUSH2 0x291 JUMPI PUSH1 0x4 CALLDATALOAD PUSH1 0x24 CALLDATALOAD PUSH1 0x1 PUSH1 0x1 PUSH1 0x40 SHL SUB DUP2 AND DUP1 DUP3 SUB PUSH2 0x291 JUMPI PUSH1 0xFF PUSH1 0x0 SLOAD PUSH1 0xA0 SHR AND PUSH2 0x3F7 JUMPI PUSH1 0x0 DUP4 DUP2 MSTORE PUSH1 0x7 PUSH1 0x20 MSTORE PUSH1 0x40 SWAP1 KECCAK256 SLOAD PUSH1 0x1 PUSH1 0x1 PUSH1 0xA0 SHL SUB AND DUP1 ISZERO PUSH2 0x569 JUMPI CALLER SUB PUSH2 0x558 JUMPI DUP3 PUSH1 0x0 MSTORE PUSH1 0x7 PUSH1 0x20 MSTORE PUSH1 0x40 PUSH1 0x0 KECCAK256 SWAP1 PUSH1 0x4 DUP3 ADD SWAP2 PUSH1 0xFF DUP4 SLOAD AND PUSH1 0x6 DUP2 LT ISZERO PUSH2 0x542 JUMPI PUSH1 0x3 DUP2 EQ ISZERO SWAP1 DUP2 PUSH2 0x536 JUMPI JUMPDEST POP PUSH2 0x525 JUMPI DUP2 ISZERO ISZERO DUP1 PUSH2 0x51B JUMPI JUMPDEST PUSH2 0x3F7 JUMPI DUP3 SLOAD PUSH1 0xFF NOT AND PUSH1 0x1 OR SWAP1 SWAP3 SSTORE PUSH1 0x6 SWAP2 SWAP1 SWAP2 ADD DUP1 SLOAD PUSH1 0x1 PUSH1 0x1 PUSH1 0x80 SHL SUB NOT AND TIMESTAMP PUSH1 0x1 PUSH1 0x1 PUSH1 0x40 SHL SUB AND OR PUSH1 0x40 SWAP4 SWAP1 SWAP4 SHL PUSH8 0xFFFFFFFFFFFFFFFF PUSH1 0x40 SHL AND SWAP3 SWAP1 SWAP3 OR SWAP1 SWAP2 SSTORE PUSH32 0x64E5FE93A1512528F7D137734EA381E242E5F5B078B993159FDB3C72AB8E9EF7 SWAP1 PUSH1 0x20 SWAP1 PUSH2 0x512 DUP5 PUSH2 0x2F6B JUMP JUMPDEST PUSH1 0x40 MLOAD SWAP1 DUP2 MSTORE LOG2 STOP JUMPDEST POP TIMESTAMP DUP3 GT ISZERO PUSH2 0x49D JUMP JUMPDEST PUSH4 0x3F2E0A87 PUSH1 0xE2 SHL PUSH1 0x0 MSTORE PUSH1 0x4 PUSH1 0x0 REVERT JUMPDEST PUSH1 0x5 SWAP2 POP EQ ISZERO DUP7 PUSH2 0x48F JUMP JUMPDEST PUSH4 0x4E487B71 PUSH1 0xE0 SHL PUSH1 0x0 MSTORE PUSH1 0x21 PUSH1 0x4 MSTORE PUSH1 0x24 PUSH1 0x0 REVERT JUMPDEST PUSH4 0x836F21D PUSH1 0xE2 SHL PUSH1 0x0 MSTORE PUSH1 0x4 PUSH1 0x0 REVERT JUMPDEST PUSH4 0xC0A85631 PUSH1 0xE0 SHL PUSH1 0x0 MSTORE PUSH1 0x4 PUSH1 0x0 REVERT JUMPDEST CALLVALUE PUSH2 0x291 JUMPI PUSH1 0x40 CALLDATASIZE PUSH1 0x3 NOT ADD SLT PUSH2 0x291 JUMPI PUSH2 0x593 PUSH2 0x290B JUMP JUMPDEST PUSH1 0x0 SLOAD PUSH1 0x1 PUSH1 0x1 PUSH1 0xA0 SHL SUB AND SWAP1 CALLER DUP3 SWAP1 SUB PUSH2 0x280 JUMPI PUSH1 0x40 MLOAD PUSH4 0xA9059CBB PUSH1 0xE0 SHL DUP2 MSTORE PUSH1 0x1 PUSH1 0x1 PUSH1 0xA0 SHL SUB SWAP3 DUP4 AND PUSH1 0x4 DUP3 ADD MSTORE PUSH1 0x24 DUP1 CALLDATALOAD SWAP1 DUP3 ADD MSTORE SWAP2 PUSH1 0x20 SWAP2 DUP4 SWAP2 PUSH1 0x44 SWAP2 DUP4 SWAP2 PUSH1 0x0 SWAP2 AND GAS CALL DUP1 ISZERO PUSH2 0x614 JUMPI PUSH2 0x5EA JUMPI STOP JUMPDEST PUSH2 0x60B SWAP1 PUSH1 0x20 RETURNDATASIZE PUSH1 0x20 GT PUSH2 0x60D JUMPI JUMPDEST PUSH2 0x603 DUP2 DUP4 PUSH2 0x27E2 JUMP JUMPDEST DUP2 ADD SWAP1 PUSH2 0x2B9C JUMP JUMPDEST STOP JUMPDEST POP RETURNDATASIZE PUSH2 0x5F9 JUMP JUMPDEST PUSH1 0x40 MLOAD RETURNDATASIZE PUSH1 0x0 DUP3 RETURNDATACOPY RETURNDATASIZE SWAP1 REVERT JUMPDEST CALLVALUE PUSH2 0x291 JUMPI PUSH1 0x20 CALLDATASIZE PUSH1 0x3 NOT ADD SLT PUSH2 0x291 JUMPI PUSH1 0x1 PUSH1 0x1 PUSH1 0xA0 SHL SUB PUSH2 0x641 PUSH2 0x290B JUMP JUMPDEST AND PUSH1 0x0 MSTORE PUSH1 0x8 PUSH1 0x20 MSTORE PUSH1 0x40 PUSH1 0x0 KECCAK256 PUSH1 0x40 MLOAD SWAP1 DUP2 PUSH1 0x20 DUP3 SLOAD SWAP2 DUP3 DUP2 MSTORE ADD SWAP2 PUSH1 0x0 MSTORE PUSH1 0x20 PUSH1 0x0 KECCAK256 SWAP1 PUSH1 0x0 JUMPDEST DUP2 DUP2 LT PUSH2 0x691 JUMPI PUSH2 0x68D DUP6 PUSH2 0x681 DUP2 DUP8 SUB DUP3 PUSH2 0x27E2 JUMP JUMPDEST PUSH1 0x40 MLOAD SWAP2 DUP3 SWAP2 DUP3 PUSH2 0x297E JUMP JUMPDEST SUB SWAP1 RETURN JUMPDEST DUP3 SLOAD DUP5 MSTORE PUSH1 0x20 SWAP1 SWAP4 ADD SWAP3 PUSH1 0x1 SWAP3 DUP4 ADD SWAP3 ADD PUSH2 0x66A JUMP JUMPDEST CALLVALUE PUSH2 0x291 JUMPI PUSH1 0x40 CALLDATASIZE PUSH1 0x3 NOT ADD SLT PUSH2 0x291 JUMPI PUSH2 0x68D PUSH2 0x681 PUSH1 0x24 CALLDATALOAD PUSH1 0x4 CALLDATALOAD PUSH2 0x2DB5 JUMP JUMPDEST CALLVALUE PUSH2 0x291 JUMPI PUSH1 0x40 CALLDATASIZE PUSH1 0x3 NOT ADD SLT PUSH2 0x291 JUMPI PUSH2 0x6E2 PUSH2 0x290B JUMP JUMPDEST PUSH1 0x1 PUSH1 0x1 PUSH1 0xA0 SHL SUB AND PUSH1 0x0 SWAP1 DUP2 MSTORE PUSH1 0x8 PUSH1 0x20 MSTORE PUSH1 0x40 SWAP1 KECCAK256 DUP1 SLOAD PUSH1 0x24 CALLDATALOAD SWAP2 SWAP1 DUP3 LT ISZERO PUSH2 0x291 JUMPI PUSH1 0x20 SWAP2 PUSH2 0x713 SWAP2 PUSH2 0x29E9 JUMP JUMPDEST SWAP1 SLOAD SWAP1 PUSH1 0x3 SHL SHR PUSH1 0x40 MLOAD SWAP1 DUP2 MSTORE RETURN JUMPDEST CALLVALUE PUSH2 0x291 JUMPI PUSH1 0x20 CALLDATASIZE PUSH1 0x3 NOT ADD SLT PUSH2 0x291 JUMPI PUSH1 0x4 CALLDATALOAD PUSH1 0x0 MSTORE PUSH1 0xD PUSH1 0x20 MSTORE PUSH1 0x20 PUSH1 0x40 PUSH1 0x0 KECCAK256 SLOAD PUSH1 0x40 MLOAD SWAP1 DUP2 MSTORE RETURN JUMPDEST CALLVALUE PUSH2 0x291 JUMPI PUSH1 0x80 CALLDATASIZE PUSH1 0x3 NOT ADD SLT PUSH2 0x291 JUMPI PUSH1 0x4 CALLDATALOAD PUSH1 0x24 CALLDATALOAD PUSH1 0x1 PUSH1 0x1 PUSH1 0x40 SHL SUB DUP2 GT PUSH2 0x291 JUMPI PUSH2 0x781 SWAP1 CALLDATASIZE SWAP1 PUSH1 0x4 ADD PUSH2 0x2921 JUMP JUMPDEST PUSH1 0x0 SWAP3 SWAP2 SWAP3 POP PUSH1 0x64 CALLDATALOAD SWAP1 PUSH1 0x1 PUSH1 0x1 PUSH1 0x40 SHL SUB DUP3 AND DUP1 SWAP3 SUB PUSH2 0x291 JUMPI PUSH1 0xFF PUSH1 0x0 SLOAD PUSH1 0xA0 SHR AND PUSH2 0x3F7 JUMPI PUSH1 0x1 PUSH1 0xB SLOAD SUB PUSH2 0x3E6 JUMPI PUSH1 0x2 PUSH1 0xB SSTORE PUSH1 0x1 PUSH1 0x1 PUSH1 0x40 SHL SUB DUP2 GT PUSH2 0xAA2 JUMPI PUSH1 0x40 MLOAD SWAP4 PUSH2 0x7DE PUSH1 0x1F DUP4 ADD PUSH1 0x1F NOT AND PUSH1 0x20 ADD DUP7 PUSH2 0x27E2 JUMP JUMPDEST DUP2 DUP6 MSTORE CALLDATASIZE DUP3 DUP3 ADD GT PUSH2 0x291 JUMPI DUP2 PUSH1 0x0 SWAP3 PUSH1 0x20 SWAP3 DUP4 DUP9 ADD CALLDATACOPY DUP6 ADD ADD MSTORE PUSH1 0x0 DUP3 DUP2 MSTORE PUSH1 0x7 PUSH1 0x20 MSTORE PUSH1 0x40 SWAP1 KECCAK256 DUP1 SLOAD PUSH1 0x1 PUSH1 0x1 PUSH1 0xA0 SHL SUB AND ISZERO PUSH2 0x569 JUMPI PUSH1 0xFF PUSH1 0x4 DUP3 ADD SLOAD AND PUSH1 0x6 DUP2 LT ISZERO PUSH2 0x542 JUMPI PUSH1 0x1 SUB PUSH2 0xB96 JUMPI PUSH1 0x6 ADD SLOAD PUSH1 0x40 SHR PUSH1 0x1 PUSH1 0x1 PUSH1 0x40 SHL SUB AND DUP1 ISZERO ISZERO SWAP1 DUP2 PUSH2 0xB8B JUMPI JUMPDEST POP PUSH2 0xB7A JUMPI PUSH1 0xC SLOAD PUSH1 0x1 PUSH1 0x1 PUSH1 0xA0 SHL SUB AND DUP1 PUSH2 0xADE JUMPI JUMPDEST POP PUSH1 0x0 DUP3 DUP2 MSTORE PUSH1 0xE PUSH1 0x20 SWAP1 DUP2 MSTORE PUSH1 0x40 DUP1 DUP4 KECCAK256 CALLER DUP5 MSTORE SWAP1 SWAP2 MSTORE SWAP1 KECCAK256 SLOAD PUSH2 0xACE JUMPI PUSH1 0x1 PUSH1 0x1 PUSH1 0x40 SHL SUB TIMESTAMP AND SWAP3 DUP3 PUSH1 0x0 MSTORE PUSH1 0xD PUSH1 0x20 MSTORE PUSH1 0x40 PUSH1 0x0 KECCAK256 SLOAD SWAP2 DUP4 PUSH1 0x0 MSTORE PUSH1 0xD PUSH1 0x20 MSTORE PUSH1 0x40 PUSH1 0x0 KECCAK256 PUSH1 0x40 MLOAD SWAP3 PUSH2 0x8B5 DUP5 PUSH2 0x27C7 JUMP JUMPDEST CALLER DUP5 MSTORE PUSH1 0x20 DUP5 ADD DUP8 DUP2 MSTORE PUSH1 0x40 DUP6 ADD SWAP2 DUP3 MSTORE PUSH1 0x60 DUP6 ADD SWAP3 PUSH1 0x44 CALLDATALOAD DUP5 MSTORE PUSH1 0x80 DUP7 ADD SWAP5 DUP6 MSTORE DUP1 SLOAD PUSH1 0x1 PUSH1 0x40 SHL DUP2 LT ISZERO PUSH2 0xAA2 JUMPI PUSH2 0x8F4 SWAP2 PUSH1 0x1 DUP3 ADD DUP2 SSTORE PUSH2 0x2CC7 JUMP JUMPDEST SWAP6 SWAP1 SWAP6 PUSH2 0xAB8 JUMPI MLOAD DUP6 SLOAD SWAP2 MLOAD PUSH1 0x1 PUSH1 0x1 PUSH1 0xE0 SHL SUB NOT SWAP1 SWAP3 AND PUSH1 0x1 PUSH1 0x1 PUSH1 0xA0 SHL SUB SWAP2 SWAP1 SWAP2 AND OR PUSH1 0xA0 SWAP2 SWAP1 SWAP2 SHL PUSH8 0xFFFFFFFFFFFFFFFF PUSH1 0xA0 SHL AND OR DUP5 SSTORE MLOAD DUP1 MLOAD PUSH1 0x1 DUP6 ADD SWAP2 PUSH1 0x1 PUSH1 0x1 PUSH1 0x40 SHL SUB DUP3 GT PUSH2 0xAA2 JUMPI PUSH2 0x959 DUP3 PUSH2 0x953 DUP6 SLOAD PUSH2 0x278D JUMP JUMPDEST DUP6 PUSH2 0x2A18 JUMP JUMPDEST PUSH1 0x20 SWAP1 PUSH1 0x1F DUP4 GT PUSH1 0x1 EQ PUSH2 0xA2D JUMPI SWAP3 PUSH2 0x999 DUP4 PUSH1 0x1 PUSH1 0x1 PUSH1 0x40 SHL SUB SWAP8 SWAP5 PUSH1 0x3 SWAP8 SWAP5 DUP10 SWAP8 PUSH1 0x0 SWAP3 PUSH2 0xA22 JUMPI JUMPDEST POP POP DUP2 PUSH1 0x1 SHL SWAP2 PUSH1 0x0 NOT SWAP1 PUSH1 0x3 SHL SHR NOT AND OR SWAP1 JUMP JUMPDEST SWAP1 SSTORE JUMPDEST MLOAD PUSH1 0x2 DUP7 ADD SSTORE MLOAD AND SWAP3 ADD SWAP2 AND PUSH1 0x1 PUSH1 0x1 PUSH1 0x40 SHL SUB NOT DUP3 SLOAD AND OR SWAP1 SSTORE PUSH1 0x1 DUP2 ADD DUP1 SWAP2 GT PUSH2 0x3BF JUMPI PUSH1 0x0 DUP3 DUP2 MSTORE PUSH1 0xE PUSH1 0x20 SWAP1 DUP2 MSTORE PUSH1 0x40 DUP1 DUP4 KECCAK256 CALLER DUP5 MSTORE DUP3 MSTORE DUP1 DUP4 KECCAK256 SWAP4 SWAP1 SWAP4 SSTORE PUSH1 0xF SWAP1 MSTORE KECCAK256 PUSH2 0x9EF SWAP1 DUP3 SWAP1 PUSH2 0x2BB4 JUMP JUMPDEST PUSH1 0x40 MLOAD SWAP2 DUP3 MSTORE PUSH32 0xFFCE64A4A888E2ECA6ED6B5E083B220B5F57250B9C0C7BADB33012F1607A0847 PUSH1 0x20 CALLER SWAP4 LOG3 PUSH1 0x1 PUSH1 0xB SSTORE STOP JUMPDEST ADD MLOAD SWAP1 POP DUP14 DUP1 PUSH2 0x984 JUMP JUMPDEST SWAP1 PUSH1 0x1F NOT DUP4 AND SWAP2 DUP5 PUSH1 0x0 MSTORE DUP2 PUSH1 0x0 KECCAK256 SWAP3 PUSH1 0x0 JUMPDEST DUP2 DUP2 LT PUSH2 0xA8A JUMPI POP SWAP4 PUSH1 0x3 SWAP7 SWAP4 PUSH1 0x1 PUSH1 0x1 PUSH1 0x40 SHL SUB SWAP9 SWAP6 SWAP4 PUSH1 0x1 SWAP4 DUP4 DUP12 SWAP10 SWAP7 LT PUSH2 0xA72 JUMPI JUMPDEST POP POP POP DUP2 SHL ADD SWAP1 SSTORE PUSH2 0x99C JUMP JUMPDEST ADD MLOAD PUSH1 0x0 NOT DUP4 DUP11 SHL PUSH1 0xF8 AND SHR NOT AND SWAP1 SSTORE DUP13 DUP1 DUP1 PUSH2 0xA65 JUMP JUMPDEST SWAP3 SWAP4 PUSH1 0x20 PUSH1 0x1 DUP2 SWAP3 DUP8 DUP7 ADD MLOAD DUP2 SSTORE ADD SWAP6 ADD SWAP4 ADD PUSH2 0xA40 JUMP JUMPDEST PUSH4 0x4E487B71 PUSH1 0xE0 SHL PUSH1 0x0 MSTORE PUSH1 0x41 PUSH1 0x4 MSTORE PUSH1 0x24 PUSH1 0x0 REVERT JUMPDEST PUSH4 0x4E487B71 PUSH1 0xE0 SHL PUSH1 0x0 MSTORE PUSH1 0x0 PUSH1 0x4 MSTORE PUSH1 0x24 PUSH1 0x0 REVERT JUMPDEST PUSH3 0x540C03 PUSH1 0xE1 SHL PUSH1 0x0 MSTORE PUSH1 0x4 PUSH1 0x0 REVERT JUMPDEST PUSH1 0x20 PUSH1 0x24 SWAP2 PUSH1 0x40 MLOAD SWAP3 DUP4 DUP1 SWAP3 PUSH4 0xF5664E7 PUSH1 0xE3 SHL DUP3 MSTORE CALLER PUSH1 0x4 DUP4 ADD MSTORE GAS STATICCALL SWAP1 DUP2 ISZERO PUSH2 0x614 JUMPI PUSH1 0x0 SWAP2 PUSH2 0xB31 JUMPI JUMPDEST POP PUSH1 0x1 PUSH1 0x1 PUSH1 0xA0 SHL SUB AND ISZERO PUSH2 0xB20 JUMPI DUP4 PUSH2 0x860 JUMP JUMPDEST PUSH4 0x38323869 PUSH1 0xE1 SHL PUSH1 0x0 MSTORE PUSH1 0x4 PUSH1 0x0 REVERT JUMPDEST PUSH1 0x20 DUP2 RETURNDATASIZE PUSH1 0x20 GT PUSH2 0xB72 JUMPI JUMPDEST DUP2 PUSH2 0xB4A PUSH1 0x20 SWAP4 DUP4 PUSH2 0x27E2 JUMP JUMPDEST DUP2 ADD SUB SLT PUSH2 0xB6E JUMPI MLOAD SWAP1 PUSH1 0x1 PUSH1 0x1 PUSH1 0xA0 SHL SUB DUP3 AND DUP3 SUB PUSH2 0xB6B JUMPI POP DUP5 PUSH2 0xB0B JUMP JUMPDEST DUP1 REVERT JUMPDEST POP DUP1 REVERT JUMPDEST RETURNDATASIZE SWAP2 POP PUSH2 0xB3D JUMP JUMPDEST PUSH4 0xD0404F85 PUSH1 0xE0 SHL PUSH1 0x0 MSTORE PUSH1 0x4 PUSH1 0x0 REVERT JUMPDEST SWAP1 POP TIMESTAMP LT ISZERO DUP5 PUSH2 0x849 JUMP JUMPDEST PUSH4 0x1BB5F5B3 PUSH1 0xE3 SHL PUSH1 0x0 MSTORE PUSH1 0x4 PUSH1 0x0 REVERT JUMPDEST CALLVALUE PUSH2 0x291 JUMPI PUSH1 0x40 CALLDATASIZE PUSH1 0x3 NOT ADD SLT PUSH2 0x291 JUMPI PUSH1 0x4 CALLDATALOAD PUSH2 0xBC3 PUSH2 0x28F5 JUMP JUMPDEST DUP2 PUSH1 0x0 MSTORE PUSH1 0xE PUSH1 0x20 MSTORE PUSH1 0x40 PUSH1 0x0 KECCAK256 SWAP1 PUSH1 0x1 DUP1 PUSH1 0xA0 SHL SUB AND PUSH1 0x0 MSTORE PUSH1 0x20 MSTORE PUSH1 0x40 PUSH1 0x0 KECCAK256 SLOAD SWAP1 DUP2 ISZERO PUSH2 0x3D5 JUMPI PUSH1 0x0 MSTORE PUSH1 0xD PUSH1 0x20 MSTORE PUSH1 0x40 PUSH1 0x0 KECCAK256 PUSH1 0x0 NOT DUP3 ADD SWAP2 DUP3 GT PUSH2 0x3BF JUMPI PUSH1 0x1 PUSH1 0x1 PUSH1 0x40 SHL SUB SWAP2 PUSH2 0xC18 SWAP2 PUSH2 0x2CC7 JUMP JUMPDEST POP DUP1 SLOAD SWAP1 PUSH1 0x2 DUP2 ADD SLOAD SWAP1 PUSH2 0xC64 PUSH2 0xC38 PUSH1 0x1 DUP7 PUSH1 0x3 DUP6 ADD SLOAD AND SWAP4 ADD PUSH2 0x2803 JUMP JUMPDEST PUSH1 0x40 DUP1 MLOAD PUSH1 0x1 PUSH1 0x1 PUSH1 0xA0 SHL SUB DUP8 AND DUP2 MSTORE PUSH1 0xA0 SWAP7 DUP8 SHR SWAP1 SWAP8 AND PUSH1 0x20 DUP9 ADD MSTORE DUP7 ADD DUP6 SWAP1 MSTORE DUP6 SWAP5 DUP6 ADD SWAP1 PUSH2 0x28A7 JUMP JUMPDEST SWAP2 PUSH1 0x60 DUP5 ADD MSTORE PUSH1 0x80 DUP4 ADD MSTORE SUB SWAP1 RETURN JUMPDEST CALLVALUE PUSH2 0x291 JUMPI PUSH1 0x60 CALLDATASIZE PUSH1 0x3 NOT ADD SLT PUSH2 0x291 JUMPI PUSH2 0xC95 PUSH1 0x44 CALLDATALOAD PUSH1 0x24 CALLDATALOAD PUSH1 0x4 CALLDATALOAD PUSH2 0x2CE3 JUMP JUMPDEST SWAP1 PUSH1 0x40 MLOAD SWAP2 DUP3 SWAP2 PUSH1 0x40 DUP4 ADD PUSH1 0x40 DUP5 MSTORE DUP2 MLOAD DUP1 SWAP2 MSTORE PUSH1 0x20 PUSH1 0x60 DUP6 ADD SWAP3 ADD SWAP1 PUSH1 0x0 JUMPDEST DUP2 DUP2 LT PUSH2 0xD07 JUMPI POP POP POP DUP3 DUP2 SUB PUSH1 0x20 DUP5 ADD MSTORE PUSH1 0x20 DUP1 DUP4 MLOAD SWAP3 DUP4 DUP2 MSTORE ADD SWAP3 ADD SWAP1 PUSH1 0x0 JUMPDEST DUP2 DUP2 LT PUSH2 0xCE5 JUMPI POP POP POP SUB SWAP1 RETURN JUMPDEST DUP3 MLOAD PUSH1 0x1 PUSH1 0x1 PUSH1 0x40 SHL SUB AND DUP5 MSTORE DUP6 SWAP5 POP PUSH1 0x20 SWAP4 DUP5 ADD SWAP4 SWAP1 SWAP3 ADD SWAP2 PUSH1 0x1 ADD PUSH2 0xCD7 JUMP JUMPDEST DUP3 MLOAD PUSH1 0x1 PUSH1 0x1 PUSH1 0xA0 SHL SUB AND DUP5 MSTORE DUP7 SWAP6 POP PUSH1 0x20 SWAP4 DUP5 ADD SWAP4 SWAP1 SWAP3 ADD SWAP2 PUSH1 0x1 ADD PUSH2 0xCB5 JUMP JUMPDEST CALLVALUE PUSH2 0x291 JUMPI PUSH1 0x20 CALLDATASIZE PUSH1 0x3 NOT ADD SLT PUSH2 0x291 JUMPI PUSH1 0x4 CALLDATALOAD PUSH1 0xFF PUSH1 0x0 SLOAD PUSH1 0xA0 SHR AND PUSH2 0x3F7 JUMPI CALLER PUSH1 0x0 MSTORE PUSH1 0x1 PUSH1 0x20 MSTORE PUSH1 0xFF PUSH1 0x40 PUSH1 0x0 KECCAK256 SLOAD AND ISZERO PUSH2 0xE13 JUMPI PUSH1 0x0 DUP2 DUP2 MSTORE PUSH1 0x7 PUSH1 0x20 MSTORE PUSH1 0x40 SWAP1 KECCAK256 DUP1 SLOAD SWAP1 SWAP2 SWAP1 PUSH1 0x1 PUSH1 0x1 PUSH1 0xA0 SHL SUB AND ISZERO PUSH2 0x569 JUMPI PUSH1 0x4 DUP3 ADD SWAP1 PUSH1 0xFF DUP3 SLOAD AND PUSH1 0x6 DUP2 LT ISZERO PUSH2 0x542 JUMPI PUSH1 0x2 SUB PUSH2 0x3F7 JUMPI DUP2 SLOAD PUSH1 0xFF NOT AND PUSH1 0x4 OR DUP3 SSTORE PUSH1 0x6 DUP4 ADD DUP1 SLOAD PUSH8 0xFFFFFFFFFFFFFFFF NOT AND TIMESTAMP PUSH1 0x1 PUSH1 0x1 PUSH1 0x40 SHL SUB AND OR SWAP1 SSTORE DUP3 SLOAD SWAP2 SLOAD PUSH1 0x5 SWAP1 SWAP4 ADD SLOAD PUSH1 0x40 MLOAD PUSH1 0x1 PUSH1 0x1 PUSH1 0xA0 SHL SUB SWAP2 DUP3 AND DUP2 MSTORE PUSH1 0x8 SWAP5 SWAP1 SWAP5 SHR DUP2 AND SWAP4 SWAP3 AND SWAP2 PUSH32 0x74FD40586A68E670C4541FB4B871F9B85AF2929DBE255702E111E588FF4B2A8 SWAP1 PUSH1 0x20 SWAP1 LOG4 STOP JUMPDEST PUSH4 0x9270EBD PUSH1 0xE1 SHL PUSH1 0x0 MSTORE PUSH1 0x4 PUSH1 0x0 REVERT JUMPDEST CALLVALUE PUSH2 0x291 JUMPI PUSH1 0x20 CALLDATASIZE PUSH1 0x3 NOT ADD SLT PUSH2 0x291 JUMPI PUSH1 0x4 CALLDATALOAD PUSH1 0x0 SWAP1 DUP2 MSTORE PUSH1 0x7 PUSH1 0x20 MSTORE PUSH1 0x40 SWAP1 KECCAK256 DUP1 SLOAD PUSH1 0x1 PUSH1 0x1 PUSH1 0xA0 SHL SUB AND DUP1 ISZERO PUSH2 0x569 JUMPI PUSH1 0x3 DUP3 ADD SLOAD SWAP2 PUSH1 0x4 DUP2 ADD SLOAD PUSH1 0x5 DUP3 ADD SLOAD SWAP2 PUSH1 0x6 DUP2 ADD SLOAD PUSH1 0x7 DUP3 ADD SWAP4 PUSH1 0x8 DUP4 ADD SLOAD SWAP4 PUSH2 0xE90 PUSH1 0x2 PUSH2 0xE89 PUSH1 0x1 DUP8 ADD PUSH2 0x2803 JUMP JUMPDEST SWAP6 ADD PUSH2 0x2803 JUMP JUMPDEST PUSH1 0x40 MLOAD SWAP5 DUP6 PUSH1 0x20 DUP10 SLOAD SWAP2 DUP3 DUP2 MSTORE ADD SWAP1 DUP2 SWAP10 PUSH1 0x0 MSTORE PUSH1 0x20 PUSH1 0x0 KECCAK256 SWAP1 PUSH1 0x0 JUMPDEST DUP2 DUP2 LT PUSH2 0xF94 JUMPI POP POP POP SWAP3 PUSH2 0xF00 PUSH1 0x1 PUSH1 0x1 PUSH1 0x40 SHL SUB SWAP6 SWAP3 SWAP4 PUSH2 0xEF2 DUP8 SWAP6 PUSH2 0xEDB DUP12 PUSH1 0x20 SWAP13 SWAP12 SWAP10 SUB DUP12 PUSH2 0x27E2 JUMP JUMPDEST PUSH2 0x180 PUSH1 0x40 MLOAD SWAP15 DUP16 SWAP1 DUP2 MSTORE DUP2 DUP14 DUP3 ADD MSTORE ADD SWAP1 PUSH2 0x28A7 JUMP JUMPDEST DUP13 DUP2 SUB PUSH1 0x40 DUP15 ADD MSTORE SWAP1 PUSH2 0x28A7 JUMP JUMPDEST SWAP11 PUSH1 0x60 DUP12 ADD MSTORE PUSH2 0xF16 PUSH1 0x80 DUP12 ADD PUSH1 0xFF DUP4 AND PUSH2 0x28E8 JUMP JUMPDEST PUSH1 0x8 SHR PUSH1 0x1 PUSH1 0x1 PUSH1 0xA0 SHL SUB SWAP1 DUP2 AND PUSH1 0xA0 DUP12 DUP2 ADD SWAP2 SWAP1 SWAP2 MSTORE SWAP1 DUP3 AND PUSH1 0xC0 DUP12 ADD MSTORE SHR AND PUSH1 0xE0 DUP9 ADD MSTORE DUP1 DUP3 AND PUSH2 0x100 DUP9 ADD MSTORE PUSH1 0x40 SHR AND PUSH2 0x120 DUP7 ADD MSTORE DUP5 DUP7 SUB PUSH2 0x140 DUP7 ADD MSTORE MLOAD DUP1 DUP7 MSTORE PUSH1 0x0 SWAP6 SWAP2 SWAP1 SWAP2 ADD SWAP3 SWAP1 JUMPDEST DUP1 DUP7 LT PUSH2 0xF7C JUMPI POP POP DUP3 SWAP4 POP PUSH2 0x160 DUP4 ADD MSTORE SUB SWAP1 RETURN JUMPDEST SWAP1 SWAP3 PUSH1 0x20 DUP1 PUSH1 0x1 SWAP3 DUP7 MLOAD DUP2 MSTORE ADD SWAP5 ADD SWAP6 ADD SWAP5 SWAP1 PUSH2 0xF66 JUMP JUMPDEST DUP3 SLOAD DUP5 MSTORE PUSH1 0x20 SWAP1 SWAP4 ADD SWAP3 PUSH1 0x1 SWAP3 DUP4 ADD SWAP3 ADD PUSH2 0xEAD JUMP JUMPDEST CALLVALUE PUSH2 0x291 JUMPI PUSH1 0x20 CALLDATASIZE PUSH1 0x3 NOT ADD SLT PUSH2 0x291 JUMPI PUSH1 0x1 PUSH1 0x1 PUSH1 0xA0 SHL SUB PUSH2 0xFCB PUSH2 0x290B JUMP JUMPDEST AND PUSH1 0x0 MSTORE PUSH1 0xF PUSH1 0x20 MSTORE PUSH1 0x40 PUSH1 0x0 KECCAK256 PUSH1 0x40 MLOAD SWAP1 DUP2 PUSH1 0x20 DUP3 SLOAD SWAP2 DUP3 DUP2 MSTORE ADD SWAP2 PUSH1 0x0 MSTORE PUSH1 0x20 PUSH1 0x0 KECCAK256 SWAP1 PUSH1 0x0 JUMPDEST DUP2 DUP2 LT PUSH2 0x100B JUMPI PUSH2 0x68D DUP6 PUSH2 0x681 DUP2 DUP8 SUB DUP3 PUSH2 0x27E2 JUMP JUMPDEST DUP3 SLOAD DUP5 MSTORE PUSH1 0x20 SWAP1 SWAP4 ADD SWAP3 PUSH1 0x1 SWAP3 DUP4 ADD SWAP3 ADD PUSH2 0xFF4 JUMP JUMPDEST CALLVALUE PUSH2 0x291 JUMPI PUSH1 0x60 CALLDATASIZE PUSH1 0x3 NOT ADD SLT PUSH2 0x291 JUMPI PUSH2 0x68D PUSH2 0x681 PUSH2 0x1040 PUSH2 0x290B JUMP JUMPDEST PUSH1 0x44 CALLDATALOAD SWAP1 PUSH1 0x24 CALLDATALOAD SWAP1 PUSH2 0x2C08 JUMP JUMPDEST CALLVALUE PUSH2 0x291 JUMPI PUSH1 0x20 CALLDATASIZE PUSH1 0x3 NOT ADD SLT PUSH2 0x291 JUMPI PUSH2 0x1066 PUSH2 0x290B JUMP JUMPDEST PUSH1 0x0 SLOAD PUSH1 0x1 PUSH1 0x1 PUSH1 0xA0 SHL SUB AND CALLER SUB PUSH2 0x280 JUMPI PUSH1 0x1 PUSH1 0x1 PUSH1 0xA0 SHL SUB DUP2 AND SWAP1 DUP2 ISZERO PUSH2 0x26F JUMPI PUSH1 0x2 DUP1 SLOAD PUSH2 0x100 PUSH1 0x1 PUSH1 0xA8 SHL SUB NOT AND PUSH1 0x8 SWAP3 SWAP1 SWAP3 SHL PUSH2 0x100 PUSH1 0x1 PUSH1 0xA8 SHL SUB AND SWAP2 SWAP1 SWAP2 OR SWAP1 SSTORE PUSH32 0x4A13891118F8DBA1996F8EAC118F83BB98E645807A9B9CECF6BC6D014048E7E3 PUSH1 0x0 DUP1 LOG2 STOP JUMPDEST CALLVALUE PUSH2 0x291 JUMPI PUSH1 0x0 CALLDATASIZE PUSH1 0x3 NOT ADD SLT PUSH2 0x291 JUMPI PUSH1 0x20 PUSH1 0x6 SLOAD PUSH1 0x40 MLOAD SWAP1 DUP2 MSTORE RETURN JUMPDEST CALLVALUE PUSH2 0x291 JUMPI PUSH1 0x20 CALLDATASIZE PUSH1 0x3 NOT ADD SLT PUSH2 0x291 JUMPI PUSH1 0x1 PUSH1 0x1 PUSH1 0xA0 SHL SUB PUSH2 0x1114 PUSH2 0x290B JUMP JUMPDEST AND PUSH1 0x0 MSTORE PUSH1 0x4 PUSH1 0x20 MSTORE PUSH1 0x20 PUSH1 0xFF PUSH1 0x40 PUSH1 0x0 KECCAK256 SLOAD AND PUSH1 0x40 MLOAD SWAP1 ISZERO ISZERO DUP2 MSTORE RETURN JUMPDEST CALLVALUE PUSH2 0x291 JUMPI PUSH1 0x20 CALLDATASIZE PUSH1 0x3 NOT ADD SLT PUSH2 0x291 JUMPI PUSH1 0x4 CALLDATALOAD PUSH1 0xFF PUSH1 0x0 SLOAD PUSH1 0xA0 SHR AND PUSH2 0x3F7 JUMPI PUSH1 0x1 PUSH1 0xB SLOAD SUB PUSH2 0x3E6 JUMPI PUSH1 0x2 PUSH1 0xB SSTORE PUSH1 0x20 SWAP1 PUSH1 0x40 MLOAD PUSH2 0x1172 DUP4 DUP3 PUSH2 0x27E2 JUMP JUMPDEST PUSH1 0x0 DUP1 DUP3 MSTORE DUP3 DUP2 MSTORE PUSH1 0x7 DUP5 MSTORE PUSH1 0x40 SWAP1 KECCAK256 DUP1 SLOAD PUSH1 0x1 PUSH1 0x1 PUSH1 0xA0 SHL SUB AND ISZERO PUSH2 0x569 JUMPI PUSH1 0xFF PUSH1 0x4 DUP3 ADD SLOAD AND PUSH1 0x6 DUP2 LT ISZERO PUSH2 0x542 JUMPI PUSH1 0x1 SUB PUSH2 0xB96 JUMPI PUSH1 0x6 ADD SLOAD PUSH1 0x40 SHR PUSH1 0x1 PUSH1 0x1 PUSH1 0x40 SHL SUB AND DUP1 ISZERO ISZERO SWAP1 DUP2 PUSH2 0x149A JUMPI JUMPDEST POP PUSH2 0xB7A JUMPI PUSH1 0xC SLOAD PUSH1 0x1 PUSH1 0x1 PUSH1 0xA0 SHL SUB AND DUP4 DUP2 PUSH2 0x141B JUMPI JUMPDEST POP POP PUSH1 0x0 DUP3 DUP2 MSTORE PUSH1 0xE DUP5 MSTORE PUSH1 0x40 DUP1 DUP3 KECCAK256 CALLER DUP4 MSTORE DUP6 MSTORE SWAP1 KECCAK256 SLOAD PUSH2 0xACE JUMPI PUSH1 0x1 PUSH1 0x1 PUSH1 0x40 SHL SUB TIMESTAMP AND SWAP3 DUP3 PUSH1 0x0 MSTORE PUSH1 0xD DUP2 MSTORE PUSH1 0x40 PUSH1 0x0 KECCAK256 SLOAD SWAP2 DUP4 PUSH1 0x0 MSTORE PUSH1 0xD DUP3 MSTORE PUSH1 0x40 PUSH1 0x0 KECCAK256 PUSH1 0x40 MLOAD SWAP2 PUSH2 0x122C DUP4 PUSH2 0x27C7 JUMP JUMPDEST CALLER DUP4 MSTORE DUP4 DUP4 ADD SWAP1 DUP8 DUP3 MSTORE PUSH1 0x40 DUP5 ADD SWAP1 DUP2 MSTORE PUSH1 0x60 DUP5 ADD SWAP2 PUSH1 0x0 DUP4 MSTORE PUSH1 0x80 DUP6 ADD SWAP4 PUSH1 0x0 DUP6 MSTORE DUP1 SLOAD PUSH1 0x1 PUSH1 0x40 SHL DUP2 LT ISZERO PUSH2 0xAA2 JUMPI PUSH2 0x126C SWAP2 PUSH1 0x1 DUP3 ADD DUP2 SSTORE PUSH2 0x2CC7 JUMP JUMPDEST SWAP6 SWAP1 SWAP6 PUSH2 0xAB8 JUMPI MLOAD DUP6 SLOAD SWAP2 MLOAD PUSH1 0x1 PUSH1 0x1 PUSH1 0xE0 SHL SUB NOT SWAP1 SWAP3 AND PUSH1 0x1 PUSH1 0x1 PUSH1 0xA0 SHL SUB SWAP2 SWAP1 SWAP2 AND OR PUSH1 0xA0 SWAP2 SWAP1 SWAP2 SHL PUSH8 0xFFFFFFFFFFFFFFFF PUSH1 0xA0 SHL AND OR DUP5 SSTORE MLOAD DUP1 MLOAD PUSH1 0x1 DUP6 ADD SWAP2 PUSH1 0x1 PUSH1 0x1 PUSH1 0x40 SHL SUB DUP3 GT PUSH2 0xAA2 JUMPI PUSH2 0x12CB DUP3 PUSH2 0x953 DUP6 SLOAD PUSH2 0x278D JUMP JUMPDEST DUP7 SWAP1 PUSH1 0x1F DUP4 GT PUSH1 0x1 EQ PUSH2 0x13A6 JUMPI SWAP3 PUSH2 0x1309 DUP4 PUSH1 0x1 PUSH1 0x1 PUSH1 0x40 SHL SUB SWAP8 SWAP5 PUSH1 0x3 SWAP8 SWAP5 DUP10 SWAP8 PUSH1 0x0 SWAP3 PUSH2 0x139B JUMPI POP POP DUP2 PUSH1 0x1 SHL SWAP2 PUSH1 0x0 NOT SWAP1 PUSH1 0x3 SHL SHR NOT AND OR SWAP1 JUMP JUMPDEST SWAP1 SSTORE JUMPDEST MLOAD PUSH1 0x2 DUP7 ADD SSTORE MLOAD AND SWAP3 ADD SWAP2 AND PUSH1 0x1 PUSH1 0x1 PUSH1 0x40 SHL SUB NOT DUP3 SLOAD AND OR SWAP1 SSTORE PUSH1 0x1 DUP3 ADD DUP1 SWAP3 GT PUSH2 0x3BF JUMPI PUSH32 0xFFCE64A4A888E2ECA6ED6B5E083B220B5F57250B9C0C7BADB33012F1607A0847 SWAP2 DUP4 PUSH1 0x0 MSTORE PUSH1 0xE DUP3 MSTORE PUSH1 0x40 PUSH1 0x0 KECCAK256 PUSH1 0x1 DUP1 PUSH1 0xA0 SHL SUB CALLER AND PUSH1 0x0 MSTORE DUP3 MSTORE PUSH1 0x40 PUSH1 0x0 KECCAK256 SSTORE CALLER PUSH1 0x0 MSTORE PUSH1 0xF DUP2 MSTORE PUSH2 0x138B DUP4 PUSH1 0x40 PUSH1 0x0 KECCAK256 PUSH2 0x2BB4 JUMP JUMPDEST PUSH1 0x40 MLOAD SWAP4 DUP5 MSTORE CALLER SWAP4 LOG3 PUSH1 0x1 PUSH1 0xB SSTORE STOP JUMPDEST ADD MLOAD SWAP1 POP DUP15 DUP1 PUSH2 0x984 JUMP JUMPDEST SWAP1 PUSH1 0x1F NOT DUP4 AND SWAP2 DUP5 PUSH1 0x0 MSTORE DUP9 PUSH1 0x0 KECCAK256 SWAP3 PUSH1 0x0 JUMPDEST DUP11 DUP3 DUP3 LT PUSH2 0x1405 JUMPI POP POP SWAP4 PUSH1 0x3 SWAP7 SWAP4 PUSH1 0x1 PUSH1 0x1 PUSH1 0x40 SHL SUB SWAP9 SWAP6 SWAP4 PUSH1 0x1 SWAP4 DUP4 DUP12 SWAP10 SWAP7 LT PUSH2 0x13ED JUMPI JUMPDEST POP POP POP DUP2 SHL ADD SWAP1 SSTORE PUSH2 0x130C JUMP JUMPDEST ADD MLOAD PUSH1 0x0 NOT DUP4 DUP11 SHL PUSH1 0xF8 AND SHR NOT AND SWAP1 SSTORE DUP14 DUP1 DUP1 PUSH2 0x13E0 JUMP JUMPDEST PUSH1 0x1 DUP6 SWAP7 DUP3 SWAP4 SWAP7 DUP7 ADD MLOAD DUP2 SSTORE ADD SWAP6 ADD SWAP4 ADD PUSH2 0x13B9 JUMP JUMPDEST PUSH1 0x40 MLOAD PUSH4 0xF5664E7 PUSH1 0xE3 SHL DUP2 MSTORE CALLER PUSH1 0x4 DUP3 ADD MSTORE SWAP2 DUP3 SWAP1 PUSH1 0x24 SWAP1 DUP3 SWAP1 GAS STATICCALL SWAP1 DUP2 ISZERO PUSH2 0x614 JUMPI PUSH1 0x0 SWAP2 PUSH2 0x145D JUMPI JUMPDEST POP PUSH1 0x1 PUSH1 0x1 PUSH1 0xA0 SHL SUB AND ISZERO PUSH2 0xB20 JUMPI DUP4 DUP4 PUSH2 0x11DC JUMP JUMPDEST DUP5 DUP2 DUP2 RETURNDATASIZE DUP4 GT PUSH2 0x1493 JUMPI JUMPDEST PUSH2 0x1472 DUP2 DUP4 PUSH2 0x27E2 JUMP JUMPDEST DUP2 ADD SUB SLT PUSH2 0xB6E JUMPI MLOAD SWAP1 PUSH1 0x1 PUSH1 0x1 PUSH1 0xA0 SHL SUB DUP3 AND DUP3 SUB PUSH2 0xB6B JUMPI POP DUP5 PUSH2 0x1447 JUMP JUMPDEST POP RETURNDATASIZE PUSH2 0x1468 JUMP JUMPDEST SWAP1 POP TIMESTAMP LT ISZERO DUP5 PUSH2 0x11C4 JUMP JUMPDEST CALLVALUE PUSH2 0x291 JUMPI PUSH1 0x0 CALLDATASIZE PUSH1 0x3 NOT ADD SLT PUSH2 0x291 JUMPI PUSH1 0x0 SLOAD PUSH1 0x40 MLOAD PUSH1 0x1 PUSH1 0x1 PUSH1 0xA0 SHL SUB SWAP1 SWAP2 AND DUP2 MSTORE PUSH1 0x20 SWAP1 RETURN JUMPDEST CALLVALUE PUSH2 0x291 JUMPI PUSH1 0x20 CALLDATASIZE PUSH1 0x3 NOT ADD SLT PUSH2 0x291 JUMPI PUSH2 0x14E7 PUSH2 0x276F JUMP JUMPDEST PUSH1 0x0 SLOAD PUSH1 0x1 PUSH1 0x1 PUSH1 0xA0 SHL SUB AND CALLER SUB PUSH2 0x280 JUMPI PUSH1 0x20 PUSH32 0xE45EEBF975E8498157F15E4245144789293D518243944CE72E49418A0CFA5983 SWAP2 ISZERO ISZERO PUSH1 0xFF NOT PUSH1 0x5 SLOAD AND PUSH1 0xFF DUP3 AND OR PUSH1 0x5 SSTORE PUSH1 0x40 MLOAD SWAP1 DUP2 MSTORE LOG1 STOP JUMPDEST CALLVALUE PUSH2 0x291 JUMPI PUSH1 0x40 CALLDATASIZE PUSH1 0x3 NOT ADD SLT PUSH2 0x291 JUMPI PUSH1 0x4 CALLDATALOAD PUSH1 0xFF DUP2 AND DUP1 SWAP2 SUB PUSH2 0x291 JUMPI PUSH1 0x0 SLOAD PUSH1 0x24 CALLDATALOAD SWAP1 PUSH1 0x1 PUSH1 0x1 PUSH1 0xA0 SHL SUB AND CALLER SUB PUSH2 0x280 JUMPI PUSH1 0x2 DUP3 GT PUSH2 0x3F7 JUMPI PUSH1 0x3 DUP3 LT ISZERO PUSH2 0x542 JUMPI PUSH32 0x7D63308B92FA01D1151AB58553671D1B5ADE1D78731EB1B099F55AC41EA2464E SWAP2 PUSH1 0x40 SWAP2 DUP2 PUSH1 0xFF NOT PUSH1 0x2 SLOAD AND OR PUSH1 0x2 SSTORE DUP1 PUSH1 0x3 SSTORE DUP3 MLOAD SWAP2 DUP3 MSTORE PUSH1 0x20 DUP3 ADD MSTORE LOG1 STOP JUMPDEST CALLVALUE PUSH2 0x291 JUMPI PUSH1 0x40 CALLDATASIZE PUSH1 0x3 NOT ADD SLT PUSH2 0x291 JUMPI PUSH2 0x15D8 PUSH2 0x290B JUMP JUMPDEST PUSH2 0x15E0 PUSH2 0x277E JUMP JUMPDEST PUSH1 0x0 SLOAD SWAP1 SWAP2 SWAP1 PUSH1 0x1 PUSH1 0x1 PUSH1 0xA0 SHL SUB AND CALLER SUB PUSH2 0x280 JUMPI PUSH1 0x1 PUSH1 0x1 PUSH1 0xA0 SHL SUB AND SWAP1 DUP2 ISZERO PUSH2 0x26F JUMPI PUSH1 0x20 PUSH32 0x24C9A6B477FFF74DB04905DBC966242385B5B163A4ABD979698A56EA761371DB SWAP2 DUP4 PUSH1 0x0 MSTORE PUSH1 0x1 DUP3 MSTORE PUSH2 0x164B DUP2 PUSH1 0x40 PUSH1 0x0 KECCAK256 SWAP1 PUSH1 0xFF DUP1 NOT DUP4 SLOAD AND SWAP2 ISZERO ISZERO AND OR SWAP1 SSTORE JUMP JUMPDEST PUSH1 0x40 MLOAD SWAP1 ISZERO ISZERO DUP2 MSTORE LOG2 STOP JUMPDEST CALLVALUE PUSH2 0x291 JUMPI PUSH1 0xA0 CALLDATASIZE PUSH1 0x3 NOT ADD SLT PUSH2 0x291 JUMPI PUSH1 0x4 CALLDATALOAD PUSH1 0x1 PUSH1 0x1 PUSH1 0x40 SHL SUB DUP2 GT PUSH2 0x291 JUMPI PUSH2 0x1686 SWAP1 CALLDATASIZE SWAP1 PUSH1 0x4 ADD PUSH2 0x2921 JUMP JUMPDEST SWAP1 PUSH1 0x24 CALLDATALOAD PUSH1 0x1 PUSH1 0x1 PUSH1 0x40 SHL SUB DUP2 GT PUSH2 0x291 JUMPI PUSH2 0x16A6 SWAP1 CALLDATASIZE SWAP1 PUSH1 0x4 ADD PUSH2 0x2921 JUMP JUMPDEST SWAP1 SWAP3 PUSH1 0x44 CALLDATALOAD SWAP2 PUSH1 0x64 CALLDATALOAD PUSH1 0x1 PUSH1 0x1 PUSH1 0x40 SHL SUB DUP2 GT PUSH2 0x291 JUMPI PUSH2 0x16CB SWAP1 CALLDATASIZE SWAP1 PUSH1 0x4 ADD PUSH2 0x294E JUMP JUMPDEST SWAP5 SWAP1 SWAP4 PUSH1 0x84 CALLDATALOAD SWAP3 PUSH1 0x1 PUSH1 0x1 PUSH1 0x40 SHL SUB DUP5 AND SWAP6 DUP7 DUP6 SUB PUSH2 0x291 JUMPI PUSH1 0xFF PUSH1 0x0 SLOAD PUSH1 0xA0 SHR AND PUSH2 0x3F7 JUMPI PUSH1 0x1 PUSH1 0xB SLOAD SUB PUSH2 0x3E6 JUMPI PUSH1 0x2 PUSH1 0xB SSTORE PUSH1 0x2 SLOAD SWAP7 PUSH1 0xFF DUP9 AND SWAP8 PUSH1 0x3 DUP10 LT ISZERO PUSH2 0x542 JUMPI PUSH1 0x2 DUP10 EQ DUP1 PUSH2 0x1B7F JUMPI JUMPDEST PUSH2 0x1B6E JUMPI PUSH1 0x1 PUSH1 0x0 SWAP10 EQ PUSH2 0x1ABB JUMPI JUMPDEST POP PUSH1 0x5 DUP10 GT PUSH2 0x1AAA JUMPI DUP1 ISZERO ISZERO SWAP1 DUP2 PUSH2 0x1A9F JUMPI JUMPDEST POP PUSH2 0x3F7 JUMPI PUSH1 0x6 SLOAD SWAP8 PUSH1 0x0 NOT DUP10 EQ PUSH2 0x3BF JUMPI PUSH1 0x1 DUP10 DUP2 ADD PUSH1 0x6 SSTORE PUSH1 0x0 DUP11 DUP2 MSTORE PUSH1 0x7 PUSH1 0x20 MSTORE PUSH1 0x40 SWAP1 KECCAK256 DUP1 SLOAD PUSH1 0x1 PUSH1 0x1 PUSH1 0xA0 SHL SUB NOT AND CALLER OR DUP2 SSTORE SWAP9 SWAP1 DUP10 ADD PUSH1 0x1 PUSH1 0x1 PUSH1 0x40 SHL SUB DUP10 GT PUSH2 0xAA2 JUMPI PUSH2 0x179C DUP10 PUSH2 0x1796 DUP4 SLOAD PUSH2 0x278D JUMP JUMPDEST DUP4 PUSH2 0x2A18 JUMP JUMPDEST PUSH1 0x0 DUP10 PUSH1 0x1F DUP2 GT PUSH1 0x1 EQ PUSH2 0x1A3B JUMPI DUP1 PUSH2 0x17CB SWAP3 PUSH1 0x0 SWAP2 PUSH2 0x1A30 JUMPI JUMPDEST POP DUP2 PUSH1 0x1 SHL SWAP2 PUSH1 0x0 NOT SWAP1 PUSH1 0x3 SHL SHR NOT AND OR SWAP1 JUMP JUMPDEST SWAP1 SSTORE JUMPDEST PUSH1 0x2 DUP10 ADD PUSH1 0x1 PUSH1 0x1 PUSH1 0x40 SHL SUB DUP6 GT PUSH2 0xAA2 JUMPI PUSH2 0x17EE DUP6 PUSH2 0x1796 DUP4 SLOAD PUSH2 0x278D JUMP JUMPDEST PUSH1 0x0 DUP6 DUP14 PUSH1 0x1F DUP3 GT PUSH1 0x1 EQ PUSH2 0x19C5 JUMPI PUSH2 0x181E SWAP3 PUSH1 0x0 SWAP2 DUP4 PUSH2 0x19BA JUMPI POP POP DUP2 PUSH1 0x1 SHL SWAP2 PUSH1 0x0 NOT SWAP1 PUSH1 0x3 SHL SHR NOT AND OR SWAP1 JUMP JUMPDEST SWAP1 SSTORE JUMPDEST PUSH1 0x3 DUP10 ADD DUP6 SWAP1 SSTORE PUSH1 0x4 DUP10 ADD DUP1 SLOAD PUSH1 0xFF NOT AND PUSH1 0x1 OR SWAP1 SSTORE PUSH1 0x5 DUP10 ADD DUP1 SLOAD PUSH8 0xFFFFFFFFFFFFFFFF PUSH1 0xA0 SHL NOT AND TIMESTAMP PUSH1 0xA0 DUP2 SWAP1 SHL PUSH8 0xFFFFFFFFFFFFFFFF PUSH1 0xA0 SHL AND SWAP2 SWAP1 SWAP2 OR SWAP1 SWAP2 SSTORE PUSH1 0x6 DUP11 ADD DUP1 SLOAD PUSH8 0xFFFFFFFFFFFFFFFF PUSH1 0x40 SHL PUSH1 0x40 DUP12 SWAP1 SHL AND PUSH1 0x1 PUSH1 0x1 PUSH1 0x40 SHL SUB SWAP1 SWAP4 AND PUSH1 0x1 PUSH1 0x1 PUSH1 0x80 SHL SUB NOT SWAP1 SWAP2 AND OR SWAP2 SWAP1 SWAP2 OR SWAP1 SSTORE PUSH1 0x8 DUP10 ADD SSTORE DUP1 PUSH2 0x1916 JUMPI JUMPDEST POP POP PUSH32 0x1E340188EF02ED93224295B9E0A03660720F89CFD12522E974A49B530E346E03 SWAP4 PUSH1 0x20 SWAP9 SWAP4 DUP9 SWAP7 SWAP4 PUSH2 0x1906 SWAP4 CALLER PUSH1 0x0 MSTORE PUSH1 0x8 DUP13 MSTORE PUSH2 0x18EB DUP10 PUSH1 0x40 PUSH1 0x0 KECCAK256 PUSH2 0x2BB4 JUMP JUMPDEST PUSH2 0x18F4 DUP10 PUSH2 0x2F6B JUMP JUMPDEST PUSH1 0x40 MLOAD SWAP7 DUP8 SWAP7 PUSH1 0x7 CALLER SWAP13 ADD SWAP5 DUP9 PUSH2 0x2B1A JUMP JUMPDEST SUB SWAP1 LOG3 PUSH1 0x1 PUSH1 0xB SSTORE PUSH1 0x40 MLOAD SWAP1 DUP2 MSTORE RETURN JUMPDEST PUSH2 0x191F DUP2 PUSH2 0x2AB7 JUMP JUMPDEST DUP1 MLOAD PUSH1 0x7 DUP11 ADD SWAP3 SWAP2 PUSH1 0x1 PUSH1 0x1 PUSH1 0x40 SHL SUB DUP3 GT PUSH2 0xAA2 JUMPI PUSH1 0x20 SWAP1 PUSH2 0x1942 DUP4 DUP7 PUSH2 0x2A5D JUMP JUMPDEST ADD DUP4 PUSH1 0x0 MSTORE PUSH1 0x20 PUSH1 0x0 KECCAK256 PUSH1 0x0 JUMPDEST DUP4 DUP2 LT PUSH2 0x19A6 JUMPI POP POP POP POP PUSH1 0x0 JUMPDEST DUP2 DUP2 LT PUSH2 0x196B JUMPI POP POP PUSH2 0x18A6 JUMP JUMPDEST DUP1 PUSH2 0x1979 PUSH1 0x1 SWAP3 DUP5 DUP8 PUSH2 0x2AE9 JUMP JUMPDEST CALLDATALOAD PUSH2 0x199E PUSH2 0x1987 DUP4 DUP8 PUSH2 0x29E9 JUMP JUMPDEST DUP2 SWAP4 SWAP2 SLOAD SWAP1 PUSH1 0x3 SHL SWAP2 DUP3 SHL SWAP2 PUSH1 0x0 NOT SWAP1 SHL NOT AND OR SWAP1 JUMP JUMPDEST SWAP1 SSTORE ADD PUSH2 0x195D JUMP JUMPDEST PUSH1 0x1 SWAP1 PUSH1 0x20 DUP5 MLOAD SWAP5 ADD SWAP4 DUP2 DUP5 ADD SSTORE ADD PUSH2 0x194F JUMP JUMPDEST ADD CALLDATALOAD SWAP1 POP DUP16 DUP16 PUSH2 0x984 JUMP JUMPDEST DUP4 DUP4 MSTORE PUSH1 0x20 DUP4 KECCAK256 SWAP3 SWAP1 SWAP2 POP DUP8 PUSH1 0x1F NOT DUP2 AND DUP3 JUMPDEST DUP2 DUP2 LT PUSH2 0x1A10 JUMPI POP LT PUSH2 0x19F6 JUMPI JUMPDEST POP POP POP PUSH1 0x1 DUP6 DUP2 SHL ADD SWAP1 SSTORE PUSH2 0x1821 JUMP JUMPDEST ADD CALLDATALOAD PUSH1 0x0 NOT PUSH1 0x3 DUP9 SWAP1 SHL PUSH1 0xF8 AND SHR NOT AND SWAP1 SSTORE DUP13 DUP13 DUP2 PUSH2 0x19E6 JUMP JUMPDEST SWAP4 PUSH1 0x20 SWAP3 POP DUP4 SWAP6 DUP4 SWAP3 SWAP5 PUSH1 0x1 SWAP3 ADD CALLDATALOAD DUP2 SSTORE ADD SWAP5 ADD SWAP3 ADD DUP16 SWAP3 SWAP2 DUP10 SWAP2 PUSH2 0x19D8 JUMP JUMPDEST SWAP1 POP DUP10 ADD CALLDATALOAD DUP16 PUSH2 0x17B7 JUMP JUMPDEST POP DUP2 DUP2 MSTORE PUSH1 0x20 DUP2 KECCAK256 SWAP1 DUP11 PUSH1 0x1F NOT DUP2 AND DUP3 JUMPDEST DUP12 DUP3 DUP3 LT PUSH2 0x1A85 JUMPI POP POP LT PUSH2 0x1A6B JUMPI JUMPDEST POP POP PUSH1 0x1 DUP10 DUP2 SHL ADD SWAP1 SSTORE PUSH2 0x17CE JUMP JUMPDEST DUP9 ADD CALLDATALOAD PUSH1 0x0 NOT PUSH1 0x3 DUP13 SWAP1 SHL PUSH1 0xF8 AND SHR NOT AND SWAP1 SSTORE DUP13 DUP1 PUSH2 0x1A5C JUMP JUMPDEST DUP5 ADD CALLDATALOAD DUP6 SSTORE PUSH1 0x1 SWAP1 SWAP5 ADD SWAP4 PUSH1 0x20 SWAP4 DUP5 ADD SWAP4 DUP15 SWAP4 POP ADD PUSH2 0x1A4C JUMP JUMPDEST SWAP1 POP TIMESTAMP LT ISZERO DUP11 PUSH2 0x173E JUMP JUMPDEST PUSH4 0xEE39E855 PUSH1 0xE0 SHL PUSH1 0x0 MSTORE PUSH1 0x4 PUSH1 0x0 REVERT JUMPDEST PUSH1 0x8 SHR PUSH1 0x1 PUSH1 0x1 PUSH1 0xA0 SHL SUB AND DUP1 ISZERO PUSH2 0x1B5F JUMPI PUSH1 0x3 SLOAD SWAP9 DUP10 ISZERO PUSH2 0x1B50 JUMPI POP PUSH1 0x20 PUSH1 0x0 SWAP2 PUSH1 0x64 DUP12 PUSH1 0x40 MLOAD SWAP5 DUP6 SWAP4 DUP5 SWAP3 PUSH4 0x23B872DD PUSH1 0xE0 SHL DUP5 MSTORE CALLER PUSH1 0x4 DUP6 ADD MSTORE ADDRESS PUSH1 0x24 DUP6 ADD MSTORE PUSH1 0x44 DUP5 ADD MSTORE GAS CALL SWAP1 DUP2 ISZERO PUSH2 0x614 JUMPI PUSH1 0x0 SWAP2 PUSH2 0x1B31 JUMPI JUMPDEST POP ISZERO PUSH2 0x1B20 JUMPI DUP11 PUSH2 0x172B JUMP JUMPDEST PUSH4 0x501C2AAF PUSH1 0xE0 SHL PUSH1 0x0 MSTORE PUSH1 0x4 PUSH1 0x0 REVERT JUMPDEST PUSH2 0x1B4A SWAP2 POP PUSH1 0x20 RETURNDATASIZE PUSH1 0x20 GT PUSH2 0x60D JUMPI PUSH2 0x603 DUP2 DUP4 PUSH2 0x27E2 JUMP JUMPDEST DUP12 PUSH2 0x1B14 JUMP JUMPDEST PUSH4 0x501C2AAF PUSH1 0xE0 SHL DUP2 MSTORE PUSH1 0x4 SWAP1 REVERT JUMPDEST PUSH4 0xE92EEBEF PUSH1 0xE0 SHL DUP10 MSTORE PUSH1 0x4 DUP10 REVERT JUMPDEST PUSH4 0x3B529A97 PUSH1 0xE1 SHL PUSH1 0x0 MSTORE PUSH1 0x4 PUSH1 0x0 REVERT JUMPDEST POP CALLER PUSH1 0x0 MSTORE PUSH1 0x4 PUSH1 0x20 MSTORE PUSH1 0xFF PUSH1 0x40 PUSH1 0x0 KECCAK256 SLOAD AND ISZERO PUSH2 0x171C JUMP JUMPDEST CALLVALUE PUSH2 0x291 JUMPI PUSH1 0x0 CALLDATASIZE PUSH1 0x3 NOT ADD SLT PUSH2 0x291 JUMPI PUSH1 0x20 PUSH1 0xFF PUSH1 0x0 SLOAD PUSH1 0xA0 SHR AND PUSH1 0x40 MLOAD SWAP1 ISZERO ISZERO DUP2 MSTORE RETURN JUMPDEST CALLVALUE PUSH2 0x291 JUMPI PUSH1 0x0 CALLDATASIZE PUSH1 0x3 NOT ADD SLT PUSH2 0x291 JUMPI PUSH1 0xFF PUSH1 0x2 SLOAD AND PUSH1 0x40 MLOAD PUSH1 0x3 DUP3 LT ISZERO PUSH2 0x542 JUMPI PUSH1 0x20 SWAP2 DUP2 MSTORE RETURN JUMPDEST CALLVALUE PUSH2 0x291 JUMPI PUSH1 0x20 CALLDATASIZE PUSH1 0x3 NOT ADD SLT PUSH2 0x291 JUMPI PUSH2 0x1C01 PUSH2 0x276F JUMP JUMPDEST PUSH1 0x0 SLOAD PUSH1 0x1 PUSH1 0x1 PUSH1 0xA0 SHL SUB AND CALLER SUB PUSH2 0x280 JUMPI PUSH1 0x20 PUSH32 0xFCEDAD5B627DD7E8AA295BC0AFEB76597C18047112FA7D4AC4D131F0E250A3C2 SWAP2 ISZERO ISZERO PUSH1 0xC SLOAD PUSH1 0xFF PUSH1 0xA0 SHL DUP3 PUSH1 0xA0 SHL AND SWAP1 PUSH1 0xFF PUSH1 0xA0 SHL NOT AND OR PUSH1 0xC SSTORE PUSH1 0x40 MLOAD SWAP1 DUP2 MSTORE LOG1 STOP JUMPDEST CALLVALUE PUSH2 0x291 JUMPI PUSH1 0x20 CALLDATASIZE PUSH1 0x3 NOT ADD SLT PUSH2 0x291 JUMPI PUSH1 0x1 PUSH1 0x1 PUSH1 0xA0 SHL SUB PUSH2 0x1C7C PUSH2 0x290B JUMP JUMPDEST AND PUSH1 0x0 MSTORE PUSH1 0x8 PUSH1 0x20 MSTORE PUSH1 0x20 PUSH1 0x40 PUSH1 0x0 KECCAK256 SLOAD PUSH1 0x40 MLOAD SWAP1 DUP2 MSTORE RETURN JUMPDEST CALLVALUE PUSH2 0x291 JUMPI PUSH1 0x40 CALLDATASIZE PUSH1 0x3 NOT ADD SLT PUSH2 0x291 JUMPI PUSH2 0x1CAE PUSH2 0x290B JUMP JUMPDEST PUSH2 0x1CB6 PUSH2 0x277E JUMP JUMPDEST SWAP1 PUSH1 0x1 DUP1 PUSH1 0xA0 SHL SUB PUSH1 0x0 SLOAD AND CALLER EQ ISZERO DUP1 PUSH2 0x1D25 JUMPI JUMPDEST PUSH2 0xE13 JUMPI PUSH1 0x1 PUSH1 0x1 PUSH1 0xA0 SHL SUB AND SWAP1 DUP2 ISZERO PUSH2 0x26F JUMPI PUSH1 0x20 PUSH32 0x97B4072981AD9B2269406FF8CC9D70C26AFD27CEA67B75E2573B8710A5E880C9 SWAP2 DUP4 PUSH1 0x0 MSTORE PUSH1 0x4 DUP3 MSTORE PUSH2 0x164B DUP2 PUSH1 0x40 PUSH1 0x0 KECCAK256 SWAP1 PUSH1 0xFF DUP1 NOT DUP4 SLOAD AND SWAP2 ISZERO ISZERO AND OR SWAP1 SSTORE JUMP JUMPDEST POP CALLER PUSH1 0x0 MSTORE PUSH1 0x1 PUSH1 0x20 MSTORE PUSH1 0xFF PUSH1 0x40 PUSH1 0x0 KECCAK256 SLOAD AND ISZERO PUSH2 0x1CCB JUMP JUMPDEST CALLVALUE PUSH2 0x291 JUMPI PUSH1 0xC0 CALLDATASIZE PUSH1 0x3 NOT ADD SLT PUSH2 0x291 JUMPI PUSH1 0x4 CALLDATALOAD PUSH1 0x24 CALLDATALOAD PUSH1 0x1 PUSH1 0x1 PUSH1 0x40 SHL SUB DUP2 GT PUSH2 0x291 JUMPI PUSH2 0x1D71 SWAP1 CALLDATASIZE SWAP1 PUSH1 0x4 ADD PUSH2 0x2921 JUMP JUMPDEST PUSH1 0x44 SWAP3 SWAP2 SWAP3 CALLDATALOAD PUSH1 0x1 PUSH1 0x1 PUSH1 0x40 SHL SUB DUP2 GT PUSH2 0x291 JUMPI PUSH2 0x1D93 SWAP1 CALLDATASIZE SWAP1 PUSH1 0x4 ADD PUSH2 0x2921 JUMP JUMPDEST PUSH1 0x64 SWAP5 SWAP2 SWAP5 CALLDATALOAD PUSH1 0x84 CALLDATALOAD PUSH1 0x1 PUSH1 0x1 PUSH1 0x40 SHL SUB DUP2 GT PUSH2 0x291 JUMPI PUSH2 0x1DB8 SWAP1 CALLDATASIZE SWAP1 PUSH1 0x4 ADD PUSH2 0x294E JUMP JUMPDEST SWAP3 SWAP1 SWAP7 PUSH1 0xA4 CALLDATALOAD SWAP8 PUSH1 0x1 PUSH1 0x1 PUSH1 0x40 SHL SUB DUP10 AND DUP1 DUP11 SUB PUSH2 0x291 JUMPI PUSH1 0xFF PUSH1 0x0 SLOAD PUSH1 0xA0 SHR AND PUSH2 0x3F7 JUMPI PUSH1 0x0 DUP10 DUP2 MSTORE PUSH1 0x7 PUSH1 0x20 MSTORE PUSH1 0x40 SWAP1 KECCAK256 SLOAD PUSH1 0x1 PUSH1 0x1 PUSH1 0xA0 SHL SUB AND DUP1 ISZERO PUSH2 0x569 JUMPI CALLER SUB PUSH2 0x558 JUMPI DUP9 PUSH1 0x0 MSTORE PUSH1 0x7 PUSH1 0x20 MSTORE PUSH1 0x40 PUSH1 0x0 KECCAK256 SWAP1 PUSH1 0xFF PUSH1 0x4 DUP4 ADD SLOAD AND PUSH1 0x6 DUP2 LT ISZERO PUSH2 0x542 JUMPI PUSH1 0x1 SUB PUSH2 0xB96 JUMPI PUSH1 0x5 DUP8 GT PUSH2 0x1AAA JUMPI DUP1 ISZERO ISZERO SWAP1 DUP2 PUSH2 0x2105 JUMPI JUMPDEST POP PUSH2 0x3F7 JUMPI PUSH1 0x1 DUP2 ADD PUSH1 0x1 PUSH1 0x1 PUSH1 0x40 SHL SUB DUP10 GT PUSH2 0xAA2 JUMPI PUSH2 0x1E5F DUP10 PUSH2 0x1796 DUP4 SLOAD PUSH2 0x278D JUMP JUMPDEST PUSH1 0x0 DUP10 PUSH1 0x1F DUP2 GT PUSH1 0x1 EQ PUSH2 0x20A1 JUMPI DUP1 PUSH2 0x1E8D SWAP3 PUSH1 0x0 SWAP2 PUSH2 0x2096 JUMPI POP DUP2 PUSH1 0x1 SHL SWAP2 PUSH1 0x0 NOT SWAP1 PUSH1 0x3 SHL SHR NOT AND OR SWAP1 JUMP JUMPDEST SWAP1 SSTORE JUMPDEST PUSH1 0x2 DUP2 ADD SWAP1 PUSH1 0x1 PUSH1 0x1 PUSH1 0x40 SHL SUB DUP6 GT PUSH2 0xAA2 JUMPI PUSH2 0x1EB7 DUP6 PUSH2 0x1EB1 DUP5 SLOAD PUSH2 0x278D JUMP JUMPDEST DUP5 PUSH2 0x2A18 JUMP JUMPDEST PUSH1 0x0 SWAP2 DUP6 PUSH1 0x1F DUP2 GT PUSH1 0x1 EQ PUSH2 0x202E JUMPI DUP1 PUSH2 0x1EE9 SWAP2 PUSH1 0x7 SWAP6 PUSH1 0x0 SWAP2 PUSH2 0x2023 JUMPI POP DUP2 PUSH1 0x1 SHL SWAP2 PUSH1 0x0 NOT SWAP1 PUSH1 0x3 SHL SHR NOT AND OR SWAP1 JUMP JUMPDEST SWAP1 SSTORE JUMPDEST PUSH1 0x3 DUP2 ADD DUP7 SWAP1 SSTORE PUSH1 0x6 DUP2 ADD DUP1 SLOAD PUSH1 0x1 PUSH1 0x1 PUSH1 0x80 SHL SUB NOT AND TIMESTAMP PUSH1 0x1 PUSH1 0x1 PUSH1 0x40 SHL SUB AND OR PUSH1 0x40 DUP14 SWAP1 SHL PUSH8 0xFFFFFFFFFFFFFFFF PUSH1 0x40 SHL AND OR SWAP1 SSTORE ADD SWAP5 DUP6 SLOAD PUSH1 0x0 DUP8 SSTORE DUP1 PUSH2 0x1FFC JUMPI JUMPDEST POP DUP1 PUSH2 0x1F75 JUMPI JUMPDEST POP POP SWAP2 PUSH2 0x1F70 SWAP4 SWAP2 PUSH32 0xF9CDEB830204E1E6135FB07822AAAC23761D75003D5DDE41BCB94FA818C1B521 SWAP8 SWAP9 SWAP4 PUSH1 0x40 MLOAD SWAP8 DUP9 SWAP8 DUP9 PUSH2 0x2B1A JUMP JUMPDEST SUB SWAP1 LOG2 STOP JUMPDEST PUSH2 0x1F7E DUP2 PUSH2 0x2AB7 JUMP JUMPDEST DUP1 MLOAD SWAP1 PUSH1 0x1 PUSH1 0x1 PUSH1 0x40 SHL SUB DUP3 GT PUSH2 0xAA2 JUMPI PUSH1 0x20 SWAP1 PUSH2 0x1F9C DUP4 DUP11 PUSH2 0x2A5D JUMP JUMPDEST ADD DUP8 PUSH1 0x0 MSTORE PUSH1 0x20 PUSH1 0x0 KECCAK256 PUSH1 0x0 JUMPDEST DUP4 DUP2 LT PUSH2 0x1FE8 JUMPI POP POP POP POP PUSH1 0x0 JUMPDEST DUP2 DUP2 LT PUSH2 0x1FC4 JUMPI POP PUSH2 0x1F38 JUMP JUMPDEST DUP1 PUSH2 0x1FD2 PUSH1 0x1 SWAP3 DUP5 DUP7 PUSH2 0x2AE9 JUMP JUMPDEST CALLDATALOAD PUSH2 0x1FE0 PUSH2 0x1987 DUP4 DUP12 PUSH2 0x29E9 JUMP JUMPDEST SWAP1 SSTORE ADD PUSH2 0x1FB7 JUMP JUMPDEST PUSH1 0x1 SWAP1 PUSH1 0x20 DUP5 MLOAD SWAP5 ADD SWAP4 DUP2 DUP5 ADD SSTORE ADD PUSH2 0x1FA9 JUMP JUMPDEST DUP7 PUSH1 0x0 MSTORE PUSH1 0x20 PUSH1 0x0 KECCAK256 SWAP1 DUP2 ADD SWAP1 JUMPDEST DUP2 DUP2 LT PUSH2 0x2017 JUMPI POP PUSH2 0x1F31 JUMP JUMPDEST PUSH1 0x0 DUP2 SSTORE PUSH1 0x1 ADD PUSH2 0x200A JUMP JUMPDEST SWAP1 POP DUP8 ADD CALLDATALOAD DUP16 PUSH2 0x17B7 JUMP JUMPDEST POP DUP1 DUP4 MSTORE PUSH1 0x20 DUP4 KECCAK256 DUP4 DUP8 PUSH1 0x1F NOT DUP2 AND JUMPDEST DUP1 DUP8 LT PUSH2 0x2078 JUMPI PUSH1 0x7 SWAP7 POP LT PUSH2 0x205E JUMPI JUMPDEST POP POP PUSH1 0x1 DUP7 DUP2 SHL ADD SWAP1 SSTORE PUSH2 0x1EEC JUMP JUMPDEST DUP7 ADD CALLDATALOAD PUSH1 0x0 NOT PUSH1 0x3 DUP10 SWAP1 SHL PUSH1 0xF8 AND SHR NOT AND SWAP1 SSTORE DUP13 DUP1 PUSH2 0x204F JUMP JUMPDEST DUP9 DUP4 ADD CALLDATALOAD DUP5 SSTORE PUSH1 0x20 SWAP7 DUP8 ADD SWAP7 PUSH1 0x1 SWAP1 SWAP5 ADD SWAP4 SWAP1 SWAP3 ADD SWAP2 DUP10 SWAP2 POP PUSH2 0x203E JUMP JUMPDEST SWAP1 POP DUP11 ADD CALLDATALOAD DUP15 PUSH2 0x17B7 JUMP JUMPDEST POP DUP2 DUP2 MSTORE PUSH1 0x20 DUP2 KECCAK256 SWAP1 DUP11 PUSH1 0x1F NOT DUP2 AND DUP3 JUMPDEST DUP13 DUP3 DUP3 LT PUSH2 0x20EB JUMPI POP POP LT PUSH2 0x20D1 JUMPI JUMPDEST POP POP PUSH1 0x1 DUP10 DUP2 SHL ADD SWAP1 SSTORE PUSH2 0x1E90 JUMP JUMPDEST DUP10 ADD CALLDATALOAD PUSH1 0x0 NOT PUSH1 0x3 DUP13 SWAP1 SHL PUSH1 0xF8 AND SHR NOT AND SWAP1 SSTORE DUP12 DUP1 PUSH2 0x20C2 JUMP JUMPDEST DUP5 ADD CALLDATALOAD DUP6 SSTORE PUSH1 0x1 SWAP1 SWAP5 ADD SWAP4 PUSH1 0x20 SWAP4 DUP5 ADD SWAP4 DUP15 SWAP4 POP ADD PUSH2 0x20B2 JUMP JUMPDEST SWAP1 POP TIMESTAMP LT ISZERO DUP12 PUSH2 0x1E3A JUMP JUMPDEST CALLVALUE PUSH2 0x291 JUMPI PUSH1 0x20 CALLDATASIZE PUSH1 0x3 NOT ADD SLT PUSH2 0x291 JUMPI PUSH2 0x2129 PUSH2 0x290B JUMP JUMPDEST PUSH1 0x0 SLOAD PUSH1 0x1 PUSH1 0x1 PUSH1 0xA0 SHL SUB AND CALLER SUB PUSH2 0x280 JUMPI PUSH1 0xC DUP1 SLOAD PUSH1 0x1 PUSH1 0x1 PUSH1 0xA0 SHL SUB NOT AND PUSH1 0x1 PUSH1 0x1 PUSH1 0xA0 SHL SUB SWAP3 SWAP1 SWAP3 AND SWAP2 DUP3 OR SWAP1 SSTORE PUSH32 0xF51D0449BF7D477688401EF33C6C6E576EC0A95E4E9337A86904163BB41C2673 PUSH1 0x0 DUP1 LOG2 STOP JUMPDEST CALLVALUE PUSH2 0x291 JUMPI PUSH1 0x20 CALLDATASIZE PUSH1 0x3 NOT ADD SLT PUSH2 0x291 JUMPI PUSH1 0x1 PUSH1 0x1 PUSH1 0xA0 SHL SUB PUSH2 0x21A2 PUSH2 0x290B JUMP JUMPDEST AND PUSH1 0x0 MSTORE PUSH1 0x1 PUSH1 0x20 MSTORE PUSH1 0x20 PUSH1 0xFF PUSH1 0x40 PUSH1 0x0 KECCAK256 SLOAD AND PUSH1 0x40 MLOAD SWAP1 ISZERO ISZERO DUP2 MSTORE RETURN JUMPDEST CALLVALUE PUSH2 0x291 JUMPI PUSH1 0x0 CALLDATASIZE PUSH1 0x3 NOT ADD SLT PUSH2 0x291 JUMPI PUSH1 0x20 PUSH1 0xFF PUSH1 0x5 SLOAD AND PUSH1 0x40 MLOAD SWAP1 ISZERO ISZERO DUP2 MSTORE RETURN JUMPDEST CALLVALUE PUSH2 0x291 JUMPI PUSH1 0x0 CALLDATASIZE PUSH1 0x3 NOT ADD SLT PUSH2 0x291 JUMPI PUSH1 0x2 SLOAD PUSH1 0x40 MLOAD PUSH1 0x8 SWAP2 SWAP1 SWAP2 SHR PUSH1 0x1 PUSH1 0x1 PUSH1 0xA0 SHL SUB AND DUP2 MSTORE PUSH1 0x20 SWAP1 RETURN JUMPDEST CALLVALUE PUSH2 0x291 JUMPI PUSH1 0x20 CALLDATASIZE PUSH1 0x3 NOT ADD SLT PUSH2 0x291 JUMPI PUSH1 0x4 CALLDATALOAD PUSH1 0x0 DUP2 DUP2 MSTORE PUSH1 0x7 PUSH1 0x20 MSTORE PUSH1 0x40 SWAP1 KECCAK256 DUP1 SLOAD PUSH1 0x1 PUSH1 0x1 PUSH1 0xA0 SHL SUB AND ISZERO PUSH2 0x569 JUMPI PUSH1 0x4 DUP2 ADD SWAP1 PUSH1 0xFF DUP3 SLOAD AND PUSH1 0x6 DUP2 LT ISZERO PUSH2 0x542 JUMPI PUSH1 0x1 SUB PUSH2 0xB96 JUMPI PUSH1 0x6 ADD PUSH1 0x1 PUSH1 0x1 PUSH1 0x40 SHL SUB DUP2 SLOAD PUSH1 0x40 SHR AND DUP1 ISZERO SWAP1 DUP2 ISZERO PUSH2 0x22D8 JUMPI JUMPDEST POP PUSH2 0xB7A JUMPI PUSH1 0x1 PUSH1 0x1 PUSH1 0x40 SHL SUB PUSH1 0x20 SWAP2 PUSH32 0xE77A20B7941129ACBB78A11F4D13C89EC2C9D5D36D21F0F7083E304C3E4338C9 SWAP4 PUSH1 0x5 PUSH1 0xFF NOT DUP3 SLOAD AND OR SWAP1 SSTORE DUP2 DUP1 TIMESTAMP AND AND DUP3 NOT DUP3 SLOAD AND OR DUP2 SSTORE PUSH2 0x22CA DUP6 PUSH2 0x2E2A JUMP JUMPDEST SLOAD PUSH1 0x40 SHR AND PUSH1 0x40 MLOAD SWAP1 DUP2 MSTORE LOG2 STOP JUMPDEST SWAP1 POP TIMESTAMP LT DUP5 PUSH2 0x2277 JUMP JUMPDEST CALLVALUE PUSH2 0x291 JUMPI PUSH1 0x0 CALLDATASIZE PUSH1 0x3 NOT ADD SLT PUSH2 0x291 JUMPI PUSH1 0x20 PUSH1 0x9 SLOAD PUSH1 0x40 MLOAD SWAP1 DUP2 MSTORE RETURN JUMPDEST CALLVALUE PUSH2 0x291 JUMPI PUSH1 0x60 CALLDATASIZE PUSH1 0x3 NOT ADD SLT PUSH2 0x291 JUMPI PUSH1 0x4 CALLDATALOAD PUSH2 0x231C PUSH2 0x28F5 JUMP JUMPDEST SWAP1 PUSH1 0x44 CALLDATALOAD PUSH1 0x1 PUSH1 0x1 PUSH1 0xA0 SHL SUB DUP2 AND SWAP2 SWAP1 DUP3 SWAP1 SUB PUSH2 0x291 JUMPI PUSH1 0xFF PUSH1 0x0 SLOAD PUSH1 0xA0 SHR AND PUSH2 0x3F7 JUMPI CALLER PUSH1 0x0 MSTORE PUSH1 0x1 PUSH1 0x20 MSTORE PUSH1 0xFF PUSH1 0x40 PUSH1 0x0 KECCAK256 SLOAD AND ISZERO PUSH2 0xE13 JUMPI PUSH1 0x1 PUSH1 0xB SLOAD SUB PUSH2 0x3E6 JUMPI PUSH1 0x2 PUSH1 0xB SSTORE PUSH1 0x1 PUSH1 0x1 PUSH1 0xA0 SHL SUB DUP4 AND SWAP3 DUP4 ISZERO DUP1 ISZERO PUSH2 0x24AA JUMPI JUMPDEST PUSH2 0x26F JUMPI PUSH1 0x0 DUP3 DUP2 MSTORE PUSH1 0x7 PUSH1 0x20 MSTORE PUSH1 0x40 SWAP1 KECCAK256 DUP1 SLOAD PUSH1 0x1 PUSH1 0x1 PUSH1 0xA0 SHL SUB AND ISZERO PUSH2 0x569 JUMPI PUSH1 0x4 DUP2 ADD SWAP2 PUSH1 0xFF DUP4 SLOAD AND PUSH1 0x6 DUP2 LT ISZERO PUSH2 0x542 JUMPI PUSH1 0x1 SUB PUSH2 0x2499 JUMPI PUSH1 0xFF PUSH1 0xC SLOAD PUSH1 0xA0 SHR AND PUSH2 0x2472 JUMPI JUMPDEST DUP3 SLOAD PUSH2 0x100 PUSH1 0x1 PUSH1 0xA8 SHL SUB NOT AND PUSH1 0x8 SWAP2 SWAP1 SWAP2 SHL PUSH2 0x100 PUSH1 0x1 PUSH1 0xA8 SHL SUB AND OR DUP3 SSTORE PUSH1 0x5 DUP2 ADD DUP1 SLOAD PUSH1 0x1 PUSH1 0x1 PUSH1 0xA0 SHL SUB NOT AND DUP6 OR SWAP1 SSTORE DUP2 SLOAD PUSH1 0xFF NOT AND PUSH1 0x2 OR SWAP1 SWAP2 SSTORE PUSH1 0x6 DUP2 ADD DUP1 SLOAD PUSH8 0xFFFFFFFFFFFFFFFF NOT AND TIMESTAMP PUSH1 0x1 PUSH1 0x1 PUSH1 0x40 SHL SUB AND OR SWAP1 SSTORE PUSH32 0x18D75305648A74597B581F82D18A431CB8A7DDBF7A7131CEB3E9E5343ED77089 SWAP1 PUSH1 0x20 SWAP1 PUSH2 0x2450 DUP5 PUSH2 0x2E2A JUMP JUMPDEST PUSH2 0x2459 DUP2 PUSH2 0x2EEC JUMP JUMPDEST SLOAD PUSH1 0x40 MLOAD SWAP5 DUP6 MSTORE PUSH1 0x1 PUSH1 0x1 PUSH1 0xA0 SHL SUB AND SWAP4 LOG4 PUSH1 0x1 PUSH1 0xB SSTORE STOP JUMPDEST SWAP1 DUP4 PUSH1 0x0 MSTORE PUSH1 0xE PUSH1 0x20 MSTORE PUSH1 0x40 PUSH1 0x0 KECCAK256 DUP7 PUSH1 0x0 MSTORE PUSH1 0x20 MSTORE PUSH1 0x40 PUSH1 0x0 KECCAK256 SLOAD ISZERO PUSH2 0x3D5 JUMPI SWAP1 PUSH2 0x23C4 JUMP JUMPDEST PUSH4 0x5E78C1E5 PUSH1 0xE0 SHL PUSH1 0x0 MSTORE PUSH1 0x4 PUSH1 0x0 REVERT JUMPDEST POP DUP3 ISZERO PUSH2 0x237A JUMP JUMPDEST CALLVALUE PUSH2 0x291 JUMPI PUSH1 0x0 CALLDATASIZE PUSH1 0x3 NOT ADD SLT PUSH2 0x291 JUMPI PUSH1 0x20 PUSH1 0xFF PUSH1 0xC SLOAD PUSH1 0xA0 SHR AND PUSH1 0x40 MLOAD SWAP1 ISZERO ISZERO DUP2 MSTORE RETURN JUMPDEST CALLVALUE PUSH2 0x291 JUMPI PUSH1 0x0 CALLDATASIZE PUSH1 0x3 NOT ADD SLT PUSH2 0x291 JUMPI PUSH1 0xC SLOAD PUSH1 0x40 MLOAD PUSH1 0x1 PUSH1 0x1 PUSH1 0xA0 SHL SUB SWAP1 SWAP2 AND DUP2 MSTORE PUSH1 0x20 SWAP1 RETURN JUMPDEST CALLVALUE PUSH2 0x291 JUMPI PUSH1 0x0 CALLDATASIZE PUSH1 0x3 NOT ADD SLT PUSH2 0x291 JUMPI PUSH1 0x20 PUSH1 0x3 SLOAD PUSH1 0x40 MLOAD SWAP1 DUP2 MSTORE RETURN JUMPDEST CALLVALUE PUSH2 0x291 JUMPI PUSH1 0x20 CALLDATASIZE PUSH1 0x3 NOT ADD SLT PUSH2 0x291 JUMPI PUSH1 0x4 CALLDATALOAD PUSH1 0xFF PUSH1 0x0 SLOAD PUSH1 0xA0 SHR AND PUSH2 0x3F7 JUMPI PUSH1 0x0 DUP2 DUP2 MSTORE PUSH1 0x7 PUSH1 0x20 MSTORE PUSH1 0x40 SWAP1 KECCAK256 SLOAD PUSH1 0x1 PUSH1 0x1 PUSH1 0xA0 SHL SUB AND DUP1 ISZERO PUSH2 0x569 JUMPI CALLER SUB PUSH2 0x558 JUMPI PUSH1 0x1 PUSH1 0xB SLOAD SUB PUSH2 0x3E6 JUMPI PUSH1 0x2 PUSH1 0xB SSTORE DUP1 PUSH1 0x0 MSTORE PUSH1 0x7 PUSH1 0x20 MSTORE PUSH1 0x40 PUSH1 0x0 KECCAK256 PUSH1 0x4 DUP2 ADD PUSH1 0xFF DUP2 SLOAD AND PUSH1 0x6 DUP2 LT ISZERO PUSH2 0x542 JUMPI PUSH1 0x1 SUB PUSH2 0xB96 JUMPI DUP1 SLOAD PUSH1 0xFF NOT AND PUSH1 0x3 OR SWAP1 SSTORE PUSH1 0x6 DUP2 ADD DUP1 SLOAD PUSH8 0xFFFFFFFFFFFFFFFF NOT AND TIMESTAMP PUSH1 0x1 PUSH1 0x1 PUSH1 0x40 SHL SUB AND OR SWAP1 SSTORE PUSH2 0x25CC DUP3 PUSH2 0x2E2A JUMP JUMPDEST PUSH2 0x25D5 DUP2 PUSH2 0x2EEC JUMP JUMPDEST SLOAD PUSH1 0x1 PUSH1 0x1 PUSH1 0xA0 SHL SUB AND SWAP1 PUSH32 0xF1AB0865975DAD5C69AE8E4BAAF13114C875728AFA7CC86368534C22A631D0B0 PUSH1 0x0 DUP1 LOG3 PUSH1 0x1 PUSH1 0xB SSTORE STOP JUMPDEST CALLVALUE PUSH2 0x291 JUMPI PUSH1 0x20 CALLDATASIZE PUSH1 0x3 NOT ADD SLT PUSH2 0x291 JUMPI PUSH1 0x4 CALLDATALOAD PUSH1 0x0 SWAP1 DUP2 MSTORE PUSH1 0x7 PUSH1 0x20 MSTORE PUSH1 0x40 SWAP1 KECCAK256 DUP1 SLOAD PUSH1 0x1 PUSH1 0x1 PUSH1 0xA0 SHL SUB AND PUSH2 0x2645 PUSH1 0x1 DUP4 ADD PUSH2 0x2803 JUMP JUMPDEST SWAP2 PUSH2 0x2652 PUSH1 0x2 DUP3 ADD PUSH2 0x2803 JUMP JUMPDEST PUSH1 0x1 PUSH1 0x1 PUSH1 0x40 SHL SUB PUSH1 0x3 DUP4 ADD SLOAD SWAP3 DUP2 PUSH1 0x4 DUP3 ADD SLOAD PUSH1 0x5 DUP4 ADD SLOAD SWAP1 PUSH2 0x26A6 PUSH1 0x8 PUSH1 0x6 DUP7 ADD SLOAD SWAP6 ADD SLOAD SWAP7 PUSH2 0x2698 PUSH1 0x40 MLOAD SWAP12 DUP13 SWAP12 DUP13 MSTORE PUSH2 0x160 PUSH1 0x20 DUP14 ADD MSTORE PUSH2 0x160 DUP13 ADD SWAP1 PUSH2 0x28A7 JUMP JUMPDEST SWAP1 DUP11 DUP3 SUB PUSH1 0x40 DUP13 ADD MSTORE PUSH2 0x28A7 JUMP JUMPDEST SWAP7 PUSH1 0x60 DUP10 ADD MSTORE PUSH2 0x26BC PUSH1 0x80 DUP10 ADD PUSH1 0xFF DUP4 AND PUSH2 0x28E8 JUMP JUMPDEST PUSH1 0x8 SHR PUSH1 0x1 PUSH1 0x1 PUSH1 0xA0 SHL SUB SWAP1 DUP2 AND PUSH1 0xA0 DUP10 DUP2 ADD SWAP2 SWAP1 SWAP2 MSTORE SWAP1 DUP3 AND PUSH1 0xC0 DUP10 ADD MSTORE SHR AND PUSH1 0xE0 DUP7 ADD MSTORE DUP1 DUP3 AND PUSH2 0x100 DUP7 ADD MSTORE PUSH1 0x40 SHR AND PUSH2 0x120 DUP5 ADD MSTORE PUSH2 0x140 DUP4 ADD MSTORE SUB SWAP1 RETURN JUMPDEST CALLVALUE PUSH2 0x291 JUMPI PUSH1 0x20 CALLDATASIZE PUSH1 0x3 NOT ADD SLT PUSH2 0x291 JUMPI PUSH2 0x2718 PUSH2 0x276F JUMP JUMPDEST PUSH1 0x0 SLOAD SWAP2 PUSH1 0x1 PUSH1 0x1 PUSH1 0xA0 SHL SUB DUP4 AND CALLER SUB PUSH2 0x280 JUMPI PUSH32 0x40DB37FF5C0BDC2C427FBB2078C8F24AFEA940ABAC0E3C23BB4EA3BF2DA2B212 SWAP3 PUSH1 0x20 SWAP3 ISZERO ISZERO SWAP1 PUSH1 0xFF PUSH1 0xA0 SHL DUP3 PUSH1 0xA0 SHL AND SWAP1 PUSH1 0xFF PUSH1 0xA0 SHL NOT AND OR PUSH1 0x0 SSTORE DUP2 MSTORE LOG1 STOP JUMPDEST PUSH1 0x4 CALLDATALOAD SWAP1 DUP2 ISZERO ISZERO DUP3 SUB PUSH2 0x291 JUMPI JUMP JUMPDEST PUSH1 0x24 CALLDATALOAD SWAP1 DUP2 ISZERO ISZERO DUP3 SUB PUSH2 0x291 JUMPI JUMP JUMPDEST SWAP1 PUSH1 0x1 DUP3 DUP2 SHR SWAP3 AND DUP1 ISZERO PUSH2 0x27BD JUMPI JUMPDEST PUSH1 0x20 DUP4 LT EQ PUSH2 0x27A7 JUMPI JUMP JUMPDEST PUSH4 0x4E487B71 PUSH1 0xE0 SHL PUSH1 0x0 MSTORE PUSH1 0x22 PUSH1 0x4 MSTORE PUSH1 0x24 PUSH1 0x0 REVERT JUMPDEST SWAP2 PUSH1 0x7F AND SWAP2 PUSH2 0x279C JUMP JUMPDEST PUSH1 0xA0 DUP2 ADD SWAP1 DUP2 LT PUSH1 0x1 PUSH1 0x1 PUSH1 0x40 SHL SUB DUP3 GT OR PUSH2 0xAA2 JUMPI PUSH1 0x40 MSTORE JUMP JUMPDEST SWAP1 PUSH1 0x1F DUP1 NOT SWAP2 ADD AND DUP2 ADD SWAP1 DUP2 LT PUSH1 0x1 PUSH1 0x1 PUSH1 0x40 SHL SUB DUP3 GT OR PUSH2 0xAA2 JUMPI PUSH1 0x40 MSTORE JUMP JUMPDEST SWAP1 PUSH1 0x40 MLOAD SWAP2 DUP3 PUSH1 0x0 DUP3 SLOAD SWAP3 PUSH2 0x2817 DUP5 PUSH2 0x278D JUMP JUMPDEST DUP1 DUP5 MSTORE SWAP4 PUSH1 0x1 DUP2 AND SWAP1 DUP2 ISZERO PUSH2 0x2885 JUMPI POP PUSH1 0x1 EQ PUSH2 0x283E JUMPI JUMPDEST POP PUSH2 0x283C SWAP3 POP SUB DUP4 PUSH2 0x27E2 JUMP JUMPDEST JUMP JUMPDEST SWAP1 POP PUSH1 0x0 SWAP3 SWAP2 SWAP3 MSTORE PUSH1 0x20 PUSH1 0x0 KECCAK256 SWAP1 PUSH1 0x0 SWAP2 JUMPDEST DUP2 DUP4 LT PUSH2 0x2869 JUMPI POP POP SWAP1 PUSH1 0x20 PUSH2 0x283C SWAP3 DUP3 ADD ADD CODESIZE PUSH2 0x282F JUMP JUMPDEST PUSH1 0x20 SWAP2 SWAP4 POP DUP1 PUSH1 0x1 SWAP2 SLOAD DUP4 DUP6 DUP10 ADD ADD MSTORE ADD SWAP2 ADD SWAP1 SWAP2 DUP5 SWAP3 PUSH2 0x2850 JUMP JUMPDEST SWAP1 POP PUSH1 0x20 SWAP3 POP PUSH2 0x283C SWAP5 SWAP2 POP PUSH1 0xFF NOT AND DUP3 DUP5 ADD MSTORE ISZERO ISZERO PUSH1 0x5 SHL DUP3 ADD ADD CODESIZE PUSH2 0x282F JUMP JUMPDEST SWAP2 SWAP1 DUP3 MLOAD SWAP3 DUP4 DUP3 MSTORE PUSH1 0x0 JUMPDEST DUP5 DUP2 LT PUSH2 0x28D3 JUMPI POP POP DUP3 PUSH1 0x0 PUSH1 0x20 DUP1 SWAP5 SWAP6 DUP5 ADD ADD MSTORE PUSH1 0x1F DUP1 NOT SWAP2 ADD AND ADD ADD SWAP1 JUMP JUMPDEST DUP1 PUSH1 0x20 DUP1 SWAP3 DUP5 ADD ADD MLOAD DUP3 DUP3 DUP7 ADD ADD MSTORE ADD PUSH2 0x28B2 JUMP JUMPDEST SWAP1 PUSH1 0x6 DUP3 LT ISZERO PUSH2 0x542 JUMPI MSTORE JUMP JUMPDEST PUSH1 0x24 CALLDATALOAD SWAP1 PUSH1 0x1 PUSH1 0x1 PUSH1 0xA0 SHL SUB DUP3 AND DUP3 SUB PUSH2 0x291 JUMPI JUMP JUMPDEST PUSH1 0x4 CALLDATALOAD SWAP1 PUSH1 0x1 PUSH1 0x1 PUSH1 0xA0 SHL SUB DUP3 AND DUP3 SUB PUSH2 0x291 JUMPI JUMP JUMPDEST SWAP2 DUP2 PUSH1 0x1F DUP5 ADD SLT ISZERO PUSH2 0x291 JUMPI DUP3 CALLDATALOAD SWAP2 PUSH1 0x1 PUSH1 0x1 PUSH1 0x40 SHL SUB DUP4 GT PUSH2 0x291 JUMPI PUSH1 0x20 DUP4 DUP2 DUP7 ADD SWAP6 ADD ADD GT PUSH2 0x291 JUMPI JUMP JUMPDEST SWAP2 DUP2 PUSH1 0x1F DUP5 ADD SLT ISZERO PUSH2 0x291 JUMPI DUP3 CALLDATALOAD SWAP2 PUSH1 0x1 PUSH1 0x1 PUSH1 0x40 SHL SUB DUP4 GT PUSH2 0x291 JUMPI PUSH1 0x20 DUP1 DUP6 ADD SWAP5 DUP5 PUSH1 0x5 SHL ADD ADD GT PUSH2 0x291 JUMPI JUMP JUMPDEST PUSH1 0x20 PUSH1 0x40 DUP2 DUP4 ADD SWAP3 DUP3 DUP2 MSTORE DUP5 MLOAD DUP1 SWAP5 MSTORE ADD SWAP3 ADD SWAP1 PUSH1 0x0 JUMPDEST DUP2 DUP2 LT PUSH2 0x29A2 JUMPI POP POP POP SWAP1 JUMP JUMPDEST DUP3 MLOAD DUP5 MSTORE PUSH1 0x20 SWAP4 DUP5 ADD SWAP4 SWAP1 SWAP3 ADD SWAP2 PUSH1 0x1 ADD PUSH2 0x2995 JUMP JUMPDEST PUSH1 0x9 SLOAD DUP2 LT ISZERO PUSH2 0x29D3 JUMPI PUSH1 0x9 PUSH1 0x0 MSTORE PUSH1 0x20 PUSH1 0x0 KECCAK256 ADD SWAP1 PUSH1 0x0 SWAP1 JUMP JUMPDEST PUSH4 0x4E487B71 PUSH1 0xE0 SHL PUSH1 0x0 MSTORE PUSH1 0x32 PUSH1 0x4 MSTORE PUSH1 0x24 PUSH1 0x0 REVERT JUMPDEST DUP1 SLOAD DUP3 LT ISZERO PUSH2 0x29D3 JUMPI PUSH1 0x0 MSTORE PUSH1 0x20 PUSH1 0x0 KECCAK256 ADD SWAP1 PUSH1 0x0 SWAP1 JUMP JUMPDEST DUP2 DUP2 LT PUSH2 0x2A0C JUMPI POP POP JUMP JUMPDEST PUSH1 0x0 DUP2 SSTORE PUSH1 0x1 ADD PUSH2 0x2A01 JUMP JUMPDEST SWAP2 SWAP1 PUSH1 0x1F DUP2 GT PUSH2 0x2A27 JUMPI POP POP POP JUMP JUMPDEST PUSH2 0x283C SWAP3 PUSH1 0x0 MSTORE PUSH1 0x20 PUSH1 0x0 KECCAK256 SWAP1 PUSH1 0x20 PUSH1 0x1F DUP5 ADD PUSH1 0x5 SHR DUP4 ADD SWAP4 LT PUSH2 0x2A53 JUMPI JUMPDEST PUSH1 0x1F ADD PUSH1 0x5 SHR ADD SWAP1 PUSH2 0x2A01 JUMP JUMPDEST SWAP1 SWAP2 POP DUP2 SWAP1 PUSH2 0x2A46 JUMP JUMPDEST SWAP1 PUSH1 0x1 PUSH1 0x40 SHL DUP2 GT PUSH2 0xAA2 JUMPI DUP2 SLOAD SWAP2 DUP2 DUP2 SSTORE DUP3 DUP3 LT PUSH2 0x2A7B JUMPI POP POP POP JUMP JUMPDEST PUSH1 0x0 MSTORE PUSH1 0x20 PUSH1 0x0 KECCAK256 SWAP2 DUP3 ADD SWAP2 ADD JUMPDEST DUP2 DUP2 LT PUSH2 0x2A94 JUMPI POP POP JUMP JUMPDEST PUSH1 0x0 DUP2 SSTORE PUSH1 0x1 ADD PUSH2 0x2A89 JUMP JUMPDEST PUSH1 0x1 PUSH1 0x1 PUSH1 0x40 SHL SUB DUP2 GT PUSH2 0xAA2 JUMPI PUSH1 0x5 SHL PUSH1 0x20 ADD SWAP1 JUMP JUMPDEST SWAP1 PUSH2 0x2AC1 DUP3 PUSH2 0x2AA0 JUMP JUMPDEST PUSH2 0x2ACE PUSH1 0x40 MLOAD SWAP2 DUP3 PUSH2 0x27E2 JUMP JUMPDEST DUP3 DUP2 MSTORE DUP1 SWAP3 PUSH2 0x2ADF PUSH1 0x1F NOT SWAP2 PUSH2 0x2AA0 JUMP JUMPDEST ADD SWAP1 PUSH1 0x20 CALLDATASIZE SWAP2 ADD CALLDATACOPY JUMP JUMPDEST SWAP2 SWAP1 DUP2 LT ISZERO PUSH2 0x29D3 JUMPI PUSH1 0x5 SHL ADD SWAP1 JUMP JUMPDEST SWAP1 DUP1 PUSH1 0x20 SWAP4 SWAP3 DUP2 DUP5 MSTORE DUP5 DUP5 ADD CALLDATACOPY PUSH1 0x0 DUP3 DUP3 ADD DUP5 ADD MSTORE PUSH1 0x1F ADD PUSH1 0x1F NOT AND ADD ADD SWAP1 JUMP JUMPDEST SWAP6 SWAP5 SWAP4 SWAP1 PUSH2 0x2B38 SWAP1 PUSH2 0x2B46 SWAP5 SWAP4 SWAP10 SWAP9 SWAP10 PUSH1 0xA0 DUP10 MSTORE PUSH1 0xA0 DUP10 ADD SWAP2 PUSH2 0x2AF9 JUMP JUMPDEST SWAP2 DUP7 DUP4 SUB PUSH1 0x20 DUP9 ADD MSTORE PUSH2 0x2AF9 JUMP JUMPDEST SWAP1 PUSH1 0x40 DUP5 ADD MSTORE DUP3 DUP2 SUB PUSH1 0x60 DUP5 ADD MSTORE PUSH1 0x20 DUP3 SLOAD SWAP2 DUP3 DUP2 MSTORE ADD SWAP2 PUSH1 0x0 MSTORE PUSH1 0x20 PUSH1 0x0 KECCAK256 SWAP1 PUSH1 0x0 JUMPDEST DUP2 DUP2 LT PUSH2 0x2B86 JUMPI POP POP POP PUSH1 0x1 PUSH1 0x1 PUSH1 0x40 SHL SUB PUSH1 0x80 SWAP2 SWAP5 AND SWAP2 ADD MSTORE JUMP JUMPDEST DUP3 SLOAD DUP5 MSTORE PUSH1 0x20 SWAP1 SWAP4 ADD SWAP3 PUSH1 0x1 SWAP3 DUP4 ADD SWAP3 ADD PUSH2 0x2B6A JUMP JUMPDEST SWAP1 DUP2 PUSH1 0x20 SWAP2 SUB SLT PUSH2 0x291 JUMPI MLOAD DUP1 ISZERO ISZERO DUP2 SUB PUSH2 0x291 JUMPI SWAP1 JUMP JUMPDEST DUP1 SLOAD SWAP1 PUSH1 0x1 PUSH1 0x40 SHL DUP3 LT ISZERO PUSH2 0xAA2 JUMPI DUP2 PUSH2 0x1987 SWAP2 PUSH1 0x1 PUSH2 0x2BD6 SWAP5 ADD DUP2 SSTORE PUSH2 0x29E9 JUMP JUMPDEST SWAP1 SSTORE JUMP JUMPDEST SWAP2 SWAP1 DUP3 ADD DUP1 SWAP3 GT PUSH2 0x3BF JUMPI JUMP JUMPDEST SWAP2 SWAP1 DUP3 SUB SWAP2 DUP3 GT PUSH2 0x3BF JUMPI JUMP JUMPDEST DUP1 MLOAD DUP3 LT ISZERO PUSH2 0x29D3 JUMPI PUSH1 0x20 SWAP2 PUSH1 0x5 SHL ADD ADD SWAP1 JUMP JUMPDEST PUSH1 0x1 PUSH1 0x1 PUSH1 0xA0 SHL SUB AND PUSH1 0x0 DUP2 DUP2 MSTORE PUSH1 0x8 PUSH1 0x20 MSTORE PUSH1 0x40 SWAP1 KECCAK256 SLOAD SWAP1 SWAP4 SWAP3 DUP2 DUP4 LT ISZERO PUSH2 0x2CA8 JUMPI PUSH2 0x2C49 SWAP2 PUSH2 0x2C3A DUP5 SWAP3 DUP4 PUSH2 0x2BDA JUMP JUMPDEST SWAP1 DUP1 DUP3 GT PUSH2 0x2CA0 JUMPI JUMPDEST POP PUSH2 0x2BE7 JUMP JUMPDEST SWAP1 PUSH2 0x2C53 DUP3 PUSH2 0x2AB7 JUMP JUMPDEST SWAP4 PUSH1 0x0 JUMPDEST DUP4 DUP2 LT PUSH2 0x2C64 JUMPI POP POP POP POP JUMP JUMPDEST PUSH1 0x1 SWAP1 DUP3 PUSH1 0x0 MSTORE PUSH1 0x8 PUSH1 0x20 MSTORE PUSH2 0x2C88 PUSH1 0x40 PUSH1 0x0 KECCAK256 PUSH2 0x2C82 DUP4 DUP8 PUSH2 0x2BDA JUMP JUMPDEST SWAP1 PUSH2 0x29E9 JUMP JUMPDEST SWAP1 SLOAD SWAP1 PUSH1 0x3 SHL SHR PUSH2 0x2C99 DUP3 DUP10 PUSH2 0x2BF4 JUMP JUMPDEST MSTORE ADD PUSH2 0x2C57 JUMP JUMPDEST SWAP1 POP CODESIZE PUSH2 0x2C43 JUMP JUMPDEST POP POP POP SWAP1 POP PUSH1 0x40 MLOAD PUSH2 0x2CBB PUSH1 0x20 DUP3 PUSH2 0x27E2 JUMP JUMPDEST PUSH1 0x0 DUP2 MSTORE PUSH1 0x0 CALLDATASIZE DUP2 CALLDATACOPY SWAP1 JUMP JUMPDEST DUP1 SLOAD DUP3 LT ISZERO PUSH2 0x29D3 JUMPI PUSH1 0x0 MSTORE PUSH1 0x20 PUSH1 0x0 KECCAK256 SWAP1 PUSH1 0x2 SHL ADD SWAP1 PUSH1 0x0 SWAP1 JUMP JUMPDEST SWAP3 SWAP1 SWAP2 SWAP3 PUSH1 0x0 MSTORE PUSH1 0xD PUSH1 0x20 MSTORE PUSH1 0x40 PUSH1 0x0 KECCAK256 SWAP3 DUP4 SLOAD SWAP1 DUP2 DUP5 LT ISZERO PUSH2 0x2D7B JUMPI PUSH2 0x2D0F SWAP2 PUSH2 0x2C3A DUP6 SWAP3 DUP4 PUSH2 0x2BDA JUMP JUMPDEST PUSH2 0x2D18 DUP2 PUSH2 0x2AB7 JUMP JUMPDEST SWAP4 PUSH2 0x2D22 DUP3 PUSH2 0x2AB7 JUMP JUMPDEST SWAP4 PUSH1 0x0 JUMPDEST DUP4 DUP2 LT PUSH2 0x2D33 JUMPI POP POP POP POP JUMP JUMPDEST DUP1 PUSH1 0x1 PUSH1 0x1 PUSH1 0x40 SHL SUB PUSH2 0x2D51 PUSH2 0x2D4B PUSH1 0x1 SWAP5 DUP7 PUSH2 0x2BDA JUMP JUMPDEST DUP7 PUSH2 0x2CC7 JUMP JUMPDEST POP SLOAD DUP4 DUP1 PUSH1 0xA0 SHL SUB DUP2 AND PUSH2 0x2D65 DUP5 DUP13 PUSH2 0x2BF4 JUMP JUMPDEST MSTORE PUSH1 0xA0 SHR AND PUSH2 0x2D74 DUP3 DUP10 PUSH2 0x2BF4 JUMP JUMPDEST MSTORE ADD PUSH2 0x2D26 JUMP JUMPDEST POP POP SWAP2 POP POP PUSH1 0x20 SWAP1 PUSH1 0x40 MLOAD PUSH2 0x2D90 DUP4 DUP3 PUSH2 0x27E2 JUMP JUMPDEST PUSH1 0x0 DUP2 MSTORE PUSH1 0x0 CALLDATASIZE DUP2 CALLDATACOPY PUSH1 0x40 MLOAD SWAP3 PUSH2 0x2DA7 DUP2 DUP6 PUSH2 0x27E2 JUMP JUMPDEST PUSH1 0x0 DUP5 MSTORE POP PUSH1 0x0 CALLDATASIZE DUP2 CALLDATACOPY SWAP2 SWAP1 JUMP JUMPDEST SWAP2 SWAP1 PUSH1 0x9 SLOAD SWAP1 DUP2 DUP5 LT ISZERO PUSH2 0x2E18 JUMPI PUSH2 0x2DD2 SWAP2 PUSH2 0x2C3A DUP6 SWAP3 DUP4 PUSH2 0x2BDA JUMP JUMPDEST PUSH2 0x2DDB DUP2 PUSH2 0x2AB7 JUMP JUMPDEST SWAP3 PUSH1 0x0 JUMPDEST DUP3 DUP2 LT PUSH2 0x2DEB JUMPI POP POP POP JUMP JUMPDEST DUP1 PUSH2 0x2E00 PUSH2 0x2DFB PUSH1 0x1 SWAP4 DUP6 PUSH2 0x2BDA JUMP JUMPDEST PUSH2 0x29B8 JUMP JUMPDEST SWAP1 SLOAD SWAP1 PUSH1 0x3 SHL SHR PUSH2 0x2E11 DUP3 DUP9 PUSH2 0x2BF4 JUMP JUMPDEST MSTORE ADD PUSH2 0x2DDF JUMP JUMPDEST POP POP SWAP1 POP PUSH1 0x40 MLOAD PUSH2 0x2CBB PUSH1 0x20 DUP3 PUSH2 0x27E2 JUMP JUMPDEST DUP1 PUSH1 0x0 MSTORE PUSH1 0xA PUSH1 0x20 MSTORE PUSH1 0x40 PUSH1 0x0 KECCAK256 SLOAD SWAP1 DUP2 ISZERO PUSH2 0x2EE8 JUMPI PUSH1 0x0 NOT DUP3 ADD SWAP2 DUP1 DUP4 GT PUSH2 0x3BF JUMPI PUSH1 0x9 SLOAD PUSH1 0x0 NOT DUP2 ADD SWAP4 SWAP1 DUP5 GT PUSH2 0x3BF JUMPI PUSH2 0x2E66 DUP5 PUSH2 0x29B8 JUMP JUMPDEST SWAP1 SLOAD SWAP1 PUSH1 0x3 SHL SHR SWAP1 PUSH1 0x0 SWAP5 DUP2 SUB PUSH2 0x2EC5 JUMPI JUMPDEST POP POP POP PUSH1 0x9 SLOAD DUP1 ISZERO PUSH2 0x2EB1 JUMPI PUSH1 0x0 NOT ADD PUSH2 0x2E91 DUP2 PUSH2 0x29B8 JUMP JUMPDEST DUP2 SLOAD SWAP1 PUSH1 0x0 NOT SWAP1 PUSH1 0x3 SHL SHL NOT AND SWAP1 SSTORE PUSH1 0x9 SSTORE DUP2 MSTORE PUSH1 0xA PUSH1 0x20 MSTORE PUSH1 0x40 DUP2 KECCAK256 SSTORE JUMP JUMPDEST PUSH4 0x4E487B71 PUSH1 0xE0 SHL DUP4 MSTORE PUSH1 0x31 PUSH1 0x4 MSTORE PUSH1 0x24 DUP4 REVERT JUMPDEST PUSH2 0x2ED2 PUSH2 0x1987 DUP4 SWAP3 PUSH2 0x29B8 JUMP JUMPDEST SWAP1 SSTORE DUP4 MSTORE PUSH1 0xA PUSH1 0x20 MSTORE PUSH1 0x40 DUP4 KECCAK256 SSTORE CODESIZE DUP1 DUP1 PUSH2 0x2E78 JUMP JUMPDEST POP POP JUMP JUMPDEST PUSH1 0x8 DUP2 ADD DUP1 SLOAD DUP1 ISZERO PUSH2 0x2F66 JUMPI PUSH1 0x0 SWAP2 DUP3 SWAP1 SSTORE PUSH1 0x2 SLOAD SWAP3 SLOAD PUSH1 0x40 MLOAD PUSH4 0xA9059CBB PUSH1 0xE0 SHL DUP2 MSTORE PUSH1 0x1 PUSH1 0x1 PUSH1 0xA0 SHL SUB SWAP2 DUP3 AND PUSH1 0x4 DUP3 ADD MSTORE PUSH1 0x24 DUP2 ADD SWAP3 SWAP1 SWAP3 MSTORE SWAP1 SWAP3 PUSH1 0x20 SWAP3 DUP5 SWAP3 PUSH1 0x44 SWAP3 DUP5 SWAP3 SWAP2 PUSH1 0x8 SWAP2 SWAP1 SWAP2 SHR AND GAS CALL DUP1 ISZERO PUSH2 0x614 JUMPI PUSH2 0x2F4B JUMPI POP JUMP JUMPDEST PUSH2 0x2F63 SWAP1 PUSH1 0x20 RETURNDATASIZE PUSH1 0x20 GT PUSH2 0x60D JUMPI PUSH2 0x603 DUP2 DUP4 PUSH2 0x27E2 JUMP JUMPDEST POP JUMP JUMPDEST POP POP POP JUMP JUMPDEST DUP1 PUSH1 0x0 MSTORE PUSH1 0xA PUSH1 0x20 MSTORE PUSH1 0x40 PUSH1 0x0 KECCAK256 SLOAD PUSH2 0x2F63 JUMPI PUSH1 0x9 SLOAD PUSH1 0x1 PUSH1 0x40 SHL DUP2 LT ISZERO PUSH2 0xAA2 JUMPI PUSH2 0x2FA3 PUSH2 0x1987 DUP3 PUSH1 0x1 DUP6 SWAP5 ADD PUSH1 0x9 SSTORE PUSH1 0x9 PUSH2 0x29E9 JUMP JUMPDEST SWAP1 SSTORE PUSH1 0x9 SLOAD SWAP1 PUSH1 0x0 MSTORE PUSH1 0xA PUSH1 0x20 MSTORE PUSH1 0x40 PUSH1 0x0 KECCAK256 SSTORE JUMP INVALID LOG2 PUSH5 0x6970667358 0x22 SLT KECCAK256 0xB7 0xC5 0xC 0x4B 0xC8 0x1E 0xCC 0xE0 0x21 0xC0 LOG4 PUSH32 0x234D95106E237E31080FF763898373680150B05764736F6C634300081C003300 "},"methodIdentifiers":{"allowedFactory(address)":"3f195993","antiSpamMode()":"5a4434ba","applyToJob(uint256)":"8e1a32d0","applyToJob(uint256,string,uint256,uint64)":"d2f57da4","cancelJob(uint256)":"1dffa3dc","closeExpired(uint256)":"36ae41ca","freelancerFactory()":"2ce606e3","gasSponsorshipEnabled()":"3e8a00c8","getApplicantCount(uint256)":"d566a411","getApplicantDetails(uint256,address)":"cbff7df5","getApplicants(uint256,uint256,uint256)":"c6b9caf4","getJob(uint256)":"bf22c457","getJobsAppliedBy(address)":"bec7a01d","isKYC(address)":"9944f518","jobs(uint256)":"180aedf3","jobsByClient(address)":"e5d53c3b","jobsByClientPaginated(address,uint256,uint256)":"beacece1","jobsOf(address,uint256)":"d8acddb1","markAsCompleted(uint256)":"c0a6026c","markAsHired(uint256,address,address)":"31209061","nextJobId()":"b0c2aa5e","openJobs(uint256,uint256)":"dc74fde5","owner()":"8da5cb5b","paused()":"5c975abb","postJob(string,string,uint256,bytes32[],uint64)":"6c79bce7","postingBondUSDC()":"1ec1de93","reopen(uint256,uint64)":"ee64a6aa","requireApplicationToHire()":"2edea1a0","setAllowedFactory(address,bool)":"72ffa84d","setAntiSpamMode(uint8,uint256)":"7c1ee3b5","setFreelancerFactory(address)":"455f16c5","setGasSponsorship(bool)":"7f8305e5","setKYC(address,bool)":"5123bacc","setPaused(bool)":"16c38b3c","setRequireApplicationToHire(bool)":"583e42a4","setUSDC(address)":"b3e089a2","sweepERC20(address,uint256)":"e6d11999","totalJobsOf(address)":"57147aca","totalOpenJobs()":"31dc20ff","transferOwnership(address)":"f2fde38b","updateJob(uint256,string,string,uint256,bytes32[],uint64)":"4f464cb0","usdc()":"3e413bee","withdrawApplication(uint256)":"f1d5314a"}}}}}