{"contracts/JobBoard.sol":{"JobBoard":{"abi":[{"inputs":[{"internalType":"address","name":"_owner","type":"address"}],"stateMutability":"nonpayable","type":"constructor"},{"inputs":[],"name":"AlreadyHiredOrClosed","type":"error"},{"inputs":[],"name":"InvalidStatus","type":"error"},{"inputs":[],"name":"JobNotFound","type":"error"},{"inputs":[],"name":"KYCGated","type":"error"},{"inputs":[],"name":"NotAllowedFactory","type":"error"},{"inputs":[],"name":"NotClient","type":"error"},{"inputs":[],"name":"NotExpired","type":"error"},{"inputs":[],"name":"NotOpen","type":"error"},{"inputs":[],"name":"NotOwner","type":"error"},{"inputs":[],"name":"NotReopenable","type":"error"},{"inputs":[],"name":"Reentrancy","type":"error"},{"inputs":[],"name":"TooManyTags","type":"error"},{"inputs":[],"name":"USDCNotSet","type":"error"},{"inputs":[],"name":"WrongBond","type":"error"},{"inputs":[],"name":"ZeroAddress","type":"error"},{"anonymous":false,"inputs":[{"indexed":false,"internalType":"uint8","name":"mode","type":"uint8"},{"indexed":false,"internalType":"uint256","name":"postingBondUSDC","type":"uint256"}],"name":"AntiSpamModeSet","type":"event"},{"anonymous":false,"inputs":[{"indexed":true,"internalType":"address","name":"factory","type":"address"},{"indexed":false,"internalType":"bool","name":"allowed","type":"bool"}],"name":"FactoryAllowed","type":"event"},{"anonymous":false,"inputs":[{"indexed":false,"internalType":"bool","name":"enabled","type":"bool"}],"name":"GasSponsorshipSet","type":"event"},{"anonymous":false,"inputs":[{"indexed":true,"internalType":"uint256","name":"jobId","type":"uint256"},{"indexed":true,"internalType":"address","name":"client","type":"address"}],"name":"JobCancelled","type":"event"},{"anonymous":false,"inputs":[{"indexed":true,"internalType":"uint256","name":"jobId","type":"uint256"},{"indexed":true,"internalType":"address","name":"client","type":"address"},{"indexed":true,"internalType":"address","name":"freelancer","type":"address"},{"indexed":false,"internalType":"address","name":"escrow","type":"address"}],"name":"JobCompleted","type":"event"},{"anonymous":false,"inputs":[{"indexed":true,"internalType":"uint256","name":"jobId","type":"uint256"},{"indexed":false,"internalType":"uint64","name":"expiresAt","type":"uint64"}],"name":"JobExpiredClosed","type":"event"},{"anonymous":false,"inputs":[{"indexed":true,"internalType":"uint256","name":"jobId","type":"uint256"},{"indexed":true,"internalType":"address","name":"client","type":"address"},{"indexed":true,"internalType":"address","name":"freelancer","type":"address"},{"indexed":false,"internalType":"address","name":"escrow","type":"address"}],"name":"JobHired","type":"event"},{"anonymous":false,"inputs":[{"indexed":true,"internalType":"uint256","name":"jobId","type":"uint256"},{"indexed":true,"internalType":"address","name":"client","type":"address"},{"indexed":false,"internalType":"string","name":"title","type":"string"},{"indexed":false,"internalType":"string","name":"descriptionURI","type":"string"},{"indexed":false,"internalType":"uint256","name":"budgetUSDC","type":"uint256"},{"indexed":false,"internalType":"bytes32[]","name":"tags","type":"bytes32[]"},{"indexed":false,"internalType":"uint64","name":"expiresAt","type":"uint64"}],"name":"JobPosted","type":"event"},{"anonymous":false,"inputs":[{"indexed":true,"internalType":"uint256","name":"jobId","type":"uint256"},{"indexed":false,"internalType":"uint64","name":"newExpiresAt","type":"uint64"}],"name":"JobReopened","type":"event"},{"anonymous":false,"inputs":[{"indexed":true,"internalType":"uint256","name":"jobId","type":"uint256"},{"indexed":false,"internalType":"string","name":"title","type":"string"},{"indexed":false,"internalType":"string","name":"descriptionURI","type":"string"},{"indexed":false,"internalType":"uint256","name":"budgetUSDC","type":"uint256"},{"indexed":false,"internalType":"bytes32[]","name":"tags","type":"bytes32[]"},{"indexed":false,"internalType":"uint64","name":"expiresAt","type":"uint64"}],"name":"JobUpdated","type":"event"},{"anonymous":false,"inputs":[{"indexed":true,"internalType":"address","name":"user","type":"address"},{"indexed":false,"internalType":"bool","name":"isVerified","type":"bool"}],"name":"KYCSet","type":"event"},{"anonymous":false,"inputs":[{"indexed":true,"internalType":"address","name":"previousOwner","type":"address"},{"indexed":true,"internalType":"address","name":"newOwner","type":"address"}],"name":"OwnerChanged","type":"event"},{"anonymous":false,"inputs":[{"indexed":false,"internalType":"bool","name":"paused","type":"bool"}],"name":"PausedSet","type":"event"},{"anonymous":false,"inputs":[{"indexed":true,"internalType":"address","name":"usdc","type":"address"}],"name":"USDCSet","type":"event"},{"inputs":[{"internalType":"address","name":"","type":"address"}],"name":"allowedFactory","outputs":[{"internalType":"bool","name":"","type":"bool"}],"stateMutability":"view","type":"function"},{"inputs":[],"name":"antiSpamMode","outputs":[{"internalType":"enum JobBoard.AntiSpamMode","name":"","type":"uint8"}],"stateMutability":"view","type":"function"},{"inputs":[{"internalType":"uint256","name":"jobId","type":"uint256"}],"name":"cancelJob","outputs":[],"stateMutability":"nonpayable","type":"function"},{"inputs":[{"internalType":"uint256","name":"jobId","type":"uint256"}],"name":"closeExpired","outputs":[],"stateMutability":"nonpayable","type":"function"},{"inputs":[],"name":"gasSponsorshipEnabled","outputs":[{"internalType":"bool","name":"","type":"bool"}],"stateMutability":"view","type":"function"},{"inputs":[{"internalType":"uint256","name":"jobId","type":"uint256"}],"name":"getJob","outputs":[{"internalType":"address","name":"client","type":"address"},{"internalType":"string","name":"title","type":"string"},{"internalType":"string","name":"descriptionURI","type":"string"},{"internalType":"uint256","name":"budgetUSDC","type":"uint256"},{"internalType":"enum JobBoard.JobStatus","name":"status","type":"uint8"},{"internalType":"address","name":"hiredFreelancer","type":"address"},{"internalType":"address","name":"escrow","type":"address"},{"internalType":"uint64","name":"createdAt","type":"uint64"},{"internalType":"uint64","name":"updatedAt","type":"uint64"},{"internalType":"uint64","name":"expiresAt","type":"uint64"},{"internalType":"bytes32[]","name":"tags","type":"bytes32[]"},{"internalType":"uint256","name":"postingBond","type":"uint256"}],"stateMutability":"view","type":"function"},{"inputs":[{"internalType":"address","name":"","type":"address"}],"name":"isKYC","outputs":[{"internalType":"bool","name":"","type":"bool"}],"stateMutability":"view","type":"function"},{"inputs":[{"internalType":"uint256","name":"","type":"uint256"}],"name":"jobs","outputs":[{"internalType":"address","name":"client","type":"address"},{"internalType":"string","name":"title","type":"string"},{"internalType":"string","name":"descriptionURI","type":"string"},{"internalType":"uint256","name":"budgetUSDC","type":"uint256"},{"internalType":"enum JobBoard.JobStatus","name":"status","type":"uint8"},{"internalType":"address","name":"hiredFreelancer","type":"address"},{"internalType":"address","name":"escrow","type":"address"},{"internalType":"uint64","name":"createdAt","type":"uint64"},{"internalType":"uint64","name":"updatedAt","type":"uint64"},{"internalType":"uint64","name":"expiresAt","type":"uint64"},{"internalType":"uint256","name":"postingBond","type":"uint256"}],"stateMutability":"view","type":"function"},{"inputs":[{"internalType":"address","name":"clientAddr","type":"address"}],"name":"jobsByClient","outputs":[{"internalType":"uint256[]","name":"","type":"uint256[]"}],"stateMutability":"view","type":"function"},{"inputs":[{"internalType":"address","name":"clientAddr","type":"address"},{"internalType":"uint256","name":"offset","type":"uint256"},{"internalType":"uint256","name":"limit","type":"uint256"}],"name":"jobsByClientPaginated","outputs":[{"internalType":"uint256[]","name":"out","type":"uint256[]"}],"stateMutability":"view","type":"function"},{"inputs":[{"internalType":"address","name":"","type":"address"},{"internalType":"uint256","name":"","type":"uint256"}],"name":"jobsOf","outputs":[{"internalType":"uint256","name":"","type":"uint256"}],"stateMutability":"view","type":"function"},{"inputs":[{"internalType":"uint256","name":"jobId","type":"uint256"}],"name":"markAsCompleted","outputs":[],"stateMutability":"nonpayable","type":"function"},{"inputs":[{"internalType":"uint256","name":"jobId","type":"uint256"},{"internalType":"address","name":"freelancer","type":"address"},{"internalType":"address","name":"escrow","type":"address"}],"name":"markAsHired","outputs":[],"stateMutability":"nonpayable","type":"function"},{"inputs":[],"name":"nextJobId","outputs":[{"internalType":"uint256","name":"","type":"uint256"}],"stateMutability":"view","type":"function"},{"inputs":[{"internalType":"uint256","name":"offset","type":"uint256"},{"internalType":"uint256","name":"limit","type":"uint256"}],"name":"openJobs","outputs":[{"internalType":"uint256[]","name":"out","type":"uint256[]"}],"stateMutability":"view","type":"function"},{"inputs":[],"name":"owner","outputs":[{"internalType":"address","name":"","type":"address"}],"stateMutability":"view","type":"function"},{"inputs":[],"name":"paused","outputs":[{"internalType":"bool","name":"","type":"bool"}],"stateMutability":"view","type":"function"},{"inputs":[{"internalType":"string","name":"title","type":"string"},{"internalType":"string","name":"descriptionURI","type":"string"},{"internalType":"uint256","name":"budgetUSDC","type":"uint256"},{"internalType":"bytes32[]","name":"tags","type":"bytes32[]"},{"internalType":"uint64","name":"expiresAt","type":"uint64"}],"name":"postJob","outputs":[{"internalType":"uint256","name":"jobId","type":"uint256"}],"stateMutability":"nonpayable","type":"function"},{"inputs":[],"name":"postingBondUSDC","outputs":[{"internalType":"uint256","name":"","type":"uint256"}],"stateMutability":"view","type":"function"},{"inputs":[{"internalType":"uint256","name":"jobId","type":"uint256"},{"internalType":"uint64","name":"newExpiresAt","type":"uint64"}],"name":"reopen","outputs":[],"stateMutability":"nonpayable","type":"function"},{"inputs":[{"internalType":"address","name":"factory","type":"address"},{"internalType":"bool","name":"allowed","type":"bool"}],"name":"setAllowedFactory","outputs":[],"stateMutability":"nonpayable","type":"function"},{"inputs":[{"internalType":"uint8","name":"mode","type":"uint8"},{"internalType":"uint256","name":"bondAmount","type":"uint256"}],"name":"setAntiSpamMode","outputs":[],"stateMutability":"nonpayable","type":"function"},{"inputs":[{"internalType":"bool","name":"enabled","type":"bool"}],"name":"setGasSponsorship","outputs":[],"stateMutability":"nonpayable","type":"function"},{"inputs":[{"internalType":"address","name":"user","type":"address"},{"internalType":"bool","name":"verified","type":"bool"}],"name":"setKYC","outputs":[],"stateMutability":"nonpayable","type":"function"},{"inputs":[{"internalType":"bool","name":"_paused","type":"bool"}],"name":"setPaused","outputs":[],"stateMutability":"nonpayable","type":"function"},{"inputs":[{"internalType":"address","name":"token","type":"address"}],"name":"setUSDC","outputs":[],"stateMutability":"nonpayable","type":"function"},{"inputs":[{"internalType":"address","name":"token","type":"address"},{"internalType":"uint256","name":"amount","type":"uint256"}],"name":"sweepERC20","outputs":[],"stateMutability":"nonpayable","type":"function"},{"inputs":[{"internalType":"address","name":"clientAddr","type":"address"}],"name":"totalJobsOf","outputs":[{"internalType":"uint256","name":"","type":"uint256"}],"stateMutability":"view","type":"function"},{"inputs":[],"name":"totalOpenJobs","outputs":[{"internalType":"uint256","name":"","type":"uint256"}],"stateMutability":"view","type":"function"},{"inputs":[{"internalType":"address","name":"_newOwner","type":"address"}],"name":"transferOwnership","outputs":[],"stateMutability":"nonpayable","type":"function"},{"inputs":[{"internalType":"uint256","name":"jobId","type":"uint256"},{"internalType":"string","name":"title","type":"string"},{"internalType":"string","name":"descriptionURI","type":"string"},{"internalType":"uint256","name":"budgetUSDC","type":"uint256"},{"internalType":"bytes32[]","name":"tags","type":"bytes32[]"},{"internalType":"uint64","name":"expiresAt","type":"uint64"}],"name":"updateJob","outputs":[],"stateMutability":"nonpayable","type":"function"},{"inputs":[],"name":"usdc","outputs":[{"internalType":"contract IERC20","name":"","type":"address"}],"stateMutability":"view","type":"function"}],"evm":{"bytecode":{"linkReferences":{},"object":"60803460b457601f61234f38819003918201601f19168301916001600160401b0383118484101760b95780849260209460405283398101031260b457516001600160a01b0381169081900360b4576001600b55801560a357600080546001600160a01b03191682178155600160065560405191907fb532073b38c83145e3e5135377a08bf9aab55bc0fd7c1179cd4fb995d2a5159c8180a361227f90816100d08239f35b63d92e233d60e01b60005260046000fd5b600080fd5b634e487b7160e01b600052604160045260246000fdfe608080604052600436101561001357600080fd5b60003560e01c90816316c38b3c14611b5057508063180aedf314611a5d5780631dffa3dc146119705780631ec1de931461195257806331209061146117ce57806331dc20ff146117b057806336ae41ca146116cd5780633e413bee146116a05780633e8a00c81461167d5780633f1959931461163e5780634f464cb0146111d35780635123bacc1461112a57806357147aca146110f05780635a4434ba146110c65780635c975abb146110a05780636c79bce714610a8b57806372ffa84d146109f45780637c1ee3b51461096c5780637f8305e5146109035780638da5cb5b146108da5780639944f5181461089b578063b0c2aa5e1461087d578063b3e089a2146107f5578063beacece1146107c9578063bf22c45714610643578063c0a6026c14610548578063d8acddb1146104ef578063dc74fde5146104cd578063e5d53c3b14610446578063e6d11999146103a0578063ee64a6aa1461021d5763f2fde38b1461017f57600080fd5b3461021857602036600319011261021857610198611d2b565b600054906001600160a01b0382169033829003610207576001600160a01b03169182156101f6576001600160a01b031916821760009081557fb532073b38c83145e3e5135377a08bf9aab55bc0fd7c1179cd4fb995d2a5159c9080a3005b63d92e233d60e01b60005260046000fd5b6330cd747160e01b60005260046000fd5b600080fd5b34610218576040366003190112610218576004356024356001600160401b0381168082036102185760ff60005460a01c16610330576000838152600760205260409020546001600160a01b0316801561038f57330361037e57826000526007602052604060002090600482019160ff8354166006811015610368576003811415908161035c575b5061034b5781151580610341575b61033057825460ff191660011790925560069190910180546001600160801b031916426001600160401b03161760409390931b67ffffffffffffffff60401b16929092179091557f64e5fe93a1512528f7d137734ea381e242e5f5b078b993159fdb3c72ab8e9ef790602090610327846121fb565b604051908152a2005b6307a92f1960e51b60005260046000fd5b50428211156102b2565b633f2e0a8760e21b60005260046000fd5b600591501415866102a4565b634e487b7160e01b600052602160045260246000fd5b630836f21d60e21b60005260046000fd5b63c0a8563160e01b60005260046000fd5b34610218576040366003190112610218576103b9611d2b565b6000546001600160a01b031690338290036102075760405163a9059cbb60e01b81526001600160a01b03928316600482015260248035908201529160209183916044918391600091165af1801561043a5761041057005b6104319060203d602011610433575b6104298183611c18565b810190611f60565b005b503d61041f565b6040513d6000823e3d90fd5b34610218576020366003190112610218576001600160a01b03610467611d2b565b166000526008602052604060002060405190816020825491828152019160005260206000209060005b8181106104b7576104b3856104a781870382611c18565b60405191829182611d9e565b0390f35b8254845260209093019260019283019201610490565b34610218576040366003190112610218576104b36104a760243560043561204f565b3461021857604036600319011261021857610508611d2b565b6001600160a01b03166000908152600860205260409020805460243591908210156102185760209161053991611e09565b90549060031b1c604051908152f35b346102185760203660031901126102185760043560ff60005460a01c166103305733600052600160205260ff604060002054161561063257600081815260076020526040902080549091906001600160a01b03161561038f57600482019060ff82541660068110156103685760020361033057815460ff1916600417825560068301805467ffffffffffffffff1916426001600160401b0316179055825491546005909301546040516001600160a01b03918216815260089490941c8116939216917f074fd40586a68e670c4541fb4b871f9b85af2929dbe255702e111e588ff4b2a890602090a4005b6309270ebd60e11b60005260046000fd5b3461021857602036600319011261021857600435600090815260076020526040902080546001600160a01b0316801561038f576003820154916004810154600582015491600681015460078201936008830154936106af60026106a860018701611c39565b9501611c39565b604051948560208954918281520190819960005260206000209060005b8181106107b3575050509261071f6001600160401b0395929361071187956106fa8b60209c9b99038b611c18565b6101806040519e8f908152818d8201520190611cdd565b8c810360408e015290611cdd565b9a60608b015261073560808b0160ff8316611d1e565b60081c6001600160a01b0390811660a08b81019190915290821660c08b01521c1660e088015280821661010088015260401c16610120860152848603610140860152518086526000959190910192905b80861061079b5750508293506101608301520390f35b90926020806001928651815201940195019490610785565b82548452602090930192600192830192016106cc565b34610218576060366003190112610218576104b36104a76107e8611d2b565b6044359060243590611fa6565b346102185760203660031901126102185761080e611d2b565b6000546001600160a01b03163303610207576001600160a01b0381169081156101f65760028054610100600160a81b03191660089290921b610100600160a81b03169190911790557f4a13891118f8dba1996f8eac118f83bb98e645807a9b9cecf6bc6d014048e7e3600080a2005b34610218576000366003190112610218576020600654604051908152f35b34610218576020366003190112610218576001600160a01b036108bc611d2b565b166000526004602052602060ff604060002054166040519015158152f35b34610218576000366003190112610218576000546040516001600160a01b039091168152602090f35b346102185760203660031901126102185761091c611bc0565b6000546001600160a01b031633036102075760207fe45eebf975e8498157f15e4245144789293d518243944ce72e49418a0cfa598391151560ff196005541660ff821617600555604051908152a1005b346102185760403660031901126102185760043560ff811680910361021857600054602435906001600160a01b031633036102075760028211610330576003821015610368577f7d63308b92fa01d1151ab58553671d1b5ade1d78731eb1b099f55ac41ea2464e916040918160ff1960025416176002558060035582519182526020820152a1005b3461021857604036600319011261021857610a0d611d2b565b610a15611bcf565b6000549091906001600160a01b03163303610207576001600160a01b03169081156101f65760207f24c9a6b477fff74db04905dbc966242385b5b163a4abd979698a56ea761371db918360005260018252610a808160406000209060ff801983541691151516179055565b6040519015158152a2005b346102185760a0366003190112610218576004356001600160401b03811161021857610abb903690600401611d41565b6024356001600160401b03811161021857610ada903690600401611d41565b604492919235936064356001600160401b03811161021857610b00903690600401611d6e565b949093608435926001600160401b038416958685036102185760ff60005460a01c16610330576001600b540361108f576002600b556002549660ff8816976003891015610368576002891480611076575b61106557600160009914610fb2575b5060058911610fa1578015159081610f96575b5061033057600654976000198914610f8057600189810160065560008a815260076020526040902080546001600160a01b03191633178155989089016001600160401b038611610d7057610bc78154611bde565b601f8111610f38575b50856000601f8211600114610ed557600091610eca575b508660011b906000198860031b1c19161790555b600289016001600160401b038911610d7057610c178154611bde565b601f8111610e82575b50886000601f8211600114610e1e57600091610e13575b508960011b906000198b60031b1c19161790555b600389018b905560048901805460ff1916600117905560058901805467ffffffffffffffff60a01b19164260a081901b67ffffffffffffffff60a01b169190911790915560068a0180546001600160801b0319166001600160401b039290921691909117604089901b67ffffffffffffffff60401b16179055600889015580610d86575b5050336000526008602052604060002093845491600160401b831015610d7057602099899788610d43610d2c877f1e340188ef02ed93224295b9e0a03660720f89cfd12522e974a49b530e346e039b6001610d609a018155611e09565b819391549060031b91821b91600019901b19161790565b9055610d4e896121fb565b6040519687966007339c019488611ede565b0390a36001600b55604051908152f35b634e487b7160e01b600052604160045260246000fd5b610d8f81611e7b565b805160078a0192916001600160401b038211610d7057602090610db28386611e21565b0183600052602060002060005b838110610dff575050505060005b818110610ddb575050610ccf565b80610de96001928487611ead565b35610df7610d2c8387611e09565b905501610dcd565b600190602084519401938184015501610dbf565b90508701358d610c37565b8281526020812091508a601f198116825b8b828210610e6857505010610e4e575b5050600189811b019055610c4b565b88013560001960038c901b60f8161c191690558c80610e3f565b84013585556001909401936020938401938e935001610e2f565b816000526020600020601f8b0160051c81019160208c10610ec0575b601f0160051c01905b818110610eb45750610c20565b60008155600101610ea7565b9091508190610e9e565b90508501358d610be7565b82815260208120915087601f198116825b818110610f1d575010610f03575b5050600186811b019055610bfb565b860135600019600389901b60f8161c191690558c80610ef4565b8984013585556001909401936020938401938b935001610ee6565b816000526020600020601f880160051c81019160208910610f76575b601f0160051c01905b818110610f6a5750610bd0565b60008155600101610f5d565b9091508190610f54565b634e487b7160e01b600052601160045260246000fd5b90504210158a610b73565b63ee39e85560e01b60005260046000fd5b60081c6001600160a01b03168015611056576003549889156110475750602060009160648b60405194859384926323b872dd60e01b845233600485015230602485015260448401525af190811561043a57600091611028575b5015611017578a610b60565b63501c2aaf60e01b60005260046000fd5b611041915060203d602011610433576104298183611c18565b8b61100b565b63501c2aaf60e01b8152600490fd5b63e92eebef60e01b8952600489fd5b633b529a9760e11b60005260046000fd5b5033600052600460205260ff6040600020541615610b51565b63558a1e0360e11b60005260046000fd5b3461021857600036600319011261021857602060ff60005460a01c166040519015158152f35b346102185760003660031901126102185760ff600254166040516003821015610368576020918152f35b34610218576020366003190112610218576001600160a01b03611111611d2b565b1660005260086020526020604060002054604051908152f35b3461021857604036600319011261021857611143611d2b565b61114b611bcf565b9060018060a01b0360005416331415806111ba575b610632576001600160a01b03169081156101f65760207f97b4072981ad9b2269406ff8cc9d70c26afd27cea67b75e2573b8710a5e880c9918360005260048252610a808160406000209060ff801983541691151516179055565b5033600052600160205260ff6040600020541615611160565b346102185760c0366003190112610218576004356024356001600160401b03811161021857611206903690600401611d41565b6044929192356001600160401b03811161021857611228903690600401611d41565b6064949194356084356001600160401b0381116102185761124d903690600401611d6e565b92909660a435976001600160401b038916808a036102185760ff60005460a01c16610330576000898152600760205260409020546001600160a01b0316801561038f57330361037e5788600052600760205260406000209060ff60048301541660068110156103685760010361162d5760058711610fa1578015159081611622575b5061033057600181016001600160401b038911610d70576112f08154611bde565b601f81116115da575b50886000601f82116001146115765760009161156b575b508960011b906000198b60031b1c19161790555b60028101906001600160401b038511610d70576113418254611bde565b601f8111611523575b5060009185601f81116001146114bb576007936000916114b0575b508660011b906000198860031b1c19161790555b600381018690556006810180546001600160801b031916426001600160401b03161760408d901b67ffffffffffffffff60401b16179055019485546000875580611489575b5080611402575b5050916113fd93917ff9cdeb830204e1e6135fb07822aaac23761d75003d5dde41bcb94fa818c1b52197989360405197889788611ede565b0390a2005b61140b81611e7b565b8051906001600160401b038211610d7057602090611429838a611e21565b0187600052602060002060005b838110611475575050505060005b81811061145157506113c5565b8061145f6001928486611ead565b3561146d610d2c838b611e09565b905501611444565b600190602084519401938184015501611436565b866000526020600020908101905b8181106114a457506113be565b60008155600101611497565b90508501358d611365565b50808352602083208387601f1981165b8087106115055760079650106114eb575b5050600186811b019055611379565b860135600019600389901b60f8161c191690558c806114dc565b888301358455602096870196600190940193909201918991506114cb565b826000526020600020601f870160051c81019160208810611561575b601f0160051c01905b818110611555575061134a565b60008155600101611548565b909150819061153f565b90508801358c611310565b8281526020812091508a601f198116825b8c8282106115c0575050106115a6575b5050600189811b019055611324565b89013560001960038c901b60f8161c191690558b80611597565b84013585556001909401936020938401938e935001611587565b816000526020600020601f8b0160051c81019160208c10611618575b601f0160051c01905b81811061160c57506112f9565b600081556001016115ff565b90915081906115f6565b90504210158b6112cf565b631bb5f5b360e31b60005260046000fd5b34610218576020366003190112610218576001600160a01b0361165f611d2b565b166000526001602052602060ff604060002054166040519015158152f35b3461021857600036600319011261021857602060ff600554166040519015158152f35b346102185760003660031901126102185760025460405160089190911c6001600160a01b03168152602090f35b3461021857602036600319011261021857600435600081815260076020526040902080546001600160a01b03161561038f57600481019060ff82541660068110156103685760010361162d576006016001600160401b03815460401c1680159081156117a6575b50611795576001600160401b036020917fe77a20b7941129acbb78a11f4d13c89ec2c9d5d36d21f0f7083e304c3e4338c993600560ff1982541617905581804216168219825416178155611787856120ba565b5460401c16604051908152a2005b63d0404f8560e01b60005260046000fd5b9050421084611734565b34610218576000366003190112610218576020600954604051908152f35b34610218576060366003190112610218576024356001600160a01b03811690600435828203610218576044356001600160a01b03811692908390036102185760ff60005460a01c166103305733600052600160205260ff6040600020541615610632576001600b540361108f576002600b558315801561194a575b6101f657600082815260076020526040902080549091906001600160a01b03161561038f57600482019160ff835416600681101561036857600103611939578254610100600160a81b03191660089290921b610100600160a81b03169190911782556005810180546001600160a01b03191685179055815460ff191660021790915560068101805467ffffffffffffffff1916426001600160401b03161790557f18d75305648a74597b581f82d18a431cb8a7ddbf7a7131ceb3e9e5343ed7708990602090611917846120ba565b6119208161217c565b546040519485526001600160a01b031693a46001600b55005b635e78c1e560e01b60005260046000fd5b508215611849565b34610218576000366003190112610218576020600354604051908152f35b346102185760203660031901126102185760043560ff60005460a01c16610330576000818152600760205260409020546001600160a01b0316801561038f57330361037e576001600b540361108f576002600b5580600052600760205260406000206004810160ff81541660068110156103685760010361162d57805460ff1916600317905560068101805467ffffffffffffffff1916426001600160401b0316179055611a1d826120ba565b611a268161217c565b546001600160a01b0316907ff1ab0865975dad5c69ae8e4baaf13114c875728afa7cc86368534c22a631d0b0600080a36001600b55005b3461021857602036600319011261021857600435600090815260076020526040902080546001600160a01b0316611a9660018301611c39565b91611aa360028201611c39565b6001600160401b03600383015492816004820154600583015490611af76008600686015495015496611ae96040519b8c9b8c5261016060208d01526101608c0190611cdd565b908a820360408c0152611cdd565b966060890152611b0d6080890160ff8316611d1e565b60081c6001600160a01b0390811660a08981019190915290821660c08901521c1660e086015280821661010086015260401c166101208401526101408301520390f35b3461021857602036600319011261021857611b69611bc0565b600054916001600160a01b0383163303610207577f40db37ff5c0bdc2c427fbb2078c8f24afea940abac0e3c23bb4ea3bf2da2b2129260209215159060ff60a01b8260a01b169060ff60a01b1916176000558152a1005b60043590811515820361021857565b60243590811515820361021857565b90600182811c92168015611c0e575b6020831014611bf857565b634e487b7160e01b600052602260045260246000fd5b91607f1691611bed565b90601f801991011681019081106001600160401b03821117610d7057604052565b9060405191826000825492611c4d84611bde565b8084529360018116908115611cbb5750600114611c74575b50611c7292500383611c18565b565b90506000929192526020600020906000915b818310611c9f575050906020611c729282010138611c65565b6020919350806001915483858901015201910190918492611c86565b905060209250611c7294915060ff191682840152151560051b82010138611c65565b919082519283825260005b848110611d09575050826000602080949584010152601f8019910116010190565b80602080928401015182828601015201611ce8565b9060068210156103685752565b600435906001600160a01b038216820361021857565b9181601f84011215610218578235916001600160401b038311610218576020838186019501011161021857565b9181601f84011215610218578235916001600160401b038311610218576020808501948460051b01011161021857565b602060408183019282815284518094520192019060005b818110611dc25750505090565b8251845260209384019390920191600101611db5565b600954811015611df357600960005260206000200190600090565b634e487b7160e01b600052603260045260246000fd5b8054821015611df35760005260206000200190600090565b90600160401b8111610d7057815491818155828210611e3f57505050565b600052602060002091820191015b818110611e58575050565b60008155600101611e4d565b6001600160401b038111610d705760051b60200190565b90611e8582611e64565b611e926040519182611c18565b8281528092611ea3601f1991611e64565b0190602036910137565b9190811015611df35760051b0190565b908060209392818452848401376000828201840152601f01601f1916010190565b95949390611efc90611f0a949399989960a0895260a0890191611ebd565b918683036020880152611ebd565b90604084015282810360608401526020825491828152019160005260206000209060005b818110611f4a575050506001600160401b036080919416910152565b8254845260209093019260019283019201611f2e565b90816020910312610218575180151581036102185790565b91908201809211610f8057565b91908203918211610f8057565b8051821015611df35760209160051b010190565b6001600160a01b03166000818152600860205260409020549093928183101561204657611fe791611fd8849283611f78565b9080821161203e575b50611f85565b90611ff182611e7b565b9360005b8381106120025750505050565b60019082600052600860205261202660406000206120208387611f78565b90611e09565b90549060031b1c6120378289611f92565b5201611ff5565b905038611fe1565b50606093505050565b919060095490818410156120b25761206c91611fd8859283611f78565b61207581611e7b565b9260005b82811061208557505050565b8061209a61209560019385611f78565b611dd8565b90549060031b1c6120ab8288611f92565b5201612079565b506060925050565b80600052600a60205260406000205490811561217857600019820191808311610f8057600954600019810193908411610f80576120f684611dd8565b90549060031b1c906000948103612155575b5050506009548015612141576000190161212181611dd8565b8154906000199060031b1b191690556009558152600a6020526040812055565b634e487b7160e01b83526031600452602483fd5b612162610d2c8392611dd8565b90558352600a6020526040832055388080612108565b5050565b60088101805480156121f657600091829055600254925460405163a9059cbb60e01b81526001600160a01b03918216600482015260248101929092529092602092849260449284929160089190911c165af1801561043a576121db5750565b6121f39060203d602011610433576104298183611c18565b50565b505050565b80600052600a6020526040600020546121f357600954600160401b811015610d7057612233610d2c8260018594016009556009611e09565b905560095490600052600a60205260406000205556fea2646970667358221220101656d188b7b16abb25fb33b60f2d41955ed6e85d292b127282c377121c4d5364736f6c634300081c0033","opcodes":"PUSH1 0x80 CALLVALUE PUSH1 0xB4 JUMPI PUSH1 0x1F PUSH2 0x234F CODESIZE DUP2 SWAP1 SUB SWAP2 DUP3 ADD PUSH1 0x1F NOT AND DUP4 ADD SWAP2 PUSH1 0x1 PUSH1 0x1 PUSH1 0x40 SHL SUB DUP4 GT DUP5 DUP5 LT OR PUSH1 0xB9 JUMPI DUP1 DUP5 SWAP3 PUSH1 0x20 SWAP5 PUSH1 0x40 MSTORE DUP4 CODECOPY DUP2 ADD SUB SLT PUSH1 0xB4 JUMPI MLOAD PUSH1 0x1 PUSH1 0x1 PUSH1 0xA0 SHL SUB DUP2 AND SWAP1 DUP2 SWAP1 SUB PUSH1 0xB4 JUMPI PUSH1 0x1 PUSH1 0xB SSTORE DUP1 ISZERO PUSH1 0xA3 JUMPI PUSH1 0x0 DUP1 SLOAD PUSH1 0x1 PUSH1 0x1 PUSH1 0xA0 SHL SUB NOT AND DUP3 OR DUP2 SSTORE PUSH1 0x1 PUSH1 0x6 SSTORE PUSH1 0x40 MLOAD SWAP2 SWAP1 PUSH32 0xB532073B38C83145E3E5135377A08BF9AAB55BC0FD7C1179CD4FB995D2A5159C DUP2 DUP1 LOG3 PUSH2 0x227F SWAP1 DUP2 PUSH2 0xD0 DUP3 CODECOPY RETURN JUMPDEST PUSH4 0xD92E233D PUSH1 0xE0 SHL PUSH1 0x0 MSTORE PUSH1 0x4 PUSH1 0x0 REVERT JUMPDEST PUSH1 0x0 DUP1 REVERT JUMPDEST PUSH4 0x4E487B71 PUSH1 0xE0 SHL PUSH1 0x0 MSTORE PUSH1 0x41 PUSH1 0x4 MSTORE PUSH1 0x24 PUSH1 0x0 REVERT INVALID PUSH1 0x80 DUP1 PUSH1 0x40 MSTORE PUSH1 0x4 CALLDATASIZE LT ISZERO PUSH2 0x13 JUMPI PUSH1 0x0 DUP1 REVERT JUMPDEST PUSH1 0x0 CALLDATALOAD PUSH1 0xE0 SHR SWAP1 DUP2 PUSH4 0x16C38B3C EQ PUSH2 0x1B50 JUMPI POP DUP1 PUSH4 0x180AEDF3 EQ PUSH2 0x1A5D JUMPI DUP1 PUSH4 0x1DFFA3DC EQ PUSH2 0x1970 JUMPI DUP1 PUSH4 0x1EC1DE93 EQ PUSH2 0x1952 JUMPI DUP1 PUSH4 0x31209061 EQ PUSH2 0x17CE JUMPI DUP1 PUSH4 0x31DC20FF EQ PUSH2 0x17B0 JUMPI DUP1 PUSH4 0x36AE41CA EQ PUSH2 0x16CD JUMPI DUP1 PUSH4 0x3E413BEE EQ PUSH2 0x16A0 JUMPI DUP1 PUSH4 0x3E8A00C8 EQ PUSH2 0x167D JUMPI DUP1 PUSH4 0x3F195993 EQ PUSH2 0x163E JUMPI DUP1 PUSH4 0x4F464CB0 EQ PUSH2 0x11D3 JUMPI DUP1 PUSH4 0x5123BACC EQ PUSH2 0x112A JUMPI DUP1 PUSH4 0x57147ACA EQ PUSH2 0x10F0 JUMPI DUP1 PUSH4 0x5A4434BA EQ PUSH2 0x10C6 JUMPI DUP1 PUSH4 0x5C975ABB EQ PUSH2 0x10A0 JUMPI DUP1 PUSH4 0x6C79BCE7 EQ PUSH2 0xA8B JUMPI DUP1 PUSH4 0x72FFA84D EQ PUSH2 0x9F4 JUMPI DUP1 PUSH4 0x7C1EE3B5 EQ PUSH2 0x96C JUMPI DUP1 PUSH4 0x7F8305E5 EQ PUSH2 0x903 JUMPI DUP1 PUSH4 0x8DA5CB5B EQ PUSH2 0x8DA JUMPI DUP1 PUSH4 0x9944F518 EQ PUSH2 0x89B JUMPI DUP1 PUSH4 0xB0C2AA5E EQ PUSH2 0x87D JUMPI DUP1 PUSH4 0xB3E089A2 EQ PUSH2 0x7F5 JUMPI DUP1 PUSH4 0xBEACECE1 EQ PUSH2 0x7C9 JUMPI DUP1 PUSH4 0xBF22C457 EQ PUSH2 0x643 JUMPI DUP1 PUSH4 0xC0A6026C EQ PUSH2 0x548 JUMPI DUP1 PUSH4 0xD8ACDDB1 EQ PUSH2 0x4EF JUMPI DUP1 PUSH4 0xDC74FDE5 EQ PUSH2 0x4CD JUMPI DUP1 PUSH4 0xE5D53C3B EQ PUSH2 0x446 JUMPI DUP1 PUSH4 0xE6D11999 EQ PUSH2 0x3A0 JUMPI DUP1 PUSH4 0xEE64A6AA EQ PUSH2 0x21D JUMPI PUSH4 0xF2FDE38B EQ PUSH2 0x17F JUMPI PUSH1 0x0 DUP1 REVERT JUMPDEST CALLVALUE PUSH2 0x218 JUMPI PUSH1 0x20 CALLDATASIZE PUSH1 0x3 NOT ADD SLT PUSH2 0x218 JUMPI PUSH2 0x198 PUSH2 0x1D2B JUMP JUMPDEST PUSH1 0x0 SLOAD SWAP1 PUSH1 0x1 PUSH1 0x1 PUSH1 0xA0 SHL SUB DUP3 AND SWAP1 CALLER DUP3 SWAP1 SUB PUSH2 0x207 JUMPI PUSH1 0x1 PUSH1 0x1 PUSH1 0xA0 SHL SUB AND SWAP2 DUP3 ISZERO PUSH2 0x1F6 JUMPI PUSH1 0x1 PUSH1 0x1 PUSH1 0xA0 SHL SUB NOT AND DUP3 OR PUSH1 0x0 SWAP1 DUP2 SSTORE PUSH32 0xB532073B38C83145E3E5135377A08BF9AAB55BC0FD7C1179CD4FB995D2A5159C SWAP1 DUP1 LOG3 STOP JUMPDEST PUSH4 0xD92E233D PUSH1 0xE0 SHL PUSH1 0x0 MSTORE PUSH1 0x4 PUSH1 0x0 REVERT JUMPDEST PUSH4 0x30CD7471 PUSH1 0xE0 SHL PUSH1 0x0 MSTORE PUSH1 0x4 PUSH1 0x0 REVERT JUMPDEST PUSH1 0x0 DUP1 REVERT JUMPDEST CALLVALUE PUSH2 0x218 JUMPI PUSH1 0x40 CALLDATASIZE PUSH1 0x3 NOT ADD SLT PUSH2 0x218 JUMPI PUSH1 0x4 CALLDATALOAD PUSH1 0x24 CALLDATALOAD PUSH1 0x1 PUSH1 0x1 PUSH1 0x40 SHL SUB DUP2 AND DUP1 DUP3 SUB PUSH2 0x218 JUMPI PUSH1 0xFF PUSH1 0x0 SLOAD PUSH1 0xA0 SHR AND PUSH2 0x330 JUMPI PUSH1 0x0 DUP4 DUP2 MSTORE PUSH1 0x7 PUSH1 0x20 MSTORE PUSH1 0x40 SWAP1 KECCAK256 SLOAD PUSH1 0x1 PUSH1 0x1 PUSH1 0xA0 SHL SUB AND DUP1 ISZERO PUSH2 0x38F JUMPI CALLER SUB PUSH2 0x37E JUMPI DUP3 PUSH1 0x0 MSTORE PUSH1 0x7 PUSH1 0x20 MSTORE PUSH1 0x40 PUSH1 0x0 KECCAK256 SWAP1 PUSH1 0x4 DUP3 ADD SWAP2 PUSH1 0xFF DUP4 SLOAD AND PUSH1 0x6 DUP2 LT ISZERO PUSH2 0x368 JUMPI PUSH1 0x3 DUP2 EQ ISZERO SWAP1 DUP2 PUSH2 0x35C JUMPI JUMPDEST POP PUSH2 0x34B JUMPI DUP2 ISZERO ISZERO DUP1 PUSH2 0x341 JUMPI JUMPDEST PUSH2 0x330 JUMPI DUP3 SLOAD PUSH1 0xFF NOT AND PUSH1 0x1 OR SWAP1 SWAP3 SSTORE PUSH1 0x6 SWAP2 SWAP1 SWAP2 ADD DUP1 SLOAD PUSH1 0x1 PUSH1 0x1 PUSH1 0x80 SHL SUB NOT AND TIMESTAMP PUSH1 0x1 PUSH1 0x1 PUSH1 0x40 SHL SUB AND OR PUSH1 0x40 SWAP4 SWAP1 SWAP4 SHL PUSH8 0xFFFFFFFFFFFFFFFF PUSH1 0x40 SHL AND SWAP3 SWAP1 SWAP3 OR SWAP1 SWAP2 SSTORE PUSH32 0x64E5FE93A1512528F7D137734EA381E242E5F5B078B993159FDB3C72AB8E9EF7 SWAP1 PUSH1 0x20 SWAP1 PUSH2 0x327 DUP5 PUSH2 0x21FB JUMP JUMPDEST PUSH1 0x40 MLOAD SWAP1 DUP2 MSTORE LOG2 STOP JUMPDEST PUSH4 0x7A92F19 PUSH1 0xE5 SHL PUSH1 0x0 MSTORE PUSH1 0x4 PUSH1 0x0 REVERT JUMPDEST POP TIMESTAMP DUP3 GT ISZERO PUSH2 0x2B2 JUMP JUMPDEST PUSH4 0x3F2E0A87 PUSH1 0xE2 SHL PUSH1 0x0 MSTORE PUSH1 0x4 PUSH1 0x0 REVERT JUMPDEST PUSH1 0x5 SWAP2 POP EQ ISZERO DUP7 PUSH2 0x2A4 JUMP JUMPDEST PUSH4 0x4E487B71 PUSH1 0xE0 SHL PUSH1 0x0 MSTORE PUSH1 0x21 PUSH1 0x4 MSTORE PUSH1 0x24 PUSH1 0x0 REVERT JUMPDEST PUSH4 0x836F21D PUSH1 0xE2 SHL PUSH1 0x0 MSTORE PUSH1 0x4 PUSH1 0x0 REVERT JUMPDEST PUSH4 0xC0A85631 PUSH1 0xE0 SHL PUSH1 0x0 MSTORE PUSH1 0x4 PUSH1 0x0 REVERT JUMPDEST CALLVALUE PUSH2 0x218 JUMPI PUSH1 0x40 CALLDATASIZE PUSH1 0x3 NOT ADD SLT PUSH2 0x218 JUMPI PUSH2 0x3B9 PUSH2 0x1D2B JUMP JUMPDEST PUSH1 0x0 SLOAD PUSH1 0x1 PUSH1 0x1 PUSH1 0xA0 SHL SUB AND SWAP1 CALLER DUP3 SWAP1 SUB PUSH2 0x207 JUMPI PUSH1 0x40 MLOAD PUSH4 0xA9059CBB PUSH1 0xE0 SHL DUP2 MSTORE PUSH1 0x1 PUSH1 0x1 PUSH1 0xA0 SHL SUB SWAP3 DUP4 AND PUSH1 0x4 DUP3 ADD MSTORE PUSH1 0x24 DUP1 CALLDATALOAD SWAP1 DUP3 ADD MSTORE SWAP2 PUSH1 0x20 SWAP2 DUP4 SWAP2 PUSH1 0x44 SWAP2 DUP4 SWAP2 PUSH1 0x0 SWAP2 AND GAS CALL DUP1 ISZERO PUSH2 0x43A JUMPI PUSH2 0x410 JUMPI STOP JUMPDEST PUSH2 0x431 SWAP1 PUSH1 0x20 RETURNDATASIZE PUSH1 0x20 GT PUSH2 0x433 JUMPI JUMPDEST PUSH2 0x429 DUP2 DUP4 PUSH2 0x1C18 JUMP JUMPDEST DUP2 ADD SWAP1 PUSH2 0x1F60 JUMP JUMPDEST STOP JUMPDEST POP RETURNDATASIZE PUSH2 0x41F JUMP JUMPDEST PUSH1 0x40 MLOAD RETURNDATASIZE PUSH1 0x0 DUP3 RETURNDATACOPY RETURNDATASIZE SWAP1 REVERT JUMPDEST CALLVALUE PUSH2 0x218 JUMPI PUSH1 0x20 CALLDATASIZE PUSH1 0x3 NOT ADD SLT PUSH2 0x218 JUMPI PUSH1 0x1 PUSH1 0x1 PUSH1 0xA0 SHL SUB PUSH2 0x467 PUSH2 0x1D2B JUMP JUMPDEST AND PUSH1 0x0 MSTORE PUSH1 0x8 PUSH1 0x20 MSTORE PUSH1 0x40 PUSH1 0x0 KECCAK256 PUSH1 0x40 MLOAD SWAP1 DUP2 PUSH1 0x20 DUP3 SLOAD SWAP2 DUP3 DUP2 MSTORE ADD SWAP2 PUSH1 0x0 MSTORE PUSH1 0x20 PUSH1 0x0 KECCAK256 SWAP1 PUSH1 0x0 JUMPDEST DUP2 DUP2 LT PUSH2 0x4B7 JUMPI PUSH2 0x4B3 DUP6 PUSH2 0x4A7 DUP2 DUP8 SUB DUP3 PUSH2 0x1C18 JUMP JUMPDEST PUSH1 0x40 MLOAD SWAP2 DUP3 SWAP2 DUP3 PUSH2 0x1D9E JUMP JUMPDEST SUB SWAP1 RETURN JUMPDEST DUP3 SLOAD DUP5 MSTORE PUSH1 0x20 SWAP1 SWAP4 ADD SWAP3 PUSH1 0x1 SWAP3 DUP4 ADD SWAP3 ADD PUSH2 0x490 JUMP JUMPDEST CALLVALUE PUSH2 0x218 JUMPI PUSH1 0x40 CALLDATASIZE PUSH1 0x3 NOT ADD SLT PUSH2 0x218 JUMPI PUSH2 0x4B3 PUSH2 0x4A7 PUSH1 0x24 CALLDATALOAD PUSH1 0x4 CALLDATALOAD PUSH2 0x204F JUMP JUMPDEST CALLVALUE PUSH2 0x218 JUMPI PUSH1 0x40 CALLDATASIZE PUSH1 0x3 NOT ADD SLT PUSH2 0x218 JUMPI PUSH2 0x508 PUSH2 0x1D2B JUMP JUMPDEST PUSH1 0x1 PUSH1 0x1 PUSH1 0xA0 SHL SUB AND PUSH1 0x0 SWAP1 DUP2 MSTORE PUSH1 0x8 PUSH1 0x20 MSTORE PUSH1 0x40 SWAP1 KECCAK256 DUP1 SLOAD PUSH1 0x24 CALLDATALOAD SWAP2 SWAP1 DUP3 LT ISZERO PUSH2 0x218 JUMPI PUSH1 0x20 SWAP2 PUSH2 0x539 SWAP2 PUSH2 0x1E09 JUMP JUMPDEST SWAP1 SLOAD SWAP1 PUSH1 0x3 SHL SHR PUSH1 0x40 MLOAD SWAP1 DUP2 MSTORE RETURN JUMPDEST CALLVALUE PUSH2 0x218 JUMPI PUSH1 0x20 CALLDATASIZE PUSH1 0x3 NOT ADD SLT PUSH2 0x218 JUMPI PUSH1 0x4 CALLDATALOAD PUSH1 0xFF PUSH1 0x0 SLOAD PUSH1 0xA0 SHR AND PUSH2 0x330 JUMPI CALLER PUSH1 0x0 MSTORE PUSH1 0x1 PUSH1 0x20 MSTORE PUSH1 0xFF PUSH1 0x40 PUSH1 0x0 KECCAK256 SLOAD AND ISZERO PUSH2 0x632 JUMPI PUSH1 0x0 DUP2 DUP2 MSTORE PUSH1 0x7 PUSH1 0x20 MSTORE PUSH1 0x40 SWAP1 KECCAK256 DUP1 SLOAD SWAP1 SWAP2 SWAP1 PUSH1 0x1 PUSH1 0x1 PUSH1 0xA0 SHL SUB AND ISZERO PUSH2 0x38F JUMPI PUSH1 0x4 DUP3 ADD SWAP1 PUSH1 0xFF DUP3 SLOAD AND PUSH1 0x6 DUP2 LT ISZERO PUSH2 0x368 JUMPI PUSH1 0x2 SUB PUSH2 0x330 JUMPI DUP2 SLOAD PUSH1 0xFF NOT AND PUSH1 0x4 OR DUP3 SSTORE PUSH1 0x6 DUP4 ADD DUP1 SLOAD PUSH8 0xFFFFFFFFFFFFFFFF NOT AND TIMESTAMP PUSH1 0x1 PUSH1 0x1 PUSH1 0x40 SHL SUB AND OR SWAP1 SSTORE DUP3 SLOAD SWAP2 SLOAD PUSH1 0x5 SWAP1 SWAP4 ADD SLOAD PUSH1 0x40 MLOAD PUSH1 0x1 PUSH1 0x1 PUSH1 0xA0 SHL SUB SWAP2 DUP3 AND DUP2 MSTORE PUSH1 0x8 SWAP5 SWAP1 SWAP5 SHR DUP2 AND SWAP4 SWAP3 AND SWAP2 PUSH32 0x74FD40586A68E670C4541FB4B871F9B85AF2929DBE255702E111E588FF4B2A8 SWAP1 PUSH1 0x20 SWAP1 LOG4 STOP JUMPDEST PUSH4 0x9270EBD PUSH1 0xE1 SHL PUSH1 0x0 MSTORE PUSH1 0x4 PUSH1 0x0 REVERT JUMPDEST CALLVALUE PUSH2 0x218 JUMPI PUSH1 0x20 CALLDATASIZE PUSH1 0x3 NOT ADD SLT PUSH2 0x218 JUMPI PUSH1 0x4 CALLDATALOAD PUSH1 0x0 SWAP1 DUP2 MSTORE PUSH1 0x7 PUSH1 0x20 MSTORE PUSH1 0x40 SWAP1 KECCAK256 DUP1 SLOAD PUSH1 0x1 PUSH1 0x1 PUSH1 0xA0 SHL SUB AND DUP1 ISZERO PUSH2 0x38F JUMPI PUSH1 0x3 DUP3 ADD SLOAD SWAP2 PUSH1 0x4 DUP2 ADD SLOAD PUSH1 0x5 DUP3 ADD SLOAD SWAP2 PUSH1 0x6 DUP2 ADD SLOAD PUSH1 0x7 DUP3 ADD SWAP4 PUSH1 0x8 DUP4 ADD SLOAD SWAP4 PUSH2 0x6AF PUSH1 0x2 PUSH2 0x6A8 PUSH1 0x1 DUP8 ADD PUSH2 0x1C39 JUMP JUMPDEST SWAP6 ADD PUSH2 0x1C39 JUMP JUMPDEST PUSH1 0x40 MLOAD SWAP5 DUP6 PUSH1 0x20 DUP10 SLOAD SWAP2 DUP3 DUP2 MSTORE ADD SWAP1 DUP2 SWAP10 PUSH1 0x0 MSTORE PUSH1 0x20 PUSH1 0x0 KECCAK256 SWAP1 PUSH1 0x0 JUMPDEST DUP2 DUP2 LT PUSH2 0x7B3 JUMPI POP POP POP SWAP3 PUSH2 0x71F PUSH1 0x1 PUSH1 0x1 PUSH1 0x40 SHL SUB SWAP6 SWAP3 SWAP4 PUSH2 0x711 DUP8 SWAP6 PUSH2 0x6FA DUP12 PUSH1 0x20 SWAP13 SWAP12 SWAP10 SUB DUP12 PUSH2 0x1C18 JUMP JUMPDEST PUSH2 0x180 PUSH1 0x40 MLOAD SWAP15 DUP16 SWAP1 DUP2 MSTORE DUP2 DUP14 DUP3 ADD MSTORE ADD SWAP1 PUSH2 0x1CDD JUMP JUMPDEST DUP13 DUP2 SUB PUSH1 0x40 DUP15 ADD MSTORE SWAP1 PUSH2 0x1CDD JUMP JUMPDEST SWAP11 PUSH1 0x60 DUP12 ADD MSTORE PUSH2 0x735 PUSH1 0x80 DUP12 ADD PUSH1 0xFF DUP4 AND PUSH2 0x1D1E JUMP JUMPDEST PUSH1 0x8 SHR PUSH1 0x1 PUSH1 0x1 PUSH1 0xA0 SHL SUB SWAP1 DUP2 AND PUSH1 0xA0 DUP12 DUP2 ADD SWAP2 SWAP1 SWAP2 MSTORE SWAP1 DUP3 AND PUSH1 0xC0 DUP12 ADD MSTORE SHR AND PUSH1 0xE0 DUP9 ADD MSTORE DUP1 DUP3 AND PUSH2 0x100 DUP9 ADD MSTORE PUSH1 0x40 SHR AND PUSH2 0x120 DUP7 ADD MSTORE DUP5 DUP7 SUB PUSH2 0x140 DUP7 ADD MSTORE MLOAD DUP1 DUP7 MSTORE PUSH1 0x0 SWAP6 SWAP2 SWAP1 SWAP2 ADD SWAP3 SWAP1 JUMPDEST DUP1 DUP7 LT PUSH2 0x79B JUMPI POP POP DUP3 SWAP4 POP PUSH2 0x160 DUP4 ADD MSTORE SUB SWAP1 RETURN JUMPDEST SWAP1 SWAP3 PUSH1 0x20 DUP1 PUSH1 0x1 SWAP3 DUP7 MLOAD DUP2 MSTORE ADD SWAP5 ADD SWAP6 ADD SWAP5 SWAP1 PUSH2 0x785 JUMP JUMPDEST DUP3 SLOAD DUP5 MSTORE PUSH1 0x20 SWAP1 SWAP4 ADD SWAP3 PUSH1 0x1 SWAP3 DUP4 ADD SWAP3 ADD PUSH2 0x6CC JUMP JUMPDEST CALLVALUE PUSH2 0x218 JUMPI PUSH1 0x60 CALLDATASIZE PUSH1 0x3 NOT ADD SLT PUSH2 0x218 JUMPI PUSH2 0x4B3 PUSH2 0x4A7 PUSH2 0x7E8 PUSH2 0x1D2B JUMP JUMPDEST PUSH1 0x44 CALLDATALOAD SWAP1 PUSH1 0x24 CALLDATALOAD SWAP1 PUSH2 0x1FA6 JUMP JUMPDEST CALLVALUE PUSH2 0x218 JUMPI PUSH1 0x20 CALLDATASIZE PUSH1 0x3 NOT ADD SLT PUSH2 0x218 JUMPI PUSH2 0x80E PUSH2 0x1D2B JUMP JUMPDEST PUSH1 0x0 SLOAD PUSH1 0x1 PUSH1 0x1 PUSH1 0xA0 SHL SUB AND CALLER SUB PUSH2 0x207 JUMPI PUSH1 0x1 PUSH1 0x1 PUSH1 0xA0 SHL SUB DUP2 AND SWAP1 DUP2 ISZERO PUSH2 0x1F6 JUMPI PUSH1 0x2 DUP1 SLOAD PUSH2 0x100 PUSH1 0x1 PUSH1 0xA8 SHL SUB NOT AND PUSH1 0x8 SWAP3 SWAP1 SWAP3 SHL PUSH2 0x100 PUSH1 0x1 PUSH1 0xA8 SHL SUB AND SWAP2 SWAP1 SWAP2 OR SWAP1 SSTORE PUSH32 0x4A13891118F8DBA1996F8EAC118F83BB98E645807A9B9CECF6BC6D014048E7E3 PUSH1 0x0 DUP1 LOG2 STOP JUMPDEST CALLVALUE PUSH2 0x218 JUMPI PUSH1 0x0 CALLDATASIZE PUSH1 0x3 NOT ADD SLT PUSH2 0x218 JUMPI PUSH1 0x20 PUSH1 0x6 SLOAD PUSH1 0x40 MLOAD SWAP1 DUP2 MSTORE RETURN JUMPDEST CALLVALUE PUSH2 0x218 JUMPI PUSH1 0x20 CALLDATASIZE PUSH1 0x3 NOT ADD SLT PUSH2 0x218 JUMPI PUSH1 0x1 PUSH1 0x1 PUSH1 0xA0 SHL SUB PUSH2 0x8BC PUSH2 0x1D2B JUMP JUMPDEST AND PUSH1 0x0 MSTORE PUSH1 0x4 PUSH1 0x20 MSTORE PUSH1 0x20 PUSH1 0xFF PUSH1 0x40 PUSH1 0x0 KECCAK256 SLOAD AND PUSH1 0x40 MLOAD SWAP1 ISZERO ISZERO DUP2 MSTORE RETURN JUMPDEST CALLVALUE PUSH2 0x218 JUMPI PUSH1 0x0 CALLDATASIZE PUSH1 0x3 NOT ADD SLT PUSH2 0x218 JUMPI PUSH1 0x0 SLOAD PUSH1 0x40 MLOAD PUSH1 0x1 PUSH1 0x1 PUSH1 0xA0 SHL SUB SWAP1 SWAP2 AND DUP2 MSTORE PUSH1 0x20 SWAP1 RETURN JUMPDEST CALLVALUE PUSH2 0x218 JUMPI PUSH1 0x20 CALLDATASIZE PUSH1 0x3 NOT ADD SLT PUSH2 0x218 JUMPI PUSH2 0x91C PUSH2 0x1BC0 JUMP JUMPDEST PUSH1 0x0 SLOAD PUSH1 0x1 PUSH1 0x1 PUSH1 0xA0 SHL SUB AND CALLER SUB PUSH2 0x207 JUMPI PUSH1 0x20 PUSH32 0xE45EEBF975E8498157F15E4245144789293D518243944CE72E49418A0CFA5983 SWAP2 ISZERO ISZERO PUSH1 0xFF NOT PUSH1 0x5 SLOAD AND PUSH1 0xFF DUP3 AND OR PUSH1 0x5 SSTORE PUSH1 0x40 MLOAD SWAP1 DUP2 MSTORE LOG1 STOP JUMPDEST CALLVALUE PUSH2 0x218 JUMPI PUSH1 0x40 CALLDATASIZE PUSH1 0x3 NOT ADD SLT PUSH2 0x218 JUMPI PUSH1 0x4 CALLDATALOAD PUSH1 0xFF DUP2 AND DUP1 SWAP2 SUB PUSH2 0x218 JUMPI PUSH1 0x0 SLOAD PUSH1 0x24 CALLDATALOAD SWAP1 PUSH1 0x1 PUSH1 0x1 PUSH1 0xA0 SHL SUB AND CALLER SUB PUSH2 0x207 JUMPI PUSH1 0x2 DUP3 GT PUSH2 0x330 JUMPI PUSH1 0x3 DUP3 LT ISZERO PUSH2 0x368 JUMPI PUSH32 0x7D63308B92FA01D1151AB58553671D1B5ADE1D78731EB1B099F55AC41EA2464E SWAP2 PUSH1 0x40 SWAP2 DUP2 PUSH1 0xFF NOT PUSH1 0x2 SLOAD AND OR PUSH1 0x2 SSTORE DUP1 PUSH1 0x3 SSTORE DUP3 MLOAD SWAP2 DUP3 MSTORE PUSH1 0x20 DUP3 ADD MSTORE LOG1 STOP JUMPDEST CALLVALUE PUSH2 0x218 JUMPI PUSH1 0x40 CALLDATASIZE PUSH1 0x3 NOT ADD SLT PUSH2 0x218 JUMPI PUSH2 0xA0D PUSH2 0x1D2B JUMP JUMPDEST PUSH2 0xA15 PUSH2 0x1BCF JUMP JUMPDEST PUSH1 0x0 SLOAD SWAP1 SWAP2 SWAP1 PUSH1 0x1 PUSH1 0x1 PUSH1 0xA0 SHL SUB AND CALLER SUB PUSH2 0x207 JUMPI PUSH1 0x1 PUSH1 0x1 PUSH1 0xA0 SHL SUB AND SWAP1 DUP2 ISZERO PUSH2 0x1F6 JUMPI PUSH1 0x20 PUSH32 0x24C9A6B477FFF74DB04905DBC966242385B5B163A4ABD979698A56EA761371DB SWAP2 DUP4 PUSH1 0x0 MSTORE PUSH1 0x1 DUP3 MSTORE PUSH2 0xA80 DUP2 PUSH1 0x40 PUSH1 0x0 KECCAK256 SWAP1 PUSH1 0xFF DUP1 NOT DUP4 SLOAD AND SWAP2 ISZERO ISZERO AND OR SWAP1 SSTORE JUMP JUMPDEST PUSH1 0x40 MLOAD SWAP1 ISZERO ISZERO DUP2 MSTORE LOG2 STOP JUMPDEST CALLVALUE PUSH2 0x218 JUMPI PUSH1 0xA0 CALLDATASIZE PUSH1 0x3 NOT ADD SLT PUSH2 0x218 JUMPI PUSH1 0x4 CALLDATALOAD PUSH1 0x1 PUSH1 0x1 PUSH1 0x40 SHL SUB DUP2 GT PUSH2 0x218 JUMPI PUSH2 0xABB SWAP1 CALLDATASIZE SWAP1 PUSH1 0x4 ADD PUSH2 0x1D41 JUMP JUMPDEST PUSH1 0x24 CALLDATALOAD PUSH1 0x1 PUSH1 0x1 PUSH1 0x40 SHL SUB DUP2 GT PUSH2 0x218 JUMPI PUSH2 0xADA SWAP1 CALLDATASIZE SWAP1 PUSH1 0x4 ADD PUSH2 0x1D41 JUMP JUMPDEST PUSH1 0x44 SWAP3 SWAP2 SWAP3 CALLDATALOAD SWAP4 PUSH1 0x64 CALLDATALOAD PUSH1 0x1 PUSH1 0x1 PUSH1 0x40 SHL SUB DUP2 GT PUSH2 0x218 JUMPI PUSH2 0xB00 SWAP1 CALLDATASIZE SWAP1 PUSH1 0x4 ADD PUSH2 0x1D6E JUMP JUMPDEST SWAP5 SWAP1 SWAP4 PUSH1 0x84 CALLDATALOAD SWAP3 PUSH1 0x1 PUSH1 0x1 PUSH1 0x40 SHL SUB DUP5 AND SWAP6 DUP7 DUP6 SUB PUSH2 0x218 JUMPI PUSH1 0xFF PUSH1 0x0 SLOAD PUSH1 0xA0 SHR AND PUSH2 0x330 JUMPI PUSH1 0x1 PUSH1 0xB SLOAD SUB PUSH2 0x108F JUMPI PUSH1 0x2 PUSH1 0xB SSTORE PUSH1 0x2 SLOAD SWAP7 PUSH1 0xFF DUP9 AND SWAP8 PUSH1 0x3 DUP10 LT ISZERO PUSH2 0x368 JUMPI PUSH1 0x2 DUP10 EQ DUP1 PUSH2 0x1076 JUMPI JUMPDEST PUSH2 0x1065 JUMPI PUSH1 0x1 PUSH1 0x0 SWAP10 EQ PUSH2 0xFB2 JUMPI JUMPDEST POP PUSH1 0x5 DUP10 GT PUSH2 0xFA1 JUMPI DUP1 ISZERO ISZERO SWAP1 DUP2 PUSH2 0xF96 JUMPI JUMPDEST POP PUSH2 0x330 JUMPI PUSH1 0x6 SLOAD SWAP8 PUSH1 0x0 NOT DUP10 EQ PUSH2 0xF80 JUMPI PUSH1 0x1 DUP10 DUP2 ADD PUSH1 0x6 SSTORE PUSH1 0x0 DUP11 DUP2 MSTORE PUSH1 0x7 PUSH1 0x20 MSTORE PUSH1 0x40 SWAP1 KECCAK256 DUP1 SLOAD PUSH1 0x1 PUSH1 0x1 PUSH1 0xA0 SHL SUB NOT AND CALLER OR DUP2 SSTORE SWAP9 SWAP1 DUP10 ADD PUSH1 0x1 PUSH1 0x1 PUSH1 0x40 SHL SUB DUP7 GT PUSH2 0xD70 JUMPI PUSH2 0xBC7 DUP2 SLOAD PUSH2 0x1BDE JUMP JUMPDEST PUSH1 0x1F DUP2 GT PUSH2 0xF38 JUMPI JUMPDEST POP DUP6 PUSH1 0x0 PUSH1 0x1F DUP3 GT PUSH1 0x1 EQ PUSH2 0xED5 JUMPI PUSH1 0x0 SWAP2 PUSH2 0xECA JUMPI JUMPDEST POP DUP7 PUSH1 0x1 SHL SWAP1 PUSH1 0x0 NOT DUP9 PUSH1 0x3 SHL SHR NOT AND OR SWAP1 SSTORE JUMPDEST PUSH1 0x2 DUP10 ADD PUSH1 0x1 PUSH1 0x1 PUSH1 0x40 SHL SUB DUP10 GT PUSH2 0xD70 JUMPI PUSH2 0xC17 DUP2 SLOAD PUSH2 0x1BDE JUMP JUMPDEST PUSH1 0x1F DUP2 GT PUSH2 0xE82 JUMPI JUMPDEST POP DUP9 PUSH1 0x0 PUSH1 0x1F DUP3 GT PUSH1 0x1 EQ PUSH2 0xE1E JUMPI PUSH1 0x0 SWAP2 PUSH2 0xE13 JUMPI JUMPDEST POP DUP10 PUSH1 0x1 SHL SWAP1 PUSH1 0x0 NOT DUP12 PUSH1 0x3 SHL SHR NOT AND OR SWAP1 SSTORE JUMPDEST PUSH1 0x3 DUP10 ADD DUP12 SWAP1 SSTORE PUSH1 0x4 DUP10 ADD DUP1 SLOAD PUSH1 0xFF NOT AND PUSH1 0x1 OR SWAP1 SSTORE PUSH1 0x5 DUP10 ADD DUP1 SLOAD PUSH8 0xFFFFFFFFFFFFFFFF PUSH1 0xA0 SHL NOT AND TIMESTAMP PUSH1 0xA0 DUP2 SWAP1 SHL PUSH8 0xFFFFFFFFFFFFFFFF PUSH1 0xA0 SHL AND SWAP2 SWAP1 SWAP2 OR SWAP1 SWAP2 SSTORE PUSH1 0x6 DUP11 ADD DUP1 SLOAD PUSH1 0x1 PUSH1 0x1 PUSH1 0x80 SHL SUB NOT AND PUSH1 0x1 PUSH1 0x1 PUSH1 0x40 SHL SUB SWAP3 SWAP1 SWAP3 AND SWAP2 SWAP1 SWAP2 OR PUSH1 0x40 DUP10 SWAP1 SHL PUSH8 0xFFFFFFFFFFFFFFFF PUSH1 0x40 SHL AND OR SWAP1 SSTORE PUSH1 0x8 DUP10 ADD SSTORE DUP1 PUSH2 0xD86 JUMPI JUMPDEST POP POP CALLER PUSH1 0x0 MSTORE PUSH1 0x8 PUSH1 0x20 MSTORE PUSH1 0x40 PUSH1 0x0 KECCAK256 SWAP4 DUP5 SLOAD SWAP2 PUSH1 0x1 PUSH1 0x40 SHL DUP4 LT ISZERO PUSH2 0xD70 JUMPI PUSH1 0x20 SWAP10 DUP10 SWAP8 DUP9 PUSH2 0xD43 PUSH2 0xD2C DUP8 PUSH32 0x1E340188EF02ED93224295B9E0A03660720F89CFD12522E974A49B530E346E03 SWAP12 PUSH1 0x1 PUSH2 0xD60 SWAP11 ADD DUP2 SSTORE PUSH2 0x1E09 JUMP JUMPDEST DUP2 SWAP4 SWAP2 SLOAD SWAP1 PUSH1 0x3 SHL SWAP2 DUP3 SHL SWAP2 PUSH1 0x0 NOT SWAP1 SHL NOT AND OR SWAP1 JUMP JUMPDEST SWAP1 SSTORE PUSH2 0xD4E DUP10 PUSH2 0x21FB JUMP JUMPDEST PUSH1 0x40 MLOAD SWAP7 DUP8 SWAP7 PUSH1 0x7 CALLER SWAP13 ADD SWAP5 DUP9 PUSH2 0x1EDE JUMP JUMPDEST SUB SWAP1 LOG3 PUSH1 0x1 PUSH1 0xB SSTORE PUSH1 0x40 MLOAD SWAP1 DUP2 MSTORE RETURN JUMPDEST PUSH4 0x4E487B71 PUSH1 0xE0 SHL PUSH1 0x0 MSTORE PUSH1 0x41 PUSH1 0x4 MSTORE PUSH1 0x24 PUSH1 0x0 REVERT JUMPDEST PUSH2 0xD8F DUP2 PUSH2 0x1E7B JUMP JUMPDEST DUP1 MLOAD PUSH1 0x7 DUP11 ADD SWAP3 SWAP2 PUSH1 0x1 PUSH1 0x1 PUSH1 0x40 SHL SUB DUP3 GT PUSH2 0xD70 JUMPI PUSH1 0x20 SWAP1 PUSH2 0xDB2 DUP4 DUP7 PUSH2 0x1E21 JUMP JUMPDEST ADD DUP4 PUSH1 0x0 MSTORE PUSH1 0x20 PUSH1 0x0 KECCAK256 PUSH1 0x0 JUMPDEST DUP4 DUP2 LT PUSH2 0xDFF JUMPI POP POP POP POP PUSH1 0x0 JUMPDEST DUP2 DUP2 LT PUSH2 0xDDB JUMPI POP POP PUSH2 0xCCF JUMP JUMPDEST DUP1 PUSH2 0xDE9 PUSH1 0x1 SWAP3 DUP5 DUP8 PUSH2 0x1EAD JUMP JUMPDEST CALLDATALOAD PUSH2 0xDF7 PUSH2 0xD2C DUP4 DUP8 PUSH2 0x1E09 JUMP JUMPDEST SWAP1 SSTORE ADD PUSH2 0xDCD JUMP JUMPDEST PUSH1 0x1 SWAP1 PUSH1 0x20 DUP5 MLOAD SWAP5 ADD SWAP4 DUP2 DUP5 ADD SSTORE ADD PUSH2 0xDBF JUMP JUMPDEST SWAP1 POP DUP8 ADD CALLDATALOAD DUP14 PUSH2 0xC37 JUMP JUMPDEST DUP3 DUP2 MSTORE PUSH1 0x20 DUP2 KECCAK256 SWAP2 POP DUP11 PUSH1 0x1F NOT DUP2 AND DUP3 JUMPDEST DUP12 DUP3 DUP3 LT PUSH2 0xE68 JUMPI POP POP LT PUSH2 0xE4E JUMPI JUMPDEST POP POP PUSH1 0x1 DUP10 DUP2 SHL ADD SWAP1 SSTORE PUSH2 0xC4B JUMP JUMPDEST DUP9 ADD CALLDATALOAD PUSH1 0x0 NOT PUSH1 0x3 DUP13 SWAP1 SHL PUSH1 0xF8 AND SHR NOT AND SWAP1 SSTORE DUP13 DUP1 PUSH2 0xE3F JUMP JUMPDEST DUP5 ADD CALLDATALOAD DUP6 SSTORE PUSH1 0x1 SWAP1 SWAP5 ADD SWAP4 PUSH1 0x20 SWAP4 DUP5 ADD SWAP4 DUP15 SWAP4 POP ADD PUSH2 0xE2F JUMP JUMPDEST DUP2 PUSH1 0x0 MSTORE PUSH1 0x20 PUSH1 0x0 KECCAK256 PUSH1 0x1F DUP12 ADD PUSH1 0x5 SHR DUP2 ADD SWAP2 PUSH1 0x20 DUP13 LT PUSH2 0xEC0 JUMPI JUMPDEST PUSH1 0x1F ADD PUSH1 0x5 SHR ADD SWAP1 JUMPDEST DUP2 DUP2 LT PUSH2 0xEB4 JUMPI POP PUSH2 0xC20 JUMP JUMPDEST PUSH1 0x0 DUP2 SSTORE PUSH1 0x1 ADD PUSH2 0xEA7 JUMP JUMPDEST SWAP1 SWAP2 POP DUP2 SWAP1 PUSH2 0xE9E JUMP JUMPDEST SWAP1 POP DUP6 ADD CALLDATALOAD DUP14 PUSH2 0xBE7 JUMP JUMPDEST DUP3 DUP2 MSTORE PUSH1 0x20 DUP2 KECCAK256 SWAP2 POP DUP8 PUSH1 0x1F NOT DUP2 AND DUP3 JUMPDEST DUP2 DUP2 LT PUSH2 0xF1D JUMPI POP LT PUSH2 0xF03 JUMPI JUMPDEST POP POP PUSH1 0x1 DUP7 DUP2 SHL ADD SWAP1 SSTORE PUSH2 0xBFB JUMP JUMPDEST DUP7 ADD CALLDATALOAD PUSH1 0x0 NOT PUSH1 0x3 DUP10 SWAP1 SHL PUSH1 0xF8 AND SHR NOT AND SWAP1 SSTORE DUP13 DUP1 PUSH2 0xEF4 JUMP JUMPDEST DUP10 DUP5 ADD CALLDATALOAD DUP6 SSTORE PUSH1 0x1 SWAP1 SWAP5 ADD SWAP4 PUSH1 0x20 SWAP4 DUP5 ADD SWAP4 DUP12 SWAP4 POP ADD PUSH2 0xEE6 JUMP JUMPDEST DUP2 PUSH1 0x0 MSTORE PUSH1 0x20 PUSH1 0x0 KECCAK256 PUSH1 0x1F DUP9 ADD PUSH1 0x5 SHR DUP2 ADD SWAP2 PUSH1 0x20 DUP10 LT PUSH2 0xF76 JUMPI JUMPDEST PUSH1 0x1F ADD PUSH1 0x5 SHR ADD SWAP1 JUMPDEST DUP2 DUP2 LT PUSH2 0xF6A JUMPI POP PUSH2 0xBD0 JUMP JUMPDEST PUSH1 0x0 DUP2 SSTORE PUSH1 0x1 ADD PUSH2 0xF5D JUMP JUMPDEST SWAP1 SWAP2 POP DUP2 SWAP1 PUSH2 0xF54 JUMP JUMPDEST PUSH4 0x4E487B71 PUSH1 0xE0 SHL PUSH1 0x0 MSTORE PUSH1 0x11 PUSH1 0x4 MSTORE PUSH1 0x24 PUSH1 0x0 REVERT JUMPDEST SWAP1 POP TIMESTAMP LT ISZERO DUP11 PUSH2 0xB73 JUMP JUMPDEST PUSH4 0xEE39E855 PUSH1 0xE0 SHL PUSH1 0x0 MSTORE PUSH1 0x4 PUSH1 0x0 REVERT JUMPDEST PUSH1 0x8 SHR PUSH1 0x1 PUSH1 0x1 PUSH1 0xA0 SHL SUB AND DUP1 ISZERO PUSH2 0x1056 JUMPI PUSH1 0x3 SLOAD SWAP9 DUP10 ISZERO PUSH2 0x1047 JUMPI POP PUSH1 0x20 PUSH1 0x0 SWAP2 PUSH1 0x64 DUP12 PUSH1 0x40 MLOAD SWAP5 DUP6 SWAP4 DUP5 SWAP3 PUSH4 0x23B872DD PUSH1 0xE0 SHL DUP5 MSTORE CALLER PUSH1 0x4 DUP6 ADD MSTORE ADDRESS PUSH1 0x24 DUP6 ADD MSTORE PUSH1 0x44 DUP5 ADD MSTORE GAS CALL SWAP1 DUP2 ISZERO PUSH2 0x43A JUMPI PUSH1 0x0 SWAP2 PUSH2 0x1028 JUMPI JUMPDEST POP ISZERO PUSH2 0x1017 JUMPI DUP11 PUSH2 0xB60 JUMP JUMPDEST PUSH4 0x501C2AAF PUSH1 0xE0 SHL PUSH1 0x0 MSTORE PUSH1 0x4 PUSH1 0x0 REVERT JUMPDEST PUSH2 0x1041 SWAP2 POP PUSH1 0x20 RETURNDATASIZE PUSH1 0x20 GT PUSH2 0x433 JUMPI PUSH2 0x429 DUP2 DUP4 PUSH2 0x1C18 JUMP JUMPDEST DUP12 PUSH2 0x100B JUMP JUMPDEST PUSH4 0x501C2AAF PUSH1 0xE0 SHL DUP2 MSTORE PUSH1 0x4 SWAP1 REVERT JUMPDEST PUSH4 0xE92EEBEF PUSH1 0xE0 SHL DUP10 MSTORE PUSH1 0x4 DUP10 REVERT JUMPDEST PUSH4 0x3B529A97 PUSH1 0xE1 SHL PUSH1 0x0 MSTORE PUSH1 0x4 PUSH1 0x0 REVERT JUMPDEST POP CALLER PUSH1 0x0 MSTORE PUSH1 0x4 PUSH1 0x20 MSTORE PUSH1 0xFF PUSH1 0x40 PUSH1 0x0 KECCAK256 SLOAD AND ISZERO PUSH2 0xB51 JUMP JUMPDEST PUSH4 0x558A1E03 PUSH1 0xE1 SHL PUSH1 0x0 MSTORE PUSH1 0x4 PUSH1 0x0 REVERT JUMPDEST CALLVALUE PUSH2 0x218 JUMPI PUSH1 0x0 CALLDATASIZE PUSH1 0x3 NOT ADD SLT PUSH2 0x218 JUMPI PUSH1 0x20 PUSH1 0xFF PUSH1 0x0 SLOAD PUSH1 0xA0 SHR AND PUSH1 0x40 MLOAD SWAP1 ISZERO ISZERO DUP2 MSTORE RETURN JUMPDEST CALLVALUE PUSH2 0x218 JUMPI PUSH1 0x0 CALLDATASIZE PUSH1 0x3 NOT ADD SLT PUSH2 0x218 JUMPI PUSH1 0xFF PUSH1 0x2 SLOAD AND PUSH1 0x40 MLOAD PUSH1 0x3 DUP3 LT ISZERO PUSH2 0x368 JUMPI PUSH1 0x20 SWAP2 DUP2 MSTORE RETURN JUMPDEST CALLVALUE PUSH2 0x218 JUMPI PUSH1 0x20 CALLDATASIZE PUSH1 0x3 NOT ADD SLT PUSH2 0x218 JUMPI PUSH1 0x1 PUSH1 0x1 PUSH1 0xA0 SHL SUB PUSH2 0x1111 PUSH2 0x1D2B JUMP JUMPDEST AND PUSH1 0x0 MSTORE PUSH1 0x8 PUSH1 0x20 MSTORE PUSH1 0x20 PUSH1 0x40 PUSH1 0x0 KECCAK256 SLOAD PUSH1 0x40 MLOAD SWAP1 DUP2 MSTORE RETURN JUMPDEST CALLVALUE PUSH2 0x218 JUMPI PUSH1 0x40 CALLDATASIZE PUSH1 0x3 NOT ADD SLT PUSH2 0x218 JUMPI PUSH2 0x1143 PUSH2 0x1D2B JUMP JUMPDEST PUSH2 0x114B PUSH2 0x1BCF JUMP JUMPDEST SWAP1 PUSH1 0x1 DUP1 PUSH1 0xA0 SHL SUB PUSH1 0x0 SLOAD AND CALLER EQ ISZERO DUP1 PUSH2 0x11BA JUMPI JUMPDEST PUSH2 0x632 JUMPI PUSH1 0x1 PUSH1 0x1 PUSH1 0xA0 SHL SUB AND SWAP1 DUP2 ISZERO PUSH2 0x1F6 JUMPI PUSH1 0x20 PUSH32 0x97B4072981AD9B2269406FF8CC9D70C26AFD27CEA67B75E2573B8710A5E880C9 SWAP2 DUP4 PUSH1 0x0 MSTORE PUSH1 0x4 DUP3 MSTORE PUSH2 0xA80 DUP2 PUSH1 0x40 PUSH1 0x0 KECCAK256 SWAP1 PUSH1 0xFF DUP1 NOT DUP4 SLOAD AND SWAP2 ISZERO ISZERO AND OR SWAP1 SSTORE JUMP JUMPDEST POP CALLER PUSH1 0x0 MSTORE PUSH1 0x1 PUSH1 0x20 MSTORE PUSH1 0xFF PUSH1 0x40 PUSH1 0x0 KECCAK256 SLOAD AND ISZERO PUSH2 0x1160 JUMP JUMPDEST CALLVALUE PUSH2 0x218 JUMPI PUSH1 0xC0 CALLDATASIZE PUSH1 0x3 NOT ADD SLT PUSH2 0x218 JUMPI PUSH1 0x4 CALLDATALOAD PUSH1 0x24 CALLDATALOAD PUSH1 0x1 PUSH1 0x1 PUSH1 0x40 SHL SUB DUP2 GT PUSH2 0x218 JUMPI PUSH2 0x1206 SWAP1 CALLDATASIZE SWAP1 PUSH1 0x4 ADD PUSH2 0x1D41 JUMP JUMPDEST PUSH1 0x44 SWAP3 SWAP2 SWAP3 CALLDATALOAD PUSH1 0x1 PUSH1 0x1 PUSH1 0x40 SHL SUB DUP2 GT PUSH2 0x218 JUMPI PUSH2 0x1228 SWAP1 CALLDATASIZE SWAP1 PUSH1 0x4 ADD PUSH2 0x1D41 JUMP JUMPDEST PUSH1 0x64 SWAP5 SWAP2 SWAP5 CALLDATALOAD PUSH1 0x84 CALLDATALOAD PUSH1 0x1 PUSH1 0x1 PUSH1 0x40 SHL SUB DUP2 GT PUSH2 0x218 JUMPI PUSH2 0x124D SWAP1 CALLDATASIZE SWAP1 PUSH1 0x4 ADD PUSH2 0x1D6E JUMP JUMPDEST SWAP3 SWAP1 SWAP7 PUSH1 0xA4 CALLDATALOAD SWAP8 PUSH1 0x1 PUSH1 0x1 PUSH1 0x40 SHL SUB DUP10 AND DUP1 DUP11 SUB PUSH2 0x218 JUMPI PUSH1 0xFF PUSH1 0x0 SLOAD PUSH1 0xA0 SHR AND PUSH2 0x330 JUMPI PUSH1 0x0 DUP10 DUP2 MSTORE PUSH1 0x7 PUSH1 0x20 MSTORE PUSH1 0x40 SWAP1 KECCAK256 SLOAD PUSH1 0x1 PUSH1 0x1 PUSH1 0xA0 SHL SUB AND DUP1 ISZERO PUSH2 0x38F JUMPI CALLER SUB PUSH2 0x37E JUMPI DUP9 PUSH1 0x0 MSTORE PUSH1 0x7 PUSH1 0x20 MSTORE PUSH1 0x40 PUSH1 0x0 KECCAK256 SWAP1 PUSH1 0xFF PUSH1 0x4 DUP4 ADD SLOAD AND PUSH1 0x6 DUP2 LT ISZERO PUSH2 0x368 JUMPI PUSH1 0x1 SUB PUSH2 0x162D JUMPI PUSH1 0x5 DUP8 GT PUSH2 0xFA1 JUMPI DUP1 ISZERO ISZERO SWAP1 DUP2 PUSH2 0x1622 JUMPI JUMPDEST POP PUSH2 0x330 JUMPI PUSH1 0x1 DUP2 ADD PUSH1 0x1 PUSH1 0x1 PUSH1 0x40 SHL SUB DUP10 GT PUSH2 0xD70 JUMPI PUSH2 0x12F0 DUP2 SLOAD PUSH2 0x1BDE JUMP JUMPDEST PUSH1 0x1F DUP2 GT PUSH2 0x15DA JUMPI JUMPDEST POP DUP9 PUSH1 0x0 PUSH1 0x1F DUP3 GT PUSH1 0x1 EQ PUSH2 0x1576 JUMPI PUSH1 0x0 SWAP2 PUSH2 0x156B JUMPI JUMPDEST POP DUP10 PUSH1 0x1 SHL SWAP1 PUSH1 0x0 NOT DUP12 PUSH1 0x3 SHL SHR NOT AND OR SWAP1 SSTORE JUMPDEST PUSH1 0x2 DUP2 ADD SWAP1 PUSH1 0x1 PUSH1 0x1 PUSH1 0x40 SHL SUB DUP6 GT PUSH2 0xD70 JUMPI PUSH2 0x1341 DUP3 SLOAD PUSH2 0x1BDE JUMP JUMPDEST PUSH1 0x1F DUP2 GT PUSH2 0x1523 JUMPI JUMPDEST POP PUSH1 0x0 SWAP2 DUP6 PUSH1 0x1F DUP2 GT PUSH1 0x1 EQ PUSH2 0x14BB JUMPI PUSH1 0x7 SWAP4 PUSH1 0x0 SWAP2 PUSH2 0x14B0 JUMPI JUMPDEST POP DUP7 PUSH1 0x1 SHL SWAP1 PUSH1 0x0 NOT DUP9 PUSH1 0x3 SHL SHR NOT AND OR SWAP1 SSTORE JUMPDEST PUSH1 0x3 DUP2 ADD DUP7 SWAP1 SSTORE PUSH1 0x6 DUP2 ADD DUP1 SLOAD PUSH1 0x1 PUSH1 0x1 PUSH1 0x80 SHL SUB NOT AND TIMESTAMP PUSH1 0x1 PUSH1 0x1 PUSH1 0x40 SHL SUB AND OR PUSH1 0x40 DUP14 SWAP1 SHL PUSH8 0xFFFFFFFFFFFFFFFF PUSH1 0x40 SHL AND OR SWAP1 SSTORE ADD SWAP5 DUP6 SLOAD PUSH1 0x0 DUP8 SSTORE DUP1 PUSH2 0x1489 JUMPI JUMPDEST POP DUP1 PUSH2 0x1402 JUMPI JUMPDEST POP POP SWAP2 PUSH2 0x13FD SWAP4 SWAP2 PUSH32 0xF9CDEB830204E1E6135FB07822AAAC23761D75003D5DDE41BCB94FA818C1B521 SWAP8 SWAP9 SWAP4 PUSH1 0x40 MLOAD SWAP8 DUP9 SWAP8 DUP9 PUSH2 0x1EDE JUMP JUMPDEST SUB SWAP1 LOG2 STOP JUMPDEST PUSH2 0x140B DUP2 PUSH2 0x1E7B JUMP JUMPDEST DUP1 MLOAD SWAP1 PUSH1 0x1 PUSH1 0x1 PUSH1 0x40 SHL SUB DUP3 GT PUSH2 0xD70 JUMPI PUSH1 0x20 SWAP1 PUSH2 0x1429 DUP4 DUP11 PUSH2 0x1E21 JUMP JUMPDEST ADD DUP8 PUSH1 0x0 MSTORE PUSH1 0x20 PUSH1 0x0 KECCAK256 PUSH1 0x0 JUMPDEST DUP4 DUP2 LT PUSH2 0x1475 JUMPI POP POP POP POP PUSH1 0x0 JUMPDEST DUP2 DUP2 LT PUSH2 0x1451 JUMPI POP PUSH2 0x13C5 JUMP JUMPDEST DUP1 PUSH2 0x145F PUSH1 0x1 SWAP3 DUP5 DUP7 PUSH2 0x1EAD JUMP JUMPDEST CALLDATALOAD PUSH2 0x146D PUSH2 0xD2C DUP4 DUP12 PUSH2 0x1E09 JUMP JUMPDEST SWAP1 SSTORE ADD PUSH2 0x1444 JUMP JUMPDEST PUSH1 0x1 SWAP1 PUSH1 0x20 DUP5 MLOAD SWAP5 ADD SWAP4 DUP2 DUP5 ADD SSTORE ADD PUSH2 0x1436 JUMP JUMPDEST DUP7 PUSH1 0x0 MSTORE PUSH1 0x20 PUSH1 0x0 KECCAK256 SWAP1 DUP2 ADD SWAP1 JUMPDEST DUP2 DUP2 LT PUSH2 0x14A4 JUMPI POP PUSH2 0x13BE JUMP JUMPDEST PUSH1 0x0 DUP2 SSTORE PUSH1 0x1 ADD PUSH2 0x1497 JUMP JUMPDEST SWAP1 POP DUP6 ADD CALLDATALOAD DUP14 PUSH2 0x1365 JUMP JUMPDEST POP DUP1 DUP4 MSTORE PUSH1 0x20 DUP4 KECCAK256 DUP4 DUP8 PUSH1 0x1F NOT DUP2 AND JUMPDEST DUP1 DUP8 LT PUSH2 0x1505 JUMPI PUSH1 0x7 SWAP7 POP LT PUSH2 0x14EB JUMPI JUMPDEST POP POP PUSH1 0x1 DUP7 DUP2 SHL ADD SWAP1 SSTORE PUSH2 0x1379 JUMP JUMPDEST DUP7 ADD CALLDATALOAD PUSH1 0x0 NOT PUSH1 0x3 DUP10 SWAP1 SHL PUSH1 0xF8 AND SHR NOT AND SWAP1 SSTORE DUP13 DUP1 PUSH2 0x14DC JUMP JUMPDEST DUP9 DUP4 ADD CALLDATALOAD DUP5 SSTORE PUSH1 0x20 SWAP7 DUP8 ADD SWAP7 PUSH1 0x1 SWAP1 SWAP5 ADD SWAP4 SWAP1 SWAP3 ADD SWAP2 DUP10 SWAP2 POP PUSH2 0x14CB JUMP JUMPDEST DUP3 PUSH1 0x0 MSTORE PUSH1 0x20 PUSH1 0x0 KECCAK256 PUSH1 0x1F DUP8 ADD PUSH1 0x5 SHR DUP2 ADD SWAP2 PUSH1 0x20 DUP9 LT PUSH2 0x1561 JUMPI JUMPDEST PUSH1 0x1F ADD PUSH1 0x5 SHR ADD SWAP1 JUMPDEST DUP2 DUP2 LT PUSH2 0x1555 JUMPI POP PUSH2 0x134A JUMP JUMPDEST PUSH1 0x0 DUP2 SSTORE PUSH1 0x1 ADD PUSH2 0x1548 JUMP JUMPDEST SWAP1 SWAP2 POP DUP2 SWAP1 PUSH2 0x153F JUMP JUMPDEST SWAP1 POP DUP9 ADD CALLDATALOAD DUP13 PUSH2 0x1310 JUMP JUMPDEST DUP3 DUP2 MSTORE PUSH1 0x20 DUP2 KECCAK256 SWAP2 POP DUP11 PUSH1 0x1F NOT DUP2 AND DUP3 JUMPDEST DUP13 DUP3 DUP3 LT PUSH2 0x15C0 JUMPI POP POP LT PUSH2 0x15A6 JUMPI JUMPDEST POP POP PUSH1 0x1 DUP10 DUP2 SHL ADD SWAP1 SSTORE PUSH2 0x1324 JUMP JUMPDEST DUP10 ADD CALLDATALOAD PUSH1 0x0 NOT PUSH1 0x3 DUP13 SWAP1 SHL PUSH1 0xF8 AND SHR NOT AND SWAP1 SSTORE DUP12 DUP1 PUSH2 0x1597 JUMP JUMPDEST DUP5 ADD CALLDATALOAD DUP6 SSTORE PUSH1 0x1 SWAP1 SWAP5 ADD SWAP4 PUSH1 0x20 SWAP4 DUP5 ADD SWAP4 DUP15 SWAP4 POP ADD PUSH2 0x1587 JUMP JUMPDEST DUP2 PUSH1 0x0 MSTORE PUSH1 0x20 PUSH1 0x0 KECCAK256 PUSH1 0x1F DUP12 ADD PUSH1 0x5 SHR DUP2 ADD SWAP2 PUSH1 0x20 DUP13 LT PUSH2 0x1618 JUMPI JUMPDEST PUSH1 0x1F ADD PUSH1 0x5 SHR ADD SWAP1 JUMPDEST DUP2 DUP2 LT PUSH2 0x160C JUMPI POP PUSH2 0x12F9 JUMP JUMPDEST PUSH1 0x0 DUP2 SSTORE PUSH1 0x1 ADD PUSH2 0x15FF JUMP JUMPDEST SWAP1 SWAP2 POP DUP2 SWAP1 PUSH2 0x15F6 JUMP JUMPDEST SWAP1 POP TIMESTAMP LT ISZERO DUP12 PUSH2 0x12CF JUMP JUMPDEST PUSH4 0x1BB5F5B3 PUSH1 0xE3 SHL PUSH1 0x0 MSTORE PUSH1 0x4 PUSH1 0x0 REVERT JUMPDEST CALLVALUE PUSH2 0x218 JUMPI PUSH1 0x20 CALLDATASIZE PUSH1 0x3 NOT ADD SLT PUSH2 0x218 JUMPI PUSH1 0x1 PUSH1 0x1 PUSH1 0xA0 SHL SUB PUSH2 0x165F PUSH2 0x1D2B JUMP JUMPDEST AND PUSH1 0x0 MSTORE PUSH1 0x1 PUSH1 0x20 MSTORE PUSH1 0x20 PUSH1 0xFF PUSH1 0x40 PUSH1 0x0 KECCAK256 SLOAD AND PUSH1 0x40 MLOAD SWAP1 ISZERO ISZERO DUP2 MSTORE RETURN JUMPDEST CALLVALUE PUSH2 0x218 JUMPI PUSH1 0x0 CALLDATASIZE PUSH1 0x3 NOT ADD SLT PUSH2 0x218 JUMPI PUSH1 0x20 PUSH1 0xFF PUSH1 0x5 SLOAD AND PUSH1 0x40 MLOAD SWAP1 ISZERO ISZERO DUP2 MSTORE RETURN JUMPDEST CALLVALUE PUSH2 0x218 JUMPI PUSH1 0x0 CALLDATASIZE PUSH1 0x3 NOT ADD SLT PUSH2 0x218 JUMPI PUSH1 0x2 SLOAD PUSH1 0x40 MLOAD PUSH1 0x8 SWAP2 SWAP1 SWAP2 SHR PUSH1 0x1 PUSH1 0x1 PUSH1 0xA0 SHL SUB AND DUP2 MSTORE PUSH1 0x20 SWAP1 RETURN JUMPDEST CALLVALUE PUSH2 0x218 JUMPI PUSH1 0x20 CALLDATASIZE PUSH1 0x3 NOT ADD SLT PUSH2 0x218 JUMPI PUSH1 0x4 CALLDATALOAD PUSH1 0x0 DUP2 DUP2 MSTORE PUSH1 0x7 PUSH1 0x20 MSTORE PUSH1 0x40 SWAP1 KECCAK256 DUP1 SLOAD PUSH1 0x1 PUSH1 0x1 PUSH1 0xA0 SHL SUB AND ISZERO PUSH2 0x38F JUMPI PUSH1 0x4 DUP2 ADD SWAP1 PUSH1 0xFF DUP3 SLOAD AND PUSH1 0x6 DUP2 LT ISZERO PUSH2 0x368 JUMPI PUSH1 0x1 SUB PUSH2 0x162D JUMPI PUSH1 0x6 ADD PUSH1 0x1 PUSH1 0x1 PUSH1 0x40 SHL SUB DUP2 SLOAD PUSH1 0x40 SHR AND DUP1 ISZERO SWAP1 DUP2 ISZERO PUSH2 0x17A6 JUMPI JUMPDEST POP PUSH2 0x1795 JUMPI PUSH1 0x1 PUSH1 0x1 PUSH1 0x40 SHL SUB PUSH1 0x20 SWAP2 PUSH32 0xE77A20B7941129ACBB78A11F4D13C89EC2C9D5D36D21F0F7083E304C3E4338C9 SWAP4 PUSH1 0x5 PUSH1 0xFF NOT DUP3 SLOAD AND OR SWAP1 SSTORE DUP2 DUP1 TIMESTAMP AND AND DUP3 NOT DUP3 SLOAD AND OR DUP2 SSTORE PUSH2 0x1787 DUP6 PUSH2 0x20BA JUMP JUMPDEST SLOAD PUSH1 0x40 SHR AND PUSH1 0x40 MLOAD SWAP1 DUP2 MSTORE LOG2 STOP JUMPDEST PUSH4 0xD0404F85 PUSH1 0xE0 SHL PUSH1 0x0 MSTORE PUSH1 0x4 PUSH1 0x0 REVERT JUMPDEST SWAP1 POP TIMESTAMP LT DUP5 PUSH2 0x1734 JUMP JUMPDEST CALLVALUE PUSH2 0x218 JUMPI PUSH1 0x0 CALLDATASIZE PUSH1 0x3 NOT ADD SLT PUSH2 0x218 JUMPI PUSH1 0x20 PUSH1 0x9 SLOAD PUSH1 0x40 MLOAD SWAP1 DUP2 MSTORE RETURN JUMPDEST CALLVALUE PUSH2 0x218 JUMPI PUSH1 0x60 CALLDATASIZE PUSH1 0x3 NOT ADD SLT PUSH2 0x218 JUMPI PUSH1 0x24 CALLDATALOAD PUSH1 0x1 PUSH1 0x1 PUSH1 0xA0 SHL SUB DUP2 AND SWAP1 PUSH1 0x4 CALLDATALOAD DUP3 DUP3 SUB PUSH2 0x218 JUMPI PUSH1 0x44 CALLDATALOAD PUSH1 0x1 PUSH1 0x1 PUSH1 0xA0 SHL SUB DUP2 AND SWAP3 SWAP1 DUP4 SWAP1 SUB PUSH2 0x218 JUMPI PUSH1 0xFF PUSH1 0x0 SLOAD PUSH1 0xA0 SHR AND PUSH2 0x330 JUMPI CALLER PUSH1 0x0 MSTORE PUSH1 0x1 PUSH1 0x20 MSTORE PUSH1 0xFF PUSH1 0x40 PUSH1 0x0 KECCAK256 SLOAD AND ISZERO PUSH2 0x632 JUMPI PUSH1 0x1 PUSH1 0xB SLOAD SUB PUSH2 0x108F JUMPI PUSH1 0x2 PUSH1 0xB SSTORE DUP4 ISZERO DUP1 ISZERO PUSH2 0x194A JUMPI JUMPDEST PUSH2 0x1F6 JUMPI PUSH1 0x0 DUP3 DUP2 MSTORE PUSH1 0x7 PUSH1 0x20 MSTORE PUSH1 0x40 SWAP1 KECCAK256 DUP1 SLOAD SWAP1 SWAP2 SWAP1 PUSH1 0x1 PUSH1 0x1 PUSH1 0xA0 SHL SUB AND ISZERO PUSH2 0x38F JUMPI PUSH1 0x4 DUP3 ADD SWAP2 PUSH1 0xFF DUP4 SLOAD AND PUSH1 0x6 DUP2 LT ISZERO PUSH2 0x368 JUMPI PUSH1 0x1 SUB PUSH2 0x1939 JUMPI DUP3 SLOAD PUSH2 0x100 PUSH1 0x1 PUSH1 0xA8 SHL SUB NOT AND PUSH1 0x8 SWAP3 SWAP1 SWAP3 SHL PUSH2 0x100 PUSH1 0x1 PUSH1 0xA8 SHL SUB AND SWAP2 SWAP1 SWAP2 OR DUP3 SSTORE PUSH1 0x5 DUP2 ADD DUP1 SLOAD PUSH1 0x1 PUSH1 0x1 PUSH1 0xA0 SHL SUB NOT AND DUP6 OR SWAP1 SSTORE DUP2 SLOAD PUSH1 0xFF NOT AND PUSH1 0x2 OR SWAP1 SWAP2 SSTORE PUSH1 0x6 DUP2 ADD DUP1 SLOAD PUSH8 0xFFFFFFFFFFFFFFFF NOT AND TIMESTAMP PUSH1 0x1 PUSH1 0x1 PUSH1 0x40 SHL SUB AND OR SWAP1 SSTORE PUSH32 0x18D75305648A74597B581F82D18A431CB8A7DDBF7A7131CEB3E9E5343ED77089 SWAP1 PUSH1 0x20 SWAP1 PUSH2 0x1917 DUP5 PUSH2 0x20BA JUMP JUMPDEST PUSH2 0x1920 DUP2 PUSH2 0x217C JUMP JUMPDEST SLOAD PUSH1 0x40 MLOAD SWAP5 DUP6 MSTORE PUSH1 0x1 PUSH1 0x1 PUSH1 0xA0 SHL SUB AND SWAP4 LOG4 PUSH1 0x1 PUSH1 0xB SSTORE STOP JUMPDEST PUSH4 0x5E78C1E5 PUSH1 0xE0 SHL PUSH1 0x0 MSTORE PUSH1 0x4 PUSH1 0x0 REVERT JUMPDEST POP DUP3 ISZERO PUSH2 0x1849 JUMP JUMPDEST CALLVALUE PUSH2 0x218 JUMPI PUSH1 0x0 CALLDATASIZE PUSH1 0x3 NOT ADD SLT PUSH2 0x218 JUMPI PUSH1 0x20 PUSH1 0x3 SLOAD PUSH1 0x40 MLOAD SWAP1 DUP2 MSTORE RETURN JUMPDEST CALLVALUE PUSH2 0x218 JUMPI PUSH1 0x20 CALLDATASIZE PUSH1 0x3 NOT ADD SLT PUSH2 0x218 JUMPI PUSH1 0x4 CALLDATALOAD PUSH1 0xFF PUSH1 0x0 SLOAD PUSH1 0xA0 SHR AND PUSH2 0x330 JUMPI PUSH1 0x0 DUP2 DUP2 MSTORE PUSH1 0x7 PUSH1 0x20 MSTORE PUSH1 0x40 SWAP1 KECCAK256 SLOAD PUSH1 0x1 PUSH1 0x1 PUSH1 0xA0 SHL SUB AND DUP1 ISZERO PUSH2 0x38F JUMPI CALLER SUB PUSH2 0x37E JUMPI PUSH1 0x1 PUSH1 0xB SLOAD SUB PUSH2 0x108F JUMPI PUSH1 0x2 PUSH1 0xB SSTORE DUP1 PUSH1 0x0 MSTORE PUSH1 0x7 PUSH1 0x20 MSTORE PUSH1 0x40 PUSH1 0x0 KECCAK256 PUSH1 0x4 DUP2 ADD PUSH1 0xFF DUP2 SLOAD AND PUSH1 0x6 DUP2 LT ISZERO PUSH2 0x368 JUMPI PUSH1 0x1 SUB PUSH2 0x162D JUMPI DUP1 SLOAD PUSH1 0xFF NOT AND PUSH1 0x3 OR SWAP1 SSTORE PUSH1 0x6 DUP2 ADD DUP1 SLOAD PUSH8 0xFFFFFFFFFFFFFFFF NOT AND TIMESTAMP PUSH1 0x1 PUSH1 0x1 PUSH1 0x40 SHL SUB AND OR SWAP1 SSTORE PUSH2 0x1A1D DUP3 PUSH2 0x20BA JUMP JUMPDEST PUSH2 0x1A26 DUP2 PUSH2 0x217C JUMP JUMPDEST SLOAD PUSH1 0x1 PUSH1 0x1 PUSH1 0xA0 SHL SUB AND SWAP1 PUSH32 0xF1AB0865975DAD5C69AE8E4BAAF13114C875728AFA7CC86368534C22A631D0B0 PUSH1 0x0 DUP1 LOG3 PUSH1 0x1 PUSH1 0xB SSTORE STOP JUMPDEST CALLVALUE PUSH2 0x218 JUMPI PUSH1 0x20 CALLDATASIZE PUSH1 0x3 NOT ADD SLT PUSH2 0x218 JUMPI PUSH1 0x4 CALLDATALOAD PUSH1 0x0 SWAP1 DUP2 MSTORE PUSH1 0x7 PUSH1 0x20 MSTORE PUSH1 0x40 SWAP1 KECCAK256 DUP1 SLOAD PUSH1 0x1 PUSH1 0x1 PUSH1 0xA0 SHL SUB AND PUSH2 0x1A96 PUSH1 0x1 DUP4 ADD PUSH2 0x1C39 JUMP JUMPDEST SWAP2 PUSH2 0x1AA3 PUSH1 0x2 DUP3 ADD PUSH2 0x1C39 JUMP JUMPDEST PUSH1 0x1 PUSH1 0x1 PUSH1 0x40 SHL SUB PUSH1 0x3 DUP4 ADD SLOAD SWAP3 DUP2 PUSH1 0x4 DUP3 ADD SLOAD PUSH1 0x5 DUP4 ADD SLOAD SWAP1 PUSH2 0x1AF7 PUSH1 0x8 PUSH1 0x6 DUP7 ADD SLOAD SWAP6 ADD SLOAD SWAP7 PUSH2 0x1AE9 PUSH1 0x40 MLOAD SWAP12 DUP13 SWAP12 DUP13 MSTORE PUSH2 0x160 PUSH1 0x20 DUP14 ADD MSTORE PUSH2 0x160 DUP13 ADD SWAP1 PUSH2 0x1CDD JUMP JUMPDEST SWAP1 DUP11 DUP3 SUB PUSH1 0x40 DUP13 ADD MSTORE PUSH2 0x1CDD JUMP JUMPDEST SWAP7 PUSH1 0x60 DUP10 ADD MSTORE PUSH2 0x1B0D PUSH1 0x80 DUP10 ADD PUSH1 0xFF DUP4 AND PUSH2 0x1D1E JUMP JUMPDEST PUSH1 0x8 SHR PUSH1 0x1 PUSH1 0x1 PUSH1 0xA0 SHL SUB SWAP1 DUP2 AND PUSH1 0xA0 DUP10 DUP2 ADD SWAP2 SWAP1 SWAP2 MSTORE SWAP1 DUP3 AND PUSH1 0xC0 DUP10 ADD MSTORE SHR AND PUSH1 0xE0 DUP7 ADD MSTORE DUP1 DUP3 AND PUSH2 0x100 DUP7 ADD MSTORE PUSH1 0x40 SHR AND PUSH2 0x120 DUP5 ADD MSTORE PUSH2 0x140 DUP4 ADD MSTORE SUB SWAP1 RETURN JUMPDEST CALLVALUE PUSH2 0x218 JUMPI PUSH1 0x20 CALLDATASIZE PUSH1 0x3 NOT ADD SLT PUSH2 0x218 JUMPI PUSH2 0x1B69 PUSH2 0x1BC0 JUMP JUMPDEST PUSH1 0x0 SLOAD SWAP2 PUSH1 0x1 PUSH1 0x1 PUSH1 0xA0 SHL SUB DUP4 AND CALLER SUB PUSH2 0x207 JUMPI PUSH32 0x40DB37FF5C0BDC2C427FBB2078C8F24AFEA940ABAC0E3C23BB4EA3BF2DA2B212 SWAP3 PUSH1 0x20 SWAP3 ISZERO ISZERO SWAP1 PUSH1 0xFF PUSH1 0xA0 SHL DUP3 PUSH1 0xA0 SHL AND SWAP1 PUSH1 0xFF PUSH1 0xA0 SHL NOT AND OR PUSH1 0x0 SSTORE DUP2 MSTORE LOG1 STOP JUMPDEST PUSH1 0x4 CALLDATALOAD SWAP1 DUP2 ISZERO ISZERO DUP3 SUB PUSH2 0x218 JUMPI JUMP JUMPDEST PUSH1 0x24 CALLDATALOAD SWAP1 DUP2 ISZERO ISZERO DUP3 SUB PUSH2 0x218 JUMPI JUMP JUMPDEST SWAP1 PUSH1 0x1 DUP3 DUP2 SHR SWAP3 AND DUP1 ISZERO PUSH2 0x1C0E JUMPI JUMPDEST PUSH1 0x20 DUP4 LT EQ PUSH2 0x1BF8 JUMPI JUMP JUMPDEST PUSH4 0x4E487B71 PUSH1 0xE0 SHL PUSH1 0x0 MSTORE PUSH1 0x22 PUSH1 0x4 MSTORE PUSH1 0x24 PUSH1 0x0 REVERT JUMPDEST SWAP2 PUSH1 0x7F AND SWAP2 PUSH2 0x1BED JUMP JUMPDEST SWAP1 PUSH1 0x1F DUP1 NOT SWAP2 ADD AND DUP2 ADD SWAP1 DUP2 LT PUSH1 0x1 PUSH1 0x1 PUSH1 0x40 SHL SUB DUP3 GT OR PUSH2 0xD70 JUMPI PUSH1 0x40 MSTORE JUMP JUMPDEST SWAP1 PUSH1 0x40 MLOAD SWAP2 DUP3 PUSH1 0x0 DUP3 SLOAD SWAP3 PUSH2 0x1C4D DUP5 PUSH2 0x1BDE JUMP JUMPDEST DUP1 DUP5 MSTORE SWAP4 PUSH1 0x1 DUP2 AND SWAP1 DUP2 ISZERO PUSH2 0x1CBB JUMPI POP PUSH1 0x1 EQ PUSH2 0x1C74 JUMPI JUMPDEST POP PUSH2 0x1C72 SWAP3 POP SUB DUP4 PUSH2 0x1C18 JUMP JUMPDEST JUMP JUMPDEST SWAP1 POP PUSH1 0x0 SWAP3 SWAP2 SWAP3 MSTORE PUSH1 0x20 PUSH1 0x0 KECCAK256 SWAP1 PUSH1 0x0 SWAP2 JUMPDEST DUP2 DUP4 LT PUSH2 0x1C9F JUMPI POP POP SWAP1 PUSH1 0x20 PUSH2 0x1C72 SWAP3 DUP3 ADD ADD CODESIZE PUSH2 0x1C65 JUMP JUMPDEST PUSH1 0x20 SWAP2 SWAP4 POP DUP1 PUSH1 0x1 SWAP2 SLOAD DUP4 DUP6 DUP10 ADD ADD MSTORE ADD SWAP2 ADD SWAP1 SWAP2 DUP5 SWAP3 PUSH2 0x1C86 JUMP JUMPDEST SWAP1 POP PUSH1 0x20 SWAP3 POP PUSH2 0x1C72 SWAP5 SWAP2 POP PUSH1 0xFF NOT AND DUP3 DUP5 ADD MSTORE ISZERO ISZERO PUSH1 0x5 SHL DUP3 ADD ADD CODESIZE PUSH2 0x1C65 JUMP JUMPDEST SWAP2 SWAP1 DUP3 MLOAD SWAP3 DUP4 DUP3 MSTORE PUSH1 0x0 JUMPDEST DUP5 DUP2 LT PUSH2 0x1D09 JUMPI POP POP DUP3 PUSH1 0x0 PUSH1 0x20 DUP1 SWAP5 SWAP6 DUP5 ADD ADD MSTORE PUSH1 0x1F DUP1 NOT SWAP2 ADD AND ADD ADD SWAP1 JUMP JUMPDEST DUP1 PUSH1 0x20 DUP1 SWAP3 DUP5 ADD ADD MLOAD DUP3 DUP3 DUP7 ADD ADD MSTORE ADD PUSH2 0x1CE8 JUMP JUMPDEST SWAP1 PUSH1 0x6 DUP3 LT ISZERO PUSH2 0x368 JUMPI MSTORE JUMP JUMPDEST PUSH1 0x4 CALLDATALOAD SWAP1 PUSH1 0x1 PUSH1 0x1 PUSH1 0xA0 SHL SUB DUP3 AND DUP3 SUB PUSH2 0x218 JUMPI JUMP JUMPDEST SWAP2 DUP2 PUSH1 0x1F DUP5 ADD SLT ISZERO PUSH2 0x218 JUMPI DUP3 CALLDATALOAD SWAP2 PUSH1 0x1 PUSH1 0x1 PUSH1 0x40 SHL SUB DUP4 GT PUSH2 0x218 JUMPI PUSH1 0x20 DUP4 DUP2 DUP7 ADD SWAP6 ADD ADD GT PUSH2 0x218 JUMPI JUMP JUMPDEST SWAP2 DUP2 PUSH1 0x1F DUP5 ADD SLT ISZERO PUSH2 0x218 JUMPI DUP3 CALLDATALOAD SWAP2 PUSH1 0x1 PUSH1 0x1 PUSH1 0x40 SHL SUB DUP4 GT PUSH2 0x218 JUMPI PUSH1 0x20 DUP1 DUP6 ADD SWAP5 DUP5 PUSH1 0x5 SHL ADD ADD GT PUSH2 0x218 JUMPI JUMP JUMPDEST PUSH1 0x20 PUSH1 0x40 DUP2 DUP4 ADD SWAP3 DUP3 DUP2 MSTORE DUP5 MLOAD DUP1 SWAP5 MSTORE ADD SWAP3 ADD SWAP1 PUSH1 0x0 JUMPDEST DUP2 DUP2 LT PUSH2 0x1DC2 JUMPI POP POP POP SWAP1 JUMP JUMPDEST DUP3 MLOAD DUP5 MSTORE PUSH1 0x20 SWAP4 DUP5 ADD SWAP4 SWAP1 SWAP3 ADD SWAP2 PUSH1 0x1 ADD PUSH2 0x1DB5 JUMP JUMPDEST PUSH1 0x9 SLOAD DUP2 LT ISZERO PUSH2 0x1DF3 JUMPI PUSH1 0x9 PUSH1 0x0 MSTORE PUSH1 0x20 PUSH1 0x0 KECCAK256 ADD SWAP1 PUSH1 0x0 SWAP1 JUMP JUMPDEST PUSH4 0x4E487B71 PUSH1 0xE0 SHL PUSH1 0x0 MSTORE PUSH1 0x32 PUSH1 0x4 MSTORE PUSH1 0x24 PUSH1 0x0 REVERT JUMPDEST DUP1 SLOAD DUP3 LT ISZERO PUSH2 0x1DF3 JUMPI PUSH1 0x0 MSTORE PUSH1 0x20 PUSH1 0x0 KECCAK256 ADD SWAP1 PUSH1 0x0 SWAP1 JUMP JUMPDEST SWAP1 PUSH1 0x1 PUSH1 0x40 SHL DUP2 GT PUSH2 0xD70 JUMPI DUP2 SLOAD SWAP2 DUP2 DUP2 SSTORE DUP3 DUP3 LT PUSH2 0x1E3F JUMPI POP POP POP JUMP JUMPDEST PUSH1 0x0 MSTORE PUSH1 0x20 PUSH1 0x0 KECCAK256 SWAP2 DUP3 ADD SWAP2 ADD JUMPDEST DUP2 DUP2 LT PUSH2 0x1E58 JUMPI POP POP JUMP JUMPDEST PUSH1 0x0 DUP2 SSTORE PUSH1 0x1 ADD PUSH2 0x1E4D JUMP JUMPDEST PUSH1 0x1 PUSH1 0x1 PUSH1 0x40 SHL SUB DUP2 GT PUSH2 0xD70 JUMPI PUSH1 0x5 SHL PUSH1 0x20 ADD SWAP1 JUMP JUMPDEST SWAP1 PUSH2 0x1E85 DUP3 PUSH2 0x1E64 JUMP JUMPDEST PUSH2 0x1E92 PUSH1 0x40 MLOAD SWAP2 DUP3 PUSH2 0x1C18 JUMP JUMPDEST DUP3 DUP2 MSTORE DUP1 SWAP3 PUSH2 0x1EA3 PUSH1 0x1F NOT SWAP2 PUSH2 0x1E64 JUMP JUMPDEST ADD SWAP1 PUSH1 0x20 CALLDATASIZE SWAP2 ADD CALLDATACOPY JUMP JUMPDEST SWAP2 SWAP1 DUP2 LT ISZERO PUSH2 0x1DF3 JUMPI PUSH1 0x5 SHL ADD SWAP1 JUMP JUMPDEST SWAP1 DUP1 PUSH1 0x20 SWAP4 SWAP3 DUP2 DUP5 MSTORE DUP5 DUP5 ADD CALLDATACOPY PUSH1 0x0 DUP3 DUP3 ADD DUP5 ADD MSTORE PUSH1 0x1F ADD PUSH1 0x1F NOT AND ADD ADD SWAP1 JUMP JUMPDEST SWAP6 SWAP5 SWAP4 SWAP1 PUSH2 0x1EFC SWAP1 PUSH2 0x1F0A SWAP5 SWAP4 SWAP10 SWAP9 SWAP10 PUSH1 0xA0 DUP10 MSTORE PUSH1 0xA0 DUP10 ADD SWAP2 PUSH2 0x1EBD JUMP JUMPDEST SWAP2 DUP7 DUP4 SUB PUSH1 0x20 DUP9 ADD MSTORE PUSH2 0x1EBD JUMP JUMPDEST SWAP1 PUSH1 0x40 DUP5 ADD MSTORE DUP3 DUP2 SUB PUSH1 0x60 DUP5 ADD MSTORE PUSH1 0x20 DUP3 SLOAD SWAP2 DUP3 DUP2 MSTORE ADD SWAP2 PUSH1 0x0 MSTORE PUSH1 0x20 PUSH1 0x0 KECCAK256 SWAP1 PUSH1 0x0 JUMPDEST DUP2 DUP2 LT PUSH2 0x1F4A JUMPI POP POP POP PUSH1 0x1 PUSH1 0x1 PUSH1 0x40 SHL SUB PUSH1 0x80 SWAP2 SWAP5 AND SWAP2 ADD MSTORE JUMP JUMPDEST DUP3 SLOAD DUP5 MSTORE PUSH1 0x20 SWAP1 SWAP4 ADD SWAP3 PUSH1 0x1 SWAP3 DUP4 ADD SWAP3 ADD PUSH2 0x1F2E JUMP JUMPDEST SWAP1 DUP2 PUSH1 0x20 SWAP2 SUB SLT PUSH2 0x218 JUMPI MLOAD DUP1 ISZERO ISZERO DUP2 SUB PUSH2 0x218 JUMPI SWAP1 JUMP JUMPDEST SWAP2 SWAP1 DUP3 ADD DUP1 SWAP3 GT PUSH2 0xF80 JUMPI JUMP JUMPDEST SWAP2 SWAP1 DUP3 SUB SWAP2 DUP3 GT PUSH2 0xF80 JUMPI JUMP JUMPDEST DUP1 MLOAD DUP3 LT ISZERO PUSH2 0x1DF3 JUMPI PUSH1 0x20 SWAP2 PUSH1 0x5 SHL ADD ADD SWAP1 JUMP JUMPDEST PUSH1 0x1 PUSH1 0x1 PUSH1 0xA0 SHL SUB AND PUSH1 0x0 DUP2 DUP2 MSTORE PUSH1 0x8 PUSH1 0x20 MSTORE PUSH1 0x40 SWAP1 KECCAK256 SLOAD SWAP1 SWAP4 SWAP3 DUP2 DUP4 LT ISZERO PUSH2 0x2046 JUMPI PUSH2 0x1FE7 SWAP2 PUSH2 0x1FD8 DUP5 SWAP3 DUP4 PUSH2 0x1F78 JUMP JUMPDEST SWAP1 DUP1 DUP3 GT PUSH2 0x203E JUMPI JUMPDEST POP PUSH2 0x1F85 JUMP JUMPDEST SWAP1 PUSH2 0x1FF1 DUP3 PUSH2 0x1E7B JUMP JUMPDEST SWAP4 PUSH1 0x0 JUMPDEST DUP4 DUP2 LT PUSH2 0x2002 JUMPI POP POP POP POP JUMP JUMPDEST PUSH1 0x1 SWAP1 DUP3 PUSH1 0x0 MSTORE PUSH1 0x8 PUSH1 0x20 MSTORE PUSH2 0x2026 PUSH1 0x40 PUSH1 0x0 KECCAK256 PUSH2 0x2020 DUP4 DUP8 PUSH2 0x1F78 JUMP JUMPDEST SWAP1 PUSH2 0x1E09 JUMP JUMPDEST SWAP1 SLOAD SWAP1 PUSH1 0x3 SHL SHR PUSH2 0x2037 DUP3 DUP10 PUSH2 0x1F92 JUMP JUMPDEST MSTORE ADD PUSH2 0x1FF5 JUMP JUMPDEST SWAP1 POP CODESIZE PUSH2 0x1FE1 JUMP JUMPDEST POP PUSH1 0x60 SWAP4 POP POP POP JUMP JUMPDEST SWAP2 SWAP1 PUSH1 0x9 SLOAD SWAP1 DUP2 DUP5 LT ISZERO PUSH2 0x20B2 JUMPI PUSH2 0x206C SWAP2 PUSH2 0x1FD8 DUP6 SWAP3 DUP4 PUSH2 0x1F78 JUMP JUMPDEST PUSH2 0x2075 DUP2 PUSH2 0x1E7B JUMP JUMPDEST SWAP3 PUSH1 0x0 JUMPDEST DUP3 DUP2 LT PUSH2 0x2085 JUMPI POP POP POP JUMP JUMPDEST DUP1 PUSH2 0x209A PUSH2 0x2095 PUSH1 0x1 SWAP4 DUP6 PUSH2 0x1F78 JUMP JUMPDEST PUSH2 0x1DD8 JUMP JUMPDEST SWAP1 SLOAD SWAP1 PUSH1 0x3 SHL SHR PUSH2 0x20AB DUP3 DUP9 PUSH2 0x1F92 JUMP JUMPDEST MSTORE ADD PUSH2 0x2079 JUMP JUMPDEST POP PUSH1 0x60 SWAP3 POP POP JUMP JUMPDEST DUP1 PUSH1 0x0 MSTORE PUSH1 0xA PUSH1 0x20 MSTORE PUSH1 0x40 PUSH1 0x0 KECCAK256 SLOAD SWAP1 DUP2 ISZERO PUSH2 0x2178 JUMPI PUSH1 0x0 NOT DUP3 ADD SWAP2 DUP1 DUP4 GT PUSH2 0xF80 JUMPI PUSH1 0x9 SLOAD PUSH1 0x0 NOT DUP2 ADD SWAP4 SWAP1 DUP5 GT PUSH2 0xF80 JUMPI PUSH2 0x20F6 DUP5 PUSH2 0x1DD8 JUMP JUMPDEST SWAP1 SLOAD SWAP1 PUSH1 0x3 SHL SHR SWAP1 PUSH1 0x0 SWAP5 DUP2 SUB PUSH2 0x2155 JUMPI JUMPDEST POP POP POP PUSH1 0x9 SLOAD DUP1 ISZERO PUSH2 0x2141 JUMPI PUSH1 0x0 NOT ADD PUSH2 0x2121 DUP2 PUSH2 0x1DD8 JUMP JUMPDEST DUP2 SLOAD SWAP1 PUSH1 0x0 NOT SWAP1 PUSH1 0x3 SHL SHL NOT AND SWAP1 SSTORE PUSH1 0x9 SSTORE DUP2 MSTORE PUSH1 0xA PUSH1 0x20 MSTORE PUSH1 0x40 DUP2 KECCAK256 SSTORE JUMP JUMPDEST PUSH4 0x4E487B71 PUSH1 0xE0 SHL DUP4 MSTORE PUSH1 0x31 PUSH1 0x4 MSTORE PUSH1 0x24 DUP4 REVERT JUMPDEST PUSH2 0x2162 PUSH2 0xD2C DUP4 SWAP3 PUSH2 0x1DD8 JUMP JUMPDEST SWAP1 SSTORE DUP4 MSTORE PUSH1 0xA PUSH1 0x20 MSTORE PUSH1 0x40 DUP4 KECCAK256 SSTORE CODESIZE DUP1 DUP1 PUSH2 0x2108 JUMP JUMPDEST POP POP JUMP JUMPDEST PUSH1 0x8 DUP2 ADD DUP1 SLOAD DUP1 ISZERO PUSH2 0x21F6 JUMPI PUSH1 0x0 SWAP2 DUP3 SWAP1 SSTORE PUSH1 0x2 SLOAD SWAP3 SLOAD PUSH1 0x40 MLOAD PUSH4 0xA9059CBB PUSH1 0xE0 SHL DUP2 MSTORE PUSH1 0x1 PUSH1 0x1 PUSH1 0xA0 SHL SUB SWAP2 DUP3 AND PUSH1 0x4 DUP3 ADD MSTORE PUSH1 0x24 DUP2 ADD SWAP3 SWAP1 SWAP3 MSTORE SWAP1 SWAP3 PUSH1 0x20 SWAP3 DUP5 SWAP3 PUSH1 0x44 SWAP3 DUP5 SWAP3 SWAP2 PUSH1 0x8 SWAP2 SWAP1 SWAP2 SHR AND GAS CALL DUP1 ISZERO PUSH2 0x43A JUMPI PUSH2 0x21DB JUMPI POP JUMP JUMPDEST PUSH2 0x21F3 SWAP1 PUSH1 0x20 RETURNDATASIZE PUSH1 0x20 GT PUSH2 0x433 JUMPI PUSH2 0x429 DUP2 DUP4 PUSH2 0x1C18 JUMP JUMPDEST POP JUMP JUMPDEST POP POP POP JUMP JUMPDEST DUP1 PUSH1 0x0 MSTORE PUSH1 0xA PUSH1 0x20 MSTORE PUSH1 0x40 PUSH1 0x0 KECCAK256 SLOAD PUSH2 0x21F3 JUMPI PUSH1 0x9 SLOAD PUSH1 0x1 PUSH1 0x40 SHL DUP2 LT ISZERO PUSH2 0xD70 JUMPI PUSH2 0x2233 PUSH2 0xD2C DUP3 PUSH1 0x1 DUP6 SWAP5 ADD PUSH1 0x9 SSTORE PUSH1 0x9 PUSH2 0x1E09 JUMP JUMPDEST SWAP1 SSTORE PUSH1 0x9 SLOAD SWAP1 PUSH1 0x0 MSTORE PUSH1 0xA PUSH1 0x20 MSTORE PUSH1 0x40 PUSH1 0x0 KECCAK256 SSTORE JUMP INVALID LOG2 PUSH5 0x6970667358 0x22 SLT KECCAK256 LT AND JUMP 0xD1 DUP9 0xB7 0xB1 PUSH11 0xBB25FB33B60F2D41955ED6 0xE8 TSTORE 0x29 0x2B SLT PUSH19 0x82C377121C4D5364736F6C634300081C003300 "},"methodIdentifiers":{"allowedFactory(address)":"3f195993","antiSpamMode()":"5a4434ba","cancelJob(uint256)":"1dffa3dc","closeExpired(uint256)":"36ae41ca","gasSponsorshipEnabled()":"3e8a00c8","getJob(uint256)":"bf22c457","isKYC(address)":"9944f518","jobs(uint256)":"180aedf3","jobsByClient(address)":"e5d53c3b","jobsByClientPaginated(address,uint256,uint256)":"beacece1","jobsOf(address,uint256)":"d8acddb1","markAsCompleted(uint256)":"c0a6026c","markAsHired(uint256,address,address)":"31209061","nextJobId()":"b0c2aa5e","openJobs(uint256,uint256)":"dc74fde5","owner()":"8da5cb5b","paused()":"5c975abb","postJob(string,string,uint256,bytes32[],uint64)":"6c79bce7","postingBondUSDC()":"1ec1de93","reopen(uint256,uint64)":"ee64a6aa","setAllowedFactory(address,bool)":"72ffa84d","setAntiSpamMode(uint8,uint256)":"7c1ee3b5","setGasSponsorship(bool)":"7f8305e5","setKYC(address,bool)":"5123bacc","setPaused(bool)":"16c38b3c","setUSDC(address)":"b3e089a2","sweepERC20(address,uint256)":"e6d11999","totalJobsOf(address)":"57147aca","totalOpenJobs()":"31dc20ff","transferOwnership(address)":"f2fde38b","updateJob(uint256,string,string,uint256,bytes32[],uint64)":"4f464cb0","usdc()":"3e413bee"}}}}}