{"contracts/FreelancerFactory.sol":{"FreelancerFactory":{"abi":[{"inputs":[],"stateMutability":"nonpayable","type":"constructor"},{"inputs":[],"name":"AttesterNotAuthorized","type":"error"},{"inputs":[],"name":"InvalidNonce","type":"error"},{"inputs":[],"name":"NoProfile","type":"error"},{"inputs":[],"name":"NotEscrowDeployerOrOwner","type":"error"},{"inputs":[],"name":"NotOwner","type":"error"},{"inputs":[],"name":"ProfileExists","type":"error"},{"inputs":[],"name":"SignatureExpired","type":"error"},{"inputs":[],"name":"ZeroAddress","type":"error"},{"anonymous":false,"inputs":[{"indexed":true,"internalType":"address","name":"attester","type":"address"},{"indexed":false,"internalType":"bool","name":"enabled","type":"bool"}],"name":"AttesterSet","type":"event"},{"anonymous":false,"inputs":[{"indexed":true,"internalType":"address","name":"deployer","type":"address"},{"indexed":false,"internalType":"bool","name":"enabled","type":"bool"}],"name":"EscrowDeployerSet","type":"event"},{"anonymous":false,"inputs":[{"indexed":true,"internalType":"address","name":"freelancer","type":"address"},{"indexed":true,"internalType":"address","name":"profile","type":"address"},{"indexed":true,"internalType":"address","name":"escrow","type":"address"}],"name":"EscrowLinked","type":"event"},{"anonymous":false,"inputs":[{"indexed":true,"internalType":"address","name":"freelancer","type":"address"},{"indexed":true,"internalType":"address","name":"profile","type":"address"},{"indexed":false,"internalType":"bool","name":"status","type":"bool"},{"indexed":true,"internalType":"address","name":"attester","type":"address"}],"name":"KYCSetByAttestation","type":"event"},{"anonymous":false,"inputs":[{"indexed":true,"internalType":"address","name":"freelancer","type":"address"},{"indexed":true,"internalType":"address","name":"profile","type":"address"},{"indexed":false,"internalType":"bool","name":"status","type":"bool"}],"name":"KYCSetByOwner","type":"event"},{"anonymous":false,"inputs":[{"indexed":true,"internalType":"address","name":"previousOwner","type":"address"},{"indexed":true,"internalType":"address","name":"newOwner","type":"address"}],"name":"OwnerChanged","type":"event"},{"anonymous":false,"inputs":[{"indexed":true,"internalType":"address","name":"freelancer","type":"address"},{"indexed":true,"internalType":"address","name":"profile","type":"address"}],"name":"ProfileDeployed","type":"event"},{"inputs":[{"internalType":"address","name":"","type":"address"}],"name":"attesters","outputs":[{"internalType":"bool","name":"","type":"bool"}],"stateMutability":"view","type":"function"},{"inputs":[{"internalType":"string","name":"_name","type":"string"},{"internalType":"string","name":"_bio","type":"string"},{"internalType":"string","name":"_profileURI","type":"string"}],"name":"deployFreelancerProfile","outputs":[{"internalType":"address","name":"profileAddr","type":"address"}],"stateMutability":"nonpayable","type":"function"},{"inputs":[{"internalType":"address","name":"","type":"address"}],"name":"escrowDeployers","outputs":[{"internalType":"bool","name":"","type":"bool"}],"stateMutability":"view","type":"function"},{"inputs":[{"internalType":"address","name":"","type":"address"}],"name":"freelancerProfile","outputs":[{"internalType":"address","name":"","type":"address"}],"stateMutability":"view","type":"function"},{"inputs":[],"name":"getAllFreelancerProfiles","outputs":[{"internalType":"address[]","name":"wallets","type":"address[]"},{"internalType":"address[]","name":"profiles","type":"address[]"}],"stateMutability":"view","type":"function"},{"inputs":[],"name":"getAllFreelancers","outputs":[{"internalType":"address[]","name":"","type":"address[]"}],"stateMutability":"view","type":"function"},{"inputs":[{"internalType":"address","name":"freelancer","type":"address"},{"internalType":"address","name":"escrowAddr","type":"address"}],"name":"linkEscrowToProfile","outputs":[],"stateMutability":"nonpayable","type":"function"},{"inputs":[{"internalType":"address","name":"","type":"address"}],"name":"nonces","outputs":[{"internalType":"uint256","name":"","type":"uint256"}],"stateMutability":"view","type":"function"},{"inputs":[],"name":"owner","outputs":[{"internalType":"address","name":"","type":"address"}],"stateMutability":"view","type":"function"},{"inputs":[{"internalType":"address","name":"_attester","type":"address"},{"internalType":"bool","name":"_enabled","type":"bool"}],"name":"setAttester","outputs":[],"stateMutability":"nonpayable","type":"function"},{"inputs":[{"internalType":"address","name":"_deployer","type":"address"},{"internalType":"bool","name":"_enabled","type":"bool"}],"name":"setEscrowDeployer","outputs":[],"stateMutability":"nonpayable","type":"function"},{"inputs":[{"internalType":"address","name":"freelancer","type":"address"},{"internalType":"bool","name":"status","type":"bool"},{"internalType":"uint256","name":"nonce","type":"uint256"},{"internalType":"uint256","name":"expiry","type":"uint256"},{"internalType":"bytes","name":"signature","type":"bytes"}],"name":"setKYCByAttestation","outputs":[],"stateMutability":"nonpayable","type":"function"},{"inputs":[{"internalType":"address","name":"freelancer","type":"address"},{"internalType":"bool","name":"status","type":"bool"}],"name":"setKYCFor","outputs":[],"stateMutability":"nonpayable","type":"function"},{"inputs":[],"name":"totalFreelancers","outputs":[{"internalType":"uint256","name":"","type":"uint256"}],"stateMutability":"view","type":"function"},{"inputs":[{"internalType":"address","name":"_newOwner","type":"address"}],"name":"transferOwnership","outputs":[],"stateMutability":"nonpayable","type":"function"}],"evm":{"bytecode":{"linkReferences":{},"object":"60808060405234602757600080546001600160a01b031916331790556131cc908161002d8239f35b600080fdfe608080604052600436101561001357600080fd5b600090813560e01c908163131a91ad14610b4657508063148680ad1461095f578063359b248c146108cd57806338f6e47c1461088e57806350304f03146107e65780635c0204d91461075c5780635e586eb11461073e5780636c0ca68a146106425780636e8e87ab146103e55780637ab32738146103a45780637ecebe001461036b5780638da5cb5b14610344578063b687a4521461029f578063f2fde38b1461020c5763fab9b285146100c657600080fd5b34610209576040366003190112610209576100df610b82565b6024356001600160a01b03811691908290036102075782546001600160a01b0316331415806101f0575b6101e1576001600160a01b0316801580156101d9575b6101ca57808352600160205260408320546001600160a01b03169081156101bb57813b156101ac57836040516339d3ad7760e01b8152846004820152818160248183885af180156101b057610197575b50807f08d16763167296b8f84c1eaa662972554a494252231d9e04a4ca648884ece49d91a480f35b816101a191610c69565b6101ac57833861016f565b8380fd5b6040513d84823e3d90fd5b636f86092760e01b8452600484fd5b63d92e233d60e01b8352600483fd5b50811561011f565b63024eb4d760e01b8352600483fd5b50338352600560205260ff60408420541615610109565b825b80fd5b503461020957602036600319011261020957610226610b82565b8154906001600160a01b0382169033829003610290576001600160a01b0316918215610281576001600160a01b031916821783557fb532073b38c83145e3e5135377a08bf9aab55bc0fd7c1179cd4fb995d2a5159c8380a380f35b63d92e233d60e01b8452600484fd5b6330cd747160e01b8452600484fd5b5034610209576040366003190112610209576102b9610b82565b6102c1610c08565b82549091906001600160a01b03163303610335576001600160a01b03169081156101ca5760207f74afebffc8acdd9c14bc56f7149db484f30e25c597b991a4319178a309dfc9db918385526005825261032981604087209060ff801983541691151516179055565b6040519015158152a280f35b6330cd747160e01b8352600483fd5b5034610209578060031936011261020957546040516001600160a01b039091168152602090f35b5034610209576020366003190112610209576020906040906001600160a01b03610393610b82565b168152600483522054604051908152f35b5034610209576020366003190112610209576020906001600160a01b036103c9610b82565b16815260018252604060018060a01b0391205416604051908152f35b50346102095760a0366003190112610209576103ff610b82565b610407610c08565b90604435916064359160843567ffffffffffffffff811161063e57610430903690600401610b9d565b909184421161062f576001600160a01b031680875260046020526040872054909390860361062057604051602081019185835215159586604083015287606083015260808201523060a082015260a0815261048c60c082610c69565b5190207f19457468657265756d205369676e6564204d6573736167653a0a3332000000008752601c52603c862067ffffffffffffffff821161060c57604051906104e0601f8401601f191660200183610c69565b828252873684860111610209576020846105059561050d978387013784010152610cff565b919091610d37565b6001600160a01b03168085526003602052604085205490939060ff16156105fd57600181018091116105e95781855260046020526040852055808452600160205260018060a01b036040852054169182156105da57823b156105d65784604051630394abbf60e31b8152826004820152818160248183895af180156101b0576105c1575b505060207fd2952936061920788f0b2fc69e5db186c12626952e14b81b39e48e6acef0877091604051908152a480f35b816105cb91610c69565b6105d6578438610591565b8480fd5b636f86092760e01b8552600485fd5b634e487b7160e01b85526011600452602485fd5b634e090add60e11b8552600485fd5b634e487b7160e01b87526041600452602487fd5b633ab3447f60e11b8752600487fd5b630819bdcd60e01b8752600487fd5b8580fd5b50346102095760403660031901126102095761065c610b82565b610664610c08565b82549091906001600160a01b03163303610335576001600160a01b03908116808452600160205260408420549091169182156101bb57823b156101ac57604051630394abbf60e31b81529015156004820181905290848160248183885af18015610733576106fc575b5060207f54a5ffc7ba6d36586b4e16b091b7c60a338db2d70d6e5a3ff9f20e31e87e7b2d91604051908152a380f35b8461072b7f54a5ffc7ba6d36586b4e16b091b7c60a338db2d70d6e5a3ff9f20e31e87e7b2d9396602093610c69565b9491506106cd565b6040513d87823e3d90fd5b50346102095780600319360112610209576020600254604051908152f35b503461020957604036600319011261020957610776610b82565b61077e610c08565b82549091906001600160a01b03163303610335576001600160a01b03169081156101ca5760207fe282e8f39d469f44e202567418af903a001092d0eaa89b1070c44d3f01c0db2a918385526003825261032981604087209060ff801983541691151516179055565b503461020957806003193601126102095760025461080381610cb9565b9061080d81610cb9565b92805b828110610845576108338461084187604051938493604085526040850190610bcb565b908382036020850152610bcb565b0390f35b80610851600192610c38565b838060a01b0391549060031b1c168061086a8388610ceb565b52835281602052818060a01b036040842054166108878288610ceb565b5201610810565b50346102095760203660031901126102095760209060ff906040906001600160a01b036108b9610b82565b168152600584522054166040519015158152f35b503461020957806003193601126102095760405180916020600254928381520191600282527f405787fa12a823e0f2b7631cc41b3ba8828b3321ca811111fa75cd3aa3bb5ace915b818110610940576108418561092c81870382610c69565b604051918291602083526020830190610bcb565b82546001600160a01b0316845260209093019260019283019201610915565b50346102095760603660031901126102095760043567ffffffffffffffff8111610b4257610991903690600401610b9d565b60243567ffffffffffffffff81116101ac576109b1903690600401610b9d565b60443567ffffffffffffffff811161063e576109d1903690600401610b9d565b3387526001602052604087205490939192906001600160a01b0316610b3357604051956122b9958688019688881067ffffffffffffffff891117610b1f5792610a40610a4e93610a5c9896938b9a9896610ede8c393389523060208a015260a060408a015260a0890191610c17565b918683036060880152610c17565b926080818503910152610c17565b039082f08015610b125733825260016020526040822080546001600160a01b0319166001600160a01b03929092169182179055600254919068010000000000000000831015610afe57610ab783600160209501600255610c38565b81549060031b9033821b9160018060a01b03901b191617905580604051927fa93072ad567e6157cd68a9a276afb4889cadc9462eba7f74ffc891e62238158b339180a38152f35b634e487b7160e01b82526041600452602482fd5b50604051903d90823e3d90fd5b634e487b7160e01b8a52604160045260248afd5b638d2c60db60e01b8752600487fd5b5080fd5b905034610b42576020366003190112610b425760209160ff906040906001600160a01b03610b72610b82565b1681526003855220541615158152f35b600435906001600160a01b0382168203610b9857565b600080fd5b9181601f84011215610b985782359167ffffffffffffffff8311610b985760208381860195010111610b9857565b906020808351928381520192019060005b818110610be95750505090565b82516001600160a01b0316845260209384019390920191600101610bdc565b602435908115158203610b9857565b908060209392818452848401376000828201840152601f01601f1916010190565b600254811015610c5357600260005260206000200190600090565b634e487b7160e01b600052603260045260246000fd5b90601f8019910116810190811067ffffffffffffffff821117610c8b57604052565b634e487b7160e01b600052604160045260246000fd5b67ffffffffffffffff8111610c8b5760051b60200190565b90610cc382610ca1565b610cd06040519182610c69565b8281528092610ce1601f1991610ca1565b0190602036910137565b8051821015610c535760209160051b010190565b906041815114600014610d2d57610d29916020820151906060604084015193015160001a90610e51565b9091565b5050600090600290565b6005811015610e3b5780610d485750565b60018103610d955760405162461bcd60e51b815260206004820152601860248201527f45434453413a20696e76616c6964207369676e617475726500000000000000006044820152606490fd5b60028103610de25760405162461bcd60e51b815260206004820152601f60248201527f45434453413a20696e76616c6964207369676e6174757265206c656e677468006044820152606490fd5b600314610deb57565b60405162461bcd60e51b815260206004820152602260248201527f45434453413a20696e76616c6964207369676e6174757265202773272076616c604482015261756560f01b6064820152608490fd5b634e487b7160e01b600052602160045260246000fd5b7f7fffffffffffffffffffffffffffffff5d576e7357a4501ddfe92f46681b20a08411610ed15760209360009360ff60809460405194855216868401526040830152606082015282805260015afa15610ec5576000516001600160a01b03811615610ebc5790600090565b50600090600190565b6040513d6000823e3d90fd5b5050505060009060039056fe60c06040523461058e576122b98038038061001981610593565b928339810160a08282031261058e57610031826105b8565b9161003e602082016105b8565b60408201516001600160401b03811161058e578361005d9184016105ef565b60608301519092906001600160401b03811161058e578461007f9183016105ef565b60808201519094906001600160401b03811161058e5761009f92016105ef565b936001600160a01b03811615801561057d575b61056c5760805260a05280516001600160401b03811161039957600054600181811c91168015610562575b602082101461037957601f81116104fe575b50806020601f821160011461049a5760009161048f575b508160011b916000199060031b1c1916176000555b8151926001600160401b03841161039957600154600181811c91168015610485575b602082101461037957601f8111610420575b50602093601f81116001146103ba5780919293946000916103af575b508160011b916000199060031b1c1916176001555b8051926001600160401b03841161039957600254600181811c9116801561038f575b602082101461037957601f8111610314575b50602093601f811160011461029457916102346102429284610226969560008051602061229983398151915298600091610289575b508160011b916000199060031b1c1916176002555b6000600455600060055560ff196006541660065560405195869560608752606087019061063f565b90858203602087015261063f565b90838203604085015261063f565b0390a1604051611c34908161066582396080518181816104cc01528181610f510152611216015260a0518181816109c101528181610a810152818161100501526111680152f35b9050840151386101e9565b601f1981166002600052856000209060005b8181106102fc575092600183610234936000805160206122998339815191529961022699989661024298106102e3575b5050811b016002556101fe565b86015160001960f88460031b161c1916905538806102d6565b858801518355602097880197600190930192016102a6565b60026000527f405787fa12a823e0f2b7631cc41b3ba8828b3321ca811111fa75cd3aa3bb5ace601f860160051c8101916020871061036f575b601f0160051c01905b81811061036357506101b4565b60008155600101610356565b909150819061034d565b634e487b7160e01b600052602260045260246000fd5b90607f16906101a2565b634e487b7160e01b600052604160045260246000fd5b90508401513861016b565b601f198116946001600052806000209060005b878110610408575082600194959697106103ef575b5050811b01600155610180565b86015160001960f88460031b161c1916905538806103e2565b9091602060018192858a0151815501930191016103cd565b60016000527fb10e2d527612073b26eecdfd717e6a320cf44b4afac2b0732d9fcbe2b7fa0cf6601f860160051c8101916020871061047b575b601f0160051c01905b81811061046f575061014f565b60008155600101610462565b9091508190610459565b90607f169061013d565b905082015138610106565b60008080528181209250601f198416905b8181106104e6575090836001949392106104cd575b5050811b0160005561011b565b84015160001960f88460031b161c1916905538806104c0565b919260206001819286890151815501940192016104ab565b600080527f290decd9548b62a8d60345a988386fc84ba6bc95484008f6362f93160ef3e563601f830160051c81019160208410610558575b601f0160051c01905b81811061054c57506100ef565b6000815560010161053f565b9091508190610536565b90607f16906100dd565b63d92e233d60e01b60005260046000fd5b506001600160a01b038216156100b2565b600080fd5b6040519190601f01601f191682016001600160401b0381118382101761039957604052565b51906001600160a01b038216820361058e57565b60005b8381106105df5750506000910152565b81810151838201526020016105cf565b81601f8201121561058e5780516001600160401b0381116103995761061d601f8201601f1916602001610593565b928184526020828401011161058e5761063c91602080850191016105cc565b90565b90602091610658815180928185528580860191016105cc565b601f01601f191601019056fe608080604052600436101561001357600080fd5b60003560e01c90816306237526146116c45750806306fdde03146116a65780631105a5eb146111a15780631ca55df81461114957806320d7f08b146111265780632b757cb81461109f57806339d3ad7714610fdd578063567142be14610fbf5780635abe34e2146109565780636fd5ae1514610f9e5780637bc4c06114610f805780638da5cb5b14610f3b578063963310af14610e935780639c53a12014610c7b578063a3abe42514610b69578063aa98efee1461031f578063c22c4f4314610ab0578063c45a015514610a6b578063e86bffdf14610999578063e904f66714610956578063ef8f259614610435578063f516b42214610350578063f7a13d891461031f5763fa40d2e81461012757600080fd5b3461031a57602036600319011261031a5760043533600052600760205260ff60406000205416156103095780156102f85780600052600860205260ff60406000205460a01c1660088110156102d1576102e757604051426001600160401b031661019082611719565b3382526020820160018152604083019060008252606084019260008452608085019181835260a0860191825286600052600860205260406000209560018060a01b039051166bffffffffffffffffffffffff60a01b875416178655519160088310156102d1576001600160401b039461022c60ff60019661021289978b611957565b51895460ff60a81b1916911660a81b60ff60a81b16178855565b51151586549060ff60b01b9060b01b169060ff60b01b1916178655518554908360b81b9060b81b16908360b81b19161785555116920191166001600160401b03198254161790556040519033817f18737ba33cf8fc3ca591008614a168159cb822fcb206ab8e12c6c200a39b95fb600080a360008252600160208301527f8cc8bd6dd4c5914c8824d0a2e6d02d8cbd54de0113506d38fa9c2cd5611d210460403393a3005b634e487b7160e01b600052602160045260246000fd5b631e8fa57160e31b60005260046000fd5b63406729f960e11b60005260046000fd5b6318eb746b60e11b60005260046000fd5b600080fd5b3461031a57602036600319011261031a576004356000526009602052602060ff604060002054166040519015158152f35b3461031a57600036600319011261031a576040516000600154610372816116df565b808452906001811690811561041157506001146103b2575b6103ae8361039a81850382611734565b6040519182916020835260208301906117f9565b0390f35b600160009081527fb10e2d527612073b26eecdfd717e6a320cf44b4afac2b0732d9fcbe2b7fa0cf6939250905b8082106103f75750909150810160200161039a61038a565b9192600181602092548385880101520191019092916103df565b60ff191660208086019190915291151560051b8401909101915061039a905061038a565b3461031a5760a036600319011261031a576004356001600160401b03811161031a5761046590369060040161183a565b906024356001600160401b03811161031a5761048590369060040161183a565b92906044356001600160401b03811161031a576104a690369060040161183a565b6064959195356001600160401b03811161031a576104c890369060040161183a565b96907f00000000000000000000000000000000000000000000000000000000000000006001600160a01b031633036109455760ff600354161561093457600b549460648610156109235761055c9261053e61054d926040519761052a89611719565b610535368c8e61197b565b8952369161197b565b9460208701958652369161197b565b9760408501988952369161197b565b95606083019687526080830191608435835260a084019460018652600052600a602052604060002093518051906001600160401b0382116107cd576105ab826105a588546116df565b88611874565b602090601f83116001146108bc576105dc929160009183610756575b50508160011b916000199060031b1c19161790565b84555b51805160018501916001600160401b0382116107cd576106098261060385546116df565b85611874565b602090601f8311600114610855576106399291600091836107565750508160011b916000199060031b1c19161790565b90555b51805160028401916001600160401b0382116107cd576106608261060385546116df565b602090601f83116001146107ee576106909291600091836107e35750508160011b916000199060031b1c19161790565b90555b6003820195519586516001600160401b0381116107cd576106be816106b884546116df565b84611874565b6020601f821160011461076157816005959493926106f59260019b6000926107565750508160011b916000199060031b1c19161790565b90555b516004820155019051151560ff801983541691161790557fe1f8251252d428948683869e48119b3d7a3f4df9e46c775f5c6591cbd065f4d5600b5492839261074d6040519283926020845260208401916118c6565b0390a201600b55005b015190508b806105c7565b601f1982169083600052806000209160005b8181106107b5575091839160019b6005989796958d951061079c575b505050811b0190556106f8565b015160001960f88460031b161c191690558a808061078f565b9192602060018192868f015181550194019201610773565b634e487b7160e01b600052604160045260246000fd5b015190508a806105c7565b90601f1983169184600052816000209260005b81811061083d5750908460019594939210610824575b505050811b019055610693565b015160001960f88460031b161c19169055898080610817565b92936020600181928786015181550195019301610801565b90601f1983169184600052816000209260005b8181106108a4575090846001959493921061088b575b505050811b01905561063c565b015160001960f88460031b161c191690558a808061087e565b92936020600181928786015181550195019301610868565b90601f1983169187600052816000209260005b81811061090b57509084600195949392106108f2575b505050811b0184556105df565b015160001960f88460031b161c191690558a80806108e5565b929360206001819287860151815501950193016108cf565b6336cd606760e21b60005260046000fd5b63a95362b560e01b60005260046000fd5b6330cd747160e01b60005260046000fd5b3461031a57602036600319011261031a576004356001600160a01b0381169081900361031a576000526007602052602060ff604060002054166040519015158152f35b3461031a57602036600319011261031a576004356001600160a01b0381169081900361031a577f00000000000000000000000000000000000000000000000000000000000000006001600160a01b03163303610a5a578015610a495780600052600760205260ff604060002054161561030957806000526007602052604060002060ff1981541690557f9cfe83a14fc052fe86cb71c1329bd455873a823933cf98c5dcff5721beca5152600080a2005b63d92e233d60e01b60005260046000fd5b631966391b60e11b60005260046000fd5b3461031a57600036600319011261031a576040517f00000000000000000000000000000000000000000000000000000000000000006001600160a01b03168152602090f35b3461031a57602036600319011261031a57600435600052600a602052610b2e6040600020610add81611755565b90610aea60018201611755565b610b58610af960028401611755565b610b4a610b0860038601611755565b91610b3c60ff600560048901549801541695604051998a9960c08b5260c08b01906117f9565b9089820360208b01526117f9565b9087820360408901526117f9565b9085820360608701526117f9565b916080840152151560a08301520390f35b3461031a57604036600319011261031a57602435600435600882101561031a5733600052600760205260ff604060002054161561030957610ba9816119c1565b8054336001600160a01b03821603610c6a5760ff8160b01c16610c595760a01c60ff1692610bd78185611a91565b15610c4857600182610bec83610c2095611957565b01805467ffffffffffffffff1916426001600160401b031617905560405193610c16908590611867565b6020840190611867565b7f8cc8bd6dd4c5914c8824d0a2e6d02d8cbd54de0113506d38fa9c2cd5611d210460403393a3005b63088bd32360e11b60005260046000fd5b63311d737b60e21b60005260046000fd5b631818917b60e01b60005260046000fd5b3461031a57604036600319011261031a5760043560ff81169081810361031a576024359033600052600760205260ff60406000205416156103095791610cc0826119c1565b8054909190336001600160a01b03821603610c6a5760ff8160b01c16610c595760a01c60ff1660088110156102d157600403610e8357600111610e7a575b600560ff841611610e71575b805460a884901b60ff60a81b1662ffffff60a01b19909116176201000760a01b1781556001908101805467ffffffffffffffff1916426001600160401b03161790556000828152600960205260409020805460ff1916909117905560045460ff9092169182810190818111610e5b57816004556005549060018201809211610e5b5760407f2a4f386dacbb02a5d478d3fc1d2dbc487b69ed735b8d629e99d905680db927eb91836005558151908152846020820152a16006549160ff831660ff610dd483856119e7565b16809460ff191617600655808403610e25575b506040519485526020850152604084015260608301527f3d5d384ab80e19e25a6f89bd353f3309482fad32e210aff2b1c6ae7ee2096b6460803393a3005b60407fe3baeb7cde6b34690f45a4b6b0c8d17538edc7064370627da2e7d25c2437147d918151908152856020820152a185610de7565b634e487b7160e01b600052601160045260246000fd5b60059250610d0a565b60019250610cfe565b6215588160e91b60005260046000fd5b3461031a57600036600319011261031a576040516000600254610eb5816116df565b80845290600181169081156104115750600114610edc576103ae8361039a81850382611734565b600260009081527f405787fa12a823e0f2b7631cc41b3ba8828b3321ca811111fa75cd3aa3bb5ace939250905b808210610f215750909150810160200161039a61038a565b919260018160209254838588010152019101909291610f09565b3461031a57600036600319011261031a576040517f00000000000000000000000000000000000000000000000000000000000000006001600160a01b03168152602090f35b3461031a57600036600319011261031a576020600554604051908152f35b3461031a57600036600319011261031a57602060ff60065416604051908152f35b3461031a57600036600319011261031a576020600454604051908152f35b3461031a57602036600319011261031a576004356001600160a01b0381169081900361031a577f00000000000000000000000000000000000000000000000000000000000000006001600160a01b03163303610a5a578015610a495780600052600760205260ff6040600020541661108f578060005260076020526040600020600160ff198254161790557fdf2cab5618b04639fbd29a022852edb95271f3d11b3702eea922c21ff7d5c067600080a2005b628ce1d160e01b60005260046000fd5b3461031a57602036600319011261031a57600435600052600860205260c060406000206001600160401b0360018254920154166001600160401b036040519260018060a01b03811684526110fc6020850160ff8360a01c16611867565b60ff8160a81c16604085015260ff8160b01c161515606085015260b81c16608083015260a0820152f35b3461031a57600036600319011261031a57602060ff600354166040519015158152f35b3461031a57602036600319011261031a57600435801515810361031a577f00000000000000000000000000000000000000000000000000000000000000006001600160a01b03163303610a5a5761119f906118e7565b005b3461031a57606036600319011261031a576004356001600160401b03811161031a576111d190369060040161183a565b906024356001600160401b03811161031a576111f190369060040161183a565b92906044356001600160401b03811161031a5761121290369060040161183a565b90917f00000000000000000000000000000000000000000000000000000000000000006001600160a01b03163303610945576001600160401b0384116107cd5761125d6000546116df565b601f8111611642575b50600084601f81116001146115c15780611296926000916115b6575b508160011b916000199060031b1c19161790565b6000555b6001600160401b0386116107cd576112b36001546116df565b601f8111611551575b50600086601f81116001146114cf57806112eb926000916114c457508160011b916000199060031b1c19161790565b6001555b6001600160401b0382116107cd576113086002546116df565b601f811161145f575b50600095601f83116001146113b35782916113959161136c846113a397967f7dc9ed3d635c09f8d480400bd28952dcf48619b0f27d3d69668fa24b1f7af8a49b6000916113a857508160011b916000199060031b1c19161790565b6002555b61138760405198899860608a5260608a01916118c6565b9187830360208901526118c6565b9184830360408601526118c6565b0390a1005b90508701358c611282565b600287527f405787fa12a823e0f2b7631cc41b3ba8828b3321ca811111fa75cd3aa3bb5ace96601f198416815b8181106114475750917f7dc9ed3d635c09f8d480400bd28952dcf48619b0f27d3d69668fa24b1f7af8a4988594926113a39796611395951061142d575b5050600184811b01600255611370565b860135600019600387901b60f8161c19169055898061141d565b868301358a55600190990198602092830192016113e0565b60026000527f405787fa12a823e0f2b7631cc41b3ba8828b3321ca811111fa75cd3aa3bb5ace601f840160051c810191602085106114ba575b601f0160051c01905b8181106114ae5750611311565b600081556001016114a1565b9091508190611498565b905083013589611282565b50600181527fb10e2d527612073b26eecdfd717e6a320cf44b4afac2b0732d9fcbe2b7fa0cf69087601f198116825b81811061153657501061151c575b5050600186811b016001556112ef565b820135600019600389901b60f8161c19169055868061150c565b8584013585556001909401936020938401938b9350016114fe565b60016000527fb10e2d527612073b26eecdfd717e6a320cf44b4afac2b0732d9fcbe2b7fa0cf6601f880160051c810191602089106115ac575b601f0160051c01905b8181106115a057506112bc565b60008155600101611593565b909150819061158a565b905087013589611282565b508080527f290decd9548b62a8d60345a988386fc84ba6bc95484008f6362f93160ef3e5639085601f198116825b81811061162757501061160d575b5050600184811b0160005561129a565b860135600019600387901b60f8161c1916905586806115fd565b898401358555600190940193602093840193899350016115ef565b600080527f290decd9548b62a8d60345a988386fc84ba6bc95484008f6362f93160ef3e563601f860160051c8101916020871061169c575b601f0160051c01905b8181106116905750611266565b60008155600101611683565b909150819061167a565b3461031a57600036600319011261031a576103ae61039a6000611755565b3461031a57600036600319011261031a57602090600b548152f35b90600182811c9216801561170f575b60208310146116f957565b634e487b7160e01b600052602260045260246000fd5b91607f16916116ee565b60c081019081106001600160401b038211176107cd57604052565b90601f801991011681019081106001600160401b038211176107cd57604052565b9060405191826000825492611769846116df565b80845293600181169081156117d75750600114611790575b5061178e92500383611734565b565b90506000929192526020600020906000915b8183106117bb57505090602061178e9282010138611781565b60209193508060019154838589010152019101909184926117a2565b90506020925061178e94915060ff191682840152151560051b82010138611781565b919082519283825260005b848110611825575050826000602080949584010152601f8019910116010190565b80602080928401015182828601015201611804565b9181601f8401121561031a578235916001600160401b03831161031a576020838186019501011161031a57565b9060088210156102d15752565b601f821161188157505050565b6000526020600020906020601f840160051c830193106118bc575b601f0160051c01905b8181106118b0575050565b600081556001016118a5565b909150819061189c565b908060209392818452848401376000828201840152601f01601f1916010190565b600354901515908160ff821615151461192e5760ff191660ff821617600355337f3a620c3544f4661f38b303e51ff3c4cc552da5a80ec55d4e3875af78775e1a82600080a3565b50337f3a620c3544f4661f38b303e51ff3c4cc552da5a80ec55d4e3875af78775e1a82600080a3565b9060088110156102d157815460ff60a01b191660a09190911b60ff60a01b16179055565b9291926001600160401b0382116107cd57604051916119a4601f8201601f191660200184611734565b82948184528183011161031a578281602093846000960137010152565b600052600860205260406000209060ff825460a01c1660088110156102d157156102f857565b601981101580611a86575b611a7f57601481101580611a74575b611a6d57600f81101580611a62575b611a5b57600a81101580611a50575b611a4957600511159081611a3d575b50611a3857600090565b600190565b60149150101538611a2e565b5050600290565b50602d821015611a1f565b5050600390565b506046821015611a10565b5050600490565b50605f821015611a01565b5050600590565b5060788210156119f2565b60088110156102d1576001811480611be1575b611b455760006002821480611b8d575b611b1657506003811480611b4c575b611b45576000906004811480611b1e575b611b165760059150149081611aed5750611a3857600090565b905060088110156102d15760048114908115611b0b575b5038611a2e565b600691501438611b04565b505050600190565b506008831015611b315760078314611ad4565b634e487b7160e01b82526021600452602482fd5b5050600190565b506008821015806102d15760048314908115611b80575b8115611b70575b50611ac3565b90506102d1576006821438611b6a565b5050600582146000611b63565b50600883101580611b315760038414908115611bd5575b8115611bb1575b50611ab4565b9050611bc1576005831438611bab565b634e487b7160e01b81526021600452602490fd5b50506006831481611ba4565b5060088210156102d1576002821480611aa4575060068214611aa456fea2646970667358221220ee6fe7a405d3aa7c52a0ba6c0e316a0c806a008adab959abff6f15caa44f072764736f6c634300081c00337dc9ed3d635c09f8d480400bd28952dcf48619b0f27d3d69668fa24b1f7af8a4a2646970667358221220ed56066317af27e79401200d3669bffb07d1bc41a5d3735131661f52367c63ad64736f6c634300081c0033","opcodes":"PUSH1 0x80 DUP1 PUSH1 0x40 MSTORE CALLVALUE PUSH1 0x27 JUMPI PUSH1 0x0 DUP1 SLOAD PUSH1 0x1 PUSH1 0x1 PUSH1 0xA0 SHL SUB NOT AND CALLER OR SWAP1 SSTORE PUSH2 0x31CC SWAP1 DUP2 PUSH2 0x2D DUP3 CODECOPY RETURN JUMPDEST PUSH1 0x0 DUP1 REVERT INVALID PUSH1 0x80 DUP1 PUSH1 0x40 MSTORE PUSH1 0x4 CALLDATASIZE LT ISZERO PUSH2 0x13 JUMPI PUSH1 0x0 DUP1 REVERT JUMPDEST PUSH1 0x0 SWAP1 DUP2 CALLDATALOAD PUSH1 0xE0 SHR SWAP1 DUP2 PUSH4 0x131A91AD EQ PUSH2 0xB46 JUMPI POP DUP1 PUSH4 0x148680AD EQ PUSH2 0x95F JUMPI DUP1 PUSH4 0x359B248C EQ PUSH2 0x8CD JUMPI DUP1 PUSH4 0x38F6E47C EQ PUSH2 0x88E JUMPI DUP1 PUSH4 0x50304F03 EQ PUSH2 0x7E6 JUMPI DUP1 PUSH4 0x5C0204D9 EQ PUSH2 0x75C JUMPI DUP1 PUSH4 0x5E586EB1 EQ PUSH2 0x73E JUMPI DUP1 PUSH4 0x6C0CA68A EQ PUSH2 0x642 JUMPI DUP1 PUSH4 0x6E8E87AB EQ PUSH2 0x3E5 JUMPI DUP1 PUSH4 0x7AB32738 EQ PUSH2 0x3A4 JUMPI DUP1 PUSH4 0x7ECEBE00 EQ PUSH2 0x36B JUMPI DUP1 PUSH4 0x8DA5CB5B EQ PUSH2 0x344 JUMPI DUP1 PUSH4 0xB687A452 EQ PUSH2 0x29F JUMPI DUP1 PUSH4 0xF2FDE38B EQ PUSH2 0x20C JUMPI PUSH4 0xFAB9B285 EQ PUSH2 0xC6 JUMPI PUSH1 0x0 DUP1 REVERT JUMPDEST CALLVALUE PUSH2 0x209 JUMPI PUSH1 0x40 CALLDATASIZE PUSH1 0x3 NOT ADD SLT PUSH2 0x209 JUMPI PUSH2 0xDF PUSH2 0xB82 JUMP JUMPDEST PUSH1 0x24 CALLDATALOAD PUSH1 0x1 PUSH1 0x1 PUSH1 0xA0 SHL SUB DUP2 AND SWAP2 SWAP1 DUP3 SWAP1 SUB PUSH2 0x207 JUMPI DUP3 SLOAD PUSH1 0x1 PUSH1 0x1 PUSH1 0xA0 SHL SUB AND CALLER EQ ISZERO DUP1 PUSH2 0x1F0 JUMPI JUMPDEST PUSH2 0x1E1 JUMPI PUSH1 0x1 PUSH1 0x1 PUSH1 0xA0 SHL SUB AND DUP1 ISZERO DUP1 ISZERO PUSH2 0x1D9 JUMPI JUMPDEST PUSH2 0x1CA JUMPI DUP1 DUP4 MSTORE PUSH1 0x1 PUSH1 0x20 MSTORE PUSH1 0x40 DUP4 KECCAK256 SLOAD PUSH1 0x1 PUSH1 0x1 PUSH1 0xA0 SHL SUB AND SWAP1 DUP2 ISZERO PUSH2 0x1BB JUMPI DUP2 EXTCODESIZE ISZERO PUSH2 0x1AC JUMPI DUP4 PUSH1 0x40 MLOAD PUSH4 0x39D3AD77 PUSH1 0xE0 SHL DUP2 MSTORE DUP5 PUSH1 0x4 DUP3 ADD MSTORE DUP2 DUP2 PUSH1 0x24 DUP2 DUP4 DUP9 GAS CALL DUP1 ISZERO PUSH2 0x1B0 JUMPI PUSH2 0x197 JUMPI JUMPDEST POP DUP1 PUSH32 0x8D16763167296B8F84C1EAA662972554A494252231D9E04A4CA648884ECE49D SWAP2 LOG4 DUP1 RETURN JUMPDEST DUP2 PUSH2 0x1A1 SWAP2 PUSH2 0xC69 JUMP JUMPDEST PUSH2 0x1AC JUMPI DUP4 CODESIZE PUSH2 0x16F JUMP JUMPDEST DUP4 DUP1 REVERT JUMPDEST PUSH1 0x40 MLOAD RETURNDATASIZE DUP5 DUP3 RETURNDATACOPY RETURNDATASIZE SWAP1 REVERT JUMPDEST PUSH4 0x6F860927 PUSH1 0xE0 SHL DUP5 MSTORE PUSH1 0x4 DUP5 REVERT JUMPDEST PUSH4 0xD92E233D PUSH1 0xE0 SHL DUP4 MSTORE PUSH1 0x4 DUP4 REVERT JUMPDEST POP DUP2 ISZERO PUSH2 0x11F JUMP JUMPDEST PUSH4 0x24EB4D7 PUSH1 0xE0 SHL DUP4 MSTORE PUSH1 0x4 DUP4 REVERT JUMPDEST POP CALLER DUP4 MSTORE PUSH1 0x5 PUSH1 0x20 MSTORE PUSH1 0xFF PUSH1 0x40 DUP5 KECCAK256 SLOAD AND ISZERO PUSH2 0x109 JUMP JUMPDEST DUP3 JUMPDEST DUP1 REVERT JUMPDEST POP CALLVALUE PUSH2 0x209 JUMPI PUSH1 0x20 CALLDATASIZE PUSH1 0x3 NOT ADD SLT PUSH2 0x209 JUMPI PUSH2 0x226 PUSH2 0xB82 JUMP JUMPDEST DUP2 SLOAD SWAP1 PUSH1 0x1 PUSH1 0x1 PUSH1 0xA0 SHL SUB DUP3 AND SWAP1 CALLER DUP3 SWAP1 SUB PUSH2 0x290 JUMPI PUSH1 0x1 PUSH1 0x1 PUSH1 0xA0 SHL SUB AND SWAP2 DUP3 ISZERO PUSH2 0x281 JUMPI PUSH1 0x1 PUSH1 0x1 PUSH1 0xA0 SHL SUB NOT AND DUP3 OR DUP4 SSTORE PUSH32 0xB532073B38C83145E3E5135377A08BF9AAB55BC0FD7C1179CD4FB995D2A5159C DUP4 DUP1 LOG3 DUP1 RETURN JUMPDEST PUSH4 0xD92E233D PUSH1 0xE0 SHL DUP5 MSTORE PUSH1 0x4 DUP5 REVERT JUMPDEST PUSH4 0x30CD7471 PUSH1 0xE0 SHL DUP5 MSTORE PUSH1 0x4 DUP5 REVERT JUMPDEST POP CALLVALUE PUSH2 0x209 JUMPI PUSH1 0x40 CALLDATASIZE PUSH1 0x3 NOT ADD SLT PUSH2 0x209 JUMPI PUSH2 0x2B9 PUSH2 0xB82 JUMP JUMPDEST PUSH2 0x2C1 PUSH2 0xC08 JUMP JUMPDEST DUP3 SLOAD SWAP1 SWAP2 SWAP1 PUSH1 0x1 PUSH1 0x1 PUSH1 0xA0 SHL SUB AND CALLER SUB PUSH2 0x335 JUMPI PUSH1 0x1 PUSH1 0x1 PUSH1 0xA0 SHL SUB AND SWAP1 DUP2 ISZERO PUSH2 0x1CA JUMPI PUSH1 0x20 PUSH32 0x74AFEBFFC8ACDD9C14BC56F7149DB484F30E25C597B991A4319178A309DFC9DB SWAP2 DUP4 DUP6 MSTORE PUSH1 0x5 DUP3 MSTORE PUSH2 0x329 DUP2 PUSH1 0x40 DUP8 KECCAK256 SWAP1 PUSH1 0xFF DUP1 NOT DUP4 SLOAD AND SWAP2 ISZERO ISZERO AND OR SWAP1 SSTORE JUMP JUMPDEST PUSH1 0x40 MLOAD SWAP1 ISZERO ISZERO DUP2 MSTORE LOG2 DUP1 RETURN JUMPDEST PUSH4 0x30CD7471 PUSH1 0xE0 SHL DUP4 MSTORE PUSH1 0x4 DUP4 REVERT JUMPDEST POP CALLVALUE PUSH2 0x209 JUMPI DUP1 PUSH1 0x3 NOT CALLDATASIZE ADD SLT PUSH2 0x209 JUMPI SLOAD PUSH1 0x40 MLOAD PUSH1 0x1 PUSH1 0x1 PUSH1 0xA0 SHL SUB SWAP1 SWAP2 AND DUP2 MSTORE PUSH1 0x20 SWAP1 RETURN JUMPDEST POP CALLVALUE PUSH2 0x209 JUMPI PUSH1 0x20 CALLDATASIZE PUSH1 0x3 NOT ADD SLT PUSH2 0x209 JUMPI PUSH1 0x20 SWAP1 PUSH1 0x40 SWAP1 PUSH1 0x1 PUSH1 0x1 PUSH1 0xA0 SHL SUB PUSH2 0x393 PUSH2 0xB82 JUMP JUMPDEST AND DUP2 MSTORE PUSH1 0x4 DUP4 MSTORE KECCAK256 SLOAD PUSH1 0x40 MLOAD SWAP1 DUP2 MSTORE RETURN JUMPDEST POP CALLVALUE PUSH2 0x209 JUMPI PUSH1 0x20 CALLDATASIZE PUSH1 0x3 NOT ADD SLT PUSH2 0x209 JUMPI PUSH1 0x20 SWAP1 PUSH1 0x1 PUSH1 0x1 PUSH1 0xA0 SHL SUB PUSH2 0x3C9 PUSH2 0xB82 JUMP JUMPDEST AND DUP2 MSTORE PUSH1 0x1 DUP3 MSTORE PUSH1 0x40 PUSH1 0x1 DUP1 PUSH1 0xA0 SHL SUB SWAP2 KECCAK256 SLOAD AND PUSH1 0x40 MLOAD SWAP1 DUP2 MSTORE RETURN JUMPDEST POP CALLVALUE PUSH2 0x209 JUMPI PUSH1 0xA0 CALLDATASIZE PUSH1 0x3 NOT ADD SLT PUSH2 0x209 JUMPI PUSH2 0x3FF PUSH2 0xB82 JUMP JUMPDEST PUSH2 0x407 PUSH2 0xC08 JUMP JUMPDEST SWAP1 PUSH1 0x44 CALLDATALOAD SWAP2 PUSH1 0x64 CALLDATALOAD SWAP2 PUSH1 0x84 CALLDATALOAD PUSH8 0xFFFFFFFFFFFFFFFF DUP2 GT PUSH2 0x63E JUMPI PUSH2 0x430 SWAP1 CALLDATASIZE SWAP1 PUSH1 0x4 ADD PUSH2 0xB9D JUMP JUMPDEST SWAP1 SWAP2 DUP5 TIMESTAMP GT PUSH2 0x62F JUMPI PUSH1 0x1 PUSH1 0x1 PUSH1 0xA0 SHL SUB AND DUP1 DUP8 MSTORE PUSH1 0x4 PUSH1 0x20 MSTORE PUSH1 0x40 DUP8 KECCAK256 SLOAD SWAP1 SWAP4 SWAP1 DUP7 SUB PUSH2 0x620 JUMPI PUSH1 0x40 MLOAD PUSH1 0x20 DUP2 ADD SWAP2 DUP6 DUP4 MSTORE ISZERO ISZERO SWAP6 DUP7 PUSH1 0x40 DUP4 ADD MSTORE DUP8 PUSH1 0x60 DUP4 ADD MSTORE PUSH1 0x80 DUP3 ADD MSTORE ADDRESS PUSH1 0xA0 DUP3 ADD MSTORE PUSH1 0xA0 DUP2 MSTORE PUSH2 0x48C PUSH1 0xC0 DUP3 PUSH2 0xC69 JUMP JUMPDEST MLOAD SWAP1 KECCAK256 PUSH32 0x19457468657265756D205369676E6564204D6573736167653A0A333200000000 DUP8 MSTORE PUSH1 0x1C MSTORE PUSH1 0x3C DUP7 KECCAK256 PUSH8 0xFFFFFFFFFFFFFFFF DUP3 GT PUSH2 0x60C JUMPI PUSH1 0x40 MLOAD SWAP1 PUSH2 0x4E0 PUSH1 0x1F DUP5 ADD PUSH1 0x1F NOT AND PUSH1 0x20 ADD DUP4 PUSH2 0xC69 JUMP JUMPDEST DUP3 DUP3 MSTORE DUP8 CALLDATASIZE DUP5 DUP7 ADD GT PUSH2 0x209 JUMPI PUSH1 0x20 DUP5 PUSH2 0x505 SWAP6 PUSH2 0x50D SWAP8 DUP4 DUP8 ADD CALLDATACOPY DUP5 ADD ADD MSTORE PUSH2 0xCFF JUMP JUMPDEST SWAP2 SWAP1 SWAP2 PUSH2 0xD37 JUMP JUMPDEST PUSH1 0x1 PUSH1 0x1 PUSH1 0xA0 SHL SUB AND DUP1 DUP6 MSTORE PUSH1 0x3 PUSH1 0x20 MSTORE PUSH1 0x40 DUP6 KECCAK256 SLOAD SWAP1 SWAP4 SWAP1 PUSH1 0xFF AND ISZERO PUSH2 0x5FD JUMPI PUSH1 0x1 DUP2 ADD DUP1 SWAP2 GT PUSH2 0x5E9 JUMPI DUP2 DUP6 MSTORE PUSH1 0x4 PUSH1 0x20 MSTORE PUSH1 0x40 DUP6 KECCAK256 SSTORE DUP1 DUP5 MSTORE PUSH1 0x1 PUSH1 0x20 MSTORE PUSH1 0x1 DUP1 PUSH1 0xA0 SHL SUB PUSH1 0x40 DUP6 KECCAK256 SLOAD AND SWAP2 DUP3 ISZERO PUSH2 0x5DA JUMPI DUP3 EXTCODESIZE ISZERO PUSH2 0x5D6 JUMPI DUP5 PUSH1 0x40 MLOAD PUSH4 0x394ABBF PUSH1 0xE3 SHL DUP2 MSTORE DUP3 PUSH1 0x4 DUP3 ADD MSTORE DUP2 DUP2 PUSH1 0x24 DUP2 DUP4 DUP10 GAS CALL DUP1 ISZERO PUSH2 0x1B0 JUMPI PUSH2 0x5C1 JUMPI JUMPDEST POP POP PUSH1 0x20 PUSH32 0xD2952936061920788F0B2FC69E5DB186C12626952E14B81B39E48E6ACEF08770 SWAP2 PUSH1 0x40 MLOAD SWAP1 DUP2 MSTORE LOG4 DUP1 RETURN JUMPDEST DUP2 PUSH2 0x5CB SWAP2 PUSH2 0xC69 JUMP JUMPDEST PUSH2 0x5D6 JUMPI DUP5 CODESIZE PUSH2 0x591 JUMP JUMPDEST DUP5 DUP1 REVERT JUMPDEST PUSH4 0x6F860927 PUSH1 0xE0 SHL DUP6 MSTORE PUSH1 0x4 DUP6 REVERT JUMPDEST PUSH4 0x4E487B71 PUSH1 0xE0 SHL DUP6 MSTORE PUSH1 0x11 PUSH1 0x4 MSTORE PUSH1 0x24 DUP6 REVERT JUMPDEST PUSH4 0x4E090ADD PUSH1 0xE1 SHL DUP6 MSTORE PUSH1 0x4 DUP6 REVERT JUMPDEST PUSH4 0x4E487B71 PUSH1 0xE0 SHL DUP8 MSTORE PUSH1 0x41 PUSH1 0x4 MSTORE PUSH1 0x24 DUP8 REVERT JUMPDEST PUSH4 0x3AB3447F PUSH1 0xE1 SHL DUP8 MSTORE PUSH1 0x4 DUP8 REVERT JUMPDEST PUSH4 0x819BDCD PUSH1 0xE0 SHL DUP8 MSTORE PUSH1 0x4 DUP8 REVERT JUMPDEST DUP6 DUP1 REVERT JUMPDEST POP CALLVALUE PUSH2 0x209 JUMPI PUSH1 0x40 CALLDATASIZE PUSH1 0x3 NOT ADD SLT PUSH2 0x209 JUMPI PUSH2 0x65C PUSH2 0xB82 JUMP JUMPDEST PUSH2 0x664 PUSH2 0xC08 JUMP JUMPDEST DUP3 SLOAD SWAP1 SWAP2 SWAP1 PUSH1 0x1 PUSH1 0x1 PUSH1 0xA0 SHL SUB AND CALLER SUB PUSH2 0x335 JUMPI PUSH1 0x1 PUSH1 0x1 PUSH1 0xA0 SHL SUB SWAP1 DUP2 AND DUP1 DUP5 MSTORE PUSH1 0x1 PUSH1 0x20 MSTORE PUSH1 0x40 DUP5 KECCAK256 SLOAD SWAP1 SWAP2 AND SWAP2 DUP3 ISZERO PUSH2 0x1BB JUMPI DUP3 EXTCODESIZE ISZERO PUSH2 0x1AC JUMPI PUSH1 0x40 MLOAD PUSH4 0x394ABBF PUSH1 0xE3 SHL DUP2 MSTORE SWAP1 ISZERO ISZERO PUSH1 0x4 DUP3 ADD DUP2 SWAP1 MSTORE SWAP1 DUP5 DUP2 PUSH1 0x24 DUP2 DUP4 DUP9 GAS CALL DUP1 ISZERO PUSH2 0x733 JUMPI PUSH2 0x6FC JUMPI JUMPDEST POP PUSH1 0x20 PUSH32 0x54A5FFC7BA6D36586B4E16B091B7C60A338DB2D70D6E5A3FF9F20E31E87E7B2D SWAP2 PUSH1 0x40 MLOAD SWAP1 DUP2 MSTORE LOG3 DUP1 RETURN JUMPDEST DUP5 PUSH2 0x72B PUSH32 0x54A5FFC7BA6D36586B4E16B091B7C60A338DB2D70D6E5A3FF9F20E31E87E7B2D SWAP4 SWAP7 PUSH1 0x20 SWAP4 PUSH2 0xC69 JUMP JUMPDEST SWAP5 SWAP2 POP PUSH2 0x6CD JUMP JUMPDEST PUSH1 0x40 MLOAD RETURNDATASIZE DUP8 DUP3 RETURNDATACOPY RETURNDATASIZE SWAP1 REVERT JUMPDEST POP CALLVALUE PUSH2 0x209 JUMPI DUP1 PUSH1 0x3 NOT CALLDATASIZE ADD SLT PUSH2 0x209 JUMPI PUSH1 0x20 PUSH1 0x2 SLOAD PUSH1 0x40 MLOAD SWAP1 DUP2 MSTORE RETURN JUMPDEST POP CALLVALUE PUSH2 0x209 JUMPI PUSH1 0x40 CALLDATASIZE PUSH1 0x3 NOT ADD SLT PUSH2 0x209 JUMPI PUSH2 0x776 PUSH2 0xB82 JUMP JUMPDEST PUSH2 0x77E PUSH2 0xC08 JUMP JUMPDEST DUP3 SLOAD SWAP1 SWAP2 SWAP1 PUSH1 0x1 PUSH1 0x1 PUSH1 0xA0 SHL SUB AND CALLER SUB PUSH2 0x335 JUMPI PUSH1 0x1 PUSH1 0x1 PUSH1 0xA0 SHL SUB AND SWAP1 DUP2 ISZERO PUSH2 0x1CA JUMPI PUSH1 0x20 PUSH32 0xE282E8F39D469F44E202567418AF903A001092D0EAA89B1070C44D3F01C0DB2A SWAP2 DUP4 DUP6 MSTORE PUSH1 0x3 DUP3 MSTORE PUSH2 0x329 DUP2 PUSH1 0x40 DUP8 KECCAK256 SWAP1 PUSH1 0xFF DUP1 NOT DUP4 SLOAD AND SWAP2 ISZERO ISZERO AND OR SWAP1 SSTORE JUMP JUMPDEST POP CALLVALUE PUSH2 0x209 JUMPI DUP1 PUSH1 0x3 NOT CALLDATASIZE ADD SLT PUSH2 0x209 JUMPI PUSH1 0x2 SLOAD PUSH2 0x803 DUP2 PUSH2 0xCB9 JUMP JUMPDEST SWAP1 PUSH2 0x80D DUP2 PUSH2 0xCB9 JUMP JUMPDEST SWAP3 DUP1 JUMPDEST DUP3 DUP2 LT PUSH2 0x845 JUMPI PUSH2 0x833 DUP5 PUSH2 0x841 DUP8 PUSH1 0x40 MLOAD SWAP4 DUP5 SWAP4 PUSH1 0x40 DUP6 MSTORE PUSH1 0x40 DUP6 ADD SWAP1 PUSH2 0xBCB JUMP JUMPDEST SWAP1 DUP4 DUP3 SUB PUSH1 0x20 DUP6 ADD MSTORE PUSH2 0xBCB JUMP JUMPDEST SUB SWAP1 RETURN JUMPDEST DUP1 PUSH2 0x851 PUSH1 0x1 SWAP3 PUSH2 0xC38 JUMP JUMPDEST DUP4 DUP1 PUSH1 0xA0 SHL SUB SWAP2 SLOAD SWAP1 PUSH1 0x3 SHL SHR AND DUP1 PUSH2 0x86A DUP4 DUP9 PUSH2 0xCEB JUMP JUMPDEST MSTORE DUP4 MSTORE DUP2 PUSH1 0x20 MSTORE DUP2 DUP1 PUSH1 0xA0 SHL SUB PUSH1 0x40 DUP5 KECCAK256 SLOAD AND PUSH2 0x887 DUP3 DUP9 PUSH2 0xCEB JUMP JUMPDEST MSTORE ADD PUSH2 0x810 JUMP JUMPDEST POP CALLVALUE PUSH2 0x209 JUMPI PUSH1 0x20 CALLDATASIZE PUSH1 0x3 NOT ADD SLT PUSH2 0x209 JUMPI PUSH1 0x20 SWAP1 PUSH1 0xFF SWAP1 PUSH1 0x40 SWAP1 PUSH1 0x1 PUSH1 0x1 PUSH1 0xA0 SHL SUB PUSH2 0x8B9 PUSH2 0xB82 JUMP JUMPDEST AND DUP2 MSTORE PUSH1 0x5 DUP5 MSTORE KECCAK256 SLOAD AND PUSH1 0x40 MLOAD SWAP1 ISZERO ISZERO DUP2 MSTORE RETURN JUMPDEST POP CALLVALUE PUSH2 0x209 JUMPI DUP1 PUSH1 0x3 NOT CALLDATASIZE ADD SLT PUSH2 0x209 JUMPI PUSH1 0x40 MLOAD DUP1 SWAP2 PUSH1 0x20 PUSH1 0x2 SLOAD SWAP3 DUP4 DUP2 MSTORE ADD SWAP2 PUSH1 0x2 DUP3 MSTORE PUSH32 0x405787FA12A823E0F2B7631CC41B3BA8828B3321CA811111FA75CD3AA3BB5ACE SWAP2 JUMPDEST DUP2 DUP2 LT PUSH2 0x940 JUMPI PUSH2 0x841 DUP6 PUSH2 0x92C DUP2 DUP8 SUB DUP3 PUSH2 0xC69 JUMP JUMPDEST PUSH1 0x40 MLOAD SWAP2 DUP3 SWAP2 PUSH1 0x20 DUP4 MSTORE PUSH1 0x20 DUP4 ADD SWAP1 PUSH2 0xBCB JUMP JUMPDEST DUP3 SLOAD PUSH1 0x1 PUSH1 0x1 PUSH1 0xA0 SHL SUB AND DUP5 MSTORE PUSH1 0x20 SWAP1 SWAP4 ADD SWAP3 PUSH1 0x1 SWAP3 DUP4 ADD SWAP3 ADD PUSH2 0x915 JUMP JUMPDEST POP CALLVALUE PUSH2 0x209 JUMPI PUSH1 0x60 CALLDATASIZE PUSH1 0x3 NOT ADD SLT PUSH2 0x209 JUMPI PUSH1 0x4 CALLDATALOAD PUSH8 0xFFFFFFFFFFFFFFFF DUP2 GT PUSH2 0xB42 JUMPI PUSH2 0x991 SWAP1 CALLDATASIZE SWAP1 PUSH1 0x4 ADD PUSH2 0xB9D JUMP JUMPDEST PUSH1 0x24 CALLDATALOAD PUSH8 0xFFFFFFFFFFFFFFFF DUP2 GT PUSH2 0x1AC JUMPI PUSH2 0x9B1 SWAP1 CALLDATASIZE SWAP1 PUSH1 0x4 ADD PUSH2 0xB9D JUMP JUMPDEST PUSH1 0x44 CALLDATALOAD PUSH8 0xFFFFFFFFFFFFFFFF DUP2 GT PUSH2 0x63E JUMPI PUSH2 0x9D1 SWAP1 CALLDATASIZE SWAP1 PUSH1 0x4 ADD PUSH2 0xB9D JUMP JUMPDEST CALLER DUP8 MSTORE PUSH1 0x1 PUSH1 0x20 MSTORE PUSH1 0x40 DUP8 KECCAK256 SLOAD SWAP1 SWAP4 SWAP2 SWAP3 SWAP1 PUSH1 0x1 PUSH1 0x1 PUSH1 0xA0 SHL SUB AND PUSH2 0xB33 JUMPI PUSH1 0x40 MLOAD SWAP6 PUSH2 0x22B9 SWAP6 DUP7 DUP9 ADD SWAP7 DUP9 DUP9 LT PUSH8 0xFFFFFFFFFFFFFFFF DUP10 GT OR PUSH2 0xB1F JUMPI SWAP3 PUSH2 0xA40 PUSH2 0xA4E SWAP4 PUSH2 0xA5C SWAP9 SWAP7 SWAP4 DUP12 SWAP11 SWAP9 SWAP7 PUSH2 0xEDE DUP13 CODECOPY CALLER DUP10 MSTORE ADDRESS PUSH1 0x20 DUP11 ADD MSTORE PUSH1 0xA0 PUSH1 0x40 DUP11 ADD MSTORE PUSH1 0xA0 DUP10 ADD SWAP2 PUSH2 0xC17 JUMP JUMPDEST SWAP2 DUP7 DUP4 SUB PUSH1 0x60 DUP9 ADD MSTORE PUSH2 0xC17 JUMP JUMPDEST SWAP3 PUSH1 0x80 DUP2 DUP6 SUB SWAP2 ADD MSTORE PUSH2 0xC17 JUMP JUMPDEST SUB SWAP1 DUP3 CREATE DUP1 ISZERO PUSH2 0xB12 JUMPI CALLER DUP3 MSTORE PUSH1 0x1 PUSH1 0x20 MSTORE PUSH1 0x40 DUP3 KECCAK256 DUP1 SLOAD PUSH1 0x1 PUSH1 0x1 PUSH1 0xA0 SHL SUB NOT AND PUSH1 0x1 PUSH1 0x1 PUSH1 0xA0 SHL SUB SWAP3 SWAP1 SWAP3 AND SWAP2 DUP3 OR SWAP1 SSTORE PUSH1 0x2 SLOAD SWAP2 SWAP1 PUSH9 0x10000000000000000 DUP4 LT ISZERO PUSH2 0xAFE JUMPI PUSH2 0xAB7 DUP4 PUSH1 0x1 PUSH1 0x20 SWAP6 ADD PUSH1 0x2 SSTORE PUSH2 0xC38 JUMP JUMPDEST DUP2 SLOAD SWAP1 PUSH1 0x3 SHL SWAP1 CALLER DUP3 SHL SWAP2 PUSH1 0x1 DUP1 PUSH1 0xA0 SHL SUB SWAP1 SHL NOT AND OR SWAP1 SSTORE DUP1 PUSH1 0x40 MLOAD SWAP3 PUSH32 0xA93072AD567E6157CD68A9A276AFB4889CADC9462EBA7F74FFC891E62238158B CALLER SWAP2 DUP1 LOG3 DUP2 MSTORE RETURN JUMPDEST PUSH4 0x4E487B71 PUSH1 0xE0 SHL DUP3 MSTORE PUSH1 0x41 PUSH1 0x4 MSTORE PUSH1 0x24 DUP3 REVERT JUMPDEST POP PUSH1 0x40 MLOAD SWAP1 RETURNDATASIZE SWAP1 DUP3 RETURNDATACOPY RETURNDATASIZE SWAP1 REVERT JUMPDEST PUSH4 0x4E487B71 PUSH1 0xE0 SHL DUP11 MSTORE PUSH1 0x41 PUSH1 0x4 MSTORE PUSH1 0x24 DUP11 REVERT JUMPDEST PUSH4 0x8D2C60DB PUSH1 0xE0 SHL DUP8 MSTORE PUSH1 0x4 DUP8 REVERT JUMPDEST POP DUP1 REVERT JUMPDEST SWAP1 POP CALLVALUE PUSH2 0xB42 JUMPI PUSH1 0x20 CALLDATASIZE PUSH1 0x3 NOT ADD SLT PUSH2 0xB42 JUMPI PUSH1 0x20 SWAP2 PUSH1 0xFF SWAP1 PUSH1 0x40 SWAP1 PUSH1 0x1 PUSH1 0x1 PUSH1 0xA0 SHL SUB PUSH2 0xB72 PUSH2 0xB82 JUMP JUMPDEST AND DUP2 MSTORE PUSH1 0x3 DUP6 MSTORE KECCAK256 SLOAD AND ISZERO ISZERO DUP2 MSTORE RETURN JUMPDEST PUSH1 0x4 CALLDATALOAD SWAP1 PUSH1 0x1 PUSH1 0x1 PUSH1 0xA0 SHL SUB DUP3 AND DUP3 SUB PUSH2 0xB98 JUMPI JUMP JUMPDEST PUSH1 0x0 DUP1 REVERT JUMPDEST SWAP2 DUP2 PUSH1 0x1F DUP5 ADD SLT ISZERO PUSH2 0xB98 JUMPI DUP3 CALLDATALOAD SWAP2 PUSH8 0xFFFFFFFFFFFFFFFF DUP4 GT PUSH2 0xB98 JUMPI PUSH1 0x20 DUP4 DUP2 DUP7 ADD SWAP6 ADD ADD GT PUSH2 0xB98 JUMPI JUMP JUMPDEST SWAP1 PUSH1 0x20 DUP1 DUP4 MLOAD SWAP3 DUP4 DUP2 MSTORE ADD SWAP3 ADD SWAP1 PUSH1 0x0 JUMPDEST DUP2 DUP2 LT PUSH2 0xBE9 JUMPI POP POP POP SWAP1 JUMP JUMPDEST DUP3 MLOAD PUSH1 0x1 PUSH1 0x1 PUSH1 0xA0 SHL SUB AND DUP5 MSTORE PUSH1 0x20 SWAP4 DUP5 ADD SWAP4 SWAP1 SWAP3 ADD SWAP2 PUSH1 0x1 ADD PUSH2 0xBDC JUMP JUMPDEST PUSH1 0x24 CALLDATALOAD SWAP1 DUP2 ISZERO ISZERO DUP3 SUB PUSH2 0xB98 JUMPI JUMP JUMPDEST SWAP1 DUP1 PUSH1 0x20 SWAP4 SWAP3 DUP2 DUP5 MSTORE DUP5 DUP5 ADD CALLDATACOPY PUSH1 0x0 DUP3 DUP3 ADD DUP5 ADD MSTORE PUSH1 0x1F ADD PUSH1 0x1F NOT AND ADD ADD SWAP1 JUMP JUMPDEST PUSH1 0x2 SLOAD DUP2 LT ISZERO PUSH2 0xC53 JUMPI PUSH1 0x2 PUSH1 0x0 MSTORE PUSH1 0x20 PUSH1 0x0 KECCAK256 ADD SWAP1 PUSH1 0x0 SWAP1 JUMP JUMPDEST PUSH4 0x4E487B71 PUSH1 0xE0 SHL PUSH1 0x0 MSTORE PUSH1 0x32 PUSH1 0x4 MSTORE PUSH1 0x24 PUSH1 0x0 REVERT JUMPDEST SWAP1 PUSH1 0x1F DUP1 NOT SWAP2 ADD AND DUP2 ADD SWAP1 DUP2 LT PUSH8 0xFFFFFFFFFFFFFFFF DUP3 GT OR PUSH2 0xC8B JUMPI PUSH1 0x40 MSTORE JUMP JUMPDEST PUSH4 0x4E487B71 PUSH1 0xE0 SHL PUSH1 0x0 MSTORE PUSH1 0x41 PUSH1 0x4 MSTORE PUSH1 0x24 PUSH1 0x0 REVERT JUMPDEST PUSH8 0xFFFFFFFFFFFFFFFF DUP2 GT PUSH2 0xC8B JUMPI PUSH1 0x5 SHL PUSH1 0x20 ADD SWAP1 JUMP JUMPDEST SWAP1 PUSH2 0xCC3 DUP3 PUSH2 0xCA1 JUMP JUMPDEST PUSH2 0xCD0 PUSH1 0x40 MLOAD SWAP2 DUP3 PUSH2 0xC69 JUMP JUMPDEST DUP3 DUP2 MSTORE DUP1 SWAP3 PUSH2 0xCE1 PUSH1 0x1F NOT SWAP2 PUSH2 0xCA1 JUMP JUMPDEST ADD SWAP1 PUSH1 0x20 CALLDATASIZE SWAP2 ADD CALLDATACOPY JUMP JUMPDEST DUP1 MLOAD DUP3 LT ISZERO PUSH2 0xC53 JUMPI PUSH1 0x20 SWAP2 PUSH1 0x5 SHL ADD ADD SWAP1 JUMP JUMPDEST SWAP1 PUSH1 0x41 DUP2 MLOAD EQ PUSH1 0x0 EQ PUSH2 0xD2D JUMPI PUSH2 0xD29 SWAP2 PUSH1 0x20 DUP3 ADD MLOAD SWAP1 PUSH1 0x60 PUSH1 0x40 DUP5 ADD MLOAD SWAP4 ADD MLOAD PUSH1 0x0 BYTE SWAP1 PUSH2 0xE51 JUMP JUMPDEST SWAP1 SWAP2 JUMP JUMPDEST POP POP PUSH1 0x0 SWAP1 PUSH1 0x2 SWAP1 JUMP JUMPDEST PUSH1 0x5 DUP2 LT ISZERO PUSH2 0xE3B JUMPI DUP1 PUSH2 0xD48 JUMPI POP JUMP JUMPDEST PUSH1 0x1 DUP2 SUB PUSH2 0xD95 JUMPI PUSH1 0x40 MLOAD PUSH3 0x461BCD PUSH1 0xE5 SHL DUP2 MSTORE PUSH1 0x20 PUSH1 0x4 DUP3 ADD MSTORE PUSH1 0x18 PUSH1 0x24 DUP3 ADD MSTORE PUSH32 0x45434453413A20696E76616C6964207369676E61747572650000000000000000 PUSH1 0x44 DUP3 ADD MSTORE PUSH1 0x64 SWAP1 REVERT JUMPDEST PUSH1 0x2 DUP2 SUB PUSH2 0xDE2 JUMPI PUSH1 0x40 MLOAD PUSH3 0x461BCD PUSH1 0xE5 SHL DUP2 MSTORE PUSH1 0x20 PUSH1 0x4 DUP3 ADD MSTORE PUSH1 0x1F PUSH1 0x24 DUP3 ADD MSTORE PUSH32 0x45434453413A20696E76616C6964207369676E6174757265206C656E67746800 PUSH1 0x44 DUP3 ADD MSTORE PUSH1 0x64 SWAP1 REVERT JUMPDEST PUSH1 0x3 EQ PUSH2 0xDEB JUMPI JUMP JUMPDEST PUSH1 0x40 MLOAD PUSH3 0x461BCD PUSH1 0xE5 SHL DUP2 MSTORE PUSH1 0x20 PUSH1 0x4 DUP3 ADD MSTORE PUSH1 0x22 PUSH1 0x24 DUP3 ADD MSTORE PUSH32 0x45434453413A20696E76616C6964207369676E6174757265202773272076616C PUSH1 0x44 DUP3 ADD MSTORE PUSH2 0x7565 PUSH1 0xF0 SHL PUSH1 0x64 DUP3 ADD MSTORE PUSH1 0x84 SWAP1 REVERT JUMPDEST PUSH4 0x4E487B71 PUSH1 0xE0 SHL PUSH1 0x0 MSTORE PUSH1 0x21 PUSH1 0x4 MSTORE PUSH1 0x24 PUSH1 0x0 REVERT JUMPDEST PUSH32 0x7FFFFFFFFFFFFFFFFFFFFFFFFFFFFFFF5D576E7357A4501DDFE92F46681B20A0 DUP5 GT PUSH2 0xED1 JUMPI PUSH1 0x20 SWAP4 PUSH1 0x0 SWAP4 PUSH1 0xFF PUSH1 0x80 SWAP5 PUSH1 0x40 MLOAD SWAP5 DUP6 MSTORE AND DUP7 DUP5 ADD MSTORE PUSH1 0x40 DUP4 ADD MSTORE PUSH1 0x60 DUP3 ADD MSTORE DUP3 DUP1 MSTORE PUSH1 0x1 GAS STATICCALL ISZERO PUSH2 0xEC5 JUMPI PUSH1 0x0 MLOAD PUSH1 0x1 PUSH1 0x1 PUSH1 0xA0 SHL SUB DUP2 AND ISZERO PUSH2 0xEBC JUMPI SWAP1 PUSH1 0x0 SWAP1 JUMP JUMPDEST POP PUSH1 0x0 SWAP1 PUSH1 0x1 SWAP1 JUMP JUMPDEST PUSH1 0x40 MLOAD RETURNDATASIZE PUSH1 0x0 DUP3 RETURNDATACOPY RETURNDATASIZE SWAP1 REVERT JUMPDEST POP POP POP POP PUSH1 0x0 SWAP1 PUSH1 0x3 SWAP1 JUMP INVALID PUSH1 0xC0 PUSH1 0x40 MSTORE CALLVALUE PUSH2 0x58E JUMPI PUSH2 0x22B9 DUP1 CODESIZE SUB DUP1 PUSH2 0x19 DUP2 PUSH2 0x593 JUMP JUMPDEST SWAP3 DUP4 CODECOPY DUP2 ADD PUSH1 0xA0 DUP3 DUP3 SUB SLT PUSH2 0x58E JUMPI PUSH2 0x31 DUP3 PUSH2 0x5B8 JUMP JUMPDEST SWAP2 PUSH2 0x3E PUSH1 0x20 DUP3 ADD PUSH2 0x5B8 JUMP JUMPDEST PUSH1 0x40 DUP3 ADD MLOAD PUSH1 0x1 PUSH1 0x1 PUSH1 0x40 SHL SUB DUP2 GT PUSH2 0x58E JUMPI DUP4 PUSH2 0x5D SWAP2 DUP5 ADD PUSH2 0x5EF JUMP JUMPDEST PUSH1 0x60 DUP4 ADD MLOAD SWAP1 SWAP3 SWAP1 PUSH1 0x1 PUSH1 0x1 PUSH1 0x40 SHL SUB DUP2 GT PUSH2 0x58E JUMPI DUP5 PUSH2 0x7F SWAP2 DUP4 ADD PUSH2 0x5EF JUMP JUMPDEST PUSH1 0x80 DUP3 ADD MLOAD SWAP1 SWAP5 SWAP1 PUSH1 0x1 PUSH1 0x1 PUSH1 0x40 SHL SUB DUP2 GT PUSH2 0x58E JUMPI PUSH2 0x9F SWAP3 ADD PUSH2 0x5EF JUMP JUMPDEST SWAP4 PUSH1 0x1 PUSH1 0x1 PUSH1 0xA0 SHL SUB DUP2 AND ISZERO DUP1 ISZERO PUSH2 0x57D JUMPI JUMPDEST PUSH2 0x56C JUMPI PUSH1 0x80 MSTORE PUSH1 0xA0 MSTORE DUP1 MLOAD PUSH1 0x1 PUSH1 0x1 PUSH1 0x40 SHL SUB DUP2 GT PUSH2 0x399 JUMPI PUSH1 0x0 SLOAD PUSH1 0x1 DUP2 DUP2 SHR SWAP2 AND DUP1 ISZERO PUSH2 0x562 JUMPI JUMPDEST PUSH1 0x20 DUP3 LT EQ PUSH2 0x379 JUMPI PUSH1 0x1F DUP2 GT PUSH2 0x4FE JUMPI JUMPDEST POP DUP1 PUSH1 0x20 PUSH1 0x1F DUP3 GT PUSH1 0x1 EQ PUSH2 0x49A JUMPI PUSH1 0x0 SWAP2 PUSH2 0x48F JUMPI JUMPDEST POP DUP2 PUSH1 0x1 SHL SWAP2 PUSH1 0x0 NOT SWAP1 PUSH1 0x3 SHL SHR NOT AND OR PUSH1 0x0 SSTORE JUMPDEST DUP2 MLOAD SWAP3 PUSH1 0x1 PUSH1 0x1 PUSH1 0x40 SHL SUB DUP5 GT PUSH2 0x399 JUMPI PUSH1 0x1 SLOAD PUSH1 0x1 DUP2 DUP2 SHR SWAP2 AND DUP1 ISZERO PUSH2 0x485 JUMPI JUMPDEST PUSH1 0x20 DUP3 LT EQ PUSH2 0x379 JUMPI PUSH1 0x1F DUP2 GT PUSH2 0x420 JUMPI JUMPDEST POP PUSH1 0x20 SWAP4 PUSH1 0x1F DUP2 GT PUSH1 0x1 EQ PUSH2 0x3BA JUMPI DUP1 SWAP2 SWAP3 SWAP4 SWAP5 PUSH1 0x0 SWAP2 PUSH2 0x3AF JUMPI JUMPDEST POP DUP2 PUSH1 0x1 SHL SWAP2 PUSH1 0x0 NOT SWAP1 PUSH1 0x3 SHL SHR NOT AND OR PUSH1 0x1 SSTORE JUMPDEST DUP1 MLOAD SWAP3 PUSH1 0x1 PUSH1 0x1 PUSH1 0x40 SHL SUB DUP5 GT PUSH2 0x399 JUMPI PUSH1 0x2 SLOAD PUSH1 0x1 DUP2 DUP2 SHR SWAP2 AND DUP1 ISZERO PUSH2 0x38F JUMPI JUMPDEST PUSH1 0x20 DUP3 LT EQ PUSH2 0x379 JUMPI PUSH1 0x1F DUP2 GT PUSH2 0x314 JUMPI JUMPDEST POP PUSH1 0x20 SWAP4 PUSH1 0x1F DUP2 GT PUSH1 0x1 EQ PUSH2 0x294 JUMPI SWAP2 PUSH2 0x234 PUSH2 0x242 SWAP3 DUP5 PUSH2 0x226 SWAP7 SWAP6 PUSH1 0x0 DUP1 MLOAD PUSH1 0x20 PUSH2 0x2299 DUP4 CODECOPY DUP2 MLOAD SWAP2 MSTORE SWAP9 PUSH1 0x0 SWAP2 PUSH2 0x289 JUMPI JUMPDEST POP DUP2 PUSH1 0x1 SHL SWAP2 PUSH1 0x0 NOT SWAP1 PUSH1 0x3 SHL SHR NOT AND OR PUSH1 0x2 SSTORE JUMPDEST PUSH1 0x0 PUSH1 0x4 SSTORE PUSH1 0x0 PUSH1 0x5 SSTORE PUSH1 0xFF NOT PUSH1 0x6 SLOAD AND PUSH1 0x6 SSTORE PUSH1 0x40 MLOAD SWAP6 DUP7 SWAP6 PUSH1 0x60 DUP8 MSTORE PUSH1 0x60 DUP8 ADD SWAP1 PUSH2 0x63F JUMP JUMPDEST SWAP1 DUP6 DUP3 SUB PUSH1 0x20 DUP8 ADD MSTORE PUSH2 0x63F JUMP JUMPDEST SWAP1 DUP4 DUP3 SUB PUSH1 0x40 DUP6 ADD MSTORE PUSH2 0x63F JUMP JUMPDEST SUB SWAP1 LOG1 PUSH1 0x40 MLOAD PUSH2 0x1C34 SWAP1 DUP2 PUSH2 0x665 DUP3 CODECOPY PUSH1 0x80 MLOAD DUP2 DUP2 DUP2 PUSH2 0x4CC ADD MSTORE DUP2 DUP2 PUSH2 0xF51 ADD MSTORE PUSH2 0x1216 ADD MSTORE PUSH1 0xA0 MLOAD DUP2 DUP2 DUP2 PUSH2 0x9C1 ADD MSTORE DUP2 DUP2 PUSH2 0xA81 ADD MSTORE DUP2 DUP2 PUSH2 0x1005 ADD MSTORE PUSH2 0x1168 ADD MSTORE RETURN JUMPDEST SWAP1 POP DUP5 ADD MLOAD CODESIZE PUSH2 0x1E9 JUMP JUMPDEST PUSH1 0x1F NOT DUP2 AND PUSH1 0x2 PUSH1 0x0 MSTORE DUP6 PUSH1 0x0 KECCAK256 SWAP1 PUSH1 0x0 JUMPDEST DUP2 DUP2 LT PUSH2 0x2FC JUMPI POP SWAP3 PUSH1 0x1 DUP4 PUSH2 0x234 SWAP4 PUSH1 0x0 DUP1 MLOAD PUSH1 0x20 PUSH2 0x2299 DUP4 CODECOPY DUP2 MLOAD SWAP2 MSTORE SWAP10 PUSH2 0x226 SWAP10 SWAP9 SWAP7 PUSH2 0x242 SWAP9 LT PUSH2 0x2E3 JUMPI JUMPDEST POP POP DUP2 SHL ADD PUSH1 0x2 SSTORE PUSH2 0x1FE JUMP JUMPDEST DUP7 ADD MLOAD PUSH1 0x0 NOT PUSH1 0xF8 DUP5 PUSH1 0x3 SHL AND SHR NOT AND SWAP1 SSTORE CODESIZE DUP1 PUSH2 0x2D6 JUMP JUMPDEST DUP6 DUP9 ADD MLOAD DUP4 SSTORE PUSH1 0x20 SWAP8 DUP9 ADD SWAP8 PUSH1 0x1 SWAP1 SWAP4 ADD SWAP3 ADD PUSH2 0x2A6 JUMP JUMPDEST PUSH1 0x2 PUSH1 0x0 MSTORE PUSH32 0x405787FA12A823E0F2B7631CC41B3BA8828B3321CA811111FA75CD3AA3BB5ACE PUSH1 0x1F DUP7 ADD PUSH1 0x5 SHR DUP2 ADD SWAP2 PUSH1 0x20 DUP8 LT PUSH2 0x36F JUMPI JUMPDEST PUSH1 0x1F ADD PUSH1 0x5 SHR ADD SWAP1 JUMPDEST DUP2 DUP2 LT PUSH2 0x363 JUMPI POP PUSH2 0x1B4 JUMP JUMPDEST PUSH1 0x0 DUP2 SSTORE PUSH1 0x1 ADD PUSH2 0x356 JUMP JUMPDEST SWAP1 SWAP2 POP DUP2 SWAP1 PUSH2 0x34D JUMP JUMPDEST PUSH4 0x4E487B71 PUSH1 0xE0 SHL PUSH1 0x0 MSTORE PUSH1 0x22 PUSH1 0x4 MSTORE PUSH1 0x24 PUSH1 0x0 REVERT JUMPDEST SWAP1 PUSH1 0x7F AND SWAP1 PUSH2 0x1A2 JUMP JUMPDEST PUSH4 0x4E487B71 PUSH1 0xE0 SHL PUSH1 0x0 MSTORE PUSH1 0x41 PUSH1 0x4 MSTORE PUSH1 0x24 PUSH1 0x0 REVERT JUMPDEST SWAP1 POP DUP5 ADD MLOAD CODESIZE PUSH2 0x16B JUMP JUMPDEST PUSH1 0x1F NOT DUP2 AND SWAP5 PUSH1 0x1 PUSH1 0x0 MSTORE DUP1 PUSH1 0x0 KECCAK256 SWAP1 PUSH1 0x0 JUMPDEST DUP8 DUP2 LT PUSH2 0x408 JUMPI POP DUP3 PUSH1 0x1 SWAP5 SWAP6 SWAP7 SWAP8 LT PUSH2 0x3EF JUMPI JUMPDEST POP POP DUP2 SHL ADD PUSH1 0x1 SSTORE PUSH2 0x180 JUMP JUMPDEST DUP7 ADD MLOAD PUSH1 0x0 NOT PUSH1 0xF8 DUP5 PUSH1 0x3 SHL AND SHR NOT AND SWAP1 SSTORE CODESIZE DUP1 PUSH2 0x3E2 JUMP JUMPDEST SWAP1 SWAP2 PUSH1 0x20 PUSH1 0x1 DUP2 SWAP3 DUP6 DUP11 ADD MLOAD DUP2 SSTORE ADD SWAP4 ADD SWAP2 ADD PUSH2 0x3CD JUMP JUMPDEST PUSH1 0x1 PUSH1 0x0 MSTORE PUSH32 0xB10E2D527612073B26EECDFD717E6A320CF44B4AFAC2B0732D9FCBE2B7FA0CF6 PUSH1 0x1F DUP7 ADD PUSH1 0x5 SHR DUP2 ADD SWAP2 PUSH1 0x20 DUP8 LT PUSH2 0x47B JUMPI JUMPDEST PUSH1 0x1F ADD PUSH1 0x5 SHR ADD SWAP1 JUMPDEST DUP2 DUP2 LT PUSH2 0x46F JUMPI POP PUSH2 0x14F JUMP JUMPDEST PUSH1 0x0 DUP2 SSTORE PUSH1 0x1 ADD PUSH2 0x462 JUMP JUMPDEST SWAP1 SWAP2 POP DUP2 SWAP1 PUSH2 0x459 JUMP JUMPDEST SWAP1 PUSH1 0x7F AND SWAP1 PUSH2 0x13D JUMP JUMPDEST SWAP1 POP DUP3 ADD MLOAD CODESIZE PUSH2 0x106 JUMP JUMPDEST PUSH1 0x0 DUP1 DUP1 MSTORE DUP2 DUP2 KECCAK256 SWAP3 POP PUSH1 0x1F NOT DUP5 AND SWAP1 JUMPDEST DUP2 DUP2 LT PUSH2 0x4E6 JUMPI POP SWAP1 DUP4 PUSH1 0x1 SWAP5 SWAP4 SWAP3 LT PUSH2 0x4CD JUMPI JUMPDEST POP POP DUP2 SHL ADD PUSH1 0x0 SSTORE PUSH2 0x11B JUMP JUMPDEST DUP5 ADD MLOAD PUSH1 0x0 NOT PUSH1 0xF8 DUP5 PUSH1 0x3 SHL AND SHR NOT AND SWAP1 SSTORE CODESIZE DUP1 PUSH2 0x4C0 JUMP JUMPDEST SWAP2 SWAP3 PUSH1 0x20 PUSH1 0x1 DUP2 SWAP3 DUP7 DUP10 ADD MLOAD DUP2 SSTORE ADD SWAP5 ADD SWAP3 ADD PUSH2 0x4AB JUMP JUMPDEST PUSH1 0x0 DUP1 MSTORE PUSH32 0x290DECD9548B62A8D60345A988386FC84BA6BC95484008F6362F93160EF3E563 PUSH1 0x1F DUP4 ADD PUSH1 0x5 SHR DUP2 ADD SWAP2 PUSH1 0x20 DUP5 LT PUSH2 0x558 JUMPI JUMPDEST PUSH1 0x1F ADD PUSH1 0x5 SHR ADD SWAP1 JUMPDEST DUP2 DUP2 LT PUSH2 0x54C JUMPI POP PUSH2 0xEF JUMP JUMPDEST PUSH1 0x0 DUP2 SSTORE PUSH1 0x1 ADD PUSH2 0x53F JUMP JUMPDEST SWAP1 SWAP2 POP DUP2 SWAP1 PUSH2 0x536 JUMP JUMPDEST SWAP1 PUSH1 0x7F AND SWAP1 PUSH2 0xDD JUMP JUMPDEST PUSH4 0xD92E233D PUSH1 0xE0 SHL PUSH1 0x0 MSTORE PUSH1 0x4 PUSH1 0x0 REVERT JUMPDEST POP PUSH1 0x1 PUSH1 0x1 PUSH1 0xA0 SHL SUB DUP3 AND ISZERO PUSH2 0xB2 JUMP JUMPDEST PUSH1 0x0 DUP1 REVERT JUMPDEST PUSH1 0x40 MLOAD SWAP2 SWAP1 PUSH1 0x1F ADD PUSH1 0x1F NOT AND DUP3 ADD PUSH1 0x1 PUSH1 0x1 PUSH1 0x40 SHL SUB DUP2 GT DUP4 DUP3 LT OR PUSH2 0x399 JUMPI PUSH1 0x40 MSTORE JUMP JUMPDEST MLOAD SWAP1 PUSH1 0x1 PUSH1 0x1 PUSH1 0xA0 SHL SUB DUP3 AND DUP3 SUB PUSH2 0x58E JUMPI JUMP JUMPDEST PUSH1 0x0 JUMPDEST DUP4 DUP2 LT PUSH2 0x5DF JUMPI POP POP PUSH1 0x0 SWAP2 ADD MSTORE JUMP JUMPDEST DUP2 DUP2 ADD MLOAD DUP4 DUP3 ADD MSTORE PUSH1 0x20 ADD PUSH2 0x5CF JUMP JUMPDEST DUP2 PUSH1 0x1F DUP3 ADD SLT ISZERO PUSH2 0x58E JUMPI DUP1 MLOAD PUSH1 0x1 PUSH1 0x1 PUSH1 0x40 SHL SUB DUP2 GT PUSH2 0x399 JUMPI PUSH2 0x61D PUSH1 0x1F DUP3 ADD PUSH1 0x1F NOT AND PUSH1 0x20 ADD PUSH2 0x593 JUMP JUMPDEST SWAP3 DUP2 DUP5 MSTORE PUSH1 0x20 DUP3 DUP5 ADD ADD GT PUSH2 0x58E JUMPI PUSH2 0x63C SWAP2 PUSH1 0x20 DUP1 DUP6 ADD SWAP2 ADD PUSH2 0x5CC JUMP JUMPDEST SWAP1 JUMP JUMPDEST SWAP1 PUSH1 0x20 SWAP2 PUSH2 0x658 DUP2 MLOAD DUP1 SWAP3 DUP2 DUP6 MSTORE DUP6 DUP1 DUP7 ADD SWAP2 ADD PUSH2 0x5CC JUMP JUMPDEST PUSH1 0x1F ADD PUSH1 0x1F NOT AND ADD ADD SWAP1 JUMP INVALID PUSH1 0x80 DUP1 PUSH1 0x40 MSTORE PUSH1 0x4 CALLDATASIZE LT ISZERO PUSH2 0x13 JUMPI PUSH1 0x0 DUP1 REVERT JUMPDEST PUSH1 0x0 CALLDATALOAD PUSH1 0xE0 SHR SWAP1 DUP2 PUSH4 0x6237526 EQ PUSH2 0x16C4 JUMPI POP DUP1 PUSH4 0x6FDDE03 EQ PUSH2 0x16A6 JUMPI DUP1 PUSH4 0x1105A5EB EQ PUSH2 0x11A1 JUMPI DUP1 PUSH4 0x1CA55DF8 EQ PUSH2 0x1149 JUMPI DUP1 PUSH4 0x20D7F08B EQ PUSH2 0x1126 JUMPI DUP1 PUSH4 0x2B757CB8 EQ PUSH2 0x109F JUMPI DUP1 PUSH4 0x39D3AD77 EQ PUSH2 0xFDD JUMPI DUP1 PUSH4 0x567142BE EQ PUSH2 0xFBF JUMPI DUP1 PUSH4 0x5ABE34E2 EQ PUSH2 0x956 JUMPI DUP1 PUSH4 0x6FD5AE15 EQ PUSH2 0xF9E JUMPI DUP1 PUSH4 0x7BC4C061 EQ PUSH2 0xF80 JUMPI DUP1 PUSH4 0x8DA5CB5B EQ PUSH2 0xF3B JUMPI DUP1 PUSH4 0x963310AF EQ PUSH2 0xE93 JUMPI DUP1 PUSH4 0x9C53A120 EQ PUSH2 0xC7B JUMPI DUP1 PUSH4 0xA3ABE425 EQ PUSH2 0xB69 JUMPI DUP1 PUSH4 0xAA98EFEE EQ PUSH2 0x31F JUMPI DUP1 PUSH4 0xC22C4F43 EQ PUSH2 0xAB0 JUMPI DUP1 PUSH4 0xC45A0155 EQ PUSH2 0xA6B JUMPI DUP1 PUSH4 0xE86BFFDF EQ PUSH2 0x999 JUMPI DUP1 PUSH4 0xE904F667 EQ PUSH2 0x956 JUMPI DUP1 PUSH4 0xEF8F2596 EQ PUSH2 0x435 JUMPI DUP1 PUSH4 0xF516B422 EQ PUSH2 0x350 JUMPI DUP1 PUSH4 0xF7A13D89 EQ PUSH2 0x31F JUMPI PUSH4 0xFA40D2E8 EQ PUSH2 0x127 JUMPI PUSH1 0x0 DUP1 REVERT JUMPDEST CALLVALUE PUSH2 0x31A JUMPI PUSH1 0x20 CALLDATASIZE PUSH1 0x3 NOT ADD SLT PUSH2 0x31A JUMPI PUSH1 0x4 CALLDATALOAD CALLER PUSH1 0x0 MSTORE PUSH1 0x7 PUSH1 0x20 MSTORE PUSH1 0xFF PUSH1 0x40 PUSH1 0x0 KECCAK256 SLOAD AND ISZERO PUSH2 0x309 JUMPI DUP1 ISZERO PUSH2 0x2F8 JUMPI DUP1 PUSH1 0x0 MSTORE PUSH1 0x8 PUSH1 0x20 MSTORE PUSH1 0xFF PUSH1 0x40 PUSH1 0x0 KECCAK256 SLOAD PUSH1 0xA0 SHR AND PUSH1 0x8 DUP2 LT ISZERO PUSH2 0x2D1 JUMPI PUSH2 0x2E7 JUMPI PUSH1 0x40 MLOAD TIMESTAMP PUSH1 0x1 PUSH1 0x1 PUSH1 0x40 SHL SUB AND PUSH2 0x190 DUP3 PUSH2 0x1719 JUMP JUMPDEST CALLER DUP3 MSTORE PUSH1 0x20 DUP3 ADD PUSH1 0x1 DUP2 MSTORE PUSH1 0x40 DUP4 ADD SWAP1 PUSH1 0x0 DUP3 MSTORE PUSH1 0x60 DUP5 ADD SWAP3 PUSH1 0x0 DUP5 MSTORE PUSH1 0x80 DUP6 ADD SWAP2 DUP2 DUP4 MSTORE PUSH1 0xA0 DUP7 ADD SWAP2 DUP3 MSTORE DUP7 PUSH1 0x0 MSTORE PUSH1 0x8 PUSH1 0x20 MSTORE PUSH1 0x40 PUSH1 0x0 KECCAK256 SWAP6 PUSH1 0x1 DUP1 PUSH1 0xA0 SHL SUB SWAP1 MLOAD AND PUSH12 0xFFFFFFFFFFFFFFFFFFFFFFFF PUSH1 0xA0 SHL DUP8 SLOAD AND OR DUP7 SSTORE MLOAD SWAP2 PUSH1 0x8 DUP4 LT ISZERO PUSH2 0x2D1 JUMPI PUSH1 0x1 PUSH1 0x1 PUSH1 0x40 SHL SUB SWAP5 PUSH2 0x22C PUSH1 0xFF PUSH1 0x1 SWAP7 PUSH2 0x212 DUP10 SWAP8 DUP12 PUSH2 0x1957 JUMP JUMPDEST MLOAD DUP10 SLOAD PUSH1 0xFF PUSH1 0xA8 SHL NOT AND SWAP2 AND PUSH1 0xA8 SHL PUSH1 0xFF PUSH1 0xA8 SHL AND OR DUP9 SSTORE JUMP JUMPDEST MLOAD ISZERO ISZERO DUP7 SLOAD SWAP1 PUSH1 0xFF PUSH1 0xB0 SHL SWAP1 PUSH1 0xB0 SHL AND SWAP1 PUSH1 0xFF PUSH1 0xB0 SHL NOT AND OR DUP7 SSTORE MLOAD DUP6 SLOAD SWAP1 DUP4 PUSH1 0xB8 SHL SWAP1 PUSH1 0xB8 SHL AND SWAP1 DUP4 PUSH1 0xB8 SHL NOT AND OR DUP6 SSTORE MLOAD AND SWAP3 ADD SWAP2 AND PUSH1 0x1 PUSH1 0x1 PUSH1 0x40 SHL SUB NOT DUP3 SLOAD AND OR SWAP1 SSTORE PUSH1 0x40 MLOAD SWAP1 CALLER DUP2 PUSH32 0x18737BA33CF8FC3CA591008614A168159CB822FCB206AB8E12C6C200A39B95FB PUSH1 0x0 DUP1 LOG3 PUSH1 0x0 DUP3 MSTORE PUSH1 0x1 PUSH1 0x20 DUP4 ADD MSTORE PUSH32 0x8CC8BD6DD4C5914C8824D0A2E6D02D8CBD54DE0113506D38FA9C2CD5611D2104 PUSH1 0x40 CALLER SWAP4 LOG3 STOP JUMPDEST PUSH4 0x4E487B71 PUSH1 0xE0 SHL PUSH1 0x0 MSTORE PUSH1 0x21 PUSH1 0x4 MSTORE PUSH1 0x24 PUSH1 0x0 REVERT JUMPDEST PUSH4 0x1E8FA571 PUSH1 0xE3 SHL PUSH1 0x0 MSTORE PUSH1 0x4 PUSH1 0x0 REVERT JUMPDEST PUSH4 0x406729F9 PUSH1 0xE1 SHL PUSH1 0x0 MSTORE PUSH1 0x4 PUSH1 0x0 REVERT JUMPDEST PUSH4 0x18EB746B PUSH1 0xE1 SHL PUSH1 0x0 MSTORE PUSH1 0x4 PUSH1 0x0 REVERT JUMPDEST PUSH1 0x0 DUP1 REVERT JUMPDEST CALLVALUE PUSH2 0x31A JUMPI PUSH1 0x20 CALLDATASIZE PUSH1 0x3 NOT ADD SLT PUSH2 0x31A JUMPI PUSH1 0x4 CALLDATALOAD PUSH1 0x0 MSTORE PUSH1 0x9 PUSH1 0x20 MSTORE PUSH1 0x20 PUSH1 0xFF PUSH1 0x40 PUSH1 0x0 KECCAK256 SLOAD AND PUSH1 0x40 MLOAD SWAP1 ISZERO ISZERO DUP2 MSTORE RETURN JUMPDEST CALLVALUE PUSH2 0x31A JUMPI PUSH1 0x0 CALLDATASIZE PUSH1 0x3 NOT ADD SLT PUSH2 0x31A JUMPI PUSH1 0x40 MLOAD PUSH1 0x0 PUSH1 0x1 SLOAD PUSH2 0x372 DUP2 PUSH2 0x16DF JUMP JUMPDEST DUP1 DUP5 MSTORE SWAP1 PUSH1 0x1 DUP2 AND SWAP1 DUP2 ISZERO PUSH2 0x411 JUMPI POP PUSH1 0x1 EQ PUSH2 0x3B2 JUMPI JUMPDEST PUSH2 0x3AE DUP4 PUSH2 0x39A DUP2 DUP6 SUB DUP3 PUSH2 0x1734 JUMP JUMPDEST PUSH1 0x40 MLOAD SWAP2 DUP3 SWAP2 PUSH1 0x20 DUP4 MSTORE PUSH1 0x20 DUP4 ADD SWAP1 PUSH2 0x17F9 JUMP JUMPDEST SUB SWAP1 RETURN JUMPDEST PUSH1 0x1 PUSH1 0x0 SWAP1 DUP2 MSTORE PUSH32 0xB10E2D527612073B26EECDFD717E6A320CF44B4AFAC2B0732D9FCBE2B7FA0CF6 SWAP4 SWAP3 POP SWAP1 JUMPDEST DUP1 DUP3 LT PUSH2 0x3F7 JUMPI POP SWAP1 SWAP2 POP DUP2 ADD PUSH1 0x20 ADD PUSH2 0x39A PUSH2 0x38A JUMP JUMPDEST SWAP2 SWAP3 PUSH1 0x1 DUP2 PUSH1 0x20 SWAP3 SLOAD DUP4 DUP6 DUP9 ADD ADD MSTORE ADD SWAP2 ADD SWAP1 SWAP3 SWAP2 PUSH2 0x3DF JUMP JUMPDEST PUSH1 0xFF NOT AND PUSH1 0x20 DUP1 DUP7 ADD SWAP2 SWAP1 SWAP2 MSTORE SWAP2 ISZERO ISZERO PUSH1 0x5 SHL DUP5 ADD SWAP1 SWAP2 ADD SWAP2 POP PUSH2 0x39A SWAP1 POP PUSH2 0x38A JUMP JUMPDEST CALLVALUE PUSH2 0x31A JUMPI PUSH1 0xA0 CALLDATASIZE PUSH1 0x3 NOT ADD SLT PUSH2 0x31A JUMPI PUSH1 0x4 CALLDATALOAD PUSH1 0x1 PUSH1 0x1 PUSH1 0x40 SHL SUB DUP2 GT PUSH2 0x31A JUMPI PUSH2 0x465 SWAP1 CALLDATASIZE SWAP1 PUSH1 0x4 ADD PUSH2 0x183A JUMP JUMPDEST SWAP1 PUSH1 0x24 CALLDATALOAD PUSH1 0x1 PUSH1 0x1 PUSH1 0x40 SHL SUB DUP2 GT PUSH2 0x31A JUMPI PUSH2 0x485 SWAP1 CALLDATASIZE SWAP1 PUSH1 0x4 ADD PUSH2 0x183A JUMP JUMPDEST SWAP3 SWAP1 PUSH1 0x44 CALLDATALOAD PUSH1 0x1 PUSH1 0x1 PUSH1 0x40 SHL SUB DUP2 GT PUSH2 0x31A JUMPI PUSH2 0x4A6 SWAP1 CALLDATASIZE SWAP1 PUSH1 0x4 ADD PUSH2 0x183A JUMP JUMPDEST PUSH1 0x64 SWAP6 SWAP2 SWAP6 CALLDATALOAD PUSH1 0x1 PUSH1 0x1 PUSH1 0x40 SHL SUB DUP2 GT PUSH2 0x31A JUMPI PUSH2 0x4C8 SWAP1 CALLDATASIZE SWAP1 PUSH1 0x4 ADD PUSH2 0x183A JUMP JUMPDEST SWAP7 SWAP1 PUSH32 0x0 PUSH1 0x1 PUSH1 0x1 PUSH1 0xA0 SHL SUB AND CALLER SUB PUSH2 0x945 JUMPI PUSH1 0xFF PUSH1 0x3 SLOAD AND ISZERO PUSH2 0x934 JUMPI PUSH1 0xB SLOAD SWAP5 PUSH1 0x64 DUP7 LT ISZERO PUSH2 0x923 JUMPI PUSH2 0x55C SWAP3 PUSH2 0x53E PUSH2 0x54D SWAP3 PUSH1 0x40 MLOAD SWAP8 PUSH2 0x52A DUP10 PUSH2 0x1719 JUMP JUMPDEST PUSH2 0x535 CALLDATASIZE DUP13 DUP15 PUSH2 0x197B JUMP JUMPDEST DUP10 MSTORE CALLDATASIZE SWAP2 PUSH2 0x197B JUMP JUMPDEST SWAP5 PUSH1 0x20 DUP8 ADD SWAP6 DUP7 MSTORE CALLDATASIZE SWAP2 PUSH2 0x197B JUMP JUMPDEST SWAP8 PUSH1 0x40 DUP6 ADD SWAP9 DUP10 MSTORE CALLDATASIZE SWAP2 PUSH2 0x197B JUMP JUMPDEST SWAP6 PUSH1 0x60 DUP4 ADD SWAP7 DUP8 MSTORE PUSH1 0x80 DUP4 ADD SWAP2 PUSH1 0x84 CALLDATALOAD DUP4 MSTORE PUSH1 0xA0 DUP5 ADD SWAP5 PUSH1 0x1 DUP7 MSTORE PUSH1 0x0 MSTORE PUSH1 0xA PUSH1 0x20 MSTORE PUSH1 0x40 PUSH1 0x0 KECCAK256 SWAP4 MLOAD DUP1 MLOAD SWAP1 PUSH1 0x1 PUSH1 0x1 PUSH1 0x40 SHL SUB DUP3 GT PUSH2 0x7CD JUMPI PUSH2 0x5AB DUP3 PUSH2 0x5A5 DUP9 SLOAD PUSH2 0x16DF JUMP JUMPDEST DUP9 PUSH2 0x1874 JUMP JUMPDEST PUSH1 0x20 SWAP1 PUSH1 0x1F DUP4 GT PUSH1 0x1 EQ PUSH2 0x8BC JUMPI PUSH2 0x5DC SWAP3 SWAP2 PUSH1 0x0 SWAP2 DUP4 PUSH2 0x756 JUMPI JUMPDEST POP POP DUP2 PUSH1 0x1 SHL SWAP2 PUSH1 0x0 NOT SWAP1 PUSH1 0x3 SHL SHR NOT AND OR SWAP1 JUMP JUMPDEST DUP5 SSTORE JUMPDEST MLOAD DUP1 MLOAD PUSH1 0x1 DUP6 ADD SWAP2 PUSH1 0x1 PUSH1 0x1 PUSH1 0x40 SHL SUB DUP3 GT PUSH2 0x7CD JUMPI PUSH2 0x609 DUP3 PUSH2 0x603 DUP6 SLOAD PUSH2 0x16DF JUMP JUMPDEST DUP6 PUSH2 0x1874 JUMP JUMPDEST PUSH1 0x20 SWAP1 PUSH1 0x1F DUP4 GT PUSH1 0x1 EQ PUSH2 0x855 JUMPI PUSH2 0x639 SWAP3 SWAP2 PUSH1 0x0 SWAP2 DUP4 PUSH2 0x756 JUMPI POP POP DUP2 PUSH1 0x1 SHL SWAP2 PUSH1 0x0 NOT SWAP1 PUSH1 0x3 SHL SHR NOT AND OR SWAP1 JUMP JUMPDEST SWAP1 SSTORE JUMPDEST MLOAD DUP1 MLOAD PUSH1 0x2 DUP5 ADD SWAP2 PUSH1 0x1 PUSH1 0x1 PUSH1 0x40 SHL SUB DUP3 GT PUSH2 0x7CD JUMPI PUSH2 0x660 DUP3 PUSH2 0x603 DUP6 SLOAD PUSH2 0x16DF JUMP JUMPDEST PUSH1 0x20 SWAP1 PUSH1 0x1F DUP4 GT PUSH1 0x1 EQ PUSH2 0x7EE JUMPI PUSH2 0x690 SWAP3 SWAP2 PUSH1 0x0 SWAP2 DUP4 PUSH2 0x7E3 JUMPI POP POP DUP2 PUSH1 0x1 SHL SWAP2 PUSH1 0x0 NOT SWAP1 PUSH1 0x3 SHL SHR NOT AND OR SWAP1 JUMP JUMPDEST SWAP1 SSTORE JUMPDEST PUSH1 0x3 DUP3 ADD SWAP6 MLOAD SWAP6 DUP7 MLOAD PUSH1 0x1 PUSH1 0x1 PUSH1 0x40 SHL SUB DUP2 GT PUSH2 0x7CD JUMPI PUSH2 0x6BE DUP2 PUSH2 0x6B8 DUP5 SLOAD PUSH2 0x16DF JUMP JUMPDEST DUP5 PUSH2 0x1874 JUMP JUMPDEST PUSH1 0x20 PUSH1 0x1F DUP3 GT PUSH1 0x1 EQ PUSH2 0x761 JUMPI DUP2 PUSH1 0x5 SWAP6 SWAP5 SWAP4 SWAP3 PUSH2 0x6F5 SWAP3 PUSH1 0x1 SWAP12 PUSH1 0x0 SWAP3 PUSH2 0x756 JUMPI POP POP DUP2 PUSH1 0x1 SHL SWAP2 PUSH1 0x0 NOT SWAP1 PUSH1 0x3 SHL SHR NOT AND OR SWAP1 JUMP JUMPDEST SWAP1 SSTORE JUMPDEST MLOAD PUSH1 0x4 DUP3 ADD SSTORE ADD SWAP1 MLOAD ISZERO ISZERO PUSH1 0xFF DUP1 NOT DUP4 SLOAD AND SWAP2 AND OR SWAP1 SSTORE PUSH32 0xE1F8251252D428948683869E48119B3D7A3F4DF9E46C775F5C6591CBD065F4D5 PUSH1 0xB SLOAD SWAP3 DUP4 SWAP3 PUSH2 0x74D PUSH1 0x40 MLOAD SWAP3 DUP4 SWAP3 PUSH1 0x20 DUP5 MSTORE PUSH1 0x20 DUP5 ADD SWAP2 PUSH2 0x18C6 JUMP JUMPDEST SUB SWAP1 LOG2 ADD PUSH1 0xB SSTORE STOP JUMPDEST ADD MLOAD SWAP1 POP DUP12 DUP1 PUSH2 0x5C7 JUMP JUMPDEST PUSH1 0x1F NOT DUP3 AND SWAP1 DUP4 PUSH1 0x0 MSTORE DUP1 PUSH1 0x0 KECCAK256 SWAP2 PUSH1 0x0 JUMPDEST DUP2 DUP2 LT PUSH2 0x7B5 JUMPI POP SWAP2 DUP4 SWAP2 PUSH1 0x1 SWAP12 PUSH1 0x5 SWAP9 SWAP8 SWAP7 SWAP6 DUP14 SWAP6 LT PUSH2 0x79C JUMPI JUMPDEST POP POP POP DUP2 SHL ADD SWAP1 SSTORE PUSH2 0x6F8 JUMP JUMPDEST ADD MLOAD PUSH1 0x0 NOT PUSH1 0xF8 DUP5 PUSH1 0x3 SHL AND SHR NOT AND SWAP1 SSTORE DUP11 DUP1 DUP1 PUSH2 0x78F JUMP JUMPDEST SWAP2 SWAP3 PUSH1 0x20 PUSH1 0x1 DUP2 SWAP3 DUP7 DUP16 ADD MLOAD DUP2 SSTORE ADD SWAP5 ADD SWAP3 ADD PUSH2 0x773 JUMP JUMPDEST PUSH4 0x4E487B71 PUSH1 0xE0 SHL PUSH1 0x0 MSTORE PUSH1 0x41 PUSH1 0x4 MSTORE PUSH1 0x24 PUSH1 0x0 REVERT JUMPDEST ADD MLOAD SWAP1 POP DUP11 DUP1 PUSH2 0x5C7 JUMP JUMPDEST SWAP1 PUSH1 0x1F NOT DUP4 AND SWAP2 DUP5 PUSH1 0x0 MSTORE DUP2 PUSH1 0x0 KECCAK256 SWAP3 PUSH1 0x0 JUMPDEST DUP2 DUP2 LT PUSH2 0x83D JUMPI POP SWAP1 DUP5 PUSH1 0x1 SWAP6 SWAP5 SWAP4 SWAP3 LT PUSH2 0x824 JUMPI JUMPDEST POP POP POP DUP2 SHL ADD SWAP1 SSTORE PUSH2 0x693 JUMP JUMPDEST ADD MLOAD PUSH1 0x0 NOT PUSH1 0xF8 DUP5 PUSH1 0x3 SHL AND SHR NOT AND SWAP1 SSTORE DUP10 DUP1 DUP1 PUSH2 0x817 JUMP JUMPDEST SWAP3 SWAP4 PUSH1 0x20 PUSH1 0x1 DUP2 SWAP3 DUP8 DUP7 ADD MLOAD DUP2 SSTORE ADD SWAP6 ADD SWAP4 ADD PUSH2 0x801 JUMP JUMPDEST SWAP1 PUSH1 0x1F NOT DUP4 AND SWAP2 DUP5 PUSH1 0x0 MSTORE DUP2 PUSH1 0x0 KECCAK256 SWAP3 PUSH1 0x0 JUMPDEST DUP2 DUP2 LT PUSH2 0x8A4 JUMPI POP SWAP1 DUP5 PUSH1 0x1 SWAP6 SWAP5 SWAP4 SWAP3 LT PUSH2 0x88B JUMPI JUMPDEST POP POP POP DUP2 SHL ADD SWAP1 SSTORE PUSH2 0x63C JUMP JUMPDEST ADD MLOAD PUSH1 0x0 NOT PUSH1 0xF8 DUP5 PUSH1 0x3 SHL AND SHR NOT AND SWAP1 SSTORE DUP11 DUP1 DUP1 PUSH2 0x87E JUMP JUMPDEST SWAP3 SWAP4 PUSH1 0x20 PUSH1 0x1 DUP2 SWAP3 DUP8 DUP7 ADD MLOAD DUP2 SSTORE ADD SWAP6 ADD SWAP4 ADD PUSH2 0x868 JUMP JUMPDEST SWAP1 PUSH1 0x1F NOT DUP4 AND SWAP2 DUP8 PUSH1 0x0 MSTORE DUP2 PUSH1 0x0 KECCAK256 SWAP3 PUSH1 0x0 JUMPDEST DUP2 DUP2 LT PUSH2 0x90B JUMPI POP SWAP1 DUP5 PUSH1 0x1 SWAP6 SWAP5 SWAP4 SWAP3 LT PUSH2 0x8F2 JUMPI JUMPDEST POP POP POP DUP2 SHL ADD DUP5 SSTORE PUSH2 0x5DF JUMP JUMPDEST ADD MLOAD PUSH1 0x0 NOT PUSH1 0xF8 DUP5 PUSH1 0x3 SHL AND SHR NOT AND SWAP1 SSTORE DUP11 DUP1 DUP1 PUSH2 0x8E5 JUMP JUMPDEST SWAP3 SWAP4 PUSH1 0x20 PUSH1 0x1 DUP2 SWAP3 DUP8 DUP7 ADD MLOAD DUP2 SSTORE ADD SWAP6 ADD SWAP4 ADD PUSH2 0x8CF JUMP JUMPDEST PUSH4 0x36CD6067 PUSH1 0xE2 SHL PUSH1 0x0 MSTORE PUSH1 0x4 PUSH1 0x0 REVERT JUMPDEST PUSH4 0xA95362B5 PUSH1 0xE0 SHL PUSH1 0x0 MSTORE PUSH1 0x4 PUSH1 0x0 REVERT JUMPDEST PUSH4 0x30CD7471 PUSH1 0xE0 SHL PUSH1 0x0 MSTORE PUSH1 0x4 PUSH1 0x0 REVERT JUMPDEST CALLVALUE PUSH2 0x31A JUMPI PUSH1 0x20 CALLDATASIZE PUSH1 0x3 NOT ADD SLT PUSH2 0x31A JUMPI PUSH1 0x4 CALLDATALOAD PUSH1 0x1 PUSH1 0x1 PUSH1 0xA0 SHL SUB DUP2 AND SWAP1 DUP2 SWAP1 SUB PUSH2 0x31A JUMPI PUSH1 0x0 MSTORE PUSH1 0x7 PUSH1 0x20 MSTORE PUSH1 0x20 PUSH1 0xFF PUSH1 0x40 PUSH1 0x0 KECCAK256 SLOAD AND PUSH1 0x40 MLOAD SWAP1 ISZERO ISZERO DUP2 MSTORE RETURN JUMPDEST CALLVALUE PUSH2 0x31A JUMPI PUSH1 0x20 CALLDATASIZE PUSH1 0x3 NOT ADD SLT PUSH2 0x31A JUMPI PUSH1 0x4 CALLDATALOAD PUSH1 0x1 PUSH1 0x1 PUSH1 0xA0 SHL SUB DUP2 AND SWAP1 DUP2 SWAP1 SUB PUSH2 0x31A JUMPI PUSH32 0x0 PUSH1 0x1 PUSH1 0x1 PUSH1 0xA0 SHL SUB AND CALLER SUB PUSH2 0xA5A JUMPI DUP1 ISZERO PUSH2 0xA49 JUMPI DUP1 PUSH1 0x0 MSTORE PUSH1 0x7 PUSH1 0x20 MSTORE PUSH1 0xFF PUSH1 0x40 PUSH1 0x0 KECCAK256 SLOAD AND ISZERO PUSH2 0x309 JUMPI DUP1 PUSH1 0x0 MSTORE PUSH1 0x7 PUSH1 0x20 MSTORE PUSH1 0x40 PUSH1 0x0 KECCAK256 PUSH1 0xFF NOT DUP2 SLOAD AND SWAP1 SSTORE PUSH32 0x9CFE83A14FC052FE86CB71C1329BD455873A823933CF98C5DCFF5721BECA5152 PUSH1 0x0 DUP1 LOG2 STOP JUMPDEST PUSH4 0xD92E233D PUSH1 0xE0 SHL PUSH1 0x0 MSTORE PUSH1 0x4 PUSH1 0x0 REVERT JUMPDEST PUSH4 0x1966391B PUSH1 0xE1 SHL PUSH1 0x0 MSTORE PUSH1 0x4 PUSH1 0x0 REVERT JUMPDEST CALLVALUE PUSH2 0x31A JUMPI PUSH1 0x0 CALLDATASIZE PUSH1 0x3 NOT ADD SLT PUSH2 0x31A JUMPI PUSH1 0x40 MLOAD PUSH32 0x0 PUSH1 0x1 PUSH1 0x1 PUSH1 0xA0 SHL SUB AND DUP2 MSTORE PUSH1 0x20 SWAP1 RETURN JUMPDEST CALLVALUE PUSH2 0x31A JUMPI PUSH1 0x20 CALLDATASIZE PUSH1 0x3 NOT ADD SLT PUSH2 0x31A JUMPI PUSH1 0x4 CALLDATALOAD PUSH1 0x0 MSTORE PUSH1 0xA PUSH1 0x20 MSTORE PUSH2 0xB2E PUSH1 0x40 PUSH1 0x0 KECCAK256 PUSH2 0xADD DUP2 PUSH2 0x1755 JUMP JUMPDEST SWAP1 PUSH2 0xAEA PUSH1 0x1 DUP3 ADD PUSH2 0x1755 JUMP JUMPDEST PUSH2 0xB58 PUSH2 0xAF9 PUSH1 0x2 DUP5 ADD PUSH2 0x1755 JUMP JUMPDEST PUSH2 0xB4A PUSH2 0xB08 PUSH1 0x3 DUP7 ADD PUSH2 0x1755 JUMP JUMPDEST SWAP2 PUSH2 0xB3C PUSH1 0xFF PUSH1 0x5 PUSH1 0x4 DUP10 ADD SLOAD SWAP9 ADD SLOAD AND SWAP6 PUSH1 0x40 MLOAD SWAP10 DUP11 SWAP10 PUSH1 0xC0 DUP12 MSTORE PUSH1 0xC0 DUP12 ADD SWAP1 PUSH2 0x17F9 JUMP JUMPDEST SWAP1 DUP10 DUP3 SUB PUSH1 0x20 DUP12 ADD MSTORE PUSH2 0x17F9 JUMP JUMPDEST SWAP1 DUP8 DUP3 SUB PUSH1 0x40 DUP10 ADD MSTORE PUSH2 0x17F9 JUMP JUMPDEST SWAP1 DUP6 DUP3 SUB PUSH1 0x60 DUP8 ADD MSTORE PUSH2 0x17F9 JUMP JUMPDEST SWAP2 PUSH1 0x80 DUP5 ADD MSTORE ISZERO ISZERO PUSH1 0xA0 DUP4 ADD MSTORE SUB SWAP1 RETURN JUMPDEST CALLVALUE PUSH2 0x31A JUMPI PUSH1 0x40 CALLDATASIZE PUSH1 0x3 NOT ADD SLT PUSH2 0x31A JUMPI PUSH1 0x24 CALLDATALOAD PUSH1 0x4 CALLDATALOAD PUSH1 0x8 DUP3 LT ISZERO PUSH2 0x31A JUMPI CALLER PUSH1 0x0 MSTORE PUSH1 0x7 PUSH1 0x20 MSTORE PUSH1 0xFF PUSH1 0x40 PUSH1 0x0 KECCAK256 SLOAD AND ISZERO PUSH2 0x309 JUMPI PUSH2 0xBA9 DUP2 PUSH2 0x19C1 JUMP JUMPDEST DUP1 SLOAD CALLER PUSH1 0x1 PUSH1 0x1 PUSH1 0xA0 SHL SUB DUP3 AND SUB PUSH2 0xC6A JUMPI PUSH1 0xFF DUP2 PUSH1 0xB0 SHR AND PUSH2 0xC59 JUMPI PUSH1 0xA0 SHR PUSH1 0xFF AND SWAP3 PUSH2 0xBD7 DUP2 DUP6 PUSH2 0x1A91 JUMP JUMPDEST ISZERO PUSH2 0xC48 JUMPI PUSH1 0x1 DUP3 PUSH2 0xBEC DUP4 PUSH2 0xC20 SWAP6 PUSH2 0x1957 JUMP JUMPDEST ADD DUP1 SLOAD PUSH8 0xFFFFFFFFFFFFFFFF NOT AND TIMESTAMP PUSH1 0x1 PUSH1 0x1 PUSH1 0x40 SHL SUB AND OR SWAP1 SSTORE PUSH1 0x40 MLOAD SWAP4 PUSH2 0xC16 SWAP1 DUP6 SWAP1 PUSH2 0x1867 JUMP JUMPDEST PUSH1 0x20 DUP5 ADD SWAP1 PUSH2 0x1867 JUMP JUMPDEST PUSH32 0x8CC8BD6DD4C5914C8824D0A2E6D02D8CBD54DE0113506D38FA9C2CD5611D2104 PUSH1 0x40 CALLER SWAP4 LOG3 STOP JUMPDEST PUSH4 0x88BD323 PUSH1 0xE1 SHL PUSH1 0x0 MSTORE PUSH1 0x4 PUSH1 0x0 REVERT JUMPDEST PUSH4 0x311D737B PUSH1 0xE2 SHL PUSH1 0x0 MSTORE PUSH1 0x4 PUSH1 0x0 REVERT JUMPDEST PUSH4 0x1818917B PUSH1 0xE0 SHL PUSH1 0x0 MSTORE PUSH1 0x4 PUSH1 0x0 REVERT JUMPDEST CALLVALUE PUSH2 0x31A JUMPI PUSH1 0x40 CALLDATASIZE PUSH1 0x3 NOT ADD SLT PUSH2 0x31A JUMPI PUSH1 0x4 CALLDATALOAD PUSH1 0xFF DUP2 AND SWAP1 DUP2 DUP2 SUB PUSH2 0x31A JUMPI PUSH1 0x24 CALLDATALOAD SWAP1 CALLER PUSH1 0x0 MSTORE PUSH1 0x7 PUSH1 0x20 MSTORE PUSH1 0xFF PUSH1 0x40 PUSH1 0x0 KECCAK256 SLOAD AND ISZERO PUSH2 0x309 JUMPI SWAP2 PUSH2 0xCC0 DUP3 PUSH2 0x19C1 JUMP JUMPDEST DUP1 SLOAD SWAP1 SWAP2 SWAP1 CALLER PUSH1 0x1 PUSH1 0x1 PUSH1 0xA0 SHL SUB DUP3 AND SUB PUSH2 0xC6A JUMPI PUSH1 0xFF DUP2 PUSH1 0xB0 SHR AND PUSH2 0xC59 JUMPI PUSH1 0xA0 SHR PUSH1 0xFF AND PUSH1 0x8 DUP2 LT ISZERO PUSH2 0x2D1 JUMPI PUSH1 0x4 SUB PUSH2 0xE83 JUMPI PUSH1 0x1 GT PUSH2 0xE7A JUMPI JUMPDEST PUSH1 0x5 PUSH1 0xFF DUP5 AND GT PUSH2 0xE71 JUMPI JUMPDEST DUP1 SLOAD PUSH1 0xA8 DUP5 SWAP1 SHL PUSH1 0xFF PUSH1 0xA8 SHL AND PUSH3 0xFFFFFF PUSH1 0xA0 SHL NOT SWAP1 SWAP2 AND OR PUSH3 0x10007 PUSH1 0xA0 SHL OR DUP2 SSTORE PUSH1 0x1 SWAP1 DUP2 ADD DUP1 SLOAD PUSH8 0xFFFFFFFFFFFFFFFF NOT AND TIMESTAMP PUSH1 0x1 PUSH1 0x1 PUSH1 0x40 SHL SUB AND OR SWAP1 SSTORE PUSH1 0x0 DUP3 DUP2 MSTORE PUSH1 0x9 PUSH1 0x20 MSTORE PUSH1 0x40 SWAP1 KECCAK256 DUP1 SLOAD PUSH1 0xFF NOT AND SWAP1 SWAP2 OR SWAP1 SSTORE PUSH1 0x4 SLOAD PUSH1 0xFF SWAP1 SWAP3 AND SWAP2 DUP3 DUP2 ADD SWAP1 DUP2 DUP2 GT PUSH2 0xE5B JUMPI DUP2 PUSH1 0x4 SSTORE PUSH1 0x5 SLOAD SWAP1 PUSH1 0x1 DUP3 ADD DUP1 SWAP3 GT PUSH2 0xE5B JUMPI PUSH1 0x40 PUSH32 0x2A4F386DACBB02A5D478D3FC1D2DBC487B69ED735B8D629E99D905680DB927EB SWAP2 DUP4 PUSH1 0x5 SSTORE DUP2 MLOAD SWAP1 DUP2 MSTORE DUP5 PUSH1 0x20 DUP3 ADD MSTORE LOG1 PUSH1 0x6 SLOAD SWAP2 PUSH1 0xFF DUP4 AND PUSH1 0xFF PUSH2 0xDD4 DUP4 DUP6 PUSH2 0x19E7 JUMP JUMPDEST AND DUP1 SWAP5 PUSH1 0xFF NOT AND OR PUSH1 0x6 SSTORE DUP1 DUP5 SUB PUSH2 0xE25 JUMPI JUMPDEST POP PUSH1 0x40 MLOAD SWAP5 DUP6 MSTORE PUSH1 0x20 DUP6 ADD MSTORE PUSH1 0x40 DUP5 ADD MSTORE PUSH1 0x60 DUP4 ADD MSTORE PUSH32 0x3D5D384AB80E19E25A6F89BD353F3309482FAD32E210AFF2B1C6AE7EE2096B64 PUSH1 0x80 CALLER SWAP4 LOG3 STOP JUMPDEST PUSH1 0x40 PUSH32 0xE3BAEB7CDE6B34690F45A4B6B0C8D17538EDC7064370627DA2E7D25C2437147D SWAP2 DUP2 MLOAD SWAP1 DUP2 MSTORE DUP6 PUSH1 0x20 DUP3 ADD MSTORE LOG1 DUP6 PUSH2 0xDE7 JUMP JUMPDEST PUSH4 0x4E487B71 PUSH1 0xE0 SHL PUSH1 0x0 MSTORE PUSH1 0x11 PUSH1 0x4 MSTORE PUSH1 0x24 PUSH1 0x0 REVERT JUMPDEST PUSH1 0x5 SWAP3 POP PUSH2 0xD0A JUMP JUMPDEST PUSH1 0x1 SWAP3 POP PUSH2 0xCFE JUMP JUMPDEST PUSH3 0x155881 PUSH1 0xE9 SHL PUSH1 0x0 MSTORE PUSH1 0x4 PUSH1 0x0 REVERT JUMPDEST CALLVALUE PUSH2 0x31A JUMPI PUSH1 0x0 CALLDATASIZE PUSH1 0x3 NOT ADD SLT PUSH2 0x31A JUMPI PUSH1 0x40 MLOAD PUSH1 0x0 PUSH1 0x2 SLOAD PUSH2 0xEB5 DUP2 PUSH2 0x16DF JUMP JUMPDEST DUP1 DUP5 MSTORE SWAP1 PUSH1 0x1 DUP2 AND SWAP1 DUP2 ISZERO PUSH2 0x411 JUMPI POP PUSH1 0x1 EQ PUSH2 0xEDC JUMPI PUSH2 0x3AE DUP4 PUSH2 0x39A DUP2 DUP6 SUB DUP3 PUSH2 0x1734 JUMP JUMPDEST PUSH1 0x2 PUSH1 0x0 SWAP1 DUP2 MSTORE PUSH32 0x405787FA12A823E0F2B7631CC41B3BA8828B3321CA811111FA75CD3AA3BB5ACE SWAP4 SWAP3 POP SWAP1 JUMPDEST DUP1 DUP3 LT PUSH2 0xF21 JUMPI POP SWAP1 SWAP2 POP DUP2 ADD PUSH1 0x20 ADD PUSH2 0x39A PUSH2 0x38A JUMP JUMPDEST SWAP2 SWAP3 PUSH1 0x1 DUP2 PUSH1 0x20 SWAP3 SLOAD DUP4 DUP6 DUP9 ADD ADD MSTORE ADD SWAP2 ADD SWAP1 SWAP3 SWAP2 PUSH2 0xF09 JUMP JUMPDEST CALLVALUE PUSH2 0x31A JUMPI PUSH1 0x0 CALLDATASIZE PUSH1 0x3 NOT ADD SLT PUSH2 0x31A JUMPI PUSH1 0x40 MLOAD PUSH32 0x0 PUSH1 0x1 PUSH1 0x1 PUSH1 0xA0 SHL SUB AND DUP2 MSTORE PUSH1 0x20 SWAP1 RETURN JUMPDEST CALLVALUE PUSH2 0x31A JUMPI PUSH1 0x0 CALLDATASIZE PUSH1 0x3 NOT ADD SLT PUSH2 0x31A JUMPI PUSH1 0x20 PUSH1 0x5 SLOAD PUSH1 0x40 MLOAD SWAP1 DUP2 MSTORE RETURN JUMPDEST CALLVALUE PUSH2 0x31A JUMPI PUSH1 0x0 CALLDATASIZE PUSH1 0x3 NOT ADD SLT PUSH2 0x31A JUMPI PUSH1 0x20 PUSH1 0xFF PUSH1 0x6 SLOAD AND PUSH1 0x40 MLOAD SWAP1 DUP2 MSTORE RETURN JUMPDEST CALLVALUE PUSH2 0x31A JUMPI PUSH1 0x0 CALLDATASIZE PUSH1 0x3 NOT ADD SLT PUSH2 0x31A JUMPI PUSH1 0x20 PUSH1 0x4 SLOAD PUSH1 0x40 MLOAD SWAP1 DUP2 MSTORE RETURN JUMPDEST CALLVALUE PUSH2 0x31A JUMPI PUSH1 0x20 CALLDATASIZE PUSH1 0x3 NOT ADD SLT PUSH2 0x31A JUMPI PUSH1 0x4 CALLDATALOAD PUSH1 0x1 PUSH1 0x1 PUSH1 0xA0 SHL SUB DUP2 AND SWAP1 DUP2 SWAP1 SUB PUSH2 0x31A JUMPI PUSH32 0x0 PUSH1 0x1 PUSH1 0x1 PUSH1 0xA0 SHL SUB AND CALLER SUB PUSH2 0xA5A JUMPI DUP1 ISZERO PUSH2 0xA49 JUMPI DUP1 PUSH1 0x0 MSTORE PUSH1 0x7 PUSH1 0x20 MSTORE PUSH1 0xFF PUSH1 0x40 PUSH1 0x0 KECCAK256 SLOAD AND PUSH2 0x108F JUMPI DUP1 PUSH1 0x0 MSTORE PUSH1 0x7 PUSH1 0x20 MSTORE PUSH1 0x40 PUSH1 0x0 KECCAK256 PUSH1 0x1 PUSH1 0xFF NOT DUP3 SLOAD AND OR SWAP1 SSTORE PUSH32 0xDF2CAB5618B04639FBD29A022852EDB95271F3D11B3702EEA922C21FF7D5C067 PUSH1 0x0 DUP1 LOG2 STOP JUMPDEST PUSH3 0x8CE1D1 PUSH1 0xE0 SHL PUSH1 0x0 MSTORE PUSH1 0x4 PUSH1 0x0 REVERT JUMPDEST CALLVALUE PUSH2 0x31A JUMPI PUSH1 0x20 CALLDATASIZE PUSH1 0x3 NOT ADD SLT PUSH2 0x31A JUMPI PUSH1 0x4 CALLDATALOAD PUSH1 0x0 MSTORE PUSH1 0x8 PUSH1 0x20 MSTORE PUSH1 0xC0 PUSH1 0x40 PUSH1 0x0 KECCAK256 PUSH1 0x1 PUSH1 0x1 PUSH1 0x40 SHL SUB PUSH1 0x1 DUP3 SLOAD SWAP3 ADD SLOAD AND PUSH1 0x1 PUSH1 0x1 PUSH1 0x40 SHL SUB PUSH1 0x40 MLOAD SWAP3 PUSH1 0x1 DUP1 PUSH1 0xA0 SHL SUB DUP2 AND DUP5 MSTORE PUSH2 0x10FC PUSH1 0x20 DUP6 ADD PUSH1 0xFF DUP4 PUSH1 0xA0 SHR AND PUSH2 0x1867 JUMP JUMPDEST PUSH1 0xFF DUP2 PUSH1 0xA8 SHR AND PUSH1 0x40 DUP6 ADD MSTORE PUSH1 0xFF DUP2 PUSH1 0xB0 SHR AND ISZERO ISZERO PUSH1 0x60 DUP6 ADD MSTORE PUSH1 0xB8 SHR AND PUSH1 0x80 DUP4 ADD MSTORE PUSH1 0xA0 DUP3 ADD MSTORE RETURN JUMPDEST CALLVALUE PUSH2 0x31A JUMPI PUSH1 0x0 CALLDATASIZE PUSH1 0x3 NOT ADD SLT PUSH2 0x31A JUMPI PUSH1 0x20 PUSH1 0xFF PUSH1 0x3 SLOAD AND PUSH1 0x40 MLOAD SWAP1 ISZERO ISZERO DUP2 MSTORE RETURN JUMPDEST CALLVALUE PUSH2 0x31A JUMPI PUSH1 0x20 CALLDATASIZE PUSH1 0x3 NOT ADD SLT PUSH2 0x31A JUMPI PUSH1 0x4 CALLDATALOAD DUP1 ISZERO ISZERO DUP2 SUB PUSH2 0x31A JUMPI PUSH32 0x0 PUSH1 0x1 PUSH1 0x1 PUSH1 0xA0 SHL SUB AND CALLER SUB PUSH2 0xA5A JUMPI PUSH2 0x119F SWAP1 PUSH2 0x18E7 JUMP JUMPDEST STOP JUMPDEST CALLVALUE PUSH2 0x31A JUMPI PUSH1 0x60 CALLDATASIZE PUSH1 0x3 NOT ADD SLT PUSH2 0x31A JUMPI PUSH1 0x4 CALLDATALOAD PUSH1 0x1 PUSH1 0x1 PUSH1 0x40 SHL SUB DUP2 GT PUSH2 0x31A JUMPI PUSH2 0x11D1 SWAP1 CALLDATASIZE SWAP1 PUSH1 0x4 ADD PUSH2 0x183A JUMP JUMPDEST SWAP1 PUSH1 0x24 CALLDATALOAD PUSH1 0x1 PUSH1 0x1 PUSH1 0x40 SHL SUB DUP2 GT PUSH2 0x31A JUMPI PUSH2 0x11F1 SWAP1 CALLDATASIZE SWAP1 PUSH1 0x4 ADD PUSH2 0x183A JUMP JUMPDEST SWAP3 SWAP1 PUSH1 0x44 CALLDATALOAD PUSH1 0x1 PUSH1 0x1 PUSH1 0x40 SHL SUB DUP2 GT PUSH2 0x31A JUMPI PUSH2 0x1212 SWAP1 CALLDATASIZE SWAP1 PUSH1 0x4 ADD PUSH2 0x183A JUMP JUMPDEST SWAP1 SWAP2 PUSH32 0x0 PUSH1 0x1 PUSH1 0x1 PUSH1 0xA0 SHL SUB AND CALLER SUB PUSH2 0x945 JUMPI PUSH1 0x1 PUSH1 0x1 PUSH1 0x40 SHL SUB DUP5 GT PUSH2 0x7CD JUMPI PUSH2 0x125D PUSH1 0x0 SLOAD PUSH2 0x16DF JUMP JUMPDEST PUSH1 0x1F DUP2 GT PUSH2 0x1642 JUMPI JUMPDEST POP PUSH1 0x0 DUP5 PUSH1 0x1F DUP2 GT PUSH1 0x1 EQ PUSH2 0x15C1 JUMPI DUP1 PUSH2 0x1296 SWAP3 PUSH1 0x0 SWAP2 PUSH2 0x15B6 JUMPI JUMPDEST POP DUP2 PUSH1 0x1 SHL SWAP2 PUSH1 0x0 NOT SWAP1 PUSH1 0x3 SHL SHR NOT AND OR SWAP1 JUMP JUMPDEST PUSH1 0x0 SSTORE JUMPDEST PUSH1 0x1 PUSH1 0x1 PUSH1 0x40 SHL SUB DUP7 GT PUSH2 0x7CD JUMPI PUSH2 0x12B3 PUSH1 0x1 SLOAD PUSH2 0x16DF JUMP JUMPDEST PUSH1 0x1F DUP2 GT PUSH2 0x1551 JUMPI JUMPDEST POP PUSH1 0x0 DUP7 PUSH1 0x1F DUP2 GT PUSH1 0x1 EQ PUSH2 0x14CF JUMPI DUP1 PUSH2 0x12EB SWAP3 PUSH1 0x0 SWAP2 PUSH2 0x14C4 JUMPI POP DUP2 PUSH1 0x1 SHL SWAP2 PUSH1 0x0 NOT SWAP1 PUSH1 0x3 SHL SHR NOT AND OR SWAP1 JUMP JUMPDEST PUSH1 0x1 SSTORE JUMPDEST PUSH1 0x1 PUSH1 0x1 PUSH1 0x40 SHL SUB DUP3 GT PUSH2 0x7CD JUMPI PUSH2 0x1308 PUSH1 0x2 SLOAD PUSH2 0x16DF JUMP JUMPDEST PUSH1 0x1F DUP2 GT PUSH2 0x145F JUMPI JUMPDEST POP PUSH1 0x0 SWAP6 PUSH1 0x1F DUP4 GT PUSH1 0x1 EQ PUSH2 0x13B3 JUMPI DUP3 SWAP2 PUSH2 0x1395 SWAP2 PUSH2 0x136C DUP5 PUSH2 0x13A3 SWAP8 SWAP7 PUSH32 0x7DC9ED3D635C09F8D480400BD28952DCF48619B0F27D3D69668FA24B1F7AF8A4 SWAP12 PUSH1 0x0 SWAP2 PUSH2 0x13A8 JUMPI POP DUP2 PUSH1 0x1 SHL SWAP2 PUSH1 0x0 NOT SWAP1 PUSH1 0x3 SHL SHR NOT AND OR SWAP1 JUMP JUMPDEST PUSH1 0x2 SSTORE JUMPDEST PUSH2 0x1387 PUSH1 0x40 MLOAD SWAP9 DUP10 SWAP9 PUSH1 0x60 DUP11 MSTORE PUSH1 0x60 DUP11 ADD SWAP2 PUSH2 0x18C6 JUMP JUMPDEST SWAP2 DUP8 DUP4 SUB PUSH1 0x20 DUP10 ADD MSTORE PUSH2 0x18C6 JUMP JUMPDEST SWAP2 DUP5 DUP4 SUB PUSH1 0x40 DUP7 ADD MSTORE PUSH2 0x18C6 JUMP JUMPDEST SUB SWAP1 LOG1 STOP JUMPDEST SWAP1 POP DUP8 ADD CALLDATALOAD DUP13 PUSH2 0x1282 JUMP JUMPDEST PUSH1 0x2 DUP8 MSTORE PUSH32 0x405787FA12A823E0F2B7631CC41B3BA8828B3321CA811111FA75CD3AA3BB5ACE SWAP7 PUSH1 0x1F NOT DUP5 AND DUP2 JUMPDEST DUP2 DUP2 LT PUSH2 0x1447 JUMPI POP SWAP2 PUSH32 0x7DC9ED3D635C09F8D480400BD28952DCF48619B0F27D3D69668FA24B1F7AF8A4 SWAP9 DUP6 SWAP5 SWAP3 PUSH2 0x13A3 SWAP8 SWAP7 PUSH2 0x1395 SWAP6 LT PUSH2 0x142D JUMPI JUMPDEST POP POP PUSH1 0x1 DUP5 DUP2 SHL ADD PUSH1 0x2 SSTORE PUSH2 0x1370 JUMP JUMPDEST DUP7 ADD CALLDATALOAD PUSH1 0x0 NOT PUSH1 0x3 DUP8 SWAP1 SHL PUSH1 0xF8 AND SHR NOT AND SWAP1 SSTORE DUP10 DUP1 PUSH2 0x141D JUMP JUMPDEST DUP7 DUP4 ADD CALLDATALOAD DUP11 SSTORE PUSH1 0x1 SWAP1 SWAP10 ADD SWAP9 PUSH1 0x20 SWAP3 DUP4 ADD SWAP3 ADD PUSH2 0x13E0 JUMP JUMPDEST PUSH1 0x2 PUSH1 0x0 MSTORE PUSH32 0x405787FA12A823E0F2B7631CC41B3BA8828B3321CA811111FA75CD3AA3BB5ACE PUSH1 0x1F DUP5 ADD PUSH1 0x5 SHR DUP2 ADD SWAP2 PUSH1 0x20 DUP6 LT PUSH2 0x14BA JUMPI JUMPDEST PUSH1 0x1F ADD PUSH1 0x5 SHR ADD SWAP1 JUMPDEST DUP2 DUP2 LT PUSH2 0x14AE JUMPI POP PUSH2 0x1311 JUMP JUMPDEST PUSH1 0x0 DUP2 SSTORE PUSH1 0x1 ADD PUSH2 0x14A1 JUMP JUMPDEST SWAP1 SWAP2 POP DUP2 SWAP1 PUSH2 0x1498 JUMP JUMPDEST SWAP1 POP DUP4 ADD CALLDATALOAD DUP10 PUSH2 0x1282 JUMP JUMPDEST POP PUSH1 0x1 DUP2 MSTORE PUSH32 0xB10E2D527612073B26EECDFD717E6A320CF44B4AFAC2B0732D9FCBE2B7FA0CF6 SWAP1 DUP8 PUSH1 0x1F NOT DUP2 AND DUP3 JUMPDEST DUP2 DUP2 LT PUSH2 0x1536 JUMPI POP LT PUSH2 0x151C JUMPI JUMPDEST POP POP PUSH1 0x1 DUP7 DUP2 SHL ADD PUSH1 0x1 SSTORE PUSH2 0x12EF JUMP JUMPDEST DUP3 ADD CALLDATALOAD PUSH1 0x0 NOT PUSH1 0x3 DUP10 SWAP1 SHL PUSH1 0xF8 AND SHR NOT AND SWAP1 SSTORE DUP7 DUP1 PUSH2 0x150C JUMP JUMPDEST DUP6 DUP5 ADD CALLDATALOAD DUP6 SSTORE PUSH1 0x1 SWAP1 SWAP5 ADD SWAP4 PUSH1 0x20 SWAP4 DUP5 ADD SWAP4 DUP12 SWAP4 POP ADD PUSH2 0x14FE JUMP JUMPDEST PUSH1 0x1 PUSH1 0x0 MSTORE PUSH32 0xB10E2D527612073B26EECDFD717E6A320CF44B4AFAC2B0732D9FCBE2B7FA0CF6 PUSH1 0x1F DUP9 ADD PUSH1 0x5 SHR DUP2 ADD SWAP2 PUSH1 0x20 DUP10 LT PUSH2 0x15AC JUMPI JUMPDEST PUSH1 0x1F ADD PUSH1 0x5 SHR ADD SWAP1 JUMPDEST DUP2 DUP2 LT PUSH2 0x15A0 JUMPI POP PUSH2 0x12BC JUMP JUMPDEST PUSH1 0x0 DUP2 SSTORE PUSH1 0x1 ADD PUSH2 0x1593 JUMP JUMPDEST SWAP1 SWAP2 POP DUP2 SWAP1 PUSH2 0x158A JUMP JUMPDEST SWAP1 POP DUP8 ADD CALLDATALOAD DUP10 PUSH2 0x1282 JUMP JUMPDEST POP DUP1 DUP1 MSTORE PUSH32 0x290DECD9548B62A8D60345A988386FC84BA6BC95484008F6362F93160EF3E563 SWAP1 DUP6 PUSH1 0x1F NOT DUP2 AND DUP3 JUMPDEST DUP2 DUP2 LT PUSH2 0x1627 JUMPI POP LT PUSH2 0x160D JUMPI JUMPDEST POP POP PUSH1 0x1 DUP5 DUP2 SHL ADD PUSH1 0x0 SSTORE PUSH2 0x129A JUMP JUMPDEST DUP7 ADD CALLDATALOAD PUSH1 0x0 NOT PUSH1 0x3 DUP8 SWAP1 SHL PUSH1 0xF8 AND SHR NOT AND SWAP1 SSTORE DUP7 DUP1 PUSH2 0x15FD JUMP JUMPDEST DUP10 DUP5 ADD CALLDATALOAD DUP6 SSTORE PUSH1 0x1 SWAP1 SWAP5 ADD SWAP4 PUSH1 0x20 SWAP4 DUP5 ADD SWAP4 DUP10 SWAP4 POP ADD PUSH2 0x15EF JUMP JUMPDEST PUSH1 0x0 DUP1 MSTORE PUSH32 0x290DECD9548B62A8D60345A988386FC84BA6BC95484008F6362F93160EF3E563 PUSH1 0x1F DUP7 ADD PUSH1 0x5 SHR DUP2 ADD SWAP2 PUSH1 0x20 DUP8 LT PUSH2 0x169C JUMPI JUMPDEST PUSH1 0x1F ADD PUSH1 0x5 SHR ADD SWAP1 JUMPDEST DUP2 DUP2 LT PUSH2 0x1690 JUMPI POP PUSH2 0x1266 JUMP JUMPDEST PUSH1 0x0 DUP2 SSTORE PUSH1 0x1 ADD PUSH2 0x1683 JUMP JUMPDEST SWAP1 SWAP2 POP DUP2 SWAP1 PUSH2 0x167A JUMP JUMPDEST CALLVALUE PUSH2 0x31A JUMPI PUSH1 0x0 CALLDATASIZE PUSH1 0x3 NOT ADD SLT PUSH2 0x31A JUMPI PUSH2 0x3AE PUSH2 0x39A PUSH1 0x0 PUSH2 0x1755 JUMP JUMPDEST CALLVALUE PUSH2 0x31A JUMPI PUSH1 0x0 CALLDATASIZE PUSH1 0x3 NOT ADD SLT PUSH2 0x31A JUMPI PUSH1 0x20 SWAP1 PUSH1 0xB SLOAD DUP2 MSTORE RETURN JUMPDEST SWAP1 PUSH1 0x1 DUP3 DUP2 SHR SWAP3 AND DUP1 ISZERO PUSH2 0x170F JUMPI JUMPDEST PUSH1 0x20 DUP4 LT EQ PUSH2 0x16F9 JUMPI JUMP JUMPDEST PUSH4 0x4E487B71 PUSH1 0xE0 SHL PUSH1 0x0 MSTORE PUSH1 0x22 PUSH1 0x4 MSTORE PUSH1 0x24 PUSH1 0x0 REVERT JUMPDEST SWAP2 PUSH1 0x7F AND SWAP2 PUSH2 0x16EE JUMP JUMPDEST PUSH1 0xC0 DUP2 ADD SWAP1 DUP2 LT PUSH1 0x1 PUSH1 0x1 PUSH1 0x40 SHL SUB DUP3 GT OR PUSH2 0x7CD JUMPI PUSH1 0x40 MSTORE JUMP JUMPDEST SWAP1 PUSH1 0x1F DUP1 NOT SWAP2 ADD AND DUP2 ADD SWAP1 DUP2 LT PUSH1 0x1 PUSH1 0x1 PUSH1 0x40 SHL SUB DUP3 GT OR PUSH2 0x7CD JUMPI PUSH1 0x40 MSTORE JUMP JUMPDEST SWAP1 PUSH1 0x40 MLOAD SWAP2 DUP3 PUSH1 0x0 DUP3 SLOAD SWAP3 PUSH2 0x1769 DUP5 PUSH2 0x16DF JUMP JUMPDEST DUP1 DUP5 MSTORE SWAP4 PUSH1 0x1 DUP2 AND SWAP1 DUP2 ISZERO PUSH2 0x17D7 JUMPI POP PUSH1 0x1 EQ PUSH2 0x1790 JUMPI JUMPDEST POP PUSH2 0x178E SWAP3 POP SUB DUP4 PUSH2 0x1734 JUMP JUMPDEST JUMP JUMPDEST SWAP1 POP PUSH1 0x0 SWAP3 SWAP2 SWAP3 MSTORE PUSH1 0x20 PUSH1 0x0 KECCAK256 SWAP1 PUSH1 0x0 SWAP2 JUMPDEST DUP2 DUP4 LT PUSH2 0x17BB JUMPI POP POP SWAP1 PUSH1 0x20 PUSH2 0x178E SWAP3 DUP3 ADD ADD CODESIZE PUSH2 0x1781 JUMP JUMPDEST PUSH1 0x20 SWAP2 SWAP4 POP DUP1 PUSH1 0x1 SWAP2 SLOAD DUP4 DUP6 DUP10 ADD ADD MSTORE ADD SWAP2 ADD SWAP1 SWAP2 DUP5 SWAP3 PUSH2 0x17A2 JUMP JUMPDEST SWAP1 POP PUSH1 0x20 SWAP3 POP PUSH2 0x178E SWAP5 SWAP2 POP PUSH1 0xFF NOT AND DUP3 DUP5 ADD MSTORE ISZERO ISZERO PUSH1 0x5 SHL DUP3 ADD ADD CODESIZE PUSH2 0x1781 JUMP JUMPDEST SWAP2 SWAP1 DUP3 MLOAD SWAP3 DUP4 DUP3 MSTORE PUSH1 0x0 JUMPDEST DUP5 DUP2 LT PUSH2 0x1825 JUMPI POP POP DUP3 PUSH1 0x0 PUSH1 0x20 DUP1 SWAP5 SWAP6 DUP5 ADD ADD MSTORE PUSH1 0x1F DUP1 NOT SWAP2 ADD AND ADD ADD SWAP1 JUMP JUMPDEST DUP1 PUSH1 0x20 DUP1 SWAP3 DUP5 ADD ADD MLOAD DUP3 DUP3 DUP7 ADD ADD MSTORE ADD PUSH2 0x1804 JUMP JUMPDEST SWAP2 DUP2 PUSH1 0x1F DUP5 ADD SLT ISZERO PUSH2 0x31A JUMPI DUP3 CALLDATALOAD SWAP2 PUSH1 0x1 PUSH1 0x1 PUSH1 0x40 SHL SUB DUP4 GT PUSH2 0x31A JUMPI PUSH1 0x20 DUP4 DUP2 DUP7 ADD SWAP6 ADD ADD GT PUSH2 0x31A JUMPI JUMP JUMPDEST SWAP1 PUSH1 0x8 DUP3 LT ISZERO PUSH2 0x2D1 JUMPI MSTORE JUMP JUMPDEST PUSH1 0x1F DUP3 GT PUSH2 0x1881 JUMPI POP POP POP JUMP JUMPDEST PUSH1 0x0 MSTORE PUSH1 0x20 PUSH1 0x0 KECCAK256 SWAP1 PUSH1 0x20 PUSH1 0x1F DUP5 ADD PUSH1 0x5 SHR DUP4 ADD SWAP4 LT PUSH2 0x18BC JUMPI JUMPDEST PUSH1 0x1F ADD PUSH1 0x5 SHR ADD SWAP1 JUMPDEST DUP2 DUP2 LT PUSH2 0x18B0 JUMPI POP POP JUMP JUMPDEST PUSH1 0x0 DUP2 SSTORE PUSH1 0x1 ADD PUSH2 0x18A5 JUMP JUMPDEST SWAP1 SWAP2 POP DUP2 SWAP1 PUSH2 0x189C JUMP JUMPDEST SWAP1 DUP1 PUSH1 0x20 SWAP4 SWAP3 DUP2 DUP5 MSTORE DUP5 DUP5 ADD CALLDATACOPY PUSH1 0x0 DUP3 DUP3 ADD DUP5 ADD MSTORE PUSH1 0x1F ADD PUSH1 0x1F NOT AND ADD ADD SWAP1 JUMP JUMPDEST PUSH1 0x3 SLOAD SWAP1 ISZERO ISZERO SWAP1 DUP2 PUSH1 0xFF DUP3 AND ISZERO ISZERO EQ PUSH2 0x192E JUMPI PUSH1 0xFF NOT AND PUSH1 0xFF DUP3 AND OR PUSH1 0x3 SSTORE CALLER PUSH32 0x3A620C3544F4661F38B303E51FF3C4CC552DA5A80EC55D4E3875AF78775E1A82 PUSH1 0x0 DUP1 LOG3 JUMP JUMPDEST POP CALLER PUSH32 0x3A620C3544F4661F38B303E51FF3C4CC552DA5A80EC55D4E3875AF78775E1A82 PUSH1 0x0 DUP1 LOG3 JUMP JUMPDEST SWAP1 PUSH1 0x8 DUP2 LT ISZERO PUSH2 0x2D1 JUMPI DUP2 SLOAD PUSH1 0xFF PUSH1 0xA0 SHL NOT AND PUSH1 0xA0 SWAP2 SWAP1 SWAP2 SHL PUSH1 0xFF PUSH1 0xA0 SHL AND OR SWAP1 SSTORE JUMP JUMPDEST SWAP3 SWAP2 SWAP3 PUSH1 0x1 PUSH1 0x1 PUSH1 0x40 SHL SUB DUP3 GT PUSH2 0x7CD JUMPI PUSH1 0x40 MLOAD SWAP2 PUSH2 0x19A4 PUSH1 0x1F DUP3 ADD PUSH1 0x1F NOT AND PUSH1 0x20 ADD DUP5 PUSH2 0x1734 JUMP JUMPDEST DUP3 SWAP5 DUP2 DUP5 MSTORE DUP2 DUP4 ADD GT PUSH2 0x31A JUMPI DUP3 DUP2 PUSH1 0x20 SWAP4 DUP5 PUSH1 0x0 SWAP7 ADD CALLDATACOPY ADD ADD MSTORE JUMP JUMPDEST PUSH1 0x0 MSTORE PUSH1 0x8 PUSH1 0x20 MSTORE PUSH1 0x40 PUSH1 0x0 KECCAK256 SWAP1 PUSH1 0xFF DUP3 SLOAD PUSH1 0xA0 SHR AND PUSH1 0x8 DUP2 LT ISZERO PUSH2 0x2D1 JUMPI ISZERO PUSH2 0x2F8 JUMPI JUMP JUMPDEST PUSH1 0x19 DUP2 LT ISZERO DUP1 PUSH2 0x1A86 JUMPI JUMPDEST PUSH2 0x1A7F JUMPI PUSH1 0x14 DUP2 LT ISZERO DUP1 PUSH2 0x1A74 JUMPI JUMPDEST PUSH2 0x1A6D JUMPI PUSH1 0xF DUP2 LT ISZERO DUP1 PUSH2 0x1A62 JUMPI JUMPDEST PUSH2 0x1A5B JUMPI PUSH1 0xA DUP2 LT ISZERO DUP1 PUSH2 0x1A50 JUMPI JUMPDEST PUSH2 0x1A49 JUMPI PUSH1 0x5 GT ISZERO SWAP1 DUP2 PUSH2 0x1A3D JUMPI JUMPDEST POP PUSH2 0x1A38 JUMPI PUSH1 0x0 SWAP1 JUMP JUMPDEST PUSH1 0x1 SWAP1 JUMP JUMPDEST PUSH1 0x14 SWAP2 POP LT ISZERO CODESIZE PUSH2 0x1A2E JUMP JUMPDEST POP POP PUSH1 0x2 SWAP1 JUMP JUMPDEST POP PUSH1 0x2D DUP3 LT ISZERO PUSH2 0x1A1F JUMP JUMPDEST POP POP PUSH1 0x3 SWAP1 JUMP JUMPDEST POP PUSH1 0x46 DUP3 LT ISZERO PUSH2 0x1A10 JUMP JUMPDEST POP POP PUSH1 0x4 SWAP1 JUMP JUMPDEST POP PUSH1 0x5F DUP3 LT ISZERO PUSH2 0x1A01 JUMP JUMPDEST POP POP PUSH1 0x5 SWAP1 JUMP JUMPDEST POP PUSH1 0x78 DUP3 LT ISZERO PUSH2 0x19F2 JUMP JUMPDEST PUSH1 0x8 DUP2 LT ISZERO PUSH2 0x2D1 JUMPI PUSH1 0x1 DUP2 EQ DUP1 PUSH2 0x1BE1 JUMPI JUMPDEST PUSH2 0x1B45 JUMPI PUSH1 0x0 PUSH1 0x2 DUP3 EQ DUP1 PUSH2 0x1B8D JUMPI JUMPDEST PUSH2 0x1B16 JUMPI POP PUSH1 0x3 DUP2 EQ DUP1 PUSH2 0x1B4C JUMPI JUMPDEST PUSH2 0x1B45 JUMPI PUSH1 0x0 SWAP1 PUSH1 0x4 DUP2 EQ DUP1 PUSH2 0x1B1E JUMPI JUMPDEST PUSH2 0x1B16 JUMPI PUSH1 0x5 SWAP2 POP EQ SWAP1 DUP2 PUSH2 0x1AED JUMPI POP PUSH2 0x1A38 JUMPI PUSH1 0x0 SWAP1 JUMP JUMPDEST SWAP1 POP PUSH1 0x8 DUP2 LT ISZERO PUSH2 0x2D1 JUMPI PUSH1 0x4 DUP2 EQ SWAP1 DUP2 ISZERO PUSH2 0x1B0B JUMPI JUMPDEST POP CODESIZE PUSH2 0x1A2E JUMP JUMPDEST PUSH1 0x6 SWAP2 POP EQ CODESIZE PUSH2 0x1B04 JUMP JUMPDEST POP POP POP PUSH1 0x1 SWAP1 JUMP JUMPDEST POP PUSH1 0x8 DUP4 LT ISZERO PUSH2 0x1B31 JUMPI PUSH1 0x7 DUP4 EQ PUSH2 0x1AD4 JUMP JUMPDEST PUSH4 0x4E487B71 PUSH1 0xE0 SHL DUP3 MSTORE PUSH1 0x21 PUSH1 0x4 MSTORE PUSH1 0x24 DUP3 REVERT JUMPDEST POP POP PUSH1 0x1 SWAP1 JUMP JUMPDEST POP PUSH1 0x8 DUP3 LT ISZERO DUP1 PUSH2 0x2D1 JUMPI PUSH1 0x4 DUP4 EQ SWAP1 DUP2 ISZERO PUSH2 0x1B80 JUMPI JUMPDEST DUP2 ISZERO PUSH2 0x1B70 JUMPI JUMPDEST POP PUSH2 0x1AC3 JUMP JUMPDEST SWAP1 POP PUSH2 0x2D1 JUMPI PUSH1 0x6 DUP3 EQ CODESIZE PUSH2 0x1B6A JUMP JUMPDEST POP POP PUSH1 0x5 DUP3 EQ PUSH1 0x0 PUSH2 0x1B63 JUMP JUMPDEST POP PUSH1 0x8 DUP4 LT ISZERO DUP1 PUSH2 0x1B31 JUMPI PUSH1 0x3 DUP5 EQ SWAP1 DUP2 ISZERO PUSH2 0x1BD5 JUMPI JUMPDEST DUP2 ISZERO PUSH2 0x1BB1 JUMPI JUMPDEST POP PUSH2 0x1AB4 JUMP JUMPDEST SWAP1 POP PUSH2 0x1BC1 JUMPI PUSH1 0x5 DUP4 EQ CODESIZE PUSH2 0x1BAB JUMP JUMPDEST PUSH4 0x4E487B71 PUSH1 0xE0 SHL DUP2 MSTORE PUSH1 0x21 PUSH1 0x4 MSTORE PUSH1 0x24 SWAP1 REVERT JUMPDEST POP POP PUSH1 0x6 DUP4 EQ DUP2 PUSH2 0x1BA4 JUMP JUMPDEST POP PUSH1 0x8 DUP3 LT ISZERO PUSH2 0x2D1 JUMPI PUSH1 0x2 DUP3 EQ DUP1 PUSH2 0x1AA4 JUMPI POP PUSH1 0x6 DUP3 EQ PUSH2 0x1AA4 JUMP INVALID LOG2 PUSH5 0x6970667358 0x22 SLT KECCAK256 0xEE PUSH16 0xE7A405D3AA7C52A0BA6C0E316A0C806A STOP DUP11 0xDA 0xB9 MSIZE 0xAB SELFDESTRUCT PUSH16 0x15CAA44F072764736F6C634300081C00 CALLER PUSH30 0xC9ED3D635C09F8D480400BD28952DCF48619B0F27D3D69668FA24B1F7AF8 LOG4 LOG2 PUSH5 0x6970667358 0x22 SLT KECCAK256 0xED JUMP MOD PUSH4 0x17AF27E7 SWAP5 ADD KECCAK256 0xD CALLDATASIZE PUSH10 0xBFFB07D1BC41A5D37351 BALANCE PUSH7 0x1F52367C63AD64 PUSH20 0x6F6C634300081C00330000000000000000000000 "},"methodIdentifiers":{"attesters(address)":"131a91ad","deployFreelancerProfile(string,string,string)":"148680ad","escrowDeployers(address)":"38f6e47c","freelancerProfile(address)":"7ab32738","getAllFreelancerProfiles()":"50304f03","getAllFreelancers()":"359b248c","linkEscrowToProfile(address,address)":"fab9b285","nonces(address)":"7ecebe00","owner()":"8da5cb5b","setAttester(address,bool)":"5c0204d9","setEscrowDeployer(address,bool)":"b687a452","setKYCByAttestation(address,bool,uint256,uint256,bytes)":"6e8e87ab","setKYCFor(address,bool)":"6c0ca68a","totalFreelancers()":"5e586eb1","transferOwnership(address)":"f2fde38b"}}}}}