{"contracts/JobBoard.sol":{"JobBoard":{"abi":[{"inputs":[{"internalType":"address","name":"_owner","type":"address"}],"stateMutability":"nonpayable","type":"constructor"},{"inputs":[],"name":"AlreadyApplied","type":"error"},{"inputs":[],"name":"AlreadyHiredOrClosed","type":"error"},{"inputs":[],"name":"ApplicationNotFound","type":"error"},{"inputs":[],"name":"InvalidStatus","type":"error"},{"inputs":[],"name":"JobNotFound","type":"error"},{"inputs":[],"name":"KYCGated","type":"error"},{"inputs":[],"name":"NotAllowedFactory","type":"error"},{"inputs":[],"name":"NotClient","type":"error"},{"inputs":[],"name":"NotExpired","type":"error"},{"inputs":[],"name":"NotFreelancer","type":"error"},{"inputs":[],"name":"NotOpen","type":"error"},{"inputs":[],"name":"NotOwner","type":"error"},{"inputs":[],"name":"NotReopenable","type":"error"},{"inputs":[],"name":"Reentrancy","type":"error"},{"inputs":[],"name":"TooManyTags","type":"error"},{"inputs":[],"name":"USDCNotSet","type":"error"},{"inputs":[],"name":"WrongBond","type":"error"},{"inputs":[],"name":"ZeroAddress","type":"error"},{"anonymous":false,"inputs":[{"indexed":false,"internalType":"uint8","name":"mode","type":"uint8"},{"indexed":false,"internalType":"uint256","name":"postingBondUSDC","type":"uint256"}],"name":"AntiSpamModeSet","type":"event"},{"anonymous":false,"inputs":[{"indexed":true,"internalType":"address","name":"factory","type":"address"},{"indexed":false,"internalType":"bool","name":"allowed","type":"bool"}],"name":"FactoryAllowed","type":"event"},{"anonymous":false,"inputs":[{"indexed":true,"internalType":"address","name":"factory","type":"address"}],"name":"FreelancerFactorySet","type":"event"},{"anonymous":false,"inputs":[{"indexed":false,"internalType":"bool","name":"enabled","type":"bool"}],"name":"GasSponsorshipSet","type":"event"},{"anonymous":false,"inputs":[{"indexed":true,"internalType":"uint256","name":"jobId","type":"uint256"},{"indexed":true,"internalType":"address","name":"freelancer","type":"address"}],"name":"JobApplicationWithdrawn","type":"event"},{"anonymous":false,"inputs":[{"indexed":true,"internalType":"uint256","name":"jobId","type":"uint256"},{"indexed":true,"internalType":"address","name":"freelancer","type":"address"},{"indexed":false,"internalType":"uint64","name":"appliedAt","type":"uint64"}],"name":"JobApplied","type":"event"},{"anonymous":false,"inputs":[{"indexed":true,"internalType":"uint256","name":"jobId","type":"uint256"},{"indexed":true,"internalType":"address","name":"client","type":"address"}],"name":"JobCancelled","type":"event"},{"anonymous":false,"inputs":[{"indexed":true,"internalType":"uint256","name":"jobId","type":"uint256"},{"indexed":true,"internalType":"address","name":"client","type":"address"},{"indexed":true,"internalType":"address","name":"freelancer","type":"address"},{"indexed":false,"internalType":"address","name":"escrow","type":"address"}],"name":"JobCompleted","type":"event"},{"anonymous":false,"inputs":[{"indexed":true,"internalType":"uint256","name":"jobId","type":"uint256"},{"indexed":false,"internalType":"uint64","name":"expiresAt","type":"uint64"}],"name":"JobExpiredClosed","type":"event"},{"anonymous":false,"inputs":[{"indexed":true,"internalType":"uint256","name":"jobId","type":"uint256"},{"indexed":true,"internalType":"address","name":"client","type":"address"},{"indexed":true,"internalType":"address","name":"freelancer","type":"address"},{"indexed":false,"internalType":"address","name":"escrow","type":"address"}],"name":"JobHired","type":"event"},{"anonymous":false,"inputs":[{"indexed":true,"internalType":"uint256","name":"jobId","type":"uint256"},{"indexed":true,"internalType":"address","name":"client","type":"address"},{"indexed":false,"internalType":"string","name":"title","type":"string"},{"indexed":false,"internalType":"string","name":"descriptionURI","type":"string"},{"indexed":false,"internalType":"uint256","name":"budgetUSDC","type":"uint256"},{"indexed":false,"internalType":"bytes32[]","name":"tags","type":"bytes32[]"},{"indexed":false,"internalType":"uint64","name":"expiresAt","type":"uint64"}],"name":"JobPosted","type":"event"},{"anonymous":false,"inputs":[{"indexed":true,"internalType":"uint256","name":"jobId","type":"uint256"},{"indexed":false,"internalType":"uint64","name":"newExpiresAt","type":"uint64"}],"name":"JobReopened","type":"event"},{"anonymous":false,"inputs":[{"indexed":true,"internalType":"uint256","name":"jobId","type":"uint256"},{"indexed":false,"internalType":"string","name":"title","type":"string"},{"indexed":false,"internalType":"string","name":"descriptionURI","type":"string"},{"indexed":false,"internalType":"uint256","name":"budgetUSDC","type":"uint256"},{"indexed":false,"internalType":"bytes32[]","name":"tags","type":"bytes32[]"},{"indexed":false,"internalType":"uint64","name":"expiresAt","type":"uint64"}],"name":"JobUpdated","type":"event"},{"anonymous":false,"inputs":[{"indexed":true,"internalType":"address","name":"user","type":"address"},{"indexed":false,"internalType":"bool","name":"isVerified","type":"bool"}],"name":"KYCSet","type":"event"},{"anonymous":false,"inputs":[{"indexed":true,"internalType":"address","name":"previousOwner","type":"address"},{"indexed":true,"internalType":"address","name":"newOwner","type":"address"}],"name":"OwnerChanged","type":"event"},{"anonymous":false,"inputs":[{"indexed":false,"internalType":"bool","name":"paused","type":"bool"}],"name":"PausedSet","type":"event"},{"anonymous":false,"inputs":[{"indexed":false,"internalType":"bool","name":"required","type":"bool"}],"name":"RequireApplicationToHireSet","type":"event"},{"anonymous":false,"inputs":[{"indexed":true,"internalType":"address","name":"usdc","type":"address"}],"name":"USDCSet","type":"event"},{"inputs":[{"internalType":"address","name":"","type":"address"}],"name":"allowedFactory","outputs":[{"internalType":"bool","name":"","type":"bool"}],"stateMutability":"view","type":"function"},{"inputs":[],"name":"antiSpamMode","outputs":[{"internalType":"enum JobBoard.AntiSpamMode","name":"","type":"uint8"}],"stateMutability":"view","type":"function"},{"inputs":[{"internalType":"uint256","name":"jobId","type":"uint256"}],"name":"applyToJob","outputs":[],"stateMutability":"nonpayable","type":"function"},{"inputs":[{"internalType":"uint256","name":"jobId","type":"uint256"},{"internalType":"string","name":"proposalURI","type":"string"},{"internalType":"uint256","name":"bidAmount","type":"uint256"},{"internalType":"uint64","name":"deliveryDays","type":"uint64"}],"name":"applyToJob","outputs":[],"stateMutability":"nonpayable","type":"function"},{"inputs":[{"internalType":"uint256","name":"jobId","type":"uint256"}],"name":"cancelJob","outputs":[],"stateMutability":"nonpayable","type":"function"},{"inputs":[{"internalType":"uint256","name":"jobId","type":"uint256"}],"name":"closeExpired","outputs":[],"stateMutability":"nonpayable","type":"function"},{"inputs":[],"name":"freelancerFactory","outputs":[{"internalType":"contract IFreelancerFactory","name":"","type":"address"}],"stateMutability":"view","type":"function"},{"inputs":[],"name":"gasSponsorshipEnabled","outputs":[{"internalType":"bool","name":"","type":"bool"}],"stateMutability":"view","type":"function"},{"inputs":[{"internalType":"uint256","name":"jobId","type":"uint256"}],"name":"getApplicantCount","outputs":[{"internalType":"uint256","name":"","type":"uint256"}],"stateMutability":"view","type":"function"},{"inputs":[{"internalType":"uint256","name":"jobId","type":"uint256"},{"internalType":"address","name":"freelancer","type":"address"}],"name":"getApplicantDetails","outputs":[{"internalType":"address","name":"_freelancer","type":"address"},{"internalType":"uint64","name":"appliedAt","type":"uint64"},{"internalType":"string","name":"proposalURI","type":"string"},{"internalType":"uint256","name":"bidAmount","type":"uint256"},{"internalType":"uint64","name":"deliveryDays","type":"uint64"}],"stateMutability":"view","type":"function"},{"inputs":[{"internalType":"uint256","name":"jobId","type":"uint256"},{"internalType":"uint256","name":"offset","type":"uint256"},{"internalType":"uint256","name":"limit","type":"uint256"}],"name":"getApplicants","outputs":[{"internalType":"address[]","name":"freelancers","type":"address[]"},{"internalType":"uint64[]","name":"appliedAt","type":"uint64[]"}],"stateMutability":"view","type":"function"},{"inputs":[{"internalType":"uint256","name":"jobId","type":"uint256"}],"name":"getJob","outputs":[{"internalType":"address","name":"client","type":"address"},{"internalType":"string","name":"title","type":"string"},{"internalType":"string","name":"descriptionURI","type":"string"},{"internalType":"uint256","name":"budgetUSDC","type":"uint256"},{"internalType":"enum JobBoard.JobStatus","name":"status","type":"uint8"},{"internalType":"address","name":"hiredFreelancer","type":"address"},{"internalType":"address","name":"escrow","type":"address"},{"internalType":"uint64","name":"createdAt","type":"uint64"},{"internalType":"uint64","name":"updatedAt","type":"uint64"},{"internalType":"uint64","name":"expiresAt","type":"uint64"},{"internalType":"bytes32[]","name":"tags","type":"bytes32[]"},{"internalType":"uint256","name":"postingBond","type":"uint256"}],"stateMutability":"view","type":"function"},{"inputs":[{"internalType":"address","name":"freelancer","type":"address"}],"name":"getJobsAppliedBy","outputs":[{"internalType":"uint256[]","name":"","type":"uint256[]"}],"stateMutability":"view","type":"function"},{"inputs":[{"internalType":"address","name":"","type":"address"}],"name":"isKYC","outputs":[{"internalType":"bool","name":"","type":"bool"}],"stateMutability":"view","type":"function"},{"inputs":[{"internalType":"uint256","name":"","type":"uint256"}],"name":"jobs","outputs":[{"internalType":"address","name":"client","type":"address"},{"internalType":"string","name":"title","type":"string"},{"internalType":"string","name":"descriptionURI","type":"string"},{"internalType":"uint256","name":"budgetUSDC","type":"uint256"},{"internalType":"enum JobBoard.JobStatus","name":"status","type":"uint8"},{"internalType":"address","name":"hiredFreelancer","type":"address"},{"internalType":"address","name":"escrow","type":"address"},{"internalType":"uint64","name":"createdAt","type":"uint64"},{"internalType":"uint64","name":"updatedAt","type":"uint64"},{"internalType":"uint64","name":"expiresAt","type":"uint64"},{"internalType":"uint256","name":"postingBond","type":"uint256"}],"stateMutability":"view","type":"function"},{"inputs":[{"internalType":"address","name":"clientAddr","type":"address"}],"name":"jobsByClient","outputs":[{"internalType":"uint256[]","name":"","type":"uint256[]"}],"stateMutability":"view","type":"function"},{"inputs":[{"internalType":"address","name":"clientAddr","type":"address"},{"internalType":"uint256","name":"offset","type":"uint256"},{"internalType":"uint256","name":"limit","type":"uint256"}],"name":"jobsByClientPaginated","outputs":[{"internalType":"uint256[]","name":"out","type":"uint256[]"}],"stateMutability":"view","type":"function"},{"inputs":[{"internalType":"address","name":"","type":"address"},{"internalType":"uint256","name":"","type":"uint256"}],"name":"jobsOf","outputs":[{"internalType":"uint256","name":"","type":"uint256"}],"stateMutability":"view","type":"function"},{"inputs":[{"internalType":"uint256","name":"jobId","type":"uint256"}],"name":"markAsCompleted","outputs":[],"stateMutability":"nonpayable","type":"function"},{"inputs":[{"internalType":"uint256","name":"jobId","type":"uint256"},{"internalType":"address","name":"freelancer","type":"address"},{"internalType":"address","name":"escrow","type":"address"}],"name":"markAsHired","outputs":[],"stateMutability":"nonpayable","type":"function"},{"inputs":[],"name":"nextJobId","outputs":[{"internalType":"uint256","name":"","type":"uint256"}],"stateMutability":"view","type":"function"},{"inputs":[{"internalType":"uint256","name":"offset","type":"uint256"},{"internalType":"uint256","name":"limit","type":"uint256"}],"name":"openJobs","outputs":[{"internalType":"uint256[]","name":"out","type":"uint256[]"}],"stateMutability":"view","type":"function"},{"inputs":[],"name":"owner","outputs":[{"internalType":"address","name":"","type":"address"}],"stateMutability":"view","type":"function"},{"inputs":[],"name":"paused","outputs":[{"internalType":"bool","name":"","type":"bool"}],"stateMutability":"view","type":"function"},{"inputs":[{"internalType":"string","name":"title","type":"string"},{"internalType":"string","name":"descriptionURI","type":"string"},{"internalType":"uint256","name":"budgetUSDC","type":"uint256"},{"internalType":"bytes32[]","name":"tags","type":"bytes32[]"},{"internalType":"uint64","name":"expiresAt","type":"uint64"}],"name":"postJob","outputs":[{"internalType":"uint256","name":"jobId","type":"uint256"}],"stateMutability":"nonpayable","type":"function"},{"inputs":[],"name":"postingBondUSDC","outputs":[{"internalType":"uint256","name":"","type":"uint256"}],"stateMutability":"view","type":"function"},{"inputs":[{"internalType":"uint256","name":"jobId","type":"uint256"},{"internalType":"uint64","name":"newExpiresAt","type":"uint64"}],"name":"reopen","outputs":[],"stateMutability":"nonpayable","type":"function"},{"inputs":[],"name":"requireApplicationToHire","outputs":[{"internalType":"bool","name":"","type":"bool"}],"stateMutability":"view","type":"function"},{"inputs":[{"internalType":"address","name":"factory","type":"address"},{"internalType":"bool","name":"allowed","type":"bool"}],"name":"setAllowedFactory","outputs":[],"stateMutability":"nonpayable","type":"function"},{"inputs":[{"internalType":"uint8","name":"mode","type":"uint8"},{"internalType":"uint256","name":"bondAmount","type":"uint256"}],"name":"setAntiSpamMode","outputs":[],"stateMutability":"nonpayable","type":"function"},{"inputs":[{"internalType":"address","name":"factory_","type":"address"}],"name":"setFreelancerFactory","outputs":[],"stateMutability":"nonpayable","type":"function"},{"inputs":[{"internalType":"bool","name":"enabled","type":"bool"}],"name":"setGasSponsorship","outputs":[],"stateMutability":"nonpayable","type":"function"},{"inputs":[{"internalType":"address","name":"user","type":"address"},{"internalType":"bool","name":"verified","type":"bool"}],"name":"setKYC","outputs":[],"stateMutability":"nonpayable","type":"function"},{"inputs":[{"internalType":"bool","name":"_paused","type":"bool"}],"name":"setPaused","outputs":[],"stateMutability":"nonpayable","type":"function"},{"inputs":[{"internalType":"bool","name":"required","type":"bool"}],"name":"setRequireApplicationToHire","outputs":[],"stateMutability":"nonpayable","type":"function"},{"inputs":[{"internalType":"address","name":"token","type":"address"}],"name":"setUSDC","outputs":[],"stateMutability":"nonpayable","type":"function"},{"inputs":[{"internalType":"address","name":"","type":"address"},{"internalType":"uint256","name":"amount","type":"uint256"}],"name":"sweepERC20","outputs":[],"stateMutability":"nonpayable","type":"function"},{"inputs":[{"internalType":"address","name":"clientAddr","type":"address"}],"name":"totalJobsOf","outputs":[{"internalType":"uint256","name":"","type":"uint256"}],"stateMutability":"view","type":"function"},{"inputs":[],"name":"totalOpenJobs","outputs":[{"internalType":"uint256","name":"","type":"uint256"}],"stateMutability":"view","type":"function"},{"inputs":[{"internalType":"address","name":"_newOwner","type":"address"}],"name":"transferOwnership","outputs":[],"stateMutability":"nonpayable","type":"function"},{"inputs":[{"internalType":"uint256","name":"jobId","type":"uint256"},{"internalType":"string","name":"title","type":"string"},{"internalType":"string","name":"descriptionURI","type":"string"},{"internalType":"uint256","name":"budgetUSDC","type":"uint256"},{"internalType":"bytes32[]","name":"tags","type":"bytes32[]"},{"internalType":"uint64","name":"expiresAt","type":"uint64"}],"name":"updateJob","outputs":[],"stateMutability":"nonpayable","type":"function"},{"inputs":[],"name":"usdc","outputs":[{"internalType":"contract IUSDCMinimal","name":"","type":"address"}],"stateMutability":"view","type":"function"},{"inputs":[{"internalType":"uint256","name":"jobId","type":"uint256"}],"name":"withdrawApplication","outputs":[],"stateMutability":"nonpayable","type":"function"}],"evm":{"bytecode":{"linkReferences":{},"object":"60803460b457601f6130c538819003918201601f19168301916001600160401b0383118484101760b95780849260209460405283398101031260b457516001600160a01b0381169081900360b4576001600b55801560a357600080546001600160a01b03191682178155600160065560405191907fb532073b38c83145e3e5135377a08bf9aab55bc0fd7c1179cd4fb995d2a5159c8180a3612ff590816100d08239f35b63d92e233d60e01b60005260046000fd5b600080fd5b634e487b7160e01b600052604160045260246000fdfe608080604052600436101561001357600080fd5b60003560e01c90816316c38b3c1461270557508063180aedf3146126125780631dffa3dc146125255780631ec1de93146125075780632ce606e3146124de5780632edea1a0146124b8578063312090611461230657806331dc20ff146122e857806336ae41ca146122165780633e413bee146121e95780633e8a00c8146121c65780633f19599314612187578063455f16c5146121165780634f464cb014611d445780635123bacc14611c9b57806357147aca14611c61578063583e42a414611bee5780635a4434ba14611bc45780635c975abb14611b9e5780636c79bce71461165c57806372ffa84d146115c55780637c1ee3b51461153d5780637f8305e5146114d45780638da5cb5b146114ab5780638e1a32d0146111385780639944f518146110f9578063b0c2aa5e146110db578063b3e089a214611053578063beacece114611027578063bec7a01d14610fb0578063bf22c45714610e2a578063c0a6026c14610d2f578063c6b9caf414610c79578063cbff7df514610bad578063d2f57da414610754578063d566a41114610728578063d8acddb1146106cf578063dc74fde5146106ad578063e5d53c3b14610626578063e6d119991461057a578063ee64a6aa14610408578063f1d5314a146102965763f2fde38b146101f857600080fd5b3461029157602036600319011261029157610211612911565b600054906001600160a01b0382169033829003610280576001600160a01b031691821561026f576001600160a01b031916821760009081557fb532073b38c83145e3e5135377a08bf9aab55bc0fd7c1179cd4fb995d2a5159c9080a3005b63d92e233d60e01b60005260046000fd5b6330cd747160e01b60005260046000fd5b600080fd5b346102915760203660031901126102915760043560ff60005460a01c166103f7576001600b54036103e6576002600b556000818152600e6020908152604080832033845290915290205480156103d55760001981019081116103bf5761030b60039183600052600d6020526040600020612ccd565b5080546001600160e01b03191681556001810180546000919061032d90612793565b601f81116103a0575b505560006002820155016001600160401b0319815416905580600052600e602052604060002060018060a01b0333166000526020526000604081205533907f6917335efdeedc9e175d9104c30bd132f219f66cbb6c05631b4e7991ca798023600080a36001600b55005b818352602083206103b991601f0160051c810190612a07565b85610336565b634e487b7160e01b600052601160045260246000fd5b630bd94e9760e11b60005260046000fd5b63558a1e0360e11b60005260046000fd5b6307a92f1960e51b60005260046000fd5b34610291576040366003190112610291576004356024356001600160401b0381168082036102915760ff60005460a01c166103f7576000838152600760205260409020546001600160a01b0316801561056957330361055857826000526007602052604060002090600482019160ff83541660068110156105425760038114159081610536575b50610525578115158061051b575b6103f757825460ff191660011790925560069190910180546001600160801b031916426001600160401b03161760409390931b67ffffffffffffffff60401b16929092179091557f64e5fe93a1512528f7d137734ea381e242e5f5b078b993159fdb3c72ab8e9ef79060209061051284612f71565b604051908152a2005b504282111561049d565b633f2e0a8760e21b60005260046000fd5b6005915014158661048f565b634e487b7160e01b600052602160045260246000fd5b630836f21d60e21b60005260046000fd5b63c0a8563160e01b60005260046000fd5b3461029157604036600319011261029157610593612911565b506000546001600160a01b0316338190036102805760025460405163a9059cbb60e01b81526001600160a01b0392831660048201526024803590820152916020918391604491839160009160081c165af1801561061a576105f057005b6106119060203d602011610613575b61060981836127e8565b810190612ba2565b005b503d6105ff565b6040513d6000823e3d90fd5b34610291576020366003190112610291576001600160a01b03610647612911565b166000526008602052604060002060405190816020825491828152019160005260206000209060005b8181106106975761069385610687818703826127e8565b60405191829182612984565b0390f35b8254845260209093019260019283019201610670565b3461029157604036600319011261029157610693610687602435600435612dbb565b34610291576040366003190112610291576106e8612911565b6001600160a01b031660009081526008602052604090208054602435919082101561029157602091610719916129ef565b90549060031b1c604051908152f35b3461029157602036600319011261029157600435600052600d6020526020604060002054604051908152f35b34610291576080366003190112610291576004356024356001600160401b03811161029157610787903690600401612927565b600092919250606435906001600160401b0382168092036102915760ff60005460a01c166103f7576001600b54036103e6576002600b556001600160401b038111610aa857604051936107e4601f8301601f1916602001866127e8565b818552368282011161029157816000926020928388013785010152600082815260076020526040902080546001600160a01b0316156105695760ff600482015416600681101561054257600103610b9c576006015460401c6001600160401b03168015159081610b91575b50610b8057600c546001600160a01b031680610ae4575b506000828152600e60209081526040808320338452909152902054610ad4576001600160401b0342169282600052600d6020526040600020549183600052600d6020526040600020604051926108bb846127cd565b338452602084018781526040850191825260608501926044358452608086019485528054600160401b811015610aa8576108fa91600182018155612ccd565b959095610abe5751855491516001600160e01b03199092166001600160a01b03919091161760a09190911b67ffffffffffffffff60a01b1617845551805160018501916001600160401b038211610aa85761095f826109598554612793565b85612a1e565b602090601f8311600114610a33579261099f836001600160401b039794600397948997600092610a28575b50508160011b916000199060031b1c19161790565b90555b5160028601555116920191166001600160401b0319825416179055600181018091116103bf576000828152600e60209081526040808320338452825280832093909355600f9052206109f5908290612bba565b6040519182527fffce64a4a888e2eca6ed6b5e083b220b5f57250b9c0c7badb33012f1607a084760203393a36001600b55005b015190508d8061098a565b90601f1983169184600052816000209260005b818110610a90575093600396936001600160401b03989593600193838b999610610a78575b505050811b0190556109a2565b0151600019838a1b60f8161c191690558c8080610a6b565b92936020600181928786015181550195019301610a46565b634e487b7160e01b600052604160045260246000fd5b634e487b7160e01b600052600060045260246000fd5b62540c0360e11b60005260046000fd5b602060249160405192838092630f5664e760e31b82523360048301525afa90811561061a57600091610b37575b506001600160a01b031615610b265783610866565b633832386960e11b60005260046000fd5b6020813d602011610b78575b81610b50602093836127e8565b81010312610b745751906001600160a01b0382168203610b71575084610b11565b80fd5b5080fd5b3d9150610b43565b63d0404f8560e01b60005260046000fd5b90504210158461084f565b631bb5f5b360e31b60005260046000fd5b3461029157604036600319011261029157600435610bc96128fb565b81600052600e60205260406000209060018060a01b03166000526020526040600020549081156103d557600052600d602052604060002060001982019182116103bf576001600160401b0391610c1e91612ccd565b50805490600281015490610c6a610c3e6001866003850154169301612809565b604080516001600160a01b038716815260a096871c9097166020880152860185905285948501906128ad565b91606084015260808301520390f35b3461029157606036600319011261029157610c9b604435602435600435612ce9565b906040519182916040830160408452815180915260206060850192019060005b818110610d0d5750505082810360208401526020808351928381520192019060005b818110610ceb575050500390f35b82516001600160401b0316845285945060209384019390920191600101610cdd565b82516001600160a01b0316845286955060209384019390920191600101610cbb565b346102915760203660031901126102915760043560ff60005460a01c166103f75733600052600160205260ff6040600020541615610e1957600081815260076020526040902080549091906001600160a01b03161561056957600482019060ff8254166006811015610542576002036103f757815460ff1916600417825560068301805467ffffffffffffffff1916426001600160401b0316179055825491546005909301546040516001600160a01b03918216815260089490941c8116939216917f074fd40586a68e670c4541fb4b871f9b85af2929dbe255702e111e588ff4b2a890602090a4005b6309270ebd60e11b60005260046000fd5b3461029157602036600319011261029157600435600090815260076020526040902080546001600160a01b0316801561056957600382015491600481015460058201549160068101546007820193600883015493610e966002610e8f60018701612809565b9501612809565b604051948560208954918281520190819960005260206000209060005b818110610f9a5750505092610f066001600160401b03959293610ef88795610ee18b60209c9b99038b6127e8565b6101806040519e8f908152818d82015201906128ad565b8c810360408e0152906128ad565b9a60608b0152610f1c60808b0160ff83166128ee565b60081c6001600160a01b0390811660a08b81019190915290821660c08b01521c1660e088015280821661010088015260401c16610120860152848603610140860152518086526000959190910192905b808610610f825750508293506101608301520390f35b90926020806001928651815201940195019490610f6c565b8254845260209093019260019283019201610eb3565b34610291576020366003190112610291576001600160a01b03610fd1612911565b16600052600f602052604060002060405190816020825491828152019160005260206000209060005b8181106110115761069385610687818703826127e8565b8254845260209093019260019283019201610ffa565b3461029157606036600319011261029157610693610687611046612911565b6044359060243590612c0e565b346102915760203660031901126102915761106c612911565b6000546001600160a01b03163303610280576001600160a01b03811690811561026f5760028054610100600160a81b03191660089290921b610100600160a81b03169190911790557f4a13891118f8dba1996f8eac118f83bb98e645807a9b9cecf6bc6d014048e7e3600080a2005b34610291576000366003190112610291576020600654604051908152f35b34610291576020366003190112610291576001600160a01b0361111a612911565b166000526004602052602060ff604060002054166040519015158152f35b346102915760203660031901126102915760043560ff60005460a01c166103f7576001600b54036103e6576002600b5560209060405161117883826127e8565b6000808252828152600784526040902080546001600160a01b0316156105695760ff600482015416600681101561054257600103610b9c576006015460401c6001600160401b031680151590816114a0575b50610b8057600c546001600160a01b03168381611421575b50506000828152600e845260408082203383528552902054610ad4576001600160401b0342169282600052600d81526040600020549183600052600d8252604060002060405191611232836127cd565b33835283830190878252604084019081526060840191600083526080850193600085528054600160401b811015610aa85761127291600182018155612ccd565b959095610abe5751855491516001600160e01b03199092166001600160a01b03919091161760a09190911b67ffffffffffffffff60a01b1617845551805160018501916001600160401b038211610aa8576112d1826109598554612793565b8690601f83116001146113ac579261130f836001600160401b0397946003979489976000926113a15750508160011b916000199060031b1c19161790565b90555b5160028601555116920191166001600160401b0319825416179055600182018092116103bf577fffce64a4a888e2eca6ed6b5e083b220b5f57250b9c0c7badb33012f1607a08479183600052600e8252604060002060018060a01b033316600052825260406000205533600052600f8152611391836040600020612bba565b6040519384523393a36001600b55005b015190508e8061098a565b90601f1983169184600052886000209260005b8a82821061140b57505093600396936001600160401b03989593600193838b9996106113f3575b505050811b019055611312565b0151600019838a1b60f8161c191690558d80806113e6565b60018596829396860151815501950193016113bf565b604051630f5664e760e31b815233600482015291829060249082905afa90811561061a57600091611463575b506001600160a01b031615610b265783836111e2565b8481813d8311611499575b61147881836127e8565b81010312610b745751906001600160a01b0382168203610b7157508461144d565b503d61146e565b9050421015846111ca565b34610291576000366003190112610291576000546040516001600160a01b039091168152602090f35b34610291576020366003190112610291576114ed612775565b6000546001600160a01b031633036102805760207fe45eebf975e8498157f15e4245144789293d518243944ce72e49418a0cfa598391151560ff196005541660ff821617600555604051908152a1005b346102915760403660031901126102915760043560ff811680910361029157600054602435906001600160a01b0316330361028057600282116103f7576003821015610542577f7d63308b92fa01d1151ab58553671d1b5ade1d78731eb1b099f55ac41ea2464e916040918160ff1960025416176002558060035582519182526020820152a1005b34610291576040366003190112610291576115de612911565b6115e6612784565b6000549091906001600160a01b03163303610280576001600160a01b031690811561026f5760207f24c9a6b477fff74db04905dbc966242385b5b163a4abd979698a56ea761371db9183600052600182526116518160406000209060ff801983541691151516179055565b6040519015158152a2005b346102915760a0366003190112610291576004356001600160401b0381116102915761168c903690600401612927565b906024356001600160401b038111610291576116ac903690600401612927565b9092604435916064356001600160401b038111610291576116d1903690600401612954565b949093608435926001600160401b038416958685036102915760ff60005460a01c166103f7576001600b54036103e6576002600b556002549660ff8816976003891015610542576002891480611b85575b611b7457600160009914611ac1575b5060058911611ab0578015159081611aa5575b506103f7576006549760001989146103bf57600189810160065560008a815260076020526040902080546001600160a01b03191633178155989089016001600160401b038911610aa8576117a28961179c8354612793565b83612a1e565b600089601f8111600114611a4157806117d192600091611a36575b508160011b916000199060031b1c19161790565b90555b600289016001600160401b038511610aa8576117f48561179c8354612793565b6000858d601f82116001146119cb5761182492600091836119c05750508160011b916000199060031b1c19161790565b90555b6003890185905560048901805460ff1916600117905560058901805467ffffffffffffffff60a01b19164260a081901b67ffffffffffffffff60a01b169190911790915560068a01805467ffffffffffffffff60401b60408b901b166001600160401b039093166001600160801b03199091161791909117905560088901558061191c575b50507f1e340188ef02ed93224295b9e0a03660720f89cfd12522e974a49b530e346e03936020989388969361190c933360005260088c526118f1896040600020612bba565b6118fa89612f71565b6040519687966007339c019488612b20565b0390a36001600b55604051908152f35b61192581612abd565b805160078a0192916001600160401b038211610aa8576020906119488386612a63565b0183600052602060002060005b8381106119ac575050505060005b8181106119715750506118ac565b8061197f6001928487612aef565b356119a461198d83876129ef565b819391549060031b91821b91600019901b19161790565b905501611963565b600190602084519401938184015501611955565b013590508f8f61098a565b838352602083209290915087601f198116825b818110611a165750106119fc575b505050600185811b019055611827565b0135600019600388901b60f8161c191690558c8c816119ec565b936020925083958392946001920135815501940192018f929189916119de565b90508901358f6117bd565b5081815260208120908a601f198116825b8b828210611a8b57505010611a71575b5050600189811b0190556117d4565b88013560001960038c901b60f8161c191690558c80611a62565b84013585556001909401936020938401938e935001611a52565b90504210158a611744565b63ee39e85560e01b60005260046000fd5b60081c6001600160a01b03168015611b6557600354988915611b565750602060009160648b60405194859384926323b872dd60e01b845233600485015230602485015260448401525af190811561061a57600091611b37575b5015611b26578a611731565b63501c2aaf60e01b60005260046000fd5b611b50915060203d6020116106135761060981836127e8565b8b611b1a565b63501c2aaf60e01b8152600490fd5b63e92eebef60e01b8952600489fd5b633b529a9760e11b60005260046000fd5b5033600052600460205260ff6040600020541615611722565b3461029157600036600319011261029157602060ff60005460a01c166040519015158152f35b346102915760003660031901126102915760ff600254166040516003821015610542576020918152f35b3461029157602036600319011261029157611c07612775565b6000546001600160a01b031633036102805760207ffcedad5b627dd7e8aa295bc0afeb76597c18047112fa7d4ac4d131f0e250a3c2911515600c5460ff60a01b8260a01b169060ff60a01b191617600c55604051908152a1005b34610291576020366003190112610291576001600160a01b03611c82612911565b1660005260086020526020604060002054604051908152f35b3461029157604036600319011261029157611cb4612911565b611cbc612784565b9060018060a01b036000541633141580611d2b575b610e19576001600160a01b031690811561026f5760207f97b4072981ad9b2269406ff8cc9d70c26afd27cea67b75e2573b8710a5e880c99183600052600482526116518160406000209060ff801983541691151516179055565b5033600052600160205260ff6040600020541615611cd1565b346102915760c0366003190112610291576004356024356001600160401b03811161029157611d77903690600401612927565b6044929192356001600160401b03811161029157611d99903690600401612927565b6064949194356084356001600160401b03811161029157611dbe903690600401612954565b92909660a435976001600160401b038916808a036102915760ff60005460a01c166103f7576000898152600760205260409020546001600160a01b031680156105695733036105585788600052600760205260406000209060ff600483015416600681101561054257600103610b9c5760058711611ab057801515908161210b575b506103f757600181016001600160401b038911610aa857611e658961179c8354612793565b600089601f81116001146120a75780611e939260009161209c57508160011b916000199060031b1c19161790565b90555b60028101906001600160401b038511610aa857611ebd85611eb78454612793565b84612a1e565b60009185601f81116001146120345780611eef9160079560009161202957508160011b916000199060031b1c19161790565b90555b600381018690556006810180546001600160801b031916426001600160401b03161760408d901b67ffffffffffffffff60401b16179055019485546000875580612002575b5080611f7b575b505091611f7693917ff9cdeb830204e1e6135fb07822aaac23761d75003d5dde41bcb94fa818c1b52197989360405197889788612b20565b0390a2005b611f8481612abd565b8051906001600160401b038211610aa857602090611fa2838a612a63565b0187600052602060002060005b838110611fee575050505060005b818110611fca5750611f3e565b80611fd86001928486612aef565b35611fe661198d838b6129ef565b905501611fbd565b600190602084519401938184015501611faf565b866000526020600020908101905b81811061201d5750611f37565b60008155600101612010565b90508701358f6117bd565b50808352602083208387601f1981165b80871061207e576007965010612064575b5050600186811b019055611ef2565b860135600019600389901b60f8161c191690558c80612055565b88830135845560209687019660019094019390920191899150612044565b90508a01358e6117bd565b5081815260208120908a601f198116825b8c8282106120f1575050106120d7575b5050600189811b019055611e96565b89013560001960038c901b60f8161c191690558b806120c8565b84013585556001909401936020938401938e9350016120b8565b90504210158b611e40565b346102915760203660031901126102915761212f612911565b6000546001600160a01b0316330361028057600c80546001600160a01b0319166001600160a01b039290921691821790557ff51d0449bf7d477688401ef33c6c6e576ec0a95e4e9337a86904163bb41c2673600080a2005b34610291576020366003190112610291576001600160a01b036121a8612911565b166000526001602052602060ff604060002054166040519015158152f35b3461029157600036600319011261029157602060ff600554166040519015158152f35b346102915760003660031901126102915760025460405160089190911c6001600160a01b03168152602090f35b3461029157602036600319011261029157600435600081815260076020526040902080546001600160a01b03161561056957600481019060ff825416600681101561054257600103610b9c576006016001600160401b03815460401c1680159081156122de575b50610b80576001600160401b036020917fe77a20b7941129acbb78a11f4d13c89ec2c9d5d36d21f0f7083e304c3e4338c993600560ff19825416179055818042161682198254161781556122d085612e30565b5460401c16604051908152a2005b905042108461227d565b34610291576000366003190112610291576020600954604051908152f35b34610291576060366003190112610291576004356123226128fb565b906044356001600160a01b03811691908290036102915760ff60005460a01c166103f75733600052600160205260ff6040600020541615610e19576001600b54036103e6576002600b556001600160a01b03831692831580156124b0575b61026f57600082815260076020526040902080546001600160a01b03161561056957600481019160ff83541660068110156105425760010361249f5760ff600c5460a01c16612478575b8254610100600160a81b03191660089190911b610100600160a81b03161782556005810180546001600160a01b03191685179055815460ff191660021790915560068101805467ffffffffffffffff1916426001600160401b03161790557f18d75305648a74597b581f82d18a431cb8a7ddbf7a7131ceb3e9e5343ed770899060209061245684612e30565b61245f81612ef2565b546040519485526001600160a01b031693a46001600b55005b9083600052600e602052604060002086600052602052604060002054156103d557906123ca565b635e78c1e560e01b60005260046000fd5b508215612380565b3461029157600036600319011261029157602060ff600c5460a01c166040519015158152f35b3461029157600036600319011261029157600c546040516001600160a01b039091168152602090f35b34610291576000366003190112610291576020600354604051908152f35b346102915760203660031901126102915760043560ff60005460a01c166103f7576000818152600760205260409020546001600160a01b03168015610569573303610558576001600b54036103e6576002600b5580600052600760205260406000206004810160ff815416600681101561054257600103610b9c57805460ff1916600317905560068101805467ffffffffffffffff1916426001600160401b03161790556125d282612e30565b6125db81612ef2565b546001600160a01b0316907ff1ab0865975dad5c69ae8e4baaf13114c875728afa7cc86368534c22a631d0b0600080a36001600b55005b3461029157602036600319011261029157600435600090815260076020526040902080546001600160a01b031661264b60018301612809565b9161265860028201612809565b6001600160401b036003830154928160048201546005830154906126ac600860068601549501549661269e6040519b8c9b8c5261016060208d01526101608c01906128ad565b908a820360408c01526128ad565b9660608901526126c26080890160ff83166128ee565b60081c6001600160a01b0390811660a08981019190915290821660c08901521c1660e086015280821661010086015260401c166101208401526101408301520390f35b346102915760203660031901126102915761271e612775565b600054916001600160a01b0383163303610280577f40db37ff5c0bdc2c427fbb2078c8f24afea940abac0e3c23bb4ea3bf2da2b2129260209215159060ff60a01b8260a01b169060ff60a01b1916176000558152a1005b60043590811515820361029157565b60243590811515820361029157565b90600182811c921680156127c3575b60208310146127ad57565b634e487b7160e01b600052602260045260246000fd5b91607f16916127a2565b60a081019081106001600160401b03821117610aa857604052565b90601f801991011681019081106001600160401b03821117610aa857604052565b906040519182600082549261281d84612793565b808452936001811690811561288b5750600114612844575b50612842925003836127e8565b565b90506000929192526020600020906000915b81831061286f5750509060206128429282010138612835565b6020919350806001915483858901015201910190918492612856565b90506020925061284294915060ff191682840152151560051b82010138612835565b919082519283825260005b8481106128d9575050826000602080949584010152601f8019910116010190565b806020809284010151828286010152016128b8565b9060068210156105425752565b602435906001600160a01b038216820361029157565b600435906001600160a01b038216820361029157565b9181601f84011215610291578235916001600160401b038311610291576020838186019501011161029157565b9181601f84011215610291578235916001600160401b038311610291576020808501948460051b01011161029157565b602060408183019282815284518094520192019060005b8181106129a85750505090565b825184526020938401939092019160010161299b565b6009548110156129d957600960005260206000200190600090565b634e487b7160e01b600052603260045260246000fd5b80548210156129d95760005260206000200190600090565b818110612a12575050565b60008155600101612a07565b9190601f8111612a2d57505050565b612842926000526020600020906020601f840160051c83019310612a59575b601f0160051c0190612a07565b9091508190612a4c565b90600160401b8111610aa857815491818155828210612a8157505050565b600052602060002091820191015b818110612a9a575050565b60008155600101612a8f565b6001600160401b038111610aa85760051b60200190565b90612ac782612aa6565b612ad460405191826127e8565b8281528092612ae5601f1991612aa6565b0190602036910137565b91908110156129d95760051b0190565b908060209392818452848401376000828201840152601f01601f1916010190565b95949390612b3e90612b4c949399989960a0895260a0890191612aff565b918683036020880152612aff565b90604084015282810360608401526020825491828152019160005260206000209060005b818110612b8c575050506001600160401b036080919416910152565b8254845260209093019260019283019201612b70565b90816020910312610291575180151581036102915790565b805490600160401b821015610aa8578161198d916001612bdc940181556129ef565b9055565b919082018092116103bf57565b919082039182116103bf57565b80518210156129d95760209160051b010190565b6001600160a01b031660008181526008602052604090205490939281831015612cae57612c4f91612c40849283612be0565b90808211612ca6575b50612bed565b90612c5982612abd565b9360005b838110612c6a5750505050565b600190826000526008602052612c8e6040600020612c888387612be0565b906129ef565b90549060031b1c612c9f8289612bfa565b5201612c5d565b905038612c49565b5050509050604051612cc16020826127e8565b60008152600036813790565b80548210156129d95760005260206000209060021b0190600090565b92909192600052600d60205260406000209283549081841015612d8157612d1591612c40859283612be0565b612d1e81612abd565b93612d2882612abd565b9360005b838110612d395750505050565b806001600160401b03612d57612d5160019486612be0565b86612ccd565b5054838060a01b038116612d6b848c612bfa565b5260a01c16612d7a8289612bfa565b5201612d2c565b5050915050602090604051612d9683826127e8565b60008152600036813760405192612dad81856127e8565b600084525060003681379190565b91906009549081841015612e1e57612dd891612c40859283612be0565b612de181612abd565b9260005b828110612df157505050565b80612e06612e0160019385612be0565b6129be565b90549060031b1c612e178288612bfa565b5201612de5565b50509050604051612cc16020826127e8565b80600052600a602052604060002054908115612eee576000198201918083116103bf576009546000198101939084116103bf57612e6c846129be565b90549060031b1c906000948103612ecb575b5050506009548015612eb75760001901612e97816129be565b8154906000199060031b1b191690556009558152600a6020526040812055565b634e487b7160e01b83526031600452602483fd5b612ed861198d83926129be565b90558352600a6020526040832055388080612e7e565b5050565b6008810180548015612f6c57600091829055600254925460405163a9059cbb60e01b81526001600160a01b03918216600482015260248101929092529092602092849260449284929160089190911c165af1801561061a57612f515750565b612f699060203d6020116106135761060981836127e8565b50565b505050565b80600052600a602052604060002054612f6957600954600160401b811015610aa857612fa961198d82600185940160095560096129ef565b905560095490600052600a60205260406000205556fea264697066735822122034756de096a7126bcb80cc697bb3c0c7ffca5989d7d586c1a1698ee9795cd29464736f6c634300081c0033","opcodes":"PUSH1 0x80 CALLVALUE PUSH1 0xB4 JUMPI PUSH1 0x1F PUSH2 0x30C5 CODESIZE DUP2 SWAP1 SUB SWAP2 DUP3 ADD PUSH1 0x1F NOT AND DUP4 ADD SWAP2 PUSH1 0x1 PUSH1 0x1 PUSH1 0x40 SHL SUB DUP4 GT DUP5 DUP5 LT OR PUSH1 0xB9 JUMPI DUP1 DUP5 SWAP3 PUSH1 0x20 SWAP5 PUSH1 0x40 MSTORE DUP4 CODECOPY DUP2 ADD SUB SLT PUSH1 0xB4 JUMPI MLOAD PUSH1 0x1 PUSH1 0x1 PUSH1 0xA0 SHL SUB DUP2 AND SWAP1 DUP2 SWAP1 SUB PUSH1 0xB4 JUMPI PUSH1 0x1 PUSH1 0xB SSTORE DUP1 ISZERO PUSH1 0xA3 JUMPI PUSH1 0x0 DUP1 SLOAD PUSH1 0x1 PUSH1 0x1 PUSH1 0xA0 SHL SUB NOT AND DUP3 OR DUP2 SSTORE PUSH1 0x1 PUSH1 0x6 SSTORE PUSH1 0x40 MLOAD SWAP2 SWAP1 PUSH32 0xB532073B38C83145E3E5135377A08BF9AAB55BC0FD7C1179CD4FB995D2A5159C DUP2 DUP1 LOG3 PUSH2 0x2FF5 SWAP1 DUP2 PUSH2 0xD0 DUP3 CODECOPY RETURN JUMPDEST PUSH4 0xD92E233D PUSH1 0xE0 SHL PUSH1 0x0 MSTORE PUSH1 0x4 PUSH1 0x0 REVERT JUMPDEST PUSH1 0x0 DUP1 REVERT JUMPDEST PUSH4 0x4E487B71 PUSH1 0xE0 SHL PUSH1 0x0 MSTORE PUSH1 0x41 PUSH1 0x4 MSTORE PUSH1 0x24 PUSH1 0x0 REVERT INVALID PUSH1 0x80 DUP1 PUSH1 0x40 MSTORE PUSH1 0x4 CALLDATASIZE LT ISZERO PUSH2 0x13 JUMPI PUSH1 0x0 DUP1 REVERT JUMPDEST PUSH1 0x0 CALLDATALOAD PUSH1 0xE0 SHR SWAP1 DUP2 PUSH4 0x16C38B3C EQ PUSH2 0x2705 JUMPI POP DUP1 PUSH4 0x180AEDF3 EQ PUSH2 0x2612 JUMPI DUP1 PUSH4 0x1DFFA3DC EQ PUSH2 0x2525 JUMPI DUP1 PUSH4 0x1EC1DE93 EQ PUSH2 0x2507 JUMPI DUP1 PUSH4 0x2CE606E3 EQ PUSH2 0x24DE JUMPI DUP1 PUSH4 0x2EDEA1A0 EQ PUSH2 0x24B8 JUMPI DUP1 PUSH4 0x31209061 EQ PUSH2 0x2306 JUMPI DUP1 PUSH4 0x31DC20FF EQ PUSH2 0x22E8 JUMPI DUP1 PUSH4 0x36AE41CA EQ PUSH2 0x2216 JUMPI DUP1 PUSH4 0x3E413BEE EQ PUSH2 0x21E9 JUMPI DUP1 PUSH4 0x3E8A00C8 EQ PUSH2 0x21C6 JUMPI DUP1 PUSH4 0x3F195993 EQ PUSH2 0x2187 JUMPI DUP1 PUSH4 0x455F16C5 EQ PUSH2 0x2116 JUMPI DUP1 PUSH4 0x4F464CB0 EQ PUSH2 0x1D44 JUMPI DUP1 PUSH4 0x5123BACC EQ PUSH2 0x1C9B JUMPI DUP1 PUSH4 0x57147ACA EQ PUSH2 0x1C61 JUMPI DUP1 PUSH4 0x583E42A4 EQ PUSH2 0x1BEE JUMPI DUP1 PUSH4 0x5A4434BA EQ PUSH2 0x1BC4 JUMPI DUP1 PUSH4 0x5C975ABB EQ PUSH2 0x1B9E JUMPI DUP1 PUSH4 0x6C79BCE7 EQ PUSH2 0x165C JUMPI DUP1 PUSH4 0x72FFA84D EQ PUSH2 0x15C5 JUMPI DUP1 PUSH4 0x7C1EE3B5 EQ PUSH2 0x153D JUMPI DUP1 PUSH4 0x7F8305E5 EQ PUSH2 0x14D4 JUMPI DUP1 PUSH4 0x8DA5CB5B EQ PUSH2 0x14AB JUMPI DUP1 PUSH4 0x8E1A32D0 EQ PUSH2 0x1138 JUMPI DUP1 PUSH4 0x9944F518 EQ PUSH2 0x10F9 JUMPI DUP1 PUSH4 0xB0C2AA5E EQ PUSH2 0x10DB JUMPI DUP1 PUSH4 0xB3E089A2 EQ PUSH2 0x1053 JUMPI DUP1 PUSH4 0xBEACECE1 EQ PUSH2 0x1027 JUMPI DUP1 PUSH4 0xBEC7A01D EQ PUSH2 0xFB0 JUMPI DUP1 PUSH4 0xBF22C457 EQ PUSH2 0xE2A JUMPI DUP1 PUSH4 0xC0A6026C EQ PUSH2 0xD2F JUMPI DUP1 PUSH4 0xC6B9CAF4 EQ PUSH2 0xC79 JUMPI DUP1 PUSH4 0xCBFF7DF5 EQ PUSH2 0xBAD JUMPI DUP1 PUSH4 0xD2F57DA4 EQ PUSH2 0x754 JUMPI DUP1 PUSH4 0xD566A411 EQ PUSH2 0x728 JUMPI DUP1 PUSH4 0xD8ACDDB1 EQ PUSH2 0x6CF JUMPI DUP1 PUSH4 0xDC74FDE5 EQ PUSH2 0x6AD JUMPI DUP1 PUSH4 0xE5D53C3B EQ PUSH2 0x626 JUMPI DUP1 PUSH4 0xE6D11999 EQ PUSH2 0x57A JUMPI DUP1 PUSH4 0xEE64A6AA EQ PUSH2 0x408 JUMPI DUP1 PUSH4 0xF1D5314A EQ PUSH2 0x296 JUMPI PUSH4 0xF2FDE38B EQ PUSH2 0x1F8 JUMPI PUSH1 0x0 DUP1 REVERT JUMPDEST CALLVALUE PUSH2 0x291 JUMPI PUSH1 0x20 CALLDATASIZE PUSH1 0x3 NOT ADD SLT PUSH2 0x291 JUMPI PUSH2 0x211 PUSH2 0x2911 JUMP JUMPDEST PUSH1 0x0 SLOAD SWAP1 PUSH1 0x1 PUSH1 0x1 PUSH1 0xA0 SHL SUB DUP3 AND SWAP1 CALLER DUP3 SWAP1 SUB PUSH2 0x280 JUMPI PUSH1 0x1 PUSH1 0x1 PUSH1 0xA0 SHL SUB AND SWAP2 DUP3 ISZERO PUSH2 0x26F JUMPI PUSH1 0x1 PUSH1 0x1 PUSH1 0xA0 SHL SUB NOT AND DUP3 OR PUSH1 0x0 SWAP1 DUP2 SSTORE PUSH32 0xB532073B38C83145E3E5135377A08BF9AAB55BC0FD7C1179CD4FB995D2A5159C SWAP1 DUP1 LOG3 STOP JUMPDEST PUSH4 0xD92E233D PUSH1 0xE0 SHL PUSH1 0x0 MSTORE PUSH1 0x4 PUSH1 0x0 REVERT JUMPDEST PUSH4 0x30CD7471 PUSH1 0xE0 SHL PUSH1 0x0 MSTORE PUSH1 0x4 PUSH1 0x0 REVERT JUMPDEST PUSH1 0x0 DUP1 REVERT JUMPDEST CALLVALUE PUSH2 0x291 JUMPI PUSH1 0x20 CALLDATASIZE PUSH1 0x3 NOT ADD SLT PUSH2 0x291 JUMPI PUSH1 0x4 CALLDATALOAD PUSH1 0xFF PUSH1 0x0 SLOAD PUSH1 0xA0 SHR AND PUSH2 0x3F7 JUMPI PUSH1 0x1 PUSH1 0xB SLOAD SUB PUSH2 0x3E6 JUMPI PUSH1 0x2 PUSH1 0xB SSTORE PUSH1 0x0 DUP2 DUP2 MSTORE PUSH1 0xE PUSH1 0x20 SWAP1 DUP2 MSTORE PUSH1 0x40 DUP1 DUP4 KECCAK256 CALLER DUP5 MSTORE SWAP1 SWAP2 MSTORE SWAP1 KECCAK256 SLOAD DUP1 ISZERO PUSH2 0x3D5 JUMPI PUSH1 0x0 NOT DUP2 ADD SWAP1 DUP2 GT PUSH2 0x3BF JUMPI PUSH2 0x30B PUSH1 0x3 SWAP2 DUP4 PUSH1 0x0 MSTORE PUSH1 0xD PUSH1 0x20 MSTORE PUSH1 0x40 PUSH1 0x0 KECCAK256 PUSH2 0x2CCD JUMP JUMPDEST POP DUP1 SLOAD PUSH1 0x1 PUSH1 0x1 PUSH1 0xE0 SHL SUB NOT AND DUP2 SSTORE PUSH1 0x1 DUP2 ADD DUP1 SLOAD PUSH1 0x0 SWAP2 SWAP1 PUSH2 0x32D SWAP1 PUSH2 0x2793 JUMP JUMPDEST PUSH1 0x1F DUP2 GT PUSH2 0x3A0 JUMPI JUMPDEST POP SSTORE PUSH1 0x0 PUSH1 0x2 DUP3 ADD SSTORE ADD PUSH1 0x1 PUSH1 0x1 PUSH1 0x40 SHL SUB NOT DUP2 SLOAD AND SWAP1 SSTORE DUP1 PUSH1 0x0 MSTORE PUSH1 0xE PUSH1 0x20 MSTORE PUSH1 0x40 PUSH1 0x0 KECCAK256 PUSH1 0x1 DUP1 PUSH1 0xA0 SHL SUB CALLER AND PUSH1 0x0 MSTORE PUSH1 0x20 MSTORE PUSH1 0x0 PUSH1 0x40 DUP2 KECCAK256 SSTORE CALLER SWAP1 PUSH32 0x6917335EFDEEDC9E175D9104C30BD132F219F66CBB6C05631B4E7991CA798023 PUSH1 0x0 DUP1 LOG3 PUSH1 0x1 PUSH1 0xB SSTORE STOP JUMPDEST DUP2 DUP4 MSTORE PUSH1 0x20 DUP4 KECCAK256 PUSH2 0x3B9 SWAP2 PUSH1 0x1F ADD PUSH1 0x5 SHR DUP2 ADD SWAP1 PUSH2 0x2A07 JUMP JUMPDEST DUP6 PUSH2 0x336 JUMP JUMPDEST PUSH4 0x4E487B71 PUSH1 0xE0 SHL PUSH1 0x0 MSTORE PUSH1 0x11 PUSH1 0x4 MSTORE PUSH1 0x24 PUSH1 0x0 REVERT JUMPDEST PUSH4 0xBD94E97 PUSH1 0xE1 SHL PUSH1 0x0 MSTORE PUSH1 0x4 PUSH1 0x0 REVERT JUMPDEST PUSH4 0x558A1E03 PUSH1 0xE1 SHL PUSH1 0x0 MSTORE PUSH1 0x4 PUSH1 0x0 REVERT JUMPDEST PUSH4 0x7A92F19 PUSH1 0xE5 SHL PUSH1 0x0 MSTORE PUSH1 0x4 PUSH1 0x0 REVERT JUMPDEST CALLVALUE PUSH2 0x291 JUMPI PUSH1 0x40 CALLDATASIZE PUSH1 0x3 NOT ADD SLT PUSH2 0x291 JUMPI PUSH1 0x4 CALLDATALOAD PUSH1 0x24 CALLDATALOAD PUSH1 0x1 PUSH1 0x1 PUSH1 0x40 SHL SUB DUP2 AND DUP1 DUP3 SUB PUSH2 0x291 JUMPI PUSH1 0xFF PUSH1 0x0 SLOAD PUSH1 0xA0 SHR AND PUSH2 0x3F7 JUMPI PUSH1 0x0 DUP4 DUP2 MSTORE PUSH1 0x7 PUSH1 0x20 MSTORE PUSH1 0x40 SWAP1 KECCAK256 SLOAD PUSH1 0x1 PUSH1 0x1 PUSH1 0xA0 SHL SUB AND DUP1 ISZERO PUSH2 0x569 JUMPI CALLER SUB PUSH2 0x558 JUMPI DUP3 PUSH1 0x0 MSTORE PUSH1 0x7 PUSH1 0x20 MSTORE PUSH1 0x40 PUSH1 0x0 KECCAK256 SWAP1 PUSH1 0x4 DUP3 ADD SWAP2 PUSH1 0xFF DUP4 SLOAD AND PUSH1 0x6 DUP2 LT ISZERO PUSH2 0x542 JUMPI PUSH1 0x3 DUP2 EQ ISZERO SWAP1 DUP2 PUSH2 0x536 JUMPI JUMPDEST POP PUSH2 0x525 JUMPI DUP2 ISZERO ISZERO DUP1 PUSH2 0x51B JUMPI JUMPDEST PUSH2 0x3F7 JUMPI DUP3 SLOAD PUSH1 0xFF NOT AND PUSH1 0x1 OR SWAP1 SWAP3 SSTORE PUSH1 0x6 SWAP2 SWAP1 SWAP2 ADD DUP1 SLOAD PUSH1 0x1 PUSH1 0x1 PUSH1 0x80 SHL SUB NOT AND TIMESTAMP PUSH1 0x1 PUSH1 0x1 PUSH1 0x40 SHL SUB AND OR PUSH1 0x40 SWAP4 SWAP1 SWAP4 SHL PUSH8 0xFFFFFFFFFFFFFFFF PUSH1 0x40 SHL AND SWAP3 SWAP1 SWAP3 OR SWAP1 SWAP2 SSTORE PUSH32 0x64E5FE93A1512528F7D137734EA381E242E5F5B078B993159FDB3C72AB8E9EF7 SWAP1 PUSH1 0x20 SWAP1 PUSH2 0x512 DUP5 PUSH2 0x2F71 JUMP JUMPDEST PUSH1 0x40 MLOAD SWAP1 DUP2 MSTORE LOG2 STOP JUMPDEST POP TIMESTAMP DUP3 GT ISZERO PUSH2 0x49D JUMP JUMPDEST PUSH4 0x3F2E0A87 PUSH1 0xE2 SHL PUSH1 0x0 MSTORE PUSH1 0x4 PUSH1 0x0 REVERT JUMPDEST PUSH1 0x5 SWAP2 POP EQ ISZERO DUP7 PUSH2 0x48F JUMP JUMPDEST PUSH4 0x4E487B71 PUSH1 0xE0 SHL PUSH1 0x0 MSTORE PUSH1 0x21 PUSH1 0x4 MSTORE PUSH1 0x24 PUSH1 0x0 REVERT JUMPDEST PUSH4 0x836F21D PUSH1 0xE2 SHL PUSH1 0x0 MSTORE PUSH1 0x4 PUSH1 0x0 REVERT JUMPDEST PUSH4 0xC0A85631 PUSH1 0xE0 SHL PUSH1 0x0 MSTORE PUSH1 0x4 PUSH1 0x0 REVERT JUMPDEST CALLVALUE PUSH2 0x291 JUMPI PUSH1 0x40 CALLDATASIZE PUSH1 0x3 NOT ADD SLT PUSH2 0x291 JUMPI PUSH2 0x593 PUSH2 0x2911 JUMP JUMPDEST POP PUSH1 0x0 SLOAD PUSH1 0x1 PUSH1 0x1 PUSH1 0xA0 SHL SUB AND CALLER DUP2 SWAP1 SUB PUSH2 0x280 JUMPI PUSH1 0x2 SLOAD PUSH1 0x40 MLOAD PUSH4 0xA9059CBB PUSH1 0xE0 SHL DUP2 MSTORE PUSH1 0x1 PUSH1 0x1 PUSH1 0xA0 SHL SUB SWAP3 DUP4 AND PUSH1 0x4 DUP3 ADD MSTORE PUSH1 0x24 DUP1 CALLDATALOAD SWAP1 DUP3 ADD MSTORE SWAP2 PUSH1 0x20 SWAP2 DUP4 SWAP2 PUSH1 0x44 SWAP2 DUP4 SWAP2 PUSH1 0x0 SWAP2 PUSH1 0x8 SHR AND GAS CALL DUP1 ISZERO PUSH2 0x61A JUMPI PUSH2 0x5F0 JUMPI STOP JUMPDEST PUSH2 0x611 SWAP1 PUSH1 0x20 RETURNDATASIZE PUSH1 0x20 GT PUSH2 0x613 JUMPI JUMPDEST PUSH2 0x609 DUP2 DUP4 PUSH2 0x27E8 JUMP JUMPDEST DUP2 ADD SWAP1 PUSH2 0x2BA2 JUMP JUMPDEST STOP JUMPDEST POP RETURNDATASIZE PUSH2 0x5FF JUMP JUMPDEST PUSH1 0x40 MLOAD RETURNDATASIZE PUSH1 0x0 DUP3 RETURNDATACOPY RETURNDATASIZE SWAP1 REVERT JUMPDEST CALLVALUE PUSH2 0x291 JUMPI PUSH1 0x20 CALLDATASIZE PUSH1 0x3 NOT ADD SLT PUSH2 0x291 JUMPI PUSH1 0x1 PUSH1 0x1 PUSH1 0xA0 SHL SUB PUSH2 0x647 PUSH2 0x2911 JUMP JUMPDEST AND PUSH1 0x0 MSTORE PUSH1 0x8 PUSH1 0x20 MSTORE PUSH1 0x40 PUSH1 0x0 KECCAK256 PUSH1 0x40 MLOAD SWAP1 DUP2 PUSH1 0x20 DUP3 SLOAD SWAP2 DUP3 DUP2 MSTORE ADD SWAP2 PUSH1 0x0 MSTORE PUSH1 0x20 PUSH1 0x0 KECCAK256 SWAP1 PUSH1 0x0 JUMPDEST DUP2 DUP2 LT PUSH2 0x697 JUMPI PUSH2 0x693 DUP6 PUSH2 0x687 DUP2 DUP8 SUB DUP3 PUSH2 0x27E8 JUMP JUMPDEST PUSH1 0x40 MLOAD SWAP2 DUP3 SWAP2 DUP3 PUSH2 0x2984 JUMP JUMPDEST SUB SWAP1 RETURN JUMPDEST DUP3 SLOAD DUP5 MSTORE PUSH1 0x20 SWAP1 SWAP4 ADD SWAP3 PUSH1 0x1 SWAP3 DUP4 ADD SWAP3 ADD PUSH2 0x670 JUMP JUMPDEST CALLVALUE PUSH2 0x291 JUMPI PUSH1 0x40 CALLDATASIZE PUSH1 0x3 NOT ADD SLT PUSH2 0x291 JUMPI PUSH2 0x693 PUSH2 0x687 PUSH1 0x24 CALLDATALOAD PUSH1 0x4 CALLDATALOAD PUSH2 0x2DBB JUMP JUMPDEST CALLVALUE PUSH2 0x291 JUMPI PUSH1 0x40 CALLDATASIZE PUSH1 0x3 NOT ADD SLT PUSH2 0x291 JUMPI PUSH2 0x6E8 PUSH2 0x2911 JUMP JUMPDEST PUSH1 0x1 PUSH1 0x1 PUSH1 0xA0 SHL SUB AND PUSH1 0x0 SWAP1 DUP2 MSTORE PUSH1 0x8 PUSH1 0x20 MSTORE PUSH1 0x40 SWAP1 KECCAK256 DUP1 SLOAD PUSH1 0x24 CALLDATALOAD SWAP2 SWAP1 DUP3 LT ISZERO PUSH2 0x291 JUMPI PUSH1 0x20 SWAP2 PUSH2 0x719 SWAP2 PUSH2 0x29EF JUMP JUMPDEST SWAP1 SLOAD SWAP1 PUSH1 0x3 SHL SHR PUSH1 0x40 MLOAD SWAP1 DUP2 MSTORE RETURN JUMPDEST CALLVALUE PUSH2 0x291 JUMPI PUSH1 0x20 CALLDATASIZE PUSH1 0x3 NOT ADD SLT PUSH2 0x291 JUMPI PUSH1 0x4 CALLDATALOAD PUSH1 0x0 MSTORE PUSH1 0xD PUSH1 0x20 MSTORE PUSH1 0x20 PUSH1 0x40 PUSH1 0x0 KECCAK256 SLOAD PUSH1 0x40 MLOAD SWAP1 DUP2 MSTORE RETURN JUMPDEST CALLVALUE PUSH2 0x291 JUMPI PUSH1 0x80 CALLDATASIZE PUSH1 0x3 NOT ADD SLT PUSH2 0x291 JUMPI PUSH1 0x4 CALLDATALOAD PUSH1 0x24 CALLDATALOAD PUSH1 0x1 PUSH1 0x1 PUSH1 0x40 SHL SUB DUP2 GT PUSH2 0x291 JUMPI PUSH2 0x787 SWAP1 CALLDATASIZE SWAP1 PUSH1 0x4 ADD PUSH2 0x2927 JUMP JUMPDEST PUSH1 0x0 SWAP3 SWAP2 SWAP3 POP PUSH1 0x64 CALLDATALOAD SWAP1 PUSH1 0x1 PUSH1 0x1 PUSH1 0x40 SHL SUB DUP3 AND DUP1 SWAP3 SUB PUSH2 0x291 JUMPI PUSH1 0xFF PUSH1 0x0 SLOAD PUSH1 0xA0 SHR AND PUSH2 0x3F7 JUMPI PUSH1 0x1 PUSH1 0xB SLOAD SUB PUSH2 0x3E6 JUMPI PUSH1 0x2 PUSH1 0xB SSTORE PUSH1 0x1 PUSH1 0x1 PUSH1 0x40 SHL SUB DUP2 GT PUSH2 0xAA8 JUMPI PUSH1 0x40 MLOAD SWAP4 PUSH2 0x7E4 PUSH1 0x1F DUP4 ADD PUSH1 0x1F NOT AND PUSH1 0x20 ADD DUP7 PUSH2 0x27E8 JUMP JUMPDEST DUP2 DUP6 MSTORE CALLDATASIZE DUP3 DUP3 ADD GT PUSH2 0x291 JUMPI DUP2 PUSH1 0x0 SWAP3 PUSH1 0x20 SWAP3 DUP4 DUP9 ADD CALLDATACOPY DUP6 ADD ADD MSTORE PUSH1 0x0 DUP3 DUP2 MSTORE PUSH1 0x7 PUSH1 0x20 MSTORE PUSH1 0x40 SWAP1 KECCAK256 DUP1 SLOAD PUSH1 0x1 PUSH1 0x1 PUSH1 0xA0 SHL SUB AND ISZERO PUSH2 0x569 JUMPI PUSH1 0xFF PUSH1 0x4 DUP3 ADD SLOAD AND PUSH1 0x6 DUP2 LT ISZERO PUSH2 0x542 JUMPI PUSH1 0x1 SUB PUSH2 0xB9C JUMPI PUSH1 0x6 ADD SLOAD PUSH1 0x40 SHR PUSH1 0x1 PUSH1 0x1 PUSH1 0x40 SHL SUB AND DUP1 ISZERO ISZERO SWAP1 DUP2 PUSH2 0xB91 JUMPI JUMPDEST POP PUSH2 0xB80 JUMPI PUSH1 0xC SLOAD PUSH1 0x1 PUSH1 0x1 PUSH1 0xA0 SHL SUB AND DUP1 PUSH2 0xAE4 JUMPI JUMPDEST POP PUSH1 0x0 DUP3 DUP2 MSTORE PUSH1 0xE PUSH1 0x20 SWAP1 DUP2 MSTORE PUSH1 0x40 DUP1 DUP4 KECCAK256 CALLER DUP5 MSTORE SWAP1 SWAP2 MSTORE SWAP1 KECCAK256 SLOAD PUSH2 0xAD4 JUMPI PUSH1 0x1 PUSH1 0x1 PUSH1 0x40 SHL SUB TIMESTAMP AND SWAP3 DUP3 PUSH1 0x0 MSTORE PUSH1 0xD PUSH1 0x20 MSTORE PUSH1 0x40 PUSH1 0x0 KECCAK256 SLOAD SWAP2 DUP4 PUSH1 0x0 MSTORE PUSH1 0xD PUSH1 0x20 MSTORE PUSH1 0x40 PUSH1 0x0 KECCAK256 PUSH1 0x40 MLOAD SWAP3 PUSH2 0x8BB DUP5 PUSH2 0x27CD JUMP JUMPDEST CALLER DUP5 MSTORE PUSH1 0x20 DUP5 ADD DUP8 DUP2 MSTORE PUSH1 0x40 DUP6 ADD SWAP2 DUP3 MSTORE PUSH1 0x60 DUP6 ADD SWAP3 PUSH1 0x44 CALLDATALOAD DUP5 MSTORE PUSH1 0x80 DUP7 ADD SWAP5 DUP6 MSTORE DUP1 SLOAD PUSH1 0x1 PUSH1 0x40 SHL DUP2 LT ISZERO PUSH2 0xAA8 JUMPI PUSH2 0x8FA SWAP2 PUSH1 0x1 DUP3 ADD DUP2 SSTORE PUSH2 0x2CCD JUMP JUMPDEST SWAP6 SWAP1 SWAP6 PUSH2 0xABE JUMPI MLOAD DUP6 SLOAD SWAP2 MLOAD PUSH1 0x1 PUSH1 0x1 PUSH1 0xE0 SHL SUB NOT SWAP1 SWAP3 AND PUSH1 0x1 PUSH1 0x1 PUSH1 0xA0 SHL SUB SWAP2 SWAP1 SWAP2 AND OR PUSH1 0xA0 SWAP2 SWAP1 SWAP2 SHL PUSH8 0xFFFFFFFFFFFFFFFF PUSH1 0xA0 SHL AND OR DUP5 SSTORE MLOAD DUP1 MLOAD PUSH1 0x1 DUP6 ADD SWAP2 PUSH1 0x1 PUSH1 0x1 PUSH1 0x40 SHL SUB DUP3 GT PUSH2 0xAA8 JUMPI PUSH2 0x95F DUP3 PUSH2 0x959 DUP6 SLOAD PUSH2 0x2793 JUMP JUMPDEST DUP6 PUSH2 0x2A1E JUMP JUMPDEST PUSH1 0x20 SWAP1 PUSH1 0x1F DUP4 GT PUSH1 0x1 EQ PUSH2 0xA33 JUMPI SWAP3 PUSH2 0x99F DUP4 PUSH1 0x1 PUSH1 0x1 PUSH1 0x40 SHL SUB SWAP8 SWAP5 PUSH1 0x3 SWAP8 SWAP5 DUP10 SWAP8 PUSH1 0x0 SWAP3 PUSH2 0xA28 JUMPI JUMPDEST POP POP DUP2 PUSH1 0x1 SHL SWAP2 PUSH1 0x0 NOT SWAP1 PUSH1 0x3 SHL SHR NOT AND OR SWAP1 JUMP JUMPDEST SWAP1 SSTORE JUMPDEST MLOAD PUSH1 0x2 DUP7 ADD SSTORE MLOAD AND SWAP3 ADD SWAP2 AND PUSH1 0x1 PUSH1 0x1 PUSH1 0x40 SHL SUB NOT DUP3 SLOAD AND OR SWAP1 SSTORE PUSH1 0x1 DUP2 ADD DUP1 SWAP2 GT PUSH2 0x3BF JUMPI PUSH1 0x0 DUP3 DUP2 MSTORE PUSH1 0xE PUSH1 0x20 SWAP1 DUP2 MSTORE PUSH1 0x40 DUP1 DUP4 KECCAK256 CALLER DUP5 MSTORE DUP3 MSTORE DUP1 DUP4 KECCAK256 SWAP4 SWAP1 SWAP4 SSTORE PUSH1 0xF SWAP1 MSTORE KECCAK256 PUSH2 0x9F5 SWAP1 DUP3 SWAP1 PUSH2 0x2BBA JUMP JUMPDEST PUSH1 0x40 MLOAD SWAP2 DUP3 MSTORE PUSH32 0xFFCE64A4A888E2ECA6ED6B5E083B220B5F57250B9C0C7BADB33012F1607A0847 PUSH1 0x20 CALLER SWAP4 LOG3 PUSH1 0x1 PUSH1 0xB SSTORE STOP JUMPDEST ADD MLOAD SWAP1 POP DUP14 DUP1 PUSH2 0x98A JUMP JUMPDEST SWAP1 PUSH1 0x1F NOT DUP4 AND SWAP2 DUP5 PUSH1 0x0 MSTORE DUP2 PUSH1 0x0 KECCAK256 SWAP3 PUSH1 0x0 JUMPDEST DUP2 DUP2 LT PUSH2 0xA90 JUMPI POP SWAP4 PUSH1 0x3 SWAP7 SWAP4 PUSH1 0x1 PUSH1 0x1 PUSH1 0x40 SHL SUB SWAP9 SWAP6 SWAP4 PUSH1 0x1 SWAP4 DUP4 DUP12 SWAP10 SWAP7 LT PUSH2 0xA78 JUMPI JUMPDEST POP POP POP DUP2 SHL ADD SWAP1 SSTORE PUSH2 0x9A2 JUMP JUMPDEST ADD MLOAD PUSH1 0x0 NOT DUP4 DUP11 SHL PUSH1 0xF8 AND SHR NOT AND SWAP1 SSTORE DUP13 DUP1 DUP1 PUSH2 0xA6B JUMP JUMPDEST SWAP3 SWAP4 PUSH1 0x20 PUSH1 0x1 DUP2 SWAP3 DUP8 DUP7 ADD MLOAD DUP2 SSTORE ADD SWAP6 ADD SWAP4 ADD PUSH2 0xA46 JUMP JUMPDEST PUSH4 0x4E487B71 PUSH1 0xE0 SHL PUSH1 0x0 MSTORE PUSH1 0x41 PUSH1 0x4 MSTORE PUSH1 0x24 PUSH1 0x0 REVERT JUMPDEST PUSH4 0x4E487B71 PUSH1 0xE0 SHL PUSH1 0x0 MSTORE PUSH1 0x0 PUSH1 0x4 MSTORE PUSH1 0x24 PUSH1 0x0 REVERT JUMPDEST PUSH3 0x540C03 PUSH1 0xE1 SHL PUSH1 0x0 MSTORE PUSH1 0x4 PUSH1 0x0 REVERT JUMPDEST PUSH1 0x20 PUSH1 0x24 SWAP2 PUSH1 0x40 MLOAD SWAP3 DUP4 DUP1 SWAP3 PUSH4 0xF5664E7 PUSH1 0xE3 SHL DUP3 MSTORE CALLER PUSH1 0x4 DUP4 ADD MSTORE GAS STATICCALL SWAP1 DUP2 ISZERO PUSH2 0x61A JUMPI PUSH1 0x0 SWAP2 PUSH2 0xB37 JUMPI JUMPDEST POP PUSH1 0x1 PUSH1 0x1 PUSH1 0xA0 SHL SUB AND ISZERO PUSH2 0xB26 JUMPI DUP4 PUSH2 0x866 JUMP JUMPDEST PUSH4 0x38323869 PUSH1 0xE1 SHL PUSH1 0x0 MSTORE PUSH1 0x4 PUSH1 0x0 REVERT JUMPDEST PUSH1 0x20 DUP2 RETURNDATASIZE PUSH1 0x20 GT PUSH2 0xB78 JUMPI JUMPDEST DUP2 PUSH2 0xB50 PUSH1 0x20 SWAP4 DUP4 PUSH2 0x27E8 JUMP JUMPDEST DUP2 ADD SUB SLT PUSH2 0xB74 JUMPI MLOAD SWAP1 PUSH1 0x1 PUSH1 0x1 PUSH1 0xA0 SHL SUB DUP3 AND DUP3 SUB PUSH2 0xB71 JUMPI POP DUP5 PUSH2 0xB11 JUMP JUMPDEST DUP1 REVERT JUMPDEST POP DUP1 REVERT JUMPDEST RETURNDATASIZE SWAP2 POP PUSH2 0xB43 JUMP JUMPDEST PUSH4 0xD0404F85 PUSH1 0xE0 SHL PUSH1 0x0 MSTORE PUSH1 0x4 PUSH1 0x0 REVERT JUMPDEST SWAP1 POP TIMESTAMP LT ISZERO DUP5 PUSH2 0x84F JUMP JUMPDEST PUSH4 0x1BB5F5B3 PUSH1 0xE3 SHL PUSH1 0x0 MSTORE PUSH1 0x4 PUSH1 0x0 REVERT JUMPDEST CALLVALUE PUSH2 0x291 JUMPI PUSH1 0x40 CALLDATASIZE PUSH1 0x3 NOT ADD SLT PUSH2 0x291 JUMPI PUSH1 0x4 CALLDATALOAD PUSH2 0xBC9 PUSH2 0x28FB JUMP JUMPDEST DUP2 PUSH1 0x0 MSTORE PUSH1 0xE PUSH1 0x20 MSTORE PUSH1 0x40 PUSH1 0x0 KECCAK256 SWAP1 PUSH1 0x1 DUP1 PUSH1 0xA0 SHL SUB AND PUSH1 0x0 MSTORE PUSH1 0x20 MSTORE PUSH1 0x40 PUSH1 0x0 KECCAK256 SLOAD SWAP1 DUP2 ISZERO PUSH2 0x3D5 JUMPI PUSH1 0x0 MSTORE PUSH1 0xD PUSH1 0x20 MSTORE PUSH1 0x40 PUSH1 0x0 KECCAK256 PUSH1 0x0 NOT DUP3 ADD SWAP2 DUP3 GT PUSH2 0x3BF JUMPI PUSH1 0x1 PUSH1 0x1 PUSH1 0x40 SHL SUB SWAP2 PUSH2 0xC1E SWAP2 PUSH2 0x2CCD JUMP JUMPDEST POP DUP1 SLOAD SWAP1 PUSH1 0x2 DUP2 ADD SLOAD SWAP1 PUSH2 0xC6A PUSH2 0xC3E PUSH1 0x1 DUP7 PUSH1 0x3 DUP6 ADD SLOAD AND SWAP4 ADD PUSH2 0x2809 JUMP JUMPDEST PUSH1 0x40 DUP1 MLOAD PUSH1 0x1 PUSH1 0x1 PUSH1 0xA0 SHL SUB DUP8 AND DUP2 MSTORE PUSH1 0xA0 SWAP7 DUP8 SHR SWAP1 SWAP8 AND PUSH1 0x20 DUP9 ADD MSTORE DUP7 ADD DUP6 SWAP1 MSTORE DUP6 SWAP5 DUP6 ADD SWAP1 PUSH2 0x28AD JUMP JUMPDEST SWAP2 PUSH1 0x60 DUP5 ADD MSTORE PUSH1 0x80 DUP4 ADD MSTORE SUB SWAP1 RETURN JUMPDEST CALLVALUE PUSH2 0x291 JUMPI PUSH1 0x60 CALLDATASIZE PUSH1 0x3 NOT ADD SLT PUSH2 0x291 JUMPI PUSH2 0xC9B PUSH1 0x44 CALLDATALOAD PUSH1 0x24 CALLDATALOAD PUSH1 0x4 CALLDATALOAD PUSH2 0x2CE9 JUMP JUMPDEST SWAP1 PUSH1 0x40 MLOAD SWAP2 DUP3 SWAP2 PUSH1 0x40 DUP4 ADD PUSH1 0x40 DUP5 MSTORE DUP2 MLOAD DUP1 SWAP2 MSTORE PUSH1 0x20 PUSH1 0x60 DUP6 ADD SWAP3 ADD SWAP1 PUSH1 0x0 JUMPDEST DUP2 DUP2 LT PUSH2 0xD0D JUMPI POP POP POP DUP3 DUP2 SUB PUSH1 0x20 DUP5 ADD MSTORE PUSH1 0x20 DUP1 DUP4 MLOAD SWAP3 DUP4 DUP2 MSTORE ADD SWAP3 ADD SWAP1 PUSH1 0x0 JUMPDEST DUP2 DUP2 LT PUSH2 0xCEB JUMPI POP POP POP SUB SWAP1 RETURN JUMPDEST DUP3 MLOAD PUSH1 0x1 PUSH1 0x1 PUSH1 0x40 SHL SUB AND DUP5 MSTORE DUP6 SWAP5 POP PUSH1 0x20 SWAP4 DUP5 ADD SWAP4 SWAP1 SWAP3 ADD SWAP2 PUSH1 0x1 ADD PUSH2 0xCDD JUMP JUMPDEST DUP3 MLOAD PUSH1 0x1 PUSH1 0x1 PUSH1 0xA0 SHL SUB AND DUP5 MSTORE DUP7 SWAP6 POP PUSH1 0x20 SWAP4 DUP5 ADD SWAP4 SWAP1 SWAP3 ADD SWAP2 PUSH1 0x1 ADD PUSH2 0xCBB JUMP JUMPDEST CALLVALUE PUSH2 0x291 JUMPI PUSH1 0x20 CALLDATASIZE PUSH1 0x3 NOT ADD SLT PUSH2 0x291 JUMPI PUSH1 0x4 CALLDATALOAD PUSH1 0xFF PUSH1 0x0 SLOAD PUSH1 0xA0 SHR AND PUSH2 0x3F7 JUMPI CALLER PUSH1 0x0 MSTORE PUSH1 0x1 PUSH1 0x20 MSTORE PUSH1 0xFF PUSH1 0x40 PUSH1 0x0 KECCAK256 SLOAD AND ISZERO PUSH2 0xE19 JUMPI PUSH1 0x0 DUP2 DUP2 MSTORE PUSH1 0x7 PUSH1 0x20 MSTORE PUSH1 0x40 SWAP1 KECCAK256 DUP1 SLOAD SWAP1 SWAP2 SWAP1 PUSH1 0x1 PUSH1 0x1 PUSH1 0xA0 SHL SUB AND ISZERO PUSH2 0x569 JUMPI PUSH1 0x4 DUP3 ADD SWAP1 PUSH1 0xFF DUP3 SLOAD AND PUSH1 0x6 DUP2 LT ISZERO PUSH2 0x542 JUMPI PUSH1 0x2 SUB PUSH2 0x3F7 JUMPI DUP2 SLOAD PUSH1 0xFF NOT AND PUSH1 0x4 OR DUP3 SSTORE PUSH1 0x6 DUP4 ADD DUP1 SLOAD PUSH8 0xFFFFFFFFFFFFFFFF NOT AND TIMESTAMP PUSH1 0x1 PUSH1 0x1 PUSH1 0x40 SHL SUB AND OR SWAP1 SSTORE DUP3 SLOAD SWAP2 SLOAD PUSH1 0x5 SWAP1 SWAP4 ADD SLOAD PUSH1 0x40 MLOAD PUSH1 0x1 PUSH1 0x1 PUSH1 0xA0 SHL SUB SWAP2 DUP3 AND DUP2 MSTORE PUSH1 0x8 SWAP5 SWAP1 SWAP5 SHR DUP2 AND SWAP4 SWAP3 AND SWAP2 PUSH32 0x74FD40586A68E670C4541FB4B871F9B85AF2929DBE255702E111E588FF4B2A8 SWAP1 PUSH1 0x20 SWAP1 LOG4 STOP JUMPDEST PUSH4 0x9270EBD PUSH1 0xE1 SHL PUSH1 0x0 MSTORE PUSH1 0x4 PUSH1 0x0 REVERT JUMPDEST CALLVALUE PUSH2 0x291 JUMPI PUSH1 0x20 CALLDATASIZE PUSH1 0x3 NOT ADD SLT PUSH2 0x291 JUMPI PUSH1 0x4 CALLDATALOAD PUSH1 0x0 SWAP1 DUP2 MSTORE PUSH1 0x7 PUSH1 0x20 MSTORE PUSH1 0x40 SWAP1 KECCAK256 DUP1 SLOAD PUSH1 0x1 PUSH1 0x1 PUSH1 0xA0 SHL SUB AND DUP1 ISZERO PUSH2 0x569 JUMPI PUSH1 0x3 DUP3 ADD SLOAD SWAP2 PUSH1 0x4 DUP2 ADD SLOAD PUSH1 0x5 DUP3 ADD SLOAD SWAP2 PUSH1 0x6 DUP2 ADD SLOAD PUSH1 0x7 DUP3 ADD SWAP4 PUSH1 0x8 DUP4 ADD SLOAD SWAP4 PUSH2 0xE96 PUSH1 0x2 PUSH2 0xE8F PUSH1 0x1 DUP8 ADD PUSH2 0x2809 JUMP JUMPDEST SWAP6 ADD PUSH2 0x2809 JUMP JUMPDEST PUSH1 0x40 MLOAD SWAP5 DUP6 PUSH1 0x20 DUP10 SLOAD SWAP2 DUP3 DUP2 MSTORE ADD SWAP1 DUP2 SWAP10 PUSH1 0x0 MSTORE PUSH1 0x20 PUSH1 0x0 KECCAK256 SWAP1 PUSH1 0x0 JUMPDEST DUP2 DUP2 LT PUSH2 0xF9A JUMPI POP POP POP SWAP3 PUSH2 0xF06 PUSH1 0x1 PUSH1 0x1 PUSH1 0x40 SHL SUB SWAP6 SWAP3 SWAP4 PUSH2 0xEF8 DUP8 SWAP6 PUSH2 0xEE1 DUP12 PUSH1 0x20 SWAP13 SWAP12 SWAP10 SUB DUP12 PUSH2 0x27E8 JUMP JUMPDEST PUSH2 0x180 PUSH1 0x40 MLOAD SWAP15 DUP16 SWAP1 DUP2 MSTORE DUP2 DUP14 DUP3 ADD MSTORE ADD SWAP1 PUSH2 0x28AD JUMP JUMPDEST DUP13 DUP2 SUB PUSH1 0x40 DUP15 ADD MSTORE SWAP1 PUSH2 0x28AD JUMP JUMPDEST SWAP11 PUSH1 0x60 DUP12 ADD MSTORE PUSH2 0xF1C PUSH1 0x80 DUP12 ADD PUSH1 0xFF DUP4 AND PUSH2 0x28EE JUMP JUMPDEST PUSH1 0x8 SHR PUSH1 0x1 PUSH1 0x1 PUSH1 0xA0 SHL SUB SWAP1 DUP2 AND PUSH1 0xA0 DUP12 DUP2 ADD SWAP2 SWAP1 SWAP2 MSTORE SWAP1 DUP3 AND PUSH1 0xC0 DUP12 ADD MSTORE SHR AND PUSH1 0xE0 DUP9 ADD MSTORE DUP1 DUP3 AND PUSH2 0x100 DUP9 ADD MSTORE PUSH1 0x40 SHR AND PUSH2 0x120 DUP7 ADD MSTORE DUP5 DUP7 SUB PUSH2 0x140 DUP7 ADD MSTORE MLOAD DUP1 DUP7 MSTORE PUSH1 0x0 SWAP6 SWAP2 SWAP1 SWAP2 ADD SWAP3 SWAP1 JUMPDEST DUP1 DUP7 LT PUSH2 0xF82 JUMPI POP POP DUP3 SWAP4 POP PUSH2 0x160 DUP4 ADD MSTORE SUB SWAP1 RETURN JUMPDEST SWAP1 SWAP3 PUSH1 0x20 DUP1 PUSH1 0x1 SWAP3 DUP7 MLOAD DUP2 MSTORE ADD SWAP5 ADD SWAP6 ADD SWAP5 SWAP1 PUSH2 0xF6C JUMP JUMPDEST DUP3 SLOAD DUP5 MSTORE PUSH1 0x20 SWAP1 SWAP4 ADD SWAP3 PUSH1 0x1 SWAP3 DUP4 ADD SWAP3 ADD PUSH2 0xEB3 JUMP JUMPDEST CALLVALUE PUSH2 0x291 JUMPI PUSH1 0x20 CALLDATASIZE PUSH1 0x3 NOT ADD SLT PUSH2 0x291 JUMPI PUSH1 0x1 PUSH1 0x1 PUSH1 0xA0 SHL SUB PUSH2 0xFD1 PUSH2 0x2911 JUMP JUMPDEST AND PUSH1 0x0 MSTORE PUSH1 0xF PUSH1 0x20 MSTORE PUSH1 0x40 PUSH1 0x0 KECCAK256 PUSH1 0x40 MLOAD SWAP1 DUP2 PUSH1 0x20 DUP3 SLOAD SWAP2 DUP3 DUP2 MSTORE ADD SWAP2 PUSH1 0x0 MSTORE PUSH1 0x20 PUSH1 0x0 KECCAK256 SWAP1 PUSH1 0x0 JUMPDEST DUP2 DUP2 LT PUSH2 0x1011 JUMPI PUSH2 0x693 DUP6 PUSH2 0x687 DUP2 DUP8 SUB DUP3 PUSH2 0x27E8 JUMP JUMPDEST DUP3 SLOAD DUP5 MSTORE PUSH1 0x20 SWAP1 SWAP4 ADD SWAP3 PUSH1 0x1 SWAP3 DUP4 ADD SWAP3 ADD PUSH2 0xFFA JUMP JUMPDEST CALLVALUE PUSH2 0x291 JUMPI PUSH1 0x60 CALLDATASIZE PUSH1 0x3 NOT ADD SLT PUSH2 0x291 JUMPI PUSH2 0x693 PUSH2 0x687 PUSH2 0x1046 PUSH2 0x2911 JUMP JUMPDEST PUSH1 0x44 CALLDATALOAD SWAP1 PUSH1 0x24 CALLDATALOAD SWAP1 PUSH2 0x2C0E JUMP JUMPDEST CALLVALUE PUSH2 0x291 JUMPI PUSH1 0x20 CALLDATASIZE PUSH1 0x3 NOT ADD SLT PUSH2 0x291 JUMPI PUSH2 0x106C PUSH2 0x2911 JUMP JUMPDEST PUSH1 0x0 SLOAD PUSH1 0x1 PUSH1 0x1 PUSH1 0xA0 SHL SUB AND CALLER SUB PUSH2 0x280 JUMPI PUSH1 0x1 PUSH1 0x1 PUSH1 0xA0 SHL SUB DUP2 AND SWAP1 DUP2 ISZERO PUSH2 0x26F JUMPI PUSH1 0x2 DUP1 SLOAD PUSH2 0x100 PUSH1 0x1 PUSH1 0xA8 SHL SUB NOT AND PUSH1 0x8 SWAP3 SWAP1 SWAP3 SHL PUSH2 0x100 PUSH1 0x1 PUSH1 0xA8 SHL SUB AND SWAP2 SWAP1 SWAP2 OR SWAP1 SSTORE PUSH32 0x4A13891118F8DBA1996F8EAC118F83BB98E645807A9B9CECF6BC6D014048E7E3 PUSH1 0x0 DUP1 LOG2 STOP JUMPDEST CALLVALUE PUSH2 0x291 JUMPI PUSH1 0x0 CALLDATASIZE PUSH1 0x3 NOT ADD SLT PUSH2 0x291 JUMPI PUSH1 0x20 PUSH1 0x6 SLOAD PUSH1 0x40 MLOAD SWAP1 DUP2 MSTORE RETURN JUMPDEST CALLVALUE PUSH2 0x291 JUMPI PUSH1 0x20 CALLDATASIZE PUSH1 0x3 NOT ADD SLT PUSH2 0x291 JUMPI PUSH1 0x1 PUSH1 0x1 PUSH1 0xA0 SHL SUB PUSH2 0x111A PUSH2 0x2911 JUMP JUMPDEST AND PUSH1 0x0 MSTORE PUSH1 0x4 PUSH1 0x20 MSTORE PUSH1 0x20 PUSH1 0xFF PUSH1 0x40 PUSH1 0x0 KECCAK256 SLOAD AND PUSH1 0x40 MLOAD SWAP1 ISZERO ISZERO DUP2 MSTORE RETURN JUMPDEST CALLVALUE PUSH2 0x291 JUMPI PUSH1 0x20 CALLDATASIZE PUSH1 0x3 NOT ADD SLT PUSH2 0x291 JUMPI PUSH1 0x4 CALLDATALOAD PUSH1 0xFF PUSH1 0x0 SLOAD PUSH1 0xA0 SHR AND PUSH2 0x3F7 JUMPI PUSH1 0x1 PUSH1 0xB SLOAD SUB PUSH2 0x3E6 JUMPI PUSH1 0x2 PUSH1 0xB SSTORE PUSH1 0x20 SWAP1 PUSH1 0x40 MLOAD PUSH2 0x1178 DUP4 DUP3 PUSH2 0x27E8 JUMP JUMPDEST PUSH1 0x0 DUP1 DUP3 MSTORE DUP3 DUP2 MSTORE PUSH1 0x7 DUP5 MSTORE PUSH1 0x40 SWAP1 KECCAK256 DUP1 SLOAD PUSH1 0x1 PUSH1 0x1 PUSH1 0xA0 SHL SUB AND ISZERO PUSH2 0x569 JUMPI PUSH1 0xFF PUSH1 0x4 DUP3 ADD SLOAD AND PUSH1 0x6 DUP2 LT ISZERO PUSH2 0x542 JUMPI PUSH1 0x1 SUB PUSH2 0xB9C JUMPI PUSH1 0x6 ADD SLOAD PUSH1 0x40 SHR PUSH1 0x1 PUSH1 0x1 PUSH1 0x40 SHL SUB AND DUP1 ISZERO ISZERO SWAP1 DUP2 PUSH2 0x14A0 JUMPI JUMPDEST POP PUSH2 0xB80 JUMPI PUSH1 0xC SLOAD PUSH1 0x1 PUSH1 0x1 PUSH1 0xA0 SHL SUB AND DUP4 DUP2 PUSH2 0x1421 JUMPI JUMPDEST POP POP PUSH1 0x0 DUP3 DUP2 MSTORE PUSH1 0xE DUP5 MSTORE PUSH1 0x40 DUP1 DUP3 KECCAK256 CALLER DUP4 MSTORE DUP6 MSTORE SWAP1 KECCAK256 SLOAD PUSH2 0xAD4 JUMPI PUSH1 0x1 PUSH1 0x1 PUSH1 0x40 SHL SUB TIMESTAMP AND SWAP3 DUP3 PUSH1 0x0 MSTORE PUSH1 0xD DUP2 MSTORE PUSH1 0x40 PUSH1 0x0 KECCAK256 SLOAD SWAP2 DUP4 PUSH1 0x0 MSTORE PUSH1 0xD DUP3 MSTORE PUSH1 0x40 PUSH1 0x0 KECCAK256 PUSH1 0x40 MLOAD SWAP2 PUSH2 0x1232 DUP4 PUSH2 0x27CD JUMP JUMPDEST CALLER DUP4 MSTORE DUP4 DUP4 ADD SWAP1 DUP8 DUP3 MSTORE PUSH1 0x40 DUP5 ADD SWAP1 DUP2 MSTORE PUSH1 0x60 DUP5 ADD SWAP2 PUSH1 0x0 DUP4 MSTORE PUSH1 0x80 DUP6 ADD SWAP4 PUSH1 0x0 DUP6 MSTORE DUP1 SLOAD PUSH1 0x1 PUSH1 0x40 SHL DUP2 LT ISZERO PUSH2 0xAA8 JUMPI PUSH2 0x1272 SWAP2 PUSH1 0x1 DUP3 ADD DUP2 SSTORE PUSH2 0x2CCD JUMP JUMPDEST SWAP6 SWAP1 SWAP6 PUSH2 0xABE JUMPI MLOAD DUP6 SLOAD SWAP2 MLOAD PUSH1 0x1 PUSH1 0x1 PUSH1 0xE0 SHL SUB NOT SWAP1 SWAP3 AND PUSH1 0x1 PUSH1 0x1 PUSH1 0xA0 SHL SUB SWAP2 SWAP1 SWAP2 AND OR PUSH1 0xA0 SWAP2 SWAP1 SWAP2 SHL PUSH8 0xFFFFFFFFFFFFFFFF PUSH1 0xA0 SHL AND OR DUP5 SSTORE MLOAD DUP1 MLOAD PUSH1 0x1 DUP6 ADD SWAP2 PUSH1 0x1 PUSH1 0x1 PUSH1 0x40 SHL SUB DUP3 GT PUSH2 0xAA8 JUMPI PUSH2 0x12D1 DUP3 PUSH2 0x959 DUP6 SLOAD PUSH2 0x2793 JUMP JUMPDEST DUP7 SWAP1 PUSH1 0x1F DUP4 GT PUSH1 0x1 EQ PUSH2 0x13AC JUMPI SWAP3 PUSH2 0x130F DUP4 PUSH1 0x1 PUSH1 0x1 PUSH1 0x40 SHL SUB SWAP8 SWAP5 PUSH1 0x3 SWAP8 SWAP5 DUP10 SWAP8 PUSH1 0x0 SWAP3 PUSH2 0x13A1 JUMPI POP POP DUP2 PUSH1 0x1 SHL SWAP2 PUSH1 0x0 NOT SWAP1 PUSH1 0x3 SHL SHR NOT AND OR SWAP1 JUMP JUMPDEST SWAP1 SSTORE JUMPDEST MLOAD PUSH1 0x2 DUP7 ADD SSTORE MLOAD AND SWAP3 ADD SWAP2 AND PUSH1 0x1 PUSH1 0x1 PUSH1 0x40 SHL SUB NOT DUP3 SLOAD AND OR SWAP1 SSTORE PUSH1 0x1 DUP3 ADD DUP1 SWAP3 GT PUSH2 0x3BF JUMPI PUSH32 0xFFCE64A4A888E2ECA6ED6B5E083B220B5F57250B9C0C7BADB33012F1607A0847 SWAP2 DUP4 PUSH1 0x0 MSTORE PUSH1 0xE DUP3 MSTORE PUSH1 0x40 PUSH1 0x0 KECCAK256 PUSH1 0x1 DUP1 PUSH1 0xA0 SHL SUB CALLER AND PUSH1 0x0 MSTORE DUP3 MSTORE PUSH1 0x40 PUSH1 0x0 KECCAK256 SSTORE CALLER PUSH1 0x0 MSTORE PUSH1 0xF DUP2 MSTORE PUSH2 0x1391 DUP4 PUSH1 0x40 PUSH1 0x0 KECCAK256 PUSH2 0x2BBA JUMP JUMPDEST PUSH1 0x40 MLOAD SWAP4 DUP5 MSTORE CALLER SWAP4 LOG3 PUSH1 0x1 PUSH1 0xB SSTORE STOP JUMPDEST ADD MLOAD SWAP1 POP DUP15 DUP1 PUSH2 0x98A JUMP JUMPDEST SWAP1 PUSH1 0x1F NOT DUP4 AND SWAP2 DUP5 PUSH1 0x0 MSTORE DUP9 PUSH1 0x0 KECCAK256 SWAP3 PUSH1 0x0 JUMPDEST DUP11 DUP3 DUP3 LT PUSH2 0x140B JUMPI POP POP SWAP4 PUSH1 0x3 SWAP7 SWAP4 PUSH1 0x1 PUSH1 0x1 PUSH1 0x40 SHL SUB SWAP9 SWAP6 SWAP4 PUSH1 0x1 SWAP4 DUP4 DUP12 SWAP10 SWAP7 LT PUSH2 0x13F3 JUMPI JUMPDEST POP POP POP DUP2 SHL ADD SWAP1 SSTORE PUSH2 0x1312 JUMP JUMPDEST ADD MLOAD PUSH1 0x0 NOT DUP4 DUP11 SHL PUSH1 0xF8 AND SHR NOT AND SWAP1 SSTORE DUP14 DUP1 DUP1 PUSH2 0x13E6 JUMP JUMPDEST PUSH1 0x1 DUP6 SWAP7 DUP3 SWAP4 SWAP7 DUP7 ADD MLOAD DUP2 SSTORE ADD SWAP6 ADD SWAP4 ADD PUSH2 0x13BF JUMP JUMPDEST PUSH1 0x40 MLOAD PUSH4 0xF5664E7 PUSH1 0xE3 SHL DUP2 MSTORE CALLER PUSH1 0x4 DUP3 ADD MSTORE SWAP2 DUP3 SWAP1 PUSH1 0x24 SWAP1 DUP3 SWAP1 GAS STATICCALL SWAP1 DUP2 ISZERO PUSH2 0x61A JUMPI PUSH1 0x0 SWAP2 PUSH2 0x1463 JUMPI JUMPDEST POP PUSH1 0x1 PUSH1 0x1 PUSH1 0xA0 SHL SUB AND ISZERO PUSH2 0xB26 JUMPI DUP4 DUP4 PUSH2 0x11E2 JUMP JUMPDEST DUP5 DUP2 DUP2 RETURNDATASIZE DUP4 GT PUSH2 0x1499 JUMPI JUMPDEST PUSH2 0x1478 DUP2 DUP4 PUSH2 0x27E8 JUMP JUMPDEST DUP2 ADD SUB SLT PUSH2 0xB74 JUMPI MLOAD SWAP1 PUSH1 0x1 PUSH1 0x1 PUSH1 0xA0 SHL SUB DUP3 AND DUP3 SUB PUSH2 0xB71 JUMPI POP DUP5 PUSH2 0x144D JUMP JUMPDEST POP RETURNDATASIZE PUSH2 0x146E JUMP JUMPDEST SWAP1 POP TIMESTAMP LT ISZERO DUP5 PUSH2 0x11CA JUMP JUMPDEST CALLVALUE PUSH2 0x291 JUMPI PUSH1 0x0 CALLDATASIZE PUSH1 0x3 NOT ADD SLT PUSH2 0x291 JUMPI PUSH1 0x0 SLOAD PUSH1 0x40 MLOAD PUSH1 0x1 PUSH1 0x1 PUSH1 0xA0 SHL SUB SWAP1 SWAP2 AND DUP2 MSTORE PUSH1 0x20 SWAP1 RETURN JUMPDEST CALLVALUE PUSH2 0x291 JUMPI PUSH1 0x20 CALLDATASIZE PUSH1 0x3 NOT ADD SLT PUSH2 0x291 JUMPI PUSH2 0x14ED PUSH2 0x2775 JUMP JUMPDEST PUSH1 0x0 SLOAD PUSH1 0x1 PUSH1 0x1 PUSH1 0xA0 SHL SUB AND CALLER SUB PUSH2 0x280 JUMPI PUSH1 0x20 PUSH32 0xE45EEBF975E8498157F15E4245144789293D518243944CE72E49418A0CFA5983 SWAP2 ISZERO ISZERO PUSH1 0xFF NOT PUSH1 0x5 SLOAD AND PUSH1 0xFF DUP3 AND OR PUSH1 0x5 SSTORE PUSH1 0x40 MLOAD SWAP1 DUP2 MSTORE LOG1 STOP JUMPDEST CALLVALUE PUSH2 0x291 JUMPI PUSH1 0x40 CALLDATASIZE PUSH1 0x3 NOT ADD SLT PUSH2 0x291 JUMPI PUSH1 0x4 CALLDATALOAD PUSH1 0xFF DUP2 AND DUP1 SWAP2 SUB PUSH2 0x291 JUMPI PUSH1 0x0 SLOAD PUSH1 0x24 CALLDATALOAD SWAP1 PUSH1 0x1 PUSH1 0x1 PUSH1 0xA0 SHL SUB AND CALLER SUB PUSH2 0x280 JUMPI PUSH1 0x2 DUP3 GT PUSH2 0x3F7 JUMPI PUSH1 0x3 DUP3 LT ISZERO PUSH2 0x542 JUMPI PUSH32 0x7D63308B92FA01D1151AB58553671D1B5ADE1D78731EB1B099F55AC41EA2464E SWAP2 PUSH1 0x40 SWAP2 DUP2 PUSH1 0xFF NOT PUSH1 0x2 SLOAD AND OR PUSH1 0x2 SSTORE DUP1 PUSH1 0x3 SSTORE DUP3 MLOAD SWAP2 DUP3 MSTORE PUSH1 0x20 DUP3 ADD MSTORE LOG1 STOP JUMPDEST CALLVALUE PUSH2 0x291 JUMPI PUSH1 0x40 CALLDATASIZE PUSH1 0x3 NOT ADD SLT PUSH2 0x291 JUMPI PUSH2 0x15DE PUSH2 0x2911 JUMP JUMPDEST PUSH2 0x15E6 PUSH2 0x2784 JUMP JUMPDEST PUSH1 0x0 SLOAD SWAP1 SWAP2 SWAP1 PUSH1 0x1 PUSH1 0x1 PUSH1 0xA0 SHL SUB AND CALLER SUB PUSH2 0x280 JUMPI PUSH1 0x1 PUSH1 0x1 PUSH1 0xA0 SHL SUB AND SWAP1 DUP2 ISZERO PUSH2 0x26F JUMPI PUSH1 0x20 PUSH32 0x24C9A6B477FFF74DB04905DBC966242385B5B163A4ABD979698A56EA761371DB SWAP2 DUP4 PUSH1 0x0 MSTORE PUSH1 0x1 DUP3 MSTORE PUSH2 0x1651 DUP2 PUSH1 0x40 PUSH1 0x0 KECCAK256 SWAP1 PUSH1 0xFF DUP1 NOT DUP4 SLOAD AND SWAP2 ISZERO ISZERO AND OR SWAP1 SSTORE JUMP JUMPDEST PUSH1 0x40 MLOAD SWAP1 ISZERO ISZERO DUP2 MSTORE LOG2 STOP JUMPDEST CALLVALUE PUSH2 0x291 JUMPI PUSH1 0xA0 CALLDATASIZE PUSH1 0x3 NOT ADD SLT PUSH2 0x291 JUMPI PUSH1 0x4 CALLDATALOAD PUSH1 0x1 PUSH1 0x1 PUSH1 0x40 SHL SUB DUP2 GT PUSH2 0x291 JUMPI PUSH2 0x168C SWAP1 CALLDATASIZE SWAP1 PUSH1 0x4 ADD PUSH2 0x2927 JUMP JUMPDEST SWAP1 PUSH1 0x24 CALLDATALOAD PUSH1 0x1 PUSH1 0x1 PUSH1 0x40 SHL SUB DUP2 GT PUSH2 0x291 JUMPI PUSH2 0x16AC SWAP1 CALLDATASIZE SWAP1 PUSH1 0x4 ADD PUSH2 0x2927 JUMP JUMPDEST SWAP1 SWAP3 PUSH1 0x44 CALLDATALOAD SWAP2 PUSH1 0x64 CALLDATALOAD PUSH1 0x1 PUSH1 0x1 PUSH1 0x40 SHL SUB DUP2 GT PUSH2 0x291 JUMPI PUSH2 0x16D1 SWAP1 CALLDATASIZE SWAP1 PUSH1 0x4 ADD PUSH2 0x2954 JUMP JUMPDEST SWAP5 SWAP1 SWAP4 PUSH1 0x84 CALLDATALOAD SWAP3 PUSH1 0x1 PUSH1 0x1 PUSH1 0x40 SHL SUB DUP5 AND SWAP6 DUP7 DUP6 SUB PUSH2 0x291 JUMPI PUSH1 0xFF PUSH1 0x0 SLOAD PUSH1 0xA0 SHR AND PUSH2 0x3F7 JUMPI PUSH1 0x1 PUSH1 0xB SLOAD SUB PUSH2 0x3E6 JUMPI PUSH1 0x2 PUSH1 0xB SSTORE PUSH1 0x2 SLOAD SWAP7 PUSH1 0xFF DUP9 AND SWAP8 PUSH1 0x3 DUP10 LT ISZERO PUSH2 0x542 JUMPI PUSH1 0x2 DUP10 EQ DUP1 PUSH2 0x1B85 JUMPI JUMPDEST PUSH2 0x1B74 JUMPI PUSH1 0x1 PUSH1 0x0 SWAP10 EQ PUSH2 0x1AC1 JUMPI JUMPDEST POP PUSH1 0x5 DUP10 GT PUSH2 0x1AB0 JUMPI DUP1 ISZERO ISZERO SWAP1 DUP2 PUSH2 0x1AA5 JUMPI JUMPDEST POP PUSH2 0x3F7 JUMPI PUSH1 0x6 SLOAD SWAP8 PUSH1 0x0 NOT DUP10 EQ PUSH2 0x3BF JUMPI PUSH1 0x1 DUP10 DUP2 ADD PUSH1 0x6 SSTORE PUSH1 0x0 DUP11 DUP2 MSTORE PUSH1 0x7 PUSH1 0x20 MSTORE PUSH1 0x40 SWAP1 KECCAK256 DUP1 SLOAD PUSH1 0x1 PUSH1 0x1 PUSH1 0xA0 SHL SUB NOT AND CALLER OR DUP2 SSTORE SWAP9 SWAP1 DUP10 ADD PUSH1 0x1 PUSH1 0x1 PUSH1 0x40 SHL SUB DUP10 GT PUSH2 0xAA8 JUMPI PUSH2 0x17A2 DUP10 PUSH2 0x179C DUP4 SLOAD PUSH2 0x2793 JUMP JUMPDEST DUP4 PUSH2 0x2A1E JUMP JUMPDEST PUSH1 0x0 DUP10 PUSH1 0x1F DUP2 GT PUSH1 0x1 EQ PUSH2 0x1A41 JUMPI DUP1 PUSH2 0x17D1 SWAP3 PUSH1 0x0 SWAP2 PUSH2 0x1A36 JUMPI JUMPDEST POP DUP2 PUSH1 0x1 SHL SWAP2 PUSH1 0x0 NOT SWAP1 PUSH1 0x3 SHL SHR NOT AND OR SWAP1 JUMP JUMPDEST SWAP1 SSTORE JUMPDEST PUSH1 0x2 DUP10 ADD PUSH1 0x1 PUSH1 0x1 PUSH1 0x40 SHL SUB DUP6 GT PUSH2 0xAA8 JUMPI PUSH2 0x17F4 DUP6 PUSH2 0x179C DUP4 SLOAD PUSH2 0x2793 JUMP JUMPDEST PUSH1 0x0 DUP6 DUP14 PUSH1 0x1F DUP3 GT PUSH1 0x1 EQ PUSH2 0x19CB JUMPI PUSH2 0x1824 SWAP3 PUSH1 0x0 SWAP2 DUP4 PUSH2 0x19C0 JUMPI POP POP DUP2 PUSH1 0x1 SHL SWAP2 PUSH1 0x0 NOT SWAP1 PUSH1 0x3 SHL SHR NOT AND OR SWAP1 JUMP JUMPDEST SWAP1 SSTORE JUMPDEST PUSH1 0x3 DUP10 ADD DUP6 SWAP1 SSTORE PUSH1 0x4 DUP10 ADD DUP1 SLOAD PUSH1 0xFF NOT AND PUSH1 0x1 OR SWAP1 SSTORE PUSH1 0x5 DUP10 ADD DUP1 SLOAD PUSH8 0xFFFFFFFFFFFFFFFF PUSH1 0xA0 SHL NOT AND TIMESTAMP PUSH1 0xA0 DUP2 SWAP1 SHL PUSH8 0xFFFFFFFFFFFFFFFF PUSH1 0xA0 SHL AND SWAP2 SWAP1 SWAP2 OR SWAP1 SWAP2 SSTORE PUSH1 0x6 DUP11 ADD DUP1 SLOAD PUSH8 0xFFFFFFFFFFFFFFFF PUSH1 0x40 SHL PUSH1 0x40 DUP12 SWAP1 SHL AND PUSH1 0x1 PUSH1 0x1 PUSH1 0x40 SHL SUB SWAP1 SWAP4 AND PUSH1 0x1 PUSH1 0x1 PUSH1 0x80 SHL SUB NOT SWAP1 SWAP2 AND OR SWAP2 SWAP1 SWAP2 OR SWAP1 SSTORE PUSH1 0x8 DUP10 ADD SSTORE DUP1 PUSH2 0x191C JUMPI JUMPDEST POP POP PUSH32 0x1E340188EF02ED93224295B9E0A03660720F89CFD12522E974A49B530E346E03 SWAP4 PUSH1 0x20 SWAP9 SWAP4 DUP9 SWAP7 SWAP4 PUSH2 0x190C SWAP4 CALLER PUSH1 0x0 MSTORE PUSH1 0x8 DUP13 MSTORE PUSH2 0x18F1 DUP10 PUSH1 0x40 PUSH1 0x0 KECCAK256 PUSH2 0x2BBA JUMP JUMPDEST PUSH2 0x18FA DUP10 PUSH2 0x2F71 JUMP JUMPDEST PUSH1 0x40 MLOAD SWAP7 DUP8 SWAP7 PUSH1 0x7 CALLER SWAP13 ADD SWAP5 DUP9 PUSH2 0x2B20 JUMP JUMPDEST SUB SWAP1 LOG3 PUSH1 0x1 PUSH1 0xB SSTORE PUSH1 0x40 MLOAD SWAP1 DUP2 MSTORE RETURN JUMPDEST PUSH2 0x1925 DUP2 PUSH2 0x2ABD JUMP JUMPDEST DUP1 MLOAD PUSH1 0x7 DUP11 ADD SWAP3 SWAP2 PUSH1 0x1 PUSH1 0x1 PUSH1 0x40 SHL SUB DUP3 GT PUSH2 0xAA8 JUMPI PUSH1 0x20 SWAP1 PUSH2 0x1948 DUP4 DUP7 PUSH2 0x2A63 JUMP JUMPDEST ADD DUP4 PUSH1 0x0 MSTORE PUSH1 0x20 PUSH1 0x0 KECCAK256 PUSH1 0x0 JUMPDEST DUP4 DUP2 LT PUSH2 0x19AC JUMPI POP POP POP POP PUSH1 0x0 JUMPDEST DUP2 DUP2 LT PUSH2 0x1971 JUMPI POP POP PUSH2 0x18AC JUMP JUMPDEST DUP1 PUSH2 0x197F PUSH1 0x1 SWAP3 DUP5 DUP8 PUSH2 0x2AEF JUMP JUMPDEST CALLDATALOAD PUSH2 0x19A4 PUSH2 0x198D DUP4 DUP8 PUSH2 0x29EF JUMP JUMPDEST DUP2 SWAP4 SWAP2 SLOAD SWAP1 PUSH1 0x3 SHL SWAP2 DUP3 SHL SWAP2 PUSH1 0x0 NOT SWAP1 SHL NOT AND OR SWAP1 JUMP JUMPDEST SWAP1 SSTORE ADD PUSH2 0x1963 JUMP JUMPDEST PUSH1 0x1 SWAP1 PUSH1 0x20 DUP5 MLOAD SWAP5 ADD SWAP4 DUP2 DUP5 ADD SSTORE ADD PUSH2 0x1955 JUMP JUMPDEST ADD CALLDATALOAD SWAP1 POP DUP16 DUP16 PUSH2 0x98A JUMP JUMPDEST DUP4 DUP4 MSTORE PUSH1 0x20 DUP4 KECCAK256 SWAP3 SWAP1 SWAP2 POP DUP8 PUSH1 0x1F NOT DUP2 AND DUP3 JUMPDEST DUP2 DUP2 LT PUSH2 0x1A16 JUMPI POP LT PUSH2 0x19FC JUMPI JUMPDEST POP POP POP PUSH1 0x1 DUP6 DUP2 SHL ADD SWAP1 SSTORE PUSH2 0x1827 JUMP JUMPDEST ADD CALLDATALOAD PUSH1 0x0 NOT PUSH1 0x3 DUP9 SWAP1 SHL PUSH1 0xF8 AND SHR NOT AND SWAP1 SSTORE DUP13 DUP13 DUP2 PUSH2 0x19EC JUMP JUMPDEST SWAP4 PUSH1 0x20 SWAP3 POP DUP4 SWAP6 DUP4 SWAP3 SWAP5 PUSH1 0x1 SWAP3 ADD CALLDATALOAD DUP2 SSTORE ADD SWAP5 ADD SWAP3 ADD DUP16 SWAP3 SWAP2 DUP10 SWAP2 PUSH2 0x19DE JUMP JUMPDEST SWAP1 POP DUP10 ADD CALLDATALOAD DUP16 PUSH2 0x17BD JUMP JUMPDEST POP DUP2 DUP2 MSTORE PUSH1 0x20 DUP2 KECCAK256 SWAP1 DUP11 PUSH1 0x1F NOT DUP2 AND DUP3 JUMPDEST DUP12 DUP3 DUP3 LT PUSH2 0x1A8B JUMPI POP POP LT PUSH2 0x1A71 JUMPI JUMPDEST POP POP PUSH1 0x1 DUP10 DUP2 SHL ADD SWAP1 SSTORE PUSH2 0x17D4 JUMP JUMPDEST DUP9 ADD CALLDATALOAD PUSH1 0x0 NOT PUSH1 0x3 DUP13 SWAP1 SHL PUSH1 0xF8 AND SHR NOT AND SWAP1 SSTORE DUP13 DUP1 PUSH2 0x1A62 JUMP JUMPDEST DUP5 ADD CALLDATALOAD DUP6 SSTORE PUSH1 0x1 SWAP1 SWAP5 ADD SWAP4 PUSH1 0x20 SWAP4 DUP5 ADD SWAP4 DUP15 SWAP4 POP ADD PUSH2 0x1A52 JUMP JUMPDEST SWAP1 POP TIMESTAMP LT ISZERO DUP11 PUSH2 0x1744 JUMP JUMPDEST PUSH4 0xEE39E855 PUSH1 0xE0 SHL PUSH1 0x0 MSTORE PUSH1 0x4 PUSH1 0x0 REVERT JUMPDEST PUSH1 0x8 SHR PUSH1 0x1 PUSH1 0x1 PUSH1 0xA0 SHL SUB AND DUP1 ISZERO PUSH2 0x1B65 JUMPI PUSH1 0x3 SLOAD SWAP9 DUP10 ISZERO PUSH2 0x1B56 JUMPI POP PUSH1 0x20 PUSH1 0x0 SWAP2 PUSH1 0x64 DUP12 PUSH1 0x40 MLOAD SWAP5 DUP6 SWAP4 DUP5 SWAP3 PUSH4 0x23B872DD PUSH1 0xE0 SHL DUP5 MSTORE CALLER PUSH1 0x4 DUP6 ADD MSTORE ADDRESS PUSH1 0x24 DUP6 ADD MSTORE PUSH1 0x44 DUP5 ADD MSTORE GAS CALL SWAP1 DUP2 ISZERO PUSH2 0x61A JUMPI PUSH1 0x0 SWAP2 PUSH2 0x1B37 JUMPI JUMPDEST POP ISZERO PUSH2 0x1B26 JUMPI DUP11 PUSH2 0x1731 JUMP JUMPDEST PUSH4 0x501C2AAF PUSH1 0xE0 SHL PUSH1 0x0 MSTORE PUSH1 0x4 PUSH1 0x0 REVERT JUMPDEST PUSH2 0x1B50 SWAP2 POP PUSH1 0x20 RETURNDATASIZE PUSH1 0x20 GT PUSH2 0x613 JUMPI PUSH2 0x609 DUP2 DUP4 PUSH2 0x27E8 JUMP JUMPDEST DUP12 PUSH2 0x1B1A JUMP JUMPDEST PUSH4 0x501C2AAF PUSH1 0xE0 SHL DUP2 MSTORE PUSH1 0x4 SWAP1 REVERT JUMPDEST PUSH4 0xE92EEBEF PUSH1 0xE0 SHL DUP10 MSTORE PUSH1 0x4 DUP10 REVERT JUMPDEST PUSH4 0x3B529A97 PUSH1 0xE1 SHL PUSH1 0x0 MSTORE PUSH1 0x4 PUSH1 0x0 REVERT JUMPDEST POP CALLER PUSH1 0x0 MSTORE PUSH1 0x4 PUSH1 0x20 MSTORE PUSH1 0xFF PUSH1 0x40 PUSH1 0x0 KECCAK256 SLOAD AND ISZERO PUSH2 0x1722 JUMP JUMPDEST CALLVALUE PUSH2 0x291 JUMPI PUSH1 0x0 CALLDATASIZE PUSH1 0x3 NOT ADD SLT PUSH2 0x291 JUMPI PUSH1 0x20 PUSH1 0xFF PUSH1 0x0 SLOAD PUSH1 0xA0 SHR AND PUSH1 0x40 MLOAD SWAP1 ISZERO ISZERO DUP2 MSTORE RETURN JUMPDEST CALLVALUE PUSH2 0x291 JUMPI PUSH1 0x0 CALLDATASIZE PUSH1 0x3 NOT ADD SLT PUSH2 0x291 JUMPI PUSH1 0xFF PUSH1 0x2 SLOAD AND PUSH1 0x40 MLOAD PUSH1 0x3 DUP3 LT ISZERO PUSH2 0x542 JUMPI PUSH1 0x20 SWAP2 DUP2 MSTORE RETURN JUMPDEST CALLVALUE PUSH2 0x291 JUMPI PUSH1 0x20 CALLDATASIZE PUSH1 0x3 NOT ADD SLT PUSH2 0x291 JUMPI PUSH2 0x1C07 PUSH2 0x2775 JUMP JUMPDEST PUSH1 0x0 SLOAD PUSH1 0x1 PUSH1 0x1 PUSH1 0xA0 SHL SUB AND CALLER SUB PUSH2 0x280 JUMPI PUSH1 0x20 PUSH32 0xFCEDAD5B627DD7E8AA295BC0AFEB76597C18047112FA7D4AC4D131F0E250A3C2 SWAP2 ISZERO ISZERO PUSH1 0xC SLOAD PUSH1 0xFF PUSH1 0xA0 SHL DUP3 PUSH1 0xA0 SHL AND SWAP1 PUSH1 0xFF PUSH1 0xA0 SHL NOT AND OR PUSH1 0xC SSTORE PUSH1 0x40 MLOAD SWAP1 DUP2 MSTORE LOG1 STOP JUMPDEST CALLVALUE PUSH2 0x291 JUMPI PUSH1 0x20 CALLDATASIZE PUSH1 0x3 NOT ADD SLT PUSH2 0x291 JUMPI PUSH1 0x1 PUSH1 0x1 PUSH1 0xA0 SHL SUB PUSH2 0x1C82 PUSH2 0x2911 JUMP JUMPDEST AND PUSH1 0x0 MSTORE PUSH1 0x8 PUSH1 0x20 MSTORE PUSH1 0x20 PUSH1 0x40 PUSH1 0x0 KECCAK256 SLOAD PUSH1 0x40 MLOAD SWAP1 DUP2 MSTORE RETURN JUMPDEST CALLVALUE PUSH2 0x291 JUMPI PUSH1 0x40 CALLDATASIZE PUSH1 0x3 NOT ADD SLT PUSH2 0x291 JUMPI PUSH2 0x1CB4 PUSH2 0x2911 JUMP JUMPDEST PUSH2 0x1CBC PUSH2 0x2784 JUMP JUMPDEST SWAP1 PUSH1 0x1 DUP1 PUSH1 0xA0 SHL SUB PUSH1 0x0 SLOAD AND CALLER EQ ISZERO DUP1 PUSH2 0x1D2B JUMPI JUMPDEST PUSH2 0xE19 JUMPI PUSH1 0x1 PUSH1 0x1 PUSH1 0xA0 SHL SUB AND SWAP1 DUP2 ISZERO PUSH2 0x26F JUMPI PUSH1 0x20 PUSH32 0x97B4072981AD9B2269406FF8CC9D70C26AFD27CEA67B75E2573B8710A5E880C9 SWAP2 DUP4 PUSH1 0x0 MSTORE PUSH1 0x4 DUP3 MSTORE PUSH2 0x1651 DUP2 PUSH1 0x40 PUSH1 0x0 KECCAK256 SWAP1 PUSH1 0xFF DUP1 NOT DUP4 SLOAD AND SWAP2 ISZERO ISZERO AND OR SWAP1 SSTORE JUMP JUMPDEST POP CALLER PUSH1 0x0 MSTORE PUSH1 0x1 PUSH1 0x20 MSTORE PUSH1 0xFF PUSH1 0x40 PUSH1 0x0 KECCAK256 SLOAD AND ISZERO PUSH2 0x1CD1 JUMP JUMPDEST CALLVALUE PUSH2 0x291 JUMPI PUSH1 0xC0 CALLDATASIZE PUSH1 0x3 NOT ADD SLT PUSH2 0x291 JUMPI PUSH1 0x4 CALLDATALOAD PUSH1 0x24 CALLDATALOAD PUSH1 0x1 PUSH1 0x1 PUSH1 0x40 SHL SUB DUP2 GT PUSH2 0x291 JUMPI PUSH2 0x1D77 SWAP1 CALLDATASIZE SWAP1 PUSH1 0x4 ADD PUSH2 0x2927 JUMP JUMPDEST PUSH1 0x44 SWAP3 SWAP2 SWAP3 CALLDATALOAD PUSH1 0x1 PUSH1 0x1 PUSH1 0x40 SHL SUB DUP2 GT PUSH2 0x291 JUMPI PUSH2 0x1D99 SWAP1 CALLDATASIZE SWAP1 PUSH1 0x4 ADD PUSH2 0x2927 JUMP JUMPDEST PUSH1 0x64 SWAP5 SWAP2 SWAP5 CALLDATALOAD PUSH1 0x84 CALLDATALOAD PUSH1 0x1 PUSH1 0x1 PUSH1 0x40 SHL SUB DUP2 GT PUSH2 0x291 JUMPI PUSH2 0x1DBE SWAP1 CALLDATASIZE SWAP1 PUSH1 0x4 ADD PUSH2 0x2954 JUMP JUMPDEST SWAP3 SWAP1 SWAP7 PUSH1 0xA4 CALLDATALOAD SWAP8 PUSH1 0x1 PUSH1 0x1 PUSH1 0x40 SHL SUB DUP10 AND DUP1 DUP11 SUB PUSH2 0x291 JUMPI PUSH1 0xFF PUSH1 0x0 SLOAD PUSH1 0xA0 SHR AND PUSH2 0x3F7 JUMPI PUSH1 0x0 DUP10 DUP2 MSTORE PUSH1 0x7 PUSH1 0x20 MSTORE PUSH1 0x40 SWAP1 KECCAK256 SLOAD PUSH1 0x1 PUSH1 0x1 PUSH1 0xA0 SHL SUB AND DUP1 ISZERO PUSH2 0x569 JUMPI CALLER SUB PUSH2 0x558 JUMPI DUP9 PUSH1 0x0 MSTORE PUSH1 0x7 PUSH1 0x20 MSTORE PUSH1 0x40 PUSH1 0x0 KECCAK256 SWAP1 PUSH1 0xFF PUSH1 0x4 DUP4 ADD SLOAD AND PUSH1 0x6 DUP2 LT ISZERO PUSH2 0x542 JUMPI PUSH1 0x1 SUB PUSH2 0xB9C JUMPI PUSH1 0x5 DUP8 GT PUSH2 0x1AB0 JUMPI DUP1 ISZERO ISZERO SWAP1 DUP2 PUSH2 0x210B JUMPI JUMPDEST POP PUSH2 0x3F7 JUMPI PUSH1 0x1 DUP2 ADD PUSH1 0x1 PUSH1 0x1 PUSH1 0x40 SHL SUB DUP10 GT PUSH2 0xAA8 JUMPI PUSH2 0x1E65 DUP10 PUSH2 0x179C DUP4 SLOAD PUSH2 0x2793 JUMP JUMPDEST PUSH1 0x0 DUP10 PUSH1 0x1F DUP2 GT PUSH1 0x1 EQ PUSH2 0x20A7 JUMPI DUP1 PUSH2 0x1E93 SWAP3 PUSH1 0x0 SWAP2 PUSH2 0x209C JUMPI POP DUP2 PUSH1 0x1 SHL SWAP2 PUSH1 0x0 NOT SWAP1 PUSH1 0x3 SHL SHR NOT AND OR SWAP1 JUMP JUMPDEST SWAP1 SSTORE JUMPDEST PUSH1 0x2 DUP2 ADD SWAP1 PUSH1 0x1 PUSH1 0x1 PUSH1 0x40 SHL SUB DUP6 GT PUSH2 0xAA8 JUMPI PUSH2 0x1EBD DUP6 PUSH2 0x1EB7 DUP5 SLOAD PUSH2 0x2793 JUMP JUMPDEST DUP5 PUSH2 0x2A1E JUMP JUMPDEST PUSH1 0x0 SWAP2 DUP6 PUSH1 0x1F DUP2 GT PUSH1 0x1 EQ PUSH2 0x2034 JUMPI DUP1 PUSH2 0x1EEF SWAP2 PUSH1 0x7 SWAP6 PUSH1 0x0 SWAP2 PUSH2 0x2029 JUMPI POP DUP2 PUSH1 0x1 SHL SWAP2 PUSH1 0x0 NOT SWAP1 PUSH1 0x3 SHL SHR NOT AND OR SWAP1 JUMP JUMPDEST SWAP1 SSTORE JUMPDEST PUSH1 0x3 DUP2 ADD DUP7 SWAP1 SSTORE PUSH1 0x6 DUP2 ADD DUP1 SLOAD PUSH1 0x1 PUSH1 0x1 PUSH1 0x80 SHL SUB NOT AND TIMESTAMP PUSH1 0x1 PUSH1 0x1 PUSH1 0x40 SHL SUB AND OR PUSH1 0x40 DUP14 SWAP1 SHL PUSH8 0xFFFFFFFFFFFFFFFF PUSH1 0x40 SHL AND OR SWAP1 SSTORE ADD SWAP5 DUP6 SLOAD PUSH1 0x0 DUP8 SSTORE DUP1 PUSH2 0x2002 JUMPI JUMPDEST POP DUP1 PUSH2 0x1F7B JUMPI JUMPDEST POP POP SWAP2 PUSH2 0x1F76 SWAP4 SWAP2 PUSH32 0xF9CDEB830204E1E6135FB07822AAAC23761D75003D5DDE41BCB94FA818C1B521 SWAP8 SWAP9 SWAP4 PUSH1 0x40 MLOAD SWAP8 DUP9 SWAP8 DUP9 PUSH2 0x2B20 JUMP JUMPDEST SUB SWAP1 LOG2 STOP JUMPDEST PUSH2 0x1F84 DUP2 PUSH2 0x2ABD JUMP JUMPDEST DUP1 MLOAD SWAP1 PUSH1 0x1 PUSH1 0x1 PUSH1 0x40 SHL SUB DUP3 GT PUSH2 0xAA8 JUMPI PUSH1 0x20 SWAP1 PUSH2 0x1FA2 DUP4 DUP11 PUSH2 0x2A63 JUMP JUMPDEST ADD DUP8 PUSH1 0x0 MSTORE PUSH1 0x20 PUSH1 0x0 KECCAK256 PUSH1 0x0 JUMPDEST DUP4 DUP2 LT PUSH2 0x1FEE JUMPI POP POP POP POP PUSH1 0x0 JUMPDEST DUP2 DUP2 LT PUSH2 0x1FCA JUMPI POP PUSH2 0x1F3E JUMP JUMPDEST DUP1 PUSH2 0x1FD8 PUSH1 0x1 SWAP3 DUP5 DUP7 PUSH2 0x2AEF JUMP JUMPDEST CALLDATALOAD PUSH2 0x1FE6 PUSH2 0x198D DUP4 DUP12 PUSH2 0x29EF JUMP JUMPDEST SWAP1 SSTORE ADD PUSH2 0x1FBD JUMP JUMPDEST PUSH1 0x1 SWAP1 PUSH1 0x20 DUP5 MLOAD SWAP5 ADD SWAP4 DUP2 DUP5 ADD SSTORE ADD PUSH2 0x1FAF JUMP JUMPDEST DUP7 PUSH1 0x0 MSTORE PUSH1 0x20 PUSH1 0x0 KECCAK256 SWAP1 DUP2 ADD SWAP1 JUMPDEST DUP2 DUP2 LT PUSH2 0x201D JUMPI POP PUSH2 0x1F37 JUMP JUMPDEST PUSH1 0x0 DUP2 SSTORE PUSH1 0x1 ADD PUSH2 0x2010 JUMP JUMPDEST SWAP1 POP DUP8 ADD CALLDATALOAD DUP16 PUSH2 0x17BD JUMP JUMPDEST POP DUP1 DUP4 MSTORE PUSH1 0x20 DUP4 KECCAK256 DUP4 DUP8 PUSH1 0x1F NOT DUP2 AND JUMPDEST DUP1 DUP8 LT PUSH2 0x207E JUMPI PUSH1 0x7 SWAP7 POP LT PUSH2 0x2064 JUMPI JUMPDEST POP POP PUSH1 0x1 DUP7 DUP2 SHL ADD SWAP1 SSTORE PUSH2 0x1EF2 JUMP JUMPDEST DUP7 ADD CALLDATALOAD PUSH1 0x0 NOT PUSH1 0x3 DUP10 SWAP1 SHL PUSH1 0xF8 AND SHR NOT AND SWAP1 SSTORE DUP13 DUP1 PUSH2 0x2055 JUMP JUMPDEST DUP9 DUP4 ADD CALLDATALOAD DUP5 SSTORE PUSH1 0x20 SWAP7 DUP8 ADD SWAP7 PUSH1 0x1 SWAP1 SWAP5 ADD SWAP4 SWAP1 SWAP3 ADD SWAP2 DUP10 SWAP2 POP PUSH2 0x2044 JUMP JUMPDEST SWAP1 POP DUP11 ADD CALLDATALOAD DUP15 PUSH2 0x17BD JUMP JUMPDEST POP DUP2 DUP2 MSTORE PUSH1 0x20 DUP2 KECCAK256 SWAP1 DUP11 PUSH1 0x1F NOT DUP2 AND DUP3 JUMPDEST DUP13 DUP3 DUP3 LT PUSH2 0x20F1 JUMPI POP POP LT PUSH2 0x20D7 JUMPI JUMPDEST POP POP PUSH1 0x1 DUP10 DUP2 SHL ADD SWAP1 SSTORE PUSH2 0x1E96 JUMP JUMPDEST DUP10 ADD CALLDATALOAD PUSH1 0x0 NOT PUSH1 0x3 DUP13 SWAP1 SHL PUSH1 0xF8 AND SHR NOT AND SWAP1 SSTORE DUP12 DUP1 PUSH2 0x20C8 JUMP JUMPDEST DUP5 ADD CALLDATALOAD DUP6 SSTORE PUSH1 0x1 SWAP1 SWAP5 ADD SWAP4 PUSH1 0x20 SWAP4 DUP5 ADD SWAP4 DUP15 SWAP4 POP ADD PUSH2 0x20B8 JUMP JUMPDEST SWAP1 POP TIMESTAMP LT ISZERO DUP12 PUSH2 0x1E40 JUMP JUMPDEST CALLVALUE PUSH2 0x291 JUMPI PUSH1 0x20 CALLDATASIZE PUSH1 0x3 NOT ADD SLT PUSH2 0x291 JUMPI PUSH2 0x212F PUSH2 0x2911 JUMP JUMPDEST PUSH1 0x0 SLOAD PUSH1 0x1 PUSH1 0x1 PUSH1 0xA0 SHL SUB AND CALLER SUB PUSH2 0x280 JUMPI PUSH1 0xC DUP1 SLOAD PUSH1 0x1 PUSH1 0x1 PUSH1 0xA0 SHL SUB NOT AND PUSH1 0x1 PUSH1 0x1 PUSH1 0xA0 SHL SUB SWAP3 SWAP1 SWAP3 AND SWAP2 DUP3 OR SWAP1 SSTORE PUSH32 0xF51D0449BF7D477688401EF33C6C6E576EC0A95E4E9337A86904163BB41C2673 PUSH1 0x0 DUP1 LOG2 STOP JUMPDEST CALLVALUE PUSH2 0x291 JUMPI PUSH1 0x20 CALLDATASIZE PUSH1 0x3 NOT ADD SLT PUSH2 0x291 JUMPI PUSH1 0x1 PUSH1 0x1 PUSH1 0xA0 SHL SUB PUSH2 0x21A8 PUSH2 0x2911 JUMP JUMPDEST AND PUSH1 0x0 MSTORE PUSH1 0x1 PUSH1 0x20 MSTORE PUSH1 0x20 PUSH1 0xFF PUSH1 0x40 PUSH1 0x0 KECCAK256 SLOAD AND PUSH1 0x40 MLOAD SWAP1 ISZERO ISZERO DUP2 MSTORE RETURN JUMPDEST CALLVALUE PUSH2 0x291 JUMPI PUSH1 0x0 CALLDATASIZE PUSH1 0x3 NOT ADD SLT PUSH2 0x291 JUMPI PUSH1 0x20 PUSH1 0xFF PUSH1 0x5 SLOAD AND PUSH1 0x40 MLOAD SWAP1 ISZERO ISZERO DUP2 MSTORE RETURN JUMPDEST CALLVALUE PUSH2 0x291 JUMPI PUSH1 0x0 CALLDATASIZE PUSH1 0x3 NOT ADD SLT PUSH2 0x291 JUMPI PUSH1 0x2 SLOAD PUSH1 0x40 MLOAD PUSH1 0x8 SWAP2 SWAP1 SWAP2 SHR PUSH1 0x1 PUSH1 0x1 PUSH1 0xA0 SHL SUB AND DUP2 MSTORE PUSH1 0x20 SWAP1 RETURN JUMPDEST CALLVALUE PUSH2 0x291 JUMPI PUSH1 0x20 CALLDATASIZE PUSH1 0x3 NOT ADD SLT PUSH2 0x291 JUMPI PUSH1 0x4 CALLDATALOAD PUSH1 0x0 DUP2 DUP2 MSTORE PUSH1 0x7 PUSH1 0x20 MSTORE PUSH1 0x40 SWAP1 KECCAK256 DUP1 SLOAD PUSH1 0x1 PUSH1 0x1 PUSH1 0xA0 SHL SUB AND ISZERO PUSH2 0x569 JUMPI PUSH1 0x4 DUP2 ADD SWAP1 PUSH1 0xFF DUP3 SLOAD AND PUSH1 0x6 DUP2 LT ISZERO PUSH2 0x542 JUMPI PUSH1 0x1 SUB PUSH2 0xB9C JUMPI PUSH1 0x6 ADD PUSH1 0x1 PUSH1 0x1 PUSH1 0x40 SHL SUB DUP2 SLOAD PUSH1 0x40 SHR AND DUP1 ISZERO SWAP1 DUP2 ISZERO PUSH2 0x22DE JUMPI JUMPDEST POP PUSH2 0xB80 JUMPI PUSH1 0x1 PUSH1 0x1 PUSH1 0x40 SHL SUB PUSH1 0x20 SWAP2 PUSH32 0xE77A20B7941129ACBB78A11F4D13C89EC2C9D5D36D21F0F7083E304C3E4338C9 SWAP4 PUSH1 0x5 PUSH1 0xFF NOT DUP3 SLOAD AND OR SWAP1 SSTORE DUP2 DUP1 TIMESTAMP AND AND DUP3 NOT DUP3 SLOAD AND OR DUP2 SSTORE PUSH2 0x22D0 DUP6 PUSH2 0x2E30 JUMP JUMPDEST SLOAD PUSH1 0x40 SHR AND PUSH1 0x40 MLOAD SWAP1 DUP2 MSTORE LOG2 STOP JUMPDEST SWAP1 POP TIMESTAMP LT DUP5 PUSH2 0x227D JUMP JUMPDEST CALLVALUE PUSH2 0x291 JUMPI PUSH1 0x0 CALLDATASIZE PUSH1 0x3 NOT ADD SLT PUSH2 0x291 JUMPI PUSH1 0x20 PUSH1 0x9 SLOAD PUSH1 0x40 MLOAD SWAP1 DUP2 MSTORE RETURN JUMPDEST CALLVALUE PUSH2 0x291 JUMPI PUSH1 0x60 CALLDATASIZE PUSH1 0x3 NOT ADD SLT PUSH2 0x291 JUMPI PUSH1 0x4 CALLDATALOAD PUSH2 0x2322 PUSH2 0x28FB JUMP JUMPDEST SWAP1 PUSH1 0x44 CALLDATALOAD PUSH1 0x1 PUSH1 0x1 PUSH1 0xA0 SHL SUB DUP2 AND SWAP2 SWAP1 DUP3 SWAP1 SUB PUSH2 0x291 JUMPI PUSH1 0xFF PUSH1 0x0 SLOAD PUSH1 0xA0 SHR AND PUSH2 0x3F7 JUMPI CALLER PUSH1 0x0 MSTORE PUSH1 0x1 PUSH1 0x20 MSTORE PUSH1 0xFF PUSH1 0x40 PUSH1 0x0 KECCAK256 SLOAD AND ISZERO PUSH2 0xE19 JUMPI PUSH1 0x1 PUSH1 0xB SLOAD SUB PUSH2 0x3E6 JUMPI PUSH1 0x2 PUSH1 0xB SSTORE PUSH1 0x1 PUSH1 0x1 PUSH1 0xA0 SHL SUB DUP4 AND SWAP3 DUP4 ISZERO DUP1 ISZERO PUSH2 0x24B0 JUMPI JUMPDEST PUSH2 0x26F JUMPI PUSH1 0x0 DUP3 DUP2 MSTORE PUSH1 0x7 PUSH1 0x20 MSTORE PUSH1 0x40 SWAP1 KECCAK256 DUP1 SLOAD PUSH1 0x1 PUSH1 0x1 PUSH1 0xA0 SHL SUB AND ISZERO PUSH2 0x569 JUMPI PUSH1 0x4 DUP2 ADD SWAP2 PUSH1 0xFF DUP4 SLOAD AND PUSH1 0x6 DUP2 LT ISZERO PUSH2 0x542 JUMPI PUSH1 0x1 SUB PUSH2 0x249F JUMPI PUSH1 0xFF PUSH1 0xC SLOAD PUSH1 0xA0 SHR AND PUSH2 0x2478 JUMPI JUMPDEST DUP3 SLOAD PUSH2 0x100 PUSH1 0x1 PUSH1 0xA8 SHL SUB NOT AND PUSH1 0x8 SWAP2 SWAP1 SWAP2 SHL PUSH2 0x100 PUSH1 0x1 PUSH1 0xA8 SHL SUB AND OR DUP3 SSTORE PUSH1 0x5 DUP2 ADD DUP1 SLOAD PUSH1 0x1 PUSH1 0x1 PUSH1 0xA0 SHL SUB NOT AND DUP6 OR SWAP1 SSTORE DUP2 SLOAD PUSH1 0xFF NOT AND PUSH1 0x2 OR SWAP1 SWAP2 SSTORE PUSH1 0x6 DUP2 ADD DUP1 SLOAD PUSH8 0xFFFFFFFFFFFFFFFF NOT AND TIMESTAMP PUSH1 0x1 PUSH1 0x1 PUSH1 0x40 SHL SUB AND OR SWAP1 SSTORE PUSH32 0x18D75305648A74597B581F82D18A431CB8A7DDBF7A7131CEB3E9E5343ED77089 SWAP1 PUSH1 0x20 SWAP1 PUSH2 0x2456 DUP5 PUSH2 0x2E30 JUMP JUMPDEST PUSH2 0x245F DUP2 PUSH2 0x2EF2 JUMP JUMPDEST SLOAD PUSH1 0x40 MLOAD SWAP5 DUP6 MSTORE PUSH1 0x1 PUSH1 0x1 PUSH1 0xA0 SHL SUB AND SWAP4 LOG4 PUSH1 0x1 PUSH1 0xB SSTORE STOP JUMPDEST SWAP1 DUP4 PUSH1 0x0 MSTORE PUSH1 0xE PUSH1 0x20 MSTORE PUSH1 0x40 PUSH1 0x0 KECCAK256 DUP7 PUSH1 0x0 MSTORE PUSH1 0x20 MSTORE PUSH1 0x40 PUSH1 0x0 KECCAK256 SLOAD ISZERO PUSH2 0x3D5 JUMPI SWAP1 PUSH2 0x23CA JUMP JUMPDEST PUSH4 0x5E78C1E5 PUSH1 0xE0 SHL PUSH1 0x0 MSTORE PUSH1 0x4 PUSH1 0x0 REVERT JUMPDEST POP DUP3 ISZERO PUSH2 0x2380 JUMP JUMPDEST CALLVALUE PUSH2 0x291 JUMPI PUSH1 0x0 CALLDATASIZE PUSH1 0x3 NOT ADD SLT PUSH2 0x291 JUMPI PUSH1 0x20 PUSH1 0xFF PUSH1 0xC SLOAD PUSH1 0xA0 SHR AND PUSH1 0x40 MLOAD SWAP1 ISZERO ISZERO DUP2 MSTORE RETURN JUMPDEST CALLVALUE PUSH2 0x291 JUMPI PUSH1 0x0 CALLDATASIZE PUSH1 0x3 NOT ADD SLT PUSH2 0x291 JUMPI PUSH1 0xC SLOAD PUSH1 0x40 MLOAD PUSH1 0x1 PUSH1 0x1 PUSH1 0xA0 SHL SUB SWAP1 SWAP2 AND DUP2 MSTORE PUSH1 0x20 SWAP1 RETURN JUMPDEST CALLVALUE PUSH2 0x291 JUMPI PUSH1 0x0 CALLDATASIZE PUSH1 0x3 NOT ADD SLT PUSH2 0x291 JUMPI PUSH1 0x20 PUSH1 0x3 SLOAD PUSH1 0x40 MLOAD SWAP1 DUP2 MSTORE RETURN JUMPDEST CALLVALUE PUSH2 0x291 JUMPI PUSH1 0x20 CALLDATASIZE PUSH1 0x3 NOT ADD SLT PUSH2 0x291 JUMPI PUSH1 0x4 CALLDATALOAD PUSH1 0xFF PUSH1 0x0 SLOAD PUSH1 0xA0 SHR AND PUSH2 0x3F7 JUMPI PUSH1 0x0 DUP2 DUP2 MSTORE PUSH1 0x7 PUSH1 0x20 MSTORE PUSH1 0x40 SWAP1 KECCAK256 SLOAD PUSH1 0x1 PUSH1 0x1 PUSH1 0xA0 SHL SUB AND DUP1 ISZERO PUSH2 0x569 JUMPI CALLER SUB PUSH2 0x558 JUMPI PUSH1 0x1 PUSH1 0xB SLOAD SUB PUSH2 0x3E6 JUMPI PUSH1 0x2 PUSH1 0xB SSTORE DUP1 PUSH1 0x0 MSTORE PUSH1 0x7 PUSH1 0x20 MSTORE PUSH1 0x40 PUSH1 0x0 KECCAK256 PUSH1 0x4 DUP2 ADD PUSH1 0xFF DUP2 SLOAD AND PUSH1 0x6 DUP2 LT ISZERO PUSH2 0x542 JUMPI PUSH1 0x1 SUB PUSH2 0xB9C JUMPI DUP1 SLOAD PUSH1 0xFF NOT AND PUSH1 0x3 OR SWAP1 SSTORE PUSH1 0x6 DUP2 ADD DUP1 SLOAD PUSH8 0xFFFFFFFFFFFFFFFF NOT AND TIMESTAMP PUSH1 0x1 PUSH1 0x1 PUSH1 0x40 SHL SUB AND OR SWAP1 SSTORE PUSH2 0x25D2 DUP3 PUSH2 0x2E30 JUMP JUMPDEST PUSH2 0x25DB DUP2 PUSH2 0x2EF2 JUMP JUMPDEST SLOAD PUSH1 0x1 PUSH1 0x1 PUSH1 0xA0 SHL SUB AND SWAP1 PUSH32 0xF1AB0865975DAD5C69AE8E4BAAF13114C875728AFA7CC86368534C22A631D0B0 PUSH1 0x0 DUP1 LOG3 PUSH1 0x1 PUSH1 0xB SSTORE STOP JUMPDEST CALLVALUE PUSH2 0x291 JUMPI PUSH1 0x20 CALLDATASIZE PUSH1 0x3 NOT ADD SLT PUSH2 0x291 JUMPI PUSH1 0x4 CALLDATALOAD PUSH1 0x0 SWAP1 DUP2 MSTORE PUSH1 0x7 PUSH1 0x20 MSTORE PUSH1 0x40 SWAP1 KECCAK256 DUP1 SLOAD PUSH1 0x1 PUSH1 0x1 PUSH1 0xA0 SHL SUB AND PUSH2 0x264B PUSH1 0x1 DUP4 ADD PUSH2 0x2809 JUMP JUMPDEST SWAP2 PUSH2 0x2658 PUSH1 0x2 DUP3 ADD PUSH2 0x2809 JUMP JUMPDEST PUSH1 0x1 PUSH1 0x1 PUSH1 0x40 SHL SUB PUSH1 0x3 DUP4 ADD SLOAD SWAP3 DUP2 PUSH1 0x4 DUP3 ADD SLOAD PUSH1 0x5 DUP4 ADD SLOAD SWAP1 PUSH2 0x26AC PUSH1 0x8 PUSH1 0x6 DUP7 ADD SLOAD SWAP6 ADD SLOAD SWAP7 PUSH2 0x269E PUSH1 0x40 MLOAD SWAP12 DUP13 SWAP12 DUP13 MSTORE PUSH2 0x160 PUSH1 0x20 DUP14 ADD MSTORE PUSH2 0x160 DUP13 ADD SWAP1 PUSH2 0x28AD JUMP JUMPDEST SWAP1 DUP11 DUP3 SUB PUSH1 0x40 DUP13 ADD MSTORE PUSH2 0x28AD JUMP JUMPDEST SWAP7 PUSH1 0x60 DUP10 ADD MSTORE PUSH2 0x26C2 PUSH1 0x80 DUP10 ADD PUSH1 0xFF DUP4 AND PUSH2 0x28EE JUMP JUMPDEST PUSH1 0x8 SHR PUSH1 0x1 PUSH1 0x1 PUSH1 0xA0 SHL SUB SWAP1 DUP2 AND PUSH1 0xA0 DUP10 DUP2 ADD SWAP2 SWAP1 SWAP2 MSTORE SWAP1 DUP3 AND PUSH1 0xC0 DUP10 ADD MSTORE SHR AND PUSH1 0xE0 DUP7 ADD MSTORE DUP1 DUP3 AND PUSH2 0x100 DUP7 ADD MSTORE PUSH1 0x40 SHR AND PUSH2 0x120 DUP5 ADD MSTORE PUSH2 0x140 DUP4 ADD MSTORE SUB SWAP1 RETURN JUMPDEST CALLVALUE PUSH2 0x291 JUMPI PUSH1 0x20 CALLDATASIZE PUSH1 0x3 NOT ADD SLT PUSH2 0x291 JUMPI PUSH2 0x271E PUSH2 0x2775 JUMP JUMPDEST PUSH1 0x0 SLOAD SWAP2 PUSH1 0x1 PUSH1 0x1 PUSH1 0xA0 SHL SUB DUP4 AND CALLER SUB PUSH2 0x280 JUMPI PUSH32 0x40DB37FF5C0BDC2C427FBB2078C8F24AFEA940ABAC0E3C23BB4EA3BF2DA2B212 SWAP3 PUSH1 0x20 SWAP3 ISZERO ISZERO SWAP1 PUSH1 0xFF PUSH1 0xA0 SHL DUP3 PUSH1 0xA0 SHL AND SWAP1 PUSH1 0xFF PUSH1 0xA0 SHL NOT AND OR PUSH1 0x0 SSTORE DUP2 MSTORE LOG1 STOP JUMPDEST PUSH1 0x4 CALLDATALOAD SWAP1 DUP2 ISZERO ISZERO DUP3 SUB PUSH2 0x291 JUMPI JUMP JUMPDEST PUSH1 0x24 CALLDATALOAD SWAP1 DUP2 ISZERO ISZERO DUP3 SUB PUSH2 0x291 JUMPI JUMP JUMPDEST SWAP1 PUSH1 0x1 DUP3 DUP2 SHR SWAP3 AND DUP1 ISZERO PUSH2 0x27C3 JUMPI JUMPDEST PUSH1 0x20 DUP4 LT EQ PUSH2 0x27AD JUMPI JUMP JUMPDEST PUSH4 0x4E487B71 PUSH1 0xE0 SHL PUSH1 0x0 MSTORE PUSH1 0x22 PUSH1 0x4 MSTORE PUSH1 0x24 PUSH1 0x0 REVERT JUMPDEST SWAP2 PUSH1 0x7F AND SWAP2 PUSH2 0x27A2 JUMP JUMPDEST PUSH1 0xA0 DUP2 ADD SWAP1 DUP2 LT PUSH1 0x1 PUSH1 0x1 PUSH1 0x40 SHL SUB DUP3 GT OR PUSH2 0xAA8 JUMPI PUSH1 0x40 MSTORE JUMP JUMPDEST SWAP1 PUSH1 0x1F DUP1 NOT SWAP2 ADD AND DUP2 ADD SWAP1 DUP2 LT PUSH1 0x1 PUSH1 0x1 PUSH1 0x40 SHL SUB DUP3 GT OR PUSH2 0xAA8 JUMPI PUSH1 0x40 MSTORE JUMP JUMPDEST SWAP1 PUSH1 0x40 MLOAD SWAP2 DUP3 PUSH1 0x0 DUP3 SLOAD SWAP3 PUSH2 0x281D DUP5 PUSH2 0x2793 JUMP JUMPDEST DUP1 DUP5 MSTORE SWAP4 PUSH1 0x1 DUP2 AND SWAP1 DUP2 ISZERO PUSH2 0x288B JUMPI POP PUSH1 0x1 EQ PUSH2 0x2844 JUMPI JUMPDEST POP PUSH2 0x2842 SWAP3 POP SUB DUP4 PUSH2 0x27E8 JUMP JUMPDEST JUMP JUMPDEST SWAP1 POP PUSH1 0x0 SWAP3 SWAP2 SWAP3 MSTORE PUSH1 0x20 PUSH1 0x0 KECCAK256 SWAP1 PUSH1 0x0 SWAP2 JUMPDEST DUP2 DUP4 LT PUSH2 0x286F JUMPI POP POP SWAP1 PUSH1 0x20 PUSH2 0x2842 SWAP3 DUP3 ADD ADD CODESIZE PUSH2 0x2835 JUMP JUMPDEST PUSH1 0x20 SWAP2 SWAP4 POP DUP1 PUSH1 0x1 SWAP2 SLOAD DUP4 DUP6 DUP10 ADD ADD MSTORE ADD SWAP2 ADD SWAP1 SWAP2 DUP5 SWAP3 PUSH2 0x2856 JUMP JUMPDEST SWAP1 POP PUSH1 0x20 SWAP3 POP PUSH2 0x2842 SWAP5 SWAP2 POP PUSH1 0xFF NOT AND DUP3 DUP5 ADD MSTORE ISZERO ISZERO PUSH1 0x5 SHL DUP3 ADD ADD CODESIZE PUSH2 0x2835 JUMP JUMPDEST SWAP2 SWAP1 DUP3 MLOAD SWAP3 DUP4 DUP3 MSTORE PUSH1 0x0 JUMPDEST DUP5 DUP2 LT PUSH2 0x28D9 JUMPI POP POP DUP3 PUSH1 0x0 PUSH1 0x20 DUP1 SWAP5 SWAP6 DUP5 ADD ADD MSTORE PUSH1 0x1F DUP1 NOT SWAP2 ADD AND ADD ADD SWAP1 JUMP JUMPDEST DUP1 PUSH1 0x20 DUP1 SWAP3 DUP5 ADD ADD MLOAD DUP3 DUP3 DUP7 ADD ADD MSTORE ADD PUSH2 0x28B8 JUMP JUMPDEST SWAP1 PUSH1 0x6 DUP3 LT ISZERO PUSH2 0x542 JUMPI MSTORE JUMP JUMPDEST PUSH1 0x24 CALLDATALOAD SWAP1 PUSH1 0x1 PUSH1 0x1 PUSH1 0xA0 SHL SUB DUP3 AND DUP3 SUB PUSH2 0x291 JUMPI JUMP JUMPDEST PUSH1 0x4 CALLDATALOAD SWAP1 PUSH1 0x1 PUSH1 0x1 PUSH1 0xA0 SHL SUB DUP3 AND DUP3 SUB PUSH2 0x291 JUMPI JUMP JUMPDEST SWAP2 DUP2 PUSH1 0x1F DUP5 ADD SLT ISZERO PUSH2 0x291 JUMPI DUP3 CALLDATALOAD SWAP2 PUSH1 0x1 PUSH1 0x1 PUSH1 0x40 SHL SUB DUP4 GT PUSH2 0x291 JUMPI PUSH1 0x20 DUP4 DUP2 DUP7 ADD SWAP6 ADD ADD GT PUSH2 0x291 JUMPI JUMP JUMPDEST SWAP2 DUP2 PUSH1 0x1F DUP5 ADD SLT ISZERO PUSH2 0x291 JUMPI DUP3 CALLDATALOAD SWAP2 PUSH1 0x1 PUSH1 0x1 PUSH1 0x40 SHL SUB DUP4 GT PUSH2 0x291 JUMPI PUSH1 0x20 DUP1 DUP6 ADD SWAP5 DUP5 PUSH1 0x5 SHL ADD ADD GT PUSH2 0x291 JUMPI JUMP JUMPDEST PUSH1 0x20 PUSH1 0x40 DUP2 DUP4 ADD SWAP3 DUP3 DUP2 MSTORE DUP5 MLOAD DUP1 SWAP5 MSTORE ADD SWAP3 ADD SWAP1 PUSH1 0x0 JUMPDEST DUP2 DUP2 LT PUSH2 0x29A8 JUMPI POP POP POP SWAP1 JUMP JUMPDEST DUP3 MLOAD DUP5 MSTORE PUSH1 0x20 SWAP4 DUP5 ADD SWAP4 SWAP1 SWAP3 ADD SWAP2 PUSH1 0x1 ADD PUSH2 0x299B JUMP JUMPDEST PUSH1 0x9 SLOAD DUP2 LT ISZERO PUSH2 0x29D9 JUMPI PUSH1 0x9 PUSH1 0x0 MSTORE PUSH1 0x20 PUSH1 0x0 KECCAK256 ADD SWAP1 PUSH1 0x0 SWAP1 JUMP JUMPDEST PUSH4 0x4E487B71 PUSH1 0xE0 SHL PUSH1 0x0 MSTORE PUSH1 0x32 PUSH1 0x4 MSTORE PUSH1 0x24 PUSH1 0x0 REVERT JUMPDEST DUP1 SLOAD DUP3 LT ISZERO PUSH2 0x29D9 JUMPI PUSH1 0x0 MSTORE PUSH1 0x20 PUSH1 0x0 KECCAK256 ADD SWAP1 PUSH1 0x0 SWAP1 JUMP JUMPDEST DUP2 DUP2 LT PUSH2 0x2A12 JUMPI POP POP JUMP JUMPDEST PUSH1 0x0 DUP2 SSTORE PUSH1 0x1 ADD PUSH2 0x2A07 JUMP JUMPDEST SWAP2 SWAP1 PUSH1 0x1F DUP2 GT PUSH2 0x2A2D JUMPI POP POP POP JUMP JUMPDEST PUSH2 0x2842 SWAP3 PUSH1 0x0 MSTORE PUSH1 0x20 PUSH1 0x0 KECCAK256 SWAP1 PUSH1 0x20 PUSH1 0x1F DUP5 ADD PUSH1 0x5 SHR DUP4 ADD SWAP4 LT PUSH2 0x2A59 JUMPI JUMPDEST PUSH1 0x1F ADD PUSH1 0x5 SHR ADD SWAP1 PUSH2 0x2A07 JUMP JUMPDEST SWAP1 SWAP2 POP DUP2 SWAP1 PUSH2 0x2A4C JUMP JUMPDEST SWAP1 PUSH1 0x1 PUSH1 0x40 SHL DUP2 GT PUSH2 0xAA8 JUMPI DUP2 SLOAD SWAP2 DUP2 DUP2 SSTORE DUP3 DUP3 LT PUSH2 0x2A81 JUMPI POP POP POP JUMP JUMPDEST PUSH1 0x0 MSTORE PUSH1 0x20 PUSH1 0x0 KECCAK256 SWAP2 DUP3 ADD SWAP2 ADD JUMPDEST DUP2 DUP2 LT PUSH2 0x2A9A JUMPI POP POP JUMP JUMPDEST PUSH1 0x0 DUP2 SSTORE PUSH1 0x1 ADD PUSH2 0x2A8F JUMP JUMPDEST PUSH1 0x1 PUSH1 0x1 PUSH1 0x40 SHL SUB DUP2 GT PUSH2 0xAA8 JUMPI PUSH1 0x5 SHL PUSH1 0x20 ADD SWAP1 JUMP JUMPDEST SWAP1 PUSH2 0x2AC7 DUP3 PUSH2 0x2AA6 JUMP JUMPDEST PUSH2 0x2AD4 PUSH1 0x40 MLOAD SWAP2 DUP3 PUSH2 0x27E8 JUMP JUMPDEST DUP3 DUP2 MSTORE DUP1 SWAP3 PUSH2 0x2AE5 PUSH1 0x1F NOT SWAP2 PUSH2 0x2AA6 JUMP JUMPDEST ADD SWAP1 PUSH1 0x20 CALLDATASIZE SWAP2 ADD CALLDATACOPY JUMP JUMPDEST SWAP2 SWAP1 DUP2 LT ISZERO PUSH2 0x29D9 JUMPI PUSH1 0x5 SHL ADD SWAP1 JUMP JUMPDEST SWAP1 DUP1 PUSH1 0x20 SWAP4 SWAP3 DUP2 DUP5 MSTORE DUP5 DUP5 ADD CALLDATACOPY PUSH1 0x0 DUP3 DUP3 ADD DUP5 ADD MSTORE PUSH1 0x1F ADD PUSH1 0x1F NOT AND ADD ADD SWAP1 JUMP JUMPDEST SWAP6 SWAP5 SWAP4 SWAP1 PUSH2 0x2B3E SWAP1 PUSH2 0x2B4C SWAP5 SWAP4 SWAP10 SWAP9 SWAP10 PUSH1 0xA0 DUP10 MSTORE PUSH1 0xA0 DUP10 ADD SWAP2 PUSH2 0x2AFF JUMP JUMPDEST SWAP2 DUP7 DUP4 SUB PUSH1 0x20 DUP9 ADD MSTORE PUSH2 0x2AFF JUMP JUMPDEST SWAP1 PUSH1 0x40 DUP5 ADD MSTORE DUP3 DUP2 SUB PUSH1 0x60 DUP5 ADD MSTORE PUSH1 0x20 DUP3 SLOAD SWAP2 DUP3 DUP2 MSTORE ADD SWAP2 PUSH1 0x0 MSTORE PUSH1 0x20 PUSH1 0x0 KECCAK256 SWAP1 PUSH1 0x0 JUMPDEST DUP2 DUP2 LT PUSH2 0x2B8C JUMPI POP POP POP PUSH1 0x1 PUSH1 0x1 PUSH1 0x40 SHL SUB PUSH1 0x80 SWAP2 SWAP5 AND SWAP2 ADD MSTORE JUMP JUMPDEST DUP3 SLOAD DUP5 MSTORE PUSH1 0x20 SWAP1 SWAP4 ADD SWAP3 PUSH1 0x1 SWAP3 DUP4 ADD SWAP3 ADD PUSH2 0x2B70 JUMP JUMPDEST SWAP1 DUP2 PUSH1 0x20 SWAP2 SUB SLT PUSH2 0x291 JUMPI MLOAD DUP1 ISZERO ISZERO DUP2 SUB PUSH2 0x291 JUMPI SWAP1 JUMP JUMPDEST DUP1 SLOAD SWAP1 PUSH1 0x1 PUSH1 0x40 SHL DUP3 LT ISZERO PUSH2 0xAA8 JUMPI DUP2 PUSH2 0x198D SWAP2 PUSH1 0x1 PUSH2 0x2BDC SWAP5 ADD DUP2 SSTORE PUSH2 0x29EF JUMP JUMPDEST SWAP1 SSTORE JUMP JUMPDEST SWAP2 SWAP1 DUP3 ADD DUP1 SWAP3 GT PUSH2 0x3BF JUMPI JUMP JUMPDEST SWAP2 SWAP1 DUP3 SUB SWAP2 DUP3 GT PUSH2 0x3BF JUMPI JUMP JUMPDEST DUP1 MLOAD DUP3 LT ISZERO PUSH2 0x29D9 JUMPI PUSH1 0x20 SWAP2 PUSH1 0x5 SHL ADD ADD SWAP1 JUMP JUMPDEST PUSH1 0x1 PUSH1 0x1 PUSH1 0xA0 SHL SUB AND PUSH1 0x0 DUP2 DUP2 MSTORE PUSH1 0x8 PUSH1 0x20 MSTORE PUSH1 0x40 SWAP1 KECCAK256 SLOAD SWAP1 SWAP4 SWAP3 DUP2 DUP4 LT ISZERO PUSH2 0x2CAE JUMPI PUSH2 0x2C4F SWAP2 PUSH2 0x2C40 DUP5 SWAP3 DUP4 PUSH2 0x2BE0 JUMP JUMPDEST SWAP1 DUP1 DUP3 GT PUSH2 0x2CA6 JUMPI JUMPDEST POP PUSH2 0x2BED JUMP JUMPDEST SWAP1 PUSH2 0x2C59 DUP3 PUSH2 0x2ABD JUMP JUMPDEST SWAP4 PUSH1 0x0 JUMPDEST DUP4 DUP2 LT PUSH2 0x2C6A JUMPI POP POP POP POP JUMP JUMPDEST PUSH1 0x1 SWAP1 DUP3 PUSH1 0x0 MSTORE PUSH1 0x8 PUSH1 0x20 MSTORE PUSH2 0x2C8E PUSH1 0x40 PUSH1 0x0 KECCAK256 PUSH2 0x2C88 DUP4 DUP8 PUSH2 0x2BE0 JUMP JUMPDEST SWAP1 PUSH2 0x29EF JUMP JUMPDEST SWAP1 SLOAD SWAP1 PUSH1 0x3 SHL SHR PUSH2 0x2C9F DUP3 DUP10 PUSH2 0x2BFA JUMP JUMPDEST MSTORE ADD PUSH2 0x2C5D JUMP JUMPDEST SWAP1 POP CODESIZE PUSH2 0x2C49 JUMP JUMPDEST POP POP POP SWAP1 POP PUSH1 0x40 MLOAD PUSH2 0x2CC1 PUSH1 0x20 DUP3 PUSH2 0x27E8 JUMP JUMPDEST PUSH1 0x0 DUP2 MSTORE PUSH1 0x0 CALLDATASIZE DUP2 CALLDATACOPY SWAP1 JUMP JUMPDEST DUP1 SLOAD DUP3 LT ISZERO PUSH2 0x29D9 JUMPI PUSH1 0x0 MSTORE PUSH1 0x20 PUSH1 0x0 KECCAK256 SWAP1 PUSH1 0x2 SHL ADD SWAP1 PUSH1 0x0 SWAP1 JUMP JUMPDEST SWAP3 SWAP1 SWAP2 SWAP3 PUSH1 0x0 MSTORE PUSH1 0xD PUSH1 0x20 MSTORE PUSH1 0x40 PUSH1 0x0 KECCAK256 SWAP3 DUP4 SLOAD SWAP1 DUP2 DUP5 LT ISZERO PUSH2 0x2D81 JUMPI PUSH2 0x2D15 SWAP2 PUSH2 0x2C40 DUP6 SWAP3 DUP4 PUSH2 0x2BE0 JUMP JUMPDEST PUSH2 0x2D1E DUP2 PUSH2 0x2ABD JUMP JUMPDEST SWAP4 PUSH2 0x2D28 DUP3 PUSH2 0x2ABD JUMP JUMPDEST SWAP4 PUSH1 0x0 JUMPDEST DUP4 DUP2 LT PUSH2 0x2D39 JUMPI POP POP POP POP JUMP JUMPDEST DUP1 PUSH1 0x1 PUSH1 0x1 PUSH1 0x40 SHL SUB PUSH2 0x2D57 PUSH2 0x2D51 PUSH1 0x1 SWAP5 DUP7 PUSH2 0x2BE0 JUMP JUMPDEST DUP7 PUSH2 0x2CCD JUMP JUMPDEST POP SLOAD DUP4 DUP1 PUSH1 0xA0 SHL SUB DUP2 AND PUSH2 0x2D6B DUP5 DUP13 PUSH2 0x2BFA JUMP JUMPDEST MSTORE PUSH1 0xA0 SHR AND PUSH2 0x2D7A DUP3 DUP10 PUSH2 0x2BFA JUMP JUMPDEST MSTORE ADD PUSH2 0x2D2C JUMP JUMPDEST POP POP SWAP2 POP POP PUSH1 0x20 SWAP1 PUSH1 0x40 MLOAD PUSH2 0x2D96 DUP4 DUP3 PUSH2 0x27E8 JUMP JUMPDEST PUSH1 0x0 DUP2 MSTORE PUSH1 0x0 CALLDATASIZE DUP2 CALLDATACOPY PUSH1 0x40 MLOAD SWAP3 PUSH2 0x2DAD DUP2 DUP6 PUSH2 0x27E8 JUMP JUMPDEST PUSH1 0x0 DUP5 MSTORE POP PUSH1 0x0 CALLDATASIZE DUP2 CALLDATACOPY SWAP2 SWAP1 JUMP JUMPDEST SWAP2 SWAP1 PUSH1 0x9 SLOAD SWAP1 DUP2 DUP5 LT ISZERO PUSH2 0x2E1E JUMPI PUSH2 0x2DD8 SWAP2 PUSH2 0x2C40 DUP6 SWAP3 DUP4 PUSH2 0x2BE0 JUMP JUMPDEST PUSH2 0x2DE1 DUP2 PUSH2 0x2ABD JUMP JUMPDEST SWAP3 PUSH1 0x0 JUMPDEST DUP3 DUP2 LT PUSH2 0x2DF1 JUMPI POP POP POP JUMP JUMPDEST DUP1 PUSH2 0x2E06 PUSH2 0x2E01 PUSH1 0x1 SWAP4 DUP6 PUSH2 0x2BE0 JUMP JUMPDEST PUSH2 0x29BE JUMP JUMPDEST SWAP1 SLOAD SWAP1 PUSH1 0x3 SHL SHR PUSH2 0x2E17 DUP3 DUP9 PUSH2 0x2BFA JUMP JUMPDEST MSTORE ADD PUSH2 0x2DE5 JUMP JUMPDEST POP POP SWAP1 POP PUSH1 0x40 MLOAD PUSH2 0x2CC1 PUSH1 0x20 DUP3 PUSH2 0x27E8 JUMP JUMPDEST DUP1 PUSH1 0x0 MSTORE PUSH1 0xA PUSH1 0x20 MSTORE PUSH1 0x40 PUSH1 0x0 KECCAK256 SLOAD SWAP1 DUP2 ISZERO PUSH2 0x2EEE JUMPI PUSH1 0x0 NOT DUP3 ADD SWAP2 DUP1 DUP4 GT PUSH2 0x3BF JUMPI PUSH1 0x9 SLOAD PUSH1 0x0 NOT DUP2 ADD SWAP4 SWAP1 DUP5 GT PUSH2 0x3BF JUMPI PUSH2 0x2E6C DUP5 PUSH2 0x29BE JUMP JUMPDEST SWAP1 SLOAD SWAP1 PUSH1 0x3 SHL SHR SWAP1 PUSH1 0x0 SWAP5 DUP2 SUB PUSH2 0x2ECB JUMPI JUMPDEST POP POP POP PUSH1 0x9 SLOAD DUP1 ISZERO PUSH2 0x2EB7 JUMPI PUSH1 0x0 NOT ADD PUSH2 0x2E97 DUP2 PUSH2 0x29BE JUMP JUMPDEST DUP2 SLOAD SWAP1 PUSH1 0x0 NOT SWAP1 PUSH1 0x3 SHL SHL NOT AND SWAP1 SSTORE PUSH1 0x9 SSTORE DUP2 MSTORE PUSH1 0xA PUSH1 0x20 MSTORE PUSH1 0x40 DUP2 KECCAK256 SSTORE JUMP JUMPDEST PUSH4 0x4E487B71 PUSH1 0xE0 SHL DUP4 MSTORE PUSH1 0x31 PUSH1 0x4 MSTORE PUSH1 0x24 DUP4 REVERT JUMPDEST PUSH2 0x2ED8 PUSH2 0x198D DUP4 SWAP3 PUSH2 0x29BE JUMP JUMPDEST SWAP1 SSTORE DUP4 MSTORE PUSH1 0xA PUSH1 0x20 MSTORE PUSH1 0x40 DUP4 KECCAK256 SSTORE CODESIZE DUP1 DUP1 PUSH2 0x2E7E JUMP JUMPDEST POP POP JUMP JUMPDEST PUSH1 0x8 DUP2 ADD DUP1 SLOAD DUP1 ISZERO PUSH2 0x2F6C JUMPI PUSH1 0x0 SWAP2 DUP3 SWAP1 SSTORE PUSH1 0x2 SLOAD SWAP3 SLOAD PUSH1 0x40 MLOAD PUSH4 0xA9059CBB PUSH1 0xE0 SHL DUP2 MSTORE PUSH1 0x1 PUSH1 0x1 PUSH1 0xA0 SHL SUB SWAP2 DUP3 AND PUSH1 0x4 DUP3 ADD MSTORE PUSH1 0x24 DUP2 ADD SWAP3 SWAP1 SWAP3 MSTORE SWAP1 SWAP3 PUSH1 0x20 SWAP3 DUP5 SWAP3 PUSH1 0x44 SWAP3 DUP5 SWAP3 SWAP2 PUSH1 0x8 SWAP2 SWAP1 SWAP2 SHR AND GAS CALL DUP1 ISZERO PUSH2 0x61A JUMPI PUSH2 0x2F51 JUMPI POP JUMP JUMPDEST PUSH2 0x2F69 SWAP1 PUSH1 0x20 RETURNDATASIZE PUSH1 0x20 GT PUSH2 0x613 JUMPI PUSH2 0x609 DUP2 DUP4 PUSH2 0x27E8 JUMP JUMPDEST POP JUMP JUMPDEST POP POP POP JUMP JUMPDEST DUP1 PUSH1 0x0 MSTORE PUSH1 0xA PUSH1 0x20 MSTORE PUSH1 0x40 PUSH1 0x0 KECCAK256 SLOAD PUSH2 0x2F69 JUMPI PUSH1 0x9 SLOAD PUSH1 0x1 PUSH1 0x40 SHL DUP2 LT ISZERO PUSH2 0xAA8 JUMPI PUSH2 0x2FA9 PUSH2 0x198D DUP3 PUSH1 0x1 DUP6 SWAP5 ADD PUSH1 0x9 SSTORE PUSH1 0x9 PUSH2 0x29EF JUMP JUMPDEST SWAP1 SSTORE PUSH1 0x9 SLOAD SWAP1 PUSH1 0x0 MSTORE PUSH1 0xA PUSH1 0x20 MSTORE PUSH1 0x40 PUSH1 0x0 KECCAK256 SSTORE JUMP INVALID LOG2 PUSH5 0x6970667358 0x22 SLT KECCAK256 CALLVALUE PUSH22 0x6DE096A7126BCB80CC697BB3C0C7FFCA5989D7D586C1 LOG1 PUSH10 0x8EE9795CD29464736F6C PUSH4 0x4300081C STOP CALLER "},"methodIdentifiers":{"allowedFactory(address)":"3f195993","antiSpamMode()":"5a4434ba","applyToJob(uint256)":"8e1a32d0","applyToJob(uint256,string,uint256,uint64)":"d2f57da4","cancelJob(uint256)":"1dffa3dc","closeExpired(uint256)":"36ae41ca","freelancerFactory()":"2ce606e3","gasSponsorshipEnabled()":"3e8a00c8","getApplicantCount(uint256)":"d566a411","getApplicantDetails(uint256,address)":"cbff7df5","getApplicants(uint256,uint256,uint256)":"c6b9caf4","getJob(uint256)":"bf22c457","getJobsAppliedBy(address)":"bec7a01d","isKYC(address)":"9944f518","jobs(uint256)":"180aedf3","jobsByClient(address)":"e5d53c3b","jobsByClientPaginated(address,uint256,uint256)":"beacece1","jobsOf(address,uint256)":"d8acddb1","markAsCompleted(uint256)":"c0a6026c","markAsHired(uint256,address,address)":"31209061","nextJobId()":"b0c2aa5e","openJobs(uint256,uint256)":"dc74fde5","owner()":"8da5cb5b","paused()":"5c975abb","postJob(string,string,uint256,bytes32[],uint64)":"6c79bce7","postingBondUSDC()":"1ec1de93","reopen(uint256,uint64)":"ee64a6aa","requireApplicationToHire()":"2edea1a0","setAllowedFactory(address,bool)":"72ffa84d","setAntiSpamMode(uint8,uint256)":"7c1ee3b5","setFreelancerFactory(address)":"455f16c5","setGasSponsorship(bool)":"7f8305e5","setKYC(address,bool)":"5123bacc","setPaused(bool)":"16c38b3c","setRequireApplicationToHire(bool)":"583e42a4","setUSDC(address)":"b3e089a2","sweepERC20(address,uint256)":"e6d11999","totalJobsOf(address)":"57147aca","totalOpenJobs()":"31dc20ff","transferOwnership(address)":"f2fde38b","updateJob(uint256,string,string,uint256,bytes32[],uint64)":"4f464cb0","usdc()":"3e413bee","withdrawApplication(uint256)":"f1d5314a"}}}}}