{
  "_format": "hh-sol-artifact-1",
  "contractName": "JobEscrow",
  "sourceName": "contracts/JobEscrow.sol",
  "abi": [
    {
      "inputs": [
        {
          "internalType": "address",
          "name": "_client",
          "type": "address"
        },
        {
          "internalType": "address",
          "name": "_freelancer",
          "type": "address"
        },
        {
          "internalType": "address",
          "name": "_usdt",
          "type": "address"
        },
        {
          "internalType": "uint256",
          "name": "_amountUSDT",
          "type": "uint256"
        },
        {
          "internalType": "string",
          "name": "",
          "type": "string"
        },
        {
          "internalType": "uint16",
          "name": "_platformFeeBps",
          "type": "uint16"
        },
        {
          "internalType": "address",
          "name": "_platformWallet",
          "type": "address"
        },
        {
          "internalType": "address",
          "name": "_resolver",
          "type": "address"
        },
        {
          "internalType": "address",
          "name": "_profile",
          "type": "address"
        },
        {
          "internalType": "uint64",
          "name": "_cancelWindowSecs",
          "type": "uint64"
        },
        {
          "internalType": "uint64",
          "name": "_deliveryDueTs",
          "type": "uint64"
        },
        {
          "internalType": "uint64",
          "name": "_reviewWindowSecs",
          "type": "uint64"
        },
        {
          "internalType": "uint8",
          "name": "_autoApproveDefaultRating",
          "type": "uint8"
        },
        {
          "internalType": "address",
          "name": "_escrowFactory",
          "type": "address"
        }
      ],
      "stateMutability": "nonpayable",
      "type": "constructor"
    },
    {
      "inputs": [],
      "name": "AlreadyDelivered",
      "type": "error"
    },
    {
      "inputs": [],
      "name": "AlreadyTerminal",
      "type": "error"
    },
    {
      "inputs": [],
      "name": "AmountZero",
      "type": "error"
    },
    {
      "inputs": [],
      "name": "BpsTooHigh",
      "type": "error"
    },
    {
      "inputs": [],
      "name": "CancelNotRequested",
      "type": "error"
    },
    {
      "inputs": [],
      "name": "CancelWindowOver",
      "type": "error"
    },
    {
      "inputs": [],
      "name": "Disputed",
      "type": "error"
    },
    {
      "inputs": [],
      "name": "InvalidCaller",
      "type": "error"
    },
    {
      "inputs": [],
      "name": "NoDispute",
      "type": "error"
    },
    {
      "inputs": [],
      "name": "NotClient",
      "type": "error"
    },
    {
      "inputs": [],
      "name": "NotDelivered",
      "type": "error"
    },
    {
      "inputs": [],
      "name": "NotFactory",
      "type": "error"
    },
    {
      "inputs": [],
      "name": "NotFreelancer",
      "type": "error"
    },
    {
      "inputs": [],
      "name": "NotResolver",
      "type": "error"
    },
    {
      "inputs": [],
      "name": "TooEarly",
      "type": "error"
    },
    {
      "inputs": [],
      "name": "ZeroAddress",
      "type": "error"
    },
    {
      "anonymous": false,
      "inputs": [
        {
          "indexed": true,
          "internalType": "bytes32",
          "name": "jobKey",
          "type": "bytes32"
        },
        {
          "indexed": false,
          "internalType": "uint8",
          "name": "rating",
          "type": "uint8"
        }
      ],
      "name": "AutoApproved",
      "type": "event"
    },
    {
      "anonymous": false,
      "inputs": [
        {
          "indexed": true,
          "internalType": "bytes32",
          "name": "jobKey",
          "type": "bytes32"
        }
      ],
      "name": "CancelAccepted",
      "type": "event"
    },
    {
      "anonymous": false,
      "inputs": [
        {
          "indexed": true,
          "internalType": "bytes32",
          "name": "jobKey",
          "type": "bytes32"
        },
        {
          "indexed": true,
          "internalType": "address",
          "name": "by",
          "type": "address"
        }
      ],
      "name": "CancelRequested",
      "type": "event"
    },
    {
      "anonymous": false,
      "inputs": [
        {
          "indexed": true,
          "internalType": "bytes32",
          "name": "jobKey",
          "type": "bytes32"
        },
        {
          "indexed": true,
          "internalType": "address",
          "name": "by",
          "type": "address"
        },
        {
          "indexed": false,
          "internalType": "string",
          "name": "reasonURI",
          "type": "string"
        }
      ],
      "name": "DisputeRaised",
      "type": "event"
    },
    {
      "anonymous": false,
      "inputs": [
        {
          "indexed": true,
          "internalType": "bytes32",
          "name": "jobKey",
          "type": "bytes32"
        },
        {
          "indexed": false,
          "internalType": "enum JobEscrow.Resolution",
          "name": "outcome",
          "type": "uint8"
        },
        {
          "indexed": false,
          "internalType": "uint16",
          "name": "payoutBps",
          "type": "uint16"
        },
        {
          "indexed": false,
          "internalType": "uint8",
          "name": "rating",
          "type": "uint8"
        },
        {
          "indexed": false,
          "internalType": "uint256",
          "name": "paidToFreelancer",
          "type": "uint256"
        },
        {
          "indexed": false,
          "internalType": "uint256",
          "name": "refundedToClient",
          "type": "uint256"
        }
      ],
      "name": "DisputeResolved",
      "type": "event"
    },
    {
      "anonymous": false,
      "inputs": [
        {
          "indexed": true,
          "internalType": "bytes32",
          "name": "jobKey",
          "type": "bytes32"
        },
        {
          "indexed": true,
          "internalType": "address",
          "name": "to",
          "type": "address"
        },
        {
          "indexed": false,
          "internalType": "uint256",
          "name": "netAmount",
          "type": "uint256"
        },
        {
          "indexed": false,
          "internalType": "uint256",
          "name": "feeAmount",
          "type": "uint256"
        }
      ],
      "name": "Paid",
      "type": "event"
    },
    {
      "anonymous": false,
      "inputs": [
        {
          "indexed": true,
          "internalType": "bytes32",
          "name": "jobKey",
          "type": "bytes32"
        },
        {
          "indexed": true,
          "internalType": "address",
          "name": "to",
          "type": "address"
        },
        {
          "indexed": false,
          "internalType": "uint256",
          "name": "amount",
          "type": "uint256"
        }
      ],
      "name": "Refunded",
      "type": "event"
    },
    {
      "anonymous": false,
      "inputs": [
        {
          "indexed": true,
          "internalType": "bytes32",
          "name": "jobKey",
          "type": "bytes32"
        },
        {
          "indexed": false,
          "internalType": "string",
          "name": "uri",
          "type": "string"
        }
      ],
      "name": "WorkDelivered",
      "type": "event"
    },
    {
      "inputs": [],
      "name": "acceptCancel",
      "outputs": [],
      "stateMutability": "nonpayable",
      "type": "function"
    },
    {
      "inputs": [],
      "name": "amount",
      "outputs": [
        {
          "internalType": "uint256",
          "name": "",
          "type": "uint256"
        }
      ],
      "stateMutability": "view",
      "type": "function"
    },
    {
      "inputs": [
        {
          "internalType": "uint8",
          "name": "rating",
          "type": "uint8"
        }
      ],
      "name": "approveWork",
      "outputs": [],
      "stateMutability": "nonpayable",
      "type": "function"
    },
    {
      "inputs": [],
      "name": "autoApproveDefaultRating",
      "outputs": [
        {
          "internalType": "uint8",
          "name": "",
          "type": "uint8"
        }
      ],
      "stateMutability": "view",
      "type": "function"
    },
    {
      "inputs": [],
      "name": "bootstrapRegisterJob",
      "outputs": [],
      "stateMutability": "nonpayable",
      "type": "function"
    },
    {
      "inputs": [],
      "name": "cancelRequestedBy",
      "outputs": [
        {
          "internalType": "address",
          "name": "",
          "type": "address"
        }
      ],
      "stateMutability": "view",
      "type": "function"
    },
    {
      "inputs": [],
      "name": "cancelWindowEnd",
      "outputs": [
        {
          "internalType": "uint64",
          "name": "",
          "type": "uint64"
        }
      ],
      "stateMutability": "view",
      "type": "function"
    },
    {
      "inputs": [],
      "name": "client",
      "outputs": [
        {
          "internalType": "address",
          "name": "",
          "type": "address"
        }
      ],
      "stateMutability": "view",
      "type": "function"
    },
    {
      "inputs": [],
      "name": "currentDeadlines",
      "outputs": [
        {
          "internalType": "uint64",
          "name": "cancelEnd",
          "type": "uint64"
        },
        {
          "internalType": "uint64",
          "name": "_deliveryDue",
          "type": "uint64"
        },
        {
          "internalType": "uint64",
          "name": "_reviewDue",
          "type": "uint64"
        }
      ],
      "stateMutability": "view",
      "type": "function"
    },
    {
      "inputs": [
        {
          "internalType": "string",
          "name": "deliveryURI",
          "type": "string"
        }
      ],
      "name": "deliverWork",
      "outputs": [],
      "stateMutability": "nonpayable",
      "type": "function"
    },
    {
      "inputs": [],
      "name": "delivered",
      "outputs": [
        {
          "internalType": "bool",
          "name": "",
          "type": "bool"
        }
      ],
      "stateMutability": "view",
      "type": "function"
    },
    {
      "inputs": [],
      "name": "deliveryDue",
      "outputs": [
        {
          "internalType": "uint64",
          "name": "",
          "type": "uint64"
        }
      ],
      "stateMutability": "view",
      "type": "function"
    },
    {
      "inputs": [
        {
          "internalType": "uint256",
          "name": "",
          "type": "uint256"
        }
      ],
      "name": "deliveryHistory",
      "outputs": [
        {
          "internalType": "string",
          "name": "uri",
          "type": "string"
        },
        {
          "internalType": "uint64",
          "name": "timestamp",
          "type": "uint64"
        },
        {
          "internalType": "uint256",
          "name": "version",
          "type": "uint256"
        }
      ],
      "stateMutability": "view",
      "type": "function"
    },
    {
      "inputs": [],
      "name": "disputed",
      "outputs": [
        {
          "internalType": "bool",
          "name": "",
          "type": "bool"
        }
      ],
      "stateMutability": "view",
      "type": "function"
    },
    {
      "inputs": [],
      "name": "escrowFactory",
      "outputs": [
        {
          "internalType": "address",
          "name": "",
          "type": "address"
        }
      ],
      "stateMutability": "view",
      "type": "function"
    },
    {
      "inputs": [],
      "name": "freelancer",
      "outputs": [
        {
          "internalType": "address",
          "name": "",
          "type": "address"
        }
      ],
      "stateMutability": "view",
      "type": "function"
    },
    {
      "inputs": [],
      "name": "getAllDeliveries",
      "outputs": [
        {
          "components": [
            {
              "internalType": "string",
              "name": "uri",
              "type": "string"
            },
            {
              "internalType": "uint64",
              "name": "timestamp",
              "type": "uint64"
            },
            {
              "internalType": "uint256",
              "name": "version",
              "type": "uint256"
            }
          ],
          "internalType": "struct JobEscrow.Delivery[]",
          "name": "",
          "type": "tuple[]"
        }
      ],
      "stateMutability": "view",
      "type": "function"
    },
    {
      "inputs": [
        {
          "internalType": "uint256",
          "name": "index",
          "type": "uint256"
        }
      ],
      "name": "getDelivery",
      "outputs": [
        {
          "internalType": "string",
          "name": "uri",
          "type": "string"
        },
        {
          "internalType": "uint64",
          "name": "timestamp",
          "type": "uint64"
        },
        {
          "internalType": "uint256",
          "name": "version",
          "type": "uint256"
        }
      ],
      "stateMutability": "view",
      "type": "function"
    },
    {
      "inputs": [],
      "name": "getDeliveryCount",
      "outputs": [
        {
          "internalType": "uint256",
          "name": "",
          "type": "uint256"
        }
      ],
      "stateMutability": "view",
      "type": "function"
    },
    {
      "inputs": [],
      "name": "jobKey",
      "outputs": [
        {
          "internalType": "bytes32",
          "name": "",
          "type": "bytes32"
        }
      ],
      "stateMutability": "view",
      "type": "function"
    },
    {
      "inputs": [],
      "name": "lastDeliveryURI",
      "outputs": [
        {
          "internalType": "string",
          "name": "",
          "type": "string"
        }
      ],
      "stateMutability": "view",
      "type": "function"
    },
    {
      "inputs": [],
      "name": "lastDisputeURI",
      "outputs": [
        {
          "internalType": "string",
          "name": "",
          "type": "string"
        }
      ],
      "stateMutability": "view",
      "type": "function"
    },
    {
      "inputs": [],
      "name": "platformFeeBps",
      "outputs": [
        {
          "internalType": "uint16",
          "name": "",
          "type": "uint16"
        }
      ],
      "stateMutability": "view",
      "type": "function"
    },
    {
      "inputs": [],
      "name": "platformWallet",
      "outputs": [
        {
          "internalType": "address",
          "name": "",
          "type": "address"
        }
      ],
      "stateMutability": "view",
      "type": "function"
    },
    {
      "inputs": [],
      "name": "processTimeouts",
      "outputs": [],
      "stateMutability": "nonpayable",
      "type": "function"
    },
    {
      "inputs": [],
      "name": "profile",
      "outputs": [
        {
          "internalType": "contract FreelancerProfile",
          "name": "",
          "type": "address"
        }
      ],
      "stateMutability": "view",
      "type": "function"
    },
    {
      "inputs": [
        {
          "internalType": "string",
          "name": "reasonURI",
          "type": "string"
        }
      ],
      "name": "raiseDispute",
      "outputs": [],
      "stateMutability": "nonpayable",
      "type": "function"
    },
    {
      "inputs": [],
      "name": "requestCancel",
      "outputs": [],
      "stateMutability": "nonpayable",
      "type": "function"
    },
    {
      "inputs": [
        {
          "internalType": "uint16",
          "name": "payoutBps",
          "type": "uint16"
        },
        {
          "internalType": "uint8",
          "name": "rating",
          "type": "uint8"
        },
        {
          "internalType": "enum JobEscrow.Resolution",
          "name": "outcome",
          "type": "uint8"
        }
      ],
      "name": "resolveDispute",
      "outputs": [],
      "stateMutability": "nonpayable",
      "type": "function"
    },
    {
      "inputs": [],
      "name": "resolver",
      "outputs": [
        {
          "internalType": "address",
          "name": "",
          "type": "address"
        }
      ],
      "stateMutability": "view",
      "type": "function"
    },
    {
      "inputs": [],
      "name": "reviewDue",
      "outputs": [
        {
          "internalType": "uint64",
          "name": "",
          "type": "uint64"
        }
      ],
      "stateMutability": "view",
      "type": "function"
    },
    {
      "inputs": [],
      "name": "reviewWindowSecs",
      "outputs": [
        {
          "internalType": "uint64",
          "name": "",
          "type": "uint64"
        }
      ],
      "stateMutability": "view",
      "type": "function"
    },
    {
      "inputs": [],
      "name": "terminal",
      "outputs": [
        {
          "internalType": "bool",
          "name": "",
          "type": "bool"
        }
      ],
      "stateMutability": "view",
      "type": "function"
    },
    {
      "inputs": [],
      "name": "usdt",
      "outputs": [
        {
          "internalType": "contract IERC20",
          "name": "",
          "type": "address"
        }
      ],
      "stateMutability": "view",
      "type": "function"
    }
  ],
  "bytecode": "0x610220806040523461045257612bd7803803809161001d8285610482565b833981016101c08282031261045257610035826104a5565b91610042602082016104a5565b9161004f604083016104a5565b60608301516080840151919290916001600160401b0381116104525784019080601f83011215610452578151916001600160401b03831161046c57604051916100a2601f8501601f191660200184610482565b838352602084830101116104525760005b838110610457575050600091016020015260a083015161ffff811695868203610452576100e260c086016104a5565b6100ee60e087016104a5565b6100fb61010088016104a5565b9161010961012089016104b9565b946101176101408a016104b9565b966101256101608b016104b9565b986101808b01519a60ff8c168c03610452576101a061014491016104a5565b60016000556001600160a01b0388169d9097908e158015610441575b8015610430575b801561041f575b801561040e575b80156103fd575b80156103ec575b6103db5783156103ca57612710106103b9576080528b60a05260018060a01b031660c05260e05261010052610120526101405260018060a01b0316610160526101805260018060401b031660018060401b0342160160018060401b0381116103a3576101a0526101c0526101e05261020052604051906020820192308452604083015260018060a01b0316606082015260608152610222608082610482565b51902060015560405161270990816104ce82396080518181816102f101528181610fb6015281816114b701528181611a9201528181611f0001526122e5015260a0518181816103ab01528181610c980152818161121601528181611b4e01528181612003015261254c015260c051818181611415015281816118580152818161220a01526123b2015260e05181610c3201526101005181818161147d0152818161194201526123fa01526101205181818161027b01528181611bc801526125c7015261014051818181611394015261157401526101605181818161058c01528181610beb0152818161105b0152818161128b0152818161197601528181611c0b01528181612257015261242f015261018051818181610a50015261125801526101a0518181816101c601528181610ae00152611fc601526101c0518181816101f20152818161024101528181611daf0152611de101526101e05181818161055c01528181610f440152611ebc015261020051818181610d190152611e0a0152f35b634e487b7160e01b600052601160045260246000fd5b63bbf4268d60e01b60005260046000fd5b6365e52d5160e11b60005260046000fd5b63d92e233d60e01b60005260046000fd5b506001600160a01b03891615610183565b506001600160a01b0388161561017c565b506001600160a01b03871615610175565b506001600160a01b0386161561016e565b506001600160a01b03831615610167565b506001600160a01b038e1615610160565b600080fd5b806020809284010151828286010152016100b3565b634e487b7160e01b600052604160045260246000fd5b601f909101601f19168101906001600160401b0382119082101761046c57604052565b51906001600160a01b038216820361045257565b51906001600160401b03821682036104525756fe608080604052600436101561001357600080fd5b600090813560e01c90816304f3bcec14611560575080630695c46c1461153a578063080077a1146114e6578063109e94cf146114a157806322dcd13e146114625780632f051579146114445780632f48ab7d146113ff57806346a863481461135757806350ec709a14611245578063725a3b4b14610f965780637a1a464d14610f68578063805bf08a14610f245780638f00c31514610dd2578063916b2f8814610d3d57806392c67f7214610cff578063a0d3db8514610cc7578063a37dda2c14610c82578063a9ac153e14610c55578063aa8c217c14610c1a578063ab60636c14610bd5578063b533a0cc14610bab578063b6d98b6b14610b04578063b781085314610ac0578063bbdfbfba14610a9d578063bcc9c5ed14610a7f578063bdd1daaa14610a3a578063dd3d06b914610957578063de8211a9146108c8578063e4933ae31461039a578063f0df51b3146102d0578063f45d0bc6146102aa578063fa2af9da14610265578063fd35b33c146102215763fe5d97c81461019757600080fd5b3461021e578060031936011261021e5760606001600160401b0360025460181c16604051906001600160401b037f00000000000000000000000000000000000000000000000000000000000000001682526001600160401b037f00000000000000000000000000000000000000000000000000000000000000001660208301526040820152f35b80fd5b503461021e578060031936011261021e5760206040516001600160401b037f0000000000000000000000000000000000000000000000000000000000000000168152f35b503461021e578060031936011261021e576040517f00000000000000000000000000000000000000000000000000000000000000006001600160a01b03168152602090f35b503461021e578060031936011261021e57602060ff60025460101c166040519015158152f35b503461021e57602036600319011261021e5760043560ff81168103610396577f00000000000000000000000000000000000000000000000000000000000000006001600160a01b031633036103875760ff60025460101c166103785761033461204d565b60025460ff8116156103695760081c60ff1661035a5761035390612381565b6001815580f35b6362e6201d60e01b8252600482fd5b630a8bd16f60e21b8352600483fd5b63e405a43360e01b8252600482fd5b630836f21d60e21b8252600482fd5b5080fd5b503461021e576103a936611774565b7f00000000000000000000000000000000000000000000000000000000000000006001600160a01b031633036108b95760025460ff8160101c166108aa5760ff81161561089a575b506001600160401b0381116108865761040b6003546115d8565b601f8111610823575b508281601f81116001146107a15780610442928691610796575b508160011b916000199060031b1c19161790565b6003555b6001600160401b03421660055460018101808211610782576040519161046b83611612565b61047485612032565b6104816040519182611643565b858152368688011161077e5785876020830137876020878301015283526020830190848252604084019280845268010000000000000000821015610756576005556104cb906115a3565b93909361076a57518051906001600160401b038211610756576104ee85546115d8565b601f8111610711575b50602090601f83116001146106aa57918061052d9260029695948c9261069f575b50508160011b916000199060031b1c19161790565b84555b6001600160401b03600185019151166001600160401b0319825416179055519101556001600160401b037f000000000000000000000000000000000000000000000000000000000000000016908161064e575b505060015483907f00000000000000000000000000000000000000000000000000000000000000006001600160a01b031690813b1561063f57829160448392604051948593849263a3abe42560e01b84526004840152600360248401525af180156106435761062a575b50507f6d9e4862e2f82a8175fcd785cd60c14f21a2af0c38c0b7682015fece7158e7e4906001549261062460405192839283611d27565b0390a280f35b8161063491611643565b61063f5782386105ed565b8280fd5b6040513d84823e3d90fd5b016001600160401b03811161068b576affffffffffffffff0000006002549160181b16906affffffffffffffff0000001916176002553880610583565b634e487b7160e01b84526011600452602484fd5b015190503880610518565b858a52818a209190601f1984168b5b8181106106f95750916001939185600298979694106106e0575b505050811b018455610530565b015160001960f88460031b161c191690553880806106d3565b929360206001819287860151815501950193016106b9565b858a5260208a20601f840160051c8101916020851061074c575b601f0160051c01905b81811061074157506104f7565b8a8155600101610734565b909150819061072b565b634e487b7160e01b89526041600452602489fd5b634e487b7160e01b88526004889052602488fd5b8780fd5b634e487b7160e01b86526011600452602486fd5b90508401353861042e565b50600384527fc2575a0e9e593c00f959f8c92f12db2869c3395a3b0502d05e2516446f71f85b9082601f198116865b8181106108085750106107ee575b5050600181811b01600355610446565b830135600019600384901b60f8161c1916905538806107de565b868401358555600190940193602093840193869350016107d0565b600384527fc2575a0e9e593c00f959f8c92f12db2869c3395a3b0502d05e2516446f71f85b601f830160051c8101916020841061087c575b601f0160051c01905b8181106108715750610414565b848155600101610864565b909150819061085b565b634e487b7160e01b83526041600452602483fd5b60ff1916600117600255386103f1565b63e405a43360e01b8452600484fd5b633832386960e11b8352600483fd5b503461021e57602036600319011261021e57600435600554811015610922576108f0906115a3565b506001600160401b036001820154169061091e610911600283015492611664565b9160405193849384611749565b0390f35b60405162461bcd60e51b815260206004820152600d60248201526c092dcecc2d8d2c840d2dcc8caf609b1b6044820152606490fd5b503461021e578060031936011261021e5760405190806003549061097a826115d8565b8085529160018116908115610a1357506001146109b6575b61091e846109a281860382611643565b604051918291602083526020830190611708565b600381527fc2575a0e9e593c00f959f8c92f12db2869c3395a3b0502d05e2516446f71f85b939250905b8082106109f9575090915081016020016109a282610992565b9192600181602092548385880101520191019092916109e0565b60ff191660208087019190915292151560051b850190920192506109a29150839050610992565b503461021e578060031936011261021e576040517f00000000000000000000000000000000000000000000000000000000000000006001600160a01b03168152602090f35b503461021e578060031936011261021e576020600154604051908152f35b503461021e578060031936011261021e57602060ff600254166040519015158152f35b503461021e578060031936011261021e5760206040516001600160401b037f0000000000000000000000000000000000000000000000000000000000000000168152f35b503461021e578060031936011261021e57604051908060045490610b27826115d8565b8085529160018116908115610a135750600114610b4e5761091e846109a281860382611643565b600481527f8a35acfbc15ff81a39ae7d344fd709f28e8600b4aa8c65c6b64bfe7fe36bd19b939250905b808210610b91575090915081016020016109a282610992565b919260018160209254838588010152019101909291610b78565b503461021e578060031936011261021e5760206001600160401b0360025460181c16604051908152f35b503461021e578060031936011261021e576040517f00000000000000000000000000000000000000000000000000000000000000006001600160a01b03168152602090f35b503461021e578060031936011261021e5760206040517f00000000000000000000000000000000000000000000000000000000000000008152f35b503461021e578060031936011261021e5760025460405160589190911c6001600160a01b03168152602090f35b503461021e578060031936011261021e576040517f00000000000000000000000000000000000000000000000000000000000000006001600160a01b03168152602090f35b503461021e578060031936011261021e5760ff60025460101c16610cf057610ced611efd565b80f35b63e405a43360e01b8152600490fd5b503461021e578060031936011261021e57602060405160ff7f0000000000000000000000000000000000000000000000000000000000000000168152f35b503461021e578060031936011261021e5760ff60025460101c16610cf057610d6361204d565b60025460581c6001600160a01b03168015610dc3573314610db457610d866121f2565b6001547f4897449f1b0ce6101a99ba5e17eea100dbfc65a5eb810060f708a392668bce978280a26001815580f35b6348f5c3ed60e01b8152600490fd5b6399fcd6df60e01b8252600482fd5b503461021e578060031936011261021e576005546001600160401b038111610f1057604051610e0760208360051b0182611643565b818152600583526020810191837f036b6384b5eca791c62761152d0c79bb0604c104a5fb6f4eb0703f3154bb3db0845b838310610ec957868587604051928392602084019060208552518091526040840160408260051b8601019392905b828210610e7457505050500390f35b919360019193955060208091603f19898203018552875190604080610ea28451606085526060850190611708565b936001600160401b0386820151168685015201519101529601920192018594939192610e65565b60036020600192604051610edc81611612565b610ee586611664565b81526001600160401b0385870154168382015260028601546040820152815201920192019190610e37565b634e487b7160e01b82526041600452602482fd5b503461021e578060031936011261021e5760206040516001600160401b037f0000000000000000000000000000000000000000000000000000000000000000168152f35b503461021e578060031936011261021e5760ff60025460101c16610cf057610f8e61204d565b610353611d4f565b503461021e57610fa536611774565b60025460ff8160101c166108aa57337f00000000000000000000000000000000000000000000000000000000000000006001600160a01b0316141580611212575b6112035760ff8160081c166111f45761ff001916610100176002556001600160401b0381116108865761101a6004546115d8565b601f8111611191575b508281601f811160011461110f578061105092869161079657508160011b916000199060031b1c19161790565b6004555b60015483907f00000000000000000000000000000000000000000000000000000000000000006001600160a01b031690813b1561063f57829160448392604051948593849263a3abe42560e01b84526004840152600560248401525af18015610643576110fa575b50507f49e53fd224357020766ce272815e8a15c300aace14a011cfcded9335798fbd0e6110f460015492604051918291339683611d27565b0390a380f35b8161110491611643565b61063f5782386110bc565b50600484527f8a35acfbc15ff81a39ae7d344fd709f28e8600b4aa8c65c6b64bfe7fe36bd19b9082601f198116865b81811061117657501061115c575b5050600181811b01600455611054565b830135600019600384901b60f8161c19169055388061114c565b8684013585556001909401936020938401938693500161113e565b600484527f8a35acfbc15ff81a39ae7d344fd709f28e8600b4aa8c65c6b64bfe7fe36bd19b601f830160051c810191602084106111ea575b601f0160051c01905b8181106111df5750611023565b8481556001016111d2565b90915081906111c9565b6362e6201d60e01b8452600484fd5b6348f5c3ed60e01b8452600484fd5b50337f00000000000000000000000000000000000000000000000000000000000000006001600160a01b03161415610fe6565b503461021e578060031936011261021e577f00000000000000000000000000000000000000000000000000000000000000006001600160a01b03163303611348576001547f00000000000000000000000000000000000000000000000000000000000000006001600160a01b03169190823b156103965760405190631f481a5d60e31b82526004820152818160248183875af1801561064357611338575b508091600154813b1561133457829160448392604051948593849263a3abe42560e01b84526004840152600260248401525af18015610643576113235750f35b8161132d91611643565b61021e5780f35b5050fd5b8161134291611643565b386112e3565b631966391b60e11b8152600490fd5b503461021e57606036600319011261021e576004359061ffff8216820361021e5760243560ff811681036103965760443590600282101561063f577f00000000000000000000000000000000000000000000000000000000000000006001600160a01b031633036113f05760ff60025460101c166113e15761035392936113dc61204d565b611821565b63e405a43360e01b8352600483fd5b635d154fe160e11b8352600483fd5b503461021e578060031936011261021e576040517f00000000000000000000000000000000000000000000000000000000000000006001600160a01b03168152602090f35b503461021e578060031936011261021e576020600554604051908152f35b503461021e578060031936011261021e57602060405161ffff7f0000000000000000000000000000000000000000000000000000000000000000168152f35b503461021e578060031936011261021e576040517f00000000000000000000000000000000000000000000000000000000000000006001600160a01b03168152602090f35b503461021e57602036600319011261021e576004356005548110156103965761150e906115a3565b5061151881611664565b61091e60026001600160401b0360018501541693015460405193849384611749565b503461021e578060031936011261021e57602060ff60025460081c166040519015158152f35b9050346103965781600319360112610396577f00000000000000000000000000000000000000000000000000000000000000006001600160a01b03168152602090f35b6005548110156115c25760056000526003602060002091020190600090565b634e487b7160e01b600052603260045260246000fd5b90600182811c92168015611608575b60208310146115f257565b634e487b7160e01b600052602260045260246000fd5b91607f16916115e7565b606081019081106001600160401b0382111761162d57604052565b634e487b7160e01b600052604160045260246000fd5b90601f801991011681019081106001600160401b0382111761162d57604052565b9060405191826000825492611678846115d8565b80845293600181169081156116e6575060011461169f575b5061169d92500383611643565b565b90506000929192526020600020906000915b8183106116ca57505090602061169d9282010138611690565b60209193508060019154838589010152019101909184926116b1565b90506020925061169d94915060ff191682840152151560051b82010138611690565b919082519283825260005b848110611734575050826000602080949584010152601f8019910116010190565b80602080928401015182828601015201611713565b6001600160401b0361176960409396959496606084526060840190611708565b951660208201520152565b9060206003198301126117c3576004356001600160401b0381116117c357826023820112156117c3578060040135926001600160401b0384116117c357602484830101116117c3576024019190565b600080fd5b818102929181159184041417156117db57565b634e487b7160e01b600052601160045260246000fd5b919082039182116117db57565b90600282101561180b5752565b634e487b7160e01b600052602160045260246000fd5b91906002549260ff60009460081c1615611d185761ffff166127108111611d09576040516370a0823160e01b8152306004820152917f00000000000000000000000000000000000000000000000000000000000000006020846024816001600160a01b0385165afa938415611cfe578694611cc6575b506002851015611cb2578415611901575050507f81084fdb1640d4d17bced528639ccc751b0b4d9e399790b6d89dccf33c1b66409160a0916118d76121f2565b600154946118e860405180946117fe565b80602084015280604084015260608301526080820152a2565b61191c61271061191485879699976117c8565b0480946117f1565b9383818115611c0457600160ff861610611bfb575b600560ff861611611bf2575b61ffff7f00000000000000000000000000000000000000000000000000000000000000001680611b9a575b5081611b29575b50506001547f00000000000000000000000000000000000000000000000000000000000000006001600160a01b031690813b1561063f5760405163a3abe42560e01b81526004808201929092526024810191909152828160448183865af18015611b1e57908391611b09575b5050600154813b1561063f576040516304e29d0960e51b815260ff8616600482015260248101919091529082908290604490829084905af1801561064357611af4575b50509160ff60a094927f81084fdb1640d4d17bced528639ccc751b0b4d9e399790b6d89dccf33c1b664096945b84611a8c575b506201000062ff000019600254161760025560015497611a7460405180976117fe565b602086015216604084015260608301526080820152a2565b611ab8857f000000000000000000000000000000000000000000000000000000000000000080936120a3565b6001547ff552ca82e113ac3c539c3d617f29fcd19c172a0c75dad017555c9e109f7fe1836020604051938885526001808c1b031693a338611a51565b611aff828092611643565b61021e5780611a1e565b81611b1391611643565b6103965781386119db565b6040513d85823e3d90fd5b7f5ce467ae5694ddb233a02ca7eb987835c5e2ea71eec0e379bf3a5e1207ae245960407f0000000000000000000000000000000000000000000000000000000000000000611b788582896120a3565b600154825195865260208601949094526001600160a01b031693a3388061196f565b6127109250611baa9150866117c8565b04611bb581866117f1565b9080611bc2575b38611968565b611bed817f0000000000000000000000000000000000000000000000000000000000000000866120a3565b611bbc565b6005945061193d565b60019450611931565b50506001547f00000000000000000000000000000000000000000000000000000000000000006001600160a01b0316803b1561063f5760405163a3abe42560e01b815260048101929092526006602483015282908290604490829084905af18015610643579260ff9260a09795927f81084fdb1640d4d17bced528639ccc751b0b4d9e399790b6d89dccf33c1b6640999795611ca2575b5050611a4b565b81611cac91611643565b38611c9b565b634e487b7160e01b86526021600452602486fd5b9093506020813d602011611cf6575b81611ce260209383611643565b81010312611cf257519238611897565b8580fd5b3d9150611cd5565b6040513d88823e3d90fd5b63bbf4268d60e01b8452600484fd5b63126ea8e960e31b8452600484fd5b90918060409360208452816020850152848401376000828201840152601f01601f1916010190565b60025460ff81169081611eed575b81611eba575b81611ea3575b81611e8d575b50611e085760ff600254161580611dd6575b80611da4575b611d9c5763085de62560e01b60005260046000fd5b61169d6121f2565b506001600160401b037f0000000000000000000000000000000000000000000000000000000000000000164211611d87565b506001600160401b037f0000000000000000000000000000000000000000000000000000000000000000161515611d81565b7f0000000000000000000000000000000000000000000000000000000000000000600160ff821610611e85575b600560ff821611611e7d575b611e4a81612381565b7f1be1750ddd59392ba6c564a4194b0874f9295a7595042a77fc9b7f34938aa0af60206001549260ff60405191168152a2565b506005611e41565b506001611e35565b6001600160401b03915060181c16421138611d6f565b90506001600160401b038160181c16151590611d69565b7f00000000000000000000000000000000000000000000000000000000000000006001600160401b031615159150611d63565b905060ff8160081c161590611d5d565b337f00000000000000000000000000000000000000000000000000000000000000006001600160a01b031614801580611fff575b611fee5760ff6002541615611fab575b50600280547fff0000000000000000000000000000000000000000ffffffffffffffffffffff1633605881901b600160581b600160f81b0316919091179091556001547f7c2fb7ad28ff3012b206b788cc80d55099949fd45e69314f27fdace959bae761600080a3565b80611fbb575b611d9c5738611f41565b506001600160401b037f000000000000000000000000000000000000000000000000000000000000000016421115611fb1565b6348f5c3ed60e01b60005260046000fd5b50337f00000000000000000000000000000000000000000000000000000000000000006001600160a01b03161415611f31565b6001600160401b03811161162d57601f01601f191660200190565b60026000541461205e576002600055565b60405162461bcd60e51b815260206004820152601f60248201527f5265656e7472616e637947756172643a207265656e7472616e742063616c6c006044820152606490fd5b60405163a9059cbb60e01b602082019081526001600160a01b039093166024820152604480820194909452928352909161215a916120e2606483611643565b60018060a01b03166000806040958651946120fd8887611643565b602086527f5361666545524332303a206c6f772d6c6576656c2063616c6c206661696c65646020870152519082855af13d156121ea573d9161213e83612032565b9261214b87519485611643565b83523d6000602085013e612636565b80519081159182156121c7575b5050156121715750565b5162461bcd60e51b815260206004820152602a60248201527f5361666545524332303a204552433230206f7065726174696f6e20646964206e6044820152691bdd081cdd58d8d9595960b21b6064820152608490fd5b81925090602091810103126117c3576020015180151581036117c3573880612167565b606091612636565b6040516370a0823160e01b81523060048201526000907f00000000000000000000000000000000000000000000000000000000000000006020826024816001600160a01b0385165afa918215611b1e57839261234d575b50816122df575b50506001547f00000000000000000000000000000000000000000000000000000000000000006001600160a01b0316803b1561063f5760405163a3abe42560e01b815260048101929092526006602483015282908290604490829084905af18015610643576122cf575b50506201000062ff0000196002541617600255565b816122d991611643565b386122ba565b61230b827f000000000000000000000000000000000000000000000000000000000000000080936120a3565b6001546040519283526001600160a01b03909116917ff552ca82e113ac3c539c3d617f29fcd19c172a0c75dad017555c9e109f7fe18390602090a33880612250565b9091506020813d602011612379575b8161236960209383611643565b8101031261063f57519038612249565b3d915061235c565b600160ff82161061262e575b600560ff821611612626575b6040516370a0823160e01b8152306004820152600091907f00000000000000000000000000000000000000000000000000000000000000006020826024816001600160a01b0385165afa9182156125175784926125f2575b5083908261ffff7f00000000000000000000000000000000000000000000000000000000000000001680612595575b505082612522575b50506001547f00000000000000000000000000000000000000000000000000000000000000006001600160a01b03169150813b156124ff5760405163a3abe42560e01b81526004808201929092526024810191909152838160448183865af1801561251757612503575b5060015491813b156124ff576040516304e29d0960e51b815260ff919091166004820152602481019290925282908290604490829084905af18015610643576124ea5750506201000062ff0000196002541617600255565b6124f5828092611643565b61021e57806122ba565b8380fd5b8361251091949294611643565b9138612492565b6040513d86823e3d90fd5b60407f5ce467ae5694ddb233a02ca7eb987835c5e2ea71eec0e379bf3a5e1207ae245991612572857f000000000000000000000000000000000000000000000000000000000000000080936120a3565b600154825195865260208601949094526001600160a01b031693a3388080612428565b8193506125a590612710926117c8565b0491826125b3575b80612420565b6125c091935082906117f1565b916125ec827f0000000000000000000000000000000000000000000000000000000000000000836120a3565b386125ad565b9091506020813d60201161261e575b8161260e60209383611643565b810103126124ff575190386123f1565b3d9150612601565b506005612399565b50600161238d565b91929015612698575081511561264a575090565b3b156126535790565b60405162461bcd60e51b815260206004820152601d60248201527f416464726573733a2063616c6c20746f206e6f6e2d636f6e74726163740000006044820152606490fd5b8251909150156126ab5750805190602001fd5b60405162461bcd60e51b8152602060048201529081906126cf906024830190611708565b0390fdfea26469706673582212201b4741567014af18c95b1e6e8726b7ed354ee8aaeaf7c37e73664699fc9a160064736f6c634300081c0033",
  "linkReferences": {},
  "deployedLinkReferences": {}
}