{
  "_format": "hh-sol-artifact-1",
  "contractName": "CompanyRegistry",
  "sourceName": "contracts/CompanyShares/CompanyRegistry.sol",
  "abi": [
    {
      "inputs": [
        {
          "internalType": "address",
          "name": "_paymentToken",
          "type": "address"
        },
        {
          "internalType": "uint96",
          "name": "_platformFeeBps",
          "type": "uint96"
        },
        {
          "internalType": "address",
          "name": "_platformFeeRecipient",
          "type": "address"
        },
        {
          "internalType": "address",
          "name": "_freelancerFactory",
          "type": "address"
        }
      ],
      "stateMutability": "nonpayable",
      "type": "constructor"
    },
    {
      "inputs": [],
      "name": "CompanyNotFound",
      "type": "error"
    },
    {
      "inputs": [],
      "name": "EmptyNameOrSymbol",
      "type": "error"
    },
    {
      "inputs": [],
      "name": "FeeTooHigh",
      "type": "error"
    },
    {
      "inputs": [],
      "name": "InvalidAddress",
      "type": "error"
    },
    {
      "inputs": [],
      "name": "InvalidFeeRecipient",
      "type": "error"
    },
    {
      "inputs": [],
      "name": "InvalidPaymentToken",
      "type": "error"
    },
    {
      "inputs": [],
      "name": "InvalidWithdrawBps",
      "type": "error"
    },
    {
      "inputs": [],
      "name": "MetadataURITooLong",
      "type": "error"
    },
    {
      "inputs": [],
      "name": "NoFreelancerProfile",
      "type": "error"
    },
    {
      "inputs": [
        {
          "internalType": "address",
          "name": "owner",
          "type": "address"
        }
      ],
      "name": "OwnableInvalidOwner",
      "type": "error"
    },
    {
      "inputs": [
        {
          "internalType": "address",
          "name": "account",
          "type": "address"
        }
      ],
      "name": "OwnableUnauthorizedAccount",
      "type": "error"
    },
    {
      "inputs": [],
      "name": "OwnerAlreadyHasCompany",
      "type": "error"
    },
    {
      "anonymous": false,
      "inputs": [
        {
          "indexed": true,
          "internalType": "uint256",
          "name": "companyId",
          "type": "uint256"
        },
        {
          "indexed": true,
          "internalType": "address",
          "name": "owner",
          "type": "address"
        },
        {
          "indexed": false,
          "internalType": "address",
          "name": "token",
          "type": "address"
        },
        {
          "indexed": false,
          "internalType": "address",
          "name": "sale",
          "type": "address"
        },
        {
          "indexed": false,
          "internalType": "address",
          "name": "vault",
          "type": "address"
        },
        {
          "indexed": false,
          "internalType": "address",
          "name": "distributor",
          "type": "address"
        },
        {
          "indexed": false,
          "internalType": "string",
          "name": "metadataURI",
          "type": "string"
        },
        {
          "indexed": false,
          "internalType": "string",
          "name": "sector",
          "type": "string"
        }
      ],
      "name": "CompanyCreated",
      "type": "event"
    },
    {
      "anonymous": false,
      "inputs": [
        {
          "indexed": true,
          "internalType": "address",
          "name": "previousOwner",
          "type": "address"
        },
        {
          "indexed": true,
          "internalType": "address",
          "name": "newOwner",
          "type": "address"
        }
      ],
      "name": "OwnershipTransferStarted",
      "type": "event"
    },
    {
      "anonymous": false,
      "inputs": [
        {
          "indexed": true,
          "internalType": "address",
          "name": "previousOwner",
          "type": "address"
        },
        {
          "indexed": true,
          "internalType": "address",
          "name": "newOwner",
          "type": "address"
        }
      ],
      "name": "OwnershipTransferred",
      "type": "event"
    },
    {
      "anonymous": false,
      "inputs": [
        {
          "indexed": false,
          "internalType": "uint96",
          "name": "feeBps",
          "type": "uint96"
        },
        {
          "indexed": false,
          "internalType": "address",
          "name": "recipient",
          "type": "address"
        }
      ],
      "name": "PlatformFeeUpdated",
      "type": "event"
    },
    {
      "inputs": [],
      "name": "acceptOwnership",
      "outputs": [],
      "stateMutability": "nonpayable",
      "type": "function"
    },
    {
      "inputs": [
        {
          "internalType": "uint256",
          "name": "",
          "type": "uint256"
        }
      ],
      "name": "companies",
      "outputs": [
        {
          "internalType": "address",
          "name": "owner",
          "type": "address"
        },
        {
          "internalType": "address",
          "name": "token",
          "type": "address"
        },
        {
          "internalType": "address",
          "name": "sale",
          "type": "address"
        },
        {
          "internalType": "address",
          "name": "vault",
          "type": "address"
        },
        {
          "internalType": "address",
          "name": "distributor",
          "type": "address"
        },
        {
          "internalType": "string",
          "name": "metadataURI",
          "type": "string"
        },
        {
          "internalType": "string",
          "name": "sector",
          "type": "string"
        },
        {
          "internalType": "bool",
          "name": "exists",
          "type": "bool"
        }
      ],
      "stateMutability": "view",
      "type": "function"
    },
    {
      "inputs": [
        {
          "internalType": "string",
          "name": "name",
          "type": "string"
        },
        {
          "internalType": "string",
          "name": "symbol",
          "type": "string"
        },
        {
          "internalType": "string",
          "name": "metadataURI",
          "type": "string"
        },
        {
          "internalType": "string",
          "name": "sector",
          "type": "string"
        }
      ],
      "name": "createCompany",
      "outputs": [
        {
          "internalType": "uint256",
          "name": "companyId",
          "type": "uint256"
        }
      ],
      "stateMutability": "nonpayable",
      "type": "function"
    },
    {
      "inputs": [],
      "name": "freelancerFactory",
      "outputs": [
        {
          "internalType": "contract IFreelancerFactory",
          "name": "",
          "type": "address"
        }
      ],
      "stateMutability": "view",
      "type": "function"
    },
    {
      "inputs": [
        {
          "internalType": "uint256",
          "name": "companyId",
          "type": "uint256"
        }
      ],
      "name": "getCompany",
      "outputs": [
        {
          "components": [
            {
              "internalType": "address",
              "name": "owner",
              "type": "address"
            },
            {
              "internalType": "address",
              "name": "token",
              "type": "address"
            },
            {
              "internalType": "address",
              "name": "sale",
              "type": "address"
            },
            {
              "internalType": "address",
              "name": "vault",
              "type": "address"
            },
            {
              "internalType": "address",
              "name": "distributor",
              "type": "address"
            },
            {
              "internalType": "string",
              "name": "metadataURI",
              "type": "string"
            },
            {
              "internalType": "string",
              "name": "sector",
              "type": "string"
            },
            {
              "internalType": "bool",
              "name": "exists",
              "type": "bool"
            }
          ],
          "internalType": "struct CompanyRegistry.Company",
          "name": "",
          "type": "tuple"
        }
      ],
      "stateMutability": "view",
      "type": "function"
    },
    {
      "inputs": [],
      "name": "getCompanyCount",
      "outputs": [
        {
          "internalType": "uint256",
          "name": "",
          "type": "uint256"
        }
      ],
      "stateMutability": "view",
      "type": "function"
    },
    {
      "inputs": [],
      "name": "investorRegistry",
      "outputs": [
        {
          "internalType": "contract InvestorRegistry",
          "name": "",
          "type": "address"
        }
      ],
      "stateMutability": "view",
      "type": "function"
    },
    {
      "inputs": [],
      "name": "nextCompanyId",
      "outputs": [
        {
          "internalType": "uint256",
          "name": "",
          "type": "uint256"
        }
      ],
      "stateMutability": "view",
      "type": "function"
    },
    {
      "inputs": [],
      "name": "owner",
      "outputs": [
        {
          "internalType": "address",
          "name": "",
          "type": "address"
        }
      ],
      "stateMutability": "view",
      "type": "function"
    },
    {
      "inputs": [
        {
          "internalType": "address",
          "name": "",
          "type": "address"
        }
      ],
      "name": "ownerToCompanyId",
      "outputs": [
        {
          "internalType": "uint256",
          "name": "",
          "type": "uint256"
        }
      ],
      "stateMutability": "view",
      "type": "function"
    },
    {
      "inputs": [],
      "name": "paymentToken",
      "outputs": [
        {
          "internalType": "contract IERC20",
          "name": "",
          "type": "address"
        }
      ],
      "stateMutability": "view",
      "type": "function"
    },
    {
      "inputs": [],
      "name": "pendingOwner",
      "outputs": [
        {
          "internalType": "address",
          "name": "",
          "type": "address"
        }
      ],
      "stateMutability": "view",
      "type": "function"
    },
    {
      "inputs": [],
      "name": "platformFeeBps",
      "outputs": [
        {
          "internalType": "uint96",
          "name": "",
          "type": "uint96"
        }
      ],
      "stateMutability": "view",
      "type": "function"
    },
    {
      "inputs": [],
      "name": "platformFeeRecipient",
      "outputs": [
        {
          "internalType": "address",
          "name": "",
          "type": "address"
        }
      ],
      "stateMutability": "view",
      "type": "function"
    },
    {
      "inputs": [],
      "name": "renounceOwnership",
      "outputs": [],
      "stateMutability": "nonpayable",
      "type": "function"
    },
    {
      "inputs": [
        {
          "internalType": "uint96",
          "name": "_feeBps",
          "type": "uint96"
        },
        {
          "internalType": "address",
          "name": "_recipient",
          "type": "address"
        }
      ],
      "name": "setPlatformFee",
      "outputs": [],
      "stateMutability": "nonpayable",
      "type": "function"
    },
    {
      "inputs": [
        {
          "internalType": "address",
          "name": "",
          "type": "address"
        }
      ],
      "name": "tokenToCompanyId",
      "outputs": [
        {
          "internalType": "uint256",
          "name": "",
          "type": "uint256"
        }
      ],
      "stateMutability": "view",
      "type": "function"
    },
    {
      "inputs": [],
      "name": "totalCompanies",
      "outputs": [
        {
          "internalType": "uint256",
          "name": "",
          "type": "uint256"
        }
      ],
      "stateMutability": "view",
      "type": "function"
    },
    {
      "inputs": [
        {
          "internalType": "address",
          "name": "newOwner",
          "type": "address"
        }
      ],
      "name": "transferOwnership",
      "outputs": [],
      "stateMutability": "nonpayable",
      "type": "function"
    }
  ],
  "bytecode": "0x60a03461022e57601f61731838819003918201601f19168301916001600160401b038311848410176101be5780849260809460405283398101031261022e5761004781610233565b602082015190916001600160601b0382169182810361022e57610078606061007160408501610233565b9301610233565b9133156102185760008054336001600160a01b0319821681178355604051979290916001600160a01b0316907f8be0079c531659141344cd1fd0a4f28419497f9722a3daafe3b4186f6b6457e09080a360016005556001600160a01b0316908115610207576001600160a01b03169283156101f6576001600160a01b03169384156101e5576103e8106101d45760805260a01b6001600160a01b031990811660015560028054821692909217909155600480549091169190911790556110df818101906001600160401b038211838310176101be5760609183916162398339338152306020820152600060408201520301906000f080156101b257600380546001600160a01b0319166001600160a01b0392909216919091179055604051615ff1908161024882396080518181816106e501526111a40152f35b6040513d6000823e3d90fd5b634e487b7160e01b600052604160045260246000fd5b63cd4e616760e01b60005260046000fd5b63e6c4247b60e01b60005260046000fd5b630ed1b8b360e31b60005260046000fd5b6356e7ec5f60e01b60005260046000fd5b631e4fbdf760e01b600052600060045260246000fd5b600080fd5b51906001600160a01b038216820361022e5756fe608080604052600436101561001357600080fd5b600090813560e01c90816284c3c6146112e05750806322dcd13e146112bf5780632813d19d146111fc5780632ce606e3146111d35780633013ce291461118e5780633734256e146111655780633b4cc7a3146101605780634bfd5871146105b65780634dfafb801461057d57806357d13917146103e2578063715018a61461037d57806379ba5097146102f85780638da5cb5b146102d1578063d8d3c829146102b3578063decc4a6a146101d0578063e30c3978146101a7578063eb13554f1461017e578063f0782640146101605763f2fde38b146100f157600080fd5b3461015d57602036600319011261015d5761010a611316565b61011261157b565b600180546001600160a01b0319166001600160a01b0392831690811790915582549091167f38d16b8cac22d99fc7c124b9cd0de2d3fa1faef420bfe791d8c362d765e227008380a380f35b80fd5b503461015d578060031936011261015d576020600654604051908152f35b503461015d578060031936011261015d576002546040516001600160a01b039091168152602090f35b503461015d578060031936011261015d576001546040516001600160a01b039091168152602090f35b503461015d57604036600319011261015d576004356001600160601b038116908181036102af576024356001600160a01b03811691908290036102ab5761021561157b565b811561029c576103e8831161028d57916040917fbad9436335ddabdd6fc56ea571323eb7dcfc0e82e9dbaf786bbb2a2ad6de573c93600154906001600160601b0360a01b9060a01b169060018060a01b031617600155806001600160601b0360a01b600254161760025582519182526020820152a180f35b63cd4e616760e01b8452600484fd5b630ed1b8b360e31b8452600484fd5b8380fd5b8280fd5b503461015d578060031936011261015d576020600554604051908152f35b503461015d578060031936011261015d57546040516001600160a01b039091168152602090f35b503461015d578060031936011261015d57600154336001600160a01b039091160361036a57600180546001600160a01b0319908116909155815433918116821783556001600160a01b03167f8be0079c531659141344cd1fd0a4f28419497f9722a3daafe3b4186f6b6457e08380a380f35b63118cdaa760e01b815233600452602490fd5b503461015d578060031936011261015d5761039661157b565b600180546001600160a01b03199081169091558154908116825581906001600160a01b03167f8be0079c531659141344cd1fd0a4f28419497f9722a3daafe3b4186f6b6457e08280a380f35b503461015d57602036600319011261015d57600435908060e06040516104078161136b565b828152826020820152826040820152826060820152826080820152606060a0820152606060c08201520152818152600760205260ff6007604083200154161561056e5760409181526007602052206040516104618161136b565b81546001600160a01b039081168252600183015481166020830190815260028401548216604084019081526003850154831660608501908152600486015490931660808501908152919490926105609261054d91906104c2600585016113be565b9160a0880192835260ff60076104da600688016113be565b60c08b8101918252919097015491909116151560e08a019081526040805160208082529b516001600160a01b039081169c82019c909c529b518b16908c01529751891660608b01529051881660808a0152905190961660a088015251610100958701959095528594610120860190611462565b9051848203601f190160e0860152611462565b905115156101008301520390f35b6302de3a2360e61b8152600490fd5b503461015d57602036600319011261015d576020906040906001600160a01b036105a5611316565b168152600983522054604051908152f35b503461015d57608036600319011261015d576004356001600160401b038111610ffb576105e79036906004016114a3565b906024356001600160401b0381116102ab576106079036906004016114a3565b6044949194356001600160401b0381116102af576106299036906004016114a3565b6064356001600160401b038111611161576106489036906004016114a3565b93909533865260086020526040862054611152576024602060018060a01b036004541660405192838092630f5664e760e31b82523360048301525afa9081156110b1578791611133575b506001600160a01b031615611124578715801561111c575b61110d5761020083116110fe57600554976106c4896114ef565b6005556106d26006546114ef565b6006556003546040516001600160a01b037f000000000000000000000000000000000000000000000000000000000000000081169c92610f9880840192909116908383106001600160401b038411176110c7579183918f6080946115a58539825230602083015260408201528d606082015203019089f0938415611038576003546001600160a01b039586169516803b156110fa578980916024604051809481936398eaa4a760e01b83528b60048401525af180156110ef576110db575b506040519361104f93848601948686106001600160401b038711176110c757869594926107dd94926107cf9261253d8939608087526080870191611514565b918483036020860152611514565b90846040820152606030910152039086f080156110bc576001600160a01b0316813b156110ad576040516340f797bb60e01b815260048101829052868160248183875af180156110b157908791611098575b50506040516116c3808201908282106001600160401b03831117610f5457606091839161358c83398c8152306020820152612710604082015203019087f098891561108d57602499602060018060a01b03600454166040519c8d8092630f5664e760e31b82523360048301525afa9a8b1561103857889b61105c575b506001600160a01b0316998a3b156110585760405163e0b6a1e360e01b81526001600160a01b0390911660048201528781602481838f5af1801561103857908891611043575b5050823b1561103457604051636817031b60e01b8152600481018b9052878160248183885af180156110385790889161101f575b50506002546001546003546040519361136d808601946001600160a01b039384169460a01c931691906001600160401b0386118787101761100b57918f610100969492889694614c4f883985528860208601526040850152336060850152608084015260a083015260c08201528b60e082015203019087f0958615610fff576003546001600160a01b039788169716803b15610ffb578180916024604051809481936398eaa4a760e01b83528d60048401525af18015610dc057908291610fe6575b5050893b1561015d576040516336af50fd60e01b8152600481018890528181602481838f5af18015610dc057908291610fd1575b5050893b1561015d576040516375619ab560e01b8152600481018490528181602481838f5af18015610dc057908291610fbc575b5050813b1561015d57604051630164f49160e21b815260048101889052818160248183875af18015610dc057908291610fa7575b5050813b1561015d5760405163f2fde38b60e01b8152336004820152818160248183875af18015610dc057908291610f92575b5050823b1561015d5760405163f2fde38b60e01b8152336004820152818160248183885af18015610dc057908291610f7d575b5050893b1561015d5760405163f2fde38b60e01b81523360048201528181602481838f5af18015610dc057908291610f68575b50508960405192610b2c8461136b565b3384528a6020850194828652604081019a8b52606081019d8e52608081019687528d8c610b6e610b5e8c8c3691611535565b9160a085019283528d3691611535565b60c08401908152600160e08501818152958952600760205260408920945185546001600160a01b03199081166001600160a01b039283161787558b5192870180548216938316939093179092558f516002870180548416918316919091179055935160038601805483169186169190911790558a5160048601805490921694169390931790925551805160058401916001600160401b038211610f54578190610c178454611331565b601f8111610f04575b50602090601f8311600114610ea1578a92610e96575b50508160011b916000199060031b1c19161790555b51805160068301916001600160401b038211610e8257610c6b8354611331565b601f8111610e3d575b50602090601f8311600114610dd657600794939291899183610dcb575b50508160011b916000199060031b1c19161790555b019051151560ff8019835416911617905533835260086020528a60408420558252600960205289604083205560018060a01b036004541690813b156102af57829160448392604051948593849263032dabbf60e41b845233600485015260248401525af18015610dc057610dab575b505051945197519051604080516001600160a01b03978816815299871660208b810191909152928716908a0152909416606088015260c060808801819052939686947f82a18a1c20175ae0a4283562e1f223917e9fdc4c5eb19c887f44135f60e38cb49491938493610da09392610d90929086019190611514565b9083820360a08501523397611514565b0390a3604051908152f35b610db682809261139d565b61015d5780610d15565b6040513d84823e3d90fd5b015190503880610c91565b8389528189209190601f1984168a5b818110610e25575091600193918560079897969410610e0c575b505050811b019055610ca6565b015160001960f88460031b161c19169055388080610dff565b92936020600181928786015181550195019301610de5565b83895260208920601f840160051c81019160208510610e78575b601f0160051c01905b818110610e6d5750610c74565b898155600101610e60565b9091508190610e57565b634e487b7160e01b88526041600452602488fd5b015190503880610c36565b848b52818b209250601f1984168b5b818110610eec5750908460019594939210610ed3575b505050811b019055610c4b565b015160001960f88460031b161c19169055388080610ec6565b92936020600181928786015181550195019301610eb0565b909150838a5260208a20601f840160051c81019160208510610f4a575b90601f859493920160051c01905b818110610f3c5750610c20565b8b8155849350600101610f2f565b9091508190610f21565b634e487b7160e01b89526041600452602489fd5b81610f729161139d565b61015d578038610b1c565b81610f879161139d565b61015d578038610ae9565b81610f9c9161139d565b61015d578038610ab6565b81610fb19161139d565b61015d578038610a83565b81610fc69161139d565b61015d578038610a4f565b81610fdb9161139d565b61015d578038610a1b565b81610ff09161139d565b61015d5780386109e7565b5080fd5b604051903d90823e3d90fd5b634e487b7160e01b8d52604160045260248dfd5b816110299161139d565b611034578638610925565b8680fd5b6040513d8a823e3d90fd5b8161104d9161139d565b6110345786386108f1565b8780fd5b61107f919b5060203d602011611086575b611077818361139d565b8101906114d0565b99386108ab565b503d61106d565b6040513d88823e3d90fd5b816110a29161139d565b6110ad57853861082f565b8580fd5b6040513d89823e3d90fd5b6040513d87823e3d90fd5b634e487b7160e01b8c52604160045260248cfd5b896110e8919a929a61139d565b9738610790565b6040513d8c823e3d90fd5b8980fd5b630c76c24560e11b8652600486fd5b639432241960e01b8652600486fd5b5081156106aa565b630c7ef6eb60e31b8652600486fd5b61114c915060203d60201161108657611077818361139d565b38610692565b632c8075bf60e21b8652600486fd5b8480fd5b503461015d578060031936011261015d576003546040516001600160a01b039091168152602090f35b503461015d578060031936011261015d576040517f00000000000000000000000000000000000000000000000000000000000000006001600160a01b03168152602090f35b503461015d578060031936011261015d576004546040516001600160a01b039091168152602090f35b503461015d57602036600319011261015d57600480358252600760205260409091208054600182015460028301546003840154948401546001600160a01b039283169593831694918316936112b3936112a5929181169116611260600585016113be565b9160ff6007611271600688016113be565b9601541696604051998a998a5260208a015260408901526060880152608087015261010060a0870152610100860190611462565b9084820360c0860152611462565b90151560e08301520390f35b503461015d578060031936011261015d57602060015460a01c604051908152f35b905034610ffb576020366003190112610ffb576020916040906001600160a01b03611309611316565b1681526008845220548152f35b600435906001600160a01b038216820361132c57565b600080fd5b90600182811c92168015611361575b602083101461134b57565b634e487b7160e01b600052602260045260246000fd5b91607f1691611340565b61010081019081106001600160401b0382111761138757604052565b634e487b7160e01b600052604160045260246000fd5b90601f801991011681019081106001600160401b0382111761138757604052565b90604051918260008254926113d284611331565b808452936001811690811561144057506001146113f9575b506113f79250038361139d565b565b90506000929192526020600020906000915b8183106114245750509060206113f792820101386113ea565b602091935080600191548385890101520191019091849261140b565b9050602092506113f794915060ff191682840152151560051b820101386113ea565b919082519283825260005b84811061148e575050826000602080949584010152601f8019910116010190565b8060208092840101518282860101520161146d565b9181601f8401121561132c578235916001600160401b03831161132c576020838186019501011161132c57565b9081602091031261132c57516001600160a01b038116810361132c5790565b60001981146114fe5760010190565b634e487b7160e01b600052601160045260246000fd5b908060209392818452848401376000828201840152601f01601f1916010190565b9291926001600160401b038211611387576040519161155e601f8201601f19166020018461139d565b82948184528183011161132c578281602093846000960137010152565b6000546001600160a01b0316330361158f57565b63118cdaa760e01b6000523360045260246000fdfe60e03461015957601f610f9838819003918201601f19168301916001600160401b0383118484101761015e578084926080946040528339810103126101595761004781610174565b9061005460208201610174565b90606061006360408301610174565b9101516001600160a01b0390921692831561014357600180546001600160a01b0319908116909155600080549182168617815560405195916001600160a01b0316907f8be0079c531659141344cd1fd0a4f28419497f9722a3daafe3b4186f6b6457e09080a360016002556001600160a01b03168015610132576080526001600160a01b031660a05260c052610e0f90816101898239608051818181610382015281816104bf015261090f015260a0518181816108ca0152610c93015260c0518181816105af0152610d140152f35b63e6c4247b60e01b60005260046000fd5b631e4fbdf760e01b600052600060045260246000fd5b600080fd5b634e487b7160e01b600052604160045260246000fd5b51906001600160a01b03821682036101595756fe6080604052600436101561001257600080fd5b60003560e01c806327ce01471461093e5780633013ce29146108f95780633734256e146108b45780633a7960e01461089657806340f797bb1461080f57806346197c9a146107d35780634e71d92d146107af5780636817031b146107235780636c9fa59e146106fa578063700060d8146106c0578063715018a61461065b57806379ba5097146105d25780637bc3a733146105975780638da5cb5b1461056e578063a8b9d24014610543578063bd68700e1461048b578063c371acab1461046e578063cbe8a524146102a8578063d54ad2a11461028a578063ddeae03314610252578063de3aaf6114610218578063e30c3978146101ef578063f2fde38b1461017b578063fbfa77cf146101525763ff50abdc1461012f57600080fd5b3461014d57600036600319011261014d576020600854604051908152f35b600080fd5b3461014d57600036600319011261014d576004546040516001600160a01b039091168152602090f35b3461014d57602036600319011261014d57610194610961565b61019c610be2565b60018060a01b0316806bffffffffffffffffffffffff60a01b600154161760015560018060a01b03600054167f38d16b8cac22d99fc7c124b9cd0de2d3fa1faef420bfe791d8c362d765e22700600080a3005b3461014d57600036600319011261014d576001546040516001600160a01b039091168152602090f35b3461014d57602036600319011261014d576001600160a01b03610239610961565b1660005260076020526020604060002054604051908152f35b3461014d57602036600319011261014d57602061027d610270610961565b610278610bf6565b610c16565b6001600255604051908152f35b3461014d57600036600319011261014d576020600954604051908152f35b3461014d57602036600319011261014d576004356102c4610bf6565b6004546001600160a01b0316330361045d57801561044c576103e8811061043b576003546001600160a01b0316801561042a576020600491604051928380926318160ddd60e01b82525afa90811561041e576000916103e9575b5080156103d8577fb9ebcb18b045f112fc4335f8a337b6daef95ab3d79fcaf32aab73f57e6b12f81916103b36040926103a684516323b872dd60e01b602082015233602482015230604482015284606482015260648152610380608482610977565b7f0000000000000000000000000000000000000000000000000000000000000000610d7e565b8260801b04600554610bd5565b806005556103c382600854610bd5565b60085582519182526020820152a16001600255005b63b317087b60e01b60005260046000fd5b906020823d602011610416575b8161040360209383610977565b810103126104135750518261031e565b80fd5b3d91506103f6565b6040513d6000823e3d90fd5b63e6c4247b60e01b60005260046000fd5b63617ab12d60e11b60005260046000fd5b63162908e360e11b60005260046000fd5b638d1af8bd60e01b60005260046000fd5b3461014d57600036600319011261014d5760206040516103e88152f35b3461014d57600036600319011261014d576008546009546040516370a0823160e01b815230600482015291906020836024817f00000000000000000000000000000000000000000000000000000000000000006001600160a01b03165afa90811561041e5760009161050e575b6060935060405192835260208301526040820152f35b90506020833d60201161053b575b8161052960209383610977565b8101031261014d5760609251906104f8565b3d915061051c565b3461014d57602036600319011261014d576020610566610561610961565b610b9e565b604051908152f35b3461014d57600036600319011261014d576000546040516001600160a01b039091168152602090f35b3461014d57600036600319011261014d5760206040517f00000000000000000000000000000000000000000000000000000000000000008152f35b3461014d57600036600319011261014d57600154336001600160a01b039091160361064657600180546001600160a01b03199081169091556000805433928116831782556001600160a01b0316907f8be0079c531659141344cd1fd0a4f28419497f9722a3daafe3b4186f6b6457e09080a3005b63118cdaa760e01b6000523360045260246000fd5b3461014d57600036600319011261014d57610674610be2565b600180546001600160a01b0319908116909155600080549182168155906001600160a01b03167f8be0079c531659141344cd1fd0a4f28419497f9722a3daafe3b4186f6b6457e08280a3005b3461014d57602036600319011261014d576001600160a01b036106e1610961565b1660005260066020526020604060002054604051908152f35b3461014d57600036600319011261014d576003546040516001600160a01b039091168152602090f35b3461014d57602036600319011261014d5761073c610961565b610744610be2565b6001600160a01b0316801561042a5760045460ff8160a81c1661079e57600161ff0160a01b0319168117600160a81b176004557fe7ae49f883c825b05681b3e00e8be6fdea9ed2a8a45e4c6ecb9390fc44cce615600080a2005b63a741a04560e01b60005260046000fd5b3461014d57600036600319011261014d576107c8610bf6565b602061027d33610c16565b3461014d57606036600319011261014d576107ec610961565b602435906001600160a01b038216820361014d5761080d9160443591610abb565b005b3461014d57602036600319011261014d57610828610961565b610830610be2565b6001600160a01b0316801561042a5760045460ff8160a01c1661079e57600380546001600160a01b0319168317905560ff60a01b1916600160a01b176004557fdb40a5259506fa101ac4485d4ccbd019c99ada5fb7212fe1254374f7a10e02dc600080a2005b3461014d57600036600319011261014d576020600554604051908152f35b3461014d57600036600319011261014d576040517f00000000000000000000000000000000000000000000000000000000000000006001600160a01b03168152602090f35b3461014d57600036600319011261014d576040517f00000000000000000000000000000000000000000000000000000000000000006001600160a01b03168152602090f35b3461014d57602036600319011261014d57602061056661095c610961565b6109e1565b600435906001600160a01b038216820361014d57565b90601f8019910116810190811067ffffffffffffffff82111761099957604052565b634e487b7160e01b600052604160045260246000fd5b919091600083820193841291129080158216911516176109cb57565b634e487b7160e01b600052601160045260246000fd5b6003546001600160a01b03168015610a67576040516370a0823160e01b81526001600160a01b039092166004830181905290602090839060249082905afa91821561041e57600092610a6e575b508115610a6757610a529160055402906000526006602052604060002054906109af565b6000811315610a615760801c90565b50600090565b5050600090565b90916020823d602011610a9a575b81610a8960209383610977565b810103126104135750519038610a2e565b3d9150610a7c565b818103929160001380158285131691841216176109cb57565b6003549092906001600160a01b03163303610b8d578015610b885760055402916001600160ff1b038311610b77576001600160a01b031680610b1c575060018060a01b03166000526006602052610b186040600020918254610aa2565b9055565b906001600160a01b031680610b4457506000526006602052610b1860406000209182546109af565b9060005260066020526040600020610b5d8382546109af565b90556000526006602052610b186040600020918254610aa2565b63125a110760e21b60005260046000fd5b505050565b633a5c639960e01b60005260046000fd5b610ba7816109e1565b6001600160a01b0390911660009081526007602052604090205480821115610a675781039081116109cb5790565b919082018092116109cb57565b6000546001600160a01b0316330361064657565b6002805414610c055760028055565b633ee5aeb560e01b60005260046000fd5b600091906001600160a01b038116908115610d6f57610c3490610b9e565b928315610d6a57818152600760205260408120610c52858254610bd5565b9055610c6084600954610bd5565b600955610c9160405163a9059cbb60e01b602082015283602482015285604482015260448152610380606482610977565b7f00000000000000000000000000000000000000000000000000000000000000006001600160a01b031680610cef575b50507f5efa67896a23b651b741b525caacba039c00ca7853be3de8eb1f4269e8669c566020604051858152a2565b803b15610d665781809160646040518094819363177c459960e31b83528860048401527f000000000000000000000000000000000000000000000000000000000000000060248401528a60448401525af18015610d5b5715610cc15781610d5591610977565b38610cc1565b6040513d84823e3d90fd5b5080fd5b925050565b63e6c4247b60e01b8452600484fd5b906000602091828151910182855af11561041e576000513d610dd057506001600160a01b0381163b155b610daf5750565b635274afe760e01b60009081526001600160a01b0391909116600452602490fd5b60011415610da856fea2646970667358221220c630d1c5b10d32c4a0468bbbaf99e819e794e5c92a4be45be61ac36cec0572c964736f6c634300081c003360a0604052346103f25761104f80380380610019816103f7565b9283398101906080818303126103f25780516001600160401b0381116103f2578261004591830161041c565b602082015190926001600160401b0382116103f25761006591830161041c565b9061007e606061007760408401610487565b9201610487565b83516001600160401b0381116102fb57600354600181811c911680156103e8575b60208210146102db57601f8111610383575b50602094601f821160011461031c57948192939495600092610311575b50508160011b916000199060031b1c1916176003555b82516001600160401b0381116102fb57600454600181811c911680156102f1575b60208210146102db57601f8111610276575b506020601f821160011461020f5781929394600092610204575b50508160011b916000199060031b1c1916176004555b6001600160a01b03169081156101ee57600680546001600160a01b0319908116909155600580549182168417905560405192906001600160a01b03167f8be0079c531659141344cd1fd0a4f28419497f9722a3daafe3b4186f6b6457e0600080a36001600160a01b031680156101dd57608052610bb3908161049c82396080518181816102100152818161055e0152610ab70152f35b630eb2f5d360e01b60005260046000fd5b631e4fbdf760e01b600052600060045260246000fd5b015190503880610131565b601f198216906004600052806000209160005b81811061025e57509583600195969710610245575b505050811b01600455610147565b015160001960f88460031b161c19169055388080610237565b9192602060018192868b015181550194019201610222565b60046000527f8a35acfbc15ff81a39ae7d344fd709f28e8600b4aa8c65c6b64bfe7fe36bd19b601f830160051c810191602084106102d1575b601f0160051c01905b8181106102c55750610117565b600081556001016102b8565b90915081906102af565b634e487b7160e01b600052602260045260246000fd5b90607f1690610105565b634e487b7160e01b600052604160045260246000fd5b0151905038806100ce565b601f198216956003600052806000209160005b88811061036b57508360019596979810610352575b505050811b016003556100e4565b015160001960f88460031b161c19169055388080610344565b9192602060018192868501518155019401920161032f565b60036000527fc2575a0e9e593c00f959f8c92f12db2869c3395a3b0502d05e2516446f71f85b601f830160051c810191602084106103de575b601f0160051c01905b8181106103d257506100b1565b600081556001016103c5565b90915081906103bc565b90607f169061009f565b600080fd5b6040519190601f01601f191682016001600160401b038111838210176102fb57604052565b81601f820112156103f2578051906001600160401b0382116102fb5761044b601f8301601f19166020016103f7565b92828452602083830101116103f25760005b82811061047257505060206000918301015290565b8060208092840101518282870101520161045d565b51906001600160a01b03821682036103f25756fe6080604052600436101561001257600080fd5b6000803560e01c80630593d244146108bc57806306fdde03146107ff578063095ea7b31461075557806318160ddd1461073757806323b872dd14610656578063313ce5671461063a57806340c10f19146104ca57806370a0823114610492578063715018a61461042b57806379ba5097146103a35780638da5cb5b1461037a57806395d89b4114610271578063a9059cbb1461023f578063bfe10928146101fa578063daf6ca30146101d1578063dd62ed3e1461017c578063e30c3978146101535763f2fde38b146100e357600080fd5b34610150576020366003190112610150576100fc610955565b610104610a07565b600680546001600160a01b0319166001600160a01b039283169081179091556005549091167f38d16b8cac22d99fc7c124b9cd0de2d3fa1faef420bfe791d8c362d765e227008380a380f35b80fd5b50346101505780600319360112610150576006546040516001600160a01b039091168152602090f35b5034610150576040366003190112610150576040610198610955565b916101a1610970565b9260018060a01b031681526001602052209060018060a01b03166000526020526020604060002054604051908152f35b50346101505780600319360112610150576007546040516001600160a01b039091168152602090f35b50346101505780600319360112610150576040517f00000000000000000000000000000000000000000000000000000000000000006001600160a01b03168152602090f35b50346101505760403660031901126101505761026661025c610955565b6024359033610a30565b602060405160018152f35b50346101505780600319360112610150576040519080600454908160011c91600181168015610370575b60208410811461035c5783865290811561033557506001146102d8575b6102d4846102c8818603826109cf565b60405191829182610986565b0390f35b600481527f8a35acfbc15ff81a39ae7d344fd709f28e8600b4aa8c65c6b64bfe7fe36bd19b939250905b80821061031b575090915081016020016102c8826102b8565b919260018160209254838588010152019101909291610302565b60ff191660208087019190915292151560051b850190920192506102c891508390506102b8565b634e487b7160e01b83526022600452602483fd5b92607f169261029b565b50346101505780600319360112610150576005546040516001600160a01b039091168152602090f35b5034610150578060031936011261015057600654336001600160a01b039091160361041857600680546001600160a01b0319908116909155600580543392811683179091556001600160a01b03167f8be0079c531659141344cd1fd0a4f28419497f9722a3daafe3b4186f6b6457e08380a380f35b63118cdaa760e01b815233600452602490fd5b5034610150578060031936011261015057610444610a07565b600680546001600160a01b031990811690915560058054918216905581906001600160a01b03167f8be0079c531659141344cd1fd0a4f28419497f9722a3daafe3b4186f6b6457e08280a380f35b5034610150576020366003190112610150576020906040906001600160a01b036104ba610955565b1681528083522054604051908152f35b5034610150576040366003190112610150576104e4610955565b60075460243591906001600160a01b0316330361062b576001600160a01b0316801561061c57811561060d576002548281018091116105f9576002558290806105e35782600254036002555b80827fddf252ad1be2c89b69c2b068fc378daa952ba7f163c4a11628f55a4df523b3ef6020604051878152a37f00000000000000000000000000000000000000000000000000000000000000006001600160a01b031692833b156105df576064839283604051968794859363230cbe4d60e11b8552836004860152602485015260448401525af180156105d2576105c45780f35b6105cd916109cf565b388180f35b50604051903d90823e3d90fd5b8280fd5b8082528160205260408220838154019055610530565b634e487b7160e01b84526011600452602484fd5b63199f5a0360e31b8352600483fd5b6357da576f60e11b8352600483fd5b6368bacf2160e11b8352600483fd5b5034610150578060031936011261015057602060405160128152f35b503461015057606036600319011261015057610670610955565b610678610970565b6001600160a01b038216808452600160209081526040808620338752909152842054604435939160001982106106b5575b50506102669350610a30565b84821061071c5780156107085733156106f45760408686926102669852600160205281812060018060a01b0333168252602052209103905538806106a9565b634a1406b160e11b86526004869052602486fd5b63e602df0560e01b86526004869052602486fd5b6064868684637dc7a0d960e11b835233600452602452604452fd5b50346101505780600319360112610150576020600254604051908152f35b50346101505760403660031901126101505761076f610955565b6024359033156107eb576001600160a01b03169182156107d75760408291338152600160205281812085825260205220556040519081527f8c5be1e5ebec7d5bd14f71427d1e84f3dd0314c0f7b2291e5b200ac8c7c3b92560203392a3602060405160018152f35b634a1406b160e11b81526004819052602490fd5b63e602df0560e01b83526004839052602483fd5b50346101505780600319360112610150576040519080600354908160011c916001811680156108b2575b60208410811461035c578386529081156103355750600114610855576102d4846102c8818603826109cf565b600381527fc2575a0e9e593c00f959f8c92f12db2869c3395a3b0502d05e2516446f71f85b939250905b808210610898575090915081016020016102c8826102b8565b91926001816020925483858801015201910190929161087f565b92607f1692610829565b5034610150576020366003190112610150576108d6610955565b6108de610a07565b6001600160a01b031680156109465760075460ff8160a01c16610937576001600160a81b0319168117600160a01b176007557fd6ec0310b00ef1b646c722317ecf365b0c514717923e1d4d8907c7b0398c60218280a280f35b63fac93ec360e01b8352600483fd5b630eb2f5d360e01b8252600482fd5b600435906001600160a01b038216820361096b57565b600080fd5b602435906001600160a01b038216820361096b57565b91909160208152825180602083015260005b8181106109b9575060409293506000838284010152601f8019910116010190565b8060208092870101516040828601015201610998565b90601f8019910116810190811067ffffffffffffffff8211176109f157604052565b634e487b7160e01b600052604160045260246000fd5b6005546001600160a01b03163303610a1b57565b63118cdaa760e01b6000523360045260246000fd5b600092916001600160a01b03909116908115610b69576001600160a01b0316908115610b5557808452836020526040842054838110610b3a57839082865285602052036040852055818452836020526040842083815401905581817fddf252ad1be2c89b69c2b068fc378daa952ba7f163c4a11628f55a4df523b3ef6020604051878152a37f00000000000000000000000000000000000000000000000000000000000000006001600160a01b0316803b15610b365784929183606492604051968795869463230cbe4d60e11b86526004860152602485015260448401525af18015610b2b57610b1e575050565b81610b28916109cf565b50565b6040513d84823e3d90fd5b8480fd5b91506064945063391434e360e21b8452600452602452604452fd5b63ec442f0560e01b84526004849052602484fd5b634b637e8f60e11b84526004849052602484fdfea26469706673582212202bcd34d4de20f75f7ac91c37d0113e7a4c3cee777c99d39dd3f593cc10af8e6864736f6c634300081c003360c03461017e57601f6116c338819003918201601f19168301916001600160401b038311848410176101835780849260609460405283398101031261017e5761004781610199565b90604061005660208301610199565b910151906001600160601b0382169081830361017e576001600160a01b031692831561016857600180546001600160a01b0319908116909155600080549182168617815560405195916001600160a01b0316907f8be0079c531659141344cd1fd0a4f28419497f9722a3daafe3b4186f6b6457e09080a360016002556001600160a01b031690811561015757612710106101465760805260a05261151590816101ae823960805181818161022f015281816104a90152818161062a01528181610b1501528181610f4e01528181610f97015281816110200152611125015260a0518181816105af01526113590152f35b63162908e360e11b60005260046000fd5b63e6c4247b60e01b60005260046000fd5b631e4fbdf760e01b600052600060045260246000fd5b600080fd5b634e487b7160e01b600052604160045260246000fd5b51906001600160a01b038216820361017e5756fe608080604052600436101561001357600080fd5b600090813560e01c9081630afb2dfd14611292575080631206286e146111a957806312065fe0146110f95780632b8dbaa7146110db5780632f940c7014610fc65780633013ce2914610f8157806336022ee814610ec157806336af50fd14610e395780633ec789cf14610e1b578063507a732814610a7d578063673d1a1714610a5f5780636ad1fe0214610a36578063715018a6146109d157806375619ab51461094957806379ba5097146108c45780637bd35af8146108a657806385a04f6f146108115780638da5cb5b146107ea578063ab60636c146107c1578063ad4788371461079e578063aede67ea14610756578063bc1ca3e9146105f1578063bf2d9e0b146105d3578063bf4879f01461058a578063bfe1092814610561578063bff33cea14610543578063c0e9ce5414610526578063cab2556e14610509578063cacd69c014610422578063d4a081e7146103e3578063e0b6a1e314610348578063e30c39781461031f578063efca2eed14610301578063f2fde38b14610294578063f82d288d146101cc5763febd7df2146101ad57600080fd5b346101c957806003193601126101c9576020604051611b588152f35b80fd5b50346101c95760403660031901126101c9576101e66112c9565b600b5460243591906001600160a01b031633036102855781156102765760207f96a653f37606079e67ef7780b058579b147554d1e6c037db00e2ce7f6248ab89916102538430837f0000000000000000000000000000000000000000000000000000000000000000611434565b61025f846003546112df565b6003556040519384526001600160a01b031692a280f35b63162908e360e11b8352600483fd5b6368bacf2160e11b8352600483fd5b50346101c95760203660031901126101c9576102ae6112c9565b6102b66113ad565b600180546001600160a01b0319166001600160a01b0392831690811790915582549091167f38d16b8cac22d99fc7c124b9cd0de2d3fa1faef420bfe791d8c362d765e227008380a380f35b50346101c957806003193601126101c9576020600754604051908152f35b50346101c957806003193601126101c9576001546040516001600160a01b039091168152602090f35b50346101c95760203660031901126101c9576103626112c9565b61036a6113ad565b6001600160a01b031680156103d457600d5460ff8160b01c166103c557600162ff000160a01b0319168117600160b01b17600d557fc6e71e3aee3e0a9e947f36c5d655ee69031cfd09a416c744a4317f82b676e6ba8280a280f35b63a741a04560e01b8352600483fd5b63e6c4247b60e01b8252600482fd5b50346101c95760203660031901126101c95760209060ff906040906001600160a01b0361040e6112c9565b168152600e84522054166040519015158152f35b50346101c95760403660031901126101c95760043561043f6112ae565b906104486113ad565b6104506113d6565b6001600160a01b0382169182156104fa5781156104eb57600a548083116104dc57916104cd816020936104a4827ff851f0abd0151abc88c02c64748cb88a8e0f3e5fe1fef8dd4ada7e0d7257c3df97611302565b600a557f00000000000000000000000000000000000000000000000000000000000000006113f6565b604051908152a2600160025580f35b631a82a05d60e11b8552600485fd5b63162908e360e11b8452600484fd5b63e6c4247b60e01b8452600484fd5b50346101c957806003193601126101c95760206040516103e88152f35b50346101c957806003193601126101c9576020604051610fa08152f35b50346101c957806003193601126101c9576020600454604051908152f35b50346101c957806003193601126101c957600c546040516001600160a01b039091168152602090f35b50346101c957806003193601126101c95760206040516bffffffffffffffffffffffff7f0000000000000000000000000000000000000000000000000000000000000000168152f35b50346101c957806003193601126101c9576020600554604051908152f35b50346101c95760203660031901126101c957600435338252600e60205260ff604083205416156106aa575b801561069b5761064e8130337f0000000000000000000000000000000000000000000000000000000000000000611434565b61065a816005546112df565b600555610669816008546112df565b6008556040519081527f4f271dec3fe02a32d56d4f23f177ea998d107abd373f40a2a0ae7c33fc7277c760203392a280f35b63162908e360e11b8252600482fd5b600d546001600160a01b031680159081156106d5575b501561061c57634c371db360e11b8252600482fd5b60405163e904f66760e01b81523360048201529150602090829060249082905afa90811561074b57839161070c575b5015386106c0565b90506020813d602011610743575b816107276020938361130f565b8101031261073f5751801515810361073f5738610704565b8280fd5b3d915061071a565b6040513d85823e3d90fd5b50346101c957806003193601126101c95760c06003546004546005546007546008549160095493604051958652602086015260408501526060840152608083015260a0820152f35b50346101c957806003193601126101c95760206107b9611347565b604051908152f35b50346101c957806003193601126101c957600d546040516001600160a01b039091168152602090f35b50346101c957806003193601126101c957546040516001600160a01b039091168152602090f35b50346101c95760403660031901126101c95761082b6112c9565b6024359081151580920361073f576108416113ad565b6001600160a01b03169081156108975760207f73e60945fcd9aaf0863c35c2270860c620c7ab1194fac1c19fb35a2d5cdce3a291838552600e82526040852060ff1981541660ff8316179055604051908152a280f35b63e6c4247b60e01b8352600483fd5b50346101c957806003193601126101c9576020600654604051908152f35b50346101c957806003193601126101c957600154336001600160a01b039091160361093657600180546001600160a01b0319908116909155815433918116821783556001600160a01b03167f8be0079c531659141344cd1fd0a4f28419497f9722a3daafe3b4186f6b6457e08380a380f35b63118cdaa760e01b815233600452602490fd5b50346101c95760203660031901126101c9576109636112c9565b61096b6113ad565b6001600160a01b031680156103d457600d5460ff8160a81c166103c557600c80546001600160a01b0319168317905560ff60a81b1916600160a81b17600d557f86719c518c7d99ac94b3d405d462ea876ba5cd0a978461dc9a7c9862a94858868280a280f35b50346101c957806003193601126101c9576109ea6113ad565b600180546001600160a01b03199081169091558154908116825581906001600160a01b03167f8be0079c531659141344cd1fd0a4f28419497f9722a3daafe3b4186f6b6457e08280a380f35b50346101c957806003193601126101c957600b546040516001600160a01b039091168152602090f35b50346101c957806003193601126101c9576020600954604051908152f35b50346101c957806003193601126101c957610a966113ad565b610a9e6113d6565b600c546001600160a01b03168015610e0c57600854906009549083828411610dfc575b6103e884028481046103e81485151715610de857612710900490610fa0810290808204610fa01490151715610de857612710900480821115610de05750915b6040516370a0823160e01b81523060048201527f00000000000000000000000000000000000000000000000000000000000000009392906001600160a01b038516908490602081602481865afa908115610dd5578991610d9f575b50809111610d97575b508694848711610d85575b84610bd2575b877fad48006bd5fccb46a5e25e1cf4e091900c52fac23a2a557c4512e544e2dcef7d608089898989610ba983600a546112df565b600a55604051938452602084015260408301526060820152a18060085580600955600160025580f35b60405163095ea7b360e01b60208083019182526001600160a01b038616602484015260448084018990528352919391908a90610c0f60648761130f565b85519082865af1903d8a519083610d66575b50505015610d21575b5050600c548691506001600160a01b0316803b15610d1d5781906024604051809481936332fa294960e21b83528860048401525af18015610d1257610cd5575b509181608093610c9e7fad48006bd5fccb46a5e25e1cf4e091900c52fac23a2a557c4512e544e2dcef7d96946007546112df565b6007557f868441bc0e3b50e598fc39ab9d370f6cbab5ee4b02c6b19e17eec2647415609c6020604051848152a19193819395610b75565b9185610d0760809593977fad48006bd5fccb46a5e25e1cf4e091900c52fac23a2a557c4512e544e2dcef7d979561130f565b959193509193610c6a565b6040513d88823e3d90fd5b5080fd5b610d59610d5e936040519063095ea7b360e01b6020830152602482015289604482015260448152610d5360648261130f565b82611478565b611478565b388080610c2a565b91925090610d7b57503b15155b388080610c21565b6001915014610d73565b9450610d918487611302565b94610b6f565b935038610b64565b90506020813d602011610dcd575b81610dba6020938361130f565b81010312610dc9575138610b5b565b8880fd5b3d9150610dad565b6040513d8b823e3d90fd5b905091610b00565b634e487b7160e01b86526011600452602486fd5b50610e078284611302565b610ac1565b6312df801960e01b8252600482fd5b50346101c957806003193601126101c9576020600a54604051908152f35b50346101c95760203660031901126101c957610e536112c9565b610e5b6113ad565b6001600160a01b031680156103d457600d5460ff8160a01c166103c557600b80546001600160a01b0319168317905560ff60a01b1916600160a01b17600d557f5c440f49267f20468301aadd4dee6e4929708c2a2660e2a55a294aa8b4f86c9c8280a280f35b50346101c95760403660031901126101c957600435610ede6112ae565b90610ee76113ad565b610eef6113d6565b6001600160a01b0382169182156104fa5781156104eb57610f0e611347565b8211610f7257816104cd81602093610f497f20e6493495a4bd9849c787cd7372a1ea84e2ff1ae55894766b93ec1c78b1a64f966004546112df565b6004557f00000000000000000000000000000000000000000000000000000000000000006113f6565b631a82a05d60e11b8452600484fd5b50346101c957806003193601126101c9576040517f00000000000000000000000000000000000000000000000000000000000000006001600160a01b03168152602090f35b50346101c95760403660031901126101c957600435610fe36112ae565b90610fec6113ad565b610ff46113d6565b6001600160a01b0382169182156104fa5781156104eb576040516370a0823160e01b81523060048201527f0000000000000000000000000000000000000000000000000000000000000000906020816024816001600160a01b0386165afa908115610d125786916110a5575b50831161109657916104cd816020937f23d6711a1d031134a36921253c75aa59e967d38e369ac625992824315e204f20956113f6565b631e9acf1760e31b8552600485fd5b90506020813d6020116110d3575b816110c06020938361130f565b810103126110cf575138611060565b8580fd5b3d91506110b3565b50346101c957806003193601126101c9576020600854604051908152f35b50346101c957806003193601126101c9576040516370a0823160e01b81523060048201526020816024817f00000000000000000000000000000000000000000000000000000000000000006001600160a01b03165afa90811561119e578291611168575b602082604051908152f35b90506020813d602011611196575b816111836020938361130f565b81010312610d1d5760209150513861115d565b3d9150611176565b6040513d84823e3d90fd5b50346101c95760203660031901126101c9576004356111c66113ad565b801561069b57600854611b58810290808204611b58149015171561127e577faba5e5e8f9b4c6d5f8b8077abb57c77bdd3075dc4a36ad8adab91a31af20c511916127106040920460095482918061121d85846112df565b1161124e575b508161122e916112df565b60095561123d816006546112df565b60065582519182526020820152a180f35b909150819080821061126a57505061122e8580925b9150611223565b61122e9161127791611302565b8092611263565b634e487b7160e01b83526011600452602483fd5b905034610d1d5781600319360112610d1d576020906003548152f35b602435906001600160a01b03821682036112c457565b600080fd5b600435906001600160a01b03821682036112c457565b919082018092116112ec57565b634e487b7160e01b600052601160045260246000fd5b919082039182116112ec57565b90601f8019910116810190811067ffffffffffffffff82111761133157604052565b634e487b7160e01b600052604160045260246000fd5b6003546bffffffffffffffffffffffff7f000000000000000000000000000000000000000000000000000000000000000016908181029181830414901517156112ec576127109004600454808211156113a6576113a391611302565b90565b5050600090565b6000546001600160a01b031633036113c157565b63118cdaa760e01b6000523360045260246000fd5b60028054146113e55760028055565b633ee5aeb560e01b60005260046000fd5b60405163a9059cbb60e01b60208201526001600160a01b0392909216602483015260448083019390935291815261143291610d5960648361130f565b565b6040516323b872dd60e01b60208201526001600160a01b03928316602482015292909116604483015260648083019390935291815261143291610d5960848361130f565b906000602091828151910182855af1156114d3576000513d6114ca57506001600160a01b0381163b155b6114a95750565b635274afe760e01b60009081526001600160a01b0391909116600452602490fd5b600114156114a2565b6040513d6000823e3d90fdfea264697066735822122051e40655b6962dd8f6c2a77de5cf2cf0c70ce9346b0079a75c6ccbb3170b662e64736f6c634300081c00336101803461025757601f61136d38819003918201601f19168301916001600160401b0383118484101761025c57808492610100946040528339810103126102575761004981610272565b9061005660208201610272565b61006260408301610272565b61006e60608401610272565b61007a60808501610272565b60a0850151939092906001600160601b0385168086036102575760e06100a260c08901610272565b9701516001600055976001600160a01b03169081158015610246575b8015610235575b610213576001600160a01b03851615610224576001600160a01b03861615610213576103e810610203576080526001600160a01b0390811660a05290811660c05260e09190915261010091909152610120919091521661014052610160526040516110e6908161028782396080518181816106d001528181610c7b0152610e32015260a05181818161025501528181610536015281816109980152610b01015260c051818181610128015281816104a70152610a72015260e05181818161018e015281816101f701528181610807015281816108f80152610d350152610100518181816106ae01528181610c590152610cf301526101205181818161046001528181610a310152610e8101526101405181818161056e01528181610b390152610ded0152610160518181816105fc015281816108c20152610bc70152f35b62bfc92160e01b60005260046000fd5b63162908e360e11b60005260046000fd5b63a7505eb960e01b60005260046000fd5b506001600160a01b038416156100c5565b506001600160a01b038316156100be565b600080fd5b634e487b7160e01b600052604160045260246000fd5b51906001600160a01b03821682036102575756fe608080604052600436101561001357600080fd5b600090813560e01c908163027471b014610ecc5750806305f71b0714610ea557806324a9d85314610e615780633013ce2914610e1c5780633734256e14610dd75780633f4ba83a14610d225780634690484014610cdd5780635c975abb14610cba5780636b4f0e14146109c75780636c9fa59e14610982578063749aa2d9146108e55780637bc3a733146108aa5780638456cb59146107f457806384bc76a6146107b85780638cd221c91461079a57806399530b061461077c578063a7c601601461039e578063c3964372146101dd578063cee51bb7146101bd578063d27fb60714610178578063ebb59d331461015a5763fbfa77cf1461011357600080fd5b346101575780600319360112610157576040517f00000000000000000000000000000000000000000000000000000000000000006001600160a01b03168152602090f35b80fd5b50346101575780600319360112610157576020600354604051908152f35b50346101575780600319360112610157576040517f00000000000000000000000000000000000000000000000000000000000000006001600160a01b03168152602090f35b5034610157578060031936011261015757602060405164e8d4a510008152f35b5034610157576040366003190112610157576024356004357f00000000000000000000000000000000000000000000000000000000000000006001600160a01b0316330361038f5761022d610f78565b610235610f9a565b60ff600554166103805780158015610372575b61036457811561035557827f00000000000000000000000000000000000000000000000000000000000000006001600160a01b0316803b15610351576040516340c10f1960e01b8152306004820152602481018590529082908290604490829084905af180156103465761032d575b505080600255816003556004546000198114610319577fa359b664a68acd8839e42112eb50eff3408165e15074fde89ddb58a0db2e691d916001604092019384600455600160ff19600554161760055582519182526020820152a26001815580f35b634e487b7160e01b84526011600452602484fd5b8161033791610f23565b6103425782386102b7565b8280fd5b6040513d84823e3d90fd5b5080fd5b63162908e360e11b8352600483fd5b62bfc92160e01b8352600483fd5b5064e8d4a510008111610248565b6391d83a1b60e01b8352600483fd5b63a7505eb960e01b8352600483fd5b5034610157576020366003190112610157576004356103bb610f78565b6103c3610f9a565b60ff600554161561076d578015610727577812725dd1d243aba0e75fe645cc4873f9e65afe688c928e1f21811161075e57670de0b6b3a76400008102908104670de0b6b3a76400000361074a5760025490811561073657048015610727576b033b2e3c9fd0803ce80000008111610718576003548082116107095761044782610fb7565b9081156106fa5783906127106104866001600160601b037f00000000000000000000000000000000000000000000000000000000000000001685610eed565b0461049b856104958387610f16565b93610f16565b600355806106a8575b507f00000000000000000000000000000000000000000000000000000000000000006001600160a01b0316803b156103425760405163f82d288d60e01b8152336004820152602481019290925282908290604490829084905af1801561034657610693575b505060405163a9059cbb60e01b815233600482015260248101839052602081604481876001600160a01b037f0000000000000000000000000000000000000000000000000000000000000000165af1908115610655578491610664575b5015610355577f00000000000000000000000000000000000000000000000000000000000000006001600160a01b0316806105e0575b5060209260019160045460405191825284868301527f0831583cced7554a81e1cd091e811afaadc7d575a17fbd354716145bb597efc960403393a355604051908152f35b803b156106605760405163e16fb2f960e01b81523360048201527f00000000000000000000000000000000000000000000000000000000000000006024820152604481018390529084908290606490829084905af18015610655571561059c5761064b848092610f23565b610342573861059c565b6040513d86823e3d90fd5b8380fd5b610686915060203d60201161068c575b61067e8183610f23565b810190610f5b565b38610566565b503d610674565b8161069d91610f23565b610342578238610509565b6106f4907f0000000000000000000000000000000000000000000000000000000000000000337f000000000000000000000000000000000000000000000000000000000000000061100a565b386104a4565b63162908e360e11b8452600484fd5b63e645450960e01b8352600483fd5b634dcb7efd60e11b8252600482fd5b63162908e360e11b8252600482fd5b634e487b7160e01b83526012600452602483fd5b634e487b7160e01b82526011600452602482fd5b63f5c787f160e01b8252600482fd5b633df07da560e01b8252600482fd5b50346101575780600319360112610157576020600254604051908152f35b50346101575780600319360112610157576020600454604051908152f35b5034610157578060031936011261015757608060045460025460035460ff60055416916040519384526020840152604083015215156060820152f35b50346101575780600319360112610157577f00000000000000000000000000000000000000000000000000000000000000006001600160a01b0316330361089b5761083d610f9a565b600160ff19815416176001557f62e78cea01bee320cd4e420270b5ea74000d11b0c9f74754ebdbfc544b05a2586020604051338152a1337fb8fad2fa0ed7a383e747c309ef2c4391d7b65592a48893e57ccc1fab707914568280a280f35b63a7505eb960e01b8152600490fd5b503461015757806003193601126101575760206040517f00000000000000000000000000000000000000000000000000000000000000008152f35b50346101575780600319360112610157577f00000000000000000000000000000000000000000000000000000000000000006001600160a01b0316330361089b5761092e610f78565b60055460ff81161561076d576003549060ff191660055581600355816002557f8868888cc18628a149bc88cc32a91976ab30e2cd9aececb0cfe184a73fe551f9602060045492604051908152a26001815580f35b50346101575780600319360112610157576040517f00000000000000000000000000000000000000000000000000000000000000006001600160a01b03168152602090f35b5034610157576020366003190112610157576004356109e4610f78565b6109ec610f9a565b60ff600554161561076d5780158015610ca5575b610727576003549081811161070957610a1881610fb7565b9182156106fa578390612710610a576001600160601b037f00000000000000000000000000000000000000000000000000000000000000001686610eed565b04610a66846104958388610f16565b60035580610c53575b507f00000000000000000000000000000000000000000000000000000000000000006001600160a01b031690813b156103425760405163f82d288d60e01b8152336004820152602481019190915291908290604490829084905af1801561065557610c3f575b5060405163a9059cbb60e01b815233600482015260248101829052602081604481876001600160a01b037f0000000000000000000000000000000000000000000000000000000000000000165af1908115610655578491610c20575b5015610355577f00000000000000000000000000000000000000000000000000000000000000006001600160a01b031680610bab575b5060209260019160045460405191858352868301527f0831583cced7554a81e1cd091e811afaadc7d575a17fbd354716145bb597efc960403393a355604051908152f35b803b156106605760405163e16fb2f960e01b81523360048201527f00000000000000000000000000000000000000000000000000000000000000006024820152604481018490529084908290606490829084905af180156106555715610b6757610c16848092610f23565b6103425738610b67565b610c39915060203d60201161068c5761067e8183610f23565b38610b31565b83610c4c91949294610f23565b9138610ad5565b610c9f907f0000000000000000000000000000000000000000000000000000000000000000337f000000000000000000000000000000000000000000000000000000000000000061100a565b38610a6f565b506b033b2e3c9fd0803ce80000008111610a00565b5034610157578060031936011261015757602060ff600154166040519015158152f35b50346101575780600319360112610157576040517f00000000000000000000000000000000000000000000000000000000000000006001600160a01b03168152602090f35b50346101575780600319360112610157577f00000000000000000000000000000000000000000000000000000000000000006001600160a01b0316330361089b5760015460ff811615610dc85760ff19166001557f5db9ee0a495bf2e6ff9c91a7834c1ba4fdd244a5e8aa4e537bd38aeae4b073aa6020604051338152a1337ff5cbf596165cc457b2cd92e8d8450827ee314968160a5696402d75766fc52caf8280a280f35b638dfc202b60e01b8252600482fd5b50346101575780600319360112610157576040517f00000000000000000000000000000000000000000000000000000000000000006001600160a01b03168152602090f35b50346101575780600319360112610157576040517f00000000000000000000000000000000000000000000000000000000000000006001600160a01b03168152602090f35b503461015757806003193601126101575760206040516001600160601b037f0000000000000000000000000000000000000000000000000000000000000000168152f35b503461015757806003193601126101575760206040516b033b2e3c9fd0803ce80000008152f35b90503461035157816003193601126103515760209060ff6005541615158152f35b81810292918115918404141715610f0057565b634e487b7160e01b600052601160045260246000fd5b91908203918211610f0057565b90601f8019910116810190811067ffffffffffffffff821117610f4557604052565b634e487b7160e01b600052604160045260246000fd5b90816020910312610f7357518015158103610f735790565b600080fd5b600260005414610f89576002600055565b633ee5aeb560e01b60005260046000fd5b60ff60015416610fa657565b63d93c066560e01b60005260046000fd5b600254908115610ff45781600019048111610fe357670de0b6b3a764000091610fdf91610eed565b0490565b63f5c787f160e01b60005260046000fd5b634e487b7160e01b600052601260045260246000fd5b6040516323b872dd60e01b60208083019182526001600160a01b0394851660248401529490931660448201526064808201959095529384529260009190611052608482610f23565b519082855af1156110a4576000513d61109b57506001600160a01b0381163b155b61107a5750565b635274afe760e01b60009081526001600160a01b0391909116600452602490fd5b60011415611073565b6040513d6000823e3d90fdfea264697066735822122009e8a22ae6ea8f8e77188ca236948a3173c7c7c9db957fad704b58f10093c32164736f6c634300081c0033a2646970667358221220ca29f0e8898454441318eae244b0200b70efc2bfbbea83525e121939b6abf7c164736f6c634300081c003360803461010a57601f6110df38819003918201601f19168301916001600160401b0383118484101761010f5780849260609460405283398101031261010a5761004781610125565b61005f604061005860208501610125565b9301610125565b6001600160a01b039091169182156100f457600080546001600160a01b031981168517825560405194916001600160a01b03909116907f8be0079c531659141344cd1fd0a4f28419497f9722a3daafe3b4186f6b6457e09080a3600880546001600160a01b039283166001600160a01b03199182161790915560098054939092169216919091179055610fa5908161013a8239f35b631e4fbdf760e01b600052600060045260246000fd5b600080fd5b634e487b7160e01b600052604160045260246000fd5b51906001600160a01b038216820361010a5756fe6080604052600436101561001257600080fd5b60003560e01c80632e25f8b214610cda578063399bdf2a14610c7f5780633fc9092014610a7c5780634a9273f014610a3157806360798ea91461096557806366d0ead314610926578063715018a6146108cd57806371e250e31461087c5780637435f9111461081d5780638da5cb5b146107f457806398eaa4a714610720578063b10fafe4146106f7578063b530a6ea14610599578063bbe15627146104ab578063bbe22cc81461042d578063c51aba2b14610404578063d67d3f7914610390578063e16fb2f914610240578063eb22ae11146101865763f2fde38b146100f857600080fd5b3461018157602036600319011261018157610111610d60565b610119610f46565b6001600160a01b0316801561016b57600080546001600160a01b03198116831782556001600160a01b0316907f8be0079c531659141344cd1fd0a4f28419497f9722a3daafe3b4186f6b6457e09080a3005b631e4fbdf760e01b600052600060045260246000fd5b600080fd5b34610181576020366003190112610181576001600160a01b036101a7610d60565b16600052600260205260406000206040518060208354918281520190819360005260206000209060005b81811061022a57505050816101e7910382610de2565b6040519182916020830190602084525180915260408301919060005b818110610211575050500390f35b8251845285945060209384019390920191600101610203565b82548452602090930192600192830192016101d1565b346101815761024e36610e7f565b909133600052600a60205261026a60ff60406000205416610ea9565b60018060a01b03169081600052600360205260406000208360005260205260ff60406000205416156102e9575b60207fbcada874badf13d9ef982c752ad12b07cad5d130d8500a9aee7b577ffbf3a029918360005260048252604060002085600052825260406000206102de828254610ef5565b9055604051908152a3005b816000526002602052604060002090815490600160401b82101561037a5761033a827fbcada874badf13d9ef982c752ad12b07cad5d130d8500a9aee7b577ffbf3a029946001602095018155610f18565b81549060031b9087821b91600019901b1916179055836000526003825260406000208560005282526040600020600160ff19825416179055915050610297565b634e487b7160e01b600052604160045260246000fd5b34610181576040366003190112610181576103a9610d60565b6103b1610d76565b9060018060a01b0316600052600760205260406000209060018060a01b0316600052602052604080600020602082516103e981610dc6565b60018354938483520154918291015282519182526020820152f35b34610181576000366003190112610181576008546040516001600160a01b039091168152602090f35b346101815760207f8f118c6a001774bbdf5c8f7bf58cd1796b9a139343d43350cd4e40f25d520b6361045e36610e7f565b929193909333600052600a825261047c60ff60406000205416610ea9565b60018060a01b0316928360005260048252604060002085600052825260016040600020016102de828254610ef5565b34610181576020366003190112610181576001600160a01b036104cc610d60565b1660005260016020526040600020604051600082546104ea81610e04565b8084529060018116908115610576575060011461053a575b50600161052e936105178460ff940385610de2565b015416604051928392604084526040840190610e3e565b90151560208301520390f35b6000848152602081209092505b81831061055c57505081016020016001610502565b600181602092949394548385880101520191019190610547565b60ff191660208086019190915291151560051b8401909101915060019050610502565b34610181576105a736610d8c565b9133600052600a6020526105c260ff60406000205416610ea9565b60018060a01b031690816000526006602052604060002060018060a01b03821660005260205260ff604060002054161561065b575b60207f175a07343ca072b9aeeb678e64cc046eaa7e90c22e8acc9d4f737c17d5fd7f87918360005260078252604060002060018060a01b03821660005282526040600020610646868254610ef5565b90556040519485526001600160a01b031693a3005b816000526005602052604060002090815490600160401b82101561037a576106ac827f175a07343ca072b9aeeb678e64cc046eaa7e90c22e8acc9d4f737c17d5fd7f87946001602095018155610f18565b81546001600160a01b0384811660039390931b83811b91901b1990911617909155600085815260068452604080822092825291909352909120805460ff1916600117905590506105f7565b34610181576000366003190112610181576009546040516001600160a01b039091168152602090f35b3461018157602036600319011261018157610739610d60565b6008546001600160a01b0316331480156107e0575b1561079b576001600160a01b03166000818152600a60205260408120805460ff191660011790557f8983a1f3c3cb45c24c8226b5b805e3b6eb49686530b808534b2a920129eff6519080a2005b60405162461bcd60e51b815260206004820152601d60248201527f4f6e6c7920726567697374726965732063616e20617574686f72697a650000006044820152606490fd5b506009546001600160a01b0316331461074e565b34610181576000366003190112610181576000546040516001600160a01b039091168152602090f35b3461018157604036600319011261018157610836610d60565b61083e610d76565b9060018060a01b0316600052600760205260406000209060018060a01b03166000526020526040806000206001815491015482519182526020820152f35b34610181576040366003190112610181576001600160a01b0361089d610d60565b16600052600460205260406000206024356000526020526040806000206001815491015482519182526020820152f35b34610181576000366003190112610181576108e6610f46565b600080546001600160a01b0319811682556001600160a01b03167f8be0079c531659141344cd1fd0a4f28419497f9722a3daafe3b4186f6b6457e08280a3005b34610181576020366003190112610181576001600160a01b03610947610d60565b16600052600a602052602060ff604060002054166040519015158152f35b34610181576020366003190112610181576001600160a01b03610986610d60565b16600052600560205260406000206040518060208354918281520190819360005260206000209060005b818110610a1257505050816109c6910382610de2565b6040519182916020830190602084525180915260408301919060005b8181106109f0575050500390f35b82516001600160a01b03168452859450602093840193909201916001016109e2565b82546001600160a01b03168452602090930192600192830192016109b0565b34610181576040366003190112610181576001600160a01b03610a52610d60565b1660005260046020526040600020602435600052602052604080600020602082516103e981610dc6565b346101815760203660031901126101815760043567ffffffffffffffff8111610181573660238201121561018157806004013567ffffffffffffffff811161037a5760405191610ad6601f8301601f191660200184610de2565b81835236602483830101116101815781600092602460209301838601378301015260405190610b0482610dc6565b80825260208201600181523360005260016020526040600020925192835167ffffffffffffffff811161037a57610b3b8254610e04565b601f8111610c37575b506020601f8211600114610bce5781906001949596600092610bc3575b5050600019600383901b1c191690831b1781555b019051151560ff801983541691161790557fdd635a4cd84864e37e4479dbfc2ec667acfa473c83c8422a8ac9d9d07599b01c6040516020815280610bbe33946020830190610e3e565b0390a2005b015190508680610b61565b601f1982169583600052816000209660005b818110610c1f5750916001959697918487959410610c06575b505050811b018155610b75565b015160001960f88460031b161c19169055868080610bf9565b83830151895560019098019760209384019301610be0565b826000526020600020601f830160051c81019160208410610c75575b601f0160051c01905b818110610c695750610b44565b60008155600101610c5c565b9091508190610c53565b3461018157604036600319011261018157610c98610d60565b610ca0610d76565b90610ca9610f46565b600880546001600160a01b039283166001600160a01b03199182161790915560098054939092169216919091179055005b34610181577f9c0fb5f38e476a04750b19a48973b409b1c6ac778d557053f0aa522be612362e6020610d0b36610d8c565b939192909233600052600a8252610d2960ff60406000205416610ea9565b60018060a01b0316928360005260078252604060002060018060a01b03821660005282526001604060002001610646868254610ef5565b600435906001600160a01b038216820361018157565b602435906001600160a01b038216820361018157565b6060906003190112610181576004356001600160a01b038116810361018157906024356001600160a01b0381168103610181579060443590565b6040810190811067ffffffffffffffff82111761037a57604052565b90601f8019910116810190811067ffffffffffffffff82111761037a57604052565b90600182811c92168015610e34575b6020831014610e1e57565b634e487b7160e01b600052602260045260246000fd5b91607f1691610e13565b919082519283825260005b848110610e6a575050826000602080949584010152601f8019910116010190565b80602080928401015182828601015201610e49565b6060906003190112610181576004356001600160a01b038116810361018157906024359060443590565b15610eb057565b60405162461bcd60e51b815260206004820152601860248201527f43616c6c6572206973206e6f7420617574686f72697a656400000000000000006044820152606490fd5b91908201809211610f0257565b634e487b7160e01b600052601160045260246000fd5b8054821015610f305760005260206000200190600090565b634e487b7160e01b600052603260045260246000fd5b6000546001600160a01b03163303610f5a57565b63118cdaa760e01b6000523360045260246000fdfea26469706673582212207a4869884126caf970c4dc2084ee327f2f9c65d36e16205bc31dd77d61b56e5e64736f6c634300081c0033",
  "linkReferences": {},
  "deployedLinkReferences": {}
}