{
  "_format": "hh-sol-artifact-1",
  "contractName": "CompanyRegistry",
  "sourceName": "contracts/CompanyShares/CompanyRegistry.sol",
  "abi": [
    {
      "inputs": [
        {
          "internalType": "address",
          "name": "_paymentToken",
          "type": "address"
        },
        {
          "internalType": "uint96",
          "name": "_platformFeeBps",
          "type": "uint96"
        },
        {
          "internalType": "address",
          "name": "_platformFeeRecipient",
          "type": "address"
        },
        {
          "internalType": "address",
          "name": "_freelancerFactory",
          "type": "address"
        }
      ],
      "stateMutability": "nonpayable",
      "type": "constructor"
    },
    {
      "inputs": [],
      "name": "CompanyNotFound",
      "type": "error"
    },
    {
      "inputs": [],
      "name": "EmptyNameOrSymbol",
      "type": "error"
    },
    {
      "inputs": [],
      "name": "FeeTooHigh",
      "type": "error"
    },
    {
      "inputs": [],
      "name": "InvalidAddress",
      "type": "error"
    },
    {
      "inputs": [],
      "name": "InvalidFeeRecipient",
      "type": "error"
    },
    {
      "inputs": [],
      "name": "InvalidPaymentToken",
      "type": "error"
    },
    {
      "inputs": [],
      "name": "InvalidWithdrawBps",
      "type": "error"
    },
    {
      "inputs": [],
      "name": "MetadataURITooLong",
      "type": "error"
    },
    {
      "inputs": [],
      "name": "NoFreelancerProfile",
      "type": "error"
    },
    {
      "inputs": [
        {
          "internalType": "address",
          "name": "owner",
          "type": "address"
        }
      ],
      "name": "OwnableInvalidOwner",
      "type": "error"
    },
    {
      "inputs": [
        {
          "internalType": "address",
          "name": "account",
          "type": "address"
        }
      ],
      "name": "OwnableUnauthorizedAccount",
      "type": "error"
    },
    {
      "inputs": [],
      "name": "OwnerAlreadyHasCompany",
      "type": "error"
    },
    {
      "anonymous": false,
      "inputs": [
        {
          "indexed": true,
          "internalType": "uint256",
          "name": "companyId",
          "type": "uint256"
        },
        {
          "indexed": true,
          "internalType": "address",
          "name": "owner",
          "type": "address"
        },
        {
          "indexed": false,
          "internalType": "address",
          "name": "token",
          "type": "address"
        },
        {
          "indexed": false,
          "internalType": "address",
          "name": "sale",
          "type": "address"
        },
        {
          "indexed": false,
          "internalType": "address",
          "name": "vault",
          "type": "address"
        },
        {
          "indexed": false,
          "internalType": "address",
          "name": "distributor",
          "type": "address"
        },
        {
          "indexed": false,
          "internalType": "string",
          "name": "metadataURI",
          "type": "string"
        },
        {
          "indexed": false,
          "internalType": "string",
          "name": "sector",
          "type": "string"
        }
      ],
      "name": "CompanyCreated",
      "type": "event"
    },
    {
      "anonymous": false,
      "inputs": [
        {
          "indexed": true,
          "internalType": "address",
          "name": "previousOwner",
          "type": "address"
        },
        {
          "indexed": true,
          "internalType": "address",
          "name": "newOwner",
          "type": "address"
        }
      ],
      "name": "OwnershipTransferStarted",
      "type": "event"
    },
    {
      "anonymous": false,
      "inputs": [
        {
          "indexed": true,
          "internalType": "address",
          "name": "previousOwner",
          "type": "address"
        },
        {
          "indexed": true,
          "internalType": "address",
          "name": "newOwner",
          "type": "address"
        }
      ],
      "name": "OwnershipTransferred",
      "type": "event"
    },
    {
      "anonymous": false,
      "inputs": [
        {
          "indexed": false,
          "internalType": "uint96",
          "name": "feeBps",
          "type": "uint96"
        },
        {
          "indexed": false,
          "internalType": "address",
          "name": "recipient",
          "type": "address"
        }
      ],
      "name": "PlatformFeeUpdated",
      "type": "event"
    },
    {
      "inputs": [],
      "name": "acceptOwnership",
      "outputs": [],
      "stateMutability": "nonpayable",
      "type": "function"
    },
    {
      "inputs": [
        {
          "internalType": "uint256",
          "name": "",
          "type": "uint256"
        }
      ],
      "name": "companies",
      "outputs": [
        {
          "internalType": "address",
          "name": "owner",
          "type": "address"
        },
        {
          "internalType": "address",
          "name": "token",
          "type": "address"
        },
        {
          "internalType": "address",
          "name": "sale",
          "type": "address"
        },
        {
          "internalType": "address",
          "name": "vault",
          "type": "address"
        },
        {
          "internalType": "address",
          "name": "distributor",
          "type": "address"
        },
        {
          "internalType": "string",
          "name": "metadataURI",
          "type": "string"
        },
        {
          "internalType": "string",
          "name": "sector",
          "type": "string"
        },
        {
          "internalType": "bool",
          "name": "exists",
          "type": "bool"
        }
      ],
      "stateMutability": "view",
      "type": "function"
    },
    {
      "inputs": [
        {
          "internalType": "string",
          "name": "name",
          "type": "string"
        },
        {
          "internalType": "string",
          "name": "symbol",
          "type": "string"
        },
        {
          "internalType": "string",
          "name": "metadataURI",
          "type": "string"
        },
        {
          "internalType": "string",
          "name": "sector",
          "type": "string"
        },
        {
          "internalType": "address",
          "name": "smartWalletAddress",
          "type": "address"
        }
      ],
      "name": "createCompany",
      "outputs": [
        {
          "internalType": "uint256",
          "name": "companyId",
          "type": "uint256"
        }
      ],
      "stateMutability": "nonpayable",
      "type": "function"
    },
    {
      "inputs": [],
      "name": "freelancerFactory",
      "outputs": [
        {
          "internalType": "contract IFreelancerFactory",
          "name": "",
          "type": "address"
        }
      ],
      "stateMutability": "view",
      "type": "function"
    },
    {
      "inputs": [
        {
          "internalType": "uint256",
          "name": "companyId",
          "type": "uint256"
        }
      ],
      "name": "getCompany",
      "outputs": [
        {
          "components": [
            {
              "internalType": "address",
              "name": "owner",
              "type": "address"
            },
            {
              "internalType": "address",
              "name": "token",
              "type": "address"
            },
            {
              "internalType": "address",
              "name": "sale",
              "type": "address"
            },
            {
              "internalType": "address",
              "name": "vault",
              "type": "address"
            },
            {
              "internalType": "address",
              "name": "distributor",
              "type": "address"
            },
            {
              "internalType": "string",
              "name": "metadataURI",
              "type": "string"
            },
            {
              "internalType": "string",
              "name": "sector",
              "type": "string"
            },
            {
              "internalType": "bool",
              "name": "exists",
              "type": "bool"
            }
          ],
          "internalType": "struct CompanyRegistry.Company",
          "name": "",
          "type": "tuple"
        }
      ],
      "stateMutability": "view",
      "type": "function"
    },
    {
      "inputs": [],
      "name": "getCompanyCount",
      "outputs": [
        {
          "internalType": "uint256",
          "name": "",
          "type": "uint256"
        }
      ],
      "stateMutability": "view",
      "type": "function"
    },
    {
      "inputs": [],
      "name": "investorRegistry",
      "outputs": [
        {
          "internalType": "contract InvestorRegistry",
          "name": "",
          "type": "address"
        }
      ],
      "stateMutability": "view",
      "type": "function"
    },
    {
      "inputs": [
        {
          "internalType": "address",
          "name": "smartWalletAddress",
          "type": "address"
        }
      ],
      "name": "linkFreelancerProfile",
      "outputs": [],
      "stateMutability": "nonpayable",
      "type": "function"
    },
    {
      "inputs": [],
      "name": "nextCompanyId",
      "outputs": [
        {
          "internalType": "uint256",
          "name": "",
          "type": "uint256"
        }
      ],
      "stateMutability": "view",
      "type": "function"
    },
    {
      "inputs": [],
      "name": "owner",
      "outputs": [
        {
          "internalType": "address",
          "name": "",
          "type": "address"
        }
      ],
      "stateMutability": "view",
      "type": "function"
    },
    {
      "inputs": [
        {
          "internalType": "address",
          "name": "",
          "type": "address"
        }
      ],
      "name": "ownerToCompanyId",
      "outputs": [
        {
          "internalType": "uint256",
          "name": "",
          "type": "uint256"
        }
      ],
      "stateMutability": "view",
      "type": "function"
    },
    {
      "inputs": [],
      "name": "paymentToken",
      "outputs": [
        {
          "internalType": "contract IERC20",
          "name": "",
          "type": "address"
        }
      ],
      "stateMutability": "view",
      "type": "function"
    },
    {
      "inputs": [],
      "name": "pendingOwner",
      "outputs": [
        {
          "internalType": "address",
          "name": "",
          "type": "address"
        }
      ],
      "stateMutability": "view",
      "type": "function"
    },
    {
      "inputs": [],
      "name": "platformFeeBps",
      "outputs": [
        {
          "internalType": "uint96",
          "name": "",
          "type": "uint96"
        }
      ],
      "stateMutability": "view",
      "type": "function"
    },
    {
      "inputs": [],
      "name": "platformFeeRecipient",
      "outputs": [
        {
          "internalType": "address",
          "name": "",
          "type": "address"
        }
      ],
      "stateMutability": "view",
      "type": "function"
    },
    {
      "inputs": [],
      "name": "renounceOwnership",
      "outputs": [],
      "stateMutability": "nonpayable",
      "type": "function"
    },
    {
      "inputs": [
        {
          "internalType": "uint96",
          "name": "_feeBps",
          "type": "uint96"
        },
        {
          "internalType": "address",
          "name": "_recipient",
          "type": "address"
        }
      ],
      "name": "setPlatformFee",
      "outputs": [],
      "stateMutability": "nonpayable",
      "type": "function"
    },
    {
      "inputs": [
        {
          "internalType": "address",
          "name": "",
          "type": "address"
        }
      ],
      "name": "tokenToCompanyId",
      "outputs": [
        {
          "internalType": "uint256",
          "name": "",
          "type": "uint256"
        }
      ],
      "stateMutability": "view",
      "type": "function"
    },
    {
      "inputs": [],
      "name": "totalCompanies",
      "outputs": [
        {
          "internalType": "uint256",
          "name": "",
          "type": "uint256"
        }
      ],
      "stateMutability": "view",
      "type": "function"
    },
    {
      "inputs": [
        {
          "internalType": "address",
          "name": "newOwner",
          "type": "address"
        }
      ],
      "name": "transferOwnership",
      "outputs": [],
      "stateMutability": "nonpayable",
      "type": "function"
    }
  ],
  "bytecode": "0x60a03461022e57601f61786f38819003918201601f19168301916001600160401b038311848410176101be5780849260809460405283398101031261022e5761004781610233565b602082015190916001600160601b0382169182810361022e57610078606061007160408501610233565b9301610233565b9133156102185760008054336001600160a01b0319821681178355604051979290916001600160a01b0316907f8be0079c531659141344cd1fd0a4f28419497f9722a3daafe3b4186f6b6457e09080a360016005556001600160a01b0316908115610207576001600160a01b03169283156101f6576001600160a01b03169384156101e5576103e8106101d45760805260a01b6001600160a01b031990811660015560028054821692909217909155600480549091169190911790556110ca818101906001600160401b038211838310176101be5760609183916167a58339338152306020820152600060408201520301906000f080156101b257600380546001600160a01b0319166001600160a01b039290921691909117905560405161655d908161024882396080518181816103d701526114a70152f35b6040513d6000823e3d90fd5b634e487b7160e01b600052604160045260246000fd5b63cd4e616760e01b60005260046000fd5b63e6c4247b60e01b60005260046000fd5b630ed1b8b360e31b60005260046000fd5b6356e7ec5f60e01b60005260046000fd5b631e4fbdf760e01b600052600060045260246000fd5b600080fd5b51906001600160a01b038216820361022e5756fe608080604052600436101561001357600080fd5b600090813560e01c90816284c3c6146115e35750806322dcd13e146115c25780632813d19d146114ff5780632ce606e3146114d65780633013ce29146114915780633734256e146114685780633b4cc7a31461016b5780634af62228146112fa5780634dfafb80146112c157806357d1391714611126578063715018a6146110d357806379ba5097146110605780638da5cb5b14611039578063c0ab848b146102d6578063d8d3c829146102b8578063decc4a6a146101db578063e30c3978146101b2578063eb13554f14610189578063f07826401461016b5763f2fde38b146100fc57600080fd5b3461016857602036600319011261016857610115611619565b61011d61189a565b600180546001600160a01b0319166001600160a01b0392831690811790915582549091167f38d16b8cac22d99fc7c124b9cd0de2d3fa1faef420bfe791d8c362d765e227008380a380f35b80fd5b50346101685780600319360112610168576020600654604051908152f35b50346101685780600319360112610168576002546040516001600160a01b039091168152602090f35b50346101685780600319360112610168576001546040516001600160a01b039091168152602090f35b5034610168576040366003190112610168576004356001600160601b038116908181036102b4576024356001600160a01b03811691908290036102b05761022061189a565b81156102a1576103e8831161029257600180546001600160a01b031960a09390931b83166001600160a01b0390911617905560028054909116821790556040805192835260208301919091527fbad9436335ddabdd6fc56ea571323eb7dcfc0e82e9dbaf786bbb2a2ad6de573c91a180f35b63cd4e616760e01b8452600484fd5b630ed1b8b360e31b8452600484fd5b8380fd5b8280fd5b50346101685780600319360112610168576020600554604051908152f35b50346101685760a0366003190112610168576004356001600160401b038111611035576103079036906004016117a8565b906024356001600160401b0381116102b0576103279036906004016117a8565b9390916044356001600160401b0381116102b4576103499036906004016117a8565b926064356001600160401b038111611035576103699036906004016117a8565b9095909360843591906001600160a01b03831683036102b05733845260086020526040842054611026578815801561101e575b61100f57610200871161100057600554986103b68a61180e565b6005556103c460065461180e565b6006556003546040516001600160a01b037f000000000000000000000000000000000000000000000000000000000000000081169592610f9280840192909116908383106001600160401b03841117610de857918e84926080946118c485398983523060208401526040830152606082015203019087f09b8c15610e15576003546001600160a01b0316803b15610ffc576040516398eaa4a760e01b81526001600160a01b038f1660048201529088908290602490829084905af18015610ff157908891610fdc575b50506040519361104880860194906001600160401b03861187871017610de857869594926104db94926104cd926128568939608087526080870191611833565b918483036020860152611833565b6001600160a01b038d16604083015230606090920191909152039084f08015610fd1576001600160a01b038a163b156102b05783808b6024604051809481936340f797bb60e01b835260018060a01b038816600484015260018060a01b03165af18015610fc657908591610fb1575b50506040516118d8808201906001600160401b03821183831017610f9d57608091839161389e8339858152306020820152612710604082015230606082015203019085f0918215610c54576001600160a01b038416610ecb575b6001600160a01b038b163b15610e115784808c602460405180948193636817031b60e01b835260018060a01b038a16600484015260018060a01b03165af18015610e1557908691610eb6575b505060025460015460035460405193611392808601946001600160a01b039384169460a01c931691906001600160401b03861187871017610ea25791610100959391879593615176873984526001600160a01b03888116602086015289166040850152336060850152608084015260a083015260c082015260e081018d905203019085f0998a15610c54576003546001600160a01b0316803b15610e9e576040516398eaa4a760e01b81526001600160a01b038d1660048201529086908290602490829084905af18015610e1557908691610e89575b50506001600160a01b0383163b15610e11576040516336af50fd60e01b81526001600160a01b038c81166004830152869082906024908290849089165af18015610e1557908691610e74575b50506001600160a01b0383163b15610e11576040516375619ab560e01b81526001600160a01b038281166004830152869082906024908290849089165af18015610e1557908691610e5f575b50506001600160a01b0382163b15610e1157604051630164f49160e21b81526001600160a01b038c81166004830152869082906024908290849088165af18015610e1557908691610e4a575b50506001600160a01b0382163b15610e115760405163f2fde38b60e01b81523360048201528581602481836001600160a01b0388165af18015610e1557908691610e35575b50506001600160a01b0381163b15610e115760405163f2fde38b60e01b81523360048201528581602481836001600160a01b0387165af18015610e1557908691610e20575b50506001600160a01b0383163b15610e115760405163f2fde38b60e01b81523360048201528581602481836001600160a01b0389165af18015610e1557908691610dfc575b50506040519a6108888c61166e565b338c526001600160a01b0383811660208e015290811660408d015283811660608d01521660808b01526108bc368887611854565b60a08b019081526108ce36888b611854565b9060c08c0191825260e08c0191600183528b8752600760205260408720918d60018060a01b039060018060a01b039051161660018060a01b03198454161783558d602060018060a01b0391015116600184019060018060a01b031660018060a01b03198254161790558d604060018060a01b0391015116600284019060018060a01b031660018060a01b03198254161790558d606060018060a01b0391015116600384019060018060a01b031660018060a01b03198254161790558d608060018060a01b0391015116600484019060018060a01b031660018060a01b031982541617905560058301905180519060018060401b038211610de85781906109d48454611634565b601f8111610d98575b50602090601f8311600114610d35578b92610d2a575b50508160011b916000199060031b1c19161790555b51805160068301916001600160401b038211610d1657610a288354611634565b601f8111610cd1575b50602090601f8311600114610c6a576007949392918a9183610c5f575b50508160011b916000199060031b1c19161790555b019051151560ff80198354169116179055338452600860205288604085205560018060a01b03168352600960205287604084205560018060a01b038216151560018060a01b038316610bd4575b610b58575b5050506020808701516040808901516060808b015160809b8c015184516001600160a01b0396871681529386168488015290851693830193909352919092169082015260c0978101889052909686947f82a18a1c20175ae0a4283562e1f223917e9fdc4c5eb19c887f44135f60e38cb49492938493610b4d939092610b3d9291860191611833565b9083820360a08501523397611833565b0390a3604051908152f35b6004546001600160a01b031690813b156102b05760405163032dabbf60e41b815292849284929091839185918391610b9f916001600160a01b0390911690600484016117f4565b03925af18015610bc957610bb4575b80610ab5565b610bbf8280926116a0565b6101685780610bae565b6040513d84823e3d90fd5b5060048054604051630f5664e760e31b81526001600160a01b03858116938201939093529160209183916024918391165afa908115610c54578491610c25575b506001600160a01b03161515610ab0565b610c47915060203d602011610c4d575b610c3f81836116a0565b8101906117d5565b38610c14565b503d610c35565b6040513d86823e3d90fd5b015190503880610a4e565b838a52818a209190601f1984168b5b818110610cb9575091600193918560079897969410610ca0575b505050811b019055610a63565b015160001960f88460031b161c19169055388080610c93565b92936020600181928786015181550195019301610c79565b838a5260208a20601f840160051c81019160208510610d0c575b601f0160051c01905b818110610d015750610a31565b8a8155600101610cf4565b9091508190610ceb565b634e487b7160e01b89526041600452602489fd5b0151905038806109f3565b848c52818c209250601f1984168c5b818110610d805750908460019594939210610d67575b505050811b019055610a08565b015160001960f88460031b161c19169055388080610d5a565b92936020600181928786015181550195019301610d44565b909150838b5260208b20601f840160051c81019160208510610dde575b90601f859493920160051c01905b818110610dd057506109dd565b8c8155849350600101610dc3565b9091508190610db5565b634e487b7160e01b8a52604160045260248afd5b81610e06916116a0565b610e11578438610879565b8480fd5b6040513d88823e3d90fd5b81610e2a916116a0565b610e11578438610834565b81610e3f916116a0565b610e115784386107ef565b81610e54916116a0565b610e115784386107aa565b81610e69916116a0565b610e1157843861075e565b81610e7e916116a0565b610e11578438610712565b81610e93916116a0565b610e115784386106c6565b8580fd5b634e487b7160e01b8b52604160045260248bfd5b81610ec0916116a0565b610e115784386105f0565b60048054604051630f5664e760e31b81526001600160a01b03878116938201939093529160209183916024918391165afa908115610e15578691610f7e575b506001600160a01b031680610f20575b506105a4565b6001600160a01b03841690813b15610f7a57869160248392604051948593849263e0b6a1e360e01b845260048401525af18015610e1557908691610f65575b50610f1a565b81610f6f916116a0565b610e11578438610f5f565b8680fd5b610f97915060203d602011610c4d57610c3f81836116a0565b38610f0a565b634e487b7160e01b87526041600452602487fd5b81610fbb916116a0565b6102b057833861054a565b6040513d87823e3d90fd5b6040513d85823e3d90fd5b81610fe6916116a0565b610f7a57863861048d565b6040513d8a823e3d90fd5b8780fd5b630c76c24560e11b8452600484fd5b639432241960e01b8452600484fd5b50891561039c565b632c8075bf60e21b8452600484fd5b5080fd5b5034610168578060031936011261016857546040516001600160a01b039091168152602090f35b5034610168578060031936011261016857600154336001600160a01b03909116036110c057600180546001600160a01b0319908116909155815433918116821783556001600160a01b03166000805160206165088339815191528380a380f35b63118cdaa760e01b815233600452602490fd5b50346101685780600319360112610168576110ec61189a565b600180546001600160a01b03199081169091558154908116825581906001600160a01b03166000805160206165088339815191528280a380f35b503461016857602036600319011261016857600435908060e060405161114b8161166e565b828152826020820152826040820152826060820152826080820152606060a0820152606060c08201520152818152600760205260ff600760408320015416156112b25760409181526007602052206040516111a58161166e565b81546001600160a01b039081168252600183015481166020830190815260028401548216604084019081526003850154831660608501908152600486015490931660808501908152919490926112a4926112919190611206600585016116c3565b9160a0880192835260ff600761121e600688016116c3565b60c08b8101918252919097015491909116151560e08a019081526040805160208082529b516001600160a01b039081169c82019c909c529b518b16908c01529751891660608b01529051881660808a0152905190961660a088015251610100958701959095528594610120860190611767565b9051848203601f190160e0860152611767565b905115156101008301520390f35b6302de3a2360e61b8152600490fd5b5034610168576020366003190112610168576020906040906001600160a01b036112e9611619565b168152600983522054604051908152f35b503461016857602036600319011261016857611314611619565b90338152600860205260408120549182156114595760048054604051630f5664e760e31b81526001600160a01b038481169382019390935291169390602081602481885afa908115610c5457849161143a575b506001600160a01b031690811561142b578352600760205260408320600301546001600160a01b031691843b156102b057826113bc9585928360405180998195829463032dabbf60e41b8452600484016117f4565b03925af18015610fd157611416575b829350813b1561141257829160248392604051948593849263e0b6a1e360e01b845260048401525af18015610bc9576114015750f35b8161140b916116a0565b6101685780f35b5050fd5b91909281611423916116a0565b9082906113cb565b630c7ef6eb60e31b8452600484fd5b611453915060203d602011610c4d57610c3f81836116a0565b38611367565b6302de3a2360e61b8252600482fd5b50346101685780600319360112610168576003546040516001600160a01b039091168152602090f35b50346101685780600319360112610168576040517f00000000000000000000000000000000000000000000000000000000000000006001600160a01b03168152602090f35b50346101685780600319360112610168576004546040516001600160a01b039091168152602090f35b503461016857602036600319011261016857600480358252600760205260409091208054600182015460028301546003840154948401546001600160a01b039283169593831694918316936115b6936115a8929181169116611563600585016116c3565b9160ff6007611574600688016116c3565b9601541696604051998a998a5260208a015260408901526060880152608087015261010060a0870152610100860190611767565b9084820360c0860152611767565b90151560e08301520390f35b5034610168578060031936011261016857602060015460a01c604051908152f35b905034611035576020366003190112611035576020916040906001600160a01b0361160c611619565b1681526008845220548152f35b600435906001600160a01b038216820361162f57565b600080fd5b90600182811c92168015611664575b602083101461164e57565b634e487b7160e01b600052602260045260246000fd5b91607f1691611643565b61010081019081106001600160401b0382111761168a57604052565b634e487b7160e01b600052604160045260246000fd5b601f909101601f19168101906001600160401b0382119082101761168a57604052565b90604051918260008254926116d784611634565b808452936001811690811561174557506001146116fe575b506116fc925003836116a0565b565b90506000929192526020600020906000915b8183106117295750509060206116fc92820101386116ef565b6020919350806001915483858901015201910190918492611710565b9050602092506116fc94915060ff191682840152151560051b820101386116ef565b919082519283825260005b848110611793575050826000602080949584010152601f8019910116010190565b80602080928401015182828601015201611772565b9181601f8401121561162f578235916001600160401b03831161162f576020838186019501011161162f57565b9081602091031261162f57516001600160a01b038116810361162f5790565b6001600160a01b0391821681529116602082015260400190565b600019811461181d5760010190565b634e487b7160e01b600052601160045260246000fd5b908060209392818452848401376000828201840152601f01601f1916010190565b9192916001600160401b03821161168a576040519161187d601f8201601f1916602001846116a0565b82948184528183011161162f578281602093846000960137010152565b6000546001600160a01b031633036118ae57565b63118cdaa760e01b6000523360045260246000fdfe60e03461015957601f610f9238819003918201601f19168301916001600160401b0383118484101761015e578084926080946040528339810103126101595761004781610174565b9061005460208201610174565b90606061006360408301610174565b9101516001600160a01b0390921692831561014357600180546001600160a01b0319908116909155600080549182168617815560405195916001600160a01b0316907f8be0079c531659141344cd1fd0a4f28419497f9722a3daafe3b4186f6b6457e09080a360016002556001600160a01b03168015610132576080526001600160a01b031660a05260c052610e099081610189823960805181818161037f015281816104bc01526108e8015260a0518181816108a30152610c6d015260c0518181816105ac0152610cee0152f35b63e6c4247b60e01b60005260046000fd5b631e4fbdf760e01b600052600060045260246000fd5b600080fd5b634e487b7160e01b600052604160045260246000fd5b51906001600160a01b03821682036101595756fe6080604052600436101561001257600080fd5b60003560e01c806327ce0147146109175780633013ce29146108d25780633734256e1461088d5780633a7960e01461086f57806340f797bb146107e857806346197c9a146107ac5780634e71d92d146107885780636817031b146106fc5780636c9fa59e146106d3578063700060d814610699578063715018a61461064657806379ba5097146105cf5780637bc3a733146105945780638da5cb5b1461056b578063a8b9d24014610540578063bd68700e14610488578063c371acab1461046b578063cbe8a524146102a5578063d54ad2a114610287578063ddeae0331461024f578063de3aaf6114610215578063e30c3978146101ec578063f2fde38b1461017b578063fbfa77cf146101525763ff50abdc1461012f57600080fd5b3461014d57600036600319011261014d576020600854604051908152f35b600080fd5b3461014d57600036600319011261014d576004546040516001600160a01b039091168152602090f35b3461014d57602036600319011261014d5761019461093a565b61019c610bbc565b600180546001600160a01b0319166001600160a01b0392831690811790915560008054919291909116907f38d16b8cac22d99fc7c124b9cd0de2d3fa1faef420bfe791d8c362d765e227009080a3005b3461014d57600036600319011261014d576001546040516001600160a01b039091168152602090f35b3461014d57602036600319011261014d576001600160a01b0361023661093a565b1660005260076020526020604060002054604051908152f35b3461014d57602036600319011261014d57602061027a61026d61093a565b610275610bd0565b610bf0565b6001600255604051908152f35b3461014d57600036600319011261014d576020600954604051908152f35b3461014d57602036600319011261014d576004356102c1610bd0565b6004546001600160a01b0316330361045a578015610449576103e88110610438576003546001600160a01b03168015610427576020600491604051928380926318160ddd60e01b82525afa90811561041b576000916103e6575b5080156103d5577fb9ebcb18b045f112fc4335f8a337b6daef95ab3d79fcaf32aab73f57e6b12f81916103b06040926103a384516323b872dd60e01b60208201523360248201523060448201528460648201526064815261037d608482610950565b7f0000000000000000000000000000000000000000000000000000000000000000610d58565b8260801b04600554610baf565b806005556103c082600854610baf565b60085582519182526020820152a16001600255005b63b317087b60e01b60005260046000fd5b906020823d602011610413575b8161040060209383610950565b810103126104105750518261031b565b80fd5b3d91506103f3565b6040513d6000823e3d90fd5b63e6c4247b60e01b60005260046000fd5b63617ab12d60e11b60005260046000fd5b63162908e360e11b60005260046000fd5b638d1af8bd60e01b60005260046000fd5b3461014d57600036600319011261014d5760206040516103e88152f35b3461014d57600036600319011261014d576008546009546040516370a0823160e01b815230600482015291906020836024817f00000000000000000000000000000000000000000000000000000000000000006001600160a01b03165afa90811561041b5760009161050b575b6060935060405192835260208301526040820152f35b90506020833d602011610538575b8161052660209383610950565b8101031261014d5760609251906104f5565b3d9150610519565b3461014d57602036600319011261014d57602061056361055e61093a565b610b78565b604051908152f35b3461014d57600036600319011261014d576000546040516001600160a01b039091168152602090f35b3461014d57600036600319011261014d5760206040517f00000000000000000000000000000000000000000000000000000000000000008152f35b3461014d57600036600319011261014d57600154336001600160a01b039091160361063157600180546001600160a01b03199081169091556000805433928116831782556001600160a01b031690600080516020610db48339815191529080a3005b63118cdaa760e01b6000523360045260246000fd5b3461014d57600036600319011261014d5761065f610bbc565b600180546001600160a01b0319908116909155600080549182168155906001600160a01b0316600080516020610db48339815191528280a3005b3461014d57602036600319011261014d576001600160a01b036106ba61093a565b1660005260066020526020604060002054604051908152f35b3461014d57600036600319011261014d576003546040516001600160a01b039091168152602090f35b3461014d57602036600319011261014d5761071561093a565b61071d610bbc565b6001600160a01b031680156104275760045460ff8160a81c1661077757600161ff0160a01b0319168117600160a81b176004557fe7ae49f883c825b05681b3e00e8be6fdea9ed2a8a45e4c6ecb9390fc44cce615600080a2005b63a741a04560e01b60005260046000fd5b3461014d57600036600319011261014d576107a1610bd0565b602061027a33610bf0565b3461014d57606036600319011261014d576107c561093a565b602435906001600160a01b038216820361014d576107e69160443591610a95565b005b3461014d57602036600319011261014d5761080161093a565b610809610bbc565b6001600160a01b031680156104275760045460ff8160a01c1661077757600380546001600160a01b0319168317905560ff60a01b1916600160a01b176004557fdb40a5259506fa101ac4485d4ccbd019c99ada5fb7212fe1254374f7a10e02dc600080a2005b3461014d57600036600319011261014d576020600554604051908152f35b3461014d57600036600319011261014d576040517f00000000000000000000000000000000000000000000000000000000000000006001600160a01b03168152602090f35b3461014d57600036600319011261014d576040517f00000000000000000000000000000000000000000000000000000000000000006001600160a01b03168152602090f35b3461014d57602036600319011261014d57602061056361093561093a565b6109bb565b600435906001600160a01b038216820361014d57565b601f909101601f19168101906001600160401b0382119082101761097357604052565b634e487b7160e01b600052604160045260246000fd5b919091600083820193841291129080158216911516176109a557565b634e487b7160e01b600052601160045260246000fd5b6003546001600160a01b03168015610a41576040516370a0823160e01b81526001600160a01b039092166004830181905290602090839060249082905afa91821561041b57600092610a48575b508115610a4157610a2c916005540290600052600660205260406000205490610989565b6000811315610a3b5760801c90565b50600090565b5050600090565b90916020823d602011610a74575b81610a6360209383610950565b810103126104105750519038610a08565b3d9150610a56565b818103929160001380158285131691841216176109a557565b6003549092906001600160a01b03163303610b67578015610b625760055402916001600160ff1b038311610b51576001600160a01b031680610af6575060018060a01b03166000526006602052610af26040600020918254610a7c565b9055565b906001600160a01b031680610b1e57506000526006602052610af26040600020918254610989565b9060005260066020526040600020610b37838254610989565b90556000526006602052610af26040600020918254610a7c565b63125a110760e21b60005260046000fd5b505050565b633a5c639960e01b60005260046000fd5b610b81816109bb565b6001600160a01b0390911660009081526007602052604090205480821115610a415781039081116109a55790565b919082018092116109a557565b6000546001600160a01b0316330361063157565b6002805414610bdf5760028055565b633ee5aeb560e01b60005260046000fd5b600091906001600160a01b038116908115610d4957610c0e90610b78565b928315610d4457818152600760205260408120610c2c858254610baf565b9055610c3a84600954610baf565b600955610c6b60405163a9059cbb60e01b60208201528360248201528560448201526044815261037d606482610950565b7f00000000000000000000000000000000000000000000000000000000000000006001600160a01b031680610cc9575b50507f5efa67896a23b651b741b525caacba039c00ca7853be3de8eb1f4269e8669c566020604051858152a2565b803b15610d405781809160646040518094819363177c459960e31b83528860048401527f000000000000000000000000000000000000000000000000000000000000000060248401528a60448401525af18015610d355715610c9b5781610d2f91610950565b38610c9b565b6040513d84823e3d90fd5b5080fd5b925050565b63e6c4247b60e01b8452600484fd5b906000602091828151910182855af11561041b576000513d610daa57506001600160a01b0381163b155b610d895750565b635274afe760e01b60009081526001600160a01b0391909116600452602490fd5b60011415610d8256fe8be0079c531659141344cd1fd0a4f28419497f9722a3daafe3b4186f6b6457e0a264697066735822122011f8ba5e0a6045896bf7c951aafafa9fa8bad652e643caa9e345d2cac8a3b0b164736f6c634300081c003360a0604052346103f25761104880380380610019816103f7565b9283398101906080818303126103f25780516001600160401b0381116103f2578261004591830161041c565b602082015190926001600160401b0382116103f25761006591830161041c565b9061007e606061007760408401610487565b9201610487565b83516001600160401b0381116102fb57600354600181811c911680156103e8575b60208210146102db57601f8111610383575b50602094601f821160011461031c57948192939495600092610311575b50508160011b916000199060031b1c1916176003555b82516001600160401b0381116102fb57600454600181811c911680156102f1575b60208210146102db57601f8111610276575b506020601f821160011461020f5781929394600092610204575b50508160011b916000199060031b1c1916176004555b6001600160a01b03169081156101ee57600680546001600160a01b0319908116909155600580549182168417905560405192906001600160a01b03167f8be0079c531659141344cd1fd0a4f28419497f9722a3daafe3b4186f6b6457e0600080a36001600160a01b031680156101dd57608052610bac908161049c8239608051818181610210015281816105280152610a700152f35b630eb2f5d360e01b60005260046000fd5b631e4fbdf760e01b600052600060045260246000fd5b015190503880610131565b601f198216906004600052806000209160005b81811061025e57509583600195969710610245575b505050811b01600455610147565b015160001960f88460031b161c19169055388080610237565b9192602060018192868b015181550194019201610222565b60046000527f8a35acfbc15ff81a39ae7d344fd709f28e8600b4aa8c65c6b64bfe7fe36bd19b601f830160051c810191602084106102d1575b601f0160051c01905b8181106102c55750610117565b600081556001016102b8565b90915081906102af565b634e487b7160e01b600052602260045260246000fd5b90607f1690610105565b634e487b7160e01b600052604160045260246000fd5b0151905038806100ce565b601f198216956003600052806000209160005b88811061036b57508360019596979810610352575b505050811b016003556100e4565b015160001960f88460031b161c19169055388080610344565b9192602060018192868501518155019401920161032f565b60036000527fc2575a0e9e593c00f959f8c92f12db2869c3395a3b0502d05e2516446f71f85b601f830160051c810191602084106103de575b601f0160051c01905b8181106103d257506100b1565b600081556001016103c5565b90915081906103bc565b90607f169061009f565b600080fd5b6040519190601f01601f191682016001600160401b038111838210176102fb57604052565b81601f820112156103f2578051906001600160401b0382116102fb5761044b601f8301601f19166020016103f7565b92828452602083830101116103f25760005b82811061047257505060206000918301015290565b8060208092840101518282870101520161045d565b51906001600160a01b03821682036103f25756fe6080604052600436101561001257600080fd5b6000803560e01c80630593d2441461088657806306fdde03146107c9578063095ea7b31461071f57806318160ddd1461070157806323b872dd14610620578063313ce5671461060457806340c10f19146104a657806370a082311461046e578063715018a61461041957806379ba5097146103a35780638da5cb5b1461037a57806395d89b4114610271578063a9059cbb1461023f578063bfe10928146101fa578063daf6ca30146101d1578063dd62ed3e1461017c578063e30c3978146101535763f2fde38b146100e357600080fd5b34610150576020366003190112610150576100fc61091f565b6101046109d2565b600680546001600160a01b0319166001600160a01b039283169081179091556005549091167f38d16b8cac22d99fc7c124b9cd0de2d3fa1faef420bfe791d8c362d765e227008380a380f35b80fd5b50346101505780600319360112610150576006546040516001600160a01b039091168152602090f35b503461015057604036600319011261015057604061019861091f565b916101a161093a565b9260018060a01b031681526001602052209060018060a01b03166000526020526020604060002054604051908152f35b50346101505780600319360112610150576007546040516001600160a01b039091168152602090f35b50346101505780600319360112610150576040517f00000000000000000000000000000000000000000000000000000000000000006001600160a01b03168152602090f35b50346101505760403660031901126101505761026661025c61091f565b60243590336109fb565b602060405160018152f35b50346101505780600319360112610150576040519080600454908160011c91600181168015610370575b60208410811461035c5783865290811561033557506001146102d8575b6102d4846102c881860382610999565b60405191829182610950565b0390f35b600481527f8a35acfbc15ff81a39ae7d344fd709f28e8600b4aa8c65c6b64bfe7fe36bd19b939250905b80821061031b575090915081016020016102c8826102b8565b919260018160209254838588010152019101909291610302565b60ff191660208087019190915292151560051b850190920192506102c891508390506102b8565b634e487b7160e01b83526022600452602483fd5b92607f169261029b565b50346101505780600319360112610150576005546040516001600160a01b039091168152602090f35b5034610150578060031936011261015057600654336001600160a01b039091160361040657600680546001600160a01b0319908116909155600580543392811683179091556001600160a01b0316600080516020610b378339815191528380a380f35b63118cdaa760e01b815233600452602490fd5b50346101505780600319360112610150576104326109d2565b600680546001600160a01b031990811690915560058054918216905581906001600160a01b0316600080516020610b378339815191528280a380f35b5034610150576020366003190112610150576020906040906001600160a01b0361049661091f565b1681528083522054604051908152f35b5034610150576040366003190112610150576104c061091f565b60075460243591906001600160a01b031633036105f5576001600160a01b031680156105e65781156105d7576002548281018091116105c3576002558290806105ad5782600254036002555b8082600080516020610b578339815191526020604051878152a37f00000000000000000000000000000000000000000000000000000000000000006001600160a01b031692833b156105a9576064839283604051968794859363230cbe4d60e11b8552836004860152602485015260448401525af1801561059c5761058e5780f35b61059791610999565b388180f35b50604051903d90823e3d90fd5b8280fd5b808252816020526040822083815401905561050c565b634e487b7160e01b84526011600452602484fd5b63199f5a0360e31b8352600483fd5b6357da576f60e11b8352600483fd5b6368bacf2160e11b8352600483fd5b5034610150578060031936011261015057602060405160128152f35b50346101505760603660031901126101505761063a61091f565b61064261093a565b6001600160a01b0382168084526001602090815260408086203387529091528420546044359391600019821061067f575b505061026693506109fb565b8482106106e65780156106d25733156106be5760408686926102669852600160205281812060018060a01b033316825260205220910390553880610673565b634a1406b160e11b86526004869052602486fd5b63e602df0560e01b86526004869052602486fd5b6064868684637dc7a0d960e11b835233600452602452604452fd5b50346101505780600319360112610150576020600254604051908152f35b50346101505760403660031901126101505761073961091f565b6024359033156107b5576001600160a01b03169182156107a15760408291338152600160205281812085825260205220556040519081527f8c5be1e5ebec7d5bd14f71427d1e84f3dd0314c0f7b2291e5b200ac8c7c3b92560203392a3602060405160018152f35b634a1406b160e11b81526004819052602490fd5b63e602df0560e01b83526004839052602483fd5b50346101505780600319360112610150576040519080600354908160011c9160018116801561087c575b60208410811461035c57838652908115610335575060011461081f576102d4846102c881860382610999565b600381527fc2575a0e9e593c00f959f8c92f12db2869c3395a3b0502d05e2516446f71f85b939250905b808210610862575090915081016020016102c8826102b8565b919260018160209254838588010152019101909291610849565b92607f16926107f3565b5034610150576020366003190112610150576108a061091f565b6108a86109d2565b6001600160a01b031680156109105760075460ff8160a01c16610901576001600160a81b0319168117600160a01b176007557fd6ec0310b00ef1b646c722317ecf365b0c514717923e1d4d8907c7b0398c60218280a280f35b63fac93ec360e01b8352600483fd5b630eb2f5d360e01b8252600482fd5b600435906001600160a01b038216820361093557565b600080fd5b602435906001600160a01b038216820361093557565b91909160208152825180602083015260005b818110610983575060409293506000838284010152601f8019910116010190565b8060208092870101516040828601015201610962565b601f909101601f19168101906001600160401b038211908210176109bc57604052565b634e487b7160e01b600052604160045260246000fd5b6005546001600160a01b031633036109e657565b63118cdaa760e01b6000523360045260246000fd5b600092916001600160a01b03909116908115610b22576001600160a01b0316908115610b0e57808452836020526040842054838110610af35783908286528560205203604085205581845283602052604084208381540190558181600080516020610b578339815191526020604051878152a37f00000000000000000000000000000000000000000000000000000000000000006001600160a01b0316803b15610aef5784929183606492604051968795869463230cbe4d60e11b86526004860152602485015260448401525af18015610ae457610ad7575050565b81610ae191610999565b50565b6040513d84823e3d90fd5b8480fd5b91506064945063391434e360e21b8452600452602452604452fd5b63ec442f0560e01b84526004849052602484fd5b634b637e8f60e11b84526004849052602484fdfe8be0079c531659141344cd1fd0a4f28419497f9722a3daafe3b4186f6b6457e0ddf252ad1be2c89b69c2b068fc378daa952ba7f163c4a11628f55a4df523b3efa2646970667358221220f46f565305c2d64ce0c17a23aa9f9975e1bf1fba58aa6c6a752262c88a88631f64736f6c634300081c003360e0346101c757601f6118d838819003918201601f19168301916001600160401b038311848410176101cc578084926080946040528339810103126101c757610047816101e2565b90610054602082016101e2565b604082015190916001600160601b038216908183036101c757606061007991016101e2565b6001600160a01b039093169384156101b157600180546001600160a01b0319908116909155600080549182168717815560405196916001600160a01b0316907f8be0079c531659141344cd1fd0a4f28419497f9722a3daafe3b4186f6b6457e09080a360016002556001600160a01b03169081156101a05761271060009111610191576001600160a01b03841615610182575060805260a05260c0526116e190816101f7823960805181818161025b015281816105220152818161069f01528181610bb601528181610f85015281816110bf01528181611126015281816111af01526112b4015260a05181818161061901526114c8015260c05181818161040f015261094f0152f35b63e6c4247b60e01b8152600490fd5b63162908e360e11b8152600490fd5b63e6c4247b60e01b60005260046000fd5b631e4fbdf760e01b600052600060045260246000fd5b600080fd5b634e487b7160e01b600052604160045260246000fd5b51906001600160a01b03821682036101c75756fe608080604052600436101561001357600080fd5b600090813560e01c9081630afb2dfd1461140d575080631206286e1461133857806312065fe0146112885780632b8dbaa71461126a5780632f940c70146111555780633013ce291461111057806330484a97146110f257806336022ee8146110325780633608031d14610f1a57806336af50fd14610e9b5780633ec789cf14610e7d578063507a732814610b1e578063673d1a1714610b005780636ad1fe0214610ad7578063715018a614610a8457806375619ab5146109f157806379ba50971461097e5780637b103999146109395780637bd35af81461091b57806385a04f6f146108865780638da5cb5b1461085f578063ab60636c14610836578063ad47883714610813578063aede67ea146107cb578063bc1ca3e914610666578063bf2d9e0b14610648578063bf4879f014610603578063bfe10928146105da578063bff33cea146105bc578063c0e9ce541461059f578063cab2556e14610582578063cacd69c01461049b578063cdad61111461047d578063d4a081e71461043e578063e0b6a1e314610374578063e30c39781461034b578063efca2eed1461032d578063f2fde38b146102c0578063f82d288d146101f85763febd7df2146101d957600080fd5b346101f557806003193601126101f5576020604051611b588152f35b80fd5b50346101f55760403660031901126101f557610212611444565b600b5460243591906001600160a01b031633036102b15781156102a25760207f96a653f37606079e67ef7780b058579b147554d1e6c037db00e2ce7f6248ab899161027f8430837f00000000000000000000000000000000000000000000000000000000000000006115c0565b61028b8460035461145a565b6003556040519384526001600160a01b031692a280f35b63162908e360e11b8352600483fd5b6368bacf2160e11b8352600483fd5b50346101f55760203660031901126101f5576102da611444565b6102e2611525565b600180546001600160a01b0319166001600160a01b0392831690811790915582549091167f38d16b8cac22d99fc7c124b9cd0de2d3fa1faef420bfe791d8c362d765e227008380a380f35b50346101f557806003193601126101f5576020600754604051908152f35b50346101f557806003193601126101f5576001546040516001600160a01b039091168152602090f35b50346101f55760203660031901126101f55761038e611444565b81546001600160a01b03163314158061040b575b6103fd576001600160a01b031680156103ee57600d80546001600160a01b031916821790557fc6e71e3aee3e0a9e947f36c5d655ee69031cfd09a416c744a4317f82b676e6ba8280a280f35b63e6c4247b60e01b8252600482fd5b6282b42960e81b8252600482fd5b50337f00000000000000000000000000000000000000000000000000000000000000006001600160a01b031614156103a2565b50346101f55760203660031901126101f55760209060ff906040906001600160a01b03610469611444565b168152601084522054166040519015158152f35b50346101f557806003193601126101f557602060405162278d008152f35b50346101f55760403660031901126101f5576004356104b8611429565b906104c1611525565b6104c961154e565b6001600160a01b03821691821561057357811561056457600a5480831161055557916105468160209361051d827ff851f0abd0151abc88c02c64748cb88a8e0f3e5fe1fef8dd4ada7e0d7257c3df9761147d565b600a557f0000000000000000000000000000000000000000000000000000000000000000611589565b604051908152a2600160025580f35b631a82a05d60e11b8552600485fd5b63162908e360e11b8452600484fd5b63e6c4247b60e01b8452600484fd5b50346101f557806003193601126101f55760206040516103e88152f35b50346101f557806003193601126101f5576020604051610fa08152f35b50346101f557806003193601126101f5576020600454604051908152f35b50346101f557806003193601126101f557600c546040516001600160a01b039091168152602090f35b50346101f557806003193601126101f5576040517f00000000000000000000000000000000000000000000000000000000000000006001600160601b03168152602090f35b50346101f557806003193601126101f5576020600554604051908152f35b50346101f55760203660031901126101f557600435338252601060205260ff6040832054161561071f575b8015610710576106c38130337f00000000000000000000000000000000000000000000000000000000000000006115c0565b6106cf8160055461145a565b6005556106de8160085461145a565b6008556040519081527f4f271dec3fe02a32d56d4f23f177ea998d107abd373f40a2a0ae7c33fc7277c760203392a280f35b63162908e360e11b8252600482fd5b600d546001600160a01b0316801590811561074a575b501561069157634c371db360e11b8252600482fd5b60405163e904f66760e01b81523360048201529150602090829060249082905afa9081156107c0578391610781575b501538610735565b90506020813d6020116107b8575b8161079c6020938361148a565b810103126107b4575180151581036107b45738610779565b8280fd5b3d915061078f565b6040513d85823e3d90fd5b50346101f557806003193601126101f55760c06003546004546005546007546008549160095493604051958652602086015260408501526060840152608083015260a0820152f35b50346101f557806003193601126101f557602061082e6114c3565b604051908152f35b50346101f557806003193601126101f557600d546040516001600160a01b039091168152602090f35b50346101f557806003193601126101f557546040516001600160a01b039091168152602090f35b50346101f55760403660031901126101f5576108a0611444565b602435908115158092036107b4576108b6611525565b6001600160a01b031690811561090c5760207f73e60945fcd9aaf0863c35c2270860c620c7ab1194fac1c19fb35a2d5cdce3a291838552601082526040852060ff1981541660ff8316179055604051908152a280f35b63e6c4247b60e01b8352600483fd5b50346101f557806003193601126101f5576020600654604051908152f35b50346101f557806003193601126101f5576040517f00000000000000000000000000000000000000000000000000000000000000006001600160a01b03168152602090f35b50346101f557806003193601126101f557600154336001600160a01b03909116036109de57600180546001600160a01b0319908116909155815433918116821783556001600160a01b031660008051602061168c8339815191528380a380f35b63118cdaa760e01b815233600452602490fd5b50346101f55760203660031901126101f557610a0b611444565b610a13611525565b6001600160a01b031680156103ee57600f5460ff8160081c16610a7557600c80546001600160a01b0319168317905561ff00191661010017600f557f86719c518c7d99ac94b3d405d462ea876ba5cd0a978461dc9a7c9862a94858868280a280f35b63a741a04560e01b8352600483fd5b50346101f557806003193601126101f557610a9d611525565b600180546001600160a01b03199081169091558154908116825581906001600160a01b031660008051602061168c8339815191528280a380f35b50346101f557806003193601126101f557600b546040516001600160a01b039091168152602090f35b50346101f557806003193601126101f5576020600954604051908152f35b50346101f557806003193601126101f557610b37611525565b610b3f61154e565b600c546001600160a01b03168015610e6e57600854906009549083828411610e5e575b6103e884028481046103e81485151715610e4a57612710900490610fa0810290808204610fa01490151715610e4a57612710900480821115610e425750915b6040516370a0823160e01b81523060048201527f00000000000000000000000000000000000000000000000000000000000000009392906001600160a01b038516908490602081602481865afa908115610e37578991610e01575b50809111610df9575b508694848711610de7575b84610c61575b8760008051602061166c833981519152608089898989610c3883600a5461145a565b600a55604051938452602084015260408301526060820152a18060085580600955600160025580f35b6040519160208981850163095ea7b360e01b8152610c9586610c878b8a6024840161156e565b03601f19810188528761148a565b85519082865af1903d8a519083610dc8575b50505015610d83575b5050600c548691506001600160a01b0316803b15610d7f5781906024604051809481936332fa294960e21b83528860048401525af18015610d7457610d49575b509181608093610d1260008051602061166c833981519152969460075461145a565b6007557f868441bc0e3b50e598fc39ab9d370f6cbab5ee4b02c6b19e17eec2647415609c6020604051848152a19193819395610c16565b9185610d69608095939760008051602061166c833981519152979561148a565b959193509193610cf0565b6040513d88823e3d90fd5b5080fd5b610dbb610dc0936040519063095ea7b360e01b6020830152602482015289604482015260448152610db560648261148a565b82611604565b611604565b388080610cb0565b91925090610ddd57503b15155b388080610ca7565b6001915014610dd5565b9450610df3848761147d565b94610c10565b935038610c05565b90506020813d602011610e2f575b81610e1c6020938361148a565b81010312610e2b575138610bfc565b8880fd5b3d9150610e0f565b6040513d8b823e3d90fd5b905091610ba1565b634e487b7160e01b86526011600452602486fd5b50610e69828461147d565b610b62565b6312df801960e01b8252600482fd5b50346101f557806003193601126101f5576020600a54604051908152f35b50346101f55760203660031901126101f557610eb5611444565b610ebd611525565b6001600160a01b031680156103ee57600f5460ff8116610a7557600b80546001600160a01b0319168317905560ff1916600117600f557f5c440f49267f20468301aadd4dee6e4929708c2a2660e2a55a294aa8b4f86c9c8280a280f35b50346101f55760203660031901126101f557600435610f37611525565b610f3f61154e565b600e548015159081611007575b50610ff857801561071057600854808211610fe95781610f6b9161147d565b60085542600e558154610fa99082906001600160a01b03167f0000000000000000000000000000000000000000000000000000000000000000611589565b81546040519182526001600160a01b0316907ff9cce2ebdc9cd2f2de5f2595df1a8f7700638f557b467e8ad57cadcfc855caa990602090a2600160025580f35b631a82a05d60e11b8352600483fd5b63085de62560e01b8252600482fd5b905062278d00810180911161101e57421038610f4c565b634e487b7160e01b83526011600452602483fd5b50346101f55760403660031901126101f55760043561104f611429565b90611058611525565b61106061154e565b6001600160a01b0382169182156105735781156105645761107f6114c3565b82116110e35781610546816020936110ba7f20e6493495a4bd9849c787cd7372a1ea84e2ff1ae55894766b93ec1c78b1a64f9660045461145a565b6004557f0000000000000000000000000000000000000000000000000000000000000000611589565b631a82a05d60e11b8452600484fd5b50346101f557806003193601126101f5576020600e54604051908152f35b50346101f557806003193601126101f5576040517f00000000000000000000000000000000000000000000000000000000000000006001600160a01b03168152602090f35b50346101f55760403660031901126101f557600435611172611429565b9061117b611525565b61118361154e565b6001600160a01b038216918215610573578115610564576040516370a0823160e01b81523060048201527f0000000000000000000000000000000000000000000000000000000000000000906020816024816001600160a01b0386165afa908115610d74578691611234575b5083116112255791610546816020937f23d6711a1d031134a36921253c75aa59e967d38e369ac625992824315e204f2095611589565b631e9acf1760e31b8552600485fd5b90506020813d602011611262575b8161124f6020938361148a565b8101031261125e5751386111ef565b8580fd5b3d9150611242565b50346101f557806003193601126101f5576020600854604051908152f35b50346101f557806003193601126101f5576040516370a0823160e01b81523060048201526020816024817f00000000000000000000000000000000000000000000000000000000000000006001600160a01b03165afa90811561132d5782916112f7575b602082604051908152f35b90506020813d602011611325575b816113126020938361148a565b81010312610d7f576020915051386112ec565b3d9150611305565b6040513d84823e3d90fd5b50346101f55760203660031901126101f557600435611355611525565b801561071057600854611b58810290808204611b58149015171561101e577faba5e5e8f9b4c6d5f8b8077abb57c77bdd3075dc4a36ad8adab91a31af20c51191612710604092046009548291806113ac858461145a565b116113dd575b50816113bd9161145a565b6009556113cc8160065461145a565b60065582519182526020820152a180f35b90915081908082106113f95750506113bd8580925b91506113b2565b6113bd916114069161147d565b80926113f2565b905034610d7f5781600319360112610d7f576020906003548152f35b602435906001600160a01b038216820361143f57565b600080fd5b600435906001600160a01b038216820361143f57565b9190820180921161146757565b634e487b7160e01b600052601160045260246000fd5b9190820391821161146757565b601f909101601f19168101906001600160401b038211908210176114ad57604052565b634e487b7160e01b600052604160045260246000fd5b6003547f00000000000000000000000000000000000000000000000000000000000000006001600160601b031680820291801590830490911417156114675761271090046004548082111561151e5761151b9161147d565b90565b5050600090565b6000546001600160a01b0316330361153957565b63118cdaa760e01b6000523360045260246000fd5b600280541461155d5760028055565b633ee5aeb560e01b60005260046000fd5b6001600160a01b039091168152602081019190915260400190565b610dbb6115be93926115b060405194859263a9059cbb60e01b60208501526024840161156e565b03601f19810184528361148a565b565b6040516323b872dd60e01b60208201526001600160a01b0392831660248201529290911660448301526064808301939093529181526115be91610dbb60848361148a565b906000602091828151910182855af11561165f576000513d61165657506001600160a01b0381163b155b6116355750565b635274afe760e01b60009081526001600160a01b0391909116600452602490fd5b6001141561162e565b6040513d6000823e3d90fdfead48006bd5fccb46a5e25e1cf4e091900c52fac23a2a557c4512e544e2dcef7d8be0079c531659141344cd1fd0a4f28419497f9722a3daafe3b4186f6b6457e0a26469706673582212201c5c3b2b5ec41b30d8141eed6778589bbb82b00d3734de68a5377a5aaaf7bb4f64736f6c634300081c00336101803461025757601f61139238819003918201601f19168301916001600160401b0383118484101761025c57808492610100946040528339810103126102575761004981610272565b9061005660208201610272565b61006260408301610272565b61006e60608401610272565b61007a60808501610272565b60a0850151939092906001600160601b0385168086036102575760e06100a260c08901610272565b9701516001600055976001600160a01b03169081158015610246575b8015610235575b610213576001600160a01b03851615610224576001600160a01b03861615610213576103e810610203576080526001600160a01b0390811660a05290811660c05260e091909152610100919091526101209190915216610140526101605260405161110b908161028782396080518181816106b501528181610c460152610dfc015260a0518181816102550152818161052d0152818161097d0152610ade015260c051818181610128015281816104a30152610a57015260e05181818161018e015281816101f7015281816107ec015281816108dd0152610cff01526101005181818161069301528181610c240152610cbd01526101205181818161045401528181610a0e0152610e4101526101405181818161056d01528181610b1e0152610db70152610160518181816105ed015281816108a70152610b9e0152f35b62bfc92160e01b60005260046000fd5b63162908e360e11b60005260046000fd5b63a7505eb960e01b60005260046000fd5b506001600160a01b038416156100c5565b506001600160a01b038316156100be565b600080fd5b634e487b7160e01b600052604160045260246000fd5b51906001600160a01b03821682036102575756fe608080604052600436101561001357600080fd5b600090813560e01c908163027471b014610e975750806305f71b0714610e7057806324a9d85314610e2b5780633013ce2914610de65780633734256e14610da15780633f4ba83a14610cec5780634690484014610ca75780635c975abb14610c845780636b4f0e14146109ac5780636c9fa59e14610967578063749aa2d9146108ca5780637bc3a7331461088f5780638456cb59146107d957806384bc76a61461079d5780638cd221c91461077f57806399530b0614610761578063a7c601601461039b578063c3964372146101dd578063cee51bb7146101bd578063d27fb60714610178578063ebb59d331461015a5763fbfa77cf1461011357600080fd5b346101575780600319360112610157576040517f00000000000000000000000000000000000000000000000000000000000000006001600160a01b03168152602090f35b80fd5b50346101575780600319360112610157576020600354604051908152f35b50346101575780600319360112610157576040517f00000000000000000000000000000000000000000000000000000000000000006001600160a01b03168152602090f35b5034610157578060031936011261015757602060405164e8d4a510008152f35b5034610157576040366003190112610157576024356004357f00000000000000000000000000000000000000000000000000000000000000006001600160a01b0316330361038c5761022d610f7d565b610235610f9f565b60ff6005541661037d578015801561036f575b61036157811561035257827f00000000000000000000000000000000000000000000000000000000000000006001600160a01b0316803b1561034e578160405180926340c10f1960e01b82528183816102a58a3060048401610f27565b03925af180156103435761032a575b505080600255816003556004546000198114610316577fa359b664a68acd8839e42112eb50eff3408165e15074fde89ddb58a0db2e691d916001604092019384600455600160ff19600554161760055582519182526020820152a26001815580f35b634e487b7160e01b84526011600452602484fd5b8161033491610eee565b61033f5782386102b4565b8280fd5b6040513d84823e3d90fd5b5080fd5b63162908e360e11b8352600483fd5b62bfc92160e01b8352600483fd5b5064e8d4a510008111610248565b6391d83a1b60e01b8352600483fd5b63a7505eb960e01b8352600483fd5b5034610157576020366003190112610157576004356103b8610f7d565b6103c0610f9f565b60ff600554161561075257801561070c577812725dd1d243aba0e75fe645cc4873f9e65afe688c928e1f21811161074357670de0b6b3a76400008102908104670de0b6b3a76400000361072f5760025490811561071b5704801561070c57676765c793fa10079d601b1b81116106fd576003548082116106ee5761044382610fbc565b9081156106df5783906127106104827f00000000000000000000000000000000000000000000000000000000000000006001600160601b031685610eb8565b04610497856104918387610ee1565b93610ee1565b6003558061068d575b507f00000000000000000000000000000000000000000000000000000000000000006001600160a01b0316803b1561033f5760405163f82d288d60e01b815291839183918290849082906104f8903360048401610f27565b03925af1801561034357610678575b505060405163a9059cbb60e01b815260208180610528863360048401610f27565b0381877f00000000000000000000000000000000000000000000000000000000000000006001600160a01b03165af190811561063a578491610649575b5015610352577f00000000000000000000000000000000000000000000000000000000000000006001600160a01b0316806105cd575b5060209260019160045460405191825284868301526000805160206110b683398151915260403393a355604051908152f35b803b156106455783604051809263e16fb2f960e01b8252818381610616887f00000000000000000000000000000000000000000000000000000000000000003360048501610f5f565b03925af1801561063a571561059b57610630848092610eee565b61033f573861059b565b6040513d86823e3d90fd5b8380fd5b61066b915060203d602011610671575b6106638183610eee565b810190610f42565b38610565565b503d610659565b8161068291610eee565b61033f578238610507565b6106d9907f0000000000000000000000000000000000000000000000000000000000000000337f000000000000000000000000000000000000000000000000000000000000000061100f565b386104a0565b63162908e360e11b8452600484fd5b63e645450960e01b8352600483fd5b634dcb7efd60e11b8252600482fd5b63162908e360e11b8252600482fd5b634e487b7160e01b83526012600452602483fd5b634e487b7160e01b82526011600452602482fd5b63f5c787f160e01b8252600482fd5b633df07da560e01b8252600482fd5b50346101575780600319360112610157576020600254604051908152f35b50346101575780600319360112610157576020600454604051908152f35b5034610157578060031936011261015757608060045460025460035460ff60055416916040519384526020840152604083015215156060820152f35b50346101575780600319360112610157577f00000000000000000000000000000000000000000000000000000000000000006001600160a01b0316330361088057610822610f9f565b600160ff19815416176001557f62e78cea01bee320cd4e420270b5ea74000d11b0c9f74754ebdbfc544b05a2586020604051338152a1337fb8fad2fa0ed7a383e747c309ef2c4391d7b65592a48893e57ccc1fab707914568280a280f35b63a7505eb960e01b8152600490fd5b503461015757806003193601126101575760206040517f00000000000000000000000000000000000000000000000000000000000000008152f35b50346101575780600319360112610157577f00000000000000000000000000000000000000000000000000000000000000006001600160a01b0316330361088057610913610f7d565b60055460ff811615610752576003549060ff191660055581600355816002557f8868888cc18628a149bc88cc32a91976ab30e2cd9aececb0cfe184a73fe551f9602060045492604051908152a26001815580f35b50346101575780600319360112610157576040517f00000000000000000000000000000000000000000000000000000000000000006001600160a01b03168152602090f35b5034610157576020366003190112610157576004356109c9610f7d565b6109d1610f9f565b60ff60055416156107525780158015610c70575b61070c57600354908181116106ee576109fd81610fbc565b9182156106df578390612710610a3c7f00000000000000000000000000000000000000000000000000000000000000006001600160601b031686610eb8565b04610a4b846104918388610ee1565b60035580610c1e575b507f00000000000000000000000000000000000000000000000000000000000000006001600160a01b031690813b1561033f578291610aaa9160405194858094819363f82d288d60e01b83523360048401610f27565b03925af1801561063a57610c0a575b5060405163a9059cbb60e01b815260208180610ad9853360048401610f27565b0381877f00000000000000000000000000000000000000000000000000000000000000006001600160a01b03165af190811561063a578491610beb575b5015610352577f00000000000000000000000000000000000000000000000000000000000000006001600160a01b031680610b7e575b5060209260019160045460405191858352868301526000805160206110b683398151915260403393a355604051908152f35b803b156106455783604051809263e16fb2f960e01b8252818381610bc7897f00000000000000000000000000000000000000000000000000000000000000003360048501610f5f565b03925af1801561063a5715610b4c57610be1848092610eee565b61033f5738610b4c565b610c04915060203d602011610671576106638183610eee565b38610b16565b83610c1791949294610eee565b9138610ab9565b610c6a907f0000000000000000000000000000000000000000000000000000000000000000337f000000000000000000000000000000000000000000000000000000000000000061100f565b38610a54565b50676765c793fa10079d601b1b81116109e5565b5034610157578060031936011261015757602060ff600154166040519015158152f35b50346101575780600319360112610157576040517f00000000000000000000000000000000000000000000000000000000000000006001600160a01b03168152602090f35b50346101575780600319360112610157577f00000000000000000000000000000000000000000000000000000000000000006001600160a01b031633036108805760015460ff811615610d925760ff19166001557f5db9ee0a495bf2e6ff9c91a7834c1ba4fdd244a5e8aa4e537bd38aeae4b073aa6020604051338152a1337ff5cbf596165cc457b2cd92e8d8450827ee314968160a5696402d75766fc52caf8280a280f35b638dfc202b60e01b8252600482fd5b50346101575780600319360112610157576040517f00000000000000000000000000000000000000000000000000000000000000006001600160a01b03168152602090f35b50346101575780600319360112610157576040517f00000000000000000000000000000000000000000000000000000000000000006001600160a01b03168152602090f35b50346101575780600319360112610157576040517f00000000000000000000000000000000000000000000000000000000000000006001600160601b03168152602090f35b5034610157578060031936011261015757604051676765c793fa10079d601b1b8152602090f35b90503461034e578160031936011261034e5760209060ff6005541615158152f35b81810292918115918404141715610ecb57565b634e487b7160e01b600052601160045260246000fd5b91908203918211610ecb57565b601f909101601f19168101906001600160401b03821190821017610f1157604052565b634e487b7160e01b600052604160045260246000fd5b6001600160a01b039091168152602081019190915260400190565b90816020910312610f5a57518015158103610f5a5790565b600080fd5b604091949392606082019560018060a01b0316825260208201520152565b600260005414610f8e576002600055565b633ee5aeb560e01b60005260046000fd5b60ff60015416610fab57565b63d93c066560e01b60005260046000fd5b600254908115610ff95781600019048111610fe857670de0b6b3a764000091610fe491610eb8565b0490565b63f5c787f160e01b60005260046000fd5b634e487b7160e01b600052601260045260246000fd5b6040516323b872dd60e01b60208083019182526001600160a01b0394851660248401529490931660448201526064808201959095529384529260009190611057608482610eee565b519082855af1156110a9576000513d6110a057506001600160a01b0381163b155b61107f5750565b635274afe760e01b60009081526001600160a01b0391909116600452602490fd5b60011415611078565b6040513d6000823e3d90fdfe0831583cced7554a81e1cd091e811afaadc7d575a17fbd354716145bb597efc9a2646970667358221220dad82e35b2a0aa041d6b0e27ac8ca082412298b4e7cad18db5343f88edd079d264736f6c634300081c00338be0079c531659141344cd1fd0a4f28419497f9722a3daafe3b4186f6b6457e0a26469706673582212205e1a0e339b0df014c9901b2d6bc9c693b6164467e2cb7a2a32e0b249c854c06664736f6c634300081c003360803461010a57601f6110ca38819003918201601f19168301916001600160401b0383118484101761010f5780849260609460405283398101031261010a5761004781610125565b61005f604061005860208501610125565b9301610125565b6001600160a01b039091169182156100f457600080546001600160a01b031981168517825560405194916001600160a01b03909116907f8be0079c531659141344cd1fd0a4f28419497f9722a3daafe3b4186f6b6457e09080a3600880546001600160a01b039283166001600160a01b03199182161790915560098054939092169216919091179055610f90908161013a8239f35b631e4fbdf760e01b600052600060045260246000fd5b600080fd5b634e487b7160e01b600052604160045260246000fd5b51906001600160a01b038216820361010a5756fe6080604052600436101561001257600080fd5b60003560e01c80632e25f8b214610c6a578063399bdf2a14610c0f5780633fc9092014610a105780634a9273f0146109c557806360798ea9146108f957806366d0ead3146108ba578063715018a61461087357806371e250e3146108225780637435f911146107c35780638da5cb5b1461079a57806398eaa4a7146106c6578063b10fafe41461069d578063b530a6ea14610563578063bbe1562714610475578063bbe22cc8146103f7578063c51aba2b146103ce578063d67d3f791461035a578063e16fb2f91461022e578063eb22ae11146101745763f2fde38b146100f857600080fd5b3461016f57602036600319011261016f57610111610cf0565b610119610ed1565b6001600160a01b0316801561015957600080546001600160a01b03198116831782556001600160a01b031690600080516020610efb8339815191529080a3005b631e4fbdf760e01b600052600060045260246000fd5b600080fd5b3461016f57602036600319011261016f576001600160a01b03610195610cf0565b16600052600260205260406000206040518060208354918281520190819360005260206000209060005b81811061021857505050816101d5910382610d71565b6040519182916020830190602084525180915260408301919060005b8181106101ff575050500390f35b82518452859450602093840193909201916001016101f1565b82548452602090930192600192830192016101bf565b3461016f5761023c36610e0f565b909133600052600a60205261025860ff60406000205416610e39565b60018060a01b03169081600052600360205260406000208360005260205260ff60406000205416156102c5575b6020600080516020610f1b833981519152918360005260048252604060002085600052825260406000206102ba828254610e80565b9055604051908152a3005b600082815260026020526040902080549091600160401b8210156103445761030482600080516020610f1b833981519152946001602095018155610ea3565b81549060031b9087821b91600019901b1916179055836000526003825260406000208560005282526040600020600160ff19825416179055915050610285565b634e487b7160e01b600052604160045260246000fd5b3461016f57604036600319011261016f57610373610cf0565b61037b610d06565b9060018060a01b0316600052600760205260406000209060018060a01b0316600052602052604080600020602082516103b381610d56565b60018354938483520154918291015282519182526020820152f35b3461016f57600036600319011261016f576008546040516001600160a01b039091168152602090f35b3461016f5760207f8f118c6a001774bbdf5c8f7bf58cd1796b9a139343d43350cd4e40f25d520b6361042836610e0f565b929193909333600052600a825261044660ff60406000205416610e39565b60018060a01b0316928360005260048252604060002085600052825260016040600020016102ba828254610e80565b3461016f57602036600319011261016f576001600160a01b03610496610cf0565b1660005260016020526040600020604051600082546104b481610d94565b80845290600181169081156105405750600114610504575b5060016104f8936104e18460ff940385610d71565b015416604051928392604084526040840190610dce565b90151560208301520390f35b6000848152602081209092505b818310610526575050810160200160016104cc565b600181602092949394548385880101520191019190610511565b60ff191660208086019190915291151560051b84019091019150600190506104cc565b3461016f5761057136610d1c565b9133600052600a60205261058c60ff60406000205416610e39565b60018060a01b031690816000526006602052604060002060018060a01b03821660005260205260ff6040600020541615610613575b6020600080516020610f3b833981519152918360005260078252604060002060018060a01b038216600052825260406000206105fe868254610e80565b90556040519485526001600160a01b031693a3005b600082815260056020526040902080549091600160401b8210156103445761065282600080516020610f3b833981519152946001602095018155610ea3565b81546001600160a01b0384811660039390931b83811b91901b1990911617909155600085815260068452604080822092825291909352909120805460ff1916600117905590506105c1565b3461016f57600036600319011261016f576009546040516001600160a01b039091168152602090f35b3461016f57602036600319011261016f576106df610cf0565b6008546001600160a01b031633148015610786575b15610741576001600160a01b03166000818152600a60205260408120805460ff191660011790557f8983a1f3c3cb45c24c8226b5b805e3b6eb49686530b808534b2a920129eff6519080a2005b60405162461bcd60e51b815260206004820152601d60248201527f4f6e6c7920726567697374726965732063616e20617574686f72697a650000006044820152606490fd5b506009546001600160a01b031633146106f4565b3461016f57600036600319011261016f576000546040516001600160a01b039091168152602090f35b3461016f57604036600319011261016f576107dc610cf0565b6107e4610d06565b9060018060a01b0316600052600760205260406000209060018060a01b03166000526020526040806000206001815491015482519182526020820152f35b3461016f57604036600319011261016f576001600160a01b03610843610cf0565b16600052600460205260406000206024356000526020526040806000206001815491015482519182526020820152f35b3461016f57600036600319011261016f5761088c610ed1565b600080546001600160a01b0319811682556001600160a01b0316600080516020610efb8339815191528280a3005b3461016f57602036600319011261016f576001600160a01b036108db610cf0565b16600052600a602052602060ff604060002054166040519015158152f35b3461016f57602036600319011261016f576001600160a01b0361091a610cf0565b16600052600560205260406000206040518060208354918281520190819360005260206000209060005b8181106109a6575050508161095a910382610d71565b6040519182916020830190602084525180915260408301919060005b818110610984575050500390f35b82516001600160a01b0316845285945060209384019390920191600101610976565b82546001600160a01b0316845260209093019260019283019201610944565b3461016f57604036600319011261016f576001600160a01b036109e6610cf0565b1660005260046020526040600020602435600052602052604080600020602082516103b381610d56565b3461016f57602036600319011261016f576004356001600160401b03811161016f573660238201121561016f5760048101356001600160401b0381116103445760405191610a68601f8301601f191660200184610d71565b818352366024838301011161016f5781600092602460209301838601378301015260405190610a9682610d56565b80825260208201600181523360005260016020526040600020925192835160018060401b03811161034457610acb8254610d94565b601f8111610bc7575b506020601f8211600114610b5e5781906001949596600092610b53575b5050600019600383901b1c191690831b1781555b019051151560ff801983541691161790557fdd635a4cd84864e37e4479dbfc2ec667acfa473c83c8422a8ac9d9d07599b01c6040516020815280610b4e33946020830190610dce565b0390a2005b015190508680610af1565b601f1982169583600052816000209660005b818110610baf5750916001959697918487959410610b96575b505050811b018155610b05565b015160001960f88460031b161c19169055868080610b89565b83830151895560019098019760209384019301610b70565b826000526020600020601f830160051c81019160208410610c05575b601f0160051c01905b818110610bf95750610ad4565b60008155600101610bec565b9091508190610be3565b3461016f57604036600319011261016f57610c28610cf0565b610c30610d06565b90610c39610ed1565b600880546001600160a01b039283166001600160a01b03199182161790915560098054939092169216919091179055005b3461016f577f9c0fb5f38e476a04750b19a48973b409b1c6ac778d557053f0aa522be612362e6020610c9b36610d1c565b939192909233600052600a8252610cb960ff60406000205416610e39565b60018060a01b0316928360005260078252604060002060018060a01b038216600052825260016040600020016105fe868254610e80565b600435906001600160a01b038216820361016f57565b602435906001600160a01b038216820361016f57565b606090600319011261016f576004356001600160a01b038116810361016f57906024356001600160a01b038116810361016f579060443590565b604081019081106001600160401b0382111761034457604052565b601f909101601f19168101906001600160401b0382119082101761034457604052565b90600182811c92168015610dc4575b6020831014610dae57565b634e487b7160e01b600052602260045260246000fd5b91607f1691610da3565b919082519283825260005b848110610dfa575050826000602080949584010152601f8019910116010190565b80602080928401015182828601015201610dd9565b606090600319011261016f576004356001600160a01b038116810361016f57906024359060443590565b15610e4057565b60405162461bcd60e51b815260206004820152601860248201527710d85b1b195c881a5cc81b9bdd08185d5d1a1bdc9a5e995960421b6044820152606490fd5b91908201809211610e8d57565b634e487b7160e01b600052601160045260246000fd5b8054821015610ebb5760005260206000200190600090565b634e487b7160e01b600052603260045260246000fd5b6000546001600160a01b03163303610ee557565b63118cdaa760e01b6000523360045260246000fdfe8be0079c531659141344cd1fd0a4f28419497f9722a3daafe3b4186f6b6457e0bcada874badf13d9ef982c752ad12b07cad5d130d8500a9aee7b577ffbf3a029175a07343ca072b9aeeb678e64cc046eaa7e90c22e8acc9d4f737c17d5fd7f87a26469706673582212202062b57013b4d1f0ff8391136fa8ea40c605ed6d8d2104878962fab8884ea64364736f6c634300081c0033",
  "linkReferences": {},
  "deployedLinkReferences": {}
}