{
  "_format": "hh-sol-artifact-1",
  "contractName": "ClientProfile",
  "sourceName": "contracts/ClientProfile.sol",
  "abi": [
    {
      "inputs": [
        {
          "internalType": "address",
          "name": "_owner",
          "type": "address"
        },
        {
          "internalType": "string",
          "name": "_name",
          "type": "string"
        },
        {
          "internalType": "string",
          "name": "_bio",
          "type": "string"
        },
        {
          "internalType": "string",
          "name": "_company",
          "type": "string"
        },
        {
          "internalType": "string",
          "name": "_profileImage",
          "type": "string"
        }
      ],
      "stateMutability": "nonpayable",
      "type": "constructor"
    },
    {
      "inputs": [
        {
          "internalType": "uint256",
          "name": "jobId",
          "type": "uint256"
        }
      ],
      "name": "addCompletedJob",
      "outputs": [],
      "stateMutability": "nonpayable",
      "type": "function"
    },
    {
      "inputs": [
        {
          "internalType": "uint256",
          "name": "jobId",
          "type": "uint256"
        }
      ],
      "name": "addPostedJob",
      "outputs": [],
      "stateMutability": "nonpayable",
      "type": "function"
    },
    {
      "inputs": [],
      "name": "bio",
      "outputs": [
        {
          "internalType": "string",
          "name": "",
          "type": "string"
        }
      ],
      "stateMutability": "view",
      "type": "function"
    },
    {
      "inputs": [],
      "name": "company",
      "outputs": [
        {
          "internalType": "string",
          "name": "",
          "type": "string"
        }
      ],
      "stateMutability": "view",
      "type": "function"
    },
    {
      "inputs": [],
      "name": "getCompletedJobs",
      "outputs": [
        {
          "internalType": "uint256[]",
          "name": "",
          "type": "uint256[]"
        }
      ],
      "stateMutability": "view",
      "type": "function"
    },
    {
      "inputs": [],
      "name": "getPostedJobs",
      "outputs": [
        {
          "internalType": "uint256[]",
          "name": "",
          "type": "uint256[]"
        }
      ],
      "stateMutability": "view",
      "type": "function"
    },
    {
      "inputs": [],
      "name": "name",
      "outputs": [
        {
          "internalType": "string",
          "name": "",
          "type": "string"
        }
      ],
      "stateMutability": "view",
      "type": "function"
    },
    {
      "inputs": [],
      "name": "owner",
      "outputs": [
        {
          "internalType": "address",
          "name": "",
          "type": "address"
        }
      ],
      "stateMutability": "view",
      "type": "function"
    },
    {
      "inputs": [],
      "name": "profileImage",
      "outputs": [
        {
          "internalType": "string",
          "name": "",
          "type": "string"
        }
      ],
      "stateMutability": "view",
      "type": "function"
    },
    {
      "inputs": [],
      "name": "totalJobsCompleted",
      "outputs": [
        {
          "internalType": "uint256",
          "name": "",
          "type": "uint256"
        }
      ],
      "stateMutability": "view",
      "type": "function"
    },
    {
      "inputs": [],
      "name": "totalJobsPosted",
      "outputs": [
        {
          "internalType": "uint256",
          "name": "",
          "type": "uint256"
        }
      ],
      "stateMutability": "view",
      "type": "function"
    },
    {
      "inputs": [
        {
          "internalType": "string",
          "name": "_name",
          "type": "string"
        },
        {
          "internalType": "string",
          "name": "_bio",
          "type": "string"
        },
        {
          "internalType": "string",
          "name": "_company",
          "type": "string"
        },
        {
          "internalType": "string",
          "name": "_profileImage",
          "type": "string"
        }
      ],
      "name": "updateProfile",
      "outputs": [],
      "stateMutability": "nonpayable",
      "type": "function"
    }
  ],
  "bytecode": "0x60806040523461062957611431803803806100198161062e565b92833981019060a0818303126106295780516001600160a01b03811692908390036106295760208201516001600160401b038111610629578161005d918401610653565b60408301519093906001600160401b038111610629578261007f918501610653565b60608401519093906001600160401b03811161062957836100a1918301610653565b60808201519093906001600160401b038111610629576100c19201610653565b600080546001600160a01b03191690921790915583516001600160401b03811161037257600154600181811c9116801561061f575b602082101461035257601f81116105ba575b50602094601f821160011461055357948192939495600092610548575b50508160011b916000199060031b1c1916176001555b82516001600160401b03811161037257600254600181811c9116801561053e575b602082101461035257601f81116104d9575b506020601f82116001146104725781929394600092610467575b50508160011b916000199060031b1c1916176002555b81516001600160401b03811161037257600354600181811c9116801561045d575b602082101461035257601f81116103f8575b50602092601f82116001146103935792819293600092610388575b50508160011b916000199060031b1c1916176003555b80516001600160401b03811161037257600454600181811c91168015610368575b602082101461035257601f81116102ed575b50602091601f82116001146102895791819260009261027e575b50508160011b916000199060031b1c1916176004555b60006005556000600655604051610d7290816106bf8239f35b01519050388061024f565b601f198216926004600052806000209160005b8581106102d5575083600195106102bc575b505050811b01600455610265565b015160001960f88460031b161c191690553880806102ae565b9192602060018192868501518155019401920161029c565b60046000527f8a35acfbc15ff81a39ae7d344fd709f28e8600b4aa8c65c6b64bfe7fe36bd19b601f830160051c81019160208410610348575b601f0160051c01905b81811061033c5750610235565b6000815560010161032f565b9091508190610326565b634e487b7160e01b600052602260045260246000fd5b90607f1690610223565b634e487b7160e01b600052604160045260246000fd5b0151905038806101ec565b601f198216936003600052806000209160005b8681106103e057508360019596106103c7575b505050811b01600355610202565b015160001960f88460031b161c191690553880806103b9565b919260206001819286850151815501940192016103a6565b60036000527fc2575a0e9e593c00f959f8c92f12db2869c3395a3b0502d05e2516446f71f85b601f830160051c81019160208410610453575b601f0160051c01905b81811061044757506101d1565b6000815560010161043a565b9091508190610431565b90607f16906101bf565b015190503880610188565b601f198216906002600052806000209160005b8181106104c1575095836001959697106104a8575b505050811b0160025561019e565b015160001960f88460031b161c1916905538808061049a565b9192602060018192868b015181550194019201610485565b60026000527f405787fa12a823e0f2b7631cc41b3ba8828b3321ca811111fa75cd3aa3bb5ace601f830160051c81019160208410610534575b601f0160051c01905b818110610528575061016e565b6000815560010161051b565b9091508190610512565b90607f169061015c565b015190503880610125565b601f198216956001600052806000209160005b8881106105a257508360019596979810610589575b505050811b0160015561013b565b015160001960f88460031b161c1916905538808061057b565b91926020600181928685015181550194019201610566565b60016000527fb10e2d527612073b26eecdfd717e6a320cf44b4afac2b0732d9fcbe2b7fa0cf6601f830160051c81019160208410610615575b601f0160051c01905b8181106106095750610108565b600081556001016105fc565b90915081906105f3565b90607f16906100f6565b600080fd5b6040519190601f01601f191682016001600160401b0381118382101761037257604052565b81601f82011215610629578051906001600160401b03821161037257610682601f8301601f191660200161062e565b92828452602083830101116106295760005b8281106106a957505060206000918301015290565b8060208092840101518282870101520161069456fe6080604052600436101561001257600080fd5b60003560e01c806306fdde0314610a93578063342ac30814610a2f57806340ddaff7146109b5578063460b26db1461093e5780636904c94d146108a857806386268740146108125780638886140c1461078f57806388f77fcb146107715780638da5cb5b146107485780638ee0decf1461072a5780639483f25c146101735763f516b422146100a057600080fd5b3461016e57600036600319011261016e57604051600254600090816100c482610b29565b808552916001811690811561014757506001146100fc575b6100f8846100ec81860382610b63565b60405191829182610b85565b0390f35b60028152600080516020610cbd833981519152939250905b80821061012d575090915081016020016100ec826100dc565b919260018160209254838588010152019101909291610114565b60ff191660208087019190915292151560051b850190920192506100ec91508390506100dc565b600080fd5b3461016e57608036600319011261016e5760043567ffffffffffffffff811161016e576101a4903690600401610c08565b60243567ffffffffffffffff811161016e576101c4903690600401610c08565b60443567ffffffffffffffff811161016e576101e4903690600401610c08565b60643567ffffffffffffffff811161016e57610204903690600401610c08565b61021960018060a01b03600054163314610c5f565b835167ffffffffffffffff811161045857610235600154610b29565b601f81116106bd575b50602094601f821160011461064b57948192939495600092610640575b50508160011b916000199060031b1c1916176001555b825167ffffffffffffffff81116104585761028d600254610b29565b601f81116105d3575b506020601f82116001146105615781929394600092610556575b50508160011b916000199060031b1c1916176002555b815167ffffffffffffffff8111610458576102e2600354610b29565b601f81116104e9575b50602092601f8211600114610479579281929360009261046e575b50508160011b916000199060031b1c1916176003555b805167ffffffffffffffff811161045857610338600454610b29565b601f81116103eb575b50602091601f821160011461037f57918192600092610374575b5050600019600383901b1c191660019190911b17600455005b01519050828061035b565b601f198216926004600052600080516020610d1d8339815191529160005b8581106103d3575083600195106103ba575b505050811b01600455005b015160001960f88460031b161c191690558280806103af565b9192602060018192868501518155019401920161039d565b6004600052601f820160051c600080516020610d1d833981519152019060208310610442575b601f0160051c600080516020610d1d83398151915201905b8181106104365750610341565b60008155600101610429565b600080516020610d1d8339815191529150610411565b634e487b7160e01b600052604160045260246000fd5b015190508380610306565b601f198216936003600052600080516020610cdd8339815191529160005b8681106104d157508360019596106104b8575b505050811b0160035561031c565b015160001960f88460031b161c191690558380806104aa565b91926020600181928685015181550194019201610497565b6003600052601f820160051c600080516020610cdd833981519152019060208310610540575b601f0160051c600080516020610cdd83398151915201905b81811061053457506102eb565b60008155600101610527565b600080516020610cdd833981519152915061050f565b0151905084806102b0565b601f198216906002600052600080516020610cbd8339815191529160005b8181106105bb575095836001959697106105a2575b505050811b016002556102c6565b015160001960f88460031b161c19169055848080610594565b9192602060018192868b01518155019401920161057f565b6002600052601f820160051c600080516020610cbd83398151915201906020831061062a575b601f0160051c600080516020610cbd83398151915201905b81811061061e5750610296565b60008155600101610611565b600080516020610cbd83398151915291506105f9565b01519050858061025b565b601f198216956001600052600080516020610cfd8339815191529160005b8881106106a55750836001959697981061068c575b505050811b01600155610271565b015160001960f88460031b161c1916905585808061067e565b91926020600181928685015181550194019201610669565b6001600052601f820160051c600080516020610cfd833981519152019060208310610714575b601f0160051c600080516020610cfd83398151915201905b818110610708575061023e565b600081556001016106fb565b600080516020610cfd83398151915291506106e3565b3461016e57600036600319011261016e576020600654604051908152f35b3461016e57600036600319011261016e576000546040516001600160a01b039091168152602090f35b3461016e57600036600319011261016e576020600554604051908152f35b3461016e57600036600319011261016e5760405180602060085491828152019060086000527ff3f7a9fe364faab93b216da50a3214154f22a0a2b415b23a84c8169e8b636ee39060005b8181106107fc576100f8856107f081870382610b63565b60405191829182610bce565b82548452602090930192600192830192016107d9565b3461016e57600036600319011261016e576040516004546000908161083682610b29565b8085529160018116908115610147575060011461085d576100f8846100ec81860382610b63565b60048152600080516020610d1d833981519152939250905b80821061088e575090915081016020016100ec826100dc565b919260018160209254838588010152019101909291610875565b3461016e57600036600319011261016e57604051600354600090816108cc82610b29565b808552916001811690811561014757506001146108f3576100f8846100ec81860382610b63565b60038152600080516020610cdd833981519152939250905b808210610924575090915081016020016100ec826100dc565b91926001816020925483858801015201910190929161090b565b3461016e57600036600319011261016e5760405180602060075491828152019060076000527fa66cc928b5edb82af9bd49922954155ab7b0942694bea4ce44661d9a8736c6889060005b81811061099f576100f8856107f081870382610b63565b8254845260209093019260019283019201610988565b3461016e57602036600319011261016e576109db60018060a01b03600054163314610c5f565b600754600160401b811015610458576001810180600755811015610a195760076000526004359060206000200155610a14600554610c97565b600555005b634e487b7160e01b600052603260045260246000fd5b3461016e57602036600319011261016e57610a5560018060a01b03600054163314610c5f565b600854600160401b811015610458576001810180600855811015610a195760086000526004359060206000200155610a8e600654610c97565b600655005b3461016e57600036600319011261016e5760405160015460009081610ab782610b29565b80855291600181169081156101475750600114610ade576100f8846100ec81860382610b63565b60018152600080516020610cfd833981519152939250905b808210610b0f575090915081016020016100ec826100dc565b919260018160209254838588010152019101909291610af6565b90600182811c92168015610b59575b6020831014610b4357565b634e487b7160e01b600052602260045260246000fd5b91607f1691610b38565b90601f8019910116810190811067ffffffffffffffff82111761045857604052565b91909160208152825180602083015260005b818110610bb8575060409293506000838284010152601f8019910116010190565b8060208092870101516040828601015201610b97565b602060408183019282815284518094520192019060005b818110610bf25750505090565b8251845260209384019390920191600101610be5565b81601f8201121561016e5780359067ffffffffffffffff82116104585760405192610c3d601f8401601f191660200185610b63565b8284526020838301011161016e57816000926020809301838601378301015290565b15610c6657565b60405162461bcd60e51b81526020600482015260096024820152682737ba1037bbb732b960b91b6044820152606490fd5b6000198114610ca65760010190565b634e487b7160e01b600052601160045260246000fdfe405787fa12a823e0f2b7631cc41b3ba8828b3321ca811111fa75cd3aa3bb5acec2575a0e9e593c00f959f8c92f12db2869c3395a3b0502d05e2516446f71f85bb10e2d527612073b26eecdfd717e6a320cf44b4afac2b0732d9fcbe2b7fa0cf68a35acfbc15ff81a39ae7d344fd709f28e8600b4aa8c65c6b64bfe7fe36bd19ba26469706673582212208053d4a88e84ab8aaa705214de4604b8db1ec0afc464923b9a7de4e02a40294e64736f6c634300081c0033",
  "linkReferences": {},
  "deployedLinkReferences": {}
}