{
  "_format": "hh-sol-artifact-1",
  "contractName": "FreelancerProfile",
  "sourceName": "contracts/FreelancerProfile.sol",
  "abi": [
    {
      "inputs": [
        {
          "internalType": "address",
          "name": "_owner",
          "type": "address"
        },
        {
          "internalType": "address",
          "name": "_factory",
          "type": "address"
        },
        {
          "internalType": "string",
          "name": "_name",
          "type": "string"
        },
        {
          "internalType": "string",
          "name": "_bio",
          "type": "string"
        },
        {
          "internalType": "string",
          "name": "_profileURI",
          "type": "string"
        }
      ],
      "stateMutability": "nonpayable",
      "type": "constructor"
    },
    {
      "inputs": [],
      "name": "EscrowAlreadyRegistered",
      "type": "error"
    },
    {
      "inputs": [],
      "name": "EscrowNotAuthorized",
      "type": "error"
    },
    {
      "inputs": [],
      "name": "InvalidStatusTransition",
      "type": "error"
    },
    {
      "inputs": [],
      "name": "JobAlreadyFinalized",
      "type": "error"
    },
    {
      "inputs": [],
      "name": "JobExists",
      "type": "error"
    },
    {
      "inputs": [],
      "name": "JobNotApproved",
      "type": "error"
    },
    {
      "inputs": [],
      "name": "JobUnknown",
      "type": "error"
    },
    {
      "inputs": [],
      "name": "JobWrongEscrow",
      "type": "error"
    },
    {
      "inputs": [],
      "name": "MaxServicesReached",
      "type": "error"
    },
    {
      "inputs": [],
      "name": "NotFactory",
      "type": "error"
    },
    {
      "inputs": [],
      "name": "NotOwner",
      "type": "error"
    },
    {
      "inputs": [],
      "name": "NotVerified",
      "type": "error"
    },
    {
      "inputs": [],
      "name": "ServiceNotFound",
      "type": "error"
    },
    {
      "inputs": [],
      "name": "ZeroAddress",
      "type": "error"
    },
    {
      "anonymous": false,
      "inputs": [
        {
          "indexed": true,
          "internalType": "address",
          "name": "escrow",
          "type": "address"
        }
      ],
      "name": "EscrowRegistered",
      "type": "event"
    },
    {
      "anonymous": false,
      "inputs": [
        {
          "indexed": true,
          "internalType": "address",
          "name": "escrow",
          "type": "address"
        }
      ],
      "name": "EscrowUnregistered",
      "type": "event"
    },
    {
      "anonymous": false,
      "inputs": [
        {
          "indexed": true,
          "internalType": "bytes32",
          "name": "jobKey",
          "type": "bytes32"
        },
        {
          "indexed": true,
          "internalType": "address",
          "name": "escrow",
          "type": "address"
        },
        {
          "indexed": false,
          "internalType": "uint8",
          "name": "rating",
          "type": "uint8"
        },
        {
          "indexed": false,
          "internalType": "uint256",
          "name": "totalPoints",
          "type": "uint256"
        },
        {
          "indexed": false,
          "internalType": "uint256",
          "name": "completedJobs",
          "type": "uint256"
        },
        {
          "indexed": false,
          "internalType": "uint8",
          "name": "newLevel",
          "type": "uint8"
        }
      ],
      "name": "JobCompleted",
      "type": "event"
    },
    {
      "anonymous": false,
      "inputs": [
        {
          "indexed": true,
          "internalType": "bytes32",
          "name": "jobKey",
          "type": "bytes32"
        },
        {
          "indexed": true,
          "internalType": "address",
          "name": "escrow",
          "type": "address"
        }
      ],
      "name": "JobRegistered",
      "type": "event"
    },
    {
      "anonymous": false,
      "inputs": [
        {
          "indexed": true,
          "internalType": "bytes32",
          "name": "jobKey",
          "type": "bytes32"
        },
        {
          "indexed": true,
          "internalType": "address",
          "name": "escrow",
          "type": "address"
        },
        {
          "indexed": false,
          "internalType": "enum FreelancerProfile.JobStatus",
          "name": "oldStatus",
          "type": "uint8"
        },
        {
          "indexed": false,
          "internalType": "enum FreelancerProfile.JobStatus",
          "name": "newStatus",
          "type": "uint8"
        }
      ],
      "name": "JobStatusChanged",
      "type": "event"
    },
    {
      "anonymous": false,
      "inputs": [
        {
          "indexed": true,
          "internalType": "address",
          "name": "setter",
          "type": "address"
        },
        {
          "indexed": true,
          "internalType": "bool",
          "name": "status",
          "type": "bool"
        }
      ],
      "name": "KYCStatusChanged",
      "type": "event"
    },
    {
      "anonymous": false,
      "inputs": [
        {
          "indexed": false,
          "internalType": "uint8",
          "name": "oldLevel",
          "type": "uint8"
        },
        {
          "indexed": false,
          "internalType": "uint8",
          "name": "newLevel",
          "type": "uint8"
        }
      ],
      "name": "LevelUpdated",
      "type": "event"
    },
    {
      "anonymous": false,
      "inputs": [
        {
          "indexed": false,
          "internalType": "uint256",
          "name": "oldPoints",
          "type": "uint256"
        },
        {
          "indexed": false,
          "internalType": "uint256",
          "name": "newPoints",
          "type": "uint256"
        }
      ],
      "name": "PointsUpdated",
      "type": "event"
    },
    {
      "anonymous": false,
      "inputs": [
        {
          "indexed": false,
          "internalType": "string",
          "name": "name",
          "type": "string"
        },
        {
          "indexed": false,
          "internalType": "string",
          "name": "bio",
          "type": "string"
        },
        {
          "indexed": false,
          "internalType": "string",
          "name": "profileURI",
          "type": "string"
        }
      ],
      "name": "ProfileUpdated",
      "type": "event"
    },
    {
      "anonymous": false,
      "inputs": [
        {
          "indexed": true,
          "internalType": "uint256",
          "name": "id",
          "type": "uint256"
        },
        {
          "indexed": false,
          "internalType": "string",
          "name": "title",
          "type": "string"
        }
      ],
      "name": "ServiceAdded",
      "type": "event"
    },
    {
      "inputs": [
        {
          "internalType": "address",
          "name": "",
          "type": "address"
        }
      ],
      "name": "activeEscrows",
      "outputs": [
        {
          "internalType": "bool",
          "name": "",
          "type": "bool"
        }
      ],
      "stateMutability": "view",
      "type": "function"
    },
    {
      "inputs": [
        {
          "internalType": "string",
          "name": "_title",
          "type": "string"
        },
        {
          "internalType": "string",
          "name": "_description",
          "type": "string"
        },
        {
          "internalType": "string",
          "name": "_imageURI",
          "type": "string"
        },
        {
          "internalType": "string",
          "name": "_videoURI",
          "type": "string"
        },
        {
          "internalType": "uint256",
          "name": "_priceUSDC",
          "type": "uint256"
        }
      ],
      "name": "addService",
      "outputs": [],
      "stateMutability": "nonpayable",
      "type": "function"
    },
    {
      "inputs": [],
      "name": "bio",
      "outputs": [
        {
          "internalType": "string",
          "name": "",
          "type": "string"
        }
      ],
      "stateMutability": "view",
      "type": "function"
    },
    {
      "inputs": [],
      "name": "completedJobs",
      "outputs": [
        {
          "internalType": "uint256",
          "name": "",
          "type": "uint256"
        }
      ],
      "stateMutability": "view",
      "type": "function"
    },
    {
      "inputs": [],
      "name": "factory",
      "outputs": [
        {
          "internalType": "address",
          "name": "",
          "type": "address"
        }
      ],
      "stateMutability": "view",
      "type": "function"
    },
    {
      "inputs": [
        {
          "internalType": "address",
          "name": "escrowAddr",
          "type": "address"
        }
      ],
      "name": "isEscrowActive",
      "outputs": [
        {
          "internalType": "bool",
          "name": "",
          "type": "bool"
        }
      ],
      "stateMutability": "view",
      "type": "function"
    },
    {
      "inputs": [
        {
          "internalType": "bytes32",
          "name": "jobKey",
          "type": "bytes32"
        }
      ],
      "name": "isJobProcessed",
      "outputs": [
        {
          "internalType": "bool",
          "name": "",
          "type": "bool"
        }
      ],
      "stateMutability": "view",
      "type": "function"
    },
    {
      "inputs": [],
      "name": "isKYCVerified",
      "outputs": [
        {
          "internalType": "bool",
          "name": "",
          "type": "bool"
        }
      ],
      "stateMutability": "view",
      "type": "function"
    },
    {
      "inputs": [
        {
          "internalType": "bytes32",
          "name": "jobKey",
          "type": "bytes32"
        }
      ],
      "name": "jobInfo",
      "outputs": [
        {
          "internalType": "address",
          "name": "escrow",
          "type": "address"
        },
        {
          "internalType": "enum FreelancerProfile.JobStatus",
          "name": "status",
          "type": "uint8"
        },
        {
          "internalType": "uint8",
          "name": "rating",
          "type": "uint8"
        },
        {
          "internalType": "bool",
          "name": "finalized",
          "type": "bool"
        },
        {
          "internalType": "uint64",
          "name": "createdAt",
          "type": "uint64"
        },
        {
          "internalType": "uint64",
          "name": "updatedAt",
          "type": "uint64"
        }
      ],
      "stateMutability": "view",
      "type": "function"
    },
    {
      "inputs": [
        {
          "internalType": "bytes32",
          "name": "",
          "type": "bytes32"
        }
      ],
      "name": "jobProcessed",
      "outputs": [
        {
          "internalType": "bool",
          "name": "",
          "type": "bool"
        }
      ],
      "stateMutability": "view",
      "type": "function"
    },
    {
      "inputs": [],
      "name": "level",
      "outputs": [
        {
          "internalType": "uint8",
          "name": "",
          "type": "uint8"
        }
      ],
      "stateMutability": "view",
      "type": "function"
    },
    {
      "inputs": [
        {
          "internalType": "uint8",
          "name": "ratingStars",
          "type": "uint8"
        },
        {
          "internalType": "bytes32",
          "name": "jobKey",
          "type": "bytes32"
        }
      ],
      "name": "markJobCompleted",
      "outputs": [],
      "stateMutability": "nonpayable",
      "type": "function"
    },
    {
      "inputs": [],
      "name": "name",
      "outputs": [
        {
          "internalType": "string",
          "name": "",
          "type": "string"
        }
      ],
      "stateMutability": "view",
      "type": "function"
    },
    {
      "inputs": [],
      "name": "owner",
      "outputs": [
        {
          "internalType": "address",
          "name": "",
          "type": "address"
        }
      ],
      "stateMutability": "view",
      "type": "function"
    },
    {
      "inputs": [],
      "name": "profileURI",
      "outputs": [
        {
          "internalType": "string",
          "name": "",
          "type": "string"
        }
      ],
      "stateMutability": "view",
      "type": "function"
    },
    {
      "inputs": [
        {
          "internalType": "address",
          "name": "escrowAddr",
          "type": "address"
        }
      ],
      "name": "registerEscrow",
      "outputs": [],
      "stateMutability": "nonpayable",
      "type": "function"
    },
    {
      "inputs": [
        {
          "internalType": "bytes32",
          "name": "jobKey",
          "type": "bytes32"
        }
      ],
      "name": "registerJob",
      "outputs": [],
      "stateMutability": "nonpayable",
      "type": "function"
    },
    {
      "inputs": [],
      "name": "serviceCount",
      "outputs": [
        {
          "internalType": "uint256",
          "name": "",
          "type": "uint256"
        }
      ],
      "stateMutability": "view",
      "type": "function"
    },
    {
      "inputs": [
        {
          "internalType": "uint256",
          "name": "",
          "type": "uint256"
        }
      ],
      "name": "services",
      "outputs": [
        {
          "internalType": "string",
          "name": "title",
          "type": "string"
        },
        {
          "internalType": "string",
          "name": "description",
          "type": "string"
        },
        {
          "internalType": "string",
          "name": "imageURI",
          "type": "string"
        },
        {
          "internalType": "string",
          "name": "videoURI",
          "type": "string"
        },
        {
          "internalType": "uint256",
          "name": "priceUSDC",
          "type": "uint256"
        },
        {
          "internalType": "bool",
          "name": "active",
          "type": "bool"
        }
      ],
      "stateMutability": "view",
      "type": "function"
    },
    {
      "inputs": [
        {
          "internalType": "bool",
          "name": "_status",
          "type": "bool"
        }
      ],
      "name": "setKYCVerified",
      "outputs": [],
      "stateMutability": "nonpayable",
      "type": "function"
    },
    {
      "inputs": [],
      "name": "totalPoints",
      "outputs": [
        {
          "internalType": "uint256",
          "name": "",
          "type": "uint256"
        }
      ],
      "stateMutability": "view",
      "type": "function"
    },
    {
      "inputs": [
        {
          "internalType": "address",
          "name": "escrowAddr",
          "type": "address"
        }
      ],
      "name": "unregisterEscrow",
      "outputs": [],
      "stateMutability": "nonpayable",
      "type": "function"
    },
    {
      "inputs": [
        {
          "internalType": "bytes32",
          "name": "jobKey",
          "type": "bytes32"
        },
        {
          "internalType": "enum FreelancerProfile.JobStatus",
          "name": "newStatus",
          "type": "uint8"
        }
      ],
      "name": "updateJobStatus",
      "outputs": [],
      "stateMutability": "nonpayable",
      "type": "function"
    },
    {
      "inputs": [
        {
          "internalType": "string",
          "name": "_name",
          "type": "string"
        },
        {
          "internalType": "string",
          "name": "_bio",
          "type": "string"
        },
        {
          "internalType": "string",
          "name": "_profileURI",
          "type": "string"
        }
      ],
      "name": "updateProfile",
      "outputs": [],
      "stateMutability": "nonpayable",
      "type": "function"
    }
  ],
  "bytecode": "0x60c06040523461058e576122d18038038061001981610593565b928339810160a08282031261058e57610031826105b8565b9161003e602082016105b8565b60408201516001600160401b03811161058e578361005d9184016105ef565b60608301519092906001600160401b03811161058e578461007f9183016105ef565b60808201519094906001600160401b03811161058e5761009f92016105ef565b936001600160a01b03811615801561057d575b61056c5760805260a05280516001600160401b03811161039957600054600181811c91168015610562575b602082101461037957601f81116104fe575b50806020601f821160011461049a5760009161048f575b508160011b916000199060031b1c1916176000555b8151926001600160401b03841161039957600154600181811c91168015610485575b602082101461037957601f8111610420575b50602093601f81116001146103ba5780919293946000916103af575b508160011b916000199060031b1c1916176001555b8051926001600160401b03841161039957600254600181811c9116801561038f575b602082101461037957601f8111610314575b50602093601f81116001146102945791610234610242928461022696956000805160206122b183398151915298600091610289575b508160011b916000199060031b1c1916176002555b6000600455600060055560ff196006541660065560405195869560608752606087019061063f565b90858203602087015261063f565b90838203604085015261063f565b0390a1604051611c4c908161066582396080518181816104cc01528181610f510152611216015260a0518181816109c101528181610a810152818161100501526111680152f35b9050840151386101e9565b601f1981166002600052856000209060005b8181106102fc575092600183610234936000805160206122b18339815191529961022699989661024298106102e3575b5050811b016002556101fe565b86015160001960f88460031b161c1916905538806102d6565b858801518355602097880197600190930192016102a6565b60026000527f405787fa12a823e0f2b7631cc41b3ba8828b3321ca811111fa75cd3aa3bb5ace601f860160051c8101916020871061036f575b601f0160051c01905b81811061036357506101b4565b60008155600101610356565b909150819061034d565b634e487b7160e01b600052602260045260246000fd5b90607f16906101a2565b634e487b7160e01b600052604160045260246000fd5b90508401513861016b565b601f198116946001600052806000209060005b878110610408575082600194959697106103ef575b5050811b01600155610180565b86015160001960f88460031b161c1916905538806103e2565b9091602060018192858a0151815501930191016103cd565b60016000527fb10e2d527612073b26eecdfd717e6a320cf44b4afac2b0732d9fcbe2b7fa0cf6601f860160051c8101916020871061047b575b601f0160051c01905b81811061046f575061014f565b60008155600101610462565b9091508190610459565b90607f169061013d565b905082015138610106565b60008080528181209250601f198416905b8181106104e6575090836001949392106104cd575b5050811b0160005561011b565b84015160001960f88460031b161c1916905538806104c0565b919260206001819286890151815501940192016104ab565b600080527f290decd9548b62a8d60345a988386fc84ba6bc95484008f6362f93160ef3e563601f830160051c81019160208410610558575b601f0160051c01905b81811061054c57506100ef565b6000815560010161053f565b9091508190610536565b90607f16906100dd565b63d92e233d60e01b60005260046000fd5b506001600160a01b038216156100b2565b600080fd5b6040519190601f01601f191682016001600160401b0381118382101761039957604052565b51906001600160a01b038216820361058e57565b60005b8381106105df5750506000910152565b81810151838201526020016105cf565b81601f8201121561058e5780516001600160401b0381116103995761061d601f8201601f1916602001610593565b928184526020828401011161058e5761063c91602080850191016105cc565b90565b90602091610658815180928185528580860191016105cc565b601f01601f191601019056fe608080604052600436101561001357600080fd5b60003560e01c90816306237526146116c45750806306fdde03146116a65780631105a5eb146111a15780631ca55df81461114957806320d7f08b146111265780632b757cb81461109f57806339d3ad7714610fdd578063567142be14610fbf5780635abe34e2146109565780636fd5ae1514610f9e5780637bc4c06114610f805780638da5cb5b14610f3b578063963310af14610e935780639c53a12014610c7b578063a3abe42514610b69578063aa98efee1461031f578063c22c4f4314610ab0578063c45a015514610a6b578063e86bffdf14610999578063e904f66714610956578063ef8f259614610435578063f516b42214610350578063f7a13d891461031f5763fa40d2e81461012757600080fd5b3461031a57602036600319011261031a5760043533600052600760205260ff60406000205416156103095780156102f85780600052600860205260ff60406000205460a01c1660088110156102d1576102e757604051426001600160401b031661019082611719565b3382526020820160018152604083019060008252606084019260008452608085019181835260a0860191825286600052600860205260406000209560018060a01b039051166bffffffffffffffffffffffff60a01b875416178655519160088310156102d1576001600160401b039461022c60ff60019661021289978b611957565b51895460ff60a81b1916911660a81b60ff60a81b16178855565b51151586549060ff60b01b9060b01b169060ff60b01b1916178655518554908360b81b9060b81b16908360b81b19161785555116920191166001600160401b03198254161790556040519033817f18737ba33cf8fc3ca591008614a168159cb822fcb206ab8e12c6c200a39b95fb600080a360008252600160208301527f8cc8bd6dd4c5914c8824d0a2e6d02d8cbd54de0113506d38fa9c2cd5611d210460403393a3005b634e487b7160e01b600052602160045260246000fd5b631e8fa57160e31b60005260046000fd5b63406729f960e11b60005260046000fd5b6318eb746b60e11b60005260046000fd5b600080fd5b3461031a57602036600319011261031a576004356000526009602052602060ff604060002054166040519015158152f35b3461031a57600036600319011261031a576040516000600154610372816116df565b808452906001811690811561041157506001146103b2575b6103ae8361039a81850382611734565b6040519182916020835260208301906117f9565b0390f35b600160009081527fb10e2d527612073b26eecdfd717e6a320cf44b4afac2b0732d9fcbe2b7fa0cf6939250905b8082106103f75750909150810160200161039a61038a565b9192600181602092548385880101520191019092916103df565b60ff191660208086019190915291151560051b8401909101915061039a905061038a565b3461031a5760a036600319011261031a576004356001600160401b03811161031a5761046590369060040161183a565b906024356001600160401b03811161031a5761048590369060040161183a565b92906044356001600160401b03811161031a576104a690369060040161183a565b6064959195356001600160401b03811161031a576104c890369060040161183a565b96907f00000000000000000000000000000000000000000000000000000000000000006001600160a01b031633036109455760ff600354161561093457600b549460648610156109235761055c9261053e61054d926040519761052a89611719565b610535368c8e61197b565b8952369161197b565b9460208701958652369161197b565b9760408501988952369161197b565b95606083019687526080830191608435835260a084019460018652600052600a602052604060002093518051906001600160401b0382116107cd576105ab826105a588546116df565b88611874565b602090601f83116001146108bc576105dc929160009183610756575b50508160011b916000199060031b1c19161790565b84555b51805160018501916001600160401b0382116107cd576106098261060385546116df565b85611874565b602090601f8311600114610855576106399291600091836107565750508160011b916000199060031b1c19161790565b90555b51805160028401916001600160401b0382116107cd576106608261060385546116df565b602090601f83116001146107ee576106909291600091836107e35750508160011b916000199060031b1c19161790565b90555b6003820195519586516001600160401b0381116107cd576106be816106b884546116df565b84611874565b6020601f821160011461076157816005959493926106f59260019b6000926107565750508160011b916000199060031b1c19161790565b90555b516004820155019051151560ff801983541691161790557fe1f8251252d428948683869e48119b3d7a3f4df9e46c775f5c6591cbd065f4d5600b5492839261074d6040519283926020845260208401916118c6565b0390a201600b55005b015190508b806105c7565b601f1982169083600052806000209160005b8181106107b5575091839160019b6005989796958d951061079c575b505050811b0190556106f8565b015160001960f88460031b161c191690558a808061078f565b9192602060018192868f015181550194019201610773565b634e487b7160e01b600052604160045260246000fd5b015190508a806105c7565b90601f1983169184600052816000209260005b81811061083d5750908460019594939210610824575b505050811b019055610693565b015160001960f88460031b161c19169055898080610817565b92936020600181928786015181550195019301610801565b90601f1983169184600052816000209260005b8181106108a4575090846001959493921061088b575b505050811b01905561063c565b015160001960f88460031b161c191690558a808061087e565b92936020600181928786015181550195019301610868565b90601f1983169187600052816000209260005b81811061090b57509084600195949392106108f2575b505050811b0184556105df565b015160001960f88460031b161c191690558a80806108e5565b929360206001819287860151815501950193016108cf565b6336cd606760e21b60005260046000fd5b63a95362b560e01b60005260046000fd5b6330cd747160e01b60005260046000fd5b3461031a57602036600319011261031a576004356001600160a01b0381169081900361031a576000526007602052602060ff604060002054166040519015158152f35b3461031a57602036600319011261031a576004356001600160a01b0381169081900361031a577f00000000000000000000000000000000000000000000000000000000000000006001600160a01b03163303610a5a578015610a495780600052600760205260ff604060002054161561030957806000526007602052604060002060ff1981541690557f9cfe83a14fc052fe86cb71c1329bd455873a823933cf98c5dcff5721beca5152600080a2005b63d92e233d60e01b60005260046000fd5b631966391b60e11b60005260046000fd5b3461031a57600036600319011261031a576040517f00000000000000000000000000000000000000000000000000000000000000006001600160a01b03168152602090f35b3461031a57602036600319011261031a57600435600052600a602052610b2e6040600020610add81611755565b90610aea60018201611755565b610b58610af960028401611755565b610b4a610b0860038601611755565b91610b3c60ff600560048901549801541695604051998a9960c08b5260c08b01906117f9565b9089820360208b01526117f9565b9087820360408901526117f9565b9085820360608701526117f9565b916080840152151560a08301520390f35b3461031a57604036600319011261031a57602435600435600882101561031a5733600052600760205260ff604060002054161561030957610ba9816119c1565b8054336001600160a01b03821603610c6a5760ff8160b01c16610c595760a01c60ff1692610bd78185611a91565b15610c4857600182610bec83610c2095611957565b01805467ffffffffffffffff1916426001600160401b031617905560405193610c16908590611867565b6020840190611867565b7f8cc8bd6dd4c5914c8824d0a2e6d02d8cbd54de0113506d38fa9c2cd5611d210460403393a3005b63088bd32360e11b60005260046000fd5b63311d737b60e21b60005260046000fd5b631818917b60e01b60005260046000fd5b3461031a57604036600319011261031a5760043560ff81169081810361031a576024359033600052600760205260ff60406000205416156103095791610cc0826119c1565b8054909190336001600160a01b03821603610c6a5760ff8160b01c16610c595760a01c60ff1660088110156102d157600403610e8357600111610e7a575b600560ff841611610e71575b805460a884901b60ff60a81b1662ffffff60a01b19909116176201000760a01b1781556001908101805467ffffffffffffffff1916426001600160401b03161790556000828152600960205260409020805460ff1916909117905560045460ff9092169182810190818111610e5b57816004556005549060018201809211610e5b5760407f2a4f386dacbb02a5d478d3fc1d2dbc487b69ed735b8d629e99d905680db927eb91836005558151908152846020820152a16006549160ff831660ff610dd483856119e7565b16809460ff191617600655808403610e25575b506040519485526020850152604084015260608301527f3d5d384ab80e19e25a6f89bd353f3309482fad32e210aff2b1c6ae7ee2096b6460803393a3005b60407fe3baeb7cde6b34690f45a4b6b0c8d17538edc7064370627da2e7d25c2437147d918151908152856020820152a185610de7565b634e487b7160e01b600052601160045260246000fd5b60059250610d0a565b60019250610cfe565b6215588160e91b60005260046000fd5b3461031a57600036600319011261031a576040516000600254610eb5816116df565b80845290600181169081156104115750600114610edc576103ae8361039a81850382611734565b600260009081527f405787fa12a823e0f2b7631cc41b3ba8828b3321ca811111fa75cd3aa3bb5ace939250905b808210610f215750909150810160200161039a61038a565b919260018160209254838588010152019101909291610f09565b3461031a57600036600319011261031a576040517f00000000000000000000000000000000000000000000000000000000000000006001600160a01b03168152602090f35b3461031a57600036600319011261031a576020600554604051908152f35b3461031a57600036600319011261031a57602060ff60065416604051908152f35b3461031a57600036600319011261031a576020600454604051908152f35b3461031a57602036600319011261031a576004356001600160a01b0381169081900361031a577f00000000000000000000000000000000000000000000000000000000000000006001600160a01b03163303610a5a578015610a495780600052600760205260ff6040600020541661108f578060005260076020526040600020600160ff198254161790557fdf2cab5618b04639fbd29a022852edb95271f3d11b3702eea922c21ff7d5c067600080a2005b628ce1d160e01b60005260046000fd5b3461031a57602036600319011261031a57600435600052600860205260c060406000206001600160401b0360018254920154166001600160401b036040519260018060a01b03811684526110fc6020850160ff8360a01c16611867565b60ff8160a81c16604085015260ff8160b01c161515606085015260b81c16608083015260a0820152f35b3461031a57600036600319011261031a57602060ff600354166040519015158152f35b3461031a57602036600319011261031a57600435801515810361031a577f00000000000000000000000000000000000000000000000000000000000000006001600160a01b03163303610a5a5761119f906118e7565b005b3461031a57606036600319011261031a576004356001600160401b03811161031a576111d190369060040161183a565b906024356001600160401b03811161031a576111f190369060040161183a565b92906044356001600160401b03811161031a5761121290369060040161183a565b90917f00000000000000000000000000000000000000000000000000000000000000006001600160a01b03163303610945576001600160401b0384116107cd5761125d6000546116df565b601f8111611642575b50600084601f81116001146115c15780611296926000916115b6575b508160011b916000199060031b1c19161790565b6000555b6001600160401b0386116107cd576112b36001546116df565b601f8111611551575b50600086601f81116001146114cf57806112eb926000916114c457508160011b916000199060031b1c19161790565b6001555b6001600160401b0382116107cd576113086002546116df565b601f811161145f575b50600095601f83116001146113b35782916113959161136c846113a397967f7dc9ed3d635c09f8d480400bd28952dcf48619b0f27d3d69668fa24b1f7af8a49b6000916113a857508160011b916000199060031b1c19161790565b6002555b61138760405198899860608a5260608a01916118c6565b9187830360208901526118c6565b9184830360408601526118c6565b0390a1005b90508701358c611282565b600287527f405787fa12a823e0f2b7631cc41b3ba8828b3321ca811111fa75cd3aa3bb5ace96601f198416815b8181106114475750917f7dc9ed3d635c09f8d480400bd28952dcf48619b0f27d3d69668fa24b1f7af8a4988594926113a39796611395951061142d575b5050600184811b01600255611370565b860135600019600387901b60f8161c19169055898061141d565b868301358a55600190990198602092830192016113e0565b60026000527f405787fa12a823e0f2b7631cc41b3ba8828b3321ca811111fa75cd3aa3bb5ace601f840160051c810191602085106114ba575b601f0160051c01905b8181106114ae5750611311565b600081556001016114a1565b9091508190611498565b905083013589611282565b50600181527fb10e2d527612073b26eecdfd717e6a320cf44b4afac2b0732d9fcbe2b7fa0cf69087601f198116825b81811061153657501061151c575b5050600186811b016001556112ef565b820135600019600389901b60f8161c19169055868061150c565b8584013585556001909401936020938401938b9350016114fe565b60016000527fb10e2d527612073b26eecdfd717e6a320cf44b4afac2b0732d9fcbe2b7fa0cf6601f880160051c810191602089106115ac575b601f0160051c01905b8181106115a057506112bc565b60008155600101611593565b909150819061158a565b905087013589611282565b508080527f290decd9548b62a8d60345a988386fc84ba6bc95484008f6362f93160ef3e5639085601f198116825b81811061162757501061160d575b5050600184811b0160005561129a565b860135600019600387901b60f8161c1916905586806115fd565b898401358555600190940193602093840193899350016115ef565b600080527f290decd9548b62a8d60345a988386fc84ba6bc95484008f6362f93160ef3e563601f860160051c8101916020871061169c575b601f0160051c01905b8181106116905750611266565b60008155600101611683565b909150819061167a565b3461031a57600036600319011261031a576103ae61039a6000611755565b3461031a57600036600319011261031a57602090600b548152f35b90600182811c9216801561170f575b60208310146116f957565b634e487b7160e01b600052602260045260246000fd5b91607f16916116ee565b60c081019081106001600160401b038211176107cd57604052565b90601f801991011681019081106001600160401b038211176107cd57604052565b9060405191826000825492611769846116df565b80845293600181169081156117d75750600114611790575b5061178e92500383611734565b565b90506000929192526020600020906000915b8183106117bb57505090602061178e9282010138611781565b60209193508060019154838589010152019101909184926117a2565b90506020925061178e94915060ff191682840152151560051b82010138611781565b919082519283825260005b848110611825575050826000602080949584010152601f8019910116010190565b80602080928401015182828601015201611804565b9181601f8401121561031a578235916001600160401b03831161031a576020838186019501011161031a57565b9060088210156102d15752565b601f821161188157505050565b6000526020600020906020601f840160051c830193106118bc575b601f0160051c01905b8181106118b0575050565b600081556001016118a5565b909150819061189c565b908060209392818452848401376000828201840152601f01601f1916010190565b600354901515908160ff821615151461192e5760ff191660ff821617600355337f3a620c3544f4661f38b303e51ff3c4cc552da5a80ec55d4e3875af78775e1a82600080a3565b50337f3a620c3544f4661f38b303e51ff3c4cc552da5a80ec55d4e3875af78775e1a82600080a3565b9060088110156102d157815460ff60a01b191660a09190911b60ff60a01b16179055565b9291926001600160401b0382116107cd57604051916119a4601f8201601f191660200184611734565b82948184528183011161031a578281602093846000960137010152565b600052600860205260406000209060ff825460a01c1660088110156102d157156102f857565b601981101580611a86575b611a7f57601481101580611a74575b611a6d57600f81101580611a62575b611a5b57600a81101580611a50575b611a4957600511159081611a3d575b50611a3857600090565b600190565b60149150101538611a2e565b5050600290565b50602d821015611a1f565b5050600390565b506046821015611a10565b5050600490565b50605f821015611a01565b5050600590565b5060788210156119f2565b60088110156102d1576001811480611bf9575b611b455760006002821480611ba5575b611b1657506003811480611b4c575b611b45576000906004811480611b1e575b611b165760059150149081611aed5750611a3857600090565b905060088110156102d15760048114908115611b0b575b5038611a2e565b600691501438611b04565b505050600190565b506008831015611b315760078314611ad4565b634e487b7160e01b82526021600452602482fd5b5050600190565b506008821015806102d15760048314908115611b98575b8115611b87575b8115611b77575b50611ac3565b90506102d1576003821438611b71565b8091506102d1576006831490611b6a565b5050600582146000611b63565b50600883101580611b315760038414908115611bed575b8115611bc9575b50611ab4565b9050611bd9576005831438611bc3565b634e487b7160e01b81526021600452602490fd5b50506006831481611bbc565b5060088210156102d1576002821480611aa4575060068214611aa456fea26469706673582212202aa379a8e999b18f599b79c6b4a4c40f252e11581fde5c1d7b32106b8d5072ed64736f6c634300081c00337dc9ed3d635c09f8d480400bd28952dcf48619b0f27d3d69668fa24b1f7af8a4",
  "linkReferences": {},
  "deployedLinkReferences": {}
}