{
  "_format": "hh-sol-artifact-1",
  "contractName": "JobFundraise",
  "sourceName": "contracts/Freelancing/JobFundraise.sol",
  "abi": [
    {
      "inputs": [
        {
          "internalType": "address",
          "name": "_paymentToken",
          "type": "address"
        },
        {
          "internalType": "address",
          "name": "_escrow",
          "type": "address"
        },
        {
          "internalType": "address",
          "name": "_freelancer",
          "type": "address"
        },
        {
          "internalType": "address",
          "name": "_stats",
          "type": "address"
        },
        {
          "internalType": "address",
          "name": "_investorRegistry",
          "type": "address"
        },
        {
          "internalType": "uint256",
          "name": "_targetAmount",
          "type": "uint256"
        },
        {
          "internalType": "uint96",
          "name": "_investorProfitShareBps",
          "type": "uint96"
        },
        {
          "internalType": "uint64",
          "name": "_fundingDurationSecs",
          "type": "uint64"
        }
      ],
      "stateMutability": "nonpayable",
      "type": "constructor"
    },
    {
      "inputs": [],
      "name": "Accepted",
      "type": "error"
    },
    {
      "inputs": [],
      "name": "AlreadyResolved",
      "type": "error"
    },
    {
      "inputs": [],
      "name": "BpsTooHigh",
      "type": "error"
    },
    {
      "inputs": [],
      "name": "DeadlineNotPassed",
      "type": "error"
    },
    {
      "inputs": [],
      "name": "DeadlinePassed",
      "type": "error"
    },
    {
      "inputs": [],
      "name": "FundraiseFull",
      "type": "error"
    },
    {
      "inputs": [],
      "name": "InvalidAmount",
      "type": "error"
    },
    {
      "inputs": [],
      "name": "NotAccepted",
      "type": "error"
    },
    {
      "inputs": [],
      "name": "NotResolved",
      "type": "error"
    },
    {
      "inputs": [],
      "name": "NothingToClaim",
      "type": "error"
    },
    {
      "inputs": [],
      "name": "OnlyEscrow",
      "type": "error"
    },
    {
      "inputs": [],
      "name": "OnlyFreelancer",
      "type": "error"
    },
    {
      "inputs": [],
      "name": "PayoutAlreadyDistributed",
      "type": "error"
    },
    {
      "inputs": [],
      "name": "ReentrancyGuardReentrantCall",
      "type": "error"
    },
    {
      "inputs": [
        {
          "internalType": "address",
          "name": "token",
          "type": "address"
        }
      ],
      "name": "SafeERC20FailedOperation",
      "type": "error"
    },
    {
      "inputs": [],
      "name": "ZeroAddress",
      "type": "error"
    },
    {
      "anonymous": false,
      "inputs": [
        {
          "indexed": false,
          "internalType": "uint256",
          "name": "amount",
          "type": "uint256"
        }
      ],
      "name": "FreelancerClaimed",
      "type": "event"
    },
    {
      "anonymous": false,
      "inputs": [
        {
          "indexed": false,
          "internalType": "bool",
          "name": "accepted",
          "type": "bool"
        },
        {
          "indexed": false,
          "internalType": "uint256",
          "name": "amountRaised",
          "type": "uint256"
        }
      ],
      "name": "FundraiseResolved",
      "type": "event"
    },
    {
      "anonymous": false,
      "inputs": [
        {
          "indexed": true,
          "internalType": "address",
          "name": "investor",
          "type": "address"
        },
        {
          "indexed": false,
          "internalType": "uint256",
          "name": "amount",
          "type": "uint256"
        }
      ],
      "name": "Invested",
      "type": "event"
    },
    {
      "anonymous": false,
      "inputs": [
        {
          "indexed": true,
          "internalType": "address",
          "name": "investor",
          "type": "address"
        },
        {
          "indexed": false,
          "internalType": "uint256",
          "name": "amount",
          "type": "uint256"
        }
      ],
      "name": "InvestorClaimed",
      "type": "event"
    },
    {
      "anonymous": false,
      "inputs": [
        {
          "indexed": false,
          "internalType": "uint256",
          "name": "totalPayout",
          "type": "uint256"
        },
        {
          "indexed": false,
          "internalType": "uint256",
          "name": "investorPool",
          "type": "uint256"
        },
        {
          "indexed": false,
          "internalType": "uint256",
          "name": "freelancerPool",
          "type": "uint256"
        }
      ],
      "name": "PayoutDistributedEvent",
      "type": "event"
    },
    {
      "anonymous": false,
      "inputs": [
        {
          "indexed": true,
          "internalType": "address",
          "name": "investor",
          "type": "address"
        },
        {
          "indexed": false,
          "internalType": "uint256",
          "name": "amount",
          "type": "uint256"
        }
      ],
      "name": "RefundClaimed",
      "type": "event"
    },
    {
      "inputs": [],
      "name": "claimFreelancer",
      "outputs": [],
      "stateMutability": "nonpayable",
      "type": "function"
    },
    {
      "inputs": [],
      "name": "claimInvestor",
      "outputs": [],
      "stateMutability": "nonpayable",
      "type": "function"
    },
    {
      "inputs": [],
      "name": "claimRefund",
      "outputs": [],
      "stateMutability": "nonpayable",
      "type": "function"
    },
    {
      "inputs": [
        {
          "internalType": "address",
          "name": "",
          "type": "address"
        }
      ],
      "name": "deposits",
      "outputs": [
        {
          "internalType": "uint256",
          "name": "",
          "type": "uint256"
        }
      ],
      "stateMutability": "view",
      "type": "function"
    },
    {
      "inputs": [
        {
          "internalType": "uint256",
          "name": "amountPaid",
          "type": "uint256"
        }
      ],
      "name": "distribute",
      "outputs": [],
      "stateMutability": "nonpayable",
      "type": "function"
    },
    {
      "inputs": [],
      "name": "escrow",
      "outputs": [
        {
          "internalType": "address",
          "name": "",
          "type": "address"
        }
      ],
      "stateMutability": "view",
      "type": "function"
    },
    {
      "inputs": [],
      "name": "freelancer",
      "outputs": [
        {
          "internalType": "address",
          "name": "",
          "type": "address"
        }
      ],
      "stateMutability": "view",
      "type": "function"
    },
    {
      "inputs": [],
      "name": "freelancerClaimed",
      "outputs": [
        {
          "internalType": "bool",
          "name": "",
          "type": "bool"
        }
      ],
      "stateMutability": "view",
      "type": "function"
    },
    {
      "inputs": [],
      "name": "freelancerPoolTotal",
      "outputs": [
        {
          "internalType": "uint256",
          "name": "",
          "type": "uint256"
        }
      ],
      "stateMutability": "view",
      "type": "function"
    },
    {
      "inputs": [],
      "name": "fundingDeadline",
      "outputs": [
        {
          "internalType": "uint64",
          "name": "",
          "type": "uint64"
        }
      ],
      "stateMutability": "view",
      "type": "function"
    },
    {
      "inputs": [],
      "name": "getInvestors",
      "outputs": [
        {
          "internalType": "address[]",
          "name": "",
          "type": "address[]"
        }
      ],
      "stateMutability": "view",
      "type": "function"
    },
    {
      "inputs": [
        {
          "internalType": "uint256",
          "name": "amount",
          "type": "uint256"
        }
      ],
      "name": "invest",
      "outputs": [],
      "stateMutability": "nonpayable",
      "type": "function"
    },
    {
      "inputs": [
        {
          "internalType": "address",
          "name": "",
          "type": "address"
        }
      ],
      "name": "investorClaimed",
      "outputs": [
        {
          "internalType": "uint256",
          "name": "",
          "type": "uint256"
        }
      ],
      "stateMutability": "view",
      "type": "function"
    },
    {
      "inputs": [],
      "name": "investorPoolTotal",
      "outputs": [
        {
          "internalType": "uint256",
          "name": "",
          "type": "uint256"
        }
      ],
      "stateMutability": "view",
      "type": "function"
    },
    {
      "inputs": [],
      "name": "investorProfitShareBps",
      "outputs": [
        {
          "internalType": "uint96",
          "name": "",
          "type": "uint96"
        }
      ],
      "stateMutability": "view",
      "type": "function"
    },
    {
      "inputs": [],
      "name": "investorRegistry",
      "outputs": [
        {
          "internalType": "contract IInvestorRegistryForJob",
          "name": "",
          "type": "address"
        }
      ],
      "stateMutability": "view",
      "type": "function"
    },
    {
      "inputs": [
        {
          "internalType": "uint256",
          "name": "",
          "type": "uint256"
        }
      ],
      "name": "investors",
      "outputs": [
        {
          "internalType": "address",
          "name": "",
          "type": "address"
        }
      ],
      "stateMutability": "view",
      "type": "function"
    },
    {
      "inputs": [],
      "name": "isAccepted",
      "outputs": [
        {
          "internalType": "bool",
          "name": "",
          "type": "bool"
        }
      ],
      "stateMutability": "view",
      "type": "function"
    },
    {
      "inputs": [],
      "name": "isResolved",
      "outputs": [
        {
          "internalType": "bool",
          "name": "",
          "type": "bool"
        }
      ],
      "stateMutability": "view",
      "type": "function"
    },
    {
      "inputs": [],
      "name": "paymentToken",
      "outputs": [
        {
          "internalType": "contract IERC20",
          "name": "",
          "type": "address"
        }
      ],
      "stateMutability": "view",
      "type": "function"
    },
    {
      "inputs": [],
      "name": "payoutDistributed",
      "outputs": [
        {
          "internalType": "bool",
          "name": "",
          "type": "bool"
        }
      ],
      "stateMutability": "view",
      "type": "function"
    },
    {
      "inputs": [],
      "name": "raisedFundsWithdrawn",
      "outputs": [
        {
          "internalType": "bool",
          "name": "",
          "type": "bool"
        }
      ],
      "stateMutability": "view",
      "type": "function"
    },
    {
      "inputs": [
        {
          "internalType": "uint256",
          "name": "amount",
          "type": "uint256"
        }
      ],
      "name": "reimburseInvestors",
      "outputs": [],
      "stateMutability": "nonpayable",
      "type": "function"
    },
    {
      "inputs": [
        {
          "internalType": "bool",
          "name": "acceptPartial",
          "type": "bool"
        }
      ],
      "name": "resolveFundraise",
      "outputs": [],
      "stateMutability": "nonpayable",
      "type": "function"
    },
    {
      "inputs": [],
      "name": "stats",
      "outputs": [
        {
          "internalType": "contract IPlatformStats",
          "name": "",
          "type": "address"
        }
      ],
      "stateMutability": "view",
      "type": "function"
    },
    {
      "inputs": [],
      "name": "targetAmount",
      "outputs": [
        {
          "internalType": "uint256",
          "name": "",
          "type": "uint256"
        }
      ],
      "stateMutability": "view",
      "type": "function"
    },
    {
      "inputs": [],
      "name": "totalPayoutReceived",
      "outputs": [
        {
          "internalType": "uint256",
          "name": "",
          "type": "uint256"
        }
      ],
      "stateMutability": "view",
      "type": "function"
    },
    {
      "inputs": [],
      "name": "totalRaised",
      "outputs": [
        {
          "internalType": "uint256",
          "name": "",
          "type": "uint256"
        }
      ],
      "stateMutability": "view",
      "type": "function"
    },
    {
      "inputs": [],
      "name": "withdrawRaisedFunds",
      "outputs": [],
      "stateMutability": "nonpayable",
      "type": "function"
    }
  ],
  "bytecode": "0x6101803461029057601f6116ae38819003918201601f19168301916001600160401b03831184841017610295578084926101009460405283398101031261029057610049816102ab565b90610056602082016102ab565b610062604083016102ab565b61006e606084016102ab565b61007a608085016102ab565b9160a08501519360c08601519560018060601b038716908188036102905760e001516001600160401b03811698908990036102905760016000556001600160a01b0316908115801561027f575b801561026e575b61025d57861561024c576127101061023b5760805260a05260c0526001600160a01b031680610232575b506001600160a01b031680610228575b5061012052610140526001600160401b034281169190910190811161021257610160526040516113ee90816102c08239608051818181610325015281816103f90152818161094d01528181610c3801528181610d6401528181610e73015261115a015260a0518181816102000152610726015260c051818181610304015281816105560152818161069d01528181610bc501526110f8015260e051818181610268015281816109740152610e9a0152610100518181816109a501528181610d010152610ecb015261012051818181610644015281816106e40152610df30152610140518181816107dc0152610b4901526101605181818161059b01528181610ae20152610dc10152f35b634e487b7160e01b600052601160045260246000fd5b6101005238610108565b60e052386100f8565b63bbf4268d60e01b60005260046000fd5b63162908e360e11b60005260046000fd5b63d92e233d60e01b60005260046000fd5b506001600160a01b038416156100ce565b506001600160a01b038316156100c7565b600080fd5b634e487b7160e01b600052604160045260246000fd5b51906001600160a01b03821682036102905756fe608080604052600436101561001357600080fd5b600090813560e01c908163011af9fe146111dc5750806302c9c151146110d95780630e672fe1146110bb5780632afcf48014610d935780633013ce2914610d4e578063321d769614610d305780633734256e14610ceb5780633feb5f2b14610ca75780635051a5ec14610c815780635413713a14610baa5780636cf3c57514610b6d578063772ee15414610b2457806377328e4e14610b06578063796b23bb14610ac15780638a237ac5146108d957806391c05b0b14610707578063953b8fb8146106cc578063a37dda2c14610687578063afd1fa3414610536578063b2f5a54c1461046e578063b5545a3c146103a2578063c5c4744c14610384578063ca339cbb14610297578063d80528ae14610252578063dbb3f5371461022f578063e2fdcc17146101ea578063e8ab68b8146101c4578063ee8ad670146101a15763fc7e286d1461016057600080fd5b3461019e57602036600319011261019e576004356001600160a01b0381169081900361019c578160409160209352600383522054604051908152f35b505b80fd5b503461019e578060031936011261019e57602060ff600a54166040519015158152f35b503461019e578060031936011261019e57602060ff600a5460081c166040519015158152f35b503461019e578060031936011261019e576040517f00000000000000000000000000000000000000000000000000000000000000006001600160a01b03168152602090f35b503461019e578060031936011261019e57602060ff600254166040519015158152f35b503461019e578060031936011261019e576040517f00000000000000000000000000000000000000000000000000000000000000006001600160a01b03168152602090f35b503461019e578060031936011261019e576102b06112a9565b60ff600554161561037557600854801561036657600a5460ff81166103575760ff1916600117600a557f913285a591c37415532930d8293f030746701148d438262442355f4751ff559390602090610349817f00000000000000000000000000000000000000000000000000000000000000007f0000000000000000000000000000000000000000000000000000000000000000611316565b604051908152a16001815580f35b63162908e360e11b8352600483fd5b6312d37ee560e31b8252600482fd5b639f4a648960e01b8152600490fd5b503461019e578060031936011261019e576020600154604051908152f35b503461019e578060031936011261019e576103bb6112a9565b60025460ff81161561045f5760081c60ff166104505733815260036020526040812054801561036657338252600360205281604081205561041d81337f0000000000000000000000000000000000000000000000000000000000000000611316565b6040519081527f358fe4192934d3bf28ae181feda1f4bd08ca67f5e2fad55582cce5eb67304ae960203392a26001815580f35b6333cf58f960e01b8152600490fd5b639f4a648960e01b8252600482fd5b503461019e578060031936011261019e5760405180602060045491828152018091600485527f8a35acfbc15ff81a39ae7d344fd709f28e8600b4aa8c65c6b64bfe7fe36bd19b90855b81811061051757505050826104cd91038361125e565b604051928392602084019060208552518091526040840192915b8181106104f5575050500390f35b82516001600160a01b03168452859450602093840193909201916001016104e7565b82546001600160a01b03168452602090930192600192830192016104b7565b503461019e57602036600319011261019e57600435801515810361019c577f00000000000000000000000000000000000000000000000000000000000000006001600160a01b03163303610678576002549060ff82166106695767ffffffffffffffff7f0000000000000000000000000000000000000000000000000000000000000000164211158061063e575b61062f5760017fe5eb9d9de79b325e812866ac175f838b9c6cf623527ffd04b62bdc4cfcde6491928260409390610625575b61ff0090151560081b169061ffff191617178060025560015460ff83519260081c16151582526020820152a180f35b50815415156105f6565b6302eb354360e41b8352600483fd5b506001547f0000000000000000000000000000000000000000000000000000000000000000116105c4565b6336ab81e160e11b8352600483fd5b636b7809b960e01b8252600482fd5b503461019e578060031936011261019e576040517f00000000000000000000000000000000000000000000000000000000000000006001600160a01b03168152602090f35b503461019e578060031936011261019e5760206040517f00000000000000000000000000000000000000000000000000000000000000008152f35b503461019e57602036600319011261019e576004356107246112a9565b7f00000000000000000000000000000000000000000000000000000000000000006001600160a01b031633036108ca5780156108bb5760025460ff8116159081156108ac575b5061089d5760055460ff811661088e577f772e2403c28b1e95b5d566800119312e3510d61340a6e174aad2de90a90f6e2291600160609260ff1916176005558060065560015480821160001461087f576108096127106108026107cd848661122e565b6bffffffffffffffffffffffff7f00000000000000000000000000000000000000000000000000000000000000001690611296565b0482611251565b8291600a549060ff8260081c161561085e575b505081811115610853575061083681805b8160075561122e565b908160085560405192835260208301526040820152a16001815580f35b61083690809261082d565b61010091935061086e9085611251565b9261ff00191617600a55388061081c565b610809612710610802876107cd565b63237e7f5760e01b8352600483fd5b63029d79a560e41b8252600482fd5b60ff915060081c16153861076a565b63162908e360e11b8252600482fd5b630d0418ed60e11b8252600482fd5b503461019e578060031936011261019e576108f26112a9565b60ff60055416156103755733815260036020526040812054801561036657338252600960205260408220546108bb5760075461092d91611296565b600154908115610aad5704338252600960205280604083205561097181337f0000000000000000000000000000000000000000000000000000000000000000611316565b817f00000000000000000000000000000000000000000000000000000000000000006001600160a01b031680610a68575b507f00000000000000000000000000000000000000000000000000000000000000006001600160a01b031680610a08575b50506040519081527f999b30f9cebf480f8d5729a4de47050ab1c0ad132c0114afe35dbe87c9ef86cf60203392a26001815580f35b803b1561019c57604051631712fc5960e11b8152336004820152306024820152604481018490529082908290606490829084905af18015610a5d57156109d35781610a529161125e565b61019c5781386109d3565b6040513d84823e3d90fd5b803b1561019c5781809160246040518094819363018634f560e21b83528860048401525af18015610a5d57156109a25781610aa29161125e565b61019c5781386109a2565b634e487b7160e01b83526012600452602483fd5b503461019e578060031936011261019e57602060405167ffffffffffffffff7f0000000000000000000000000000000000000000000000000000000000000000168152f35b503461019e578060031936011261019e576020600754604051908152f35b503461019e578060031936011261019e5760206040516bffffffffffffffffffffffff7f0000000000000000000000000000000000000000000000000000000000000000168152f35b503461019e57602036600319011261019e576004356001600160a01b0381169081900361019c578160409160209352600983522054604051908152f35b503461019e578060031936011261019e57610bc36112a9565b7f0000000000000000000000000000000000000000000000000000000000000000906001600160a01b0382163303610c725760025460ff81161561045f5760081c60ff1615610c6357600a549160ff8360081c166108bb5760015490811561035757610100610c5c939461ff00191617600a557f0000000000000000000000000000000000000000000000000000000000000000611316565b6001815580f35b63029d79a560e41b8152600490fd5b636b7809b960e01b8152600490fd5b503461019e578060031936011261019e57602060ff60025460081c166040519015158152f35b503461019e57602036600319011261019e576004359060045482101561019e576020610cd2836111fd565b905460405160039290921b1c6001600160a01b03168152f35b503461019e578060031936011261019e576040517f00000000000000000000000000000000000000000000000000000000000000006001600160a01b03168152602090f35b503461019e578060031936011261019e576020600654604051908152f35b503461019e578060031936011261019e576040517f00000000000000000000000000000000000000000000000000000000000000006001600160a01b03168152602090f35b503461019e57602036600319011261019e57600435610db06112a9565b80156108bb5767ffffffffffffffff7f00000000000000000000000000000000000000000000000000000000000000001642116110ac5760ff6002541661109d577f000000000000000000000000000000000000000000000000000000000000000090610e1f6001548361122e565b90811561108e578181111561108757505b338352600360205260408320541561102e575b338352600360205260408320610e5a828254611251565b9055610e6881600154611251565b600155610e978130337f00000000000000000000000000000000000000000000000000000000000000006112cb565b827f00000000000000000000000000000000000000000000000000000000000000006001600160a01b031680610fd9575b507f00000000000000000000000000000000000000000000000000000000000000006001600160a01b031680610f80575b50506040519081527fc3f75dfc78f6efac88ad5abb5e606276b903647d97b2a62a1ef89840a658bbc360203392a2600154908114610f3a575b506001815580f35b60407fe5eb9d9de79b325e812866ac175f838b9c6cf623527ffd04b62bdc4cfcde64919161010161ffff196002541617600255815190600182526020820152a138610f32565b803b1561019c57604051635a98537560e11b8152336004820152306024820152604481018490529082908290606490829084905af18015610a5d5715610ef95781610fca9161125e565b610fd5578238610ef9565b8280fd5b803b1561019c57819060246040518094819363033432fb60e61b83528760048401525af180156110235761100f575b8390610ec8565b8361101c9194929461125e565b9138611008565b6040513d86823e3d90fd5b600454680100000000000000008110156110735780600161105292016004556111fd565b81546001600160a01b0360039290921b91821b19163390911b179055610e43565b634e487b7160e01b84526041600452602484fd5b9050610e30565b632cea1bc160e01b8452600484fd5b6336ab81e160e11b8252600482fd5b63387b2e5560e11b8252600482fd5b503461019e578060031936011261019e576020600854604051908152f35b503461019e57602036600319011261019e576004356110f66112a9565b7f00000000000000000000000000000000000000000000000000000000000000006001600160a01b031633036106785760025460ff8116159081156111cd575b5061089d5760ff600a5460081c16156108bb5760015481036108bb5761117e9030337f00000000000000000000000000000000000000000000000000000000000000006112cb565b61ff00196002541660025561ff0019600a5416600a557fe5eb9d9de79b325e812866ac175f838b9c6cf623527ffd04b62bdc4cfcde649160406001548151908482526020820152a16001815580f35b60ff915060081c161538611136565b90503461019c578160031936011261019c5760209060ff6005541615158152f35b60045481101561121857600460005260206000200190600090565b634e487b7160e01b600052603260045260246000fd5b9190820391821161123b57565b634e487b7160e01b600052601160045260246000fd5b9190820180921161123b57565b90601f8019910116810190811067ffffffffffffffff82111761128057604052565b634e487b7160e01b600052604160045260246000fd5b8181029291811591840414171561123b57565b6002600054146112ba576002600055565b633ee5aeb560e01b60005260046000fd5b6040516323b872dd60e01b60208201526001600160a01b0392831660248201529290911660448301526064808301939093529181526113149161130f60848361125e565b611351565b565b60405163a9059cbb60e01b60208201526001600160a01b0390921660248301526044808301939093529181526113149161130f60648361125e565b906000602091828151910182855af1156113ac576000513d6113a357506001600160a01b0381163b155b6113825750565b635274afe760e01b60009081526001600160a01b0391909116600452602490fd5b6001141561137b565b6040513d6000823e3d90fdfea26469706673582212209c8401253b04015ec127f002899e4c270a949c4066ea8f0be70befd01180972464736f6c634300081c0033",
  "linkReferences": {},
  "deployedLinkReferences": {}
}