{
  "_format": "hh-sol-artifact-1",
  "contractName": "JobFundraise",
  "sourceName": "contracts/Freelancing/JobFundraise.sol",
  "abi": [
    {
      "inputs": [
        {
          "internalType": "address",
          "name": "_paymentToken",
          "type": "address"
        },
        {
          "internalType": "address",
          "name": "_escrow",
          "type": "address"
        },
        {
          "internalType": "address",
          "name": "_freelancer",
          "type": "address"
        },
        {
          "internalType": "address",
          "name": "_stats",
          "type": "address"
        },
        {
          "internalType": "address",
          "name": "_investorRegistry",
          "type": "address"
        },
        {
          "internalType": "uint256",
          "name": "_targetAmount",
          "type": "uint256"
        },
        {
          "internalType": "uint96",
          "name": "_investorProfitShareBps",
          "type": "uint96"
        },
        {
          "internalType": "uint64",
          "name": "_fundingDurationSecs",
          "type": "uint64"
        }
      ],
      "stateMutability": "nonpayable",
      "type": "constructor"
    },
    {
      "inputs": [],
      "name": "Accepted",
      "type": "error"
    },
    {
      "inputs": [],
      "name": "AlreadyResolved",
      "type": "error"
    },
    {
      "inputs": [],
      "name": "BpsTooHigh",
      "type": "error"
    },
    {
      "inputs": [],
      "name": "DeadlineNotPassed",
      "type": "error"
    },
    {
      "inputs": [],
      "name": "DeadlinePassed",
      "type": "error"
    },
    {
      "inputs": [],
      "name": "FundraiseFull",
      "type": "error"
    },
    {
      "inputs": [],
      "name": "InvalidAmount",
      "type": "error"
    },
    {
      "inputs": [],
      "name": "NotAccepted",
      "type": "error"
    },
    {
      "inputs": [],
      "name": "NotResolved",
      "type": "error"
    },
    {
      "inputs": [],
      "name": "NothingToClaim",
      "type": "error"
    },
    {
      "inputs": [],
      "name": "OnlyEscrow",
      "type": "error"
    },
    {
      "inputs": [],
      "name": "OnlyFreelancer",
      "type": "error"
    },
    {
      "inputs": [],
      "name": "PayoutAlreadyDistributed",
      "type": "error"
    },
    {
      "inputs": [],
      "name": "ReentrancyGuardReentrantCall",
      "type": "error"
    },
    {
      "inputs": [
        {
          "internalType": "address",
          "name": "token",
          "type": "address"
        }
      ],
      "name": "SafeERC20FailedOperation",
      "type": "error"
    },
    {
      "inputs": [],
      "name": "ZeroAddress",
      "type": "error"
    },
    {
      "anonymous": false,
      "inputs": [
        {
          "indexed": false,
          "internalType": "uint256",
          "name": "amount",
          "type": "uint256"
        }
      ],
      "name": "FreelancerClaimed",
      "type": "event"
    },
    {
      "anonymous": false,
      "inputs": [
        {
          "indexed": false,
          "internalType": "bool",
          "name": "accepted",
          "type": "bool"
        },
        {
          "indexed": false,
          "internalType": "uint256",
          "name": "amountRaised",
          "type": "uint256"
        }
      ],
      "name": "FundraiseResolved",
      "type": "event"
    },
    {
      "anonymous": false,
      "inputs": [
        {
          "indexed": true,
          "internalType": "address",
          "name": "investor",
          "type": "address"
        },
        {
          "indexed": false,
          "internalType": "uint256",
          "name": "amount",
          "type": "uint256"
        }
      ],
      "name": "Invested",
      "type": "event"
    },
    {
      "anonymous": false,
      "inputs": [
        {
          "indexed": true,
          "internalType": "address",
          "name": "investor",
          "type": "address"
        },
        {
          "indexed": false,
          "internalType": "uint256",
          "name": "amount",
          "type": "uint256"
        }
      ],
      "name": "InvestorClaimed",
      "type": "event"
    },
    {
      "anonymous": false,
      "inputs": [
        {
          "indexed": false,
          "internalType": "uint256",
          "name": "totalPayout",
          "type": "uint256"
        },
        {
          "indexed": false,
          "internalType": "uint256",
          "name": "investorPool",
          "type": "uint256"
        },
        {
          "indexed": false,
          "internalType": "uint256",
          "name": "freelancerPool",
          "type": "uint256"
        }
      ],
      "name": "PayoutDistributedEvent",
      "type": "event"
    },
    {
      "anonymous": false,
      "inputs": [
        {
          "indexed": true,
          "internalType": "address",
          "name": "investor",
          "type": "address"
        },
        {
          "indexed": false,
          "internalType": "uint256",
          "name": "amount",
          "type": "uint256"
        }
      ],
      "name": "RefundClaimed",
      "type": "event"
    },
    {
      "inputs": [],
      "name": "claimFreelancer",
      "outputs": [],
      "stateMutability": "nonpayable",
      "type": "function"
    },
    {
      "inputs": [],
      "name": "claimInvestor",
      "outputs": [],
      "stateMutability": "nonpayable",
      "type": "function"
    },
    {
      "inputs": [],
      "name": "claimRefund",
      "outputs": [],
      "stateMutability": "nonpayable",
      "type": "function"
    },
    {
      "inputs": [
        {
          "internalType": "address",
          "name": "",
          "type": "address"
        }
      ],
      "name": "deposits",
      "outputs": [
        {
          "internalType": "uint256",
          "name": "",
          "type": "uint256"
        }
      ],
      "stateMutability": "view",
      "type": "function"
    },
    {
      "inputs": [
        {
          "internalType": "uint256",
          "name": "amountPaid",
          "type": "uint256"
        }
      ],
      "name": "distribute",
      "outputs": [],
      "stateMutability": "nonpayable",
      "type": "function"
    },
    {
      "inputs": [],
      "name": "escrow",
      "outputs": [
        {
          "internalType": "address",
          "name": "",
          "type": "address"
        }
      ],
      "stateMutability": "view",
      "type": "function"
    },
    {
      "inputs": [],
      "name": "freelancer",
      "outputs": [
        {
          "internalType": "address",
          "name": "",
          "type": "address"
        }
      ],
      "stateMutability": "view",
      "type": "function"
    },
    {
      "inputs": [],
      "name": "freelancerClaimed",
      "outputs": [
        {
          "internalType": "bool",
          "name": "",
          "type": "bool"
        }
      ],
      "stateMutability": "view",
      "type": "function"
    },
    {
      "inputs": [],
      "name": "freelancerPoolTotal",
      "outputs": [
        {
          "internalType": "uint256",
          "name": "",
          "type": "uint256"
        }
      ],
      "stateMutability": "view",
      "type": "function"
    },
    {
      "inputs": [],
      "name": "fundingDeadline",
      "outputs": [
        {
          "internalType": "uint64",
          "name": "",
          "type": "uint64"
        }
      ],
      "stateMutability": "view",
      "type": "function"
    },
    {
      "inputs": [],
      "name": "getInvestors",
      "outputs": [
        {
          "internalType": "address[]",
          "name": "",
          "type": "address[]"
        }
      ],
      "stateMutability": "view",
      "type": "function"
    },
    {
      "inputs": [
        {
          "internalType": "uint256",
          "name": "amount",
          "type": "uint256"
        }
      ],
      "name": "invest",
      "outputs": [],
      "stateMutability": "nonpayable",
      "type": "function"
    },
    {
      "inputs": [
        {
          "internalType": "address",
          "name": "",
          "type": "address"
        }
      ],
      "name": "investorClaimed",
      "outputs": [
        {
          "internalType": "uint256",
          "name": "",
          "type": "uint256"
        }
      ],
      "stateMutability": "view",
      "type": "function"
    },
    {
      "inputs": [],
      "name": "investorPoolTotal",
      "outputs": [
        {
          "internalType": "uint256",
          "name": "",
          "type": "uint256"
        }
      ],
      "stateMutability": "view",
      "type": "function"
    },
    {
      "inputs": [],
      "name": "investorProfitShareBps",
      "outputs": [
        {
          "internalType": "uint96",
          "name": "",
          "type": "uint96"
        }
      ],
      "stateMutability": "view",
      "type": "function"
    },
    {
      "inputs": [],
      "name": "investorRegistry",
      "outputs": [
        {
          "internalType": "contract IInvestorRegistryForJob",
          "name": "",
          "type": "address"
        }
      ],
      "stateMutability": "view",
      "type": "function"
    },
    {
      "inputs": [
        {
          "internalType": "uint256",
          "name": "",
          "type": "uint256"
        }
      ],
      "name": "investors",
      "outputs": [
        {
          "internalType": "address",
          "name": "",
          "type": "address"
        }
      ],
      "stateMutability": "view",
      "type": "function"
    },
    {
      "inputs": [],
      "name": "isAccepted",
      "outputs": [
        {
          "internalType": "bool",
          "name": "",
          "type": "bool"
        }
      ],
      "stateMutability": "view",
      "type": "function"
    },
    {
      "inputs": [],
      "name": "isResolved",
      "outputs": [
        {
          "internalType": "bool",
          "name": "",
          "type": "bool"
        }
      ],
      "stateMutability": "view",
      "type": "function"
    },
    {
      "inputs": [],
      "name": "paymentToken",
      "outputs": [
        {
          "internalType": "contract IERC20",
          "name": "",
          "type": "address"
        }
      ],
      "stateMutability": "view",
      "type": "function"
    },
    {
      "inputs": [],
      "name": "payoutDistributed",
      "outputs": [
        {
          "internalType": "bool",
          "name": "",
          "type": "bool"
        }
      ],
      "stateMutability": "view",
      "type": "function"
    },
    {
      "inputs": [],
      "name": "raisedFundsWithdrawn",
      "outputs": [
        {
          "internalType": "bool",
          "name": "",
          "type": "bool"
        }
      ],
      "stateMutability": "view",
      "type": "function"
    },
    {
      "inputs": [
        {
          "internalType": "uint256",
          "name": "amount",
          "type": "uint256"
        }
      ],
      "name": "reimburseInvestors",
      "outputs": [],
      "stateMutability": "nonpayable",
      "type": "function"
    },
    {
      "inputs": [
        {
          "internalType": "bool",
          "name": "acceptPartial",
          "type": "bool"
        }
      ],
      "name": "resolveFundraise",
      "outputs": [],
      "stateMutability": "nonpayable",
      "type": "function"
    },
    {
      "inputs": [],
      "name": "stats",
      "outputs": [
        {
          "internalType": "contract IPlatformStats",
          "name": "",
          "type": "address"
        }
      ],
      "stateMutability": "view",
      "type": "function"
    },
    {
      "inputs": [],
      "name": "targetAmount",
      "outputs": [
        {
          "internalType": "uint256",
          "name": "",
          "type": "uint256"
        }
      ],
      "stateMutability": "view",
      "type": "function"
    },
    {
      "inputs": [],
      "name": "totalPayoutReceived",
      "outputs": [
        {
          "internalType": "uint256",
          "name": "",
          "type": "uint256"
        }
      ],
      "stateMutability": "view",
      "type": "function"
    },
    {
      "inputs": [],
      "name": "totalRaised",
      "outputs": [
        {
          "internalType": "uint256",
          "name": "",
          "type": "uint256"
        }
      ],
      "stateMutability": "view",
      "type": "function"
    },
    {
      "inputs": [],
      "name": "withdrawRaisedFunds",
      "outputs": [],
      "stateMutability": "nonpayable",
      "type": "function"
    }
  ],
  "bytecode": "0x6101803461029057601f61168b38819003918201601f19168301916001600160401b03831184841017610295578084926101009460405283398101031261029057610049816102ab565b90610056602082016102ab565b610062604083016102ab565b61006e606084016102ab565b61007a608085016102ab565b9160a08501519360c08601519560018060601b038716908188036102905760e001516001600160401b03811698908990036102905760016000556001600160a01b0316908115801561027f575b801561026e575b61025d57861561024c576127101061023b5760805260a05260c0526001600160a01b031680610232575b506001600160a01b031680610228575b5061012052610140526001600160401b034281169190910190811161021257610160526040516113cb90816102c08239608051818181610325015281816103f90152818161093301528181610c1201528181610d3e01528181610e4c0152611114015260a0518181816102000152610713015260c051818181610304015281816105560152818161068a01528181610b9f01526110b2015260e0518181816102680152818161095a0152610e7301526101005181818161098b01528181610cdb0152610ea4015261012051818181610631015281816106d10152610dcc0152610140518181816107c20152610b1801526101605181818161059201528181610ab50152610d920152f35b634e487b7160e01b600052601160045260246000fd5b6101005238610108565b60e052386100f8565b63bbf4268d60e01b60005260046000fd5b63162908e360e11b60005260046000fd5b63d92e233d60e01b60005260046000fd5b506001600160a01b038416156100ce565b506001600160a01b038316156100c7565b600080fd5b634e487b7160e01b600052604160045260246000fd5b51906001600160a01b03821682036102905756fe608080604052600436101561001357600080fd5b600090813560e01c908163011af9fe146111845750806302c9c151146110935780630e672fe1146110755780632afcf48014610d6d5780633013ce2914610d28578063321d769614610d0a5780633734256e14610cc55780633feb5f2b14610c815780635051a5ec14610c5b5780635413713a14610b845780636cf3c57514610b47578063772ee15414610b0257806377328e4e14610ae4578063796b23bb14610a9f5780638a237ac5146108bf57806391c05b0b146106f4578063953b8fb8146106b9578063a37dda2c14610674578063afd1fa3414610536578063b2f5a54c1461046e578063b5545a3c146103a2578063c5c4744c14610384578063ca339cbb14610297578063d80528ae14610252578063dbb3f5371461022f578063e2fdcc17146101ea578063e8ab68b8146101c4578063ee8ad670146101a15763fc7e286d1461016057600080fd5b3461019e57602036600319011261019e576004356001600160a01b0381169081900361019c578160409160209352600383522054604051908152f35b505b80fd5b503461019e578060031936011261019e57602060ff600a54166040519015158152f35b503461019e578060031936011261019e57602060ff600a5460081c166040519015158152f35b503461019e578060031936011261019e576040517f00000000000000000000000000000000000000000000000000000000000000006001600160a01b03168152602090f35b503461019e578060031936011261019e57602060ff600254166040519015158152f35b503461019e578060031936011261019e576040517f00000000000000000000000000000000000000000000000000000000000000006001600160a01b03168152602090f35b503461019e578060031936011261019e576102b0611274565b60ff600554161561037557600854801561036657600a5460ff81166103575760ff1916600117600a557f913285a591c37415532930d8293f030746701148d438262442355f4751ff559390602090610349817f00000000000000000000000000000000000000000000000000000000000000007f00000000000000000000000000000000000000000000000000000000000000006112d3565b604051908152a16001815580f35b63162908e360e11b8352600483fd5b6312d37ee560e31b8252600482fd5b639f4a648960e01b8152600490fd5b503461019e578060031936011261019e576020600154604051908152f35b503461019e578060031936011261019e576103bb611274565b60025460ff81161561045f5760081c60ff166104505733815260036020526040812054801561036657338252600360205281604081205561041d81337f00000000000000000000000000000000000000000000000000000000000000006112d3565b6040519081527f358fe4192934d3bf28ae181feda1f4bd08ca67f5e2fad55582cce5eb67304ae960203392a26001815580f35b6333cf58f960e01b8152600490fd5b639f4a648960e01b8252600482fd5b503461019e578060031936011261019e5760405160048054808352908352602082019081907f8a35acfbc15ff81a39ae7d344fd709f28e8600b4aa8c65c6b64bfe7fe36bd19b90855b81811061051757505050826104cd910383611206565b604051928392602084019060208552518091526040840192915b8181106104f5575050500390f35b82516001600160a01b03168452859450602093840193909201916001016104e7565b82546001600160a01b03168452602090930192600192830192016104b7565b503461019e57602036600319011261019e57600435801515810361019c577f00000000000000000000000000000000000000000000000000000000000000006001600160a01b03163303610665576002549060ff8216610656577f00000000000000000000000000000000000000000000000000000000000000006001600160401b03164211158061062b575b61061c576001600080516020611376833981519152928260409390610612575b61ff0090151560081b169061ffff191617178060025560015460ff83519260081c16151582526020820152a180f35b50815415156105e3565b6302eb354360e41b8352600483fd5b506001547f0000000000000000000000000000000000000000000000000000000000000000116105c3565b6336ab81e160e11b8352600483fd5b636b7809b960e01b8252600482fd5b503461019e578060031936011261019e576040517f00000000000000000000000000000000000000000000000000000000000000006001600160a01b03168152602090f35b503461019e578060031936011261019e5760206040517f00000000000000000000000000000000000000000000000000000000000000008152f35b503461019e57602036600319011261019e57600435610711611274565b7f00000000000000000000000000000000000000000000000000000000000000006001600160a01b031633036108b05780156108a15760025460ff811615908115610892575b506108835760055460ff8116610874577f772e2403c28b1e95b5d566800119312e3510d61340a6e174aad2de90a90f6e2291600160609260ff19161760055580600655600154808211600014610865576107ef6127106107e86107ba84866111d6565b600180881b037f00000000000000000000000000000000000000000000000000000000000000001690611261565b04826111f9565b8291600a549060ff8260081c1615610844575b505081811115610839575061081c81805b816007556111d6565b908160085560405192835260208301526040820152a16001815580f35b61081c908092610813565b61010091935061085490856111f9565b9261ff00191617600a553880610802565b6107ef6127106107e8876107ba565b63237e7f5760e01b8352600483fd5b63029d79a560e41b8252600482fd5b60ff915060081c161538610757565b63162908e360e11b8252600482fd5b630d0418ed60e11b8252600482fd5b503461019e578060031936011261019e576108d8611274565b60ff60055416156103755733815260036020526040812054801561036657338252600960205260408220546108a15760075461091391611261565b600154908115610a8b5704338252600960205280604083205561095781337f00000000000000000000000000000000000000000000000000000000000000006112d3565b817f00000000000000000000000000000000000000000000000000000000000000006001600160a01b031680610a46575b507f00000000000000000000000000000000000000000000000000000000000000006001600160a01b0316806109ee575b50506040519081527f999b30f9cebf480f8d5729a4de47050ab1c0ad132c0114afe35dbe87c9ef86cf60203392a26001815580f35b803b1561019c57816040518092631712fc5960e11b8252818381610a178930336004850161123f565b03925af18015610a3b57156109b95781610a3091611206565b61019c5781386109b9565b6040513d84823e3d90fd5b803b1561019c5781809160246040518094819363018634f560e21b83528860048401525af18015610a3b57156109885781610a8091611206565b61019c578138610988565b634e487b7160e01b83526012600452602483fd5b503461019e578060031936011261019e576040517f00000000000000000000000000000000000000000000000000000000000000006001600160401b03168152602090f35b503461019e578060031936011261019e576020600754604051908152f35b503461019e578060031936011261019e576040517f00000000000000000000000000000000000000000000000000000000000000006001600160601b03168152602090f35b503461019e57602036600319011261019e576004356001600160a01b0381169081900361019c578160409160209352600983522054604051908152f35b503461019e578060031936011261019e57610b9d611274565b7f0000000000000000000000000000000000000000000000000000000000000000906001600160a01b0382163303610c4c5760025460ff81161561045f5760081c60ff1615610c3d57600a549160ff8360081c166108a15760015490811561035757610100610c36939461ff00191617600a557f00000000000000000000000000000000000000000000000000000000000000006112d3565b6001815580f35b63029d79a560e41b8152600490fd5b636b7809b960e01b8152600490fd5b503461019e578060031936011261019e57602060ff60025460081c166040519015158152f35b503461019e57602036600319011261019e576004359060045482101561019e576020610cac836111a5565b905460405160039290921b1c6001600160a01b03168152f35b503461019e578060031936011261019e576040517f00000000000000000000000000000000000000000000000000000000000000006001600160a01b03168152602090f35b503461019e578060031936011261019e576020600654604051908152f35b503461019e578060031936011261019e576040517f00000000000000000000000000000000000000000000000000000000000000006001600160a01b03168152602090f35b503461019e57602036600319011261019e57600435610d8a611274565b80156108a1577f00000000000000000000000000000000000000000000000000000000000000006001600160401b031642116110665760ff60025416611057577f000000000000000000000000000000000000000000000000000000000000000090610df8600154836111d6565b908115611048578181111561104157505b3383526003602052604083205415610fed575b338352600360205260408320610e338282546111f9565b9055610e41816001546111f9565b600155610e708130337f0000000000000000000000000000000000000000000000000000000000000000611296565b827f00000000000000000000000000000000000000000000000000000000000000006001600160a01b031680610f98575b507f00000000000000000000000000000000000000000000000000000000000000006001600160a01b031680610f47575b50506040519081527fc3f75dfc78f6efac88ad5abb5e606276b903647d97b2a62a1ef89840a658bbc360203392a2600154908114610f13575b506001815580f35b60406000805160206113768339815191529161010161ffff196002541617600255815190600182526020820152a138610f0b565b803b1561019c57816040518092635a98537560e11b8252818381610f708930336004850161123f565b03925af18015610a3b5715610ed25781610f8991611206565b610f94578238610ed2565b8280fd5b803b1561019c57819060246040518094819363033432fb60e61b83528760048401525af18015610fe257610fce575b8390610ea1565b83610fdb91949294611206565b9138610fc7565b6040513d86823e3d90fd5b600454600160401b81101561102d5780600161100c92016004556111a5565b81546001600160a01b0360039290921b91821b19163390911b179055610e1c565b634e487b7160e01b84526041600452602484fd5b9050610e09565b632cea1bc160e01b8452600484fd5b6336ab81e160e11b8252600482fd5b63387b2e5560e11b8252600482fd5b503461019e578060031936011261019e576020600854604051908152f35b503461019e57602036600319011261019e576004356110b0611274565b7f00000000000000000000000000000000000000000000000000000000000000006001600160a01b031633036106655760025460ff811615908115611175575b506108835760ff600a5460081c16156108a15760015481036108a1576111389030337f0000000000000000000000000000000000000000000000000000000000000000611296565b61ff00196002541660025561ff0019600a5416600a5560008051602061137683398151915260406001548151908482526020820152a16001815580f35b60ff915060081c1615386110f0565b90503461019c578160031936011261019c5760209060ff6005541615158152f35b6004548110156111c057600460005260206000200190600090565b634e487b7160e01b600052603260045260246000fd5b919082039182116111e357565b634e487b7160e01b600052601160045260246000fd5b919082018092116111e357565b601f909101601f19168101906001600160401b0382119082101761122957604052565b634e487b7160e01b600052604160045260246000fd5b6001600160a01b03918216815291166020820152604081019190915260600190565b818102929181159184041417156111e357565b600260005414611285576002600055565b633ee5aeb560e01b60005260046000fd5b906112cc906112be6112d1956040519586936323b872dd60e01b60208601526024850161123f565b03601f198101845283611206565b61130e565b565b60405163a9059cbb60e01b60208201526001600160a01b0390921660248301526044808301939093529181526112d1916112cc606483611206565b906000602091828151910182855af115611369576000513d61136057506001600160a01b0381163b155b61133f5750565b635274afe760e01b60009081526001600160a01b0391909116600452602490fd5b60011415611338565b6040513d6000823e3d90fdfee5eb9d9de79b325e812866ac175f838b9c6cf623527ffd04b62bdc4cfcde6491a2646970667358221220498968033a3264f64e05b4aba3aa7fabb0d5e0819960f4f9cc1cd4d780bb2c2f64736f6c634300081c0033",
  "linkReferences": {},
  "deployedLinkReferences": {}
}