{
  "_format": "hh-sol-artifact-1",
  "contractName": "DividendDistributor",
  "sourceName": "contracts/CompanyShares/DividendDistributor.sol",
  "abi": [
    {
      "inputs": [
        {
          "internalType": "address",
          "name": "_paymentToken",
          "type": "address"
        },
        {
          "internalType": "address",
          "name": "initialOwner",
          "type": "address"
        },
        {
          "internalType": "address",
          "name": "_investorRegistry",
          "type": "address"
        },
        {
          "internalType": "uint256",
          "name": "_companyId",
          "type": "uint256"
        }
      ],
      "stateMutability": "nonpayable",
      "type": "constructor"
    },
    {
      "inputs": [],
      "name": "AlreadySet",
      "type": "error"
    },
    {
      "inputs": [],
      "name": "AmountTooSmall",
      "type": "error"
    },
    {
      "inputs": [],
      "name": "InvalidAddress",
      "type": "error"
    },
    {
      "inputs": [],
      "name": "InvalidAmount",
      "type": "error"
    },
    {
      "inputs": [],
      "name": "MagnitudeOverflow",
      "type": "error"
    },
    {
      "inputs": [],
      "name": "NoShares",
      "type": "error"
    },
    {
      "inputs": [],
      "name": "OnlyShareToken",
      "type": "error"
    },
    {
      "inputs": [],
      "name": "OnlyVault",
      "type": "error"
    },
    {
      "inputs": [
        {
          "internalType": "address",
          "name": "owner",
          "type": "address"
        }
      ],
      "name": "OwnableInvalidOwner",
      "type": "error"
    },
    {
      "inputs": [
        {
          "internalType": "address",
          "name": "account",
          "type": "address"
        }
      ],
      "name": "OwnableUnauthorizedAccount",
      "type": "error"
    },
    {
      "inputs": [],
      "name": "ReentrancyGuardReentrantCall",
      "type": "error"
    },
    {
      "inputs": [
        {
          "internalType": "address",
          "name": "token",
          "type": "address"
        }
      ],
      "name": "SafeERC20FailedOperation",
      "type": "error"
    },
    {
      "anonymous": false,
      "inputs": [
        {
          "indexed": true,
          "internalType": "address",
          "name": "holder",
          "type": "address"
        },
        {
          "indexed": false,
          "internalType": "uint256",
          "name": "amount",
          "type": "uint256"
        }
      ],
      "name": "DividendClaimed",
      "type": "event"
    },
    {
      "anonymous": false,
      "inputs": [
        {
          "indexed": false,
          "internalType": "uint256",
          "name": "amount",
          "type": "uint256"
        },
        {
          "indexed": false,
          "internalType": "uint256",
          "name": "newMagnifiedDividendPerShare",
          "type": "uint256"
        }
      ],
      "name": "DividendsDeposited",
      "type": "event"
    },
    {
      "anonymous": false,
      "inputs": [
        {
          "indexed": true,
          "internalType": "address",
          "name": "previousOwner",
          "type": "address"
        },
        {
          "indexed": true,
          "internalType": "address",
          "name": "newOwner",
          "type": "address"
        }
      ],
      "name": "OwnershipTransferStarted",
      "type": "event"
    },
    {
      "anonymous": false,
      "inputs": [
        {
          "indexed": true,
          "internalType": "address",
          "name": "previousOwner",
          "type": "address"
        },
        {
          "indexed": true,
          "internalType": "address",
          "name": "newOwner",
          "type": "address"
        }
      ],
      "name": "OwnershipTransferred",
      "type": "event"
    },
    {
      "anonymous": false,
      "inputs": [
        {
          "indexed": true,
          "internalType": "address",
          "name": "shareToken",
          "type": "address"
        }
      ],
      "name": "ShareTokenSet",
      "type": "event"
    },
    {
      "anonymous": false,
      "inputs": [
        {
          "indexed": true,
          "internalType": "address",
          "name": "vault",
          "type": "address"
        }
      ],
      "name": "VaultSet",
      "type": "event"
    },
    {
      "inputs": [],
      "name": "MIN_DIVIDEND_DEPOSIT",
      "outputs": [
        {
          "internalType": "uint256",
          "name": "",
          "type": "uint256"
        }
      ],
      "stateMutability": "view",
      "type": "function"
    },
    {
      "inputs": [],
      "name": "acceptOwnership",
      "outputs": [],
      "stateMutability": "nonpayable",
      "type": "function"
    },
    {
      "inputs": [
        {
          "internalType": "address",
          "name": "holder",
          "type": "address"
        }
      ],
      "name": "accumulativeDividendOf",
      "outputs": [
        {
          "internalType": "uint256",
          "name": "",
          "type": "uint256"
        }
      ],
      "stateMutability": "view",
      "type": "function"
    },
    {
      "inputs": [],
      "name": "claim",
      "outputs": [
        {
          "internalType": "uint256",
          "name": "amount",
          "type": "uint256"
        }
      ],
      "stateMutability": "nonpayable",
      "type": "function"
    },
    {
      "inputs": [
        {
          "internalType": "address",
          "name": "holder",
          "type": "address"
        }
      ],
      "name": "claimFor",
      "outputs": [
        {
          "internalType": "uint256",
          "name": "amount",
          "type": "uint256"
        }
      ],
      "stateMutability": "nonpayable",
      "type": "function"
    },
    {
      "inputs": [],
      "name": "companyId",
      "outputs": [
        {
          "internalType": "uint256",
          "name": "",
          "type": "uint256"
        }
      ],
      "stateMutability": "view",
      "type": "function"
    },
    {
      "inputs": [
        {
          "internalType": "uint256",
          "name": "amount",
          "type": "uint256"
        }
      ],
      "name": "depositDividends",
      "outputs": [],
      "stateMutability": "nonpayable",
      "type": "function"
    },
    {
      "inputs": [],
      "name": "getDistributorStatus",
      "outputs": [
        {
          "internalType": "uint256",
          "name": "_totalDeposited",
          "type": "uint256"
        },
        {
          "internalType": "uint256",
          "name": "_totalClaimed",
          "type": "uint256"
        },
        {
          "internalType": "uint256",
          "name": "_balance",
          "type": "uint256"
        }
      ],
      "stateMutability": "view",
      "type": "function"
    },
    {
      "inputs": [
        {
          "internalType": "address",
          "name": "from",
          "type": "address"
        },
        {
          "internalType": "address",
          "name": "to",
          "type": "address"
        },
        {
          "internalType": "uint256",
          "name": "amount",
          "type": "uint256"
        }
      ],
      "name": "handleTransfer",
      "outputs": [],
      "stateMutability": "nonpayable",
      "type": "function"
    },
    {
      "inputs": [],
      "name": "investorRegistry",
      "outputs": [
        {
          "internalType": "contract IInvestorRegistryDistributor",
          "name": "",
          "type": "address"
        }
      ],
      "stateMutability": "view",
      "type": "function"
    },
    {
      "inputs": [
        {
          "internalType": "address",
          "name": "",
          "type": "address"
        }
      ],
      "name": "magnifiedCorrections",
      "outputs": [
        {
          "internalType": "int256",
          "name": "",
          "type": "int256"
        }
      ],
      "stateMutability": "view",
      "type": "function"
    },
    {
      "inputs": [],
      "name": "magnifiedDividendPerShare",
      "outputs": [
        {
          "internalType": "uint256",
          "name": "",
          "type": "uint256"
        }
      ],
      "stateMutability": "view",
      "type": "function"
    },
    {
      "inputs": [],
      "name": "owner",
      "outputs": [
        {
          "internalType": "address",
          "name": "",
          "type": "address"
        }
      ],
      "stateMutability": "view",
      "type": "function"
    },
    {
      "inputs": [],
      "name": "paymentToken",
      "outputs": [
        {
          "internalType": "contract IERC20",
          "name": "",
          "type": "address"
        }
      ],
      "stateMutability": "view",
      "type": "function"
    },
    {
      "inputs": [],
      "name": "pendingOwner",
      "outputs": [
        {
          "internalType": "address",
          "name": "",
          "type": "address"
        }
      ],
      "stateMutability": "view",
      "type": "function"
    },
    {
      "inputs": [],
      "name": "renounceOwnership",
      "outputs": [],
      "stateMutability": "nonpayable",
      "type": "function"
    },
    {
      "inputs": [
        {
          "internalType": "address",
          "name": "_shareToken",
          "type": "address"
        }
      ],
      "name": "setShareToken",
      "outputs": [],
      "stateMutability": "nonpayable",
      "type": "function"
    },
    {
      "inputs": [
        {
          "internalType": "address",
          "name": "_vault",
          "type": "address"
        }
      ],
      "name": "setVault",
      "outputs": [],
      "stateMutability": "nonpayable",
      "type": "function"
    },
    {
      "inputs": [],
      "name": "shareToken",
      "outputs": [
        {
          "internalType": "address",
          "name": "",
          "type": "address"
        }
      ],
      "stateMutability": "view",
      "type": "function"
    },
    {
      "inputs": [],
      "name": "totalClaimed",
      "outputs": [
        {
          "internalType": "uint256",
          "name": "",
          "type": "uint256"
        }
      ],
      "stateMutability": "view",
      "type": "function"
    },
    {
      "inputs": [],
      "name": "totalDeposited",
      "outputs": [
        {
          "internalType": "uint256",
          "name": "",
          "type": "uint256"
        }
      ],
      "stateMutability": "view",
      "type": "function"
    },
    {
      "inputs": [
        {
          "internalType": "address",
          "name": "newOwner",
          "type": "address"
        }
      ],
      "name": "transferOwnership",
      "outputs": [],
      "stateMutability": "nonpayable",
      "type": "function"
    },
    {
      "inputs": [],
      "name": "vault",
      "outputs": [
        {
          "internalType": "address",
          "name": "",
          "type": "address"
        }
      ],
      "stateMutability": "view",
      "type": "function"
    },
    {
      "inputs": [
        {
          "internalType": "address",
          "name": "holder",
          "type": "address"
        }
      ],
      "name": "withdrawableDividendOf",
      "outputs": [
        {
          "internalType": "uint256",
          "name": "",
          "type": "uint256"
        }
      ],
      "stateMutability": "view",
      "type": "function"
    },
    {
      "inputs": [
        {
          "internalType": "address",
          "name": "",
          "type": "address"
        }
      ],
      "name": "withdrawnDividends",
      "outputs": [
        {
          "internalType": "uint256",
          "name": "",
          "type": "uint256"
        }
      ],
      "stateMutability": "view",
      "type": "function"
    }
  ],
  "bytecode": "0x60e03461015957601f610f9238819003918201601f19168301916001600160401b0383118484101761015e578084926080946040528339810103126101595761004781610174565b9061005460208201610174565b90606061006360408301610174565b9101516001600160a01b0390921692831561014357600180546001600160a01b0319908116909155600080549182168617815560405195916001600160a01b0316907f8be0079c531659141344cd1fd0a4f28419497f9722a3daafe3b4186f6b6457e09080a360016002556001600160a01b03168015610132576080526001600160a01b031660a05260c052610e099081610189823960805181818161037f015281816104bc01526108e8015260a0518181816108a30152610c6d015260c0518181816105ac0152610cee0152f35b63e6c4247b60e01b60005260046000fd5b631e4fbdf760e01b600052600060045260246000fd5b600080fd5b634e487b7160e01b600052604160045260246000fd5b51906001600160a01b03821682036101595756fe6080604052600436101561001257600080fd5b60003560e01c806327ce0147146109175780633013ce29146108d25780633734256e1461088d5780633a7960e01461086f57806340f797bb146107e857806346197c9a146107ac5780634e71d92d146107885780636817031b146106fc5780636c9fa59e146106d3578063700060d814610699578063715018a61461064657806379ba5097146105cf5780637bc3a733146105945780638da5cb5b1461056b578063a8b9d24014610540578063bd68700e14610488578063c371acab1461046b578063cbe8a524146102a5578063d54ad2a114610287578063ddeae0331461024f578063de3aaf6114610215578063e30c3978146101ec578063f2fde38b1461017b578063fbfa77cf146101525763ff50abdc1461012f57600080fd5b3461014d57600036600319011261014d576020600854604051908152f35b600080fd5b3461014d57600036600319011261014d576004546040516001600160a01b039091168152602090f35b3461014d57602036600319011261014d5761019461093a565b61019c610bbc565b600180546001600160a01b0319166001600160a01b0392831690811790915560008054919291909116907f38d16b8cac22d99fc7c124b9cd0de2d3fa1faef420bfe791d8c362d765e227009080a3005b3461014d57600036600319011261014d576001546040516001600160a01b039091168152602090f35b3461014d57602036600319011261014d576001600160a01b0361023661093a565b1660005260076020526020604060002054604051908152f35b3461014d57602036600319011261014d57602061027a61026d61093a565b610275610bd0565b610bf0565b6001600255604051908152f35b3461014d57600036600319011261014d576020600954604051908152f35b3461014d57602036600319011261014d576004356102c1610bd0565b6004546001600160a01b0316330361045a578015610449576103e88110610438576003546001600160a01b03168015610427576020600491604051928380926318160ddd60e01b82525afa90811561041b576000916103e6575b5080156103d5577fb9ebcb18b045f112fc4335f8a337b6daef95ab3d79fcaf32aab73f57e6b12f81916103b06040926103a384516323b872dd60e01b60208201523360248201523060448201528460648201526064815261037d608482610950565b7f0000000000000000000000000000000000000000000000000000000000000000610d58565b8260801b04600554610baf565b806005556103c082600854610baf565b60085582519182526020820152a16001600255005b63b317087b60e01b60005260046000fd5b906020823d602011610413575b8161040060209383610950565b810103126104105750518261031b565b80fd5b3d91506103f3565b6040513d6000823e3d90fd5b63e6c4247b60e01b60005260046000fd5b63617ab12d60e11b60005260046000fd5b63162908e360e11b60005260046000fd5b638d1af8bd60e01b60005260046000fd5b3461014d57600036600319011261014d5760206040516103e88152f35b3461014d57600036600319011261014d576008546009546040516370a0823160e01b815230600482015291906020836024817f00000000000000000000000000000000000000000000000000000000000000006001600160a01b03165afa90811561041b5760009161050b575b6060935060405192835260208301526040820152f35b90506020833d602011610538575b8161052660209383610950565b8101031261014d5760609251906104f5565b3d9150610519565b3461014d57602036600319011261014d57602061056361055e61093a565b610b78565b604051908152f35b3461014d57600036600319011261014d576000546040516001600160a01b039091168152602090f35b3461014d57600036600319011261014d5760206040517f00000000000000000000000000000000000000000000000000000000000000008152f35b3461014d57600036600319011261014d57600154336001600160a01b039091160361063157600180546001600160a01b03199081169091556000805433928116831782556001600160a01b031690600080516020610db48339815191529080a3005b63118cdaa760e01b6000523360045260246000fd5b3461014d57600036600319011261014d5761065f610bbc565b600180546001600160a01b0319908116909155600080549182168155906001600160a01b0316600080516020610db48339815191528280a3005b3461014d57602036600319011261014d576001600160a01b036106ba61093a565b1660005260066020526020604060002054604051908152f35b3461014d57600036600319011261014d576003546040516001600160a01b039091168152602090f35b3461014d57602036600319011261014d5761071561093a565b61071d610bbc565b6001600160a01b031680156104275760045460ff8160a81c1661077757600161ff0160a01b0319168117600160a81b176004557fe7ae49f883c825b05681b3e00e8be6fdea9ed2a8a45e4c6ecb9390fc44cce615600080a2005b63a741a04560e01b60005260046000fd5b3461014d57600036600319011261014d576107a1610bd0565b602061027a33610bf0565b3461014d57606036600319011261014d576107c561093a565b602435906001600160a01b038216820361014d576107e69160443591610a95565b005b3461014d57602036600319011261014d5761080161093a565b610809610bbc565b6001600160a01b031680156104275760045460ff8160a01c1661077757600380546001600160a01b0319168317905560ff60a01b1916600160a01b176004557fdb40a5259506fa101ac4485d4ccbd019c99ada5fb7212fe1254374f7a10e02dc600080a2005b3461014d57600036600319011261014d576020600554604051908152f35b3461014d57600036600319011261014d576040517f00000000000000000000000000000000000000000000000000000000000000006001600160a01b03168152602090f35b3461014d57600036600319011261014d576040517f00000000000000000000000000000000000000000000000000000000000000006001600160a01b03168152602090f35b3461014d57602036600319011261014d57602061056361093561093a565b6109bb565b600435906001600160a01b038216820361014d57565b601f909101601f19168101906001600160401b0382119082101761097357604052565b634e487b7160e01b600052604160045260246000fd5b919091600083820193841291129080158216911516176109a557565b634e487b7160e01b600052601160045260246000fd5b6003546001600160a01b03168015610a41576040516370a0823160e01b81526001600160a01b039092166004830181905290602090839060249082905afa91821561041b57600092610a48575b508115610a4157610a2c916005540290600052600660205260406000205490610989565b6000811315610a3b5760801c90565b50600090565b5050600090565b90916020823d602011610a74575b81610a6360209383610950565b810103126104105750519038610a08565b3d9150610a56565b818103929160001380158285131691841216176109a557565b6003549092906001600160a01b03163303610b67578015610b625760055402916001600160ff1b038311610b51576001600160a01b031680610af6575060018060a01b03166000526006602052610af26040600020918254610a7c565b9055565b906001600160a01b031680610b1e57506000526006602052610af26040600020918254610989565b9060005260066020526040600020610b37838254610989565b90556000526006602052610af26040600020918254610a7c565b63125a110760e21b60005260046000fd5b505050565b633a5c639960e01b60005260046000fd5b610b81816109bb565b6001600160a01b0390911660009081526007602052604090205480821115610a415781039081116109a55790565b919082018092116109a557565b6000546001600160a01b0316330361063157565b6002805414610bdf5760028055565b633ee5aeb560e01b60005260046000fd5b600091906001600160a01b038116908115610d4957610c0e90610b78565b928315610d4457818152600760205260408120610c2c858254610baf565b9055610c3a84600954610baf565b600955610c6b60405163a9059cbb60e01b60208201528360248201528560448201526044815261037d606482610950565b7f00000000000000000000000000000000000000000000000000000000000000006001600160a01b031680610cc9575b50507f5efa67896a23b651b741b525caacba039c00ca7853be3de8eb1f4269e8669c566020604051858152a2565b803b15610d405781809160646040518094819363177c459960e31b83528860048401527f000000000000000000000000000000000000000000000000000000000000000060248401528a60448401525af18015610d355715610c9b5781610d2f91610950565b38610c9b565b6040513d84823e3d90fd5b5080fd5b925050565b63e6c4247b60e01b8452600484fd5b906000602091828151910182855af11561041b576000513d610daa57506001600160a01b0381163b155b610d895750565b635274afe760e01b60009081526001600160a01b0391909116600452602490fd5b60011415610d8256fe8be0079c531659141344cd1fd0a4f28419497f9722a3daafe3b4186f6b6457e0a264697066735822122011f8ba5e0a6045896bf7c951aafafa9fa8bad652e643caa9e345d2cac8a3b0b164736f6c634300081c0033",
  "linkReferences": {},
  "deployedLinkReferences": {}
}