{
  "_format": "hh-sol-artifact-1",
  "contractName": "DividendDistributor",
  "sourceName": "contracts/CompanyShares/DividendDistributor.sol",
  "abi": [
    {
      "inputs": [
        {
          "internalType": "address",
          "name": "_paymentToken",
          "type": "address"
        },
        {
          "internalType": "address",
          "name": "initialOwner",
          "type": "address"
        },
        {
          "internalType": "address",
          "name": "_investorRegistry",
          "type": "address"
        },
        {
          "internalType": "uint256",
          "name": "_companyId",
          "type": "uint256"
        }
      ],
      "stateMutability": "nonpayable",
      "type": "constructor"
    },
    {
      "inputs": [],
      "name": "AlreadySet",
      "type": "error"
    },
    {
      "inputs": [],
      "name": "AmountTooSmall",
      "type": "error"
    },
    {
      "inputs": [],
      "name": "InvalidAddress",
      "type": "error"
    },
    {
      "inputs": [],
      "name": "InvalidAmount",
      "type": "error"
    },
    {
      "inputs": [],
      "name": "MagnitudeOverflow",
      "type": "error"
    },
    {
      "inputs": [],
      "name": "NoShares",
      "type": "error"
    },
    {
      "inputs": [],
      "name": "OnlyShareToken",
      "type": "error"
    },
    {
      "inputs": [],
      "name": "OnlyVault",
      "type": "error"
    },
    {
      "inputs": [
        {
          "internalType": "address",
          "name": "owner",
          "type": "address"
        }
      ],
      "name": "OwnableInvalidOwner",
      "type": "error"
    },
    {
      "inputs": [
        {
          "internalType": "address",
          "name": "account",
          "type": "address"
        }
      ],
      "name": "OwnableUnauthorizedAccount",
      "type": "error"
    },
    {
      "inputs": [],
      "name": "ReentrancyGuardReentrantCall",
      "type": "error"
    },
    {
      "inputs": [
        {
          "internalType": "address",
          "name": "token",
          "type": "address"
        }
      ],
      "name": "SafeERC20FailedOperation",
      "type": "error"
    },
    {
      "anonymous": false,
      "inputs": [
        {
          "indexed": true,
          "internalType": "address",
          "name": "holder",
          "type": "address"
        },
        {
          "indexed": false,
          "internalType": "uint256",
          "name": "amount",
          "type": "uint256"
        }
      ],
      "name": "DividendClaimed",
      "type": "event"
    },
    {
      "anonymous": false,
      "inputs": [
        {
          "indexed": false,
          "internalType": "uint256",
          "name": "amount",
          "type": "uint256"
        },
        {
          "indexed": false,
          "internalType": "uint256",
          "name": "newMagnifiedDividendPerShare",
          "type": "uint256"
        }
      ],
      "name": "DividendsDeposited",
      "type": "event"
    },
    {
      "anonymous": false,
      "inputs": [
        {
          "indexed": true,
          "internalType": "address",
          "name": "previousOwner",
          "type": "address"
        },
        {
          "indexed": true,
          "internalType": "address",
          "name": "newOwner",
          "type": "address"
        }
      ],
      "name": "OwnershipTransferStarted",
      "type": "event"
    },
    {
      "anonymous": false,
      "inputs": [
        {
          "indexed": true,
          "internalType": "address",
          "name": "previousOwner",
          "type": "address"
        },
        {
          "indexed": true,
          "internalType": "address",
          "name": "newOwner",
          "type": "address"
        }
      ],
      "name": "OwnershipTransferred",
      "type": "event"
    },
    {
      "anonymous": false,
      "inputs": [
        {
          "indexed": true,
          "internalType": "address",
          "name": "shareToken",
          "type": "address"
        }
      ],
      "name": "ShareTokenSet",
      "type": "event"
    },
    {
      "anonymous": false,
      "inputs": [
        {
          "indexed": true,
          "internalType": "address",
          "name": "vault",
          "type": "address"
        }
      ],
      "name": "VaultSet",
      "type": "event"
    },
    {
      "inputs": [],
      "name": "MIN_DIVIDEND_DEPOSIT",
      "outputs": [
        {
          "internalType": "uint256",
          "name": "",
          "type": "uint256"
        }
      ],
      "stateMutability": "view",
      "type": "function"
    },
    {
      "inputs": [],
      "name": "acceptOwnership",
      "outputs": [],
      "stateMutability": "nonpayable",
      "type": "function"
    },
    {
      "inputs": [
        {
          "internalType": "address",
          "name": "holder",
          "type": "address"
        }
      ],
      "name": "accumulativeDividendOf",
      "outputs": [
        {
          "internalType": "uint256",
          "name": "",
          "type": "uint256"
        }
      ],
      "stateMutability": "view",
      "type": "function"
    },
    {
      "inputs": [],
      "name": "claim",
      "outputs": [
        {
          "internalType": "uint256",
          "name": "amount",
          "type": "uint256"
        }
      ],
      "stateMutability": "nonpayable",
      "type": "function"
    },
    {
      "inputs": [
        {
          "internalType": "address",
          "name": "holder",
          "type": "address"
        }
      ],
      "name": "claimFor",
      "outputs": [
        {
          "internalType": "uint256",
          "name": "amount",
          "type": "uint256"
        }
      ],
      "stateMutability": "nonpayable",
      "type": "function"
    },
    {
      "inputs": [],
      "name": "companyId",
      "outputs": [
        {
          "internalType": "uint256",
          "name": "",
          "type": "uint256"
        }
      ],
      "stateMutability": "view",
      "type": "function"
    },
    {
      "inputs": [
        {
          "internalType": "uint256",
          "name": "amount",
          "type": "uint256"
        }
      ],
      "name": "depositDividends",
      "outputs": [],
      "stateMutability": "nonpayable",
      "type": "function"
    },
    {
      "inputs": [],
      "name": "getDistributorStatus",
      "outputs": [
        {
          "internalType": "uint256",
          "name": "_totalDeposited",
          "type": "uint256"
        },
        {
          "internalType": "uint256",
          "name": "_totalClaimed",
          "type": "uint256"
        },
        {
          "internalType": "uint256",
          "name": "_balance",
          "type": "uint256"
        }
      ],
      "stateMutability": "view",
      "type": "function"
    },
    {
      "inputs": [
        {
          "internalType": "address",
          "name": "from",
          "type": "address"
        },
        {
          "internalType": "address",
          "name": "to",
          "type": "address"
        },
        {
          "internalType": "uint256",
          "name": "amount",
          "type": "uint256"
        }
      ],
      "name": "handleTransfer",
      "outputs": [],
      "stateMutability": "nonpayable",
      "type": "function"
    },
    {
      "inputs": [],
      "name": "investorRegistry",
      "outputs": [
        {
          "internalType": "contract IInvestorRegistryDistributor",
          "name": "",
          "type": "address"
        }
      ],
      "stateMutability": "view",
      "type": "function"
    },
    {
      "inputs": [
        {
          "internalType": "address",
          "name": "",
          "type": "address"
        }
      ],
      "name": "magnifiedCorrections",
      "outputs": [
        {
          "internalType": "int256",
          "name": "",
          "type": "int256"
        }
      ],
      "stateMutability": "view",
      "type": "function"
    },
    {
      "inputs": [],
      "name": "magnifiedDividendPerShare",
      "outputs": [
        {
          "internalType": "uint256",
          "name": "",
          "type": "uint256"
        }
      ],
      "stateMutability": "view",
      "type": "function"
    },
    {
      "inputs": [],
      "name": "owner",
      "outputs": [
        {
          "internalType": "address",
          "name": "",
          "type": "address"
        }
      ],
      "stateMutability": "view",
      "type": "function"
    },
    {
      "inputs": [],
      "name": "paymentToken",
      "outputs": [
        {
          "internalType": "contract IERC20",
          "name": "",
          "type": "address"
        }
      ],
      "stateMutability": "view",
      "type": "function"
    },
    {
      "inputs": [],
      "name": "pendingOwner",
      "outputs": [
        {
          "internalType": "address",
          "name": "",
          "type": "address"
        }
      ],
      "stateMutability": "view",
      "type": "function"
    },
    {
      "inputs": [],
      "name": "renounceOwnership",
      "outputs": [],
      "stateMutability": "nonpayable",
      "type": "function"
    },
    {
      "inputs": [
        {
          "internalType": "address",
          "name": "_shareToken",
          "type": "address"
        }
      ],
      "name": "setShareToken",
      "outputs": [],
      "stateMutability": "nonpayable",
      "type": "function"
    },
    {
      "inputs": [
        {
          "internalType": "address",
          "name": "_vault",
          "type": "address"
        }
      ],
      "name": "setVault",
      "outputs": [],
      "stateMutability": "nonpayable",
      "type": "function"
    },
    {
      "inputs": [],
      "name": "shareToken",
      "outputs": [
        {
          "internalType": "address",
          "name": "",
          "type": "address"
        }
      ],
      "stateMutability": "view",
      "type": "function"
    },
    {
      "inputs": [],
      "name": "totalClaimed",
      "outputs": [
        {
          "internalType": "uint256",
          "name": "",
          "type": "uint256"
        }
      ],
      "stateMutability": "view",
      "type": "function"
    },
    {
      "inputs": [],
      "name": "totalDeposited",
      "outputs": [
        {
          "internalType": "uint256",
          "name": "",
          "type": "uint256"
        }
      ],
      "stateMutability": "view",
      "type": "function"
    },
    {
      "inputs": [
        {
          "internalType": "address",
          "name": "newOwner",
          "type": "address"
        }
      ],
      "name": "transferOwnership",
      "outputs": [],
      "stateMutability": "nonpayable",
      "type": "function"
    },
    {
      "inputs": [],
      "name": "vault",
      "outputs": [
        {
          "internalType": "address",
          "name": "",
          "type": "address"
        }
      ],
      "stateMutability": "view",
      "type": "function"
    },
    {
      "inputs": [
        {
          "internalType": "address",
          "name": "holder",
          "type": "address"
        }
      ],
      "name": "withdrawableDividendOf",
      "outputs": [
        {
          "internalType": "uint256",
          "name": "",
          "type": "uint256"
        }
      ],
      "stateMutability": "view",
      "type": "function"
    },
    {
      "inputs": [
        {
          "internalType": "address",
          "name": "",
          "type": "address"
        }
      ],
      "name": "withdrawnDividends",
      "outputs": [
        {
          "internalType": "uint256",
          "name": "",
          "type": "uint256"
        }
      ],
      "stateMutability": "view",
      "type": "function"
    }
  ],
  "bytecode": "0x60e03461015957601f610f9838819003918201601f19168301916001600160401b0383118484101761015e578084926080946040528339810103126101595761004781610174565b9061005460208201610174565b90606061006360408301610174565b9101516001600160a01b0390921692831561014357600180546001600160a01b0319908116909155600080549182168617815560405195916001600160a01b0316907f8be0079c531659141344cd1fd0a4f28419497f9722a3daafe3b4186f6b6457e09080a360016002556001600160a01b03168015610132576080526001600160a01b031660a05260c052610e0f90816101898239608051818181610382015281816104bf015261090f015260a0518181816108ca0152610c93015260c0518181816105af0152610d140152f35b63e6c4247b60e01b60005260046000fd5b631e4fbdf760e01b600052600060045260246000fd5b600080fd5b634e487b7160e01b600052604160045260246000fd5b51906001600160a01b03821682036101595756fe6080604052600436101561001257600080fd5b60003560e01c806327ce01471461093e5780633013ce29146108f95780633734256e146108b45780633a7960e01461089657806340f797bb1461080f57806346197c9a146107d35780634e71d92d146107af5780636817031b146107235780636c9fa59e146106fa578063700060d8146106c0578063715018a61461065b57806379ba5097146105d25780637bc3a733146105975780638da5cb5b1461056e578063a8b9d24014610543578063bd68700e1461048b578063c371acab1461046e578063cbe8a524146102a8578063d54ad2a11461028a578063ddeae03314610252578063de3aaf6114610218578063e30c3978146101ef578063f2fde38b1461017b578063fbfa77cf146101525763ff50abdc1461012f57600080fd5b3461014d57600036600319011261014d576020600854604051908152f35b600080fd5b3461014d57600036600319011261014d576004546040516001600160a01b039091168152602090f35b3461014d57602036600319011261014d57610194610961565b61019c610be2565b60018060a01b0316806bffffffffffffffffffffffff60a01b600154161760015560018060a01b03600054167f38d16b8cac22d99fc7c124b9cd0de2d3fa1faef420bfe791d8c362d765e22700600080a3005b3461014d57600036600319011261014d576001546040516001600160a01b039091168152602090f35b3461014d57602036600319011261014d576001600160a01b03610239610961565b1660005260076020526020604060002054604051908152f35b3461014d57602036600319011261014d57602061027d610270610961565b610278610bf6565b610c16565b6001600255604051908152f35b3461014d57600036600319011261014d576020600954604051908152f35b3461014d57602036600319011261014d576004356102c4610bf6565b6004546001600160a01b0316330361045d57801561044c576103e8811061043b576003546001600160a01b0316801561042a576020600491604051928380926318160ddd60e01b82525afa90811561041e576000916103e9575b5080156103d8577fb9ebcb18b045f112fc4335f8a337b6daef95ab3d79fcaf32aab73f57e6b12f81916103b36040926103a684516323b872dd60e01b602082015233602482015230604482015284606482015260648152610380608482610977565b7f0000000000000000000000000000000000000000000000000000000000000000610d7e565b8260801b04600554610bd5565b806005556103c382600854610bd5565b60085582519182526020820152a16001600255005b63b317087b60e01b60005260046000fd5b906020823d602011610416575b8161040360209383610977565b810103126104135750518261031e565b80fd5b3d91506103f6565b6040513d6000823e3d90fd5b63e6c4247b60e01b60005260046000fd5b63617ab12d60e11b60005260046000fd5b63162908e360e11b60005260046000fd5b638d1af8bd60e01b60005260046000fd5b3461014d57600036600319011261014d5760206040516103e88152f35b3461014d57600036600319011261014d576008546009546040516370a0823160e01b815230600482015291906020836024817f00000000000000000000000000000000000000000000000000000000000000006001600160a01b03165afa90811561041e5760009161050e575b6060935060405192835260208301526040820152f35b90506020833d60201161053b575b8161052960209383610977565b8101031261014d5760609251906104f8565b3d915061051c565b3461014d57602036600319011261014d576020610566610561610961565b610b9e565b604051908152f35b3461014d57600036600319011261014d576000546040516001600160a01b039091168152602090f35b3461014d57600036600319011261014d5760206040517f00000000000000000000000000000000000000000000000000000000000000008152f35b3461014d57600036600319011261014d57600154336001600160a01b039091160361064657600180546001600160a01b03199081169091556000805433928116831782556001600160a01b0316907f8be0079c531659141344cd1fd0a4f28419497f9722a3daafe3b4186f6b6457e09080a3005b63118cdaa760e01b6000523360045260246000fd5b3461014d57600036600319011261014d57610674610be2565b600180546001600160a01b0319908116909155600080549182168155906001600160a01b03167f8be0079c531659141344cd1fd0a4f28419497f9722a3daafe3b4186f6b6457e08280a3005b3461014d57602036600319011261014d576001600160a01b036106e1610961565b1660005260066020526020604060002054604051908152f35b3461014d57600036600319011261014d576003546040516001600160a01b039091168152602090f35b3461014d57602036600319011261014d5761073c610961565b610744610be2565b6001600160a01b0316801561042a5760045460ff8160a81c1661079e57600161ff0160a01b0319168117600160a81b176004557fe7ae49f883c825b05681b3e00e8be6fdea9ed2a8a45e4c6ecb9390fc44cce615600080a2005b63a741a04560e01b60005260046000fd5b3461014d57600036600319011261014d576107c8610bf6565b602061027d33610c16565b3461014d57606036600319011261014d576107ec610961565b602435906001600160a01b038216820361014d5761080d9160443591610abb565b005b3461014d57602036600319011261014d57610828610961565b610830610be2565b6001600160a01b0316801561042a5760045460ff8160a01c1661079e57600380546001600160a01b0319168317905560ff60a01b1916600160a01b176004557fdb40a5259506fa101ac4485d4ccbd019c99ada5fb7212fe1254374f7a10e02dc600080a2005b3461014d57600036600319011261014d576020600554604051908152f35b3461014d57600036600319011261014d576040517f00000000000000000000000000000000000000000000000000000000000000006001600160a01b03168152602090f35b3461014d57600036600319011261014d576040517f00000000000000000000000000000000000000000000000000000000000000006001600160a01b03168152602090f35b3461014d57602036600319011261014d57602061056661095c610961565b6109e1565b600435906001600160a01b038216820361014d57565b90601f8019910116810190811067ffffffffffffffff82111761099957604052565b634e487b7160e01b600052604160045260246000fd5b919091600083820193841291129080158216911516176109cb57565b634e487b7160e01b600052601160045260246000fd5b6003546001600160a01b03168015610a67576040516370a0823160e01b81526001600160a01b039092166004830181905290602090839060249082905afa91821561041e57600092610a6e575b508115610a6757610a529160055402906000526006602052604060002054906109af565b6000811315610a615760801c90565b50600090565b5050600090565b90916020823d602011610a9a575b81610a8960209383610977565b810103126104135750519038610a2e565b3d9150610a7c565b818103929160001380158285131691841216176109cb57565b6003549092906001600160a01b03163303610b8d578015610b885760055402916001600160ff1b038311610b77576001600160a01b031680610b1c575060018060a01b03166000526006602052610b186040600020918254610aa2565b9055565b906001600160a01b031680610b4457506000526006602052610b1860406000209182546109af565b9060005260066020526040600020610b5d8382546109af565b90556000526006602052610b186040600020918254610aa2565b63125a110760e21b60005260046000fd5b505050565b633a5c639960e01b60005260046000fd5b610ba7816109e1565b6001600160a01b0390911660009081526007602052604090205480821115610a675781039081116109cb5790565b919082018092116109cb57565b6000546001600160a01b0316330361064657565b6002805414610c055760028055565b633ee5aeb560e01b60005260046000fd5b600091906001600160a01b038116908115610d6f57610c3490610b9e565b928315610d6a57818152600760205260408120610c52858254610bd5565b9055610c6084600954610bd5565b600955610c9160405163a9059cbb60e01b602082015283602482015285604482015260448152610380606482610977565b7f00000000000000000000000000000000000000000000000000000000000000006001600160a01b031680610cef575b50507f5efa67896a23b651b741b525caacba039c00ca7853be3de8eb1f4269e8669c566020604051858152a2565b803b15610d665781809160646040518094819363177c459960e31b83528860048401527f000000000000000000000000000000000000000000000000000000000000000060248401528a60448401525af18015610d5b5715610cc15781610d5591610977565b38610cc1565b6040513d84823e3d90fd5b5080fd5b925050565b63e6c4247b60e01b8452600484fd5b906000602091828151910182855af11561041e576000513d610dd057506001600160a01b0381163b155b610daf5750565b635274afe760e01b60009081526001600160a01b0391909116600452602490fd5b60011415610da856fea2646970667358221220c630d1c5b10d32c4a0468bbbaf99e819e794e5c92a4be45be61ac36cec0572c964736f6c634300081c0033",
  "linkReferences": {},
  "deployedLinkReferences": {}
}