{
  "_format": "hh-sol-artifact-1",
  "contractName": "JobBoard",
  "sourceName": "contracts/JobBoard.sol",
  "abi": [
    {
      "inputs": [
        {
          "internalType": "address",
          "name": "_owner",
          "type": "address"
        }
      ],
      "stateMutability": "nonpayable",
      "type": "constructor"
    },
    {
      "inputs": [],
      "name": "AlreadyApplied",
      "type": "error"
    },
    {
      "inputs": [],
      "name": "AlreadyHiredOrClosed",
      "type": "error"
    },
    {
      "inputs": [],
      "name": "AmountZero",
      "type": "error"
    },
    {
      "inputs": [],
      "name": "ApplicationNotFound",
      "type": "error"
    },
    {
      "inputs": [],
      "name": "InsufficientAllowance",
      "type": "error"
    },
    {
      "inputs": [],
      "name": "InsufficientBalance",
      "type": "error"
    },
    {
      "inputs": [],
      "name": "InvalidStatus",
      "type": "error"
    },
    {
      "inputs": [],
      "name": "JobNotFound",
      "type": "error"
    },
    {
      "inputs": [],
      "name": "KYCGated",
      "type": "error"
    },
    {
      "inputs": [],
      "name": "NotAllowedFactory",
      "type": "error"
    },
    {
      "inputs": [],
      "name": "NotClient",
      "type": "error"
    },
    {
      "inputs": [],
      "name": "NotExpired",
      "type": "error"
    },
    {
      "inputs": [],
      "name": "NotFreelancer",
      "type": "error"
    },
    {
      "inputs": [],
      "name": "NotOfferRecipient",
      "type": "error"
    },
    {
      "inputs": [],
      "name": "NotOpen",
      "type": "error"
    },
    {
      "inputs": [],
      "name": "NotOwner",
      "type": "error"
    },
    {
      "inputs": [],
      "name": "NotReopenable",
      "type": "error"
    },
    {
      "inputs": [],
      "name": "OfferAlreadyProcessed",
      "type": "error"
    },
    {
      "inputs": [],
      "name": "OfferExpired",
      "type": "error"
    },
    {
      "inputs": [],
      "name": "OfferNotFound",
      "type": "error"
    },
    {
      "inputs": [],
      "name": "Reentrancy",
      "type": "error"
    },
    {
      "inputs": [],
      "name": "TooManyTags",
      "type": "error"
    },
    {
      "inputs": [],
      "name": "USDCNotSet",
      "type": "error"
    },
    {
      "inputs": [],
      "name": "WrongBond",
      "type": "error"
    },
    {
      "inputs": [],
      "name": "ZeroAddress",
      "type": "error"
    },
    {
      "anonymous": false,
      "inputs": [
        {
          "indexed": false,
          "internalType": "uint8",
          "name": "mode",
          "type": "uint8"
        },
        {
          "indexed": false,
          "internalType": "uint256",
          "name": "postingBondUSDC",
          "type": "uint256"
        }
      ],
      "name": "AntiSpamModeSet",
      "type": "event"
    },
    {
      "anonymous": false,
      "inputs": [
        {
          "indexed": true,
          "internalType": "uint256",
          "name": "jobId",
          "type": "uint256"
        },
        {
          "indexed": true,
          "internalType": "address",
          "name": "freelancer",
          "type": "address"
        },
        {
          "indexed": false,
          "internalType": "address",
          "name": "escrow",
          "type": "address"
        }
      ],
      "name": "DirectOfferAccepted",
      "type": "event"
    },
    {
      "anonymous": false,
      "inputs": [
        {
          "indexed": true,
          "internalType": "uint256",
          "name": "jobId",
          "type": "uint256"
        },
        {
          "indexed": true,
          "internalType": "address",
          "name": "client",
          "type": "address"
        }
      ],
      "name": "DirectOfferCancelled",
      "type": "event"
    },
    {
      "anonymous": false,
      "inputs": [
        {
          "indexed": true,
          "internalType": "uint256",
          "name": "jobId",
          "type": "uint256"
        },
        {
          "indexed": true,
          "internalType": "address",
          "name": "client",
          "type": "address"
        },
        {
          "indexed": true,
          "internalType": "address",
          "name": "freelancer",
          "type": "address"
        },
        {
          "indexed": false,
          "internalType": "string",
          "name": "title",
          "type": "string"
        },
        {
          "indexed": false,
          "internalType": "uint256",
          "name": "budgetUSDT",
          "type": "uint256"
        },
        {
          "indexed": false,
          "internalType": "uint64",
          "name": "expiresAt",
          "type": "uint64"
        }
      ],
      "name": "DirectOfferCreated",
      "type": "event"
    },
    {
      "anonymous": false,
      "inputs": [
        {
          "indexed": true,
          "internalType": "uint256",
          "name": "jobId",
          "type": "uint256"
        },
        {
          "indexed": true,
          "internalType": "address",
          "name": "freelancer",
          "type": "address"
        }
      ],
      "name": "DirectOfferRejected",
      "type": "event"
    },
    {
      "anonymous": false,
      "inputs": [
        {
          "indexed": true,
          "internalType": "address",
          "name": "factory",
          "type": "address"
        },
        {
          "indexed": false,
          "internalType": "bool",
          "name": "allowed",
          "type": "bool"
        }
      ],
      "name": "FactoryAllowed",
      "type": "event"
    },
    {
      "anonymous": false,
      "inputs": [
        {
          "indexed": true,
          "internalType": "address",
          "name": "factory",
          "type": "address"
        }
      ],
      "name": "FreelancerFactorySet",
      "type": "event"
    },
    {
      "anonymous": false,
      "inputs": [
        {
          "indexed": false,
          "internalType": "bool",
          "name": "enabled",
          "type": "bool"
        }
      ],
      "name": "GasSponsorshipSet",
      "type": "event"
    },
    {
      "anonymous": false,
      "inputs": [
        {
          "indexed": true,
          "internalType": "uint256",
          "name": "jobId",
          "type": "uint256"
        },
        {
          "indexed": true,
          "internalType": "address",
          "name": "freelancer",
          "type": "address"
        }
      ],
      "name": "JobApplicationWithdrawn",
      "type": "event"
    },
    {
      "anonymous": false,
      "inputs": [
        {
          "indexed": true,
          "internalType": "uint256",
          "name": "jobId",
          "type": "uint256"
        },
        {
          "indexed": true,
          "internalType": "address",
          "name": "freelancer",
          "type": "address"
        },
        {
          "indexed": false,
          "internalType": "uint64",
          "name": "appliedAt",
          "type": "uint64"
        }
      ],
      "name": "JobApplied",
      "type": "event"
    },
    {
      "anonymous": false,
      "inputs": [
        {
          "indexed": true,
          "internalType": "uint256",
          "name": "jobId",
          "type": "uint256"
        },
        {
          "indexed": true,
          "internalType": "address",
          "name": "client",
          "type": "address"
        }
      ],
      "name": "JobCancelled",
      "type": "event"
    },
    {
      "anonymous": false,
      "inputs": [
        {
          "indexed": true,
          "internalType": "uint256",
          "name": "jobId",
          "type": "uint256"
        },
        {
          "indexed": true,
          "internalType": "address",
          "name": "client",
          "type": "address"
        },
        {
          "indexed": true,
          "internalType": "address",
          "name": "freelancer",
          "type": "address"
        },
        {
          "indexed": false,
          "internalType": "address",
          "name": "escrow",
          "type": "address"
        }
      ],
      "name": "JobCompleted",
      "type": "event"
    },
    {
      "anonymous": false,
      "inputs": [
        {
          "indexed": true,
          "internalType": "uint256",
          "name": "jobId",
          "type": "uint256"
        },
        {
          "indexed": false,
          "internalType": "uint64",
          "name": "expiresAt",
          "type": "uint64"
        }
      ],
      "name": "JobExpiredClosed",
      "type": "event"
    },
    {
      "anonymous": false,
      "inputs": [
        {
          "indexed": true,
          "internalType": "uint256",
          "name": "jobId",
          "type": "uint256"
        },
        {
          "indexed": true,
          "internalType": "address",
          "name": "client",
          "type": "address"
        },
        {
          "indexed": true,
          "internalType": "address",
          "name": "freelancer",
          "type": "address"
        },
        {
          "indexed": false,
          "internalType": "address",
          "name": "escrow",
          "type": "address"
        }
      ],
      "name": "JobHired",
      "type": "event"
    },
    {
      "anonymous": false,
      "inputs": [
        {
          "indexed": true,
          "internalType": "uint256",
          "name": "jobId",
          "type": "uint256"
        },
        {
          "indexed": true,
          "internalType": "address",
          "name": "client",
          "type": "address"
        },
        {
          "indexed": false,
          "internalType": "string",
          "name": "title",
          "type": "string"
        },
        {
          "indexed": false,
          "internalType": "string",
          "name": "descriptionURI",
          "type": "string"
        },
        {
          "indexed": false,
          "internalType": "uint256",
          "name": "budgetUSDC",
          "type": "uint256"
        },
        {
          "indexed": false,
          "internalType": "bytes32[]",
          "name": "tags",
          "type": "bytes32[]"
        },
        {
          "indexed": false,
          "internalType": "uint64",
          "name": "expiresAt",
          "type": "uint64"
        }
      ],
      "name": "JobPosted",
      "type": "event"
    },
    {
      "anonymous": false,
      "inputs": [
        {
          "indexed": true,
          "internalType": "uint256",
          "name": "jobId",
          "type": "uint256"
        },
        {
          "indexed": false,
          "internalType": "uint64",
          "name": "newExpiresAt",
          "type": "uint64"
        }
      ],
      "name": "JobReopened",
      "type": "event"
    },
    {
      "anonymous": false,
      "inputs": [
        {
          "indexed": true,
          "internalType": "uint256",
          "name": "jobId",
          "type": "uint256"
        },
        {
          "indexed": false,
          "internalType": "string",
          "name": "title",
          "type": "string"
        },
        {
          "indexed": false,
          "internalType": "string",
          "name": "descriptionURI",
          "type": "string"
        },
        {
          "indexed": false,
          "internalType": "uint256",
          "name": "budgetUSDC",
          "type": "uint256"
        },
        {
          "indexed": false,
          "internalType": "bytes32[]",
          "name": "tags",
          "type": "bytes32[]"
        },
        {
          "indexed": false,
          "internalType": "uint64",
          "name": "expiresAt",
          "type": "uint64"
        }
      ],
      "name": "JobUpdated",
      "type": "event"
    },
    {
      "anonymous": false,
      "inputs": [
        {
          "indexed": true,
          "internalType": "address",
          "name": "user",
          "type": "address"
        },
        {
          "indexed": false,
          "internalType": "bool",
          "name": "isVerified",
          "type": "bool"
        }
      ],
      "name": "KYCSet",
      "type": "event"
    },
    {
      "anonymous": false,
      "inputs": [
        {
          "indexed": true,
          "internalType": "address",
          "name": "previousOwner",
          "type": "address"
        },
        {
          "indexed": true,
          "internalType": "address",
          "name": "newOwner",
          "type": "address"
        }
      ],
      "name": "OwnerChanged",
      "type": "event"
    },
    {
      "anonymous": false,
      "inputs": [
        {
          "indexed": false,
          "internalType": "bool",
          "name": "paused",
          "type": "bool"
        }
      ],
      "name": "PausedSet",
      "type": "event"
    },
    {
      "anonymous": false,
      "inputs": [
        {
          "indexed": false,
          "internalType": "bool",
          "name": "required",
          "type": "bool"
        }
      ],
      "name": "RequireApplicationToHireSet",
      "type": "event"
    },
    {
      "anonymous": false,
      "inputs": [
        {
          "indexed": true,
          "internalType": "address",
          "name": "usdc",
          "type": "address"
        }
      ],
      "name": "USDCSet",
      "type": "event"
    },
    {
      "inputs": [
        {
          "internalType": "uint256",
          "name": "jobId",
          "type": "uint256"
        }
      ],
      "name": "acceptDirectOffer",
      "outputs": [],
      "stateMutability": "nonpayable",
      "type": "function"
    },
    {
      "inputs": [
        {
          "internalType": "address",
          "name": "",
          "type": "address"
        }
      ],
      "name": "allowedFactory",
      "outputs": [
        {
          "internalType": "bool",
          "name": "",
          "type": "bool"
        }
      ],
      "stateMutability": "view",
      "type": "function"
    },
    {
      "inputs": [],
      "name": "antiSpamMode",
      "outputs": [
        {
          "internalType": "enum JobBoard.AntiSpamMode",
          "name": "",
          "type": "uint8"
        }
      ],
      "stateMutability": "view",
      "type": "function"
    },
    {
      "inputs": [
        {
          "internalType": "uint256",
          "name": "jobId",
          "type": "uint256"
        }
      ],
      "name": "applyToJob",
      "outputs": [],
      "stateMutability": "nonpayable",
      "type": "function"
    },
    {
      "inputs": [
        {
          "internalType": "uint256",
          "name": "jobId",
          "type": "uint256"
        },
        {
          "internalType": "string",
          "name": "proposalURI",
          "type": "string"
        },
        {
          "internalType": "uint256",
          "name": "bidAmount",
          "type": "uint256"
        },
        {
          "internalType": "uint64",
          "name": "deliveryDays",
          "type": "uint64"
        }
      ],
      "name": "applyToJob",
      "outputs": [],
      "stateMutability": "nonpayable",
      "type": "function"
    },
    {
      "inputs": [
        {
          "internalType": "uint256",
          "name": "jobId",
          "type": "uint256"
        }
      ],
      "name": "cancelDirectOffer",
      "outputs": [],
      "stateMutability": "nonpayable",
      "type": "function"
    },
    {
      "inputs": [
        {
          "internalType": "uint256",
          "name": "jobId",
          "type": "uint256"
        }
      ],
      "name": "cancelJob",
      "outputs": [],
      "stateMutability": "nonpayable",
      "type": "function"
    },
    {
      "inputs": [
        {
          "internalType": "uint256",
          "name": "jobId",
          "type": "uint256"
        }
      ],
      "name": "closeExpired",
      "outputs": [],
      "stateMutability": "nonpayable",
      "type": "function"
    },
    {
      "inputs": [
        {
          "internalType": "address",
          "name": "freelancer",
          "type": "address"
        },
        {
          "internalType": "string",
          "name": "title",
          "type": "string"
        },
        {
          "internalType": "string",
          "name": "descriptionURI",
          "type": "string"
        },
        {
          "internalType": "uint256",
          "name": "budgetUSDT",
          "type": "uint256"
        },
        {
          "internalType": "uint64",
          "name": "deliveryDays",
          "type": "uint64"
        },
        {
          "internalType": "uint64",
          "name": "expiresAt",
          "type": "uint64"
        }
      ],
      "name": "createDirectOffer",
      "outputs": [
        {
          "internalType": "uint256",
          "name": "jobId",
          "type": "uint256"
        }
      ],
      "stateMutability": "nonpayable",
      "type": "function"
    },
    {
      "inputs": [
        {
          "internalType": "uint256",
          "name": "",
          "type": "uint256"
        }
      ],
      "name": "directOffers",
      "outputs": [
        {
          "internalType": "uint256",
          "name": "jobId",
          "type": "uint256"
        },
        {
          "internalType": "address",
          "name": "client",
          "type": "address"
        },
        {
          "internalType": "address",
          "name": "freelancer",
          "type": "address"
        },
        {
          "internalType": "string",
          "name": "title",
          "type": "string"
        },
        {
          "internalType": "string",
          "name": "descriptionURI",
          "type": "string"
        },
        {
          "internalType": "uint256",
          "name": "budgetUSDT",
          "type": "uint256"
        },
        {
          "internalType": "uint64",
          "name": "deliveryDays",
          "type": "uint64"
        },
        {
          "internalType": "uint64",
          "name": "createdAt",
          "type": "uint64"
        },
        {
          "internalType": "uint64",
          "name": "expiresAt",
          "type": "uint64"
        },
        {
          "internalType": "bool",
          "name": "accepted",
          "type": "bool"
        },
        {
          "internalType": "bool",
          "name": "rejected",
          "type": "bool"
        },
        {
          "internalType": "bool",
          "name": "cancelled",
          "type": "bool"
        }
      ],
      "stateMutability": "view",
      "type": "function"
    },
    {
      "inputs": [],
      "name": "freelancerFactory",
      "outputs": [
        {
          "internalType": "contract IFreelancerFactory",
          "name": "",
          "type": "address"
        }
      ],
      "stateMutability": "view",
      "type": "function"
    },
    {
      "inputs": [],
      "name": "gasSponsorshipEnabled",
      "outputs": [
        {
          "internalType": "bool",
          "name": "",
          "type": "bool"
        }
      ],
      "stateMutability": "view",
      "type": "function"
    },
    {
      "inputs": [
        {
          "internalType": "uint256",
          "name": "jobId",
          "type": "uint256"
        }
      ],
      "name": "getApplicantCount",
      "outputs": [
        {
          "internalType": "uint256",
          "name": "",
          "type": "uint256"
        }
      ],
      "stateMutability": "view",
      "type": "function"
    },
    {
      "inputs": [
        {
          "internalType": "uint256",
          "name": "jobId",
          "type": "uint256"
        },
        {
          "internalType": "address",
          "name": "freelancer",
          "type": "address"
        }
      ],
      "name": "getApplicantDetails",
      "outputs": [
        {
          "internalType": "address",
          "name": "_freelancer",
          "type": "address"
        },
        {
          "internalType": "uint64",
          "name": "appliedAt",
          "type": "uint64"
        },
        {
          "internalType": "string",
          "name": "proposalURI",
          "type": "string"
        },
        {
          "internalType": "uint256",
          "name": "bidAmount",
          "type": "uint256"
        },
        {
          "internalType": "uint64",
          "name": "deliveryDays",
          "type": "uint64"
        }
      ],
      "stateMutability": "view",
      "type": "function"
    },
    {
      "inputs": [
        {
          "internalType": "uint256",
          "name": "jobId",
          "type": "uint256"
        },
        {
          "internalType": "uint256",
          "name": "offset",
          "type": "uint256"
        },
        {
          "internalType": "uint256",
          "name": "limit",
          "type": "uint256"
        }
      ],
      "name": "getApplicants",
      "outputs": [
        {
          "internalType": "address[]",
          "name": "freelancers",
          "type": "address[]"
        },
        {
          "internalType": "uint64[]",
          "name": "appliedAt",
          "type": "uint64[]"
        }
      ],
      "stateMutability": "view",
      "type": "function"
    },
    {
      "inputs": [
        {
          "internalType": "uint256",
          "name": "jobId",
          "type": "uint256"
        }
      ],
      "name": "getDirectOffer",
      "outputs": [
        {
          "components": [
            {
              "internalType": "uint256",
              "name": "jobId",
              "type": "uint256"
            },
            {
              "internalType": "address",
              "name": "client",
              "type": "address"
            },
            {
              "internalType": "address",
              "name": "freelancer",
              "type": "address"
            },
            {
              "internalType": "string",
              "name": "title",
              "type": "string"
            },
            {
              "internalType": "string",
              "name": "descriptionURI",
              "type": "string"
            },
            {
              "internalType": "uint256",
              "name": "budgetUSDT",
              "type": "uint256"
            },
            {
              "internalType": "uint64",
              "name": "deliveryDays",
              "type": "uint64"
            },
            {
              "internalType": "uint64",
              "name": "createdAt",
              "type": "uint64"
            },
            {
              "internalType": "uint64",
              "name": "expiresAt",
              "type": "uint64"
            },
            {
              "internalType": "bool",
              "name": "accepted",
              "type": "bool"
            },
            {
              "internalType": "bool",
              "name": "rejected",
              "type": "bool"
            },
            {
              "internalType": "bool",
              "name": "cancelled",
              "type": "bool"
            }
          ],
          "internalType": "struct JobBoard.DirectOffer",
          "name": "",
          "type": "tuple"
        }
      ],
      "stateMutability": "view",
      "type": "function"
    },
    {
      "inputs": [
        {
          "internalType": "uint256",
          "name": "jobId",
          "type": "uint256"
        }
      ],
      "name": "getJob",
      "outputs": [
        {
          "internalType": "address",
          "name": "client",
          "type": "address"
        },
        {
          "internalType": "string",
          "name": "title",
          "type": "string"
        },
        {
          "internalType": "string",
          "name": "descriptionURI",
          "type": "string"
        },
        {
          "internalType": "uint256",
          "name": "budgetUSDC",
          "type": "uint256"
        },
        {
          "internalType": "enum JobBoard.JobStatus",
          "name": "status",
          "type": "uint8"
        },
        {
          "internalType": "address",
          "name": "hiredFreelancer",
          "type": "address"
        },
        {
          "internalType": "address",
          "name": "escrow",
          "type": "address"
        },
        {
          "internalType": "uint64",
          "name": "createdAt",
          "type": "uint64"
        },
        {
          "internalType": "uint64",
          "name": "updatedAt",
          "type": "uint64"
        },
        {
          "internalType": "uint64",
          "name": "expiresAt",
          "type": "uint64"
        },
        {
          "internalType": "bytes32[]",
          "name": "tags",
          "type": "bytes32[]"
        },
        {
          "internalType": "uint256",
          "name": "postingBond",
          "type": "uint256"
        }
      ],
      "stateMutability": "view",
      "type": "function"
    },
    {
      "inputs": [
        {
          "internalType": "address",
          "name": "freelancer",
          "type": "address"
        }
      ],
      "name": "getJobsAppliedBy",
      "outputs": [
        {
          "internalType": "uint256[]",
          "name": "",
          "type": "uint256[]"
        }
      ],
      "stateMutability": "view",
      "type": "function"
    },
    {
      "inputs": [
        {
          "internalType": "address",
          "name": "client",
          "type": "address"
        }
      ],
      "name": "getOffersFromClient",
      "outputs": [
        {
          "internalType": "uint256[]",
          "name": "",
          "type": "uint256[]"
        }
      ],
      "stateMutability": "view",
      "type": "function"
    },
    {
      "inputs": [
        {
          "internalType": "address",
          "name": "freelancer",
          "type": "address"
        }
      ],
      "name": "getOffersToFreelancer",
      "outputs": [
        {
          "internalType": "uint256[]",
          "name": "",
          "type": "uint256[]"
        }
      ],
      "stateMutability": "view",
      "type": "function"
    },
    {
      "inputs": [
        {
          "internalType": "address",
          "name": "",
          "type": "address"
        }
      ],
      "name": "isKYC",
      "outputs": [
        {
          "internalType": "bool",
          "name": "",
          "type": "bool"
        }
      ],
      "stateMutability": "view",
      "type": "function"
    },
    {
      "inputs": [
        {
          "internalType": "uint256",
          "name": "",
          "type": "uint256"
        }
      ],
      "name": "jobs",
      "outputs": [
        {
          "internalType": "address",
          "name": "client",
          "type": "address"
        },
        {
          "internalType": "string",
          "name": "title",
          "type": "string"
        },
        {
          "internalType": "string",
          "name": "descriptionURI",
          "type": "string"
        },
        {
          "internalType": "uint256",
          "name": "budgetUSDC",
          "type": "uint256"
        },
        {
          "internalType": "enum JobBoard.JobStatus",
          "name": "status",
          "type": "uint8"
        },
        {
          "internalType": "address",
          "name": "hiredFreelancer",
          "type": "address"
        },
        {
          "internalType": "address",
          "name": "escrow",
          "type": "address"
        },
        {
          "internalType": "uint64",
          "name": "createdAt",
          "type": "uint64"
        },
        {
          "internalType": "uint64",
          "name": "updatedAt",
          "type": "uint64"
        },
        {
          "internalType": "uint64",
          "name": "expiresAt",
          "type": "uint64"
        },
        {
          "internalType": "uint256",
          "name": "postingBond",
          "type": "uint256"
        }
      ],
      "stateMutability": "view",
      "type": "function"
    },
    {
      "inputs": [
        {
          "internalType": "address",
          "name": "clientAddr",
          "type": "address"
        }
      ],
      "name": "jobsByClient",
      "outputs": [
        {
          "internalType": "uint256[]",
          "name": "",
          "type": "uint256[]"
        }
      ],
      "stateMutability": "view",
      "type": "function"
    },
    {
      "inputs": [
        {
          "internalType": "address",
          "name": "clientAddr",
          "type": "address"
        },
        {
          "internalType": "uint256",
          "name": "offset",
          "type": "uint256"
        },
        {
          "internalType": "uint256",
          "name": "limit",
          "type": "uint256"
        }
      ],
      "name": "jobsByClientPaginated",
      "outputs": [
        {
          "internalType": "uint256[]",
          "name": "out",
          "type": "uint256[]"
        }
      ],
      "stateMutability": "view",
      "type": "function"
    },
    {
      "inputs": [
        {
          "internalType": "address",
          "name": "",
          "type": "address"
        },
        {
          "internalType": "uint256",
          "name": "",
          "type": "uint256"
        }
      ],
      "name": "jobsOf",
      "outputs": [
        {
          "internalType": "uint256",
          "name": "",
          "type": "uint256"
        }
      ],
      "stateMutability": "view",
      "type": "function"
    },
    {
      "inputs": [
        {
          "internalType": "uint256",
          "name": "jobId",
          "type": "uint256"
        }
      ],
      "name": "markAsCompleted",
      "outputs": [],
      "stateMutability": "nonpayable",
      "type": "function"
    },
    {
      "inputs": [
        {
          "internalType": "uint256",
          "name": "jobId",
          "type": "uint256"
        },
        {
          "internalType": "address",
          "name": "freelancer",
          "type": "address"
        },
        {
          "internalType": "address",
          "name": "escrow",
          "type": "address"
        }
      ],
      "name": "markAsHired",
      "outputs": [],
      "stateMutability": "nonpayable",
      "type": "function"
    },
    {
      "inputs": [],
      "name": "nextJobId",
      "outputs": [
        {
          "internalType": "uint256",
          "name": "",
          "type": "uint256"
        }
      ],
      "stateMutability": "view",
      "type": "function"
    },
    {
      "inputs": [
        {
          "internalType": "uint256",
          "name": "offset",
          "type": "uint256"
        },
        {
          "internalType": "uint256",
          "name": "limit",
          "type": "uint256"
        }
      ],
      "name": "openJobs",
      "outputs": [
        {
          "internalType": "uint256[]",
          "name": "out",
          "type": "uint256[]"
        }
      ],
      "stateMutability": "view",
      "type": "function"
    },
    {
      "inputs": [],
      "name": "owner",
      "outputs": [
        {
          "internalType": "address",
          "name": "",
          "type": "address"
        }
      ],
      "stateMutability": "view",
      "type": "function"
    },
    {
      "inputs": [],
      "name": "paused",
      "outputs": [
        {
          "internalType": "bool",
          "name": "",
          "type": "bool"
        }
      ],
      "stateMutability": "view",
      "type": "function"
    },
    {
      "inputs": [
        {
          "internalType": "string",
          "name": "title",
          "type": "string"
        },
        {
          "internalType": "string",
          "name": "descriptionURI",
          "type": "string"
        },
        {
          "internalType": "uint256",
          "name": "budgetUSDC",
          "type": "uint256"
        },
        {
          "internalType": "bytes32[]",
          "name": "tags",
          "type": "bytes32[]"
        },
        {
          "internalType": "uint64",
          "name": "expiresAt",
          "type": "uint64"
        }
      ],
      "name": "postJob",
      "outputs": [
        {
          "internalType": "uint256",
          "name": "jobId",
          "type": "uint256"
        }
      ],
      "stateMutability": "nonpayable",
      "type": "function"
    },
    {
      "inputs": [],
      "name": "postingBondUSDC",
      "outputs": [
        {
          "internalType": "uint256",
          "name": "",
          "type": "uint256"
        }
      ],
      "stateMutability": "view",
      "type": "function"
    },
    {
      "inputs": [
        {
          "internalType": "uint256",
          "name": "jobId",
          "type": "uint256"
        }
      ],
      "name": "rejectDirectOffer",
      "outputs": [],
      "stateMutability": "nonpayable",
      "type": "function"
    },
    {
      "inputs": [
        {
          "internalType": "uint256",
          "name": "jobId",
          "type": "uint256"
        },
        {
          "internalType": "uint64",
          "name": "newExpiresAt",
          "type": "uint64"
        }
      ],
      "name": "reopen",
      "outputs": [],
      "stateMutability": "nonpayable",
      "type": "function"
    },
    {
      "inputs": [],
      "name": "requireApplicationToHire",
      "outputs": [
        {
          "internalType": "bool",
          "name": "",
          "type": "bool"
        }
      ],
      "stateMutability": "view",
      "type": "function"
    },
    {
      "inputs": [
        {
          "internalType": "address",
          "name": "factory",
          "type": "address"
        },
        {
          "internalType": "bool",
          "name": "allowed",
          "type": "bool"
        }
      ],
      "name": "setAllowedFactory",
      "outputs": [],
      "stateMutability": "nonpayable",
      "type": "function"
    },
    {
      "inputs": [
        {
          "internalType": "uint8",
          "name": "mode",
          "type": "uint8"
        },
        {
          "internalType": "uint256",
          "name": "bondAmount",
          "type": "uint256"
        }
      ],
      "name": "setAntiSpamMode",
      "outputs": [],
      "stateMutability": "nonpayable",
      "type": "function"
    },
    {
      "inputs": [
        {
          "internalType": "address",
          "name": "factory_",
          "type": "address"
        }
      ],
      "name": "setFreelancerFactory",
      "outputs": [],
      "stateMutability": "nonpayable",
      "type": "function"
    },
    {
      "inputs": [
        {
          "internalType": "bool",
          "name": "enabled",
          "type": "bool"
        }
      ],
      "name": "setGasSponsorship",
      "outputs": [],
      "stateMutability": "nonpayable",
      "type": "function"
    },
    {
      "inputs": [
        {
          "internalType": "address",
          "name": "user",
          "type": "address"
        },
        {
          "internalType": "bool",
          "name": "verified",
          "type": "bool"
        }
      ],
      "name": "setKYC",
      "outputs": [],
      "stateMutability": "nonpayable",
      "type": "function"
    },
    {
      "inputs": [
        {
          "internalType": "bool",
          "name": "_paused",
          "type": "bool"
        }
      ],
      "name": "setPaused",
      "outputs": [],
      "stateMutability": "nonpayable",
      "type": "function"
    },
    {
      "inputs": [
        {
          "internalType": "bool",
          "name": "required",
          "type": "bool"
        }
      ],
      "name": "setRequireApplicationToHire",
      "outputs": [],
      "stateMutability": "nonpayable",
      "type": "function"
    },
    {
      "inputs": [
        {
          "internalType": "address",
          "name": "token",
          "type": "address"
        }
      ],
      "name": "setUSDC",
      "outputs": [],
      "stateMutability": "nonpayable",
      "type": "function"
    },
    {
      "inputs": [
        {
          "internalType": "address",
          "name": "",
          "type": "address"
        },
        {
          "internalType": "uint256",
          "name": "amount",
          "type": "uint256"
        }
      ],
      "name": "sweepERC20",
      "outputs": [],
      "stateMutability": "nonpayable",
      "type": "function"
    },
    {
      "inputs": [
        {
          "internalType": "address",
          "name": "clientAddr",
          "type": "address"
        }
      ],
      "name": "totalJobsOf",
      "outputs": [
        {
          "internalType": "uint256",
          "name": "",
          "type": "uint256"
        }
      ],
      "stateMutability": "view",
      "type": "function"
    },
    {
      "inputs": [],
      "name": "totalOpenJobs",
      "outputs": [
        {
          "internalType": "uint256",
          "name": "",
          "type": "uint256"
        }
      ],
      "stateMutability": "view",
      "type": "function"
    },
    {
      "inputs": [
        {
          "internalType": "address",
          "name": "_newOwner",
          "type": "address"
        }
      ],
      "name": "transferOwnership",
      "outputs": [],
      "stateMutability": "nonpayable",
      "type": "function"
    },
    {
      "inputs": [
        {
          "internalType": "uint256",
          "name": "jobId",
          "type": "uint256"
        },
        {
          "internalType": "string",
          "name": "title",
          "type": "string"
        },
        {
          "internalType": "string",
          "name": "descriptionURI",
          "type": "string"
        },
        {
          "internalType": "uint256",
          "name": "budgetUSDC",
          "type": "uint256"
        },
        {
          "internalType": "bytes32[]",
          "name": "tags",
          "type": "bytes32[]"
        },
        {
          "internalType": "uint64",
          "name": "expiresAt",
          "type": "uint64"
        }
      ],
      "name": "updateJob",
      "outputs": [],
      "stateMutability": "nonpayable",
      "type": "function"
    },
    {
      "inputs": [],
      "name": "usdc",
      "outputs": [
        {
          "internalType": "contract IUSDCMinimal",
          "name": "",
          "type": "address"
        }
      ],
      "stateMutability": "view",
      "type": "function"
    },
    {
      "inputs": [
        {
          "internalType": "uint256",
          "name": "jobId",
          "type": "uint256"
        }
      ],
      "name": "withdrawApplication",
      "outputs": [],
      "stateMutability": "nonpayable",
      "type": "function"
    }
  ],
  "bytecode": "0x60803460b457601f61416138819003918201601f19168301916001600160401b0383118484101760b95780849260209460405283398101031260b457516001600160a01b0381169081900360b4576001600b55801560a357600080546001600160a01b03191682178155600160065560405191907fb532073b38c83145e3e5135377a08bf9aab55bc0fd7c1179cd4fb995d2a5159c8180a361409190816100d08239f35b63d92e233d60e01b60005260046000fd5b600080fd5b634e487b7160e01b600052604160045260246000fdfe608080604052600436101561001357600080fd5b60003560e01c9081630c79b9f9146134f757508063103c59e714612dc957806316c38b3c14612d55578063180aedf314612c705780631dffa3dc14612b835780631ec1de9314612b65578063230c30a714612a725780632ce606e314612a495780632edea1a014612a2357806331209061146127fd57806331dc20ff146127df57806336ae41ca1461270d5780633e413bee146126e05780633e8a00c8146126bd5780633f1959931461267e57806343364ded1461246a578063455f16c5146123f95780634f464cb0146120335780635123bacc14611f8a57806357147aca14611f50578063583e42a414611edd5780635a4434ba14611eb35780635c975abb14611e8d5780636c79bce71461195757806372ffa84d146118c05780637474a408146118495780637c1ee3b5146117c15780637f8305e5146117585780638da5cb5b1461172f5780638e1a32d0146113dc5780639944f5181461139d578063a484abd41461129b578063b0c2aa5e1461127d578063b3e089a2146111f5578063beacece1146111c9578063bec7a01d14611152578063bf22c45714611001578063c0a6026c14610f06578063c6b9caf414610e50578063cbff7df514610d84578063d2f57da414610945578063d566a41114610919578063d8acddb1146108c0578063dc74fde51461089e578063e5d53c3b14610827578063e6d119991461077b578063e87c346314610648578063ee64a6aa146104e7578063f1d5314a14610375578063f2fde38b146102dc5763f4eefe071461025057600080fd5b346102d75760203660031901126102d7576001600160a01b03610271613768565b166000526011602052604060002060405190816020825491828152019160005260206000209060005b8181106102c1576102bd856102b18187038261387c565b604051918291826139bf565b0390f35b825484526020909301926001928301920161029a565b600080fd5b346102d75760203660031901126102d7576102f5613768565b600054906001600160a01b0382169033829003610364576001600160a01b0316918215610353576001600160a01b031916821760009081557fb532073b38c83145e3e5135377a08bf9aab55bc0fd7c1179cd4fb995d2a5159c9080a3005b63d92e233d60e01b60005260046000fd5b6330cd747160e01b60005260046000fd5b346102d75760203660031901126102d75760043560ff60005460a01c166104d6576001600b54036104c5576002600b556000818152600e6020908152604080832033845290915290205480156104b457600019810190811161049e576103ea60039183600052600d6020526040600020613d69565b5080546001600160e01b03191681556001810180546000919061040c9061380b565b601f811161047f575b505560006002820155016001600160401b0319815416905580600052600e602052604060002060018060a01b0333166000526020526000604081205533907f6917335efdeedc9e175d9104c30bd132f219f66cbb6c05631b4e7991ca798023600080a36001600b55005b8183526020832061049891601f0160051c810190613a70565b85610415565b634e487b7160e01b600052601160045260246000fd5b630bd94e9760e11b60005260046000fd5b63558a1e0360e11b60005260046000fd5b6307a92f1960e51b60005260046000fd5b346102d75760403660031901126102d7576004356024356001600160401b0381168082036102d75760ff60005460a01c166104d6576000838152600760205260409020546001600160a01b0316801561063757330361062657826000526007602052604060002090600482019160ff83541660068110156106105760038114159081610604575b506105f357811515806105e9575b6104d6577f64e5fe93a1512528f7d137734ea381e242e5f5b078b993159fdb3c72ab8e9ef79360066105d792602095600160ff19825416179055016001600160401b03804216166001600160401b0319825416178155613acc565b6105e08461400d565b604051908152a2005b504282111561057c565b633f2e0a8760e21b60005260046000fd5b6005915014158661056e565b634e487b7160e01b600052602160045260246000fd5b630836f21d60e21b60005260046000fd5b63c0a8563160e01b60005260046000fd5b346102d75760203660031901126102d75760043560ff60005460a01c166104d657600081815260106020526040902060018101546001600160a01b03161561076a5760028101546001600160a01b0316330361075957600601805460ff8160c01c16801561074c575b801561073f575b61072e5760ff60c81b1916600160c81b179055600081815260076020526040812060048101805460ff19166003179055600601805467ffffffffffffffff1916426001600160401b03161790553391907f43782b54e2c07f039a50f88ecc221574e0f0a62f233249c709d1b826aefef6989080a3005b63c5789e4b60e01b60005260046000fd5b5060ff8160d01c166106b8565b5060ff8160c81c166106b1565b631d246a6b60e11b60005260046000fd5b636df5846d60e01b60005260046000fd5b346102d75760403660031901126102d757610794613768565b506000546001600160a01b0316338190036103645760025460405163a9059cbb60e01b81526001600160a01b0392831660048201526024803590820152916020918391604491839160009160081c165af1801561081b576107f157005b6108129060203d602011610814575b61080a818361387c565b810190613c64565b005b503d610800565b6040513d6000823e3d90fd5b346102d75760203660031901126102d7576001600160a01b03610848613768565b166000526008602052604060002060405190816020825491828152019160005260206000209060005b818110610888576102bd856102b18187038261387c565b8254845260209093019260019283019201610871565b346102d75760403660031901126102d7576102bd6102b1602435600435613e57565b346102d75760403660031901126102d7576108d9613768565b6001600160a01b03166000908152600860205260409020805460243591908210156102d75760209161090a91613a2a565b90549060031b1c604051908152f35b346102d75760203660031901126102d757600435600052600d6020526020604060002054604051908152f35b346102d75760803660031901126102d7576004356024356001600160401b0381116102d757610978903690600401613794565b600092919250606435906001600160401b0382168092036102d75760ff60005460a01c166104d6576001600b54036104c5576002600b556001600160401b038111610c9957604051936109d5601f8301601f19166020018661387c565b81855236828201116102d757816000926020928388013785010152600082815260076020526040902080546001600160a01b0316156106375760ff600482015416600681101561061057600103610d73576006015460401c6001600160401b03168015159081610d68575b50610d5757600c546001600160a01b031680610cd5575b506000828152600e60209081526040808320338452909152902054610cc5576001600160401b0342169282600052600d6020526040600020549183600052600d602052604060002060405192610aac84613861565b338452602084018781526040850191825260608501926044358452608086019485528054600160401b811015610c9957610aeb91600182018155613d69565b959095610caf5751855491516001600160e01b03199092166001600160a01b03919091161760a09190911b67ffffffffffffffff60a01b1617845551805160018501916001600160401b038211610c9957610b5082610b4a855461380b565b85613a87565b602090601f8311600114610c245792610b90836001600160401b039794600397948997600092610c19575b50508160011b916000199060031b1c19161790565b90555b5160028601555116920191166001600160401b03198254161790556001810180911161049e576000828152600e60209081526040808320338452825280832093909355600f905220610be6908290613af4565b6040519182527fffce64a4a888e2eca6ed6b5e083b220b5f57250b9c0c7badb33012f1607a084760203393a36001600b55005b015190508d80610b7b565b90601f1983169184600052816000209260005b818110610c81575093600396936001600160401b03989593600193838b999610610c69575b505050811b019055610b93565b0151600019838a1b60f8161c191690558c8080610c5c565b92936020600181928786015181550195019301610c37565b634e487b7160e01b600052604160045260246000fd5b634e487b7160e01b600052600060045260246000fd5b62540c0360e11b60005260046000fd5b602060249160405192838092630f5664e760e31b82523360048301525afa90811561081b57600091610d28575b506001600160a01b031615610d175783610a57565b633832386960e11b60005260046000fd5b610d4a915060203d602011610d50575b610d42818361387c565b810190613a42565b84610d02565b503d610d38565b63d0404f8560e01b60005260046000fd5b905042101584610a40565b631bb5f5b360e31b60005260046000fd5b346102d75760403660031901126102d757600435610da061377e565b81600052600e60205260406000209060018060a01b03166000526020526040600020549081156104b457600052600d6020526040600020600019820191821161049e576001600160401b0391610df591613d69565b50805490600281015490610e41610e15600186600385015416930161389d565b604080516001600160a01b038716815260a096871c909716602088015286018590528594850190613941565b91606084015260808301520390f35b346102d75760603660031901126102d757610e72604435602435600435613d85565b906040519182916040830160408452815180915260206060850192019060005b818110610ee45750505082810360208401526020808351928381520192019060005b818110610ec2575050500390f35b82516001600160401b0316845285945060209384019390920191600101610eb4565b82516001600160a01b0316845286955060209384019390920191600101610e92565b346102d75760203660031901126102d75760043560ff60005460a01c166104d65733600052600160205260ff6040600020541615610ff057600081815260076020526040902080549091906001600160a01b03161561063757600482019060ff8254166006811015610610576002036104d657815460ff1916600417825560068301805467ffffffffffffffff1916426001600160401b0316179055825491546005909301546040516001600160a01b03918216815260089490941c8116939216917f074fd40586a68e670c4541fb4b871f9b85af2929dbe255702e111e588ff4b2a890602090a4005b6309270ebd60e11b60005260046000fd5b346102d75760203660031901126102d757600435600090815260076020526040902080546001600160a01b031680156106375760076003830154926001600160401b0360048201548160058401546006850154926110bb6008870154966110ad61106d6001830161389d565b61109461107c6002850161389d565b9361108d604051809e819301613bd7565b038c61387c565b6040519b8c5261018060208d01526101808c0190613941565b908a820360408c0152613941565b9860608901526110d16080890160ff8316613982565b60081c6001600160a01b0390811660a08981019190915290821660c08901521c1660e086015280821661010086015260401c16610120840152828403610140840152815180855260009460209081019301905b80861061113a5750508293506101608301520390f35b90926020806001928651815201940195019490611124565b346102d75760203660031901126102d7576001600160a01b03611173613768565b16600052600f602052604060002060405190816020825491828152019160005260206000209060005b8181106111b3576102bd856102b18187038261387c565b825484526020909301926001928301920161119c565b346102d75760603660031901126102d7576102bd6102b16111e8613768565b6044359060243590613caa565b346102d75760203660031901126102d75761120e613768565b6000546001600160a01b03163303610364576001600160a01b0381169081156103535760028054610100600160a81b03191660089290921b610100600160a81b03169190911790557f4a13891118f8dba1996f8eac118f83bb98e645807a9b9cecf6bc6d014048e7e3600080a2005b346102d75760003660031901126102d7576020600654604051908152f35b346102d75760203660031901126102d75760043560009081526010602052604090208054600182015460028301546001600160a01b03918216939160ff91166113376112e96003850161389d565b6113296112f86004870161389d565b916006600588015497015494604051998a998a5260208a015260408901526101806060890152610180880190613941565b908682036080880152613941565b9260a08501526001600160401b03811660c08501526001600160401b038160401c1660e08501526001600160401b038160801c16610100850152818160c01c161515610120850152818160c81c16151561014085015260d01c1615156101608301520390f35b346102d75760203660031901126102d7576001600160a01b036113be613768565b166000526004602052602060ff604060002054166040519015158152f35b346102d75760203660031901126102d75760043560ff60005460a01c166104d6576001600b54036104c5576002600b5560209060405161141c838261387c565b6000808252828152600784526040902080546001600160a01b0316156106375760ff600482015416600681101561061057600103610d73576006015460401c6001600160401b03168015159081611724575b50610d5757600c546001600160a01b031683816116c5575b50506000828152600e845260408082203383528552902054610cc5576001600160401b0342169282600052600d81526040600020549183600052600d82526040600020604051916114d683613861565b33835283830190878252604084019081526060840191600083526080850193600085528054600160401b811015610c995761151691600182018155613d69565b959095610caf5751855491516001600160e01b03199092166001600160a01b03919091161760a09190911b67ffffffffffffffff60a01b1617845551805160018501916001600160401b038211610c995761157582610b4a855461380b565b8690601f831160011461165057926115b3836001600160401b0397946003979489976000926116455750508160011b916000199060031b1c19161790565b90555b5160028601555116920191166001600160401b03198254161790556001820180921161049e577fffce64a4a888e2eca6ed6b5e083b220b5f57250b9c0c7badb33012f1607a08479183600052600e8252604060002060018060a01b033316600052825260406000205533600052600f8152611635836040600020613af4565b6040519384523393a36001600b55005b015190508e80610b7b565b90601f1983169184600052886000209260005b8a8282106116af57505093600396936001600160401b03989593600193838b999610611697575b505050811b0190556115b6565b0151600019838a1b60f8161c191690558d808061168a565b6001859682939686015181550195019301611663565b604051630f5664e760e31b815233600482015291829060249082905afa90811561081b57600091611707575b506001600160a01b031615610d17578383611486565b61171e9150843d8611610d5057610d42818361387c565b846116f1565b90504210158461146e565b346102d75760003660031901126102d7576000546040516001600160a01b039091168152602090f35b346102d75760203660031901126102d7576117716137ed565b6000546001600160a01b031633036103645760207fe45eebf975e8498157f15e4245144789293d518243944ce72e49418a0cfa598391151560ff196005541660ff821617600555604051908152a1005b346102d75760403660031901126102d75760043560ff81168091036102d757600054602435906001600160a01b0316330361036457600282116104d6576003821015610610577f7d63308b92fa01d1151ab58553671d1b5ade1d78731eb1b099f55ac41ea2464e916040918160ff1960025416176002558060035582519182526020820152a1005b346102d75760203660031901126102d7576001600160a01b0361186a613768565b166000526012602052604060002060405190816020825491828152019160005260206000209060005b8181106118aa576102bd856102b18187038261387c565b8254845260209093019260019283019201611893565b346102d75760403660031901126102d7576118d9613768565b6118e16137fc565b6000549091906001600160a01b03163303610364576001600160a01b03169081156103535760207f24c9a6b477fff74db04905dbc966242385b5b163a4abd979698a56ea761371db91836000526001825261194c8160406000209060ff801983541691151516179055565b6040519015158152a2005b346102d75760a03660031901126102d7576004356001600160401b0381116102d757611987903690600401613794565b906024356001600160401b0381116102d7576119a7903690600401613794565b9092604435916064356001600160401b0381116102d7576119cc90369060040161398f565b9490936119d76137c1565b9260ff60005460a01c166104d6576001600b54036104c5576002600b556002549560ff8716966003881015610610576002881480611e74575b611e6357600160009814611db0575b5060058811611d9f576001600160401b0385168015159081611d94575b506104d65760065497611a4e89613a61565b600655600089815260076020526040902080546001600160a01b0319163317815597600189016001600160401b038911610c9957611a9689611a90835461380b565b83613a87565b600089601f8111600114611d305780611ac592600091611d25575b508160011b916000199060031b1c19161790565b90555b600289016001600160401b038511610c9957611ae885611a90835461380b565b6000858d601f8211600114611cba57611b189260009183611caf5750508160011b916000199060031b1c19161790565b90555b6003890185905560048901805460ff1916600117905560058901805467ffffffffffffffff60a01b19164260a081901b67ffffffffffffffff60a01b1691909117909155611b909088906001600160401b03166001600160401b0360068d0191166001600160401b0319825416178155613acc565b600889015580611c0b575b50507f1e340188ef02ed93224295b9e0a03660720f89cfd12522e974a49b530e346e039360209893889693611bfb933360005260088c52611be0896040600020613af4565b611be98961400d565b6040519687966007339c019488613c11565b0390a36001600b55604051908152f35b611c1481613b95565b805160078a0192916001600160401b038211610c9957602090611c378386613b3b565b0183600052602060002060005b838110611c9b575050505060005b818110611c60575050611b9b565b80611c6e6001928487613bc7565b35611c93611c7c8387613a2a565b819391549060031b91821b91600019901b19161790565b905501611c52565b600190602084519401938184015501611c44565b013590508f8f610b7b565b838352602083209290915087601f198116825b818110611d05575010611ceb575b505050600185811b019055611b1b565b0135600019600388901b60f8161c191690558c8c81611cdb565b936020925083958392946001920135815501940192018f92918991611ccd565b90508901358f611ab1565b5081815260208120908a601f198116825b8b828210611d7a57505010611d60575b5050600189811b019055611ac8565b88013560001960038c901b60f8161c191690558c80611d51565b84013585556001909401936020938401938e935001611d41565b90504210158a611a3c565b63ee39e85560e01b60005260046000fd5b60081c6001600160a01b03168015611e5457600354978815611e455750602060009160648a60405194859384926323b872dd60e01b845233600485015230602485015260448401525af190811561081b57600091611e26575b5015611e155789611a1f565b63501c2aaf60e01b60005260046000fd5b611e3f915060203d6020116108145761080a818361387c565b8a611e09565b63501c2aaf60e01b8152600490fd5b63e92eebef60e01b8852600488fd5b633b529a9760e11b60005260046000fd5b5033600052600460205260ff6040600020541615611a10565b346102d75760003660031901126102d757602060ff60005460a01c166040519015158152f35b346102d75760003660031901126102d75760ff600254166040516003821015610610576020918152f35b346102d75760203660031901126102d757611ef66137ed565b6000546001600160a01b031633036103645760207ffcedad5b627dd7e8aa295bc0afeb76597c18047112fa7d4ac4d131f0e250a3c2911515600c5460ff60a01b8260a01b169060ff60a01b191617600c55604051908152a1005b346102d75760203660031901126102d7576001600160a01b03611f71613768565b1660005260086020526020604060002054604051908152f35b346102d75760403660031901126102d757611fa3613768565b611fab6137fc565b9060018060a01b03600054163314158061201a575b610ff0576001600160a01b03169081156103535760207f97b4072981ad9b2269406ff8cc9d70c26afd27cea67b75e2573b8710a5e880c991836000526004825261194c8160406000209060ff801983541691151516179055565b5033600052600160205260ff6040600020541615611fc0565b346102d75760c03660031901126102d7576004356024356001600160401b0381116102d757612066903690600401613794565b6044929192356001600160401b0381116102d757612088903690600401613794565b6064949194356084356001600160401b0381116102d7576120ad90369060040161398f565b9290966120b86137d7565b9760ff60005460a01c166104d6576000888152600760205260409020546001600160a01b0316801561063757330361062657876000526007602052604060002060ff600482015416600681101561061057600103610d735760058611611d9f576001600160401b038a1680151590816123ee575b506104d657600181016001600160401b038911610c995761215189611a90835461380b565b600089601f811160011461238a578061217f9260009161237f57508160011b916000199060031b1c19161790565b90555b60028101906001600160401b038511610c99576121a9856121a3845461380b565b84613a87565b60009185601f811160011461231757806121db9160079560009161230c57508160011b916000199060031b1c19161790565b90555b85600382015561220c8b600683016001600160401b03804216166001600160401b0319825416178155613acc565b0194855460008755806122e5575b508061225e575b50509161225993917ff9cdeb830204e1e6135fb07822aaac23761d75003d5dde41bcb94fa818c1b52197989360405197889788613c11565b0390a2005b61226781613b95565b8051906001600160401b038211610c9957602090612285838a613b3b565b0187600052602060002060005b8381106122d1575050505060005b8181106122ad5750612221565b806122bb6001928486613bc7565b356122c9611c7c838b613a2a565b9055016122a0565b600190602084519401938184015501612292565b866000526020600020908101905b818110612300575061221a565b600081556001016122f3565b90508701358f611ab1565b50808352602083208387601f1981165b808710612361576007965010612347575b5050600186811b0190556121de565b860135600019600389901b60f8161c191690558c80612338565b88830135845560209687019660019094019390920191899150612327565b90508a01358e611ab1565b5081815260208120908a601f198116825b8c8282106123d4575050106123ba575b5050600189811b019055612182565b89013560001960038c901b60f8161c191690558b806123ab565b84013585556001909401936020938401938e93500161239b565b90504210158b61212c565b346102d75760203660031901126102d757612412613768565b6000546001600160a01b0316330361036457600c80546001600160a01b0319166001600160a01b039290921691821790557ff51d0449bf7d477688401ef33c6c6e576ec0a95e4e9337a86904163bb41c2673600080a2005b346102d75760203660031901126102d757600061016060405161248c81613845565b828152826020820152826040820152606080820152606060808201528260a08201528260c08201528260e082015282610100820152826101208201528261014082015201526004356000526010602052604060002060018060a01b0360018201541690811561076a576040519061250282613845565b805482526020820192835260028101546001600160a01b03166040830190815261252e6003830161389d565b60608401908152906125426004840161389d565b916080850192835260058401549360a08601948552600601549260c086016001600160401b038516815260e08701908560401c6001600160401b031682526101008801928660801c6001600160401b031684526101208901948760c01c60ff16151586526101408a01968860c81c60ff16151588526101608b019860d01c60ff16151589526040519b8c9b60208d525160208d0152600160a01b6001900390511660408c0152600160a01b6001900390511660608b01525160808a0161018090526101a08a0161261191613941565b9051898203601f190160a08b01526126299190613941565b965160c0890152516001600160401b031660e0880152516001600160401b0316610100870152516001600160401b03166101208601525115156101408501525115156101608401525115156101808301520390f35b346102d75760203660031901126102d7576001600160a01b0361269f613768565b166000526001602052602060ff604060002054166040519015158152f35b346102d75760003660031901126102d757602060ff600554166040519015158152f35b346102d75760003660031901126102d75760025460405160089190911c6001600160a01b03168152602090f35b346102d75760203660031901126102d757600435600081815260076020526040902080546001600160a01b03161561063757600481019060ff825416600681101561061057600103610d73576006016001600160401b03815460401c1680159081156127d5575b50610d57576001600160401b036020917fe77a20b7941129acbb78a11f4d13c89ec2c9d5d36d21f0f7083e304c3e4338c993600560ff19825416179055818042161682198254161781556127c785613ecc565b5460401c16604051908152a2005b9050421084612774565b346102d75760003660031901126102d7576020600954604051908152f35b346102d75760603660031901126102d75760043561281961377e565b906044356001600160a01b03811691908290036102d75760ff60005460a01c166104d65733600052600160205260ff6040600020541615610ff0576001600b54036104c5576002600b556001600160a01b0383169283158015612a1b575b61035357600082815260076020526040902080549091906001600160a01b03161561063757600482019160ff835416600681101561061057600103612a0a57600084815260106020526040902060018101546001600160a01b0316156129a85760028101546001600160a01b03168703610d17576006015460c01c60ff161561076a577f18d75305648a74597b581f82d18a431cb8a7ddbf7a7131ceb3e9e5343ed77089926020925b8154610100600160a81b03191660089190911b610100600160a81b03161781556005820180546001600160a01b03191687179055805460ff1916600217905560068101805467ffffffffffffffff1916426001600160401b031617905561298684613ecc565b61298f81613f8e565b546040519485526001600160a01b031693a46001600b55005b509060ff600c5460a01c166129e3575b907f18d75305648a74597b581f82d18a431cb8a7ddbf7a7131ceb3e9e5343ed7708992602092612920565b9083600052600e602052604060002086600052602052604060002054156104b457906129b8565b635e78c1e560e01b60005260046000fd5b508215612877565b346102d75760003660031901126102d757602060ff600c5460a01c166040519015158152f35b346102d75760003660031901126102d757600c546040516001600160a01b039091168152602090f35b346102d75760203660031901126102d75760043560ff60005460a01c166104d657600081815260106020526040902060018101546001600160a01b0316801561076a57330361062657600601805460ff8160c01c168015612b58575b8015612b4b575b61072e5760ff60d01b1916600160d01b179055600081815260076020526040812060048101805460ff19166003179055600601805467ffffffffffffffff1916426001600160401b03161790553391907ffb8711a5137bf47cb38ba3154d9eecef4b4228afa89e3c863ae877901c1d7dce9080a3005b5060ff8160d01c16612ad5565b5060ff8160c81c16612ace565b346102d75760003660031901126102d7576020600354604051908152f35b346102d75760203660031901126102d75760043560ff60005460a01c166104d6576000818152600760205260409020546001600160a01b03168015610637573303610626576001600b54036104c5576002600b5580600052600760205260406000206004810160ff815416600681101561061057600103610d7357805460ff1916600317905560068101805467ffffffffffffffff1916426001600160401b0316179055612c3082613ecc565b612c3981613f8e565b546001600160a01b0316907ff1ab0865975dad5c69ae8e4baaf13114c875728afa7cc86368534c22a631d0b0600080a36001600b55005b346102d75760203660031901126102d757600435600090815260076020526040902080546001600160a01b0316612ca96001830161389d565b91612cb66002820161389d565b6001600160401b03600383015492816004820154600583015490612cfc60086006860154950154966110ad6040519b8c9b8c5261016060208d01526101608c0190613941565b966060890152612d126080890160ff8316613982565b60081c6001600160a01b0390811660a08981019190915290821660c08901521c1660e086015280821661010086015260401c166101208401526101408301520390f35b346102d75760203660031901126102d757612d6e6137ed565b600054906001600160a01b0382163303610364577f40db37ff5c0bdc2c427fbb2078c8f24afea940abac0e3c23bb4ea3bf2da2b2129160209115159060ff60a01b8260a01b169060ff60a01b191617600055604051908152a1005b346102d75760c03660031901126102d757612de2613768565b6024356001600160401b0381116102d757612e01903690600401613794565b6044356001600160401b0381116102d757612e20903690600401613794565b919092612e2b6137c1565b94612e346137d7565b9160ff60005460a01c166104d6576001600b54036104c5576002600b556001600160a01b0382161561035357606435156134e6576001600160401b0383161515806134d3575b6104d657600c546001600160a01b031680613467575b5060025460081c6001600160a01b0316806133e0575b5060065494612eb486613a61565b600655600086815260076020526040902080546001600160a01b0319163317815597600189016001600160401b038711610c9957612ef687611a90835461380b565b600087601f811160011461337d5780612f249260009161337257508160011b916000199060031b1c19161790565b90555b6001600160401b038211610c995788612f5283612f49600260209d015461380b565b60028401613a87565b858360008b601f83116001146132f85782600693612fed9693612f8b936000926132ed5750508160011b916000199060031b1c19161790565b60028201555b606435600382015560048101805460ff1916905560058101805467ffffffffffffffff60a01b19164260a01b67ffffffffffffffff60a01b1617905501805467ffffffffffffffff1916426001600160401b0316178155613acc565b600087815260108a52604081208881556001810180546001600160a01b031990811633179091556002820180549091166001600160a01b03881617905560038101549193909161304b9089906130429061380b565b60038501613a87565b8399601f891160011461327f5761307e89808c9d889d9a9b9c9d9161327457508160011b916000199060031b1c19161790565b60038401555b61309e82613095600486015461380b565b60048601613a87565b8490601f83116001146131c95785613192956001600160401b0360068b9c9a9761310888613180997fd6ac994b68de9eb3fb03c0acdd73d49612427f02a32430cb5f555bb42baf3c4d9f99604099879f926131be5750508160011b916000199060031b1c19161790565b60048201555b6064356005820155019116881982541617815561312d88421682613acc565b80548860801b8d60801b16908960801b191617905533815260088e5261315583838320613af4565b6001600160a01b038816815260118e52818120613173908490613af4565b33815260128e5220613af4565b60405197606089526060890191613b1a565b606435878a0152941660408601526001600160a01b031693339381900390a46001600b55604051908152f35b013590503880610b7b565b6004849998990186528c862091865b601f198516811061325a575095613192956001600160401b0360067fd6ac994b68de9eb3fb03c0acdd73d49612427f02a32430cb5f555bb42baf3c4d9b9a976001888f98604098869e6131809c601f19811610613240575b505050811b01600482015561310e565b0135600019600384901b60f8161c19169055388080613230565b8183013584558d9a50600190930192908e01908e016131d8565b90508801358f611ab1565b6003830185528b8520859b5b601f198b168d106132d6578b9c508a601f9c999a9b9c198116106132bc575b505060018a811b016003840155613084565b87013560001960038d901b60f8161c191690558c806132aa565b908d60018192848b013581550192019c019b61328b565b01359050388f610b7b565b509290506002810183528b83208b845b601f198816811061335657509060069291612fed9588601f1981161061333c575b505050600186811b016002820155612f91565b0135600019600389901b60f8161c191690558d8c81613329565b908501358255938d01938993506001909101908c908e01613308565b90508601358d611ab1565b50818152602081209088601f198116825b8181106133c55750106133ab575b5050600187811b019055612f27565b85013560001960038a901b60f8161c191690558a8061339c565b8884013585556001909401936020938401938c93500161338e565b604051636eb1769f60e11b815233600482015230602482015290602090829060449082905afa90811561081b57600091613435575b50606435116134245787612ea6565b6313be252b60e01b60005260046000fd5b90506020813d60201161345f575b816134506020938361387c565b810103126102d7575188613415565b3d9150613443565b604051630f5664e760e31b81526001600160a01b038416600482015290602090829060249082905afa90811561081b576000916134b4575b506001600160a01b031615610d175787612e90565b6134cd915060203d602011610d5057610d42818361387c565b8861349f565b50426001600160401b0384161115612e7a565b6365e52d5160e11b60005260046000fd5b346102d75760203660031901126102d7576004359060ff60005460a01c166104d6576001600b54036104c5576002600b55600082815260106020526040902060018101546001600160a01b0316801561076a5760028201546001600160a01b0316330361075957600682019283549260ff8460c01c16801561375b575b801561374e575b61072e576001600160401b038460801c168015159081613744575b506137335760025460081c6001600160a01b03169283613633575b5050505060ff60c01b1916600160c01b179055600081815260076020908152604080832060048101805460ff19166001179055600601805467ffffffffffffffff1916426001600160401b0316179055519182523392917f60bcf2631b8cd90b44e22ec240672853133a97befb77c37c5177ddb28ae27cac9190a36001600b55005b6370a0823160e01b835260048301819052602083602481875afa92831561081b576000936136fe575b50604051636eb1769f60e11b81526001600160a01b039190911660048201523060248201529192602090839060449082905afa91821561081b576000926136c9575b50600501548092106136b8571061342457838080806135b1565b631e9acf1760e31b60005260046000fd5b9091506020813d6020116136f6575b816136e56020938361387c565b810103126102d7575190600561369e565b3d91506136d8565b9092506020813d60201161372b575b8161371a6020938361387c565b810103126102d7575191602061365c565b3d915061370d565b639cb1308760e01b60005260046000fd5b9050421187613596565b5060ff8460d01c1661357b565b5060ff8460c81c16613574565b600435906001600160a01b03821682036102d757565b602435906001600160a01b03821682036102d757565b9181601f840112156102d7578235916001600160401b0383116102d757602083818601950101116102d757565b608435906001600160401b03821682036102d757565b60a435906001600160401b03821682036102d757565b6004359081151582036102d757565b6024359081151582036102d757565b90600182811c9216801561383b575b602083101461382557565b634e487b7160e01b600052602260045260246000fd5b91607f169161381a565b61018081019081106001600160401b03821117610c9957604052565b60a081019081106001600160401b03821117610c9957604052565b90601f801991011681019081106001600160401b03821117610c9957604052565b90604051918260008254926138b18461380b565b808452936001811690811561391f57506001146138d8575b506138d69250038361387c565b565b90506000929192526020600020906000915b8183106139035750509060206138d692820101386138c9565b60209193508060019154838589010152019101909184926138ea565b9050602092506138d694915060ff191682840152151560051b820101386138c9565b919082519283825260005b84811061396d575050826000602080949584010152601f8019910116010190565b8060208092840101518282860101520161394c565b9060068210156106105752565b9181601f840112156102d7578235916001600160401b0383116102d7576020808501948460051b0101116102d757565b602060408183019282815284518094520192019060005b8181106139e35750505090565b82518452602093840193909201916001016139d6565b600954811015613a1457600960005260206000200190600090565b634e487b7160e01b600052603260045260246000fd5b8054821015613a145760005260206000200190600090565b908160209103126102d757516001600160a01b03811681036102d75790565b600019811461049e5760010190565b818110613a7b575050565b60008155600101613a70565b9190601f8111613a9657505050565b6138d6926000526020600020906020601f840160051c83019310613ac2575b601f0160051c0190613a70565b9091508190613ab5565b9067ffffffffffffffff60401b82549160401b169067ffffffffffffffff60401b1916179055565b805490600160401b821015610c995781611c7c916001613b1694018155613a2a565b9055565b908060209392818452848401376000828201840152601f01601f1916010190565b90600160401b8111610c9957815491818155828210613b5957505050565b600052602060002091820191015b818110613b72575050565b60008155600101613b67565b6001600160401b038111610c995760051b60200190565b90613b9f82613b7e565b613bac604051918261387c565b8281528092613bbd601f1991613b7e565b0190602036910137565b9190811015613a145760051b0190565b906020825491828152019160005260206000209060005b818110613bfb5750505090565b8254845260209093019260019283019201613bee565b9590613c5d936001600160401b0395613c3c613c4a93608099969c9b9c60a08c5260a08c0191613b1a565b9189830360208b0152613b1a565b9160408701528582036060870152613bd7565b9416910152565b908160209103126102d7575180151581036102d75790565b9190820180921161049e57565b9190820391821161049e57565b8051821015613a145760209160051b010190565b6001600160a01b031660008181526008602052604090205490939281831015613d4a57613ceb91613cdc849283613c7c565b90808211613d42575b50613c89565b90613cf582613b95565b9360005b838110613d065750505050565b600190826000526008602052613d2a6040600020613d248387613c7c565b90613a2a565b90549060031b1c613d3b8289613c96565b5201613cf9565b905038613ce5565b5050509050604051613d5d60208261387c565b60008152600036813790565b8054821015613a145760005260206000209060021b0190600090565b92909192600052600d60205260406000209283549081841015613e1d57613db191613cdc859283613c7c565b613dba81613b95565b93613dc482613b95565b9360005b838110613dd55750505050565b806001600160401b03613df3613ded60019486613c7c565b86613d69565b5054838060a01b038116613e07848c613c96565b5260a01c16613e168289613c96565b5201613dc8565b5050915050602090604051613e32838261387c565b60008152600036813760405192613e49818561387c565b600084525060003681379190565b91906009549081841015613eba57613e7491613cdc859283613c7c565b613e7d81613b95565b9260005b828110613e8d57505050565b80613ea2613e9d60019385613c7c565b6139f9565b90549060031b1c613eb38288613c96565b5201613e81565b50509050604051613d5d60208261387c565b80600052600a602052604060002054908115613f8a5760001982019180831161049e5760095460001981019390841161049e57613f08846139f9565b90549060031b1c906000948103613f67575b5050506009548015613f535760001901613f33816139f9565b8154906000199060031b1b191690556009558152600a6020526040812055565b634e487b7160e01b83526031600452602483fd5b613f74611c7c83926139f9565b90558352600a6020526040832055388080613f1a565b5050565b600881018054801561400857600091829055600254925460405163a9059cbb60e01b81526001600160a01b03918216600482015260248101929092529092602092849260449284929160089190911c165af1801561081b57613fed5750565b6140059060203d6020116108145761080a818361387c565b50565b505050565b80600052600a60205260406000205461400557600954600160401b811015610c9957614045611c7c8260018594016009556009613a2a565b905560095490600052600a60205260406000205556fea264697066735822122035058bc0f068cbd0bf91dc82617d380930561f45d0eac39c51c98b19d8f7b2d564736f6c634300081c0033",
  "linkReferences": {},
  "deployedLinkReferences": {}
}