{
  "_format": "hh-sol-artifact-1",
  "contractName": "JobBoard",
  "sourceName": "contracts/JobBoard.sol",
  "abi": [
    {
      "inputs": [
        {
          "internalType": "address",
          "name": "_owner",
          "type": "address"
        }
      ],
      "stateMutability": "nonpayable",
      "type": "constructor"
    },
    {
      "inputs": [],
      "name": "AlreadyApplied",
      "type": "error"
    },
    {
      "inputs": [],
      "name": "AlreadyHiredOrClosed",
      "type": "error"
    },
    {
      "inputs": [],
      "name": "ApplicationNotFound",
      "type": "error"
    },
    {
      "inputs": [],
      "name": "InvalidStatus",
      "type": "error"
    },
    {
      "inputs": [],
      "name": "JobNotFound",
      "type": "error"
    },
    {
      "inputs": [],
      "name": "KYCGated",
      "type": "error"
    },
    {
      "inputs": [],
      "name": "NotAllowedFactory",
      "type": "error"
    },
    {
      "inputs": [],
      "name": "NotClient",
      "type": "error"
    },
    {
      "inputs": [],
      "name": "NotExpired",
      "type": "error"
    },
    {
      "inputs": [],
      "name": "NotFreelancer",
      "type": "error"
    },
    {
      "inputs": [],
      "name": "NotOpen",
      "type": "error"
    },
    {
      "inputs": [],
      "name": "NotOwner",
      "type": "error"
    },
    {
      "inputs": [],
      "name": "NotReopenable",
      "type": "error"
    },
    {
      "inputs": [],
      "name": "Reentrancy",
      "type": "error"
    },
    {
      "inputs": [],
      "name": "TooManyTags",
      "type": "error"
    },
    {
      "inputs": [],
      "name": "USDCNotSet",
      "type": "error"
    },
    {
      "inputs": [],
      "name": "WrongBond",
      "type": "error"
    },
    {
      "inputs": [],
      "name": "ZeroAddress",
      "type": "error"
    },
    {
      "anonymous": false,
      "inputs": [
        {
          "indexed": false,
          "internalType": "uint8",
          "name": "mode",
          "type": "uint8"
        },
        {
          "indexed": false,
          "internalType": "uint256",
          "name": "postingBondUSDC",
          "type": "uint256"
        }
      ],
      "name": "AntiSpamModeSet",
      "type": "event"
    },
    {
      "anonymous": false,
      "inputs": [
        {
          "indexed": true,
          "internalType": "address",
          "name": "factory",
          "type": "address"
        },
        {
          "indexed": false,
          "internalType": "bool",
          "name": "allowed",
          "type": "bool"
        }
      ],
      "name": "FactoryAllowed",
      "type": "event"
    },
    {
      "anonymous": false,
      "inputs": [
        {
          "indexed": true,
          "internalType": "address",
          "name": "factory",
          "type": "address"
        }
      ],
      "name": "FreelancerFactorySet",
      "type": "event"
    },
    {
      "anonymous": false,
      "inputs": [
        {
          "indexed": false,
          "internalType": "bool",
          "name": "enabled",
          "type": "bool"
        }
      ],
      "name": "GasSponsorshipSet",
      "type": "event"
    },
    {
      "anonymous": false,
      "inputs": [
        {
          "indexed": true,
          "internalType": "uint256",
          "name": "jobId",
          "type": "uint256"
        },
        {
          "indexed": true,
          "internalType": "address",
          "name": "freelancer",
          "type": "address"
        }
      ],
      "name": "JobApplicationWithdrawn",
      "type": "event"
    },
    {
      "anonymous": false,
      "inputs": [
        {
          "indexed": true,
          "internalType": "uint256",
          "name": "jobId",
          "type": "uint256"
        },
        {
          "indexed": true,
          "internalType": "address",
          "name": "freelancer",
          "type": "address"
        },
        {
          "indexed": false,
          "internalType": "uint64",
          "name": "appliedAt",
          "type": "uint64"
        }
      ],
      "name": "JobApplied",
      "type": "event"
    },
    {
      "anonymous": false,
      "inputs": [
        {
          "indexed": true,
          "internalType": "uint256",
          "name": "jobId",
          "type": "uint256"
        },
        {
          "indexed": true,
          "internalType": "address",
          "name": "client",
          "type": "address"
        }
      ],
      "name": "JobCancelled",
      "type": "event"
    },
    {
      "anonymous": false,
      "inputs": [
        {
          "indexed": true,
          "internalType": "uint256",
          "name": "jobId",
          "type": "uint256"
        },
        {
          "indexed": true,
          "internalType": "address",
          "name": "client",
          "type": "address"
        },
        {
          "indexed": true,
          "internalType": "address",
          "name": "freelancer",
          "type": "address"
        },
        {
          "indexed": false,
          "internalType": "address",
          "name": "escrow",
          "type": "address"
        }
      ],
      "name": "JobCompleted",
      "type": "event"
    },
    {
      "anonymous": false,
      "inputs": [
        {
          "indexed": true,
          "internalType": "uint256",
          "name": "jobId",
          "type": "uint256"
        },
        {
          "indexed": false,
          "internalType": "uint64",
          "name": "expiresAt",
          "type": "uint64"
        }
      ],
      "name": "JobExpiredClosed",
      "type": "event"
    },
    {
      "anonymous": false,
      "inputs": [
        {
          "indexed": true,
          "internalType": "uint256",
          "name": "jobId",
          "type": "uint256"
        },
        {
          "indexed": true,
          "internalType": "address",
          "name": "client",
          "type": "address"
        },
        {
          "indexed": true,
          "internalType": "address",
          "name": "freelancer",
          "type": "address"
        },
        {
          "indexed": false,
          "internalType": "address",
          "name": "escrow",
          "type": "address"
        }
      ],
      "name": "JobHired",
      "type": "event"
    },
    {
      "anonymous": false,
      "inputs": [
        {
          "indexed": true,
          "internalType": "uint256",
          "name": "jobId",
          "type": "uint256"
        },
        {
          "indexed": true,
          "internalType": "address",
          "name": "client",
          "type": "address"
        },
        {
          "indexed": false,
          "internalType": "string",
          "name": "title",
          "type": "string"
        },
        {
          "indexed": false,
          "internalType": "string",
          "name": "descriptionURI",
          "type": "string"
        },
        {
          "indexed": false,
          "internalType": "uint256",
          "name": "budgetUSDC",
          "type": "uint256"
        },
        {
          "indexed": false,
          "internalType": "bytes32[]",
          "name": "tags",
          "type": "bytes32[]"
        },
        {
          "indexed": false,
          "internalType": "uint64",
          "name": "expiresAt",
          "type": "uint64"
        }
      ],
      "name": "JobPosted",
      "type": "event"
    },
    {
      "anonymous": false,
      "inputs": [
        {
          "indexed": true,
          "internalType": "uint256",
          "name": "jobId",
          "type": "uint256"
        },
        {
          "indexed": false,
          "internalType": "uint64",
          "name": "newExpiresAt",
          "type": "uint64"
        }
      ],
      "name": "JobReopened",
      "type": "event"
    },
    {
      "anonymous": false,
      "inputs": [
        {
          "indexed": true,
          "internalType": "uint256",
          "name": "jobId",
          "type": "uint256"
        },
        {
          "indexed": false,
          "internalType": "string",
          "name": "title",
          "type": "string"
        },
        {
          "indexed": false,
          "internalType": "string",
          "name": "descriptionURI",
          "type": "string"
        },
        {
          "indexed": false,
          "internalType": "uint256",
          "name": "budgetUSDC",
          "type": "uint256"
        },
        {
          "indexed": false,
          "internalType": "bytes32[]",
          "name": "tags",
          "type": "bytes32[]"
        },
        {
          "indexed": false,
          "internalType": "uint64",
          "name": "expiresAt",
          "type": "uint64"
        }
      ],
      "name": "JobUpdated",
      "type": "event"
    },
    {
      "anonymous": false,
      "inputs": [
        {
          "indexed": true,
          "internalType": "address",
          "name": "user",
          "type": "address"
        },
        {
          "indexed": false,
          "internalType": "bool",
          "name": "isVerified",
          "type": "bool"
        }
      ],
      "name": "KYCSet",
      "type": "event"
    },
    {
      "anonymous": false,
      "inputs": [
        {
          "indexed": true,
          "internalType": "address",
          "name": "previousOwner",
          "type": "address"
        },
        {
          "indexed": true,
          "internalType": "address",
          "name": "newOwner",
          "type": "address"
        }
      ],
      "name": "OwnerChanged",
      "type": "event"
    },
    {
      "anonymous": false,
      "inputs": [
        {
          "indexed": false,
          "internalType": "bool",
          "name": "paused",
          "type": "bool"
        }
      ],
      "name": "PausedSet",
      "type": "event"
    },
    {
      "anonymous": false,
      "inputs": [
        {
          "indexed": false,
          "internalType": "bool",
          "name": "required",
          "type": "bool"
        }
      ],
      "name": "RequireApplicationToHireSet",
      "type": "event"
    },
    {
      "anonymous": false,
      "inputs": [
        {
          "indexed": true,
          "internalType": "address",
          "name": "usdc",
          "type": "address"
        }
      ],
      "name": "USDCSet",
      "type": "event"
    },
    {
      "inputs": [
        {
          "internalType": "address",
          "name": "",
          "type": "address"
        }
      ],
      "name": "allowedFactory",
      "outputs": [
        {
          "internalType": "bool",
          "name": "",
          "type": "bool"
        }
      ],
      "stateMutability": "view",
      "type": "function"
    },
    {
      "inputs": [],
      "name": "antiSpamMode",
      "outputs": [
        {
          "internalType": "enum JobBoard.AntiSpamMode",
          "name": "",
          "type": "uint8"
        }
      ],
      "stateMutability": "view",
      "type": "function"
    },
    {
      "inputs": [
        {
          "internalType": "uint256",
          "name": "jobId",
          "type": "uint256"
        }
      ],
      "name": "applyToJob",
      "outputs": [],
      "stateMutability": "nonpayable",
      "type": "function"
    },
    {
      "inputs": [
        {
          "internalType": "uint256",
          "name": "jobId",
          "type": "uint256"
        },
        {
          "internalType": "string",
          "name": "proposalURI",
          "type": "string"
        },
        {
          "internalType": "uint256",
          "name": "bidAmount",
          "type": "uint256"
        },
        {
          "internalType": "uint64",
          "name": "deliveryDays",
          "type": "uint64"
        }
      ],
      "name": "applyToJob",
      "outputs": [],
      "stateMutability": "nonpayable",
      "type": "function"
    },
    {
      "inputs": [
        {
          "internalType": "uint256",
          "name": "jobId",
          "type": "uint256"
        }
      ],
      "name": "cancelJob",
      "outputs": [],
      "stateMutability": "nonpayable",
      "type": "function"
    },
    {
      "inputs": [
        {
          "internalType": "uint256",
          "name": "jobId",
          "type": "uint256"
        }
      ],
      "name": "closeExpired",
      "outputs": [],
      "stateMutability": "nonpayable",
      "type": "function"
    },
    {
      "inputs": [],
      "name": "freelancerFactory",
      "outputs": [
        {
          "internalType": "contract IFreelancerFactory",
          "name": "",
          "type": "address"
        }
      ],
      "stateMutability": "view",
      "type": "function"
    },
    {
      "inputs": [],
      "name": "gasSponsorshipEnabled",
      "outputs": [
        {
          "internalType": "bool",
          "name": "",
          "type": "bool"
        }
      ],
      "stateMutability": "view",
      "type": "function"
    },
    {
      "inputs": [
        {
          "internalType": "uint256",
          "name": "jobId",
          "type": "uint256"
        }
      ],
      "name": "getApplicantCount",
      "outputs": [
        {
          "internalType": "uint256",
          "name": "",
          "type": "uint256"
        }
      ],
      "stateMutability": "view",
      "type": "function"
    },
    {
      "inputs": [
        {
          "internalType": "uint256",
          "name": "jobId",
          "type": "uint256"
        },
        {
          "internalType": "address",
          "name": "freelancer",
          "type": "address"
        }
      ],
      "name": "getApplicantDetails",
      "outputs": [
        {
          "internalType": "address",
          "name": "_freelancer",
          "type": "address"
        },
        {
          "internalType": "uint64",
          "name": "appliedAt",
          "type": "uint64"
        },
        {
          "internalType": "string",
          "name": "proposalURI",
          "type": "string"
        },
        {
          "internalType": "uint256",
          "name": "bidAmount",
          "type": "uint256"
        },
        {
          "internalType": "uint64",
          "name": "deliveryDays",
          "type": "uint64"
        }
      ],
      "stateMutability": "view",
      "type": "function"
    },
    {
      "inputs": [
        {
          "internalType": "uint256",
          "name": "jobId",
          "type": "uint256"
        },
        {
          "internalType": "uint256",
          "name": "offset",
          "type": "uint256"
        },
        {
          "internalType": "uint256",
          "name": "limit",
          "type": "uint256"
        }
      ],
      "name": "getApplicants",
      "outputs": [
        {
          "internalType": "address[]",
          "name": "freelancers",
          "type": "address[]"
        },
        {
          "internalType": "uint64[]",
          "name": "appliedAt",
          "type": "uint64[]"
        }
      ],
      "stateMutability": "view",
      "type": "function"
    },
    {
      "inputs": [
        {
          "internalType": "uint256",
          "name": "jobId",
          "type": "uint256"
        }
      ],
      "name": "getJob",
      "outputs": [
        {
          "internalType": "address",
          "name": "client",
          "type": "address"
        },
        {
          "internalType": "string",
          "name": "title",
          "type": "string"
        },
        {
          "internalType": "string",
          "name": "descriptionURI",
          "type": "string"
        },
        {
          "internalType": "uint256",
          "name": "budgetUSDC",
          "type": "uint256"
        },
        {
          "internalType": "enum JobBoard.JobStatus",
          "name": "status",
          "type": "uint8"
        },
        {
          "internalType": "address",
          "name": "hiredFreelancer",
          "type": "address"
        },
        {
          "internalType": "address",
          "name": "escrow",
          "type": "address"
        },
        {
          "internalType": "uint64",
          "name": "createdAt",
          "type": "uint64"
        },
        {
          "internalType": "uint64",
          "name": "updatedAt",
          "type": "uint64"
        },
        {
          "internalType": "uint64",
          "name": "expiresAt",
          "type": "uint64"
        },
        {
          "internalType": "bytes32[]",
          "name": "tags",
          "type": "bytes32[]"
        },
        {
          "internalType": "uint256",
          "name": "postingBond",
          "type": "uint256"
        }
      ],
      "stateMutability": "view",
      "type": "function"
    },
    {
      "inputs": [
        {
          "internalType": "address",
          "name": "freelancer",
          "type": "address"
        }
      ],
      "name": "getJobsAppliedBy",
      "outputs": [
        {
          "internalType": "uint256[]",
          "name": "",
          "type": "uint256[]"
        }
      ],
      "stateMutability": "view",
      "type": "function"
    },
    {
      "inputs": [
        {
          "internalType": "address",
          "name": "",
          "type": "address"
        }
      ],
      "name": "isKYC",
      "outputs": [
        {
          "internalType": "bool",
          "name": "",
          "type": "bool"
        }
      ],
      "stateMutability": "view",
      "type": "function"
    },
    {
      "inputs": [
        {
          "internalType": "uint256",
          "name": "",
          "type": "uint256"
        }
      ],
      "name": "jobs",
      "outputs": [
        {
          "internalType": "address",
          "name": "client",
          "type": "address"
        },
        {
          "internalType": "string",
          "name": "title",
          "type": "string"
        },
        {
          "internalType": "string",
          "name": "descriptionURI",
          "type": "string"
        },
        {
          "internalType": "uint256",
          "name": "budgetUSDC",
          "type": "uint256"
        },
        {
          "internalType": "enum JobBoard.JobStatus",
          "name": "status",
          "type": "uint8"
        },
        {
          "internalType": "address",
          "name": "hiredFreelancer",
          "type": "address"
        },
        {
          "internalType": "address",
          "name": "escrow",
          "type": "address"
        },
        {
          "internalType": "uint64",
          "name": "createdAt",
          "type": "uint64"
        },
        {
          "internalType": "uint64",
          "name": "updatedAt",
          "type": "uint64"
        },
        {
          "internalType": "uint64",
          "name": "expiresAt",
          "type": "uint64"
        },
        {
          "internalType": "uint256",
          "name": "postingBond",
          "type": "uint256"
        }
      ],
      "stateMutability": "view",
      "type": "function"
    },
    {
      "inputs": [
        {
          "internalType": "address",
          "name": "clientAddr",
          "type": "address"
        }
      ],
      "name": "jobsByClient",
      "outputs": [
        {
          "internalType": "uint256[]",
          "name": "",
          "type": "uint256[]"
        }
      ],
      "stateMutability": "view",
      "type": "function"
    },
    {
      "inputs": [
        {
          "internalType": "address",
          "name": "clientAddr",
          "type": "address"
        },
        {
          "internalType": "uint256",
          "name": "offset",
          "type": "uint256"
        },
        {
          "internalType": "uint256",
          "name": "limit",
          "type": "uint256"
        }
      ],
      "name": "jobsByClientPaginated",
      "outputs": [
        {
          "internalType": "uint256[]",
          "name": "out",
          "type": "uint256[]"
        }
      ],
      "stateMutability": "view",
      "type": "function"
    },
    {
      "inputs": [
        {
          "internalType": "address",
          "name": "",
          "type": "address"
        },
        {
          "internalType": "uint256",
          "name": "",
          "type": "uint256"
        }
      ],
      "name": "jobsOf",
      "outputs": [
        {
          "internalType": "uint256",
          "name": "",
          "type": "uint256"
        }
      ],
      "stateMutability": "view",
      "type": "function"
    },
    {
      "inputs": [
        {
          "internalType": "uint256",
          "name": "jobId",
          "type": "uint256"
        }
      ],
      "name": "markAsCompleted",
      "outputs": [],
      "stateMutability": "nonpayable",
      "type": "function"
    },
    {
      "inputs": [
        {
          "internalType": "uint256",
          "name": "jobId",
          "type": "uint256"
        },
        {
          "internalType": "address",
          "name": "freelancer",
          "type": "address"
        },
        {
          "internalType": "address",
          "name": "escrow",
          "type": "address"
        }
      ],
      "name": "markAsHired",
      "outputs": [],
      "stateMutability": "nonpayable",
      "type": "function"
    },
    {
      "inputs": [],
      "name": "nextJobId",
      "outputs": [
        {
          "internalType": "uint256",
          "name": "",
          "type": "uint256"
        }
      ],
      "stateMutability": "view",
      "type": "function"
    },
    {
      "inputs": [
        {
          "internalType": "uint256",
          "name": "offset",
          "type": "uint256"
        },
        {
          "internalType": "uint256",
          "name": "limit",
          "type": "uint256"
        }
      ],
      "name": "openJobs",
      "outputs": [
        {
          "internalType": "uint256[]",
          "name": "out",
          "type": "uint256[]"
        }
      ],
      "stateMutability": "view",
      "type": "function"
    },
    {
      "inputs": [],
      "name": "owner",
      "outputs": [
        {
          "internalType": "address",
          "name": "",
          "type": "address"
        }
      ],
      "stateMutability": "view",
      "type": "function"
    },
    {
      "inputs": [],
      "name": "paused",
      "outputs": [
        {
          "internalType": "bool",
          "name": "",
          "type": "bool"
        }
      ],
      "stateMutability": "view",
      "type": "function"
    },
    {
      "inputs": [
        {
          "internalType": "string",
          "name": "title",
          "type": "string"
        },
        {
          "internalType": "string",
          "name": "descriptionURI",
          "type": "string"
        },
        {
          "internalType": "uint256",
          "name": "budgetUSDC",
          "type": "uint256"
        },
        {
          "internalType": "bytes32[]",
          "name": "tags",
          "type": "bytes32[]"
        },
        {
          "internalType": "uint64",
          "name": "expiresAt",
          "type": "uint64"
        }
      ],
      "name": "postJob",
      "outputs": [
        {
          "internalType": "uint256",
          "name": "jobId",
          "type": "uint256"
        }
      ],
      "stateMutability": "nonpayable",
      "type": "function"
    },
    {
      "inputs": [],
      "name": "postingBondUSDC",
      "outputs": [
        {
          "internalType": "uint256",
          "name": "",
          "type": "uint256"
        }
      ],
      "stateMutability": "view",
      "type": "function"
    },
    {
      "inputs": [
        {
          "internalType": "uint256",
          "name": "jobId",
          "type": "uint256"
        },
        {
          "internalType": "uint64",
          "name": "newExpiresAt",
          "type": "uint64"
        }
      ],
      "name": "reopen",
      "outputs": [],
      "stateMutability": "nonpayable",
      "type": "function"
    },
    {
      "inputs": [],
      "name": "requireApplicationToHire",
      "outputs": [
        {
          "internalType": "bool",
          "name": "",
          "type": "bool"
        }
      ],
      "stateMutability": "view",
      "type": "function"
    },
    {
      "inputs": [
        {
          "internalType": "address",
          "name": "factory",
          "type": "address"
        },
        {
          "internalType": "bool",
          "name": "allowed",
          "type": "bool"
        }
      ],
      "name": "setAllowedFactory",
      "outputs": [],
      "stateMutability": "nonpayable",
      "type": "function"
    },
    {
      "inputs": [
        {
          "internalType": "uint8",
          "name": "mode",
          "type": "uint8"
        },
        {
          "internalType": "uint256",
          "name": "bondAmount",
          "type": "uint256"
        }
      ],
      "name": "setAntiSpamMode",
      "outputs": [],
      "stateMutability": "nonpayable",
      "type": "function"
    },
    {
      "inputs": [
        {
          "internalType": "address",
          "name": "factory_",
          "type": "address"
        }
      ],
      "name": "setFreelancerFactory",
      "outputs": [],
      "stateMutability": "nonpayable",
      "type": "function"
    },
    {
      "inputs": [
        {
          "internalType": "bool",
          "name": "enabled",
          "type": "bool"
        }
      ],
      "name": "setGasSponsorship",
      "outputs": [],
      "stateMutability": "nonpayable",
      "type": "function"
    },
    {
      "inputs": [
        {
          "internalType": "address",
          "name": "user",
          "type": "address"
        },
        {
          "internalType": "bool",
          "name": "verified",
          "type": "bool"
        }
      ],
      "name": "setKYC",
      "outputs": [],
      "stateMutability": "nonpayable",
      "type": "function"
    },
    {
      "inputs": [
        {
          "internalType": "bool",
          "name": "_paused",
          "type": "bool"
        }
      ],
      "name": "setPaused",
      "outputs": [],
      "stateMutability": "nonpayable",
      "type": "function"
    },
    {
      "inputs": [
        {
          "internalType": "bool",
          "name": "required",
          "type": "bool"
        }
      ],
      "name": "setRequireApplicationToHire",
      "outputs": [],
      "stateMutability": "nonpayable",
      "type": "function"
    },
    {
      "inputs": [
        {
          "internalType": "address",
          "name": "token",
          "type": "address"
        }
      ],
      "name": "setUSDC",
      "outputs": [],
      "stateMutability": "nonpayable",
      "type": "function"
    },
    {
      "inputs": [
        {
          "internalType": "address",
          "name": "",
          "type": "address"
        },
        {
          "internalType": "uint256",
          "name": "amount",
          "type": "uint256"
        }
      ],
      "name": "sweepERC20",
      "outputs": [],
      "stateMutability": "nonpayable",
      "type": "function"
    },
    {
      "inputs": [
        {
          "internalType": "address",
          "name": "clientAddr",
          "type": "address"
        }
      ],
      "name": "totalJobsOf",
      "outputs": [
        {
          "internalType": "uint256",
          "name": "",
          "type": "uint256"
        }
      ],
      "stateMutability": "view",
      "type": "function"
    },
    {
      "inputs": [],
      "name": "totalOpenJobs",
      "outputs": [
        {
          "internalType": "uint256",
          "name": "",
          "type": "uint256"
        }
      ],
      "stateMutability": "view",
      "type": "function"
    },
    {
      "inputs": [
        {
          "internalType": "address",
          "name": "_newOwner",
          "type": "address"
        }
      ],
      "name": "transferOwnership",
      "outputs": [],
      "stateMutability": "nonpayable",
      "type": "function"
    },
    {
      "inputs": [
        {
          "internalType": "uint256",
          "name": "jobId",
          "type": "uint256"
        },
        {
          "internalType": "string",
          "name": "title",
          "type": "string"
        },
        {
          "internalType": "string",
          "name": "descriptionURI",
          "type": "string"
        },
        {
          "internalType": "uint256",
          "name": "budgetUSDC",
          "type": "uint256"
        },
        {
          "internalType": "bytes32[]",
          "name": "tags",
          "type": "bytes32[]"
        },
        {
          "internalType": "uint64",
          "name": "expiresAt",
          "type": "uint64"
        }
      ],
      "name": "updateJob",
      "outputs": [],
      "stateMutability": "nonpayable",
      "type": "function"
    },
    {
      "inputs": [],
      "name": "usdc",
      "outputs": [
        {
          "internalType": "contract IUSDCMinimal",
          "name": "",
          "type": "address"
        }
      ],
      "stateMutability": "view",
      "type": "function"
    },
    {
      "inputs": [
        {
          "internalType": "uint256",
          "name": "jobId",
          "type": "uint256"
        }
      ],
      "name": "withdrawApplication",
      "outputs": [],
      "stateMutability": "nonpayable",
      "type": "function"
    }
  ],
  "bytecode": "0x60803460b457601f6130c538819003918201601f19168301916001600160401b0383118484101760b95780849260209460405283398101031260b457516001600160a01b0381169081900360b4576001600b55801560a357600080546001600160a01b03191682178155600160065560405191907fb532073b38c83145e3e5135377a08bf9aab55bc0fd7c1179cd4fb995d2a5159c8180a3612ff590816100d08239f35b63d92e233d60e01b60005260046000fd5b600080fd5b634e487b7160e01b600052604160045260246000fdfe608080604052600436101561001357600080fd5b60003560e01c90816316c38b3c1461270557508063180aedf3146126125780631dffa3dc146125255780631ec1de93146125075780632ce606e3146124de5780632edea1a0146124b8578063312090611461230657806331dc20ff146122e857806336ae41ca146122165780633e413bee146121e95780633e8a00c8146121c65780633f19599314612187578063455f16c5146121165780634f464cb014611d445780635123bacc14611c9b57806357147aca14611c61578063583e42a414611bee5780635a4434ba14611bc45780635c975abb14611b9e5780636c79bce71461165c57806372ffa84d146115c55780637c1ee3b51461153d5780637f8305e5146114d45780638da5cb5b146114ab5780638e1a32d0146111385780639944f518146110f9578063b0c2aa5e146110db578063b3e089a214611053578063beacece114611027578063bec7a01d14610fb0578063bf22c45714610e2a578063c0a6026c14610d2f578063c6b9caf414610c79578063cbff7df514610bad578063d2f57da414610754578063d566a41114610728578063d8acddb1146106cf578063dc74fde5146106ad578063e5d53c3b14610626578063e6d119991461057a578063ee64a6aa14610408578063f1d5314a146102965763f2fde38b146101f857600080fd5b3461029157602036600319011261029157610211612911565b600054906001600160a01b0382169033829003610280576001600160a01b031691821561026f576001600160a01b031916821760009081557fb532073b38c83145e3e5135377a08bf9aab55bc0fd7c1179cd4fb995d2a5159c9080a3005b63d92e233d60e01b60005260046000fd5b6330cd747160e01b60005260046000fd5b600080fd5b346102915760203660031901126102915760043560ff60005460a01c166103f7576001600b54036103e6576002600b556000818152600e6020908152604080832033845290915290205480156103d55760001981019081116103bf5761030b60039183600052600d6020526040600020612ccd565b5080546001600160e01b03191681556001810180546000919061032d90612793565b601f81116103a0575b505560006002820155016001600160401b0319815416905580600052600e602052604060002060018060a01b0333166000526020526000604081205533907f6917335efdeedc9e175d9104c30bd132f219f66cbb6c05631b4e7991ca798023600080a36001600b55005b818352602083206103b991601f0160051c810190612a07565b85610336565b634e487b7160e01b600052601160045260246000fd5b630bd94e9760e11b60005260046000fd5b63558a1e0360e11b60005260046000fd5b6307a92f1960e51b60005260046000fd5b34610291576040366003190112610291576004356024356001600160401b0381168082036102915760ff60005460a01c166103f7576000838152600760205260409020546001600160a01b0316801561056957330361055857826000526007602052604060002090600482019160ff83541660068110156105425760038114159081610536575b50610525578115158061051b575b6103f757825460ff191660011790925560069190910180546001600160801b031916426001600160401b03161760409390931b67ffffffffffffffff60401b16929092179091557f64e5fe93a1512528f7d137734ea381e242e5f5b078b993159fdb3c72ab8e9ef79060209061051284612f71565b604051908152a2005b504282111561049d565b633f2e0a8760e21b60005260046000fd5b6005915014158661048f565b634e487b7160e01b600052602160045260246000fd5b630836f21d60e21b60005260046000fd5b63c0a8563160e01b60005260046000fd5b3461029157604036600319011261029157610593612911565b506000546001600160a01b0316338190036102805760025460405163a9059cbb60e01b81526001600160a01b0392831660048201526024803590820152916020918391604491839160009160081c165af1801561061a576105f057005b6106119060203d602011610613575b61060981836127e8565b810190612ba2565b005b503d6105ff565b6040513d6000823e3d90fd5b34610291576020366003190112610291576001600160a01b03610647612911565b166000526008602052604060002060405190816020825491828152019160005260206000209060005b8181106106975761069385610687818703826127e8565b60405191829182612984565b0390f35b8254845260209093019260019283019201610670565b3461029157604036600319011261029157610693610687602435600435612dbb565b34610291576040366003190112610291576106e8612911565b6001600160a01b031660009081526008602052604090208054602435919082101561029157602091610719916129ef565b90549060031b1c604051908152f35b3461029157602036600319011261029157600435600052600d6020526020604060002054604051908152f35b34610291576080366003190112610291576004356024356001600160401b03811161029157610787903690600401612927565b600092919250606435906001600160401b0382168092036102915760ff60005460a01c166103f7576001600b54036103e6576002600b556001600160401b038111610aa857604051936107e4601f8301601f1916602001866127e8565b818552368282011161029157816000926020928388013785010152600082815260076020526040902080546001600160a01b0316156105695760ff600482015416600681101561054257600103610b9c576006015460401c6001600160401b03168015159081610b91575b50610b8057600c546001600160a01b031680610ae4575b506000828152600e60209081526040808320338452909152902054610ad4576001600160401b0342169282600052600d6020526040600020549183600052600d6020526040600020604051926108bb846127cd565b338452602084018781526040850191825260608501926044358452608086019485528054600160401b811015610aa8576108fa91600182018155612ccd565b959095610abe5751855491516001600160e01b03199092166001600160a01b03919091161760a09190911b67ffffffffffffffff60a01b1617845551805160018501916001600160401b038211610aa85761095f826109598554612793565b85612a1e565b602090601f8311600114610a33579261099f836001600160401b039794600397948997600092610a28575b50508160011b916000199060031b1c19161790565b90555b5160028601555116920191166001600160401b0319825416179055600181018091116103bf576000828152600e60209081526040808320338452825280832093909355600f9052206109f5908290612bba565b6040519182527fffce64a4a888e2eca6ed6b5e083b220b5f57250b9c0c7badb33012f1607a084760203393a36001600b55005b015190508d8061098a565b90601f1983169184600052816000209260005b818110610a90575093600396936001600160401b03989593600193838b999610610a78575b505050811b0190556109a2565b0151600019838a1b60f8161c191690558c8080610a6b565b92936020600181928786015181550195019301610a46565b634e487b7160e01b600052604160045260246000fd5b634e487b7160e01b600052600060045260246000fd5b62540c0360e11b60005260046000fd5b602060249160405192838092630f5664e760e31b82523360048301525afa90811561061a57600091610b37575b506001600160a01b031615610b265783610866565b633832386960e11b60005260046000fd5b6020813d602011610b78575b81610b50602093836127e8565b81010312610b745751906001600160a01b0382168203610b71575084610b11565b80fd5b5080fd5b3d9150610b43565b63d0404f8560e01b60005260046000fd5b90504210158461084f565b631bb5f5b360e31b60005260046000fd5b3461029157604036600319011261029157600435610bc96128fb565b81600052600e60205260406000209060018060a01b03166000526020526040600020549081156103d557600052600d602052604060002060001982019182116103bf576001600160401b0391610c1e91612ccd565b50805490600281015490610c6a610c3e6001866003850154169301612809565b604080516001600160a01b038716815260a096871c9097166020880152860185905285948501906128ad565b91606084015260808301520390f35b3461029157606036600319011261029157610c9b604435602435600435612ce9565b906040519182916040830160408452815180915260206060850192019060005b818110610d0d5750505082810360208401526020808351928381520192019060005b818110610ceb575050500390f35b82516001600160401b0316845285945060209384019390920191600101610cdd565b82516001600160a01b0316845286955060209384019390920191600101610cbb565b346102915760203660031901126102915760043560ff60005460a01c166103f75733600052600160205260ff6040600020541615610e1957600081815260076020526040902080549091906001600160a01b03161561056957600482019060ff8254166006811015610542576002036103f757815460ff1916600417825560068301805467ffffffffffffffff1916426001600160401b0316179055825491546005909301546040516001600160a01b03918216815260089490941c8116939216917f074fd40586a68e670c4541fb4b871f9b85af2929dbe255702e111e588ff4b2a890602090a4005b6309270ebd60e11b60005260046000fd5b3461029157602036600319011261029157600435600090815260076020526040902080546001600160a01b0316801561056957600382015491600481015460058201549160068101546007820193600883015493610e966002610e8f60018701612809565b9501612809565b604051948560208954918281520190819960005260206000209060005b818110610f9a5750505092610f066001600160401b03959293610ef88795610ee18b60209c9b99038b6127e8565b6101806040519e8f908152818d82015201906128ad565b8c810360408e0152906128ad565b9a60608b0152610f1c60808b0160ff83166128ee565b60081c6001600160a01b0390811660a08b81019190915290821660c08b01521c1660e088015280821661010088015260401c16610120860152848603610140860152518086526000959190910192905b808610610f825750508293506101608301520390f35b90926020806001928651815201940195019490610f6c565b8254845260209093019260019283019201610eb3565b34610291576020366003190112610291576001600160a01b03610fd1612911565b16600052600f602052604060002060405190816020825491828152019160005260206000209060005b8181106110115761069385610687818703826127e8565b8254845260209093019260019283019201610ffa565b3461029157606036600319011261029157610693610687611046612911565b6044359060243590612c0e565b346102915760203660031901126102915761106c612911565b6000546001600160a01b03163303610280576001600160a01b03811690811561026f5760028054610100600160a81b03191660089290921b610100600160a81b03169190911790557f4a13891118f8dba1996f8eac118f83bb98e645807a9b9cecf6bc6d014048e7e3600080a2005b34610291576000366003190112610291576020600654604051908152f35b34610291576020366003190112610291576001600160a01b0361111a612911565b166000526004602052602060ff604060002054166040519015158152f35b346102915760203660031901126102915760043560ff60005460a01c166103f7576001600b54036103e6576002600b5560209060405161117883826127e8565b6000808252828152600784526040902080546001600160a01b0316156105695760ff600482015416600681101561054257600103610b9c576006015460401c6001600160401b031680151590816114a0575b50610b8057600c546001600160a01b03168381611421575b50506000828152600e845260408082203383528552902054610ad4576001600160401b0342169282600052600d81526040600020549183600052600d8252604060002060405191611232836127cd565b33835283830190878252604084019081526060840191600083526080850193600085528054600160401b811015610aa85761127291600182018155612ccd565b959095610abe5751855491516001600160e01b03199092166001600160a01b03919091161760a09190911b67ffffffffffffffff60a01b1617845551805160018501916001600160401b038211610aa8576112d1826109598554612793565b8690601f83116001146113ac579261130f836001600160401b0397946003979489976000926113a15750508160011b916000199060031b1c19161790565b90555b5160028601555116920191166001600160401b0319825416179055600182018092116103bf577fffce64a4a888e2eca6ed6b5e083b220b5f57250b9c0c7badb33012f1607a08479183600052600e8252604060002060018060a01b033316600052825260406000205533600052600f8152611391836040600020612bba565b6040519384523393a36001600b55005b015190508e8061098a565b90601f1983169184600052886000209260005b8a82821061140b57505093600396936001600160401b03989593600193838b9996106113f3575b505050811b019055611312565b0151600019838a1b60f8161c191690558d80806113e6565b60018596829396860151815501950193016113bf565b604051630f5664e760e31b815233600482015291829060249082905afa90811561061a57600091611463575b506001600160a01b031615610b265783836111e2565b8481813d8311611499575b61147881836127e8565b81010312610b745751906001600160a01b0382168203610b7157508461144d565b503d61146e565b9050421015846111ca565b34610291576000366003190112610291576000546040516001600160a01b039091168152602090f35b34610291576020366003190112610291576114ed612775565b6000546001600160a01b031633036102805760207fe45eebf975e8498157f15e4245144789293d518243944ce72e49418a0cfa598391151560ff196005541660ff821617600555604051908152a1005b346102915760403660031901126102915760043560ff811680910361029157600054602435906001600160a01b0316330361028057600282116103f7576003821015610542577f7d63308b92fa01d1151ab58553671d1b5ade1d78731eb1b099f55ac41ea2464e916040918160ff1960025416176002558060035582519182526020820152a1005b34610291576040366003190112610291576115de612911565b6115e6612784565b6000549091906001600160a01b03163303610280576001600160a01b031690811561026f5760207f24c9a6b477fff74db04905dbc966242385b5b163a4abd979698a56ea761371db9183600052600182526116518160406000209060ff801983541691151516179055565b6040519015158152a2005b346102915760a0366003190112610291576004356001600160401b0381116102915761168c903690600401612927565b906024356001600160401b038111610291576116ac903690600401612927565b9092604435916064356001600160401b038111610291576116d1903690600401612954565b949093608435926001600160401b038416958685036102915760ff60005460a01c166103f7576001600b54036103e6576002600b556002549660ff8816976003891015610542576002891480611b85575b611b7457600160009914611ac1575b5060058911611ab0578015159081611aa5575b506103f7576006549760001989146103bf57600189810160065560008a815260076020526040902080546001600160a01b03191633178155989089016001600160401b038911610aa8576117a28961179c8354612793565b83612a1e565b600089601f8111600114611a4157806117d192600091611a36575b508160011b916000199060031b1c19161790565b90555b600289016001600160401b038511610aa8576117f48561179c8354612793565b6000858d601f82116001146119cb5761182492600091836119c05750508160011b916000199060031b1c19161790565b90555b6003890185905560048901805460ff1916600117905560058901805467ffffffffffffffff60a01b19164260a081901b67ffffffffffffffff60a01b169190911790915560068a01805467ffffffffffffffff60401b60408b901b166001600160401b039093166001600160801b03199091161791909117905560088901558061191c575b50507f1e340188ef02ed93224295b9e0a03660720f89cfd12522e974a49b530e346e03936020989388969361190c933360005260088c526118f1896040600020612bba565b6118fa89612f71565b6040519687966007339c019488612b20565b0390a36001600b55604051908152f35b61192581612abd565b805160078a0192916001600160401b038211610aa8576020906119488386612a63565b0183600052602060002060005b8381106119ac575050505060005b8181106119715750506118ac565b8061197f6001928487612aef565b356119a461198d83876129ef565b819391549060031b91821b91600019901b19161790565b905501611963565b600190602084519401938184015501611955565b013590508f8f61098a565b838352602083209290915087601f198116825b818110611a165750106119fc575b505050600185811b019055611827565b0135600019600388901b60f8161c191690558c8c816119ec565b936020925083958392946001920135815501940192018f929189916119de565b90508901358f6117bd565b5081815260208120908a601f198116825b8b828210611a8b57505010611a71575b5050600189811b0190556117d4565b88013560001960038c901b60f8161c191690558c80611a62565b84013585556001909401936020938401938e935001611a52565b90504210158a611744565b63ee39e85560e01b60005260046000fd5b60081c6001600160a01b03168015611b6557600354988915611b565750602060009160648b60405194859384926323b872dd60e01b845233600485015230602485015260448401525af190811561061a57600091611b37575b5015611b26578a611731565b63501c2aaf60e01b60005260046000fd5b611b50915060203d6020116106135761060981836127e8565b8b611b1a565b63501c2aaf60e01b8152600490fd5b63e92eebef60e01b8952600489fd5b633b529a9760e11b60005260046000fd5b5033600052600460205260ff6040600020541615611722565b3461029157600036600319011261029157602060ff60005460a01c166040519015158152f35b346102915760003660031901126102915760ff600254166040516003821015610542576020918152f35b3461029157602036600319011261029157611c07612775565b6000546001600160a01b031633036102805760207ffcedad5b627dd7e8aa295bc0afeb76597c18047112fa7d4ac4d131f0e250a3c2911515600c5460ff60a01b8260a01b169060ff60a01b191617600c55604051908152a1005b34610291576020366003190112610291576001600160a01b03611c82612911565b1660005260086020526020604060002054604051908152f35b3461029157604036600319011261029157611cb4612911565b611cbc612784565b9060018060a01b036000541633141580611d2b575b610e19576001600160a01b031690811561026f5760207f97b4072981ad9b2269406ff8cc9d70c26afd27cea67b75e2573b8710a5e880c99183600052600482526116518160406000209060ff801983541691151516179055565b5033600052600160205260ff6040600020541615611cd1565b346102915760c0366003190112610291576004356024356001600160401b03811161029157611d77903690600401612927565b6044929192356001600160401b03811161029157611d99903690600401612927565b6064949194356084356001600160401b03811161029157611dbe903690600401612954565b92909660a435976001600160401b038916808a036102915760ff60005460a01c166103f7576000898152600760205260409020546001600160a01b031680156105695733036105585788600052600760205260406000209060ff600483015416600681101561054257600103610b9c5760058711611ab057801515908161210b575b506103f757600181016001600160401b038911610aa857611e658961179c8354612793565b600089601f81116001146120a75780611e939260009161209c57508160011b916000199060031b1c19161790565b90555b60028101906001600160401b038511610aa857611ebd85611eb78454612793565b84612a1e565b60009185601f81116001146120345780611eef9160079560009161202957508160011b916000199060031b1c19161790565b90555b600381018690556006810180546001600160801b031916426001600160401b03161760408d901b67ffffffffffffffff60401b16179055019485546000875580612002575b5080611f7b575b505091611f7693917ff9cdeb830204e1e6135fb07822aaac23761d75003d5dde41bcb94fa818c1b52197989360405197889788612b20565b0390a2005b611f8481612abd565b8051906001600160401b038211610aa857602090611fa2838a612a63565b0187600052602060002060005b838110611fee575050505060005b818110611fca5750611f3e565b80611fd86001928486612aef565b35611fe661198d838b6129ef565b905501611fbd565b600190602084519401938184015501611faf565b866000526020600020908101905b81811061201d5750611f37565b60008155600101612010565b90508701358f6117bd565b50808352602083208387601f1981165b80871061207e576007965010612064575b5050600186811b019055611ef2565b860135600019600389901b60f8161c191690558c80612055565b88830135845560209687019660019094019390920191899150612044565b90508a01358e6117bd565b5081815260208120908a601f198116825b8c8282106120f1575050106120d7575b5050600189811b019055611e96565b89013560001960038c901b60f8161c191690558b806120c8565b84013585556001909401936020938401938e9350016120b8565b90504210158b611e40565b346102915760203660031901126102915761212f612911565b6000546001600160a01b0316330361028057600c80546001600160a01b0319166001600160a01b039290921691821790557ff51d0449bf7d477688401ef33c6c6e576ec0a95e4e9337a86904163bb41c2673600080a2005b34610291576020366003190112610291576001600160a01b036121a8612911565b166000526001602052602060ff604060002054166040519015158152f35b3461029157600036600319011261029157602060ff600554166040519015158152f35b346102915760003660031901126102915760025460405160089190911c6001600160a01b03168152602090f35b3461029157602036600319011261029157600435600081815260076020526040902080546001600160a01b03161561056957600481019060ff825416600681101561054257600103610b9c576006016001600160401b03815460401c1680159081156122de575b50610b80576001600160401b036020917fe77a20b7941129acbb78a11f4d13c89ec2c9d5d36d21f0f7083e304c3e4338c993600560ff19825416179055818042161682198254161781556122d085612e30565b5460401c16604051908152a2005b905042108461227d565b34610291576000366003190112610291576020600954604051908152f35b34610291576060366003190112610291576004356123226128fb565b906044356001600160a01b03811691908290036102915760ff60005460a01c166103f75733600052600160205260ff6040600020541615610e19576001600b54036103e6576002600b556001600160a01b03831692831580156124b0575b61026f57600082815260076020526040902080546001600160a01b03161561056957600481019160ff83541660068110156105425760010361249f5760ff600c5460a01c16612478575b8254610100600160a81b03191660089190911b610100600160a81b03161782556005810180546001600160a01b03191685179055815460ff191660021790915560068101805467ffffffffffffffff1916426001600160401b03161790557f18d75305648a74597b581f82d18a431cb8a7ddbf7a7131ceb3e9e5343ed770899060209061245684612e30565b61245f81612ef2565b546040519485526001600160a01b031693a46001600b55005b9083600052600e602052604060002086600052602052604060002054156103d557906123ca565b635e78c1e560e01b60005260046000fd5b508215612380565b3461029157600036600319011261029157602060ff600c5460a01c166040519015158152f35b3461029157600036600319011261029157600c546040516001600160a01b039091168152602090f35b34610291576000366003190112610291576020600354604051908152f35b346102915760203660031901126102915760043560ff60005460a01c166103f7576000818152600760205260409020546001600160a01b03168015610569573303610558576001600b54036103e6576002600b5580600052600760205260406000206004810160ff815416600681101561054257600103610b9c57805460ff1916600317905560068101805467ffffffffffffffff1916426001600160401b03161790556125d282612e30565b6125db81612ef2565b546001600160a01b0316907ff1ab0865975dad5c69ae8e4baaf13114c875728afa7cc86368534c22a631d0b0600080a36001600b55005b3461029157602036600319011261029157600435600090815260076020526040902080546001600160a01b031661264b60018301612809565b9161265860028201612809565b6001600160401b036003830154928160048201546005830154906126ac600860068601549501549661269e6040519b8c9b8c5261016060208d01526101608c01906128ad565b908a820360408c01526128ad565b9660608901526126c26080890160ff83166128ee565b60081c6001600160a01b0390811660a08981019190915290821660c08901521c1660e086015280821661010086015260401c166101208401526101408301520390f35b346102915760203660031901126102915761271e612775565b600054916001600160a01b0383163303610280577f40db37ff5c0bdc2c427fbb2078c8f24afea940abac0e3c23bb4ea3bf2da2b2129260209215159060ff60a01b8260a01b169060ff60a01b1916176000558152a1005b60043590811515820361029157565b60243590811515820361029157565b90600182811c921680156127c3575b60208310146127ad57565b634e487b7160e01b600052602260045260246000fd5b91607f16916127a2565b60a081019081106001600160401b03821117610aa857604052565b90601f801991011681019081106001600160401b03821117610aa857604052565b906040519182600082549261281d84612793565b808452936001811690811561288b5750600114612844575b50612842925003836127e8565b565b90506000929192526020600020906000915b81831061286f5750509060206128429282010138612835565b6020919350806001915483858901015201910190918492612856565b90506020925061284294915060ff191682840152151560051b82010138612835565b919082519283825260005b8481106128d9575050826000602080949584010152601f8019910116010190565b806020809284010151828286010152016128b8565b9060068210156105425752565b602435906001600160a01b038216820361029157565b600435906001600160a01b038216820361029157565b9181601f84011215610291578235916001600160401b038311610291576020838186019501011161029157565b9181601f84011215610291578235916001600160401b038311610291576020808501948460051b01011161029157565b602060408183019282815284518094520192019060005b8181106129a85750505090565b825184526020938401939092019160010161299b565b6009548110156129d957600960005260206000200190600090565b634e487b7160e01b600052603260045260246000fd5b80548210156129d95760005260206000200190600090565b818110612a12575050565b60008155600101612a07565b9190601f8111612a2d57505050565b612842926000526020600020906020601f840160051c83019310612a59575b601f0160051c0190612a07565b9091508190612a4c565b90600160401b8111610aa857815491818155828210612a8157505050565b600052602060002091820191015b818110612a9a575050565b60008155600101612a8f565b6001600160401b038111610aa85760051b60200190565b90612ac782612aa6565b612ad460405191826127e8565b8281528092612ae5601f1991612aa6565b0190602036910137565b91908110156129d95760051b0190565b908060209392818452848401376000828201840152601f01601f1916010190565b95949390612b3e90612b4c949399989960a0895260a0890191612aff565b918683036020880152612aff565b90604084015282810360608401526020825491828152019160005260206000209060005b818110612b8c575050506001600160401b036080919416910152565b8254845260209093019260019283019201612b70565b90816020910312610291575180151581036102915790565b805490600160401b821015610aa8578161198d916001612bdc940181556129ef565b9055565b919082018092116103bf57565b919082039182116103bf57565b80518210156129d95760209160051b010190565b6001600160a01b031660008181526008602052604090205490939281831015612cae57612c4f91612c40849283612be0565b90808211612ca6575b50612bed565b90612c5982612abd565b9360005b838110612c6a5750505050565b600190826000526008602052612c8e6040600020612c888387612be0565b906129ef565b90549060031b1c612c9f8289612bfa565b5201612c5d565b905038612c49565b5050509050604051612cc16020826127e8565b60008152600036813790565b80548210156129d95760005260206000209060021b0190600090565b92909192600052600d60205260406000209283549081841015612d8157612d1591612c40859283612be0565b612d1e81612abd565b93612d2882612abd565b9360005b838110612d395750505050565b806001600160401b03612d57612d5160019486612be0565b86612ccd565b5054838060a01b038116612d6b848c612bfa565b5260a01c16612d7a8289612bfa565b5201612d2c565b5050915050602090604051612d9683826127e8565b60008152600036813760405192612dad81856127e8565b600084525060003681379190565b91906009549081841015612e1e57612dd891612c40859283612be0565b612de181612abd565b9260005b828110612df157505050565b80612e06612e0160019385612be0565b6129be565b90549060031b1c612e178288612bfa565b5201612de5565b50509050604051612cc16020826127e8565b80600052600a602052604060002054908115612eee576000198201918083116103bf576009546000198101939084116103bf57612e6c846129be565b90549060031b1c906000948103612ecb575b5050506009548015612eb75760001901612e97816129be565b8154906000199060031b1b191690556009558152600a6020526040812055565b634e487b7160e01b83526031600452602483fd5b612ed861198d83926129be565b90558352600a6020526040832055388080612e7e565b5050565b6008810180548015612f6c57600091829055600254925460405163a9059cbb60e01b81526001600160a01b03918216600482015260248101929092529092602092849260449284929160089190911c165af1801561061a57612f515750565b612f699060203d6020116106135761060981836127e8565b50565b505050565b80600052600a602052604060002054612f6957600954600160401b811015610aa857612fa961198d82600185940160095560096129ef565b905560095490600052600a60205260406000205556fea264697066735822122034756de096a7126bcb80cc697bb3c0c7ffca5989d7d586c1a1698ee9795cd29464736f6c634300081c0033",
  "linkReferences": {},
  "deployedLinkReferences": {}
}