{
  "_format": "hh-sol-artifact-1",
  "contractName": "JobBoard",
  "sourceName": "contracts/JobBoard.sol",
  "abi": [
    {
      "inputs": [
        {
          "internalType": "address",
          "name": "_owner",
          "type": "address"
        }
      ],
      "stateMutability": "nonpayable",
      "type": "constructor"
    },
    {
      "inputs": [],
      "name": "AlreadyHiredOrClosed",
      "type": "error"
    },
    {
      "inputs": [],
      "name": "InvalidStatus",
      "type": "error"
    },
    {
      "inputs": [],
      "name": "JobNotFound",
      "type": "error"
    },
    {
      "inputs": [],
      "name": "KYCGated",
      "type": "error"
    },
    {
      "inputs": [],
      "name": "NotAllowedFactory",
      "type": "error"
    },
    {
      "inputs": [],
      "name": "NotClient",
      "type": "error"
    },
    {
      "inputs": [],
      "name": "NotExpired",
      "type": "error"
    },
    {
      "inputs": [],
      "name": "NotOpen",
      "type": "error"
    },
    {
      "inputs": [],
      "name": "NotOwner",
      "type": "error"
    },
    {
      "inputs": [],
      "name": "NotReopenable",
      "type": "error"
    },
    {
      "inputs": [],
      "name": "Reentrancy",
      "type": "error"
    },
    {
      "inputs": [],
      "name": "TooManyTags",
      "type": "error"
    },
    {
      "inputs": [],
      "name": "USDCNotSet",
      "type": "error"
    },
    {
      "inputs": [],
      "name": "WrongBond",
      "type": "error"
    },
    {
      "inputs": [],
      "name": "ZeroAddress",
      "type": "error"
    },
    {
      "anonymous": false,
      "inputs": [
        {
          "indexed": false,
          "internalType": "uint8",
          "name": "mode",
          "type": "uint8"
        },
        {
          "indexed": false,
          "internalType": "uint256",
          "name": "postingBondUSDC",
          "type": "uint256"
        }
      ],
      "name": "AntiSpamModeSet",
      "type": "event"
    },
    {
      "anonymous": false,
      "inputs": [
        {
          "indexed": true,
          "internalType": "address",
          "name": "factory",
          "type": "address"
        },
        {
          "indexed": false,
          "internalType": "bool",
          "name": "allowed",
          "type": "bool"
        }
      ],
      "name": "FactoryAllowed",
      "type": "event"
    },
    {
      "anonymous": false,
      "inputs": [
        {
          "indexed": false,
          "internalType": "bool",
          "name": "enabled",
          "type": "bool"
        }
      ],
      "name": "GasSponsorshipSet",
      "type": "event"
    },
    {
      "anonymous": false,
      "inputs": [
        {
          "indexed": true,
          "internalType": "uint256",
          "name": "jobId",
          "type": "uint256"
        },
        {
          "indexed": true,
          "internalType": "address",
          "name": "client",
          "type": "address"
        }
      ],
      "name": "JobCancelled",
      "type": "event"
    },
    {
      "anonymous": false,
      "inputs": [
        {
          "indexed": true,
          "internalType": "uint256",
          "name": "jobId",
          "type": "uint256"
        },
        {
          "indexed": true,
          "internalType": "address",
          "name": "client",
          "type": "address"
        },
        {
          "indexed": true,
          "internalType": "address",
          "name": "freelancer",
          "type": "address"
        },
        {
          "indexed": false,
          "internalType": "address",
          "name": "escrow",
          "type": "address"
        }
      ],
      "name": "JobCompleted",
      "type": "event"
    },
    {
      "anonymous": false,
      "inputs": [
        {
          "indexed": true,
          "internalType": "uint256",
          "name": "jobId",
          "type": "uint256"
        },
        {
          "indexed": false,
          "internalType": "uint64",
          "name": "expiresAt",
          "type": "uint64"
        }
      ],
      "name": "JobExpiredClosed",
      "type": "event"
    },
    {
      "anonymous": false,
      "inputs": [
        {
          "indexed": true,
          "internalType": "uint256",
          "name": "jobId",
          "type": "uint256"
        },
        {
          "indexed": true,
          "internalType": "address",
          "name": "client",
          "type": "address"
        },
        {
          "indexed": true,
          "internalType": "address",
          "name": "freelancer",
          "type": "address"
        },
        {
          "indexed": false,
          "internalType": "address",
          "name": "escrow",
          "type": "address"
        }
      ],
      "name": "JobHired",
      "type": "event"
    },
    {
      "anonymous": false,
      "inputs": [
        {
          "indexed": true,
          "internalType": "uint256",
          "name": "jobId",
          "type": "uint256"
        },
        {
          "indexed": true,
          "internalType": "address",
          "name": "client",
          "type": "address"
        },
        {
          "indexed": false,
          "internalType": "string",
          "name": "title",
          "type": "string"
        },
        {
          "indexed": false,
          "internalType": "string",
          "name": "descriptionURI",
          "type": "string"
        },
        {
          "indexed": false,
          "internalType": "uint256",
          "name": "budgetUSDC",
          "type": "uint256"
        },
        {
          "indexed": false,
          "internalType": "bytes32[]",
          "name": "tags",
          "type": "bytes32[]"
        },
        {
          "indexed": false,
          "internalType": "uint64",
          "name": "expiresAt",
          "type": "uint64"
        }
      ],
      "name": "JobPosted",
      "type": "event"
    },
    {
      "anonymous": false,
      "inputs": [
        {
          "indexed": true,
          "internalType": "uint256",
          "name": "jobId",
          "type": "uint256"
        },
        {
          "indexed": false,
          "internalType": "uint64",
          "name": "newExpiresAt",
          "type": "uint64"
        }
      ],
      "name": "JobReopened",
      "type": "event"
    },
    {
      "anonymous": false,
      "inputs": [
        {
          "indexed": true,
          "internalType": "uint256",
          "name": "jobId",
          "type": "uint256"
        },
        {
          "indexed": false,
          "internalType": "string",
          "name": "title",
          "type": "string"
        },
        {
          "indexed": false,
          "internalType": "string",
          "name": "descriptionURI",
          "type": "string"
        },
        {
          "indexed": false,
          "internalType": "uint256",
          "name": "budgetUSDC",
          "type": "uint256"
        },
        {
          "indexed": false,
          "internalType": "bytes32[]",
          "name": "tags",
          "type": "bytes32[]"
        },
        {
          "indexed": false,
          "internalType": "uint64",
          "name": "expiresAt",
          "type": "uint64"
        }
      ],
      "name": "JobUpdated",
      "type": "event"
    },
    {
      "anonymous": false,
      "inputs": [
        {
          "indexed": true,
          "internalType": "address",
          "name": "user",
          "type": "address"
        },
        {
          "indexed": false,
          "internalType": "bool",
          "name": "isVerified",
          "type": "bool"
        }
      ],
      "name": "KYCSet",
      "type": "event"
    },
    {
      "anonymous": false,
      "inputs": [
        {
          "indexed": true,
          "internalType": "address",
          "name": "previousOwner",
          "type": "address"
        },
        {
          "indexed": true,
          "internalType": "address",
          "name": "newOwner",
          "type": "address"
        }
      ],
      "name": "OwnerChanged",
      "type": "event"
    },
    {
      "anonymous": false,
      "inputs": [
        {
          "indexed": false,
          "internalType": "bool",
          "name": "paused",
          "type": "bool"
        }
      ],
      "name": "PausedSet",
      "type": "event"
    },
    {
      "anonymous": false,
      "inputs": [
        {
          "indexed": true,
          "internalType": "address",
          "name": "usdc",
          "type": "address"
        }
      ],
      "name": "USDCSet",
      "type": "event"
    },
    {
      "inputs": [
        {
          "internalType": "address",
          "name": "",
          "type": "address"
        }
      ],
      "name": "allowedFactory",
      "outputs": [
        {
          "internalType": "bool",
          "name": "",
          "type": "bool"
        }
      ],
      "stateMutability": "view",
      "type": "function"
    },
    {
      "inputs": [],
      "name": "antiSpamMode",
      "outputs": [
        {
          "internalType": "enum JobBoard.AntiSpamMode",
          "name": "",
          "type": "uint8"
        }
      ],
      "stateMutability": "view",
      "type": "function"
    },
    {
      "inputs": [
        {
          "internalType": "uint256",
          "name": "jobId",
          "type": "uint256"
        }
      ],
      "name": "cancelJob",
      "outputs": [],
      "stateMutability": "nonpayable",
      "type": "function"
    },
    {
      "inputs": [
        {
          "internalType": "uint256",
          "name": "jobId",
          "type": "uint256"
        }
      ],
      "name": "closeExpired",
      "outputs": [],
      "stateMutability": "nonpayable",
      "type": "function"
    },
    {
      "inputs": [],
      "name": "gasSponsorshipEnabled",
      "outputs": [
        {
          "internalType": "bool",
          "name": "",
          "type": "bool"
        }
      ],
      "stateMutability": "view",
      "type": "function"
    },
    {
      "inputs": [
        {
          "internalType": "uint256",
          "name": "jobId",
          "type": "uint256"
        }
      ],
      "name": "getJob",
      "outputs": [
        {
          "internalType": "address",
          "name": "client",
          "type": "address"
        },
        {
          "internalType": "string",
          "name": "title",
          "type": "string"
        },
        {
          "internalType": "string",
          "name": "descriptionURI",
          "type": "string"
        },
        {
          "internalType": "uint256",
          "name": "budgetUSDC",
          "type": "uint256"
        },
        {
          "internalType": "enum JobBoard.JobStatus",
          "name": "status",
          "type": "uint8"
        },
        {
          "internalType": "address",
          "name": "hiredFreelancer",
          "type": "address"
        },
        {
          "internalType": "address",
          "name": "escrow",
          "type": "address"
        },
        {
          "internalType": "uint64",
          "name": "createdAt",
          "type": "uint64"
        },
        {
          "internalType": "uint64",
          "name": "updatedAt",
          "type": "uint64"
        },
        {
          "internalType": "uint64",
          "name": "expiresAt",
          "type": "uint64"
        },
        {
          "internalType": "bytes32[]",
          "name": "tags",
          "type": "bytes32[]"
        },
        {
          "internalType": "uint256",
          "name": "postingBond",
          "type": "uint256"
        }
      ],
      "stateMutability": "view",
      "type": "function"
    },
    {
      "inputs": [
        {
          "internalType": "address",
          "name": "",
          "type": "address"
        }
      ],
      "name": "isKYC",
      "outputs": [
        {
          "internalType": "bool",
          "name": "",
          "type": "bool"
        }
      ],
      "stateMutability": "view",
      "type": "function"
    },
    {
      "inputs": [
        {
          "internalType": "uint256",
          "name": "",
          "type": "uint256"
        }
      ],
      "name": "jobs",
      "outputs": [
        {
          "internalType": "address",
          "name": "client",
          "type": "address"
        },
        {
          "internalType": "string",
          "name": "title",
          "type": "string"
        },
        {
          "internalType": "string",
          "name": "descriptionURI",
          "type": "string"
        },
        {
          "internalType": "uint256",
          "name": "budgetUSDC",
          "type": "uint256"
        },
        {
          "internalType": "enum JobBoard.JobStatus",
          "name": "status",
          "type": "uint8"
        },
        {
          "internalType": "address",
          "name": "hiredFreelancer",
          "type": "address"
        },
        {
          "internalType": "address",
          "name": "escrow",
          "type": "address"
        },
        {
          "internalType": "uint64",
          "name": "createdAt",
          "type": "uint64"
        },
        {
          "internalType": "uint64",
          "name": "updatedAt",
          "type": "uint64"
        },
        {
          "internalType": "uint64",
          "name": "expiresAt",
          "type": "uint64"
        },
        {
          "internalType": "uint256",
          "name": "postingBond",
          "type": "uint256"
        }
      ],
      "stateMutability": "view",
      "type": "function"
    },
    {
      "inputs": [
        {
          "internalType": "address",
          "name": "clientAddr",
          "type": "address"
        }
      ],
      "name": "jobsByClient",
      "outputs": [
        {
          "internalType": "uint256[]",
          "name": "",
          "type": "uint256[]"
        }
      ],
      "stateMutability": "view",
      "type": "function"
    },
    {
      "inputs": [
        {
          "internalType": "address",
          "name": "clientAddr",
          "type": "address"
        },
        {
          "internalType": "uint256",
          "name": "offset",
          "type": "uint256"
        },
        {
          "internalType": "uint256",
          "name": "limit",
          "type": "uint256"
        }
      ],
      "name": "jobsByClientPaginated",
      "outputs": [
        {
          "internalType": "uint256[]",
          "name": "out",
          "type": "uint256[]"
        }
      ],
      "stateMutability": "view",
      "type": "function"
    },
    {
      "inputs": [
        {
          "internalType": "address",
          "name": "",
          "type": "address"
        },
        {
          "internalType": "uint256",
          "name": "",
          "type": "uint256"
        }
      ],
      "name": "jobsOf",
      "outputs": [
        {
          "internalType": "uint256",
          "name": "",
          "type": "uint256"
        }
      ],
      "stateMutability": "view",
      "type": "function"
    },
    {
      "inputs": [
        {
          "internalType": "uint256",
          "name": "jobId",
          "type": "uint256"
        }
      ],
      "name": "markAsCompleted",
      "outputs": [],
      "stateMutability": "nonpayable",
      "type": "function"
    },
    {
      "inputs": [
        {
          "internalType": "uint256",
          "name": "jobId",
          "type": "uint256"
        },
        {
          "internalType": "address",
          "name": "freelancer",
          "type": "address"
        },
        {
          "internalType": "address",
          "name": "escrow",
          "type": "address"
        }
      ],
      "name": "markAsHired",
      "outputs": [],
      "stateMutability": "nonpayable",
      "type": "function"
    },
    {
      "inputs": [],
      "name": "nextJobId",
      "outputs": [
        {
          "internalType": "uint256",
          "name": "",
          "type": "uint256"
        }
      ],
      "stateMutability": "view",
      "type": "function"
    },
    {
      "inputs": [
        {
          "internalType": "uint256",
          "name": "offset",
          "type": "uint256"
        },
        {
          "internalType": "uint256",
          "name": "limit",
          "type": "uint256"
        }
      ],
      "name": "openJobs",
      "outputs": [
        {
          "internalType": "uint256[]",
          "name": "out",
          "type": "uint256[]"
        }
      ],
      "stateMutability": "view",
      "type": "function"
    },
    {
      "inputs": [],
      "name": "owner",
      "outputs": [
        {
          "internalType": "address",
          "name": "",
          "type": "address"
        }
      ],
      "stateMutability": "view",
      "type": "function"
    },
    {
      "inputs": [],
      "name": "paused",
      "outputs": [
        {
          "internalType": "bool",
          "name": "",
          "type": "bool"
        }
      ],
      "stateMutability": "view",
      "type": "function"
    },
    {
      "inputs": [
        {
          "internalType": "string",
          "name": "title",
          "type": "string"
        },
        {
          "internalType": "string",
          "name": "descriptionURI",
          "type": "string"
        },
        {
          "internalType": "uint256",
          "name": "budgetUSDC",
          "type": "uint256"
        },
        {
          "internalType": "bytes32[]",
          "name": "tags",
          "type": "bytes32[]"
        },
        {
          "internalType": "uint64",
          "name": "expiresAt",
          "type": "uint64"
        }
      ],
      "name": "postJob",
      "outputs": [
        {
          "internalType": "uint256",
          "name": "jobId",
          "type": "uint256"
        }
      ],
      "stateMutability": "nonpayable",
      "type": "function"
    },
    {
      "inputs": [],
      "name": "postingBondUSDC",
      "outputs": [
        {
          "internalType": "uint256",
          "name": "",
          "type": "uint256"
        }
      ],
      "stateMutability": "view",
      "type": "function"
    },
    {
      "inputs": [
        {
          "internalType": "uint256",
          "name": "jobId",
          "type": "uint256"
        },
        {
          "internalType": "uint64",
          "name": "newExpiresAt",
          "type": "uint64"
        }
      ],
      "name": "reopen",
      "outputs": [],
      "stateMutability": "nonpayable",
      "type": "function"
    },
    {
      "inputs": [
        {
          "internalType": "address",
          "name": "factory",
          "type": "address"
        },
        {
          "internalType": "bool",
          "name": "allowed",
          "type": "bool"
        }
      ],
      "name": "setAllowedFactory",
      "outputs": [],
      "stateMutability": "nonpayable",
      "type": "function"
    },
    {
      "inputs": [
        {
          "internalType": "uint8",
          "name": "mode",
          "type": "uint8"
        },
        {
          "internalType": "uint256",
          "name": "bondAmount",
          "type": "uint256"
        }
      ],
      "name": "setAntiSpamMode",
      "outputs": [],
      "stateMutability": "nonpayable",
      "type": "function"
    },
    {
      "inputs": [
        {
          "internalType": "bool",
          "name": "enabled",
          "type": "bool"
        }
      ],
      "name": "setGasSponsorship",
      "outputs": [],
      "stateMutability": "nonpayable",
      "type": "function"
    },
    {
      "inputs": [
        {
          "internalType": "address",
          "name": "user",
          "type": "address"
        },
        {
          "internalType": "bool",
          "name": "verified",
          "type": "bool"
        }
      ],
      "name": "setKYC",
      "outputs": [],
      "stateMutability": "nonpayable",
      "type": "function"
    },
    {
      "inputs": [
        {
          "internalType": "bool",
          "name": "_paused",
          "type": "bool"
        }
      ],
      "name": "setPaused",
      "outputs": [],
      "stateMutability": "nonpayable",
      "type": "function"
    },
    {
      "inputs": [
        {
          "internalType": "address",
          "name": "token",
          "type": "address"
        }
      ],
      "name": "setUSDC",
      "outputs": [],
      "stateMutability": "nonpayable",
      "type": "function"
    },
    {
      "inputs": [
        {
          "internalType": "address",
          "name": "token",
          "type": "address"
        },
        {
          "internalType": "uint256",
          "name": "amount",
          "type": "uint256"
        }
      ],
      "name": "sweepERC20",
      "outputs": [],
      "stateMutability": "nonpayable",
      "type": "function"
    },
    {
      "inputs": [
        {
          "internalType": "address",
          "name": "clientAddr",
          "type": "address"
        }
      ],
      "name": "totalJobsOf",
      "outputs": [
        {
          "internalType": "uint256",
          "name": "",
          "type": "uint256"
        }
      ],
      "stateMutability": "view",
      "type": "function"
    },
    {
      "inputs": [],
      "name": "totalOpenJobs",
      "outputs": [
        {
          "internalType": "uint256",
          "name": "",
          "type": "uint256"
        }
      ],
      "stateMutability": "view",
      "type": "function"
    },
    {
      "inputs": [
        {
          "internalType": "address",
          "name": "_newOwner",
          "type": "address"
        }
      ],
      "name": "transferOwnership",
      "outputs": [],
      "stateMutability": "nonpayable",
      "type": "function"
    },
    {
      "inputs": [
        {
          "internalType": "uint256",
          "name": "jobId",
          "type": "uint256"
        },
        {
          "internalType": "string",
          "name": "title",
          "type": "string"
        },
        {
          "internalType": "string",
          "name": "descriptionURI",
          "type": "string"
        },
        {
          "internalType": "uint256",
          "name": "budgetUSDC",
          "type": "uint256"
        },
        {
          "internalType": "bytes32[]",
          "name": "tags",
          "type": "bytes32[]"
        },
        {
          "internalType": "uint64",
          "name": "expiresAt",
          "type": "uint64"
        }
      ],
      "name": "updateJob",
      "outputs": [],
      "stateMutability": "nonpayable",
      "type": "function"
    },
    {
      "inputs": [],
      "name": "usdc",
      "outputs": [
        {
          "internalType": "contract IERC20",
          "name": "",
          "type": "address"
        }
      ],
      "stateMutability": "view",
      "type": "function"
    }
  ],
  "bytecode": "0x60803460b457601f61234f38819003918201601f19168301916001600160401b0383118484101760b95780849260209460405283398101031260b457516001600160a01b0381169081900360b4576001600b55801560a357600080546001600160a01b03191682178155600160065560405191907fb532073b38c83145e3e5135377a08bf9aab55bc0fd7c1179cd4fb995d2a5159c8180a361227f90816100d08239f35b63d92e233d60e01b60005260046000fd5b600080fd5b634e487b7160e01b600052604160045260246000fdfe608080604052600436101561001357600080fd5b60003560e01c90816316c38b3c14611b5057508063180aedf314611a5d5780631dffa3dc146119705780631ec1de931461195257806331209061146117ce57806331dc20ff146117b057806336ae41ca146116cd5780633e413bee146116a05780633e8a00c81461167d5780633f1959931461163e5780634f464cb0146111d35780635123bacc1461112a57806357147aca146110f05780635a4434ba146110c65780635c975abb146110a05780636c79bce714610a8b57806372ffa84d146109f45780637c1ee3b51461096c5780637f8305e5146109035780638da5cb5b146108da5780639944f5181461089b578063b0c2aa5e1461087d578063b3e089a2146107f5578063beacece1146107c9578063bf22c45714610643578063c0a6026c14610548578063d8acddb1146104ef578063dc74fde5146104cd578063e5d53c3b14610446578063e6d11999146103a0578063ee64a6aa1461021d5763f2fde38b1461017f57600080fd5b3461021857602036600319011261021857610198611d2b565b600054906001600160a01b0382169033829003610207576001600160a01b03169182156101f6576001600160a01b031916821760009081557fb532073b38c83145e3e5135377a08bf9aab55bc0fd7c1179cd4fb995d2a5159c9080a3005b63d92e233d60e01b60005260046000fd5b6330cd747160e01b60005260046000fd5b600080fd5b34610218576040366003190112610218576004356024356001600160401b0381168082036102185760ff60005460a01c16610330576000838152600760205260409020546001600160a01b0316801561038f57330361037e57826000526007602052604060002090600482019160ff8354166006811015610368576003811415908161035c575b5061034b5781151580610341575b61033057825460ff191660011790925560069190910180546001600160801b031916426001600160401b03161760409390931b67ffffffffffffffff60401b16929092179091557f64e5fe93a1512528f7d137734ea381e242e5f5b078b993159fdb3c72ab8e9ef790602090610327846121fb565b604051908152a2005b6307a92f1960e51b60005260046000fd5b50428211156102b2565b633f2e0a8760e21b60005260046000fd5b600591501415866102a4565b634e487b7160e01b600052602160045260246000fd5b630836f21d60e21b60005260046000fd5b63c0a8563160e01b60005260046000fd5b34610218576040366003190112610218576103b9611d2b565b6000546001600160a01b031690338290036102075760405163a9059cbb60e01b81526001600160a01b03928316600482015260248035908201529160209183916044918391600091165af1801561043a5761041057005b6104319060203d602011610433575b6104298183611c18565b810190611f60565b005b503d61041f565b6040513d6000823e3d90fd5b34610218576020366003190112610218576001600160a01b03610467611d2b565b166000526008602052604060002060405190816020825491828152019160005260206000209060005b8181106104b7576104b3856104a781870382611c18565b60405191829182611d9e565b0390f35b8254845260209093019260019283019201610490565b34610218576040366003190112610218576104b36104a760243560043561204f565b3461021857604036600319011261021857610508611d2b565b6001600160a01b03166000908152600860205260409020805460243591908210156102185760209161053991611e09565b90549060031b1c604051908152f35b346102185760203660031901126102185760043560ff60005460a01c166103305733600052600160205260ff604060002054161561063257600081815260076020526040902080549091906001600160a01b03161561038f57600482019060ff82541660068110156103685760020361033057815460ff1916600417825560068301805467ffffffffffffffff1916426001600160401b0316179055825491546005909301546040516001600160a01b03918216815260089490941c8116939216917f074fd40586a68e670c4541fb4b871f9b85af2929dbe255702e111e588ff4b2a890602090a4005b6309270ebd60e11b60005260046000fd5b3461021857602036600319011261021857600435600090815260076020526040902080546001600160a01b0316801561038f576003820154916004810154600582015491600681015460078201936008830154936106af60026106a860018701611c39565b9501611c39565b604051948560208954918281520190819960005260206000209060005b8181106107b3575050509261071f6001600160401b0395929361071187956106fa8b60209c9b99038b611c18565b6101806040519e8f908152818d8201520190611cdd565b8c810360408e015290611cdd565b9a60608b015261073560808b0160ff8316611d1e565b60081c6001600160a01b0390811660a08b81019190915290821660c08b01521c1660e088015280821661010088015260401c16610120860152848603610140860152518086526000959190910192905b80861061079b5750508293506101608301520390f35b90926020806001928651815201940195019490610785565b82548452602090930192600192830192016106cc565b34610218576060366003190112610218576104b36104a76107e8611d2b565b6044359060243590611fa6565b346102185760203660031901126102185761080e611d2b565b6000546001600160a01b03163303610207576001600160a01b0381169081156101f65760028054610100600160a81b03191660089290921b610100600160a81b03169190911790557f4a13891118f8dba1996f8eac118f83bb98e645807a9b9cecf6bc6d014048e7e3600080a2005b34610218576000366003190112610218576020600654604051908152f35b34610218576020366003190112610218576001600160a01b036108bc611d2b565b166000526004602052602060ff604060002054166040519015158152f35b34610218576000366003190112610218576000546040516001600160a01b039091168152602090f35b346102185760203660031901126102185761091c611bc0565b6000546001600160a01b031633036102075760207fe45eebf975e8498157f15e4245144789293d518243944ce72e49418a0cfa598391151560ff196005541660ff821617600555604051908152a1005b346102185760403660031901126102185760043560ff811680910361021857600054602435906001600160a01b031633036102075760028211610330576003821015610368577f7d63308b92fa01d1151ab58553671d1b5ade1d78731eb1b099f55ac41ea2464e916040918160ff1960025416176002558060035582519182526020820152a1005b3461021857604036600319011261021857610a0d611d2b565b610a15611bcf565b6000549091906001600160a01b03163303610207576001600160a01b03169081156101f65760207f24c9a6b477fff74db04905dbc966242385b5b163a4abd979698a56ea761371db918360005260018252610a808160406000209060ff801983541691151516179055565b6040519015158152a2005b346102185760a0366003190112610218576004356001600160401b03811161021857610abb903690600401611d41565b6024356001600160401b03811161021857610ada903690600401611d41565b604492919235936064356001600160401b03811161021857610b00903690600401611d6e565b949093608435926001600160401b038416958685036102185760ff60005460a01c16610330576001600b540361108f576002600b556002549660ff8816976003891015610368576002891480611076575b61106557600160009914610fb2575b5060058911610fa1578015159081610f96575b5061033057600654976000198914610f8057600189810160065560008a815260076020526040902080546001600160a01b03191633178155989089016001600160401b038611610d7057610bc78154611bde565b601f8111610f38575b50856000601f8211600114610ed557600091610eca575b508660011b906000198860031b1c19161790555b600289016001600160401b038911610d7057610c178154611bde565b601f8111610e82575b50886000601f8211600114610e1e57600091610e13575b508960011b906000198b60031b1c19161790555b600389018b905560048901805460ff1916600117905560058901805467ffffffffffffffff60a01b19164260a081901b67ffffffffffffffff60a01b169190911790915560068a0180546001600160801b0319166001600160401b039290921691909117604089901b67ffffffffffffffff60401b16179055600889015580610d86575b5050336000526008602052604060002093845491600160401b831015610d7057602099899788610d43610d2c877f1e340188ef02ed93224295b9e0a03660720f89cfd12522e974a49b530e346e039b6001610d609a018155611e09565b819391549060031b91821b91600019901b19161790565b9055610d4e896121fb565b6040519687966007339c019488611ede565b0390a36001600b55604051908152f35b634e487b7160e01b600052604160045260246000fd5b610d8f81611e7b565b805160078a0192916001600160401b038211610d7057602090610db28386611e21565b0183600052602060002060005b838110610dff575050505060005b818110610ddb575050610ccf565b80610de96001928487611ead565b35610df7610d2c8387611e09565b905501610dcd565b600190602084519401938184015501610dbf565b90508701358d610c37565b8281526020812091508a601f198116825b8b828210610e6857505010610e4e575b5050600189811b019055610c4b565b88013560001960038c901b60f8161c191690558c80610e3f565b84013585556001909401936020938401938e935001610e2f565b816000526020600020601f8b0160051c81019160208c10610ec0575b601f0160051c01905b818110610eb45750610c20565b60008155600101610ea7565b9091508190610e9e565b90508501358d610be7565b82815260208120915087601f198116825b818110610f1d575010610f03575b5050600186811b019055610bfb565b860135600019600389901b60f8161c191690558c80610ef4565b8984013585556001909401936020938401938b935001610ee6565b816000526020600020601f880160051c81019160208910610f76575b601f0160051c01905b818110610f6a5750610bd0565b60008155600101610f5d565b9091508190610f54565b634e487b7160e01b600052601160045260246000fd5b90504210158a610b73565b63ee39e85560e01b60005260046000fd5b60081c6001600160a01b03168015611056576003549889156110475750602060009160648b60405194859384926323b872dd60e01b845233600485015230602485015260448401525af190811561043a57600091611028575b5015611017578a610b60565b63501c2aaf60e01b60005260046000fd5b611041915060203d602011610433576104298183611c18565b8b61100b565b63501c2aaf60e01b8152600490fd5b63e92eebef60e01b8952600489fd5b633b529a9760e11b60005260046000fd5b5033600052600460205260ff6040600020541615610b51565b63558a1e0360e11b60005260046000fd5b3461021857600036600319011261021857602060ff60005460a01c166040519015158152f35b346102185760003660031901126102185760ff600254166040516003821015610368576020918152f35b34610218576020366003190112610218576001600160a01b03611111611d2b565b1660005260086020526020604060002054604051908152f35b3461021857604036600319011261021857611143611d2b565b61114b611bcf565b9060018060a01b0360005416331415806111ba575b610632576001600160a01b03169081156101f65760207f97b4072981ad9b2269406ff8cc9d70c26afd27cea67b75e2573b8710a5e880c9918360005260048252610a808160406000209060ff801983541691151516179055565b5033600052600160205260ff6040600020541615611160565b346102185760c0366003190112610218576004356024356001600160401b03811161021857611206903690600401611d41565b6044929192356001600160401b03811161021857611228903690600401611d41565b6064949194356084356001600160401b0381116102185761124d903690600401611d6e565b92909660a435976001600160401b038916808a036102185760ff60005460a01c16610330576000898152600760205260409020546001600160a01b0316801561038f57330361037e5788600052600760205260406000209060ff60048301541660068110156103685760010361162d5760058711610fa1578015159081611622575b5061033057600181016001600160401b038911610d70576112f08154611bde565b601f81116115da575b50886000601f82116001146115765760009161156b575b508960011b906000198b60031b1c19161790555b60028101906001600160401b038511610d70576113418254611bde565b601f8111611523575b5060009185601f81116001146114bb576007936000916114b0575b508660011b906000198860031b1c19161790555b600381018690556006810180546001600160801b031916426001600160401b03161760408d901b67ffffffffffffffff60401b16179055019485546000875580611489575b5080611402575b5050916113fd93917ff9cdeb830204e1e6135fb07822aaac23761d75003d5dde41bcb94fa818c1b52197989360405197889788611ede565b0390a2005b61140b81611e7b565b8051906001600160401b038211610d7057602090611429838a611e21565b0187600052602060002060005b838110611475575050505060005b81811061145157506113c5565b8061145f6001928486611ead565b3561146d610d2c838b611e09565b905501611444565b600190602084519401938184015501611436565b866000526020600020908101905b8181106114a457506113be565b60008155600101611497565b90508501358d611365565b50808352602083208387601f1981165b8087106115055760079650106114eb575b5050600186811b019055611379565b860135600019600389901b60f8161c191690558c806114dc565b888301358455602096870196600190940193909201918991506114cb565b826000526020600020601f870160051c81019160208810611561575b601f0160051c01905b818110611555575061134a565b60008155600101611548565b909150819061153f565b90508801358c611310565b8281526020812091508a601f198116825b8c8282106115c0575050106115a6575b5050600189811b019055611324565b89013560001960038c901b60f8161c191690558b80611597565b84013585556001909401936020938401938e935001611587565b816000526020600020601f8b0160051c81019160208c10611618575b601f0160051c01905b81811061160c57506112f9565b600081556001016115ff565b90915081906115f6565b90504210158b6112cf565b631bb5f5b360e31b60005260046000fd5b34610218576020366003190112610218576001600160a01b0361165f611d2b565b166000526001602052602060ff604060002054166040519015158152f35b3461021857600036600319011261021857602060ff600554166040519015158152f35b346102185760003660031901126102185760025460405160089190911c6001600160a01b03168152602090f35b3461021857602036600319011261021857600435600081815260076020526040902080546001600160a01b03161561038f57600481019060ff82541660068110156103685760010361162d576006016001600160401b03815460401c1680159081156117a6575b50611795576001600160401b036020917fe77a20b7941129acbb78a11f4d13c89ec2c9d5d36d21f0f7083e304c3e4338c993600560ff1982541617905581804216168219825416178155611787856120ba565b5460401c16604051908152a2005b63d0404f8560e01b60005260046000fd5b9050421084611734565b34610218576000366003190112610218576020600954604051908152f35b34610218576060366003190112610218576024356001600160a01b03811690600435828203610218576044356001600160a01b03811692908390036102185760ff60005460a01c166103305733600052600160205260ff6040600020541615610632576001600b540361108f576002600b558315801561194a575b6101f657600082815260076020526040902080549091906001600160a01b03161561038f57600482019160ff835416600681101561036857600103611939578254610100600160a81b03191660089290921b610100600160a81b03169190911782556005810180546001600160a01b03191685179055815460ff191660021790915560068101805467ffffffffffffffff1916426001600160401b03161790557f18d75305648a74597b581f82d18a431cb8a7ddbf7a7131ceb3e9e5343ed7708990602090611917846120ba565b6119208161217c565b546040519485526001600160a01b031693a46001600b55005b635e78c1e560e01b60005260046000fd5b508215611849565b34610218576000366003190112610218576020600354604051908152f35b346102185760203660031901126102185760043560ff60005460a01c16610330576000818152600760205260409020546001600160a01b0316801561038f57330361037e576001600b540361108f576002600b5580600052600760205260406000206004810160ff81541660068110156103685760010361162d57805460ff1916600317905560068101805467ffffffffffffffff1916426001600160401b0316179055611a1d826120ba565b611a268161217c565b546001600160a01b0316907ff1ab0865975dad5c69ae8e4baaf13114c875728afa7cc86368534c22a631d0b0600080a36001600b55005b3461021857602036600319011261021857600435600090815260076020526040902080546001600160a01b0316611a9660018301611c39565b91611aa360028201611c39565b6001600160401b03600383015492816004820154600583015490611af76008600686015495015496611ae96040519b8c9b8c5261016060208d01526101608c0190611cdd565b908a820360408c0152611cdd565b966060890152611b0d6080890160ff8316611d1e565b60081c6001600160a01b0390811660a08981019190915290821660c08901521c1660e086015280821661010086015260401c166101208401526101408301520390f35b3461021857602036600319011261021857611b69611bc0565b600054916001600160a01b0383163303610207577f40db37ff5c0bdc2c427fbb2078c8f24afea940abac0e3c23bb4ea3bf2da2b2129260209215159060ff60a01b8260a01b169060ff60a01b1916176000558152a1005b60043590811515820361021857565b60243590811515820361021857565b90600182811c92168015611c0e575b6020831014611bf857565b634e487b7160e01b600052602260045260246000fd5b91607f1691611bed565b90601f801991011681019081106001600160401b03821117610d7057604052565b9060405191826000825492611c4d84611bde565b8084529360018116908115611cbb5750600114611c74575b50611c7292500383611c18565b565b90506000929192526020600020906000915b818310611c9f575050906020611c729282010138611c65565b6020919350806001915483858901015201910190918492611c86565b905060209250611c7294915060ff191682840152151560051b82010138611c65565b919082519283825260005b848110611d09575050826000602080949584010152601f8019910116010190565b80602080928401015182828601015201611ce8565b9060068210156103685752565b600435906001600160a01b038216820361021857565b9181601f84011215610218578235916001600160401b038311610218576020838186019501011161021857565b9181601f84011215610218578235916001600160401b038311610218576020808501948460051b01011161021857565b602060408183019282815284518094520192019060005b818110611dc25750505090565b8251845260209384019390920191600101611db5565b600954811015611df357600960005260206000200190600090565b634e487b7160e01b600052603260045260246000fd5b8054821015611df35760005260206000200190600090565b90600160401b8111610d7057815491818155828210611e3f57505050565b600052602060002091820191015b818110611e58575050565b60008155600101611e4d565b6001600160401b038111610d705760051b60200190565b90611e8582611e64565b611e926040519182611c18565b8281528092611ea3601f1991611e64565b0190602036910137565b9190811015611df35760051b0190565b908060209392818452848401376000828201840152601f01601f1916010190565b95949390611efc90611f0a949399989960a0895260a0890191611ebd565b918683036020880152611ebd565b90604084015282810360608401526020825491828152019160005260206000209060005b818110611f4a575050506001600160401b036080919416910152565b8254845260209093019260019283019201611f2e565b90816020910312610218575180151581036102185790565b91908201809211610f8057565b91908203918211610f8057565b8051821015611df35760209160051b010190565b6001600160a01b03166000818152600860205260409020549093928183101561204657611fe791611fd8849283611f78565b9080821161203e575b50611f85565b90611ff182611e7b565b9360005b8381106120025750505050565b60019082600052600860205261202660406000206120208387611f78565b90611e09565b90549060031b1c6120378289611f92565b5201611ff5565b905038611fe1565b50606093505050565b919060095490818410156120b25761206c91611fd8859283611f78565b61207581611e7b565b9260005b82811061208557505050565b8061209a61209560019385611f78565b611dd8565b90549060031b1c6120ab8288611f92565b5201612079565b506060925050565b80600052600a60205260406000205490811561217857600019820191808311610f8057600954600019810193908411610f80576120f684611dd8565b90549060031b1c906000948103612155575b5050506009548015612141576000190161212181611dd8565b8154906000199060031b1b191690556009558152600a6020526040812055565b634e487b7160e01b83526031600452602483fd5b612162610d2c8392611dd8565b90558352600a6020526040832055388080612108565b5050565b60088101805480156121f657600091829055600254925460405163a9059cbb60e01b81526001600160a01b03918216600482015260248101929092529092602092849260449284929160089190911c165af1801561043a576121db5750565b6121f39060203d602011610433576104298183611c18565b50565b505050565b80600052600a6020526040600020546121f357600954600160401b811015610d7057612233610d2c8260018594016009556009611e09565b905560095490600052600a60205260406000205556fea2646970667358221220101656d188b7b16abb25fb33b60f2d41955ed6e85d292b127282c377121c4d5364736f6c634300081c0033",
  "linkReferences": {},
  "deployedLinkReferences": {}
}