{
  "_format": "hh-sol-artifact-1",
  "contractName": "InvestorRegistry",
  "sourceName": "contracts/CompanyShares/InvestorRegistry.sol",
  "abi": [
    {
      "inputs": [
        {
          "internalType": "address",
          "name": "initialOwner",
          "type": "address"
        },
        {
          "internalType": "address",
          "name": "_companyRegistry",
          "type": "address"
        },
        {
          "internalType": "address",
          "name": "_fundraiseFactory",
          "type": "address"
        }
      ],
      "stateMutability": "nonpayable",
      "type": "constructor"
    },
    {
      "inputs": [
        {
          "internalType": "address",
          "name": "owner",
          "type": "address"
        }
      ],
      "name": "OwnableInvalidOwner",
      "type": "error"
    },
    {
      "inputs": [
        {
          "internalType": "address",
          "name": "account",
          "type": "address"
        }
      ],
      "name": "OwnableUnauthorizedAccount",
      "type": "error"
    },
    {
      "anonymous": false,
      "inputs": [
        {
          "indexed": true,
          "internalType": "address",
          "name": "investor",
          "type": "address"
        },
        {
          "indexed": true,
          "internalType": "uint256",
          "name": "companyId",
          "type": "uint256"
        },
        {
          "indexed": false,
          "internalType": "uint256",
          "name": "amount",
          "type": "uint256"
        }
      ],
      "name": "CompanyInvestmentRecorded",
      "type": "event"
    },
    {
      "anonymous": false,
      "inputs": [
        {
          "indexed": true,
          "internalType": "address",
          "name": "investor",
          "type": "address"
        },
        {
          "indexed": true,
          "internalType": "uint256",
          "name": "companyId",
          "type": "uint256"
        },
        {
          "indexed": false,
          "internalType": "uint256",
          "name": "amount",
          "type": "uint256"
        }
      ],
      "name": "CompanyPayoutRecorded",
      "type": "event"
    },
    {
      "anonymous": false,
      "inputs": [
        {
          "indexed": true,
          "internalType": "address",
          "name": "contractAddress",
          "type": "address"
        }
      ],
      "name": "ContractAuthorized",
      "type": "event"
    },
    {
      "anonymous": false,
      "inputs": [
        {
          "indexed": true,
          "internalType": "address",
          "name": "investor",
          "type": "address"
        },
        {
          "indexed": true,
          "internalType": "address",
          "name": "fundraiseContract",
          "type": "address"
        },
        {
          "indexed": false,
          "internalType": "uint256",
          "name": "amount",
          "type": "uint256"
        }
      ],
      "name": "JobInvestmentRecorded",
      "type": "event"
    },
    {
      "anonymous": false,
      "inputs": [
        {
          "indexed": true,
          "internalType": "address",
          "name": "investor",
          "type": "address"
        },
        {
          "indexed": true,
          "internalType": "address",
          "name": "fundraiseContract",
          "type": "address"
        },
        {
          "indexed": false,
          "internalType": "uint256",
          "name": "amount",
          "type": "uint256"
        }
      ],
      "name": "JobPayoutRecorded",
      "type": "event"
    },
    {
      "anonymous": false,
      "inputs": [
        {
          "indexed": true,
          "internalType": "address",
          "name": "previousOwner",
          "type": "address"
        },
        {
          "indexed": true,
          "internalType": "address",
          "name": "newOwner",
          "type": "address"
        }
      ],
      "name": "OwnershipTransferred",
      "type": "event"
    },
    {
      "anonymous": false,
      "inputs": [
        {
          "indexed": true,
          "internalType": "address",
          "name": "investor",
          "type": "address"
        },
        {
          "indexed": false,
          "internalType": "string",
          "name": "metadataURI",
          "type": "string"
        }
      ],
      "name": "ProfileUpdated",
      "type": "event"
    },
    {
      "inputs": [
        {
          "internalType": "address",
          "name": "_contract",
          "type": "address"
        }
      ],
      "name": "addAuthorizedContract",
      "outputs": [],
      "stateMutability": "nonpayable",
      "type": "function"
    },
    {
      "inputs": [
        {
          "internalType": "address",
          "name": "",
          "type": "address"
        },
        {
          "internalType": "uint256",
          "name": "",
          "type": "uint256"
        }
      ],
      "name": "companyInvestmentStats",
      "outputs": [
        {
          "internalType": "uint256",
          "name": "totalInvested",
          "type": "uint256"
        },
        {
          "internalType": "uint256",
          "name": "totalPayouts",
          "type": "uint256"
        }
      ],
      "stateMutability": "view",
      "type": "function"
    },
    {
      "inputs": [],
      "name": "companyRegistry",
      "outputs": [
        {
          "internalType": "address",
          "name": "",
          "type": "address"
        }
      ],
      "stateMutability": "view",
      "type": "function"
    },
    {
      "inputs": [],
      "name": "fundraiseFactory",
      "outputs": [
        {
          "internalType": "address",
          "name": "",
          "type": "address"
        }
      ],
      "stateMutability": "view",
      "type": "function"
    },
    {
      "inputs": [
        {
          "internalType": "uint256",
          "name": "companyId",
          "type": "uint256"
        }
      ],
      "name": "getCompanyInvestors",
      "outputs": [
        {
          "internalType": "address[]",
          "name": "",
          "type": "address[]"
        }
      ],
      "stateMutability": "view",
      "type": "function"
    },
    {
      "inputs": [
        {
          "internalType": "address",
          "name": "investor",
          "type": "address"
        },
        {
          "internalType": "uint256",
          "name": "companyId",
          "type": "uint256"
        }
      ],
      "name": "getInvestmentStats",
      "outputs": [
        {
          "internalType": "uint256",
          "name": "",
          "type": "uint256"
        },
        {
          "internalType": "uint256",
          "name": "",
          "type": "uint256"
        }
      ],
      "stateMutability": "view",
      "type": "function"
    },
    {
      "inputs": [
        {
          "internalType": "address",
          "name": "investor",
          "type": "address"
        },
        {
          "internalType": "address",
          "name": "fundraiseContract",
          "type": "address"
        }
      ],
      "name": "getJobInvestmentStats",
      "outputs": [
        {
          "internalType": "uint256",
          "name": "",
          "type": "uint256"
        },
        {
          "internalType": "uint256",
          "name": "",
          "type": "uint256"
        }
      ],
      "stateMutability": "view",
      "type": "function"
    },
    {
      "inputs": [
        {
          "internalType": "address",
          "name": "investor",
          "type": "address"
        }
      ],
      "name": "getJobPortfolio",
      "outputs": [
        {
          "internalType": "address[]",
          "name": "",
          "type": "address[]"
        }
      ],
      "stateMutability": "view",
      "type": "function"
    },
    {
      "inputs": [
        {
          "internalType": "address",
          "name": "investor",
          "type": "address"
        }
      ],
      "name": "getPortfolio",
      "outputs": [
        {
          "internalType": "uint256[]",
          "name": "",
          "type": "uint256[]"
        }
      ],
      "stateMutability": "view",
      "type": "function"
    },
    {
      "inputs": [
        {
          "internalType": "address",
          "name": "",
          "type": "address"
        }
      ],
      "name": "isAuthorizedContract",
      "outputs": [
        {
          "internalType": "bool",
          "name": "",
          "type": "bool"
        }
      ],
      "stateMutability": "view",
      "type": "function"
    },
    {
      "inputs": [
        {
          "internalType": "address",
          "name": "",
          "type": "address"
        },
        {
          "internalType": "address",
          "name": "",
          "type": "address"
        }
      ],
      "name": "jobInvestmentStats",
      "outputs": [
        {
          "internalType": "uint256",
          "name": "totalInvested",
          "type": "uint256"
        },
        {
          "internalType": "uint256",
          "name": "totalPayouts",
          "type": "uint256"
        }
      ],
      "stateMutability": "view",
      "type": "function"
    },
    {
      "inputs": [],
      "name": "owner",
      "outputs": [
        {
          "internalType": "address",
          "name": "",
          "type": "address"
        }
      ],
      "stateMutability": "view",
      "type": "function"
    },
    {
      "inputs": [
        {
          "internalType": "address",
          "name": "",
          "type": "address"
        }
      ],
      "name": "profiles",
      "outputs": [
        {
          "internalType": "string",
          "name": "metadataURI",
          "type": "string"
        },
        {
          "internalType": "bool",
          "name": "exists",
          "type": "bool"
        }
      ],
      "stateMutability": "view",
      "type": "function"
    },
    {
      "inputs": [
        {
          "internalType": "address",
          "name": "investor",
          "type": "address"
        },
        {
          "internalType": "uint256",
          "name": "companyId",
          "type": "uint256"
        },
        {
          "internalType": "uint256",
          "name": "amount",
          "type": "uint256"
        }
      ],
      "name": "recordInvestment",
      "outputs": [],
      "stateMutability": "nonpayable",
      "type": "function"
    },
    {
      "inputs": [
        {
          "internalType": "address",
          "name": "investor",
          "type": "address"
        },
        {
          "internalType": "address",
          "name": "fundraiseContract",
          "type": "address"
        },
        {
          "internalType": "uint256",
          "name": "amount",
          "type": "uint256"
        }
      ],
      "name": "recordJobInvestment",
      "outputs": [],
      "stateMutability": "nonpayable",
      "type": "function"
    },
    {
      "inputs": [
        {
          "internalType": "address",
          "name": "investor",
          "type": "address"
        },
        {
          "internalType": "address",
          "name": "fundraiseContract",
          "type": "address"
        },
        {
          "internalType": "uint256",
          "name": "amount",
          "type": "uint256"
        }
      ],
      "name": "recordJobPayout",
      "outputs": [],
      "stateMutability": "nonpayable",
      "type": "function"
    },
    {
      "inputs": [
        {
          "internalType": "address",
          "name": "investor",
          "type": "address"
        },
        {
          "internalType": "uint256",
          "name": "companyId",
          "type": "uint256"
        },
        {
          "internalType": "uint256",
          "name": "amount",
          "type": "uint256"
        }
      ],
      "name": "recordPayout",
      "outputs": [],
      "stateMutability": "nonpayable",
      "type": "function"
    },
    {
      "inputs": [
        {
          "internalType": "string",
          "name": "_metadataURI",
          "type": "string"
        }
      ],
      "name": "registerProfile",
      "outputs": [],
      "stateMutability": "nonpayable",
      "type": "function"
    },
    {
      "inputs": [],
      "name": "renounceOwnership",
      "outputs": [],
      "stateMutability": "nonpayable",
      "type": "function"
    },
    {
      "inputs": [
        {
          "internalType": "address",
          "name": "_companyRegistry",
          "type": "address"
        },
        {
          "internalType": "address",
          "name": "_fundraiseFactory",
          "type": "address"
        }
      ],
      "name": "setRegistries",
      "outputs": [],
      "stateMutability": "nonpayable",
      "type": "function"
    },
    {
      "inputs": [
        {
          "internalType": "address",
          "name": "newOwner",
          "type": "address"
        }
      ],
      "name": "transferOwnership",
      "outputs": [],
      "stateMutability": "nonpayable",
      "type": "function"
    }
  ],
  "bytecode": "0x60803461010a57601f61119f38819003918201601f19168301916001600160401b0383118484101761010f5780849260609460405283398101031261010a5761004781610125565b61005f604061005860208501610125565b9301610125565b6001600160a01b039091169182156100f457600080546001600160a01b031981168517825560405194916001600160a01b03909116907f8be0079c531659141344cd1fd0a4f28419497f9722a3daafe3b4186f6b6457e09080a3600a80546001600160a01b039283166001600160a01b031991821617909155600b8054939092169216919091179055611065908161013a8239f35b631e4fbdf760e01b600052600060045260246000fd5b600080fd5b634e487b7160e01b600052604160045260246000fd5b51906001600160a01b038216820361010a5756fe608080604052600436101561001357600080fd5b60003560e01c9081632128ea7414610cf4575080632e25f8b214610c6e578063399bdf2a14610c135780633fc9092014610a145780634a9273f0146109c957806360798ea91461093957806366d0ead3146108fa578063715018a6146108b357806371e250e3146108625780637435f911146108035780638da5cb5b146107da57806398eaa4a714610706578063b10fafe4146106dd578063b530a6ea146105d7578063bbe15627146104e9578063bbe22cc81461046b578063c51aba2b14610442578063d67d3f79146103ce578063e16fb2f91461023c578063eb22ae11146101825763f2fde38b1461010657600080fd5b3461017d57602036600319011261017d5761011f610da4565b610127610fc6565b6001600160a01b0316801561016757600080546001600160a01b03198116831782556001600160a01b031690600080516020610ff08339815191529080a3005b631e4fbdf760e01b600052600060045260246000fd5b600080fd5b3461017d57602036600319011261017d576001600160a01b036101a3610da4565b16600052600260205260406000206040518060208354918281520190819360005260206000209060005b81811061022657505050816101e3910382610e25565b6040519182916020830190602084525180915260408301919060005b81811061020d575050500390f35b82518452859450602093840193909201916001016101ff565b82548452602090930192600192830192016101cd565b3461017d5761024a36610ec3565b91909133600052600c60205261026760ff60406000205416610eed565b60018060a01b0382169182600052600360205260406000208460005260205260ff6040600020541615610338575b600080516020611010833981519152916020918560005260068352604060002085600052835260ff60406000205416156102f9575b508360005260048252604060002085600052825260406000206102ee828254610f34565b9055604051908152a3005b61030f9086600052600584526040600020610f85565b846000526006825260406000208460005282526040600020600160ff19825416179055856102ca565b826000526002602052604060002091825491600160401b8310156103b85761037783600080516020611010833981519152956001602096018155610f57565b81549060031b9088821b91600019901b1916179055846000526003835260406000208660005283526040600020600160ff1982541617905591509150610295565b634e487b7160e01b600052604160045260246000fd5b3461017d57604036600319011261017d576103e7610da4565b6103ef610dba565b9060018060a01b0316600052600960205260406000209060018060a01b03166000526020526040806000206020825161042781610e0a565b60018354938483520154918291015282519182526020820152f35b3461017d57600036600319011261017d57600a546040516001600160a01b039091168152602090f35b3461017d5760207f8f118c6a001774bbdf5c8f7bf58cd1796b9a139343d43350cd4e40f25d520b6361049c36610ec3565b929193909333600052600c82526104ba60ff60406000205416610eed565b60018060a01b0316928360005260048252604060002085600052825260016040600020016102ee828254610f34565b3461017d57602036600319011261017d576001600160a01b0361050a610da4565b16600052600160205260406000206040516000825461052881610e48565b80845290600181169081156105b45750600114610578575b50600161056c936105558460ff940385610e25565b015416604051928392604084526040840190610e82565b90151560208301520390f35b6000848152602081209092505b81831061059a57505081016020016001610540565b600181602092949394548385880101520191019190610585565b60ff191660208086019190915291151560051b8401909101915060019050610540565b3461017d577f175a07343ca072b9aeeb678e64cc046eaa7e90c22e8acc9d4f737c17d5fd7f87602061060836610dd0565b939192909233600052600c825261062660ff60406000205416610eed565b60018060a01b0316928360005260088252604060002060018060a01b038216600052825260ff6040600020541615610699575b60008481526009835260408082206001600160a01b0384168352845290208054610684908790610f34565b90556040519485526001600160a01b031693a3005b83600052600782526106af816040600020610f85565b60008481526008835260408082206001600160a01b038416835284529020805460ff19166001179055610659565b3461017d57600036600319011261017d57600b546040516001600160a01b039091168152602090f35b3461017d57602036600319011261017d5761071f610da4565b600a546001600160a01b0316331480156107c6575b15610781576001600160a01b03166000818152600c60205260408120805460ff191660011790557f8983a1f3c3cb45c24c8226b5b805e3b6eb49686530b808534b2a920129eff6519080a2005b60405162461bcd60e51b815260206004820152601d60248201527f4f6e6c7920726567697374726965732063616e20617574686f72697a650000006044820152606490fd5b50600b546001600160a01b03163314610734565b3461017d57600036600319011261017d576000546040516001600160a01b039091168152602090f35b3461017d57604036600319011261017d5761081c610da4565b610824610dba565b9060018060a01b0316600052600960205260406000209060018060a01b03166000526020526040806000206001815491015482519182526020820152f35b3461017d57604036600319011261017d576001600160a01b03610883610da4565b16600052600460205260406000206024356000526020526040806000206001815491015482519182526020820152f35b3461017d57600036600319011261017d576108cc610fc6565b600080546001600160a01b0319811682556001600160a01b0316600080516020610ff08339815191528280a3005b3461017d57602036600319011261017d576001600160a01b0361091b610da4565b16600052600c602052602060ff604060002054166040519015158152f35b3461017d57602036600319011261017d576001600160a01b0361095a610da4565b166000526007602052604060002060405190816020825491828152019160005260206000209060005b8181106109aa576109a68561099a81870382610e25565b60405191829182610d61565b0390f35b82546001600160a01b0316845260209093019260019283019201610983565b3461017d57604036600319011261017d576001600160a01b036109ea610da4565b16600052600460205260406000206024356000526020526040806000206020825161042781610e0a565b3461017d57602036600319011261017d576004356001600160401b03811161017d573660238201121561017d5760048101356001600160401b0381116103b85760405191610a6c601f8301601f191660200184610e25565b818352366024838301011161017d5781600092602460209301838601378301015260405190610a9a82610e0a565b80825260208201600181523360005260016020526040600020925192835160018060401b0381116103b857610acf8254610e48565b601f8111610bcb575b506020601f8211600114610b625781906001949596600092610b57575b5050600019600383901b1c191690831b1781555b019051151560ff801983541691161790557fdd635a4cd84864e37e4479dbfc2ec667acfa473c83c8422a8ac9d9d07599b01c6040516020815280610b5233946020830190610e82565b0390a2005b015190508680610af5565b601f1982169583600052816000209660005b818110610bb35750916001959697918487959410610b9a575b505050811b018155610b09565b015160001960f88460031b161c19169055868080610b8d565b83830151895560019098019760209384019301610b74565b826000526020600020601f830160051c81019160208410610c09575b601f0160051c01905b818110610bfd5750610ad8565b60008155600101610bf0565b9091508190610be7565b3461017d57604036600319011261017d57610c2c610da4565b610c34610dba565b90610c3d610fc6565b600a80546001600160a01b039283166001600160a01b031991821617909155600b8054939092169216919091179055005b3461017d577f9c0fb5f38e476a04750b19a48973b409b1c6ac778d557053f0aa522be612362e6020610c9f36610dd0565b939192909233600052600c8252610cbd60ff60406000205416610eed565b60018060a01b0316928360005260098252604060002060018060a01b03821660005282526001604060002001610684868254610f34565b3461017d57602036600319011261017d57600435600052600560205260406000208054808352602083019160005260206000209060005b818110610d42576109a68561099a81870382610e25565b82546001600160a01b0316845260209093019260019283019201610d2b565b602060408183019282815284518094520192019060005b818110610d855750505090565b82516001600160a01b0316845260209384019390920191600101610d78565b600435906001600160a01b038216820361017d57565b602435906001600160a01b038216820361017d57565b606090600319011261017d576004356001600160a01b038116810361017d57906024356001600160a01b038116810361017d579060443590565b604081019081106001600160401b038211176103b857604052565b601f909101601f19168101906001600160401b038211908210176103b857604052565b90600182811c92168015610e78575b6020831014610e6257565b634e487b7160e01b600052602260045260246000fd5b91607f1691610e57565b919082519283825260005b848110610eae575050826000602080949584010152601f8019910116010190565b80602080928401015182828601015201610e8d565b606090600319011261017d576004356001600160a01b038116810361017d57906024359060443590565b15610ef457565b60405162461bcd60e51b815260206004820152601860248201527710d85b1b195c881a5cc81b9bdd08185d5d1a1bdc9a5e995960421b6044820152606490fd5b91908201809211610f4157565b634e487b7160e01b600052601160045260246000fd5b8054821015610f6f5760005260206000200190600090565b634e487b7160e01b600052603260045260246000fd5b8054600160401b8110156103b857610fa291600182018155610f57565b81546001600160a01b0393841660039290921b91821b9390911b1916919091179055565b6000546001600160a01b03163303610fda57565b63118cdaa760e01b6000523360045260246000fdfe8be0079c531659141344cd1fd0a4f28419497f9722a3daafe3b4186f6b6457e0bcada874badf13d9ef982c752ad12b07cad5d130d8500a9aee7b577ffbf3a029a26469706673582212203f8a88aac27059140e7fd540d1abc875d0c5caa24e290b5ab0eccf672ce0a65e64736f6c634300081c0033",
  "linkReferences": {},
  "deployedLinkReferences": {}
}