{
  "_format": "hh-sol-artifact-1",
  "contractName": "InvestorRegistry",
  "sourceName": "contracts/CompanyShares/InvestorRegistry.sol",
  "abi": [
    {
      "inputs": [
        {
          "internalType": "address",
          "name": "initialOwner",
          "type": "address"
        },
        {
          "internalType": "address",
          "name": "_companyRegistry",
          "type": "address"
        },
        {
          "internalType": "address",
          "name": "_fundraiseFactory",
          "type": "address"
        }
      ],
      "stateMutability": "nonpayable",
      "type": "constructor"
    },
    {
      "inputs": [
        {
          "internalType": "address",
          "name": "owner",
          "type": "address"
        }
      ],
      "name": "OwnableInvalidOwner",
      "type": "error"
    },
    {
      "inputs": [
        {
          "internalType": "address",
          "name": "account",
          "type": "address"
        }
      ],
      "name": "OwnableUnauthorizedAccount",
      "type": "error"
    },
    {
      "anonymous": false,
      "inputs": [
        {
          "indexed": true,
          "internalType": "address",
          "name": "investor",
          "type": "address"
        },
        {
          "indexed": true,
          "internalType": "uint256",
          "name": "companyId",
          "type": "uint256"
        },
        {
          "indexed": false,
          "internalType": "uint256",
          "name": "amount",
          "type": "uint256"
        }
      ],
      "name": "CompanyInvestmentRecorded",
      "type": "event"
    },
    {
      "anonymous": false,
      "inputs": [
        {
          "indexed": true,
          "internalType": "address",
          "name": "investor",
          "type": "address"
        },
        {
          "indexed": true,
          "internalType": "uint256",
          "name": "companyId",
          "type": "uint256"
        },
        {
          "indexed": false,
          "internalType": "uint256",
          "name": "amount",
          "type": "uint256"
        }
      ],
      "name": "CompanyPayoutRecorded",
      "type": "event"
    },
    {
      "anonymous": false,
      "inputs": [
        {
          "indexed": true,
          "internalType": "address",
          "name": "contractAddress",
          "type": "address"
        }
      ],
      "name": "ContractAuthorized",
      "type": "event"
    },
    {
      "anonymous": false,
      "inputs": [
        {
          "indexed": true,
          "internalType": "address",
          "name": "investor",
          "type": "address"
        },
        {
          "indexed": true,
          "internalType": "address",
          "name": "fundraiseContract",
          "type": "address"
        },
        {
          "indexed": false,
          "internalType": "uint256",
          "name": "amount",
          "type": "uint256"
        }
      ],
      "name": "JobInvestmentRecorded",
      "type": "event"
    },
    {
      "anonymous": false,
      "inputs": [
        {
          "indexed": true,
          "internalType": "address",
          "name": "investor",
          "type": "address"
        },
        {
          "indexed": true,
          "internalType": "address",
          "name": "fundraiseContract",
          "type": "address"
        },
        {
          "indexed": false,
          "internalType": "uint256",
          "name": "amount",
          "type": "uint256"
        }
      ],
      "name": "JobPayoutRecorded",
      "type": "event"
    },
    {
      "anonymous": false,
      "inputs": [
        {
          "indexed": true,
          "internalType": "address",
          "name": "previousOwner",
          "type": "address"
        },
        {
          "indexed": true,
          "internalType": "address",
          "name": "newOwner",
          "type": "address"
        }
      ],
      "name": "OwnershipTransferred",
      "type": "event"
    },
    {
      "anonymous": false,
      "inputs": [
        {
          "indexed": true,
          "internalType": "address",
          "name": "investor",
          "type": "address"
        },
        {
          "indexed": false,
          "internalType": "string",
          "name": "metadataURI",
          "type": "string"
        }
      ],
      "name": "ProfileUpdated",
      "type": "event"
    },
    {
      "inputs": [
        {
          "internalType": "address",
          "name": "_contract",
          "type": "address"
        }
      ],
      "name": "addAuthorizedContract",
      "outputs": [],
      "stateMutability": "nonpayable",
      "type": "function"
    },
    {
      "inputs": [
        {
          "internalType": "address",
          "name": "",
          "type": "address"
        },
        {
          "internalType": "uint256",
          "name": "",
          "type": "uint256"
        }
      ],
      "name": "companyInvestmentStats",
      "outputs": [
        {
          "internalType": "uint256",
          "name": "totalInvested",
          "type": "uint256"
        },
        {
          "internalType": "uint256",
          "name": "totalPayouts",
          "type": "uint256"
        }
      ],
      "stateMutability": "view",
      "type": "function"
    },
    {
      "inputs": [],
      "name": "companyRegistry",
      "outputs": [
        {
          "internalType": "address",
          "name": "",
          "type": "address"
        }
      ],
      "stateMutability": "view",
      "type": "function"
    },
    {
      "inputs": [],
      "name": "fundraiseFactory",
      "outputs": [
        {
          "internalType": "address",
          "name": "",
          "type": "address"
        }
      ],
      "stateMutability": "view",
      "type": "function"
    },
    {
      "inputs": [
        {
          "internalType": "address",
          "name": "investor",
          "type": "address"
        },
        {
          "internalType": "uint256",
          "name": "companyId",
          "type": "uint256"
        }
      ],
      "name": "getInvestmentStats",
      "outputs": [
        {
          "internalType": "uint256",
          "name": "",
          "type": "uint256"
        },
        {
          "internalType": "uint256",
          "name": "",
          "type": "uint256"
        }
      ],
      "stateMutability": "view",
      "type": "function"
    },
    {
      "inputs": [
        {
          "internalType": "address",
          "name": "investor",
          "type": "address"
        },
        {
          "internalType": "address",
          "name": "fundraiseContract",
          "type": "address"
        }
      ],
      "name": "getJobInvestmentStats",
      "outputs": [
        {
          "internalType": "uint256",
          "name": "",
          "type": "uint256"
        },
        {
          "internalType": "uint256",
          "name": "",
          "type": "uint256"
        }
      ],
      "stateMutability": "view",
      "type": "function"
    },
    {
      "inputs": [
        {
          "internalType": "address",
          "name": "investor",
          "type": "address"
        }
      ],
      "name": "getJobPortfolio",
      "outputs": [
        {
          "internalType": "address[]",
          "name": "",
          "type": "address[]"
        }
      ],
      "stateMutability": "view",
      "type": "function"
    },
    {
      "inputs": [
        {
          "internalType": "address",
          "name": "investor",
          "type": "address"
        }
      ],
      "name": "getPortfolio",
      "outputs": [
        {
          "internalType": "uint256[]",
          "name": "",
          "type": "uint256[]"
        }
      ],
      "stateMutability": "view",
      "type": "function"
    },
    {
      "inputs": [
        {
          "internalType": "address",
          "name": "",
          "type": "address"
        }
      ],
      "name": "isAuthorizedContract",
      "outputs": [
        {
          "internalType": "bool",
          "name": "",
          "type": "bool"
        }
      ],
      "stateMutability": "view",
      "type": "function"
    },
    {
      "inputs": [
        {
          "internalType": "address",
          "name": "",
          "type": "address"
        },
        {
          "internalType": "address",
          "name": "",
          "type": "address"
        }
      ],
      "name": "jobInvestmentStats",
      "outputs": [
        {
          "internalType": "uint256",
          "name": "totalInvested",
          "type": "uint256"
        },
        {
          "internalType": "uint256",
          "name": "totalPayouts",
          "type": "uint256"
        }
      ],
      "stateMutability": "view",
      "type": "function"
    },
    {
      "inputs": [],
      "name": "owner",
      "outputs": [
        {
          "internalType": "address",
          "name": "",
          "type": "address"
        }
      ],
      "stateMutability": "view",
      "type": "function"
    },
    {
      "inputs": [
        {
          "internalType": "address",
          "name": "",
          "type": "address"
        }
      ],
      "name": "profiles",
      "outputs": [
        {
          "internalType": "string",
          "name": "metadataURI",
          "type": "string"
        },
        {
          "internalType": "bool",
          "name": "exists",
          "type": "bool"
        }
      ],
      "stateMutability": "view",
      "type": "function"
    },
    {
      "inputs": [
        {
          "internalType": "address",
          "name": "investor",
          "type": "address"
        },
        {
          "internalType": "uint256",
          "name": "companyId",
          "type": "uint256"
        },
        {
          "internalType": "uint256",
          "name": "amount",
          "type": "uint256"
        }
      ],
      "name": "recordInvestment",
      "outputs": [],
      "stateMutability": "nonpayable",
      "type": "function"
    },
    {
      "inputs": [
        {
          "internalType": "address",
          "name": "investor",
          "type": "address"
        },
        {
          "internalType": "address",
          "name": "fundraiseContract",
          "type": "address"
        },
        {
          "internalType": "uint256",
          "name": "amount",
          "type": "uint256"
        }
      ],
      "name": "recordJobInvestment",
      "outputs": [],
      "stateMutability": "nonpayable",
      "type": "function"
    },
    {
      "inputs": [
        {
          "internalType": "address",
          "name": "investor",
          "type": "address"
        },
        {
          "internalType": "address",
          "name": "fundraiseContract",
          "type": "address"
        },
        {
          "internalType": "uint256",
          "name": "amount",
          "type": "uint256"
        }
      ],
      "name": "recordJobPayout",
      "outputs": [],
      "stateMutability": "nonpayable",
      "type": "function"
    },
    {
      "inputs": [
        {
          "internalType": "address",
          "name": "investor",
          "type": "address"
        },
        {
          "internalType": "uint256",
          "name": "companyId",
          "type": "uint256"
        },
        {
          "internalType": "uint256",
          "name": "amount",
          "type": "uint256"
        }
      ],
      "name": "recordPayout",
      "outputs": [],
      "stateMutability": "nonpayable",
      "type": "function"
    },
    {
      "inputs": [
        {
          "internalType": "string",
          "name": "_metadataURI",
          "type": "string"
        }
      ],
      "name": "registerProfile",
      "outputs": [],
      "stateMutability": "nonpayable",
      "type": "function"
    },
    {
      "inputs": [],
      "name": "renounceOwnership",
      "outputs": [],
      "stateMutability": "nonpayable",
      "type": "function"
    },
    {
      "inputs": [
        {
          "internalType": "address",
          "name": "_companyRegistry",
          "type": "address"
        },
        {
          "internalType": "address",
          "name": "_fundraiseFactory",
          "type": "address"
        }
      ],
      "name": "setRegistries",
      "outputs": [],
      "stateMutability": "nonpayable",
      "type": "function"
    },
    {
      "inputs": [
        {
          "internalType": "address",
          "name": "newOwner",
          "type": "address"
        }
      ],
      "name": "transferOwnership",
      "outputs": [],
      "stateMutability": "nonpayable",
      "type": "function"
    }
  ],
  "bytecode": "0x60803461010a57601f6110ca38819003918201601f19168301916001600160401b0383118484101761010f5780849260609460405283398101031261010a5761004781610125565b61005f604061005860208501610125565b9301610125565b6001600160a01b039091169182156100f457600080546001600160a01b031981168517825560405194916001600160a01b03909116907f8be0079c531659141344cd1fd0a4f28419497f9722a3daafe3b4186f6b6457e09080a3600880546001600160a01b039283166001600160a01b03199182161790915560098054939092169216919091179055610f90908161013a8239f35b631e4fbdf760e01b600052600060045260246000fd5b600080fd5b634e487b7160e01b600052604160045260246000fd5b51906001600160a01b038216820361010a5756fe6080604052600436101561001257600080fd5b60003560e01c80632e25f8b214610c6a578063399bdf2a14610c0f5780633fc9092014610a105780634a9273f0146109c557806360798ea9146108f957806366d0ead3146108ba578063715018a61461087357806371e250e3146108225780637435f911146107c35780638da5cb5b1461079a57806398eaa4a7146106c6578063b10fafe41461069d578063b530a6ea14610563578063bbe1562714610475578063bbe22cc8146103f7578063c51aba2b146103ce578063d67d3f791461035a578063e16fb2f91461022e578063eb22ae11146101745763f2fde38b146100f857600080fd5b3461016f57602036600319011261016f57610111610cf0565b610119610ed1565b6001600160a01b0316801561015957600080546001600160a01b03198116831782556001600160a01b031690600080516020610efb8339815191529080a3005b631e4fbdf760e01b600052600060045260246000fd5b600080fd5b3461016f57602036600319011261016f576001600160a01b03610195610cf0565b16600052600260205260406000206040518060208354918281520190819360005260206000209060005b81811061021857505050816101d5910382610d71565b6040519182916020830190602084525180915260408301919060005b8181106101ff575050500390f35b82518452859450602093840193909201916001016101f1565b82548452602090930192600192830192016101bf565b3461016f5761023c36610e0f565b909133600052600a60205261025860ff60406000205416610e39565b60018060a01b03169081600052600360205260406000208360005260205260ff60406000205416156102c5575b6020600080516020610f1b833981519152918360005260048252604060002085600052825260406000206102ba828254610e80565b9055604051908152a3005b600082815260026020526040902080549091600160401b8210156103445761030482600080516020610f1b833981519152946001602095018155610ea3565b81549060031b9087821b91600019901b1916179055836000526003825260406000208560005282526040600020600160ff19825416179055915050610285565b634e487b7160e01b600052604160045260246000fd5b3461016f57604036600319011261016f57610373610cf0565b61037b610d06565b9060018060a01b0316600052600760205260406000209060018060a01b0316600052602052604080600020602082516103b381610d56565b60018354938483520154918291015282519182526020820152f35b3461016f57600036600319011261016f576008546040516001600160a01b039091168152602090f35b3461016f5760207f8f118c6a001774bbdf5c8f7bf58cd1796b9a139343d43350cd4e40f25d520b6361042836610e0f565b929193909333600052600a825261044660ff60406000205416610e39565b60018060a01b0316928360005260048252604060002085600052825260016040600020016102ba828254610e80565b3461016f57602036600319011261016f576001600160a01b03610496610cf0565b1660005260016020526040600020604051600082546104b481610d94565b80845290600181169081156105405750600114610504575b5060016104f8936104e18460ff940385610d71565b015416604051928392604084526040840190610dce565b90151560208301520390f35b6000848152602081209092505b818310610526575050810160200160016104cc565b600181602092949394548385880101520191019190610511565b60ff191660208086019190915291151560051b84019091019150600190506104cc565b3461016f5761057136610d1c565b9133600052600a60205261058c60ff60406000205416610e39565b60018060a01b031690816000526006602052604060002060018060a01b03821660005260205260ff6040600020541615610613575b6020600080516020610f3b833981519152918360005260078252604060002060018060a01b038216600052825260406000206105fe868254610e80565b90556040519485526001600160a01b031693a3005b600082815260056020526040902080549091600160401b8210156103445761065282600080516020610f3b833981519152946001602095018155610ea3565b81546001600160a01b0384811660039390931b83811b91901b1990911617909155600085815260068452604080822092825291909352909120805460ff1916600117905590506105c1565b3461016f57600036600319011261016f576009546040516001600160a01b039091168152602090f35b3461016f57602036600319011261016f576106df610cf0565b6008546001600160a01b031633148015610786575b15610741576001600160a01b03166000818152600a60205260408120805460ff191660011790557f8983a1f3c3cb45c24c8226b5b805e3b6eb49686530b808534b2a920129eff6519080a2005b60405162461bcd60e51b815260206004820152601d60248201527f4f6e6c7920726567697374726965732063616e20617574686f72697a650000006044820152606490fd5b506009546001600160a01b031633146106f4565b3461016f57600036600319011261016f576000546040516001600160a01b039091168152602090f35b3461016f57604036600319011261016f576107dc610cf0565b6107e4610d06565b9060018060a01b0316600052600760205260406000209060018060a01b03166000526020526040806000206001815491015482519182526020820152f35b3461016f57604036600319011261016f576001600160a01b03610843610cf0565b16600052600460205260406000206024356000526020526040806000206001815491015482519182526020820152f35b3461016f57600036600319011261016f5761088c610ed1565b600080546001600160a01b0319811682556001600160a01b0316600080516020610efb8339815191528280a3005b3461016f57602036600319011261016f576001600160a01b036108db610cf0565b16600052600a602052602060ff604060002054166040519015158152f35b3461016f57602036600319011261016f576001600160a01b0361091a610cf0565b16600052600560205260406000206040518060208354918281520190819360005260206000209060005b8181106109a6575050508161095a910382610d71565b6040519182916020830190602084525180915260408301919060005b818110610984575050500390f35b82516001600160a01b0316845285945060209384019390920191600101610976565b82546001600160a01b0316845260209093019260019283019201610944565b3461016f57604036600319011261016f576001600160a01b036109e6610cf0565b1660005260046020526040600020602435600052602052604080600020602082516103b381610d56565b3461016f57602036600319011261016f576004356001600160401b03811161016f573660238201121561016f5760048101356001600160401b0381116103445760405191610a68601f8301601f191660200184610d71565b818352366024838301011161016f5781600092602460209301838601378301015260405190610a9682610d56565b80825260208201600181523360005260016020526040600020925192835160018060401b03811161034457610acb8254610d94565b601f8111610bc7575b506020601f8211600114610b5e5781906001949596600092610b53575b5050600019600383901b1c191690831b1781555b019051151560ff801983541691161790557fdd635a4cd84864e37e4479dbfc2ec667acfa473c83c8422a8ac9d9d07599b01c6040516020815280610b4e33946020830190610dce565b0390a2005b015190508680610af1565b601f1982169583600052816000209660005b818110610baf5750916001959697918487959410610b96575b505050811b018155610b05565b015160001960f88460031b161c19169055868080610b89565b83830151895560019098019760209384019301610b70565b826000526020600020601f830160051c81019160208410610c05575b601f0160051c01905b818110610bf95750610ad4565b60008155600101610bec565b9091508190610be3565b3461016f57604036600319011261016f57610c28610cf0565b610c30610d06565b90610c39610ed1565b600880546001600160a01b039283166001600160a01b03199182161790915560098054939092169216919091179055005b3461016f577f9c0fb5f38e476a04750b19a48973b409b1c6ac778d557053f0aa522be612362e6020610c9b36610d1c565b939192909233600052600a8252610cb960ff60406000205416610e39565b60018060a01b0316928360005260078252604060002060018060a01b038216600052825260016040600020016105fe868254610e80565b600435906001600160a01b038216820361016f57565b602435906001600160a01b038216820361016f57565b606090600319011261016f576004356001600160a01b038116810361016f57906024356001600160a01b038116810361016f579060443590565b604081019081106001600160401b0382111761034457604052565b601f909101601f19168101906001600160401b0382119082101761034457604052565b90600182811c92168015610dc4575b6020831014610dae57565b634e487b7160e01b600052602260045260246000fd5b91607f1691610da3565b919082519283825260005b848110610dfa575050826000602080949584010152601f8019910116010190565b80602080928401015182828601015201610dd9565b606090600319011261016f576004356001600160a01b038116810361016f57906024359060443590565b15610e4057565b60405162461bcd60e51b815260206004820152601860248201527710d85b1b195c881a5cc81b9bdd08185d5d1a1bdc9a5e995960421b6044820152606490fd5b91908201809211610e8d57565b634e487b7160e01b600052601160045260246000fd5b8054821015610ebb5760005260206000200190600090565b634e487b7160e01b600052603260045260246000fd5b6000546001600160a01b03163303610ee557565b63118cdaa760e01b6000523360045260246000fdfe8be0079c531659141344cd1fd0a4f28419497f9722a3daafe3b4186f6b6457e0bcada874badf13d9ef982c752ad12b07cad5d130d8500a9aee7b577ffbf3a029175a07343ca072b9aeeb678e64cc046eaa7e90c22e8acc9d4f737c17d5fd7f87a26469706673582212202062b57013b4d1f0ff8391136fa8ea40c605ed6d8d2104878962fab8884ea64364736f6c634300081c0033",
  "linkReferences": {},
  "deployedLinkReferences": {}
}