{
  "_format": "hh-sol-artifact-1",
  "contractName": "InvestorRegistry",
  "sourceName": "contracts/CompanyShares/InvestorRegistry.sol",
  "abi": [
    {
      "inputs": [
        {
          "internalType": "address",
          "name": "initialOwner",
          "type": "address"
        },
        {
          "internalType": "address",
          "name": "_companyRegistry",
          "type": "address"
        },
        {
          "internalType": "address",
          "name": "_fundraiseFactory",
          "type": "address"
        }
      ],
      "stateMutability": "nonpayable",
      "type": "constructor"
    },
    {
      "inputs": [
        {
          "internalType": "address",
          "name": "owner",
          "type": "address"
        }
      ],
      "name": "OwnableInvalidOwner",
      "type": "error"
    },
    {
      "inputs": [
        {
          "internalType": "address",
          "name": "account",
          "type": "address"
        }
      ],
      "name": "OwnableUnauthorizedAccount",
      "type": "error"
    },
    {
      "anonymous": false,
      "inputs": [
        {
          "indexed": true,
          "internalType": "address",
          "name": "investor",
          "type": "address"
        },
        {
          "indexed": true,
          "internalType": "uint256",
          "name": "companyId",
          "type": "uint256"
        },
        {
          "indexed": false,
          "internalType": "uint256",
          "name": "amount",
          "type": "uint256"
        }
      ],
      "name": "CompanyInvestmentRecorded",
      "type": "event"
    },
    {
      "anonymous": false,
      "inputs": [
        {
          "indexed": true,
          "internalType": "address",
          "name": "investor",
          "type": "address"
        },
        {
          "indexed": true,
          "internalType": "uint256",
          "name": "companyId",
          "type": "uint256"
        },
        {
          "indexed": false,
          "internalType": "uint256",
          "name": "amount",
          "type": "uint256"
        }
      ],
      "name": "CompanyPayoutRecorded",
      "type": "event"
    },
    {
      "anonymous": false,
      "inputs": [
        {
          "indexed": true,
          "internalType": "address",
          "name": "contractAddress",
          "type": "address"
        }
      ],
      "name": "ContractAuthorized",
      "type": "event"
    },
    {
      "anonymous": false,
      "inputs": [
        {
          "indexed": true,
          "internalType": "address",
          "name": "investor",
          "type": "address"
        },
        {
          "indexed": true,
          "internalType": "address",
          "name": "fundraiseContract",
          "type": "address"
        },
        {
          "indexed": false,
          "internalType": "uint256",
          "name": "amount",
          "type": "uint256"
        }
      ],
      "name": "JobInvestmentRecorded",
      "type": "event"
    },
    {
      "anonymous": false,
      "inputs": [
        {
          "indexed": true,
          "internalType": "address",
          "name": "investor",
          "type": "address"
        },
        {
          "indexed": true,
          "internalType": "address",
          "name": "fundraiseContract",
          "type": "address"
        },
        {
          "indexed": false,
          "internalType": "uint256",
          "name": "amount",
          "type": "uint256"
        }
      ],
      "name": "JobPayoutRecorded",
      "type": "event"
    },
    {
      "anonymous": false,
      "inputs": [
        {
          "indexed": true,
          "internalType": "address",
          "name": "previousOwner",
          "type": "address"
        },
        {
          "indexed": true,
          "internalType": "address",
          "name": "newOwner",
          "type": "address"
        }
      ],
      "name": "OwnershipTransferred",
      "type": "event"
    },
    {
      "anonymous": false,
      "inputs": [
        {
          "indexed": true,
          "internalType": "address",
          "name": "investor",
          "type": "address"
        },
        {
          "indexed": false,
          "internalType": "string",
          "name": "metadataURI",
          "type": "string"
        }
      ],
      "name": "ProfileUpdated",
      "type": "event"
    },
    {
      "inputs": [
        {
          "internalType": "address",
          "name": "_contract",
          "type": "address"
        }
      ],
      "name": "addAuthorizedContract",
      "outputs": [],
      "stateMutability": "nonpayable",
      "type": "function"
    },
    {
      "inputs": [
        {
          "internalType": "address",
          "name": "",
          "type": "address"
        },
        {
          "internalType": "uint256",
          "name": "",
          "type": "uint256"
        }
      ],
      "name": "companyInvestmentStats",
      "outputs": [
        {
          "internalType": "uint256",
          "name": "totalInvested",
          "type": "uint256"
        },
        {
          "internalType": "uint256",
          "name": "totalPayouts",
          "type": "uint256"
        }
      ],
      "stateMutability": "view",
      "type": "function"
    },
    {
      "inputs": [],
      "name": "companyRegistry",
      "outputs": [
        {
          "internalType": "address",
          "name": "",
          "type": "address"
        }
      ],
      "stateMutability": "view",
      "type": "function"
    },
    {
      "inputs": [],
      "name": "fundraiseFactory",
      "outputs": [
        {
          "internalType": "address",
          "name": "",
          "type": "address"
        }
      ],
      "stateMutability": "view",
      "type": "function"
    },
    {
      "inputs": [
        {
          "internalType": "address",
          "name": "investor",
          "type": "address"
        },
        {
          "internalType": "uint256",
          "name": "companyId",
          "type": "uint256"
        }
      ],
      "name": "getInvestmentStats",
      "outputs": [
        {
          "internalType": "uint256",
          "name": "",
          "type": "uint256"
        },
        {
          "internalType": "uint256",
          "name": "",
          "type": "uint256"
        }
      ],
      "stateMutability": "view",
      "type": "function"
    },
    {
      "inputs": [
        {
          "internalType": "address",
          "name": "investor",
          "type": "address"
        },
        {
          "internalType": "address",
          "name": "fundraiseContract",
          "type": "address"
        }
      ],
      "name": "getJobInvestmentStats",
      "outputs": [
        {
          "internalType": "uint256",
          "name": "",
          "type": "uint256"
        },
        {
          "internalType": "uint256",
          "name": "",
          "type": "uint256"
        }
      ],
      "stateMutability": "view",
      "type": "function"
    },
    {
      "inputs": [
        {
          "internalType": "address",
          "name": "investor",
          "type": "address"
        }
      ],
      "name": "getJobPortfolio",
      "outputs": [
        {
          "internalType": "address[]",
          "name": "",
          "type": "address[]"
        }
      ],
      "stateMutability": "view",
      "type": "function"
    },
    {
      "inputs": [
        {
          "internalType": "address",
          "name": "investor",
          "type": "address"
        }
      ],
      "name": "getPortfolio",
      "outputs": [
        {
          "internalType": "uint256[]",
          "name": "",
          "type": "uint256[]"
        }
      ],
      "stateMutability": "view",
      "type": "function"
    },
    {
      "inputs": [
        {
          "internalType": "address",
          "name": "",
          "type": "address"
        }
      ],
      "name": "isAuthorizedContract",
      "outputs": [
        {
          "internalType": "bool",
          "name": "",
          "type": "bool"
        }
      ],
      "stateMutability": "view",
      "type": "function"
    },
    {
      "inputs": [
        {
          "internalType": "address",
          "name": "",
          "type": "address"
        },
        {
          "internalType": "address",
          "name": "",
          "type": "address"
        }
      ],
      "name": "jobInvestmentStats",
      "outputs": [
        {
          "internalType": "uint256",
          "name": "totalInvested",
          "type": "uint256"
        },
        {
          "internalType": "uint256",
          "name": "totalPayouts",
          "type": "uint256"
        }
      ],
      "stateMutability": "view",
      "type": "function"
    },
    {
      "inputs": [],
      "name": "owner",
      "outputs": [
        {
          "internalType": "address",
          "name": "",
          "type": "address"
        }
      ],
      "stateMutability": "view",
      "type": "function"
    },
    {
      "inputs": [
        {
          "internalType": "address",
          "name": "",
          "type": "address"
        }
      ],
      "name": "profiles",
      "outputs": [
        {
          "internalType": "string",
          "name": "metadataURI",
          "type": "string"
        },
        {
          "internalType": "bool",
          "name": "exists",
          "type": "bool"
        }
      ],
      "stateMutability": "view",
      "type": "function"
    },
    {
      "inputs": [
        {
          "internalType": "address",
          "name": "investor",
          "type": "address"
        },
        {
          "internalType": "uint256",
          "name": "companyId",
          "type": "uint256"
        },
        {
          "internalType": "uint256",
          "name": "amount",
          "type": "uint256"
        }
      ],
      "name": "recordInvestment",
      "outputs": [],
      "stateMutability": "nonpayable",
      "type": "function"
    },
    {
      "inputs": [
        {
          "internalType": "address",
          "name": "investor",
          "type": "address"
        },
        {
          "internalType": "address",
          "name": "fundraiseContract",
          "type": "address"
        },
        {
          "internalType": "uint256",
          "name": "amount",
          "type": "uint256"
        }
      ],
      "name": "recordJobInvestment",
      "outputs": [],
      "stateMutability": "nonpayable",
      "type": "function"
    },
    {
      "inputs": [
        {
          "internalType": "address",
          "name": "investor",
          "type": "address"
        },
        {
          "internalType": "address",
          "name": "fundraiseContract",
          "type": "address"
        },
        {
          "internalType": "uint256",
          "name": "amount",
          "type": "uint256"
        }
      ],
      "name": "recordJobPayout",
      "outputs": [],
      "stateMutability": "nonpayable",
      "type": "function"
    },
    {
      "inputs": [
        {
          "internalType": "address",
          "name": "investor",
          "type": "address"
        },
        {
          "internalType": "uint256",
          "name": "companyId",
          "type": "uint256"
        },
        {
          "internalType": "uint256",
          "name": "amount",
          "type": "uint256"
        }
      ],
      "name": "recordPayout",
      "outputs": [],
      "stateMutability": "nonpayable",
      "type": "function"
    },
    {
      "inputs": [
        {
          "internalType": "string",
          "name": "_metadataURI",
          "type": "string"
        }
      ],
      "name": "registerProfile",
      "outputs": [],
      "stateMutability": "nonpayable",
      "type": "function"
    },
    {
      "inputs": [],
      "name": "renounceOwnership",
      "outputs": [],
      "stateMutability": "nonpayable",
      "type": "function"
    },
    {
      "inputs": [
        {
          "internalType": "address",
          "name": "_companyRegistry",
          "type": "address"
        },
        {
          "internalType": "address",
          "name": "_fundraiseFactory",
          "type": "address"
        }
      ],
      "name": "setRegistries",
      "outputs": [],
      "stateMutability": "nonpayable",
      "type": "function"
    },
    {
      "inputs": [
        {
          "internalType": "address",
          "name": "newOwner",
          "type": "address"
        }
      ],
      "name": "transferOwnership",
      "outputs": [],
      "stateMutability": "nonpayable",
      "type": "function"
    }
  ],
  "bytecode": "0x60803461010a57601f6110df38819003918201601f19168301916001600160401b0383118484101761010f5780849260609460405283398101031261010a5761004781610125565b61005f604061005860208501610125565b9301610125565b6001600160a01b039091169182156100f457600080546001600160a01b031981168517825560405194916001600160a01b03909116907f8be0079c531659141344cd1fd0a4f28419497f9722a3daafe3b4186f6b6457e09080a3600880546001600160a01b039283166001600160a01b03199182161790915560098054939092169216919091179055610fa5908161013a8239f35b631e4fbdf760e01b600052600060045260246000fd5b600080fd5b634e487b7160e01b600052604160045260246000fd5b51906001600160a01b038216820361010a5756fe6080604052600436101561001257600080fd5b60003560e01c80632e25f8b214610cda578063399bdf2a14610c7f5780633fc9092014610a7c5780634a9273f014610a3157806360798ea91461096557806366d0ead314610926578063715018a6146108cd57806371e250e31461087c5780637435f9111461081d5780638da5cb5b146107f457806398eaa4a714610720578063b10fafe4146106f7578063b530a6ea14610599578063bbe15627146104ab578063bbe22cc81461042d578063c51aba2b14610404578063d67d3f7914610390578063e16fb2f914610240578063eb22ae11146101865763f2fde38b146100f857600080fd5b3461018157602036600319011261018157610111610d60565b610119610f46565b6001600160a01b0316801561016b57600080546001600160a01b03198116831782556001600160a01b0316907f8be0079c531659141344cd1fd0a4f28419497f9722a3daafe3b4186f6b6457e09080a3005b631e4fbdf760e01b600052600060045260246000fd5b600080fd5b34610181576020366003190112610181576001600160a01b036101a7610d60565b16600052600260205260406000206040518060208354918281520190819360005260206000209060005b81811061022a57505050816101e7910382610de2565b6040519182916020830190602084525180915260408301919060005b818110610211575050500390f35b8251845285945060209384019390920191600101610203565b82548452602090930192600192830192016101d1565b346101815761024e36610e7f565b909133600052600a60205261026a60ff60406000205416610ea9565b60018060a01b03169081600052600360205260406000208360005260205260ff60406000205416156102e9575b60207fbcada874badf13d9ef982c752ad12b07cad5d130d8500a9aee7b577ffbf3a029918360005260048252604060002085600052825260406000206102de828254610ef5565b9055604051908152a3005b816000526002602052604060002090815490600160401b82101561037a5761033a827fbcada874badf13d9ef982c752ad12b07cad5d130d8500a9aee7b577ffbf3a029946001602095018155610f18565b81549060031b9087821b91600019901b1916179055836000526003825260406000208560005282526040600020600160ff19825416179055915050610297565b634e487b7160e01b600052604160045260246000fd5b34610181576040366003190112610181576103a9610d60565b6103b1610d76565b9060018060a01b0316600052600760205260406000209060018060a01b0316600052602052604080600020602082516103e981610dc6565b60018354938483520154918291015282519182526020820152f35b34610181576000366003190112610181576008546040516001600160a01b039091168152602090f35b346101815760207f8f118c6a001774bbdf5c8f7bf58cd1796b9a139343d43350cd4e40f25d520b6361045e36610e7f565b929193909333600052600a825261047c60ff60406000205416610ea9565b60018060a01b0316928360005260048252604060002085600052825260016040600020016102de828254610ef5565b34610181576020366003190112610181576001600160a01b036104cc610d60565b1660005260016020526040600020604051600082546104ea81610e04565b8084529060018116908115610576575060011461053a575b50600161052e936105178460ff940385610de2565b015416604051928392604084526040840190610e3e565b90151560208301520390f35b6000848152602081209092505b81831061055c57505081016020016001610502565b600181602092949394548385880101520191019190610547565b60ff191660208086019190915291151560051b8401909101915060019050610502565b34610181576105a736610d8c565b9133600052600a6020526105c260ff60406000205416610ea9565b60018060a01b031690816000526006602052604060002060018060a01b03821660005260205260ff604060002054161561065b575b60207f175a07343ca072b9aeeb678e64cc046eaa7e90c22e8acc9d4f737c17d5fd7f87918360005260078252604060002060018060a01b03821660005282526040600020610646868254610ef5565b90556040519485526001600160a01b031693a3005b816000526005602052604060002090815490600160401b82101561037a576106ac827f175a07343ca072b9aeeb678e64cc046eaa7e90c22e8acc9d4f737c17d5fd7f87946001602095018155610f18565b81546001600160a01b0384811660039390931b83811b91901b1990911617909155600085815260068452604080822092825291909352909120805460ff1916600117905590506105f7565b34610181576000366003190112610181576009546040516001600160a01b039091168152602090f35b3461018157602036600319011261018157610739610d60565b6008546001600160a01b0316331480156107e0575b1561079b576001600160a01b03166000818152600a60205260408120805460ff191660011790557f8983a1f3c3cb45c24c8226b5b805e3b6eb49686530b808534b2a920129eff6519080a2005b60405162461bcd60e51b815260206004820152601d60248201527f4f6e6c7920726567697374726965732063616e20617574686f72697a650000006044820152606490fd5b506009546001600160a01b0316331461074e565b34610181576000366003190112610181576000546040516001600160a01b039091168152602090f35b3461018157604036600319011261018157610836610d60565b61083e610d76565b9060018060a01b0316600052600760205260406000209060018060a01b03166000526020526040806000206001815491015482519182526020820152f35b34610181576040366003190112610181576001600160a01b0361089d610d60565b16600052600460205260406000206024356000526020526040806000206001815491015482519182526020820152f35b34610181576000366003190112610181576108e6610f46565b600080546001600160a01b0319811682556001600160a01b03167f8be0079c531659141344cd1fd0a4f28419497f9722a3daafe3b4186f6b6457e08280a3005b34610181576020366003190112610181576001600160a01b03610947610d60565b16600052600a602052602060ff604060002054166040519015158152f35b34610181576020366003190112610181576001600160a01b03610986610d60565b16600052600560205260406000206040518060208354918281520190819360005260206000209060005b818110610a1257505050816109c6910382610de2565b6040519182916020830190602084525180915260408301919060005b8181106109f0575050500390f35b82516001600160a01b03168452859450602093840193909201916001016109e2565b82546001600160a01b03168452602090930192600192830192016109b0565b34610181576040366003190112610181576001600160a01b03610a52610d60565b1660005260046020526040600020602435600052602052604080600020602082516103e981610dc6565b346101815760203660031901126101815760043567ffffffffffffffff8111610181573660238201121561018157806004013567ffffffffffffffff811161037a5760405191610ad6601f8301601f191660200184610de2565b81835236602483830101116101815781600092602460209301838601378301015260405190610b0482610dc6565b80825260208201600181523360005260016020526040600020925192835167ffffffffffffffff811161037a57610b3b8254610e04565b601f8111610c37575b506020601f8211600114610bce5781906001949596600092610bc3575b5050600019600383901b1c191690831b1781555b019051151560ff801983541691161790557fdd635a4cd84864e37e4479dbfc2ec667acfa473c83c8422a8ac9d9d07599b01c6040516020815280610bbe33946020830190610e3e565b0390a2005b015190508680610b61565b601f1982169583600052816000209660005b818110610c1f5750916001959697918487959410610c06575b505050811b018155610b75565b015160001960f88460031b161c19169055868080610bf9565b83830151895560019098019760209384019301610be0565b826000526020600020601f830160051c81019160208410610c75575b601f0160051c01905b818110610c695750610b44565b60008155600101610c5c565b9091508190610c53565b3461018157604036600319011261018157610c98610d60565b610ca0610d76565b90610ca9610f46565b600880546001600160a01b039283166001600160a01b03199182161790915560098054939092169216919091179055005b34610181577f9c0fb5f38e476a04750b19a48973b409b1c6ac778d557053f0aa522be612362e6020610d0b36610d8c565b939192909233600052600a8252610d2960ff60406000205416610ea9565b60018060a01b0316928360005260078252604060002060018060a01b03821660005282526001604060002001610646868254610ef5565b600435906001600160a01b038216820361018157565b602435906001600160a01b038216820361018157565b6060906003190112610181576004356001600160a01b038116810361018157906024356001600160a01b0381168103610181579060443590565b6040810190811067ffffffffffffffff82111761037a57604052565b90601f8019910116810190811067ffffffffffffffff82111761037a57604052565b90600182811c92168015610e34575b6020831014610e1e57565b634e487b7160e01b600052602260045260246000fd5b91607f1691610e13565b919082519283825260005b848110610e6a575050826000602080949584010152601f8019910116010190565b80602080928401015182828601015201610e49565b6060906003190112610181576004356001600160a01b038116810361018157906024359060443590565b15610eb057565b60405162461bcd60e51b815260206004820152601860248201527f43616c6c6572206973206e6f7420617574686f72697a656400000000000000006044820152606490fd5b91908201809211610f0257565b634e487b7160e01b600052601160045260246000fd5b8054821015610f305760005260206000200190600090565b634e487b7160e01b600052603260045260246000fd5b6000546001600160a01b03163303610f5a57565b63118cdaa760e01b6000523360045260246000fdfea26469706673582212207a4869884126caf970c4dc2084ee327f2f9c65d36e16205bc31dd77d61b56e5e64736f6c634300081c0033",
  "linkReferences": {},
  "deployedLinkReferences": {}
}