{
  "_format": "hh-sol-artifact-1",
  "contractName": "JobEscrow",
  "sourceName": "contracts/Freelancing/JobEscrow.sol",
  "abi": [
    {
      "inputs": [
        {
          "internalType": "address",
          "name": "_client",
          "type": "address"
        },
        {
          "internalType": "address",
          "name": "_freelancer",
          "type": "address"
        },
        {
          "internalType": "address",
          "name": "_usdt",
          "type": "address"
        },
        {
          "internalType": "uint256",
          "name": "_amountUSDT",
          "type": "uint256"
        },
        {
          "internalType": "string",
          "name": "",
          "type": "string"
        },
        {
          "internalType": "uint16",
          "name": "_platformFeeBps",
          "type": "uint16"
        },
        {
          "internalType": "address",
          "name": "_platformWallet",
          "type": "address"
        },
        {
          "internalType": "address",
          "name": "_resolver",
          "type": "address"
        },
        {
          "internalType": "address",
          "name": "_profile",
          "type": "address"
        },
        {
          "internalType": "uint64",
          "name": "_cancelWindowSecs",
          "type": "uint64"
        },
        {
          "internalType": "uint64",
          "name": "_deliveryDueTs",
          "type": "uint64"
        },
        {
          "internalType": "uint64",
          "name": "_reviewWindowSecs",
          "type": "uint64"
        },
        {
          "internalType": "uint8",
          "name": "_autoApproveDefaultRating",
          "type": "uint8"
        },
        {
          "internalType": "address",
          "name": "_escrowFactory",
          "type": "address"
        }
      ],
      "stateMutability": "nonpayable",
      "type": "constructor"
    },
    {
      "inputs": [],
      "name": "AlreadyDelivered",
      "type": "error"
    },
    {
      "inputs": [],
      "name": "AlreadyTerminal",
      "type": "error"
    },
    {
      "inputs": [],
      "name": "AmountZero",
      "type": "error"
    },
    {
      "inputs": [],
      "name": "BpsTooHigh",
      "type": "error"
    },
    {
      "inputs": [],
      "name": "CancelNotRequested",
      "type": "error"
    },
    {
      "inputs": [],
      "name": "CancelWindowOver",
      "type": "error"
    },
    {
      "inputs": [],
      "name": "Disputed",
      "type": "error"
    },
    {
      "inputs": [],
      "name": "InvalidCaller",
      "type": "error"
    },
    {
      "inputs": [],
      "name": "NoDispute",
      "type": "error"
    },
    {
      "inputs": [],
      "name": "NotClient",
      "type": "error"
    },
    {
      "inputs": [],
      "name": "NotDelivered",
      "type": "error"
    },
    {
      "inputs": [],
      "name": "NotFactory",
      "type": "error"
    },
    {
      "inputs": [],
      "name": "NotFreelancer",
      "type": "error"
    },
    {
      "inputs": [],
      "name": "NotResolver",
      "type": "error"
    },
    {
      "inputs": [],
      "name": "ReentrancyGuardReentrantCall",
      "type": "error"
    },
    {
      "inputs": [
        {
          "internalType": "address",
          "name": "token",
          "type": "address"
        }
      ],
      "name": "SafeERC20FailedOperation",
      "type": "error"
    },
    {
      "inputs": [],
      "name": "TooEarly",
      "type": "error"
    },
    {
      "inputs": [],
      "name": "ZeroAddress",
      "type": "error"
    },
    {
      "anonymous": false,
      "inputs": [
        {
          "indexed": true,
          "internalType": "bytes32",
          "name": "jobKey",
          "type": "bytes32"
        },
        {
          "indexed": false,
          "internalType": "uint8",
          "name": "rating",
          "type": "uint8"
        }
      ],
      "name": "AutoApproved",
      "type": "event"
    },
    {
      "anonymous": false,
      "inputs": [
        {
          "indexed": true,
          "internalType": "bytes32",
          "name": "jobKey",
          "type": "bytes32"
        }
      ],
      "name": "CancelAccepted",
      "type": "event"
    },
    {
      "anonymous": false,
      "inputs": [
        {
          "indexed": true,
          "internalType": "bytes32",
          "name": "jobKey",
          "type": "bytes32"
        },
        {
          "indexed": true,
          "internalType": "address",
          "name": "by",
          "type": "address"
        }
      ],
      "name": "CancelRequested",
      "type": "event"
    },
    {
      "anonymous": false,
      "inputs": [
        {
          "indexed": true,
          "internalType": "bytes32",
          "name": "jobKey",
          "type": "bytes32"
        },
        {
          "indexed": true,
          "internalType": "address",
          "name": "by",
          "type": "address"
        },
        {
          "indexed": false,
          "internalType": "string",
          "name": "reasonURI",
          "type": "string"
        }
      ],
      "name": "DisputeRaised",
      "type": "event"
    },
    {
      "anonymous": false,
      "inputs": [
        {
          "indexed": true,
          "internalType": "bytes32",
          "name": "jobKey",
          "type": "bytes32"
        },
        {
          "indexed": false,
          "internalType": "enum JobEscrow.Resolution",
          "name": "outcome",
          "type": "uint8"
        },
        {
          "indexed": false,
          "internalType": "uint16",
          "name": "payoutBps",
          "type": "uint16"
        },
        {
          "indexed": false,
          "internalType": "uint8",
          "name": "rating",
          "type": "uint8"
        },
        {
          "indexed": false,
          "internalType": "uint256",
          "name": "paidToFreelancer",
          "type": "uint256"
        },
        {
          "indexed": false,
          "internalType": "uint256",
          "name": "refundedToClient",
          "type": "uint256"
        }
      ],
      "name": "DisputeResolved",
      "type": "event"
    },
    {
      "anonymous": false,
      "inputs": [
        {
          "indexed": true,
          "internalType": "bytes32",
          "name": "jobKey",
          "type": "bytes32"
        },
        {
          "indexed": true,
          "internalType": "address",
          "name": "fundraiseAddr",
          "type": "address"
        }
      ],
      "name": "FundraiseLinked",
      "type": "event"
    },
    {
      "anonymous": false,
      "inputs": [
        {
          "indexed": true,
          "internalType": "bytes32",
          "name": "jobKey",
          "type": "bytes32"
        },
        {
          "indexed": true,
          "internalType": "address",
          "name": "to",
          "type": "address"
        },
        {
          "indexed": false,
          "internalType": "uint256",
          "name": "netAmount",
          "type": "uint256"
        },
        {
          "indexed": false,
          "internalType": "uint256",
          "name": "feeAmount",
          "type": "uint256"
        }
      ],
      "name": "Paid",
      "type": "event"
    },
    {
      "anonymous": false,
      "inputs": [
        {
          "indexed": true,
          "internalType": "bytes32",
          "name": "jobKey",
          "type": "bytes32"
        },
        {
          "indexed": true,
          "internalType": "address",
          "name": "to",
          "type": "address"
        },
        {
          "indexed": false,
          "internalType": "uint256",
          "name": "amount",
          "type": "uint256"
        }
      ],
      "name": "Refunded",
      "type": "event"
    },
    {
      "anonymous": false,
      "inputs": [
        {
          "indexed": true,
          "internalType": "bytes32",
          "name": "jobKey",
          "type": "bytes32"
        },
        {
          "indexed": false,
          "internalType": "string",
          "name": "uri",
          "type": "string"
        }
      ],
      "name": "WorkDelivered",
      "type": "event"
    },
    {
      "inputs": [],
      "name": "acceptCancel",
      "outputs": [],
      "stateMutability": "nonpayable",
      "type": "function"
    },
    {
      "inputs": [],
      "name": "amount",
      "outputs": [
        {
          "internalType": "uint256",
          "name": "",
          "type": "uint256"
        }
      ],
      "stateMutability": "view",
      "type": "function"
    },
    {
      "inputs": [
        {
          "internalType": "uint8",
          "name": "rating",
          "type": "uint8"
        }
      ],
      "name": "approveWork",
      "outputs": [],
      "stateMutability": "nonpayable",
      "type": "function"
    },
    {
      "inputs": [],
      "name": "autoApproveDefaultRating",
      "outputs": [
        {
          "internalType": "uint8",
          "name": "",
          "type": "uint8"
        }
      ],
      "stateMutability": "view",
      "type": "function"
    },
    {
      "inputs": [],
      "name": "bootstrapRegisterJob",
      "outputs": [],
      "stateMutability": "nonpayable",
      "type": "function"
    },
    {
      "inputs": [],
      "name": "cancelRequestedBy",
      "outputs": [
        {
          "internalType": "address",
          "name": "",
          "type": "address"
        }
      ],
      "stateMutability": "view",
      "type": "function"
    },
    {
      "inputs": [],
      "name": "cancelWindowEnd",
      "outputs": [
        {
          "internalType": "uint64",
          "name": "",
          "type": "uint64"
        }
      ],
      "stateMutability": "view",
      "type": "function"
    },
    {
      "inputs": [],
      "name": "client",
      "outputs": [
        {
          "internalType": "address",
          "name": "",
          "type": "address"
        }
      ],
      "stateMutability": "view",
      "type": "function"
    },
    {
      "inputs": [],
      "name": "currentDeadlines",
      "outputs": [
        {
          "internalType": "uint64",
          "name": "cancelEnd",
          "type": "uint64"
        },
        {
          "internalType": "uint64",
          "name": "_deliveryDue",
          "type": "uint64"
        },
        {
          "internalType": "uint64",
          "name": "_reviewDue",
          "type": "uint64"
        }
      ],
      "stateMutability": "view",
      "type": "function"
    },
    {
      "inputs": [
        {
          "internalType": "string",
          "name": "deliveryURI",
          "type": "string"
        }
      ],
      "name": "deliverWork",
      "outputs": [],
      "stateMutability": "nonpayable",
      "type": "function"
    },
    {
      "inputs": [],
      "name": "delivered",
      "outputs": [
        {
          "internalType": "bool",
          "name": "",
          "type": "bool"
        }
      ],
      "stateMutability": "view",
      "type": "function"
    },
    {
      "inputs": [],
      "name": "deliveryDue",
      "outputs": [
        {
          "internalType": "uint64",
          "name": "",
          "type": "uint64"
        }
      ],
      "stateMutability": "view",
      "type": "function"
    },
    {
      "inputs": [
        {
          "internalType": "uint256",
          "name": "",
          "type": "uint256"
        }
      ],
      "name": "deliveryHistory",
      "outputs": [
        {
          "internalType": "string",
          "name": "uri",
          "type": "string"
        },
        {
          "internalType": "uint64",
          "name": "timestamp",
          "type": "uint64"
        },
        {
          "internalType": "uint256",
          "name": "version",
          "type": "uint256"
        }
      ],
      "stateMutability": "view",
      "type": "function"
    },
    {
      "inputs": [],
      "name": "disputed",
      "outputs": [
        {
          "internalType": "bool",
          "name": "",
          "type": "bool"
        }
      ],
      "stateMutability": "view",
      "type": "function"
    },
    {
      "inputs": [],
      "name": "escrowFactory",
      "outputs": [
        {
          "internalType": "address",
          "name": "",
          "type": "address"
        }
      ],
      "stateMutability": "view",
      "type": "function"
    },
    {
      "inputs": [],
      "name": "freelancer",
      "outputs": [
        {
          "internalType": "address",
          "name": "",
          "type": "address"
        }
      ],
      "stateMutability": "view",
      "type": "function"
    },
    {
      "inputs": [],
      "name": "fundraiseContract",
      "outputs": [
        {
          "internalType": "address",
          "name": "",
          "type": "address"
        }
      ],
      "stateMutability": "view",
      "type": "function"
    },
    {
      "inputs": [],
      "name": "getAllDeliveries",
      "outputs": [
        {
          "components": [
            {
              "internalType": "string",
              "name": "uri",
              "type": "string"
            },
            {
              "internalType": "uint64",
              "name": "timestamp",
              "type": "uint64"
            },
            {
              "internalType": "uint256",
              "name": "version",
              "type": "uint256"
            }
          ],
          "internalType": "struct JobEscrow.Delivery[]",
          "name": "",
          "type": "tuple[]"
        }
      ],
      "stateMutability": "view",
      "type": "function"
    },
    {
      "inputs": [
        {
          "internalType": "uint256",
          "name": "index",
          "type": "uint256"
        }
      ],
      "name": "getDelivery",
      "outputs": [
        {
          "internalType": "string",
          "name": "uri",
          "type": "string"
        },
        {
          "internalType": "uint64",
          "name": "timestamp",
          "type": "uint64"
        },
        {
          "internalType": "uint256",
          "name": "version",
          "type": "uint256"
        }
      ],
      "stateMutability": "view",
      "type": "function"
    },
    {
      "inputs": [],
      "name": "getDeliveryCount",
      "outputs": [
        {
          "internalType": "uint256",
          "name": "",
          "type": "uint256"
        }
      ],
      "stateMutability": "view",
      "type": "function"
    },
    {
      "inputs": [],
      "name": "jobKey",
      "outputs": [
        {
          "internalType": "bytes32",
          "name": "",
          "type": "bytes32"
        }
      ],
      "stateMutability": "view",
      "type": "function"
    },
    {
      "inputs": [],
      "name": "lastDeliveryURI",
      "outputs": [
        {
          "internalType": "string",
          "name": "",
          "type": "string"
        }
      ],
      "stateMutability": "view",
      "type": "function"
    },
    {
      "inputs": [],
      "name": "lastDisputeURI",
      "outputs": [
        {
          "internalType": "string",
          "name": "",
          "type": "string"
        }
      ],
      "stateMutability": "view",
      "type": "function"
    },
    {
      "inputs": [],
      "name": "platformFeeBps",
      "outputs": [
        {
          "internalType": "uint16",
          "name": "",
          "type": "uint16"
        }
      ],
      "stateMutability": "view",
      "type": "function"
    },
    {
      "inputs": [],
      "name": "platformWallet",
      "outputs": [
        {
          "internalType": "address",
          "name": "",
          "type": "address"
        }
      ],
      "stateMutability": "view",
      "type": "function"
    },
    {
      "inputs": [],
      "name": "processTimeouts",
      "outputs": [],
      "stateMutability": "nonpayable",
      "type": "function"
    },
    {
      "inputs": [],
      "name": "profile",
      "outputs": [
        {
          "internalType": "contract FreelancerProfile",
          "name": "",
          "type": "address"
        }
      ],
      "stateMutability": "view",
      "type": "function"
    },
    {
      "inputs": [
        {
          "internalType": "string",
          "name": "reasonURI",
          "type": "string"
        }
      ],
      "name": "raiseDispute",
      "outputs": [],
      "stateMutability": "nonpayable",
      "type": "function"
    },
    {
      "inputs": [],
      "name": "requestCancel",
      "outputs": [],
      "stateMutability": "nonpayable",
      "type": "function"
    },
    {
      "inputs": [
        {
          "internalType": "uint16",
          "name": "payoutBps",
          "type": "uint16"
        },
        {
          "internalType": "uint8",
          "name": "rating",
          "type": "uint8"
        },
        {
          "internalType": "enum JobEscrow.Resolution",
          "name": "outcome",
          "type": "uint8"
        }
      ],
      "name": "resolveDispute",
      "outputs": [],
      "stateMutability": "nonpayable",
      "type": "function"
    },
    {
      "inputs": [],
      "name": "resolver",
      "outputs": [
        {
          "internalType": "address",
          "name": "",
          "type": "address"
        }
      ],
      "stateMutability": "view",
      "type": "function"
    },
    {
      "inputs": [],
      "name": "reviewDue",
      "outputs": [
        {
          "internalType": "uint64",
          "name": "",
          "type": "uint64"
        }
      ],
      "stateMutability": "view",
      "type": "function"
    },
    {
      "inputs": [],
      "name": "reviewWindowSecs",
      "outputs": [
        {
          "internalType": "uint64",
          "name": "",
          "type": "uint64"
        }
      ],
      "stateMutability": "view",
      "type": "function"
    },
    {
      "inputs": [
        {
          "internalType": "address",
          "name": "_fundraise",
          "type": "address"
        }
      ],
      "name": "setFundraiseContract",
      "outputs": [],
      "stateMutability": "nonpayable",
      "type": "function"
    },
    {
      "inputs": [],
      "name": "terminal",
      "outputs": [
        {
          "internalType": "bool",
          "name": "",
          "type": "bool"
        }
      ],
      "stateMutability": "view",
      "type": "function"
    },
    {
      "inputs": [],
      "name": "usdt",
      "outputs": [
        {
          "internalType": "contract IERC20",
          "name": "",
          "type": "address"
        }
      ],
      "stateMutability": "view",
      "type": "function"
    }
  ],
  "bytecode": "0x610220806040523461049f5761337d803803809161001d82856104cf565b833981016101c08282031261049f57610035826104f2565b91610042602082016104f2565b9161004f604083016104f2565b60608301516080840151919290916001600160401b03811161049f5784019080601f8301121561049f578151916001600160401b0383116104b957604051916100a2601f8501601f1916602001846104cf565b8383526020848301011161049f5760005b8381106104a4575050600091016020015260a083015161ffff81169586820361049f576100e260c086016104f2565b6100ee60e087016104f2565b6100fb61010088016104f2565b916101096101208901610506565b946101176101408a01610506565b966101256101608b01610506565b986101808b01519a60ff8c168c0361049f576101a061014491016104f2565b60016000556001600160a01b0388169d9097908e15801561048e575b801561047d575b801561046c575b801561045b575b801561044a575b8015610439575b6104285783156104175761271010610406576080528b60a05260018060a01b031660c05260e05261010052610120526101405260018060a01b0316610160526101805260018060401b031660018060401b0342160160018060401b0381116103f0576101a0526101c0526101e05261020052604051906020820192308452604083015260018060a01b03166060820152606081526102226080826104cf565b519020600155604051612e62908161051b82396080518181816102ff015281816110810152818161164701528181611d210152818161240e0152612755015260a0518181816103ba01528181610bec01528181610d67015281816111cb015281816113a601528181611eca0152818161207c015281816124fc01528181612a9d0152612c30015260c0518181816115a501528181611a1b0152818161267a0152612810015260e05181610d0101526101005181818161160d01528181611b740152612858015261012051818181610289015281816121030152612cb601526101405181818161152401526117030152610160518181816105ca01528181610cba0152818161111c0152818161141b01528181611ba801528181611e4101528181611f7101528181612149015281816126c70152818161288d01528181612a140152612b33015261018051818181610a4c01528181611184015281816113e801528181611a780152611c6c01526101a0518181816101ce01528181610ad201526124b701526101c0518181816101f301528181610244015281816122b501526122e701526101e0518181816105480152818161100401526123ca015261020051818181610de801526123180152f35b634e487b7160e01b600052601160045260246000fd5b63bbf4268d60e01b60005260046000fd5b6365e52d5160e11b60005260046000fd5b63d92e233d60e01b60005260046000fd5b506001600160a01b03891615610183565b506001600160a01b0388161561017c565b506001600160a01b03871615610175565b506001600160a01b0386161561016e565b506001600160a01b03831615610167565b506001600160a01b038e1615610160565b600080fd5b806020809284010151828286010152016100b3565b634e487b7160e01b600052604160045260246000fd5b601f909101601f19168101906001600160401b038211908210176104b957604052565b51906001600160a01b038216820361049f57565b51906001600160401b038216820361049f5756fe608080604052600436101561001357600080fd5b600090813560e01c90816304f3bcec146116ef575080630695c46c146116c9578063080077a114611676578063109e94cf1461163157806322dcd13e146115f25780632f051579146115d45780632f48ab7d1461158f57806346a86348146114e757806350ec709a146113d5578063725a3b4b146110615780637a1a464d14611033578063805bf08a14610fee5780638f00c31514610ea1578063916b2f8814610e0c57806392c67f7214610dce578063a0d3db8514610d96578063a37dda2c14610d51578063a9ac153e14610d24578063aa8c217c14610ce9578063ab60636c14610ca4578063afcbdd6014610bc3578063b533a0cc14610b96578063b6d98b6b14610b01578063b781085314610abc578063bbdfbfba14610a99578063bcc9c5ed14610a7b578063bdd1daaa14610a36578063dd3d06b914610965578063de8211a9146108d7578063e35d804c146108ae578063e4933ae3146103a8578063f0df51b3146102de578063f45d0bc6146102b8578063fa2af9da14610273578063fd35b33c1461022e5763fe5d97c8146101ad57600080fd5b3461022b578060031936011261022b57600254604080516001600160401b037f0000000000000000000000000000000000000000000000000000000000000000811682527f00000000000000000000000000000000000000000000000000000000000000008116602083015260189390931c90921690820152606090f35b80fd5b503461022b578060031936011261022b576040517f00000000000000000000000000000000000000000000000000000000000000006001600160401b03168152602090f35b503461022b578060031936011261022b576040517f00000000000000000000000000000000000000000000000000000000000000006001600160a01b03168152602090f35b503461022b578060031936011261022b57602060ff60025460101c166040519015158152f35b503461022b57602036600319011261022b5760043560ff811681036103a4577f00000000000000000000000000000000000000000000000000000000000000006001600160a01b031633036103955760ff60025460101c166103865761034261252b565b60025460ff8116156103775760081c60ff1661036857610361906127df565b6001815580f35b6362e6201d60e01b8252600482fd5b630a8bd16f60e21b8352600483fd5b63e405a43360e01b8252600482fd5b630836f21d60e21b8252600482fd5b5080fd5b503461022b576103b736611903565b907f00000000000000000000000000000000000000000000000000000000000000006001600160a01b0316330361089f5760025460ff8160101c166108905760ff811615610880575b506001600160401b03821161086c5761041a600354611767565b601f811161081b575b508282601f81116001146107ab57806104439286916107a0575b50612229565b6003555b600654426001600160401b0316906001810180821161078c576040519161046d836117a1565b604051610484601f8801601f1916602001826117d2565b868152368787011161078857868660208301378760208883010152835260208301908482526040840192808452600160401b821015610760576006556104c990611732565b93909361077457518051906001600160401b038211610760576104ec8554611767565b601f811161071b575b50602090601f83116001146106b457918061051d9260029695948c926106a9575b5050612229565b84555b516001840180546001600160401b0319166001600160401b03928316179055905191909201557f0000000000000000000000000000000000000000000000000000000000000000169081610656575b505060ff60025460081c16156105c3575b7f6d9e4862e2f82a8175fcd785cd60c14f21a2af0c38c0b7682015fece7158e7e490600154926105bd60405192839260208452602084019161223c565b0390a280f35b60015483907f00000000000000000000000000000000000000000000000000000000000000006001600160a01b031690813b1561064757829160448392604051948593849263a3abe42560e01b84526004840152600360248401525af1801561064b57610632575b5050610580565b8161063c916117d2565b61064757823861062b565b8280fd5b6040513d84823e3d90fd5b016001600160401b03811161069557600280546301000000600160581b03191660189290921b6301000000600160581b0316919091179055388061056f565b634e487b7160e01b84526011600452602484fd5b015190503880610516565b858a52818a209190601f1984168b5b8181106107035750916001939185600298979694106106ea575b505050811b018455610520565b015160001960f88460031b161c191690553880806106dd565b929360206001819287860151815501950193016106c3565b858a5260208a20601f840160051c81019160208510610756575b601f0160051c01905b81811061074b57506104f5565b8a815560010161073e565b9091508190610735565b634e487b7160e01b89526041600452602489fd5b634e487b7160e01b88526004889052602488fd5b8780fd5b634e487b7160e01b86526011600452602486fd5b90508301353861043d565b5060038452600080516020612d8d8339815191529083601f198116865b8181106108005750106107e6575b5050600182811b01600355610447565b820135600019600385901b60f8161c1916905538806107d6565b858401358555600190940193602093840193879350016107c8565b60038452600080516020612d8d833981519152601f840160051c81019160208510610862575b601f0160051c01905b8181106108575750610423565b84815560010161084a565b9091508190610841565b634e487b7160e01b83526041600452602483fd5b60ff191660011760025538610400565b63e405a43360e01b8452600484fd5b633832386960e11b8352600483fd5b503461022b578060031936011261022b576005546040516001600160a01b039091168152602090f35b503461022b57602036600319011261022b57600435600654811015610930576108ff90611732565b5060018060401b036001820154169061092c61091f6002830154926117f5565b91604051938493846118da565b0390f35b60405162461bcd60e51b815260206004820152600d60248201526c092dcecc2d8d2c840d2dcc8caf609b1b6044820152606490fd5b503461022b578060031936011261022b5760405190806003549061098882611767565b8085529160018116908115610a0f57506001146109c4575b61092c846109b0818603826117d2565b604051918291602083526020830190611899565b60038152600080516020612d8d833981519152939250905b8082106109f5575090915081016020016109b0826109a0565b9192600181602092548385880101520191019092916109dc565b60ff191660208087019190915292151560051b850190920192506109b091508390506109a0565b503461022b578060031936011261022b576040517f00000000000000000000000000000000000000000000000000000000000000006001600160a01b03168152602090f35b503461022b578060031936011261022b576020600154604051908152f35b503461022b578060031936011261022b57602060ff600254166040519015158152f35b503461022b578060031936011261022b576040517f00000000000000000000000000000000000000000000000000000000000000006001600160401b03168152602090f35b503461022b578060031936011261022b57604051908060045490610b2482611767565b8085529160018116908115610a0f5750600114610b4b5761092c846109b0818603826117d2565b60048152600080516020612ded833981519152939250905b808210610b7c575090915081016020016109b0826109a0565b919260018160209254838588010152019101909291610b63565b503461022b578060031936011261022b5760025460405160189190911c6001600160401b03168152602090f35b503461022b57602036600319011261022b576004356001600160a01b038116908190036103a4577f00000000000000000000000000000000000000000000000000000000000000006001600160a01b03163303610c955760ff60025460101c16610386576005546001600160a01b038116610c86578115610c77576001600160a01b03191681176005556001547f7ba7f2073452ad5352396aae454b889f27d8b61e31820eed827ad53a11ea72158380a380f35b63d92e233d60e01b8352600483fd5b6348f5c3ed60e01b8352600483fd5b633832386960e11b8252600482fd5b503461022b578060031936011261022b576040517f00000000000000000000000000000000000000000000000000000000000000006001600160a01b03168152602090f35b503461022b578060031936011261022b5760206040517f00000000000000000000000000000000000000000000000000000000000000008152f35b503461022b578060031936011261022b5760025460405160589190911c6001600160a01b03168152602090f35b503461022b578060031936011261022b576040517f00000000000000000000000000000000000000000000000000000000000000006001600160a01b03168152602090f35b503461022b578060031936011261022b5760ff60025460101c16610dbf57610dbc61240b565b80f35b63e405a43360e01b8152600490fd5b503461022b578060031936011261022b57602060405160ff7f0000000000000000000000000000000000000000000000000000000000000000168152f35b503461022b578060031936011261022b5760ff60025460101c16610dbf57610e3261252b565b60025460581c6001600160a01b03168015610e92573314610e8357610e55612662565b6001547f4897449f1b0ce6101a99ba5e17eea100dbfc65a5eb810060f708a392668bce978280a26001815580f35b6348f5c3ed60e01b8152600490fd5b6399fcd6df60e01b8252600482fd5b503461022b578060031936011261022b576006546001600160401b038111610fda57604051610ed660208360051b01826117d2565b818152600683526020810191837ff652222313e28459528d920b65115c16c04f3efc82aaedc97be59f3f377c0d3f845b838310610f9557868587604051928392602084019060208552518091526040840160408260051b8601019392905b828210610f4357505050500390f35b919360019193955060208091603f19898203018552875190604080610f718451606085526060850190611899565b938780831b0386820151168685015201519101529601920192018594939192610f34565b60036020600192604051610fa8816117a1565b610fb1866117f5565b8152848060401b0385870154168382015260028601546040820152815201920192019190610f06565b634e487b7160e01b82526041600452602482fd5b503461022b578060031936011261022b576040517f00000000000000000000000000000000000000000000000000000000000000006001600160401b03168152602090f35b503461022b578060031936011261022b5760ff60025460101c16610dbf5761105961252b565b61036161225d565b503461022b5761107036611903565b9060025460ff8160101c16610890577f00000000000000000000000000000000000000000000000000000000000000006001600160a01b03169033821415806113a2575b6113935760ff8160081c166113845761ff001916610100176002556001600160401b0383116113705783906110ea600454611767565b601f8111611321575b508382601f82116001146112ae5790806111139285916112a35750612229565b6004555b6001547f00000000000000000000000000000000000000000000000000000000000000006001600160a01b031690813b1561129f57839160448392604051948593849263a3abe42560e01b84526004840152600560248401525af190811561129457839161127f575b50507f00000000000000000000000000000000000000000000000000000000000000006001600160a01b031690813b15610647576040516356d0aa4160e01b815260048101919091527f00000000000000000000000000000000000000000000000000000000000000006001600160a01b03166024820152606060448201529082908290818381611215606482018b8b61223c565b03925af1801561064b5761126a575b50507f49e53fd224357020766ce272815e8a15c300aace14a011cfcded9335798fbd0e61126460015492604051918291602083523396602084019161223c565b0390a380f35b81611274916117d2565b610647578238611224565b81611289916117d2565b6103a4578138611180565b6040513d85823e3d90fd5b8380fd5b90508501353861043d565b60048452600080516020612ded833981519152915085601f198116855b8181106113035750106112e9575b5050600184811b01600455611117565b840135600019600387901b60f8161c1916905538806112d9565b878401358555899650600190940193602093840193899350016112cb565b90916004905260208520601f850160051c81019160208610611366575b90601f879493920160051c01905b81811061135957506110f3565b928355859260010161134c565b909150819061133e565b634e487b7160e01b84526041600452602484fd5b6362e6201d60e01b8552600485fd5b6348f5c3ed60e01b8552600485fd5b50337f00000000000000000000000000000000000000000000000000000000000000006001600160a01b031614156110b4565b503461022b578060031936011261022b577f00000000000000000000000000000000000000000000000000000000000000006001600160a01b031633036114d8576001547f00000000000000000000000000000000000000000000000000000000000000006001600160a01b03169190823b156103a45760405190631f481a5d60e31b82526004820152818160248183875af1801561064b576114c8575b508091600154813b156114c457829160448392604051948593849263a3abe42560e01b84526004840152600260248401525af1801561064b576114b35750f35b816114bd916117d2565b61022b5780f35b5050fd5b816114d2916117d2565b38611473565b631966391b60e11b8152600490fd5b503461022b57606036600319011261022b576004359061ffff8216820361022b5760243560ff811681036103a457604435906002821015610647577f00000000000000000000000000000000000000000000000000000000000000006001600160a01b031633036115805760ff60025460101c1661157157610361929361156c61252b565b6119e4565b63e405a43360e01b8352600483fd5b635d154fe160e11b8352600483fd5b503461022b578060031936011261022b576040517f00000000000000000000000000000000000000000000000000000000000000006001600160a01b03168152602090f35b503461022b578060031936011261022b576020600654604051908152f35b503461022b578060031936011261022b57602060405161ffff7f0000000000000000000000000000000000000000000000000000000000000000168152f35b503461022b578060031936011261022b576040517f00000000000000000000000000000000000000000000000000000000000000006001600160a01b03168152602090f35b503461022b57602036600319011261022b576004356006548110156103a45761169e90611732565b506116a8816117f5565b61092c600260018060401b03600185015416930154604051938493846118da565b503461022b578060031936011261022b57602060ff60025460081c166040519015158152f35b9050346103a457816003193601126103a4577f00000000000000000000000000000000000000000000000000000000000000006001600160a01b03168152602090f35b6006548110156117515760066000526003602060002091020190600090565b634e487b7160e01b600052603260045260246000fd5b90600182811c92168015611797575b602083101461178157565b634e487b7160e01b600052602260045260246000fd5b91607f1691611776565b606081019081106001600160401b038211176117bc57604052565b634e487b7160e01b600052604160045260246000fd5b601f909101601f19168101906001600160401b038211908210176117bc57604052565b906040519182600082549261180984611767565b80845293600181169081156118775750600114611830575b5061182e925003836117d2565b565b90506000929192526020600020906000915b81831061185b57505090602061182e9282010138611821565b6020919350806001915483858901015201910190918492611842565b90506020925061182e94915060ff191682840152151560051b82010138611821565b919082519283825260005b8481106118c5575050826000602080949584010152601f8019910116010190565b806020809284010151828286010152016118a4565b6118f260409295949395606083526060830190611899565b94600180841b031660208201520152565b906020600319830112611952576004356001600160401b0381116119525782602382011215611952576004810135926001600160401b0384116119525760248483010111611952576024019190565b600080fd5b8181029291811591840414171561196a57565b634e487b7160e01b600052601160045260246000fd5b9190820391821161196a57565b9081602091031261195257516001600160a01b03811681036119525790565b6020909392919360ff60408201951681520152565b9060028210156119ce5752565b634e487b7160e01b600052602160045260246000fd5b91906002549260ff60009460081c161561221a5761ffff16612710811161220b576040516370a0823160e01b8152306004820152917f0000000000000000000000000000000000000000000000000000000000000000906020846024816001600160a01b0386165afa9384156120685786946121d7575b5060028510156121c3578415611b3257505050611a76612662565b7f00000000000000000000000000000000000000000000000000000000000000006001600160a01b0316803b1561129f5783809160246040518094819363174538b560e31b83523060048401525af18015611b2757908491611b12575b5050600080516020612dcd8339815191529160a09160015494611af960405180946119c1565b80602084015280604084015260608301526080820152a2565b81611b1c916117d2565b610647578238611ad3565b6040513d86823e3d90fd5b90929194611b4e612710611b468886611957565b048094611980565b938382811561213f57600160ff861610612136575b600560ff86161161212d575b61ffff7f000000000000000000000000000000000000000000000000000000000000000016806120d5575b5081611da0575b50506001547f00000000000000000000000000000000000000000000000000000000000000006001600160a01b031690813b1561129f5760405163a3abe42560e01b81526004808201929092526024810191909152838160448183865af18015611b2757908491611d8b575b5050600154813b1561129f57611c3d849283926040519485809481936304e29d0960e51b83528b600484016119ac565b03925af1801561129457908391611d76575b50505b84611d1b575b506002805462ff00001916620100001790557f00000000000000000000000000000000000000000000000000000000000000006001600160a01b0316803b156103a45781809160246040518094819363174538b560e31b83523060048401525af1801561064b57611d06575b505091600080516020612dcd833981519152939160ff60a09460015497611cee60405180976119c1565b602086015216604084015260608301526080820152a2565b611d118280926117d2565b61022b5780611cc4565b611d47857f00000000000000000000000000000000000000000000000000000000000000008093612568565b6001546040518681526001600160a01b0390921691600080516020612dad83398151915290602090a338611c58565b81611d80916117d2565b6103a4578138611c4f565b81611d95916117d2565b610647578238611c0d565b6005546001600160a01b031615611f6257600554611dc99083906001600160a01b031685612568565b6005546001600160a01b0316803b15611f5e578480916024604051809481936391c05b0b60e01b83528860048401525af18015611f0857908591611f49575b5050600554604051630e672fe160e01b815290602090829060049082906001600160a01b03165afa908115611f08578591611f17575b507f00000000000000000000000000000000000000000000000000000000000000006001600160a01b031690813b15611f1357859160248392604051948593849263c031eddf60e01b845260048401525af18015611f0857908591611ef3575b50505b600154906040519283526020830152600080516020612e0d833981519152604060018060a01b037f00000000000000000000000000000000000000000000000000000000000000001693a33880611ba1565b81611efd916117d2565b61129f578338611e9e565b6040513d87823e3d90fd5b8580fd5b90506020813d602011611f41575b81611f32602093836117d2565b81010312611952575138611e3e565b3d9150611f25565b81611f53916117d2565b61129f578338611e08565b8480fd5b60405163453bdd0d60e11b81527f00000000000000000000000000000000000000000000000000000000000000006001600160a01b031690602081600481855afa9081156120685786916120a6575b506001600160a01b0381169084821561207357611fce91876125a2565b803b15611f135785809160246040518094819363bc1ca3e960e01b83528960048401525af1801561206857908691612053575b50505b803b15611f5e5784809160246040518094819363c031eddf60e01b83528860048401525af18015611f085790859161203e575b5050611ea1565b81612048916117d2565b61129f578338612037565b8161205d916117d2565b611f5e578438612001565b6040513d88823e3d90fd5b90506120a191507f000000000000000000000000000000000000000000000000000000000000000086612568565b612004565b6120c8915060203d6020116120ce575b6120c081836117d2565b81019061198d565b38611fb1565b503d6120b6565b61271092506120e5915086611957565b046120f08186611980565b90806120fd575b38611b9a565b612128817f000000000000000000000000000000000000000000000000000000000000000085612568565b6120f7565b60059450611b6f565b60019450611b63565b50506001549091907f00000000000000000000000000000000000000000000000000000000000000006001600160a01b0316803b156106475760405163a3abe42560e01b815260048101929092526006602483015282908290604490829084905af1801561064b576121b3575b5090611c52565b816121bd916117d2565b386121ac565b634e487b7160e01b86526021600452602486fd5b9093506020813d602011612203575b816121f3602093836117d2565b81010312611f1357519238611a5b565b3d91506121e6565b63bbf4268d60e01b8452600484fd5b63126ea8e960e31b8452600484fd5b8160011b916000199060031b1c19161790565b908060209392818452848401376000828201840152601f01601f1916010190565b60025460ff811690816123fb575b816123c8575b816123b1575b8161239b575b506123165760ff6002541615806122e4575b806122b2575b6122aa5763085de62560e01b60005260046000fd5b61182e612662565b507f00000000000000000000000000000000000000000000000000000000000000006001600160401b03164211612295565b507f00000000000000000000000000000000000000000000000000000000000000006001600160401b0316151561228f565b7f0000000000000000000000000000000000000000000000000000000000000000600160ff821610612393575b600560ff82161161238b575b612358816127df565b7f1be1750ddd59392ba6c564a4194b0874f9295a7595042a77fc9b7f34938aa0af60206001549260ff60405191168152a2565b50600561234f565b506001612343565b60181c6001600160401b0316421190503861227d565b601881901c6001600160401b031615159150612277565b7f00000000000000000000000000000000000000000000000000000000000000006001600160401b031615159150612271565b905060ff8160081c16159061226b565b337f00000000000000000000000000000000000000000000000000000000000000006001600160a01b0316148015806124f8575b6124e75760ff60025416156124a4575b5060028054600160581b600160f81b03191633605881901b600160581b600160f81b0316919091179091556001547f7c2fb7ad28ff3012b206b788cc80d55099949fd45e69314f27fdace959bae761600080a3565b806124b4575b6122aa573861244f565b507f00000000000000000000000000000000000000000000000000000000000000006001600160401b03164211156124aa565b6348f5c3ed60e01b60005260046000fd5b50337f00000000000000000000000000000000000000000000000000000000000000006001600160a01b0316141561243f565b60026000541461253c576002600055565b633ee5aeb560e01b60005260046000fd5b6001600160a01b039091168152602081019190915260400190565b61259d61182e939261258f60405194859263a9059cbb60e01b60208501526024840161254d565b03601f1981018452836117d2565b612d25565b91909160206000604051936125da856125cc8582019363095ea7b360e01b8552896024840161254d565b03601f1981018752866117d2565b84519082855af16000513d8261263d575b5050156125f757505050565b60405163095ea7b360e01b60208201526001600160a01b0390931660248401526000604480850191909152835261182e9261259d906126376064826117d2565b82612d25565b90915061265a57506001600160a01b0381163b15155b38806125eb565b600114612653565b6040516370a0823160e01b81523060048201526000907f00000000000000000000000000000000000000000000000000000000000000006020826024816001600160a01b0385165afa9182156112945783926127ab575b508161274f575b50506001547f00000000000000000000000000000000000000000000000000000000000000006001600160a01b0316803b156106475760405163a3abe42560e01b815260048101929092526006602483015282908290604490829084905af1801561064b5761273f575b50506201000062ff0000196002541617600255565b81612749916117d2565b3861272a565b61277b827f00000000000000000000000000000000000000000000000000000000000000008093612568565b6001546040519283526001600160a01b0390911691600080516020612dad83398151915290602090a338806126c0565b9091506020813d6020116127d7575b816127c7602093836117d2565b81010312610647575190386126b9565b3d91506127ba565b600160ff821610612d1d575b600560ff821611612d15575b6040516370a0823160e01b8152306004820152600091907f00000000000000000000000000000000000000000000000000000000000000006020826024816001600160a01b0385165afa918215611b27578492612ce1575b5083908261ffff7f00000000000000000000000000000000000000000000000000000000000000001680612c84575b505082612971575b50506001547f00000000000000000000000000000000000000000000000000000000000000006001600160a01b03169150813b1561129f5760405163a3abe42560e01b81526004808201929092526024810191909152838160448183865af18015611b275790849161295c575b505060015491813b1561129f5791839161292493836040518096819582946304e29d0960e51b8452600484016119ac565b03925af1801561064b576129475750506201000062ff0000196002541617600255565b6129528280926117d2565b61022b578061272a565b81612966916117d2565b6106475782386128f3565b60055483906001600160a01b031615612b235760055461299c926001600160a01b0390911690612568565b6005546001600160a01b0316803b15611f5e578480916024604051809481936391c05b0b60e01b83528860048401525af18015611f0857908591612b0e575b5050600554604051630e672fe160e01b815290602090829060049082906001600160a01b03165afa908115611f08578591612adc575b507f00000000000000000000000000000000000000000000000000000000000000006001600160a01b031690813b15611f1357859160248392604051948593849263c031eddf60e01b845260048401525af18015611f0857908591612ac7575b50505b600154906040519283526020830152600080516020612e0d833981519152604060018060a01b037f00000000000000000000000000000000000000000000000000000000000000001693a3388080612886565b81612ad1916117d2565b61129f578338612a71565b90506020813d602011612b06575b81612af7602093836117d2565b81010312611952575138612a11565b3d9150612aea565b81612b18916117d2565b61129f5783386129db565b5060405163453bdd0d60e11b81527f00000000000000000000000000000000000000000000000000000000000000006001600160a01b03169190602081600481865afa908115612c79578791612c5a575b506001600160a01b0381169085908215612c2757612b9292936125a2565b803b15611f135785809160246040518094819363bc1ca3e960e01b83528960048401525af1801561206857612c13575b505b803b15611f5e5784809160246040518094819363c031eddf60e01b83528860048401525af18015611f0857908591612bfe575b5050612a74565b81612c08916117d2565b61129f578338612bf7565b85612c20919692966117d2565b9338612bc2565b509050612c55917f000000000000000000000000000000000000000000000000000000000000000090612568565b612bc4565b612c73915060203d6020116120ce576120c081836117d2565b38612b74565b6040513d89823e3d90fd5b819350612c949061271092611957565b049182612ca2575b8061287e565b612caf9193508290611980565b91612cdb827f000000000000000000000000000000000000000000000000000000000000000083612568565b38612c9c565b9091506020813d602011612d0d575b81612cfd602093836117d2565b8101031261129f5751903861284f565b3d9150612cf0565b5060056127f7565b5060016127eb565b906000602091828151910182855af115612d80576000513d612d7757506001600160a01b0381163b155b612d565750565b635274afe760e01b60009081526001600160a01b0391909116600452602490fd5b60011415612d4f565b6040513d6000823e3d90fdfec2575a0e9e593c00f959f8c92f12db2869c3395a3b0502d05e2516446f71f85bf552ca82e113ac3c539c3d617f29fcd19c172a0c75dad017555c9e109f7fe18381084fdb1640d4d17bced528639ccc751b0b4d9e399790b6d89dccf33c1b66408a35acfbc15ff81a39ae7d344fd709f28e8600b4aa8c65c6b64bfe7fe36bd19b5ce467ae5694ddb233a02ca7eb987835c5e2ea71eec0e379bf3a5e1207ae2459a2646970667358221220451812ba067251b04c60ea8dd5d00c8d6331f92d4ba35854ba242fa7da0bffcc64736f6c634300081c0033",
  "linkReferences": {},
  "deployedLinkReferences": {}
}