{
  "_format": "hh-sol-artifact-1",
  "contractName": "JobEscrow",
  "sourceName": "contracts/Freelancing/JobEscrow.sol",
  "abi": [
    {
      "inputs": [
        {
          "internalType": "address",
          "name": "_client",
          "type": "address"
        },
        {
          "internalType": "address",
          "name": "_freelancer",
          "type": "address"
        },
        {
          "internalType": "address",
          "name": "_usdt",
          "type": "address"
        },
        {
          "internalType": "uint256",
          "name": "_amountUSDT",
          "type": "uint256"
        },
        {
          "internalType": "string",
          "name": "",
          "type": "string"
        },
        {
          "internalType": "uint16",
          "name": "_platformFeeBps",
          "type": "uint16"
        },
        {
          "internalType": "address",
          "name": "_platformWallet",
          "type": "address"
        },
        {
          "internalType": "address",
          "name": "_resolver",
          "type": "address"
        },
        {
          "internalType": "address",
          "name": "_profile",
          "type": "address"
        },
        {
          "internalType": "uint64",
          "name": "_cancelWindowSecs",
          "type": "uint64"
        },
        {
          "internalType": "uint64",
          "name": "_deliveryDueTs",
          "type": "uint64"
        },
        {
          "internalType": "uint64",
          "name": "_reviewWindowSecs",
          "type": "uint64"
        },
        {
          "internalType": "uint8",
          "name": "_autoApproveDefaultRating",
          "type": "uint8"
        },
        {
          "internalType": "address",
          "name": "_escrowFactory",
          "type": "address"
        }
      ],
      "stateMutability": "nonpayable",
      "type": "constructor"
    },
    {
      "inputs": [],
      "name": "AlreadyDelivered",
      "type": "error"
    },
    {
      "inputs": [],
      "name": "AlreadyTerminal",
      "type": "error"
    },
    {
      "inputs": [],
      "name": "AmountZero",
      "type": "error"
    },
    {
      "inputs": [],
      "name": "BpsTooHigh",
      "type": "error"
    },
    {
      "inputs": [],
      "name": "CancelNotRequested",
      "type": "error"
    },
    {
      "inputs": [],
      "name": "CancelWindowOver",
      "type": "error"
    },
    {
      "inputs": [],
      "name": "Disputed",
      "type": "error"
    },
    {
      "inputs": [],
      "name": "InvalidCaller",
      "type": "error"
    },
    {
      "inputs": [],
      "name": "NoDispute",
      "type": "error"
    },
    {
      "inputs": [],
      "name": "NotClient",
      "type": "error"
    },
    {
      "inputs": [],
      "name": "NotDelivered",
      "type": "error"
    },
    {
      "inputs": [],
      "name": "NotFactory",
      "type": "error"
    },
    {
      "inputs": [],
      "name": "NotFreelancer",
      "type": "error"
    },
    {
      "inputs": [],
      "name": "NotResolver",
      "type": "error"
    },
    {
      "inputs": [],
      "name": "ReentrancyGuardReentrantCall",
      "type": "error"
    },
    {
      "inputs": [
        {
          "internalType": "address",
          "name": "token",
          "type": "address"
        }
      ],
      "name": "SafeERC20FailedOperation",
      "type": "error"
    },
    {
      "inputs": [],
      "name": "TooEarly",
      "type": "error"
    },
    {
      "inputs": [],
      "name": "ZeroAddress",
      "type": "error"
    },
    {
      "anonymous": false,
      "inputs": [
        {
          "indexed": true,
          "internalType": "bytes32",
          "name": "jobKey",
          "type": "bytes32"
        },
        {
          "indexed": false,
          "internalType": "uint8",
          "name": "rating",
          "type": "uint8"
        }
      ],
      "name": "AutoApproved",
      "type": "event"
    },
    {
      "anonymous": false,
      "inputs": [
        {
          "indexed": true,
          "internalType": "bytes32",
          "name": "jobKey",
          "type": "bytes32"
        }
      ],
      "name": "CancelAccepted",
      "type": "event"
    },
    {
      "anonymous": false,
      "inputs": [
        {
          "indexed": true,
          "internalType": "bytes32",
          "name": "jobKey",
          "type": "bytes32"
        },
        {
          "indexed": true,
          "internalType": "address",
          "name": "by",
          "type": "address"
        }
      ],
      "name": "CancelRequested",
      "type": "event"
    },
    {
      "anonymous": false,
      "inputs": [
        {
          "indexed": true,
          "internalType": "bytes32",
          "name": "jobKey",
          "type": "bytes32"
        },
        {
          "indexed": true,
          "internalType": "address",
          "name": "by",
          "type": "address"
        },
        {
          "indexed": false,
          "internalType": "string",
          "name": "reasonURI",
          "type": "string"
        }
      ],
      "name": "DisputeRaised",
      "type": "event"
    },
    {
      "anonymous": false,
      "inputs": [
        {
          "indexed": true,
          "internalType": "bytes32",
          "name": "jobKey",
          "type": "bytes32"
        },
        {
          "indexed": false,
          "internalType": "enum JobEscrow.Resolution",
          "name": "outcome",
          "type": "uint8"
        },
        {
          "indexed": false,
          "internalType": "uint16",
          "name": "payoutBps",
          "type": "uint16"
        },
        {
          "indexed": false,
          "internalType": "uint8",
          "name": "rating",
          "type": "uint8"
        },
        {
          "indexed": false,
          "internalType": "uint256",
          "name": "paidToFreelancer",
          "type": "uint256"
        },
        {
          "indexed": false,
          "internalType": "uint256",
          "name": "refundedToClient",
          "type": "uint256"
        }
      ],
      "name": "DisputeResolved",
      "type": "event"
    },
    {
      "anonymous": false,
      "inputs": [
        {
          "indexed": true,
          "internalType": "bytes32",
          "name": "jobKey",
          "type": "bytes32"
        },
        {
          "indexed": true,
          "internalType": "address",
          "name": "fundraiseAddr",
          "type": "address"
        }
      ],
      "name": "FundraiseLinked",
      "type": "event"
    },
    {
      "anonymous": false,
      "inputs": [
        {
          "indexed": true,
          "internalType": "bytes32",
          "name": "jobKey",
          "type": "bytes32"
        },
        {
          "indexed": true,
          "internalType": "address",
          "name": "to",
          "type": "address"
        },
        {
          "indexed": false,
          "internalType": "uint256",
          "name": "netAmount",
          "type": "uint256"
        },
        {
          "indexed": false,
          "internalType": "uint256",
          "name": "feeAmount",
          "type": "uint256"
        }
      ],
      "name": "Paid",
      "type": "event"
    },
    {
      "anonymous": false,
      "inputs": [
        {
          "indexed": true,
          "internalType": "bytes32",
          "name": "jobKey",
          "type": "bytes32"
        },
        {
          "indexed": true,
          "internalType": "address",
          "name": "to",
          "type": "address"
        },
        {
          "indexed": false,
          "internalType": "uint256",
          "name": "amount",
          "type": "uint256"
        }
      ],
      "name": "Refunded",
      "type": "event"
    },
    {
      "anonymous": false,
      "inputs": [
        {
          "indexed": true,
          "internalType": "bytes32",
          "name": "jobKey",
          "type": "bytes32"
        },
        {
          "indexed": false,
          "internalType": "string",
          "name": "uri",
          "type": "string"
        }
      ],
      "name": "WorkDelivered",
      "type": "event"
    },
    {
      "inputs": [],
      "name": "acceptCancel",
      "outputs": [],
      "stateMutability": "nonpayable",
      "type": "function"
    },
    {
      "inputs": [],
      "name": "amount",
      "outputs": [
        {
          "internalType": "uint256",
          "name": "",
          "type": "uint256"
        }
      ],
      "stateMutability": "view",
      "type": "function"
    },
    {
      "inputs": [
        {
          "internalType": "uint8",
          "name": "rating",
          "type": "uint8"
        }
      ],
      "name": "approveWork",
      "outputs": [],
      "stateMutability": "nonpayable",
      "type": "function"
    },
    {
      "inputs": [],
      "name": "autoApproveDefaultRating",
      "outputs": [
        {
          "internalType": "uint8",
          "name": "",
          "type": "uint8"
        }
      ],
      "stateMutability": "view",
      "type": "function"
    },
    {
      "inputs": [],
      "name": "bootstrapRegisterJob",
      "outputs": [],
      "stateMutability": "nonpayable",
      "type": "function"
    },
    {
      "inputs": [],
      "name": "cancelRequestedBy",
      "outputs": [
        {
          "internalType": "address",
          "name": "",
          "type": "address"
        }
      ],
      "stateMutability": "view",
      "type": "function"
    },
    {
      "inputs": [],
      "name": "cancelWindowEnd",
      "outputs": [
        {
          "internalType": "uint64",
          "name": "",
          "type": "uint64"
        }
      ],
      "stateMutability": "view",
      "type": "function"
    },
    {
      "inputs": [],
      "name": "client",
      "outputs": [
        {
          "internalType": "address",
          "name": "",
          "type": "address"
        }
      ],
      "stateMutability": "view",
      "type": "function"
    },
    {
      "inputs": [],
      "name": "currentDeadlines",
      "outputs": [
        {
          "internalType": "uint64",
          "name": "cancelEnd",
          "type": "uint64"
        },
        {
          "internalType": "uint64",
          "name": "_deliveryDue",
          "type": "uint64"
        },
        {
          "internalType": "uint64",
          "name": "_reviewDue",
          "type": "uint64"
        }
      ],
      "stateMutability": "view",
      "type": "function"
    },
    {
      "inputs": [
        {
          "internalType": "string",
          "name": "deliveryURI",
          "type": "string"
        }
      ],
      "name": "deliverWork",
      "outputs": [],
      "stateMutability": "nonpayable",
      "type": "function"
    },
    {
      "inputs": [],
      "name": "delivered",
      "outputs": [
        {
          "internalType": "bool",
          "name": "",
          "type": "bool"
        }
      ],
      "stateMutability": "view",
      "type": "function"
    },
    {
      "inputs": [],
      "name": "deliveryDue",
      "outputs": [
        {
          "internalType": "uint64",
          "name": "",
          "type": "uint64"
        }
      ],
      "stateMutability": "view",
      "type": "function"
    },
    {
      "inputs": [
        {
          "internalType": "uint256",
          "name": "",
          "type": "uint256"
        }
      ],
      "name": "deliveryHistory",
      "outputs": [
        {
          "internalType": "string",
          "name": "uri",
          "type": "string"
        },
        {
          "internalType": "uint64",
          "name": "timestamp",
          "type": "uint64"
        },
        {
          "internalType": "uint256",
          "name": "version",
          "type": "uint256"
        }
      ],
      "stateMutability": "view",
      "type": "function"
    },
    {
      "inputs": [],
      "name": "disputed",
      "outputs": [
        {
          "internalType": "bool",
          "name": "",
          "type": "bool"
        }
      ],
      "stateMutability": "view",
      "type": "function"
    },
    {
      "inputs": [],
      "name": "escrowFactory",
      "outputs": [
        {
          "internalType": "address",
          "name": "",
          "type": "address"
        }
      ],
      "stateMutability": "view",
      "type": "function"
    },
    {
      "inputs": [],
      "name": "freelancer",
      "outputs": [
        {
          "internalType": "address",
          "name": "",
          "type": "address"
        }
      ],
      "stateMutability": "view",
      "type": "function"
    },
    {
      "inputs": [],
      "name": "fundraiseContract",
      "outputs": [
        {
          "internalType": "address",
          "name": "",
          "type": "address"
        }
      ],
      "stateMutability": "view",
      "type": "function"
    },
    {
      "inputs": [],
      "name": "getAllDeliveries",
      "outputs": [
        {
          "components": [
            {
              "internalType": "string",
              "name": "uri",
              "type": "string"
            },
            {
              "internalType": "uint64",
              "name": "timestamp",
              "type": "uint64"
            },
            {
              "internalType": "uint256",
              "name": "version",
              "type": "uint256"
            }
          ],
          "internalType": "struct JobEscrow.Delivery[]",
          "name": "",
          "type": "tuple[]"
        }
      ],
      "stateMutability": "view",
      "type": "function"
    },
    {
      "inputs": [
        {
          "internalType": "uint256",
          "name": "index",
          "type": "uint256"
        }
      ],
      "name": "getDelivery",
      "outputs": [
        {
          "internalType": "string",
          "name": "uri",
          "type": "string"
        },
        {
          "internalType": "uint64",
          "name": "timestamp",
          "type": "uint64"
        },
        {
          "internalType": "uint256",
          "name": "version",
          "type": "uint256"
        }
      ],
      "stateMutability": "view",
      "type": "function"
    },
    {
      "inputs": [],
      "name": "getDeliveryCount",
      "outputs": [
        {
          "internalType": "uint256",
          "name": "",
          "type": "uint256"
        }
      ],
      "stateMutability": "view",
      "type": "function"
    },
    {
      "inputs": [],
      "name": "jobKey",
      "outputs": [
        {
          "internalType": "bytes32",
          "name": "",
          "type": "bytes32"
        }
      ],
      "stateMutability": "view",
      "type": "function"
    },
    {
      "inputs": [],
      "name": "lastDeliveryURI",
      "outputs": [
        {
          "internalType": "string",
          "name": "",
          "type": "string"
        }
      ],
      "stateMutability": "view",
      "type": "function"
    },
    {
      "inputs": [],
      "name": "lastDisputeURI",
      "outputs": [
        {
          "internalType": "string",
          "name": "",
          "type": "string"
        }
      ],
      "stateMutability": "view",
      "type": "function"
    },
    {
      "inputs": [],
      "name": "platformFeeBps",
      "outputs": [
        {
          "internalType": "uint16",
          "name": "",
          "type": "uint16"
        }
      ],
      "stateMutability": "view",
      "type": "function"
    },
    {
      "inputs": [],
      "name": "platformWallet",
      "outputs": [
        {
          "internalType": "address",
          "name": "",
          "type": "address"
        }
      ],
      "stateMutability": "view",
      "type": "function"
    },
    {
      "inputs": [],
      "name": "processTimeouts",
      "outputs": [],
      "stateMutability": "nonpayable",
      "type": "function"
    },
    {
      "inputs": [],
      "name": "profile",
      "outputs": [
        {
          "internalType": "contract FreelancerProfile",
          "name": "",
          "type": "address"
        }
      ],
      "stateMutability": "view",
      "type": "function"
    },
    {
      "inputs": [
        {
          "internalType": "string",
          "name": "reasonURI",
          "type": "string"
        }
      ],
      "name": "raiseDispute",
      "outputs": [],
      "stateMutability": "nonpayable",
      "type": "function"
    },
    {
      "inputs": [],
      "name": "requestCancel",
      "outputs": [],
      "stateMutability": "nonpayable",
      "type": "function"
    },
    {
      "inputs": [
        {
          "internalType": "uint16",
          "name": "payoutBps",
          "type": "uint16"
        },
        {
          "internalType": "uint8",
          "name": "rating",
          "type": "uint8"
        },
        {
          "internalType": "enum JobEscrow.Resolution",
          "name": "outcome",
          "type": "uint8"
        }
      ],
      "name": "resolveDispute",
      "outputs": [],
      "stateMutability": "nonpayable",
      "type": "function"
    },
    {
      "inputs": [],
      "name": "resolver",
      "outputs": [
        {
          "internalType": "address",
          "name": "",
          "type": "address"
        }
      ],
      "stateMutability": "view",
      "type": "function"
    },
    {
      "inputs": [],
      "name": "reviewDue",
      "outputs": [
        {
          "internalType": "uint64",
          "name": "",
          "type": "uint64"
        }
      ],
      "stateMutability": "view",
      "type": "function"
    },
    {
      "inputs": [],
      "name": "reviewWindowSecs",
      "outputs": [
        {
          "internalType": "uint64",
          "name": "",
          "type": "uint64"
        }
      ],
      "stateMutability": "view",
      "type": "function"
    },
    {
      "inputs": [
        {
          "internalType": "address",
          "name": "_fundraise",
          "type": "address"
        }
      ],
      "name": "setFundraiseContract",
      "outputs": [],
      "stateMutability": "nonpayable",
      "type": "function"
    },
    {
      "inputs": [],
      "name": "terminal",
      "outputs": [
        {
          "internalType": "bool",
          "name": "",
          "type": "bool"
        }
      ],
      "stateMutability": "view",
      "type": "function"
    },
    {
      "inputs": [],
      "name": "usdt",
      "outputs": [
        {
          "internalType": "contract IERC20",
          "name": "",
          "type": "address"
        }
      ],
      "stateMutability": "view",
      "type": "function"
    }
  ],
  "bytecode": "0x610220806040523461049f576133c7803803809161001d82856104cf565b833981016101c08282031261049f57610035826104f2565b91610042602082016104f2565b9161004f604083016104f2565b60608301516080840151919290916001600160401b03811161049f5784019080601f8301121561049f578151916001600160401b0383116104b957604051916100a2601f8501601f1916602001846104cf565b8383526020848301011161049f5760005b8381106104a4575050600091016020015260a083015161ffff81169586820361049f576100e260c086016104f2565b6100ee60e087016104f2565b6100fb61010088016104f2565b916101096101208901610506565b946101176101408a01610506565b966101256101608b01610506565b986101808b01519a60ff8c168c0361049f576101a061014491016104f2565b60016000556001600160a01b0388169d9097908e15801561048e575b801561047d575b801561046c575b801561045b575b801561044a575b8015610439575b6104285783156104175761271010610406576080528b60a05260018060a01b031660c05260e05261010052610120526101405260018060a01b0316610160526101805260018060401b031660018060401b0342160160018060401b0381116103f0576101a0526101c0526101e05261020052604051906020820192308452604083015260018060a01b03166060820152606081526102226080826104cf565b519020600155604051612eac908161051b8239608051818181610307015281816110f4015281816116da01528181611dc8015281816124c60152612816015260a0518181816103c201528181610c5b01528181610dd60152818161124c0152818161143901528181611f9501528181612147015281816125c901528181612b870152612d1a015260c05181818161163801528181611a9a0152818161273b01526128e3015260e05181610d700152610100518181816116a001528181611c05015261292b015261012051818181610291015281816121ce0152612da00152610140518181816115b701526117970152610160518181816105f601528181610d290152818161119d015281816114ae01528181611c3901528181611efa0152818161203c01528181612214015281816127880152818161296001528181612aec0152612c1d015261018051818181610aad015281816112050152818161147b01528181611af70152611d0101526101a0518181816101dc01528181610b3d015261258c01526101c051818181610208015281816102570152818161237501526123a701526101e051818181610574015281816110820152612482015261020051818181610e5701526123d00152f35b634e487b7160e01b600052601160045260246000fd5b63bbf4268d60e01b60005260046000fd5b6365e52d5160e11b60005260046000fd5b63d92e233d60e01b60005260046000fd5b506001600160a01b03891615610183565b506001600160a01b0388161561017c565b506001600160a01b03871615610175565b506001600160a01b0386161561016e565b506001600160a01b03831615610167565b506001600160a01b038e1615610160565b600080fd5b806020809284010151828286010152016100b3565b634e487b7160e01b600052604160045260246000fd5b601f909101601f19168101906001600160401b038211908210176104b957604052565b51906001600160a01b038216820361049f57565b51906001600160401b038216820361049f5756fe608080604052600436101561001357600080fd5b600090813560e01c90816304f3bcec14611783575080630695c46c1461175d578063080077a114611709578063109e94cf146116c457806322dcd13e146116855780632f051579146116675780632f48ab7d1461162257806346a863481461157a57806350ec709a14611468578063725a3b4b146110d45780637a1a464d146110a6578063805bf08a146110625780638f00c31514610f10578063916b2f8814610e7b57806392c67f7214610e3d578063a0d3db8514610e05578063a37dda2c14610dc0578063a9ac153e14610d93578063aa8c217c14610d58578063ab60636c14610d13578063afcbdd6014610c32578063b533a0cc14610c08578063b6d98b6b14610b61578063b781085314610b1d578063bbdfbfba14610afa578063bcc9c5ed14610adc578063bdd1daaa14610a97578063dd3d06b9146109b4578063de8211a914610925578063e35d804c146108fc578063e4933ae3146103b0578063f0df51b3146102e6578063f45d0bc6146102c0578063fa2af9da1461027b578063fd35b33c146102375763fe5d97c8146101ad57600080fd5b3461023457806003193601126102345760606001600160401b0360025460181c16604051906001600160401b037f00000000000000000000000000000000000000000000000000000000000000001682526001600160401b037f00000000000000000000000000000000000000000000000000000000000000001660208301526040820152f35b80fd5b503461023457806003193601126102345760206040516001600160401b037f0000000000000000000000000000000000000000000000000000000000000000168152f35b50346102345780600319360112610234576040517f00000000000000000000000000000000000000000000000000000000000000006001600160a01b03168152602090f35b5034610234578060031936011261023457602060ff60025460101c166040519015158152f35b50346102345760203660031901126102345760043560ff811681036103ac577f00000000000000000000000000000000000000000000000000000000000000006001600160a01b0316330361039d5760ff60025460101c1661038e5761034a6125f8565b60025460ff81161561037f5760081c60ff1661037057610369906128b2565b6001815580f35b6362e6201d60e01b8252600482fd5b630a8bd16f60e21b8352600483fd5b63e405a43360e01b8252600482fd5b630836f21d60e21b8252600482fd5b5080fd5b5034610234576103bf36611997565b907f00000000000000000000000000000000000000000000000000000000000000006001600160a01b031633036108ed5760025460ff8160101c166108de5760ff8116156108ce575b506001600160401b0382116108ba576104226003546117fb565b601f8111610857575b508282601f81116001146107d557806104599286916107ca575b508160011b916000199060031b1c19161790565b6003555b6001600160401b034216600654600181018082116107b6576040519161048283611835565b604051610499601f8801601f191660200182611866565b86815236878701116107b2578686602083013787602088830101528352602083019084825260408401928084526801000000000000000082101561078a576006556104e3906117c6565b93909361079e57518051906001600160401b03821161078a5761050685546117fb565b601f8111610745575b50602090601f83116001146106de5791806105459260029695948c926106d3575b50508160011b916000199060031b1c19161790565b84555b6001600160401b03600185019151166001600160401b0319825416179055519101556001600160401b037f0000000000000000000000000000000000000000000000000000000000000000169081610682575b505060ff60025460081c16156105ef575b7f6d9e4862e2f82a8175fcd785cd60c14f21a2af0c38c0b7682015fece7158e7e490600154926105e96040519283926020845260208401916122f4565b0390a280f35b60015483907f00000000000000000000000000000000000000000000000000000000000000006001600160a01b031690813b1561067357829160448392604051948593849263a3abe42560e01b84526004840152600360248401525af180156106775761065e575b50506105ac565b8161066891611866565b610673578238610657565b8280fd5b6040513d84823e3d90fd5b016001600160401b0381116106bf576affffffffffffffff0000006002549160181b16906affffffffffffffff000000191617600255388061059b565b634e487b7160e01b84526011600452602484fd5b015190503880610530565b858a52818a209190601f1984168b5b81811061072d575091600193918560029897969410610714575b505050811b018455610548565b015160001960f88460031b161c19169055388080610707565b929360206001819287860151815501950193016106ed565b858a5260208a20601f840160051c81019160208510610780575b601f0160051c01905b818110610775575061050f565b8a8155600101610768565b909150819061075f565b634e487b7160e01b89526041600452602489fd5b634e487b7160e01b88526004889052602488fd5b8780fd5b634e487b7160e01b86526011600452602486fd5b905083013538610445565b50600384527fc2575a0e9e593c00f959f8c92f12db2869c3395a3b0502d05e2516446f71f85b9083601f198116865b81811061083c575010610822575b5050600182811b0160035561045d565b820135600019600385901b60f8161c191690553880610812565b85840135855560019094019360209384019387935001610804565b600384527fc2575a0e9e593c00f959f8c92f12db2869c3395a3b0502d05e2516446f71f85b601f840160051c810191602085106108b0575b601f0160051c01905b8181106108a5575061042b565b848155600101610898565b909150819061088f565b634e487b7160e01b83526041600452602483fd5b60ff191660011760025538610408565b63e405a43360e01b8452600484fd5b633832386960e11b8352600483fd5b50346102345780600319360112610234576005546040516001600160a01b039091168152602090f35b50346102345760203660031901126102345760043560065481101561097f5761094d906117c6565b506001600160401b036001820154169061097b61096e600283015492611887565b916040519384938461196c565b0390f35b60405162461bcd60e51b815260206004820152600d60248201526c092dcecc2d8d2c840d2dcc8caf609b1b6044820152606490fd5b50346102345780600319360112610234576040519080600354906109d7826117fb565b8085529160018116908115610a705750600114610a13575b61097b846109ff81860382611866565b60405191829160208352602083019061192b565b600381527fc2575a0e9e593c00f959f8c92f12db2869c3395a3b0502d05e2516446f71f85b939250905b808210610a56575090915081016020016109ff826109ef565b919260018160209254838588010152019101909291610a3d565b60ff191660208087019190915292151560051b850190920192506109ff91508390506109ef565b50346102345780600319360112610234576040517f00000000000000000000000000000000000000000000000000000000000000006001600160a01b03168152602090f35b50346102345780600319360112610234576020600154604051908152f35b5034610234578060031936011261023457602060ff600254166040519015158152f35b503461023457806003193601126102345760206040516001600160401b037f0000000000000000000000000000000000000000000000000000000000000000168152f35b5034610234578060031936011261023457604051908060045490610b84826117fb565b8085529160018116908115610a705750600114610bab5761097b846109ff81860382611866565b600481527f8a35acfbc15ff81a39ae7d344fd709f28e8600b4aa8c65c6b64bfe7fe36bd19b939250905b808210610bee575090915081016020016109ff826109ef565b919260018160209254838588010152019101909291610bd5565b503461023457806003193601126102345760206001600160401b0360025460181c16604051908152f35b5034610234576020366003190112610234576004356001600160a01b038116908190036103ac577f00000000000000000000000000000000000000000000000000000000000000006001600160a01b03163303610d045760ff60025460101c1661038e576005546001600160a01b038116610cf5578115610ce6576001600160a01b03191681176005556001547f7ba7f2073452ad5352396aae454b889f27d8b61e31820eed827ad53a11ea72158380a380f35b63d92e233d60e01b8352600483fd5b6348f5c3ed60e01b8352600483fd5b633832386960e11b8252600482fd5b50346102345780600319360112610234576040517f00000000000000000000000000000000000000000000000000000000000000006001600160a01b03168152602090f35b503461023457806003193601126102345760206040517f00000000000000000000000000000000000000000000000000000000000000008152f35b503461023457806003193601126102345760025460405160589190911c6001600160a01b03168152602090f35b50346102345780600319360112610234576040517f00000000000000000000000000000000000000000000000000000000000000006001600160a01b03168152602090f35b503461023457806003193601126102345760ff60025460101c16610e2e57610e2b6124c3565b80f35b63e405a43360e01b8152600490fd5b5034610234578060031936011261023457602060405160ff7f0000000000000000000000000000000000000000000000000000000000000000168152f35b503461023457806003193601126102345760ff60025460101c16610e2e57610ea16125f8565b60025460581c6001600160a01b03168015610f01573314610ef257610ec4612723565b6001547f4897449f1b0ce6101a99ba5e17eea100dbfc65a5eb810060f708a392668bce978280a26001815580f35b6348f5c3ed60e01b8152600490fd5b6399fcd6df60e01b8252600482fd5b50346102345780600319360112610234576006546001600160401b03811161104e57604051610f4560208360051b0182611866565b818152600683526020810191837ff652222313e28459528d920b65115c16c04f3efc82aaedc97be59f3f377c0d3f845b83831061100757868587604051928392602084019060208552518091526040840160408260051b8601019392905b828210610fb257505050500390f35b919360019193955060208091603f19898203018552875190604080610fe0845160608552606085019061192b565b936001600160401b0386820151168685015201519101529601920192018594939192610fa3565b6003602060019260405161101a81611835565b61102386611887565b81526001600160401b0385870154168382015260028601546040820152815201920192019190610f75565b634e487b7160e01b82526041600452602482fd5b503461023457806003193601126102345760206040516001600160401b037f0000000000000000000000000000000000000000000000000000000000000000168152f35b503461023457806003193601126102345760ff60025460101c16610e2e576110cc6125f8565b610369612315565b5034610234576110e336611997565b9060025460ff8160101c166108de577f00000000000000000000000000000000000000000000000000000000000000006001600160a01b0316903382141580611435575b6114265760ff8160081c166114175761ff001916610100176002556001600160401b03831161140357839061115d6004546117fb565b601f81116113b4575b508382601f821160011461132f57908061119492859161132457508160011b916000199060031b1c19161790565b6004555b6001547f00000000000000000000000000000000000000000000000000000000000000006001600160a01b031690813b1561132057839160448392604051948593849263a3abe42560e01b84526004840152600560248401525af1908115611315578391611300575b50507f00000000000000000000000000000000000000000000000000000000000000006001600160a01b031690813b15610673576040516356d0aa4160e01b815260048101919091527f00000000000000000000000000000000000000000000000000000000000000006001600160a01b03166024820152606060448201529082908290818381611296606482018b8b6122f4565b03925af18015610677576112eb575b50507f49e53fd224357020766ce272815e8a15c300aace14a011cfcded9335798fbd0e6112e56001549260405191829160208352339660208401916122f4565b0390a380f35b816112f591611866565b6106735782386112a5565b8161130a91611866565b6103ac578138611201565b6040513d85823e3d90fd5b8380fd5b905085013538610445565b600484527f8a35acfbc15ff81a39ae7d344fd709f28e8600b4aa8c65c6b64bfe7fe36bd19b915085601f198116855b81811061139657501061137c575b5050600184811b01600455611198565b840135600019600387901b60f8161c19169055388061136c565b8784013585558996506001909401936020938401938993500161135e565b90916004905260208520601f850160051c810191602086106113f9575b90601f879493920160051c01905b8181106113ec5750611166565b92835585926001016113df565b90915081906113d1565b634e487b7160e01b84526041600452602484fd5b6362e6201d60e01b8552600485fd5b6348f5c3ed60e01b8552600485fd5b50337f00000000000000000000000000000000000000000000000000000000000000006001600160a01b03161415611127565b50346102345780600319360112610234577f00000000000000000000000000000000000000000000000000000000000000006001600160a01b0316330361156b576001547f00000000000000000000000000000000000000000000000000000000000000006001600160a01b03169190823b156103ac5760405190631f481a5d60e31b82526004820152818160248183875af180156106775761155b575b508091600154813b1561155757829160448392604051948593849263a3abe42560e01b84526004840152600260248401525af18015610677576115465750f35b8161155091611866565b6102345780f35b5050fd5b8161156591611866565b38611506565b631966391b60e11b8152600490fd5b5034610234576060366003190112610234576004359061ffff821682036102345760243560ff811681036103ac57604435906002821015610673577f00000000000000000000000000000000000000000000000000000000000000006001600160a01b031633036116135760ff60025460101c166116045761036992936115ff6125f8565b611a63565b63e405a43360e01b8352600483fd5b635d154fe160e11b8352600483fd5b50346102345780600319360112610234576040517f00000000000000000000000000000000000000000000000000000000000000006001600160a01b03168152602090f35b50346102345780600319360112610234576020600654604051908152f35b5034610234578060031936011261023457602060405161ffff7f0000000000000000000000000000000000000000000000000000000000000000168152f35b50346102345780600319360112610234576040517f00000000000000000000000000000000000000000000000000000000000000006001600160a01b03168152602090f35b5034610234576020366003190112610234576004356006548110156103ac57611731906117c6565b5061173b81611887565b61097b60026001600160401b036001850154169301546040519384938461196c565b5034610234578060031936011261023457602060ff60025460081c166040519015158152f35b9050346103ac57816003193601126103ac577f00000000000000000000000000000000000000000000000000000000000000006001600160a01b03168152602090f35b6006548110156117e55760066000526003602060002091020190600090565b634e487b7160e01b600052603260045260246000fd5b90600182811c9216801561182b575b602083101461181557565b634e487b7160e01b600052602260045260246000fd5b91607f169161180a565b606081019081106001600160401b0382111761185057604052565b634e487b7160e01b600052604160045260246000fd5b90601f801991011681019081106001600160401b0382111761185057604052565b906040519182600082549261189b846117fb565b808452936001811690811561190957506001146118c2575b506118c092500383611866565b565b90506000929192526020600020906000915b8183106118ed5750509060206118c092820101386118b3565b60209193508060019154838589010152019101909184926118d4565b9050602092506118c094915060ff191682840152151560051b820101386118b3565b919082519283825260005b848110611957575050826000602080949584010152601f8019910116010190565b80602080928401015182828601015201611936565b6001600160401b0361198c6040939695949660608452606084019061192b565b951660208201520152565b9060206003198301126119e6576004356001600160401b0381116119e657826023820112156119e6578060040135926001600160401b0384116119e657602484830101116119e6576024019190565b600080fd5b818102929181159184041417156119fe57565b634e487b7160e01b600052601160045260246000fd5b919082039182116119fe57565b908160209103126119e657516001600160a01b03811681036119e65790565b906002821015611a4d5752565b634e487b7160e01b600052602160045260246000fd5b91906002549260ff60009460081c16156122e55761ffff1661271081116122d6576040516370a0823160e01b8152306004820152917f0000000000000000000000000000000000000000000000000000000000000000906020846024816001600160a01b0386165afa9384156121335786946122a2575b50600285101561228e578415611bc357505050611af5612723565b7f00000000000000000000000000000000000000000000000000000000000000006001600160a01b0316803b156113205783809160246040518094819363174538b560e31b83523060048401525af18015611bb857908491611ba3575b50507f81084fdb1640d4d17bced528639ccc751b0b4d9e399790b6d89dccf33c1b66409160a09160015494611b8a6040518094611a40565b80602084015280604084015260608301526080820152a2565b81611bad91611866565b610673578238611b52565b6040513d86823e3d90fd5b90929194611bdf612710611bd788866119eb565b048094611a14565b938382811561220a57600160ff861610612201575b600560ff8616116121f8575b61ffff7f000000000000000000000000000000000000000000000000000000000000000016806121a0575b5081611e59575b50506001547f00000000000000000000000000000000000000000000000000000000000000006001600160a01b031690813b156113205760405163a3abe42560e01b81526004808201929092526024810191909152838160448183865af18015611bb857908491611e44575b5050600154813b15611320576040516304e29d0960e51b815260ff8616600482015260248101919091529083908290604490829084905af1801561131557908391611e2f575b50505b84611dc2575b506002805462ff00001916620100001790557f00000000000000000000000000000000000000000000000000000000000000006001600160a01b0316803b156103ac5781809160246040518094819363174538b560e31b83523060048401525af1801561067757611dad575b5050917f81084fdb1640d4d17bced528639ccc751b0b4d9e399790b6d89dccf33c1b6640939160ff60a09460015497611d956040518097611a40565b602086015216604084015260608301526080820152a2565b611db8828092611866565b6102345780611d59565b611dee857f0000000000000000000000000000000000000000000000000000000000000000809361261a565b6001546040518681526001600160a01b03909216917ff552ca82e113ac3c539c3d617f29fcd19c172a0c75dad017555c9e109f7fe18390602090a338611ced565b81611e3991611866565b6103ac578138611ce4565b81611e4e91611866565b610673578238611c9e565b6005546001600160a01b03161561202d57600554611e829083906001600160a01b03168561261a565b6005546001600160a01b0316803b15612029578480916024604051809481936391c05b0b60e01b83528860048401525af18015611fd357908591612014575b5050600554604051630e672fe160e01b815290602090829060049082906001600160a01b03165afa908115611fd3578591611fe2575b507f00000000000000000000000000000000000000000000000000000000000000006001600160a01b031690813b15611fde57859160248392604051948593849263c031eddf60e01b845260048401525af18015611fd357908591611fbe575b50505b6001549060405192835260208301527f5ce467ae5694ddb233a02ca7eb987835c5e2ea71eec0e379bf3a5e1207ae2459604060018060a01b037f00000000000000000000000000000000000000000000000000000000000000001693a33880611c32565b81611fc891611866565b611320578338611f57565b6040513d87823e3d90fd5b8580fd5b90506020813d60201161200c575b81611ffd60209383611866565b810103126119e6575138611ef7565b3d9150611ff0565b8161201e91611866565b611320578338611ec1565b8480fd5b60405163453bdd0d60e11b81527f00000000000000000000000000000000000000000000000000000000000000006001600160a01b031690602081600481855afa908115612133578691612171575b506001600160a01b0381169084821561213e57612099918761265b565b803b15611fde5785809160246040518094819363bc1ca3e960e01b83528960048401525af180156121335790869161211e575b50505b803b156120295784809160246040518094819363c031eddf60e01b83528860048401525af18015611fd357908591612109575b5050611f5a565b8161211391611866565b611320578338612102565b8161212891611866565b6120295784386120cc565b6040513d88823e3d90fd5b905061216c91507f00000000000000000000000000000000000000000000000000000000000000008661261a565b6120cf565b612193915060203d602011612199575b61218b8183611866565b810190611a21565b3861207c565b503d612181565b61271092506121b09150866119eb565b046121bb8186611a14565b90806121c8575b38611c2b565b6121f3817f00000000000000000000000000000000000000000000000000000000000000008561261a565b6121c2565b60059450611c00565b60019450611bf4565b50506001549091907f00000000000000000000000000000000000000000000000000000000000000006001600160a01b0316803b156106735760405163a3abe42560e01b815260048101929092526006602483015282908290604490829084905af180156106775761227e575b5090611ce7565b8161228891611866565b38612277565b634e487b7160e01b86526021600452602486fd5b9093506020813d6020116122ce575b816122be60209383611866565b81010312611fde57519238611ada565b3d91506122b1565b63bbf4268d60e01b8452600484fd5b63126ea8e960e31b8452600484fd5b908060209392818452848401376000828201840152601f01601f1916010190565b60025460ff811690816124b3575b81612480575b81612469575b81612453575b506123ce5760ff60025416158061239c575b8061236a575b6123625763085de62560e01b60005260046000fd5b6118c0612723565b506001600160401b037f000000000000000000000000000000000000000000000000000000000000000016421161234d565b506001600160401b037f0000000000000000000000000000000000000000000000000000000000000000161515612347565b7f0000000000000000000000000000000000000000000000000000000000000000600160ff82161061244b575b600560ff821611612443575b612410816128b2565b7f1be1750ddd59392ba6c564a4194b0874f9295a7595042a77fc9b7f34938aa0af60206001549260ff60405191168152a2565b506005612407565b5060016123fb565b6001600160401b03915060181c16421138612335565b90506001600160401b038160181c1615159061232f565b7f00000000000000000000000000000000000000000000000000000000000000006001600160401b031615159150612329565b905060ff8160081c161590612323565b337f00000000000000000000000000000000000000000000000000000000000000006001600160a01b0316148015806125c5575b6125b45760ff6002541615612571575b50600280547fff0000000000000000000000000000000000000000ffffffffffffffffffffff1633605881901b600160581b600160f81b0316919091179091556001547f7c2fb7ad28ff3012b206b788cc80d55099949fd45e69314f27fdace959bae761600080a3565b80612581575b6123625738612507565b506001600160401b037f000000000000000000000000000000000000000000000000000000000000000016421115612577565b6348f5c3ed60e01b60005260046000fd5b50337f00000000000000000000000000000000000000000000000000000000000000006001600160a01b031614156124f7565b600260005414612609576002600055565b633ee5aeb560e01b60005260046000fd5b60405163a9059cbb60e01b60208201526001600160a01b039290921660248301526044808301939093529181526118c091612656606483611866565b612e0f565b60405163095ea7b360e01b60208083019182526001600160a01b03851660248401526044808401969096529482529293909260009061269b606486611866565b84519082855af16000513d826126fe575b5050156126b857505050565b60405163095ea7b360e01b60208201526001600160a01b039093166024840152600060448085019190915283526118c092612656906126f8606482611866565b82612e0f565b90915061271b57506001600160a01b0381163b15155b38806126ac565b600114612714565b6040516370a0823160e01b81523060048201526000907f00000000000000000000000000000000000000000000000000000000000000006020826024816001600160a01b0385165afa91821561131557839261287e575b5081612810575b50506001547f00000000000000000000000000000000000000000000000000000000000000006001600160a01b0316803b156106735760405163a3abe42560e01b815260048101929092526006602483015282908290604490829084905af1801561067757612800575b50506201000062ff0000196002541617600255565b8161280a91611866565b386127eb565b61283c827f0000000000000000000000000000000000000000000000000000000000000000809361261a565b6001546040519283526001600160a01b03909116917ff552ca82e113ac3c539c3d617f29fcd19c172a0c75dad017555c9e109f7fe18390602090a33880612781565b9091506020813d6020116128aa575b8161289a60209383611866565b810103126106735751903861277a565b3d915061288d565b600160ff821610612e07575b600560ff821611612dff575b6040516370a0823160e01b8152306004820152600091907f00000000000000000000000000000000000000000000000000000000000000006020826024816001600160a01b0385165afa918215611bb8578492612dcb575b5083908261ffff7f00000000000000000000000000000000000000000000000000000000000000001680612d6e575b505082612a49575b50506001547f00000000000000000000000000000000000000000000000000000000000000006001600160a01b03169150813b156113205760405163a3abe42560e01b81526004808201929092526024810191909152838160448183865af18015611bb857908491612a34575b505060015491813b15611320576040516304e29d0960e51b815260ff919091166004820152602481019290925282908290604490829084905af1801561067757612a1f5750506201000062ff0000196002541617600255565b612a2a828092611866565b61023457806127eb565b81612a3e91611866565b6106735782386129c6565b60055483906001600160a01b031615612c0d57600554612a74926001600160a01b039091169061261a565b6005546001600160a01b0316803b15612029578480916024604051809481936391c05b0b60e01b83528860048401525af18015611fd357908591612bf8575b5050600554604051630e672fe160e01b815290602090829060049082906001600160a01b03165afa908115611fd3578591612bc6575b507f00000000000000000000000000000000000000000000000000000000000000006001600160a01b031690813b15611fde57859160248392604051948593849263c031eddf60e01b845260048401525af18015611fd357908591612bb1575b50505b6001549060405192835260208301527f5ce467ae5694ddb233a02ca7eb987835c5e2ea71eec0e379bf3a5e1207ae2459604060018060a01b037f00000000000000000000000000000000000000000000000000000000000000001693a3388080612959565b81612bbb91611866565b611320578338612b49565b90506020813d602011612bf0575b81612be160209383611866565b810103126119e6575138612ae9565b3d9150612bd4565b81612c0291611866565b611320578338612ab3565b5060405163453bdd0d60e11b81527f00000000000000000000000000000000000000000000000000000000000000006001600160a01b03169190602081600481865afa908115612d63578791612d44575b506001600160a01b0381169085908215612d1157612c7c929361265b565b803b15611fde5785809160246040518094819363bc1ca3e960e01b83528960048401525af1801561213357612cfd575b505b803b156120295784809160246040518094819363c031eddf60e01b83528860048401525af18015611fd357908591612ce8575b5050612b4c565b81612cf291611866565b611320578338612ce1565b85612d0a91969296611866565b9338612cac565b509050612d3f917f00000000000000000000000000000000000000000000000000000000000000009061261a565b612cae565b612d5d915060203d6020116121995761218b8183611866565b38612c5e565b6040513d89823e3d90fd5b819350612d7e90612710926119eb565b049182612d8c575b80612951565b612d999193508290611a14565b91612dc5827f00000000000000000000000000000000000000000000000000000000000000008361261a565b38612d86565b9091506020813d602011612df7575b81612de760209383611866565b8101031261132057519038612922565b3d9150612dda565b5060056128ca565b5060016128be565b906000602091828151910182855af115612e6a576000513d612e6157506001600160a01b0381163b155b612e405750565b635274afe760e01b60009081526001600160a01b0391909116600452602490fd5b60011415612e39565b6040513d6000823e3d90fdfea2646970667358221220035663504633735db1304963b624a57e0871303b08e2805243ba5124c35a794d64736f6c634300081c0033",
  "linkReferences": {},
  "deployedLinkReferences": {}
}