{
  "_format": "hh-sol-artifact-1",
  "contractName": "JobBoard",
  "sourceName": "contracts/Freelancing/JobBoard.sol",
  "abi": [
    {
      "inputs": [
        {
          "internalType": "address",
          "name": "_owner",
          "type": "address"
        }
      ],
      "stateMutability": "nonpayable",
      "type": "constructor"
    },
    {
      "inputs": [],
      "name": "AlreadyApplied",
      "type": "error"
    },
    {
      "inputs": [],
      "name": "AlreadyHiredOrClosed",
      "type": "error"
    },
    {
      "inputs": [],
      "name": "AmountZero",
      "type": "error"
    },
    {
      "inputs": [],
      "name": "ApplicationNotFound",
      "type": "error"
    },
    {
      "inputs": [],
      "name": "InsufficientAllowance",
      "type": "error"
    },
    {
      "inputs": [],
      "name": "InsufficientBalance",
      "type": "error"
    },
    {
      "inputs": [],
      "name": "InvalidStatus",
      "type": "error"
    },
    {
      "inputs": [],
      "name": "JobNotFound",
      "type": "error"
    },
    {
      "inputs": [],
      "name": "KYCGated",
      "type": "error"
    },
    {
      "inputs": [],
      "name": "NotAllowedFactory",
      "type": "error"
    },
    {
      "inputs": [],
      "name": "NotClient",
      "type": "error"
    },
    {
      "inputs": [],
      "name": "NotExpired",
      "type": "error"
    },
    {
      "inputs": [],
      "name": "NotFreelancer",
      "type": "error"
    },
    {
      "inputs": [],
      "name": "NotOfferRecipient",
      "type": "error"
    },
    {
      "inputs": [],
      "name": "NotOpen",
      "type": "error"
    },
    {
      "inputs": [],
      "name": "NotOwner",
      "type": "error"
    },
    {
      "inputs": [],
      "name": "NotReopenable",
      "type": "error"
    },
    {
      "inputs": [],
      "name": "OfferAlreadyProcessed",
      "type": "error"
    },
    {
      "inputs": [],
      "name": "OfferExpired",
      "type": "error"
    },
    {
      "inputs": [],
      "name": "OfferNotFound",
      "type": "error"
    },
    {
      "inputs": [],
      "name": "Reentrancy",
      "type": "error"
    },
    {
      "inputs": [],
      "name": "TooManyTags",
      "type": "error"
    },
    {
      "inputs": [],
      "name": "USDCNotSet",
      "type": "error"
    },
    {
      "inputs": [],
      "name": "WrongBond",
      "type": "error"
    },
    {
      "inputs": [],
      "name": "ZeroAddress",
      "type": "error"
    },
    {
      "anonymous": false,
      "inputs": [
        {
          "indexed": false,
          "internalType": "uint8",
          "name": "mode",
          "type": "uint8"
        },
        {
          "indexed": false,
          "internalType": "uint256",
          "name": "postingBondUSDC",
          "type": "uint256"
        }
      ],
      "name": "AntiSpamModeSet",
      "type": "event"
    },
    {
      "anonymous": false,
      "inputs": [
        {
          "indexed": true,
          "internalType": "uint256",
          "name": "jobId",
          "type": "uint256"
        },
        {
          "indexed": true,
          "internalType": "address",
          "name": "freelancer",
          "type": "address"
        },
        {
          "indexed": false,
          "internalType": "address",
          "name": "escrow",
          "type": "address"
        }
      ],
      "name": "DirectOfferAccepted",
      "type": "event"
    },
    {
      "anonymous": false,
      "inputs": [
        {
          "indexed": true,
          "internalType": "uint256",
          "name": "jobId",
          "type": "uint256"
        },
        {
          "indexed": true,
          "internalType": "address",
          "name": "client",
          "type": "address"
        }
      ],
      "name": "DirectOfferCancelled",
      "type": "event"
    },
    {
      "anonymous": false,
      "inputs": [
        {
          "indexed": true,
          "internalType": "uint256",
          "name": "jobId",
          "type": "uint256"
        },
        {
          "indexed": true,
          "internalType": "address",
          "name": "client",
          "type": "address"
        },
        {
          "indexed": true,
          "internalType": "address",
          "name": "freelancer",
          "type": "address"
        },
        {
          "indexed": false,
          "internalType": "string",
          "name": "title",
          "type": "string"
        },
        {
          "indexed": false,
          "internalType": "uint256",
          "name": "budgetUSDT",
          "type": "uint256"
        },
        {
          "indexed": false,
          "internalType": "uint64",
          "name": "expiresAt",
          "type": "uint64"
        }
      ],
      "name": "DirectOfferCreated",
      "type": "event"
    },
    {
      "anonymous": false,
      "inputs": [
        {
          "indexed": true,
          "internalType": "uint256",
          "name": "jobId",
          "type": "uint256"
        },
        {
          "indexed": true,
          "internalType": "address",
          "name": "freelancer",
          "type": "address"
        }
      ],
      "name": "DirectOfferRejected",
      "type": "event"
    },
    {
      "anonymous": false,
      "inputs": [
        {
          "indexed": true,
          "internalType": "address",
          "name": "factory",
          "type": "address"
        },
        {
          "indexed": false,
          "internalType": "bool",
          "name": "allowed",
          "type": "bool"
        }
      ],
      "name": "FactoryAllowed",
      "type": "event"
    },
    {
      "anonymous": false,
      "inputs": [
        {
          "indexed": true,
          "internalType": "address",
          "name": "factory",
          "type": "address"
        }
      ],
      "name": "FreelancerFactorySet",
      "type": "event"
    },
    {
      "anonymous": false,
      "inputs": [
        {
          "indexed": false,
          "internalType": "bool",
          "name": "enabled",
          "type": "bool"
        }
      ],
      "name": "GasSponsorshipSet",
      "type": "event"
    },
    {
      "anonymous": false,
      "inputs": [
        {
          "indexed": true,
          "internalType": "uint256",
          "name": "jobId",
          "type": "uint256"
        },
        {
          "indexed": true,
          "internalType": "address",
          "name": "freelancer",
          "type": "address"
        }
      ],
      "name": "JobApplicationWithdrawn",
      "type": "event"
    },
    {
      "anonymous": false,
      "inputs": [
        {
          "indexed": true,
          "internalType": "uint256",
          "name": "jobId",
          "type": "uint256"
        },
        {
          "indexed": true,
          "internalType": "address",
          "name": "freelancer",
          "type": "address"
        },
        {
          "indexed": false,
          "internalType": "uint64",
          "name": "appliedAt",
          "type": "uint64"
        }
      ],
      "name": "JobApplied",
      "type": "event"
    },
    {
      "anonymous": false,
      "inputs": [
        {
          "indexed": true,
          "internalType": "uint256",
          "name": "jobId",
          "type": "uint256"
        },
        {
          "indexed": true,
          "internalType": "address",
          "name": "client",
          "type": "address"
        }
      ],
      "name": "JobCancelled",
      "type": "event"
    },
    {
      "anonymous": false,
      "inputs": [
        {
          "indexed": true,
          "internalType": "uint256",
          "name": "jobId",
          "type": "uint256"
        },
        {
          "indexed": true,
          "internalType": "address",
          "name": "client",
          "type": "address"
        },
        {
          "indexed": true,
          "internalType": "address",
          "name": "freelancer",
          "type": "address"
        },
        {
          "indexed": false,
          "internalType": "address",
          "name": "escrow",
          "type": "address"
        }
      ],
      "name": "JobCompleted",
      "type": "event"
    },
    {
      "anonymous": false,
      "inputs": [
        {
          "indexed": true,
          "internalType": "uint256",
          "name": "jobId",
          "type": "uint256"
        },
        {
          "indexed": false,
          "internalType": "uint64",
          "name": "expiresAt",
          "type": "uint64"
        }
      ],
      "name": "JobExpiredClosed",
      "type": "event"
    },
    {
      "anonymous": false,
      "inputs": [
        {
          "indexed": true,
          "internalType": "uint256",
          "name": "jobId",
          "type": "uint256"
        },
        {
          "indexed": true,
          "internalType": "address",
          "name": "client",
          "type": "address"
        },
        {
          "indexed": true,
          "internalType": "address",
          "name": "freelancer",
          "type": "address"
        },
        {
          "indexed": false,
          "internalType": "address",
          "name": "escrow",
          "type": "address"
        }
      ],
      "name": "JobHired",
      "type": "event"
    },
    {
      "anonymous": false,
      "inputs": [
        {
          "indexed": true,
          "internalType": "uint256",
          "name": "jobId",
          "type": "uint256"
        },
        {
          "indexed": true,
          "internalType": "address",
          "name": "client",
          "type": "address"
        },
        {
          "indexed": false,
          "internalType": "string",
          "name": "title",
          "type": "string"
        },
        {
          "indexed": false,
          "internalType": "string",
          "name": "descriptionURI",
          "type": "string"
        },
        {
          "indexed": false,
          "internalType": "uint256",
          "name": "budgetUSDC",
          "type": "uint256"
        },
        {
          "indexed": false,
          "internalType": "bytes32[]",
          "name": "tags",
          "type": "bytes32[]"
        },
        {
          "indexed": false,
          "internalType": "uint64",
          "name": "expiresAt",
          "type": "uint64"
        }
      ],
      "name": "JobPosted",
      "type": "event"
    },
    {
      "anonymous": false,
      "inputs": [
        {
          "indexed": true,
          "internalType": "uint256",
          "name": "jobId",
          "type": "uint256"
        },
        {
          "indexed": false,
          "internalType": "uint64",
          "name": "newExpiresAt",
          "type": "uint64"
        }
      ],
      "name": "JobReopened",
      "type": "event"
    },
    {
      "anonymous": false,
      "inputs": [
        {
          "indexed": true,
          "internalType": "uint256",
          "name": "jobId",
          "type": "uint256"
        },
        {
          "indexed": false,
          "internalType": "string",
          "name": "title",
          "type": "string"
        },
        {
          "indexed": false,
          "internalType": "string",
          "name": "descriptionURI",
          "type": "string"
        },
        {
          "indexed": false,
          "internalType": "uint256",
          "name": "budgetUSDC",
          "type": "uint256"
        },
        {
          "indexed": false,
          "internalType": "bytes32[]",
          "name": "tags",
          "type": "bytes32[]"
        },
        {
          "indexed": false,
          "internalType": "uint64",
          "name": "expiresAt",
          "type": "uint64"
        }
      ],
      "name": "JobUpdated",
      "type": "event"
    },
    {
      "anonymous": false,
      "inputs": [
        {
          "indexed": true,
          "internalType": "address",
          "name": "user",
          "type": "address"
        },
        {
          "indexed": false,
          "internalType": "bool",
          "name": "isVerified",
          "type": "bool"
        }
      ],
      "name": "KYCSet",
      "type": "event"
    },
    {
      "anonymous": false,
      "inputs": [
        {
          "indexed": true,
          "internalType": "address",
          "name": "previousOwner",
          "type": "address"
        },
        {
          "indexed": true,
          "internalType": "address",
          "name": "newOwner",
          "type": "address"
        }
      ],
      "name": "OwnerChanged",
      "type": "event"
    },
    {
      "anonymous": false,
      "inputs": [
        {
          "indexed": false,
          "internalType": "bool",
          "name": "paused",
          "type": "bool"
        }
      ],
      "name": "PausedSet",
      "type": "event"
    },
    {
      "anonymous": false,
      "inputs": [
        {
          "indexed": false,
          "internalType": "bool",
          "name": "required",
          "type": "bool"
        }
      ],
      "name": "RequireApplicationToHireSet",
      "type": "event"
    },
    {
      "anonymous": false,
      "inputs": [
        {
          "indexed": true,
          "internalType": "address",
          "name": "usdc",
          "type": "address"
        }
      ],
      "name": "USDCSet",
      "type": "event"
    },
    {
      "inputs": [
        {
          "internalType": "uint256",
          "name": "jobId",
          "type": "uint256"
        }
      ],
      "name": "acceptDirectOffer",
      "outputs": [],
      "stateMutability": "nonpayable",
      "type": "function"
    },
    {
      "inputs": [
        {
          "internalType": "address",
          "name": "",
          "type": "address"
        }
      ],
      "name": "allowedFactory",
      "outputs": [
        {
          "internalType": "bool",
          "name": "",
          "type": "bool"
        }
      ],
      "stateMutability": "view",
      "type": "function"
    },
    {
      "inputs": [],
      "name": "antiSpamMode",
      "outputs": [
        {
          "internalType": "enum JobBoard.AntiSpamMode",
          "name": "",
          "type": "uint8"
        }
      ],
      "stateMutability": "view",
      "type": "function"
    },
    {
      "inputs": [
        {
          "internalType": "uint256",
          "name": "jobId",
          "type": "uint256"
        }
      ],
      "name": "applyToJob",
      "outputs": [],
      "stateMutability": "nonpayable",
      "type": "function"
    },
    {
      "inputs": [
        {
          "internalType": "uint256",
          "name": "jobId",
          "type": "uint256"
        },
        {
          "internalType": "string",
          "name": "proposalURI",
          "type": "string"
        },
        {
          "internalType": "uint256",
          "name": "bidAmount",
          "type": "uint256"
        },
        {
          "internalType": "uint64",
          "name": "deliveryDays",
          "type": "uint64"
        }
      ],
      "name": "applyToJob",
      "outputs": [],
      "stateMutability": "nonpayable",
      "type": "function"
    },
    {
      "inputs": [
        {
          "internalType": "uint256",
          "name": "jobId",
          "type": "uint256"
        }
      ],
      "name": "cancelDirectOffer",
      "outputs": [],
      "stateMutability": "nonpayable",
      "type": "function"
    },
    {
      "inputs": [
        {
          "internalType": "uint256",
          "name": "jobId",
          "type": "uint256"
        }
      ],
      "name": "cancelJob",
      "outputs": [],
      "stateMutability": "nonpayable",
      "type": "function"
    },
    {
      "inputs": [
        {
          "internalType": "uint256",
          "name": "jobId",
          "type": "uint256"
        }
      ],
      "name": "closeExpired",
      "outputs": [],
      "stateMutability": "nonpayable",
      "type": "function"
    },
    {
      "inputs": [
        {
          "internalType": "address",
          "name": "freelancer",
          "type": "address"
        },
        {
          "internalType": "string",
          "name": "title",
          "type": "string"
        },
        {
          "internalType": "string",
          "name": "descriptionURI",
          "type": "string"
        },
        {
          "internalType": "uint256",
          "name": "budgetUSDT",
          "type": "uint256"
        },
        {
          "internalType": "uint64",
          "name": "deliveryDays",
          "type": "uint64"
        },
        {
          "internalType": "uint64",
          "name": "expiresAt",
          "type": "uint64"
        }
      ],
      "name": "createDirectOffer",
      "outputs": [
        {
          "internalType": "uint256",
          "name": "jobId",
          "type": "uint256"
        }
      ],
      "stateMutability": "nonpayable",
      "type": "function"
    },
    {
      "inputs": [
        {
          "internalType": "uint256",
          "name": "",
          "type": "uint256"
        }
      ],
      "name": "directOffers",
      "outputs": [
        {
          "internalType": "uint256",
          "name": "jobId",
          "type": "uint256"
        },
        {
          "internalType": "address",
          "name": "client",
          "type": "address"
        },
        {
          "internalType": "address",
          "name": "freelancer",
          "type": "address"
        },
        {
          "internalType": "string",
          "name": "title",
          "type": "string"
        },
        {
          "internalType": "string",
          "name": "descriptionURI",
          "type": "string"
        },
        {
          "internalType": "uint256",
          "name": "budgetUSDT",
          "type": "uint256"
        },
        {
          "internalType": "uint64",
          "name": "deliveryDays",
          "type": "uint64"
        },
        {
          "internalType": "uint64",
          "name": "createdAt",
          "type": "uint64"
        },
        {
          "internalType": "uint64",
          "name": "expiresAt",
          "type": "uint64"
        },
        {
          "internalType": "bool",
          "name": "accepted",
          "type": "bool"
        },
        {
          "internalType": "bool",
          "name": "rejected",
          "type": "bool"
        },
        {
          "internalType": "bool",
          "name": "cancelled",
          "type": "bool"
        }
      ],
      "stateMutability": "view",
      "type": "function"
    },
    {
      "inputs": [],
      "name": "freelancerFactory",
      "outputs": [
        {
          "internalType": "contract IFreelancerFactory",
          "name": "",
          "type": "address"
        }
      ],
      "stateMutability": "view",
      "type": "function"
    },
    {
      "inputs": [],
      "name": "gasSponsorshipEnabled",
      "outputs": [
        {
          "internalType": "bool",
          "name": "",
          "type": "bool"
        }
      ],
      "stateMutability": "view",
      "type": "function"
    },
    {
      "inputs": [
        {
          "internalType": "uint256",
          "name": "jobId",
          "type": "uint256"
        }
      ],
      "name": "getApplicantCount",
      "outputs": [
        {
          "internalType": "uint256",
          "name": "",
          "type": "uint256"
        }
      ],
      "stateMutability": "view",
      "type": "function"
    },
    {
      "inputs": [
        {
          "internalType": "uint256",
          "name": "jobId",
          "type": "uint256"
        },
        {
          "internalType": "address",
          "name": "freelancer",
          "type": "address"
        }
      ],
      "name": "getApplicantDetails",
      "outputs": [
        {
          "internalType": "address",
          "name": "_freelancer",
          "type": "address"
        },
        {
          "internalType": "uint64",
          "name": "appliedAt",
          "type": "uint64"
        },
        {
          "internalType": "string",
          "name": "proposalURI",
          "type": "string"
        },
        {
          "internalType": "uint256",
          "name": "bidAmount",
          "type": "uint256"
        },
        {
          "internalType": "uint64",
          "name": "deliveryDays",
          "type": "uint64"
        }
      ],
      "stateMutability": "view",
      "type": "function"
    },
    {
      "inputs": [
        {
          "internalType": "uint256",
          "name": "jobId",
          "type": "uint256"
        },
        {
          "internalType": "uint256",
          "name": "offset",
          "type": "uint256"
        },
        {
          "internalType": "uint256",
          "name": "limit",
          "type": "uint256"
        }
      ],
      "name": "getApplicants",
      "outputs": [
        {
          "internalType": "address[]",
          "name": "freelancers",
          "type": "address[]"
        },
        {
          "internalType": "uint64[]",
          "name": "appliedAt",
          "type": "uint64[]"
        }
      ],
      "stateMutability": "view",
      "type": "function"
    },
    {
      "inputs": [
        {
          "internalType": "uint256",
          "name": "jobId",
          "type": "uint256"
        }
      ],
      "name": "getDirectOffer",
      "outputs": [
        {
          "components": [
            {
              "internalType": "uint256",
              "name": "jobId",
              "type": "uint256"
            },
            {
              "internalType": "address",
              "name": "client",
              "type": "address"
            },
            {
              "internalType": "address",
              "name": "freelancer",
              "type": "address"
            },
            {
              "internalType": "string",
              "name": "title",
              "type": "string"
            },
            {
              "internalType": "string",
              "name": "descriptionURI",
              "type": "string"
            },
            {
              "internalType": "uint256",
              "name": "budgetUSDT",
              "type": "uint256"
            },
            {
              "internalType": "uint64",
              "name": "deliveryDays",
              "type": "uint64"
            },
            {
              "internalType": "uint64",
              "name": "createdAt",
              "type": "uint64"
            },
            {
              "internalType": "uint64",
              "name": "expiresAt",
              "type": "uint64"
            },
            {
              "internalType": "bool",
              "name": "accepted",
              "type": "bool"
            },
            {
              "internalType": "bool",
              "name": "rejected",
              "type": "bool"
            },
            {
              "internalType": "bool",
              "name": "cancelled",
              "type": "bool"
            }
          ],
          "internalType": "struct JobBoard.DirectOffer",
          "name": "",
          "type": "tuple"
        }
      ],
      "stateMutability": "view",
      "type": "function"
    },
    {
      "inputs": [
        {
          "internalType": "uint256",
          "name": "jobId",
          "type": "uint256"
        }
      ],
      "name": "getJob",
      "outputs": [
        {
          "internalType": "address",
          "name": "client",
          "type": "address"
        },
        {
          "internalType": "string",
          "name": "title",
          "type": "string"
        },
        {
          "internalType": "string",
          "name": "descriptionURI",
          "type": "string"
        },
        {
          "internalType": "uint256",
          "name": "budgetUSDC",
          "type": "uint256"
        },
        {
          "internalType": "enum JobBoard.JobStatus",
          "name": "status",
          "type": "uint8"
        },
        {
          "internalType": "address",
          "name": "hiredFreelancer",
          "type": "address"
        },
        {
          "internalType": "address",
          "name": "escrow",
          "type": "address"
        },
        {
          "internalType": "uint64",
          "name": "createdAt",
          "type": "uint64"
        },
        {
          "internalType": "uint64",
          "name": "updatedAt",
          "type": "uint64"
        },
        {
          "internalType": "uint64",
          "name": "expiresAt",
          "type": "uint64"
        },
        {
          "internalType": "bytes32[]",
          "name": "tags",
          "type": "bytes32[]"
        },
        {
          "internalType": "uint256",
          "name": "postingBond",
          "type": "uint256"
        }
      ],
      "stateMutability": "view",
      "type": "function"
    },
    {
      "inputs": [
        {
          "internalType": "address",
          "name": "freelancer",
          "type": "address"
        }
      ],
      "name": "getJobsAppliedBy",
      "outputs": [
        {
          "internalType": "uint256[]",
          "name": "",
          "type": "uint256[]"
        }
      ],
      "stateMutability": "view",
      "type": "function"
    },
    {
      "inputs": [
        {
          "internalType": "address",
          "name": "client",
          "type": "address"
        }
      ],
      "name": "getOffersFromClient",
      "outputs": [
        {
          "internalType": "uint256[]",
          "name": "",
          "type": "uint256[]"
        }
      ],
      "stateMutability": "view",
      "type": "function"
    },
    {
      "inputs": [
        {
          "internalType": "address",
          "name": "freelancer",
          "type": "address"
        }
      ],
      "name": "getOffersToFreelancer",
      "outputs": [
        {
          "internalType": "uint256[]",
          "name": "",
          "type": "uint256[]"
        }
      ],
      "stateMutability": "view",
      "type": "function"
    },
    {
      "inputs": [
        {
          "internalType": "address",
          "name": "",
          "type": "address"
        }
      ],
      "name": "isKYC",
      "outputs": [
        {
          "internalType": "bool",
          "name": "",
          "type": "bool"
        }
      ],
      "stateMutability": "view",
      "type": "function"
    },
    {
      "inputs": [
        {
          "internalType": "uint256",
          "name": "",
          "type": "uint256"
        }
      ],
      "name": "jobs",
      "outputs": [
        {
          "internalType": "address",
          "name": "client",
          "type": "address"
        },
        {
          "internalType": "string",
          "name": "title",
          "type": "string"
        },
        {
          "internalType": "string",
          "name": "descriptionURI",
          "type": "string"
        },
        {
          "internalType": "uint256",
          "name": "budgetUSDC",
          "type": "uint256"
        },
        {
          "internalType": "enum JobBoard.JobStatus",
          "name": "status",
          "type": "uint8"
        },
        {
          "internalType": "address",
          "name": "hiredFreelancer",
          "type": "address"
        },
        {
          "internalType": "address",
          "name": "escrow",
          "type": "address"
        },
        {
          "internalType": "uint64",
          "name": "createdAt",
          "type": "uint64"
        },
        {
          "internalType": "uint64",
          "name": "updatedAt",
          "type": "uint64"
        },
        {
          "internalType": "uint64",
          "name": "expiresAt",
          "type": "uint64"
        },
        {
          "internalType": "uint256",
          "name": "postingBond",
          "type": "uint256"
        }
      ],
      "stateMutability": "view",
      "type": "function"
    },
    {
      "inputs": [
        {
          "internalType": "address",
          "name": "clientAddr",
          "type": "address"
        }
      ],
      "name": "jobsByClient",
      "outputs": [
        {
          "internalType": "uint256[]",
          "name": "",
          "type": "uint256[]"
        }
      ],
      "stateMutability": "view",
      "type": "function"
    },
    {
      "inputs": [
        {
          "internalType": "address",
          "name": "clientAddr",
          "type": "address"
        },
        {
          "internalType": "uint256",
          "name": "offset",
          "type": "uint256"
        },
        {
          "internalType": "uint256",
          "name": "limit",
          "type": "uint256"
        }
      ],
      "name": "jobsByClientPaginated",
      "outputs": [
        {
          "internalType": "uint256[]",
          "name": "out",
          "type": "uint256[]"
        }
      ],
      "stateMutability": "view",
      "type": "function"
    },
    {
      "inputs": [
        {
          "internalType": "address",
          "name": "",
          "type": "address"
        },
        {
          "internalType": "uint256",
          "name": "",
          "type": "uint256"
        }
      ],
      "name": "jobsOf",
      "outputs": [
        {
          "internalType": "uint256",
          "name": "",
          "type": "uint256"
        }
      ],
      "stateMutability": "view",
      "type": "function"
    },
    {
      "inputs": [
        {
          "internalType": "uint256",
          "name": "jobId",
          "type": "uint256"
        }
      ],
      "name": "markAsCompleted",
      "outputs": [],
      "stateMutability": "nonpayable",
      "type": "function"
    },
    {
      "inputs": [
        {
          "internalType": "uint256",
          "name": "jobId",
          "type": "uint256"
        },
        {
          "internalType": "address",
          "name": "freelancer",
          "type": "address"
        },
        {
          "internalType": "address",
          "name": "escrow",
          "type": "address"
        }
      ],
      "name": "markAsHired",
      "outputs": [],
      "stateMutability": "nonpayable",
      "type": "function"
    },
    {
      "inputs": [],
      "name": "nextJobId",
      "outputs": [
        {
          "internalType": "uint256",
          "name": "",
          "type": "uint256"
        }
      ],
      "stateMutability": "view",
      "type": "function"
    },
    {
      "inputs": [
        {
          "internalType": "uint256",
          "name": "offset",
          "type": "uint256"
        },
        {
          "internalType": "uint256",
          "name": "limit",
          "type": "uint256"
        }
      ],
      "name": "openJobs",
      "outputs": [
        {
          "internalType": "uint256[]",
          "name": "out",
          "type": "uint256[]"
        }
      ],
      "stateMutability": "view",
      "type": "function"
    },
    {
      "inputs": [],
      "name": "owner",
      "outputs": [
        {
          "internalType": "address",
          "name": "",
          "type": "address"
        }
      ],
      "stateMutability": "view",
      "type": "function"
    },
    {
      "inputs": [],
      "name": "paused",
      "outputs": [
        {
          "internalType": "bool",
          "name": "",
          "type": "bool"
        }
      ],
      "stateMutability": "view",
      "type": "function"
    },
    {
      "inputs": [
        {
          "internalType": "string",
          "name": "title",
          "type": "string"
        },
        {
          "internalType": "string",
          "name": "descriptionURI",
          "type": "string"
        },
        {
          "internalType": "uint256",
          "name": "budgetUSDC",
          "type": "uint256"
        },
        {
          "internalType": "bytes32[]",
          "name": "tags",
          "type": "bytes32[]"
        },
        {
          "internalType": "uint64",
          "name": "expiresAt",
          "type": "uint64"
        }
      ],
      "name": "postJob",
      "outputs": [
        {
          "internalType": "uint256",
          "name": "jobId",
          "type": "uint256"
        }
      ],
      "stateMutability": "nonpayable",
      "type": "function"
    },
    {
      "inputs": [],
      "name": "postingBondUSDC",
      "outputs": [
        {
          "internalType": "uint256",
          "name": "",
          "type": "uint256"
        }
      ],
      "stateMutability": "view",
      "type": "function"
    },
    {
      "inputs": [
        {
          "internalType": "uint256",
          "name": "jobId",
          "type": "uint256"
        }
      ],
      "name": "rejectDirectOffer",
      "outputs": [],
      "stateMutability": "nonpayable",
      "type": "function"
    },
    {
      "inputs": [
        {
          "internalType": "uint256",
          "name": "jobId",
          "type": "uint256"
        },
        {
          "internalType": "uint64",
          "name": "newExpiresAt",
          "type": "uint64"
        }
      ],
      "name": "reopen",
      "outputs": [],
      "stateMutability": "nonpayable",
      "type": "function"
    },
    {
      "inputs": [],
      "name": "requireApplicationToHire",
      "outputs": [
        {
          "internalType": "bool",
          "name": "",
          "type": "bool"
        }
      ],
      "stateMutability": "view",
      "type": "function"
    },
    {
      "inputs": [
        {
          "internalType": "address",
          "name": "factory",
          "type": "address"
        },
        {
          "internalType": "bool",
          "name": "allowed",
          "type": "bool"
        }
      ],
      "name": "setAllowedFactory",
      "outputs": [],
      "stateMutability": "nonpayable",
      "type": "function"
    },
    {
      "inputs": [
        {
          "internalType": "uint8",
          "name": "mode",
          "type": "uint8"
        },
        {
          "internalType": "uint256",
          "name": "bondAmount",
          "type": "uint256"
        }
      ],
      "name": "setAntiSpamMode",
      "outputs": [],
      "stateMutability": "nonpayable",
      "type": "function"
    },
    {
      "inputs": [
        {
          "internalType": "address",
          "name": "factory_",
          "type": "address"
        }
      ],
      "name": "setFreelancerFactory",
      "outputs": [],
      "stateMutability": "nonpayable",
      "type": "function"
    },
    {
      "inputs": [
        {
          "internalType": "bool",
          "name": "enabled",
          "type": "bool"
        }
      ],
      "name": "setGasSponsorship",
      "outputs": [],
      "stateMutability": "nonpayable",
      "type": "function"
    },
    {
      "inputs": [
        {
          "internalType": "address",
          "name": "user",
          "type": "address"
        },
        {
          "internalType": "bool",
          "name": "verified",
          "type": "bool"
        }
      ],
      "name": "setKYC",
      "outputs": [],
      "stateMutability": "nonpayable",
      "type": "function"
    },
    {
      "inputs": [
        {
          "internalType": "bool",
          "name": "_paused",
          "type": "bool"
        }
      ],
      "name": "setPaused",
      "outputs": [],
      "stateMutability": "nonpayable",
      "type": "function"
    },
    {
      "inputs": [
        {
          "internalType": "bool",
          "name": "required",
          "type": "bool"
        }
      ],
      "name": "setRequireApplicationToHire",
      "outputs": [],
      "stateMutability": "nonpayable",
      "type": "function"
    },
    {
      "inputs": [
        {
          "internalType": "address",
          "name": "token",
          "type": "address"
        }
      ],
      "name": "setUSDC",
      "outputs": [],
      "stateMutability": "nonpayable",
      "type": "function"
    },
    {
      "inputs": [
        {
          "internalType": "address",
          "name": "",
          "type": "address"
        },
        {
          "internalType": "uint256",
          "name": "amount",
          "type": "uint256"
        }
      ],
      "name": "sweepERC20",
      "outputs": [],
      "stateMutability": "nonpayable",
      "type": "function"
    },
    {
      "inputs": [
        {
          "internalType": "address",
          "name": "clientAddr",
          "type": "address"
        }
      ],
      "name": "totalJobsOf",
      "outputs": [
        {
          "internalType": "uint256",
          "name": "",
          "type": "uint256"
        }
      ],
      "stateMutability": "view",
      "type": "function"
    },
    {
      "inputs": [],
      "name": "totalOpenJobs",
      "outputs": [
        {
          "internalType": "uint256",
          "name": "",
          "type": "uint256"
        }
      ],
      "stateMutability": "view",
      "type": "function"
    },
    {
      "inputs": [
        {
          "internalType": "address",
          "name": "_newOwner",
          "type": "address"
        }
      ],
      "name": "transferOwnership",
      "outputs": [],
      "stateMutability": "nonpayable",
      "type": "function"
    },
    {
      "inputs": [
        {
          "internalType": "uint256",
          "name": "jobId",
          "type": "uint256"
        },
        {
          "internalType": "string",
          "name": "title",
          "type": "string"
        },
        {
          "internalType": "string",
          "name": "descriptionURI",
          "type": "string"
        },
        {
          "internalType": "uint256",
          "name": "budgetUSDC",
          "type": "uint256"
        },
        {
          "internalType": "bytes32[]",
          "name": "tags",
          "type": "bytes32[]"
        },
        {
          "internalType": "uint64",
          "name": "expiresAt",
          "type": "uint64"
        }
      ],
      "name": "updateJob",
      "outputs": [],
      "stateMutability": "nonpayable",
      "type": "function"
    },
    {
      "inputs": [],
      "name": "usdc",
      "outputs": [
        {
          "internalType": "contract IUSDCMinimal",
          "name": "",
          "type": "address"
        }
      ],
      "stateMutability": "view",
      "type": "function"
    },
    {
      "inputs": [
        {
          "internalType": "uint256",
          "name": "jobId",
          "type": "uint256"
        }
      ],
      "name": "withdrawApplication",
      "outputs": [],
      "stateMutability": "nonpayable",
      "type": "function"
    }
  ],
  "bytecode": "0x60803460b457601f6140ef38819003918201601f19168301916001600160401b0383118484101760b95780849260209460405283398101031260b457516001600160a01b0381169081900360b4576001600b55801560a357600080546001600160a01b03191682178155600160065560405191907fb532073b38c83145e3e5135377a08bf9aab55bc0fd7c1179cd4fb995d2a5159c8180a361401f90816100d08239f35b63d92e233d60e01b60005260046000fd5b600080fd5b634e487b7160e01b600052604160045260246000fdfe608080604052600436101561001357600080fd5b60003560e01c9081630c79b9f9146133ba57508063103c59e714612cea57806316c38b3c14612c76578063180aedf314612b8d5780631dffa3dc14612aa15780631ec1de9314612a83578063230c30a7146129915780632ce606e3146129685780632edea1a014612942578063312090611461274157806331dc20ff1461272357806336ae41ca146126425780633e413bee146126155780633e8a00c8146125f25780633f195993146125b357806343364ded146123b9578063455f16c5146123485780634f464cb014611f9d5780635123bacc14611ef457806357147aca14611eba578063583e42a414611e475780635a4434ba14611e1d5780635c975abb14611df75780636c79bce7146118fb57806372ffa84d146118645780637474a408146117ed5780637c1ee3b5146117655780637f8305e5146116fc5780638da5cb5b146116d35780638e1a32d0146113ac5780639944f5181461136d578063a484abd41461126f578063b0c2aa5e14611251578063b3e089a2146111c9578063beacece11461119d578063bec7a01d14611126578063bf22c45714610fd1578063c0a6026c14610ed7578063c6b9caf414610e21578063cbff7df514610d4c578063d2f57da41461093f578063d566a41114610913578063d8acddb1146108ba578063dc74fde514610898578063e5d53c3b14610821578063e6d1199914610776578063e87c346314610644578063ee64a6aa146104df578063f1d5314a14610375578063f2fde38b146102dc5763f4eefe071461025057600080fd5b346102d75760203660031901126102d7576001600160a01b03610271613622565b166000526011602052604060002060405190816020825491828152019160005260206000209060005b8181106102c1576102bd856102b181870382613736565b6040519182918261387b565b0390f35b825484526020909301926001928301920161029a565b600080fd5b346102d75760203660031901126102d7576102f5613622565b600054906001600160a01b0382169033829003610364576001600160a01b0316918215610353576001600160a01b031916821760009081557fb532073b38c83145e3e5135377a08bf9aab55bc0fd7c1179cd4fb995d2a5159c9080a3005b63d92e233d60e01b60005260046000fd5b6330cd747160e01b60005260046000fd5b346102d75760203660031901126102d75760043560ff60005460a01c166104ce576001600b54036104bd576002600b556000818152600e6020908152604080832033845290915290205480156104ac576000198101908111610496576103ea60039183600052600d6020526040600020613c7d565b5080546001600160e01b03191681556001810180546000919061040c906136c5565b601f8111610477575b5055600060028201819055910180546001600160401b0319169055818152600e60209081526040808320338085529252822082905591907f6917335efdeedc9e175d9104c30bd132f219f66cbb6c05631b4e7991ca7980239080a36001600b55005b8183526020832061049091601f0160051c810190613946565b85610415565b634e487b7160e01b600052601160045260246000fd5b630bd94e9760e11b60005260046000fd5b63558a1e0360e11b60005260046000fd5b6307a92f1960e51b60005260046000fd5b346102d75760403660031901126102d7576004356024356001600160401b0381168082036102d75760ff60005460a01c166104ce576000838152600760205260409020546001600160a01b0316801561063357330361062257826000526007602052604060002090600482019160ff835416600681101561060c5760038114159081610600575b506105ef57811515806105e5575b6104ce57825460ff191660011790925560069190910180546001600160401b031916426001600160401b03161781557f64e5fe93a1512528f7d137734ea381e242e5f5b078b993159fdb3c72ab8e9ef792602092916105d391906139de565b6105dc84613f3b565b604051908152a2005b5042821115610574565b633f2e0a8760e21b60005260046000fd5b60059150141586610566565b634e487b7160e01b600052602160045260246000fd5b630836f21d60e21b60005260046000fd5b63c0a8563160e01b60005260046000fd5b346102d75760203660031901126102d75760043560ff60005460a01c166104ce57600081815260106020526040902060018101546001600160a01b0316156107655760028101546001600160a01b0316330361075457600601805460ff8160c01c168015610747575b801561073a575b6107295760ff60c81b1916600160c81b179055600081815260076020526040812060048101805460ff1916600317905560060180546001600160401b031916426001600160401b03161790553391907f43782b54e2c07f039a50f88ecc221574e0f0a62f233249c709d1b826aefef6989080a3005b63c5789e4b60e01b60005260046000fd5b5060ff8160d01c166106b4565b5060ff8160c81c166106ad565b631d246a6b60e11b60005260046000fd5b636df5846d60e01b60005260046000fd5b346102d75760403660031901126102d75761078f613622565b506000546001600160a01b0316338190036103645760206107db60009260018060a01b0360025460081c169060405194858094819363a9059cbb60e01b83526024359060048401613ddf565b03925af18015610815576107eb57005b61080c9060203d60201161080e575b6108048183613736565b810190613b78565b005b503d6107fa565b6040513d6000823e3d90fd5b346102d75760203660031901126102d7576001600160a01b03610842613622565b166000526008602052604060002060405190816020825491828152019160005260206000209060005b818110610882576102bd856102b181870382613736565b825484526020909301926001928301920161086b565b346102d75760403660031901126102d7576102bd6102b1602435600435613d6a565b346102d75760403660031901126102d7576108d3613622565b6001600160a01b03166000908152600860205260409020805460243591908210156102d757602091610904916138e6565b90549060031b1c604051908152f35b346102d75760203660031901126102d757600435600052600d6020526020604060002054604051908152f35b346102d75760803660031901126102d7576004356024356001600160401b0381116102d75761097290369060040161364e565b9091906064356001600160401b03811691908290036102d75760ff60005460a01c166104ce576001600b54036104bd576002600b556001600160401b038111610c6157604051936109cd601f8301601f191660200186613736565b81855236828201116102d757816000926020928388013785010152600082815260076020526040902080546001600160a01b0316156106335760ff600482015416600681101561060c57600103610d3b576006015460401c6001600160401b03168015159081610d30575b50610d1f57600c546001600160a01b031680610c9d575b506000828152600e60209081526040808320338452909152902054610c8d576000828152600d60205260409081902080549151426001600160401b03169592939092909190610a9d8461371b565b33845260208401938785526040810191825260608101926044358452608082019485528054600160401b811015610c6157610add91600182018155613c7d565b959095610c7757905185546001600160a01b0319166001600160a01b039190911617855551610b15906001600160401b0316856139b5565b51805160018501916001600160401b038211610c6157610b3f82610b3985546136c5565b8561395d565b602090601f8311600114610bf6579180610b6892600397969594600092610beb575b50506139a2565b90555b51600284015551910180546001600160401b0319166001600160401b039290921691909117905560018101908110610496576000828152600e60209081526040808320338452825280832093909355600f905220610bca908290613a07565b604051918252600080516020613fca83398151915260203393a36001600b55005b015190508b80610b61565b90601f1983169184600052816000209260005b818110610c4957509160019391856003999897969410610c31575b505050811b019055610b6b565b015160001983891b60f8161c191690558a8080610c24565b92936020600181928786015181550195019301610c09565b634e487b7160e01b600052604160045260246000fd5b634e487b7160e01b600052600060045260246000fd5b62540c0360e11b60005260046000fd5b602060249160405192838092630f5664e760e31b82523360048301525afa90811561081557600091610cf0575b506001600160a01b031615610cdf5783610a4f565b633832386960e11b60005260046000fd5b610d12915060203d602011610d18575b610d0a8183613736565b810190613918565b84610cca565b503d610d00565b63d0404f8560e01b60005260046000fd5b905042101584610a38565b631bb5f5b360e31b60005260046000fd5b346102d75760403660031901126102d757600435610d68613638565b81600052600e60205260406000209060018060a01b03166000526020526040600020549081156104ac57600052600d602052604060002090600019810190811161049657610db591613c7d565b508054600282015460038301546001600160401b031692610dd890600101613759565b604080516001600160a01b038516815260a094851c6001600160401b031660208201529081018490529384939091610e12918501906137fd565b91606084015260808301520390f35b346102d75760603660031901126102d757610e43604435602435600435613c99565b906040519182916040830160408452815180915260206060850192019060005b818110610eb55750505082810360208401526020808351928381520192019060005b818110610e93575050500390f35b82516001600160401b0316845285945060209384019390920191600101610e85565b82516001600160a01b0316845286955060209384019390920191600101610e63565b346102d75760203660031901126102d75760043560ff60005460a01c166104ce5733600052600160205260ff6040600020541615610fc057600081815260076020526040902080549091906001600160a01b03161561063357600482019060ff825416600681101561060c576002036104ce57815460ff191660041782556006830180546001600160401b031916426001600160401b0316179055825491546005909301546040516001600160a01b03918216815260089490941c8116939216917f074fd40586a68e670c4541fb4b871f9b85af2929dbe255702e111e588ff4b2a890602090a4005b6309270ebd60e11b60005260046000fd5b346102d75760203660031901126102d757600435600090815260076020526040902080546001600160a01b031680156106335760076003830154926004810154600582015460068301549161108260088501549461107461103460018301613759565b61105b61104360028501613759565b93611054604051809c819301613aea565b038a613736565b604051998a5261018060208b01526101808a01906137fd565b9088820360408a01526137fd565b9660608701526110986080870160ff831661383e565b60081c6001600160a01b0390811660a08781019190915290821660c08701521c6001600160401b0390811660e086015281811661010086015260409190911c16610120840152828403610140840152815180855260009460209081019301905b80861061110e5750508293506101608301520390f35b909260208060019286518152019401950194906110f8565b346102d75760203660031901126102d7576001600160a01b03611147613622565b16600052600f602052604060002060405190816020825491828152019160005260206000209060005b818110611187576102bd856102b181870382613736565b8254845260209093019260019283019201611170565b346102d75760603660031901126102d7576102bd6102b16111bc613622565b6044359060243590613bbe565b346102d75760203660031901126102d7576111e2613622565b6000546001600160a01b03163303610364576001600160a01b0381169081156103535760028054610100600160a81b03191660089290921b610100600160a81b03169190911790557f4a13891118f8dba1996f8eac118f83bb98e645807a9b9cecf6bc6d014048e7e3600080a2005b346102d75760003660031901126102d7576020600654604051908152f35b346102d75760203660031901126102d75760043560009081526010602052604090208054600182015460028301546001600160a01b03918216939160ff911661130b6112bd60038501613759565b6112fd6112cc60048701613759565b916006600588015497015494604051998a998a5260208a0152604089015261018060608901526101808801906137fd565b9086820360808801526137fd565b60a08501939093526001600160401b0381811660c080870191909152604083901c821660e0870152608083901c90911661010086015281901c8216151561012085015260c881901c8216151561014085015260d01c1615156101608301520390f35b346102d75760203660031901126102d7576001600160a01b0361138e613622565b166000526004602052602060ff604060002054166040519015158152f35b346102d75760203660031901126102d75760043560ff60005460a01c166104ce576001600b54036104bd576002600b556020906040516113ec8382613736565b6000808252828152600784526040902080546001600160a01b0316156106335760ff600482015416600681101561060c57600103610d3b576006015460401c6001600160401b031680151590816116c8575b50610d1f57600c546001600160a01b03168381611669575b50506000828152600e845260408082203383528552902054610c8d5760018060401b0342169282600052600d81526040600020549183600052600d825260406000206040516114a48161371b565b33815283810192878452604082019081526060820191600083526080810193600085528054600160401b811015610c61576114e491600182018155613c7d565b959095610c7757905185546001600160a01b0319166001600160a01b03919091161785555161151c906001600160401b0316856139b5565b51805160018501916001600160401b038211610c615761154082610b3985546136c5565b8690601f83116001146115fe579180611567926003979695946000926115f35750506139a2565b90555b51600284015551910180546001600160401b0319166001600160401b03929092169190911790556001820191821061049657600080516020613fca8339815191529183600052600e8252604060002060018060a01b033316600052825260406000205533600052600f81526115e3836040600020613a07565b6040519384523393a36001600b55005b015190508c80610b61565b90601f1983169184600052886000209260005b8a828210611653575050916001939185600399989796941061163b575b505050811b01905561156a565b015160001983891b60f8161c191690558b808061162e565b6001859682939686015181550195019301611611565b604051630f5664e760e31b815233600482015291829060249082905afa908115610815576000916116ab575b506001600160a01b031615610cdf578383611456565b6116c29150843d8611610d1857610d0a8183613736565b84611695565b90504210158461143e565b346102d75760003660031901126102d7576000546040516001600160a01b039091168152602090f35b346102d75760203660031901126102d7576117156136a7565b6000546001600160a01b031633036103645760207fe45eebf975e8498157f15e4245144789293d518243944ce72e49418a0cfa598391151560ff196005541660ff821617600555604051908152a1005b346102d75760403660031901126102d75760043560ff81168091036102d757600054602435906001600160a01b0316330361036457600282116104ce57600382101561060c577f7d63308b92fa01d1151ab58553671d1b5ade1d78731eb1b099f55ac41ea2464e916040918160ff1960025416176002558060035582519182526020820152a1005b346102d75760203660031901126102d7576001600160a01b0361180e613622565b166000526012602052604060002060405190816020825491828152019160005260206000209060005b81811061184e576102bd856102b181870382613736565b8254845260209093019260019283019201611837565b346102d75760403660031901126102d75761187d613622565b6118856136b6565b6000549091906001600160a01b03163303610364576001600160a01b03169081156103535760207f24c9a6b477fff74db04905dbc966242385b5b163a4abd979698a56ea761371db9183600052600182526118f08160406000209060ff801983541691151516179055565b6040519015158152a2005b346102d75760a03660031901126102d7576004356001600160401b0381116102d75761192b90369060040161364e565b906024356001600160401b0381116102d75761194b90369060040161364e565b9092604435916064356001600160401b0381116102d75761197090369060040161384b565b94909361197b61367b565b9260ff60005460a01c166104ce576001600b54036104bd576002600b556002549560ff871696600388101561060c576002881480611dde575b611dcd57600160009814611d1a575b5060058811611d09576001600160401b0385168015159081611cfe575b506104ce57600654976119f289613937565b600655600089815260076020526040902080546001600160a01b0319163317815597600189016001600160401b038911610c6157611a3a89611a3483546136c5565b8361395d565b600089601f8111600114611c9a5780611a5b92600091611c8f575b506139a2565b90555b600289016001600160401b038511610c6157611a7e85611a3483546136c5565b6000858d601f8211600114611c2457611aa09260009183611c195750506139a2565b90555b6003890185905560048901805460ff19166001179055611afa87426001600160401b0316611ad48160058e016139b5565b60068c0180546001600160401b0319166001600160401b039092169190911781556139de565b600889015580611b75575b50507f1e340188ef02ed93224295b9e0a03660720f89cfd12522e974a49b530e346e039360209893889693611b65933360005260088c52611b4a896040600020613a07565b611b5389613f3b565b6040519687966007339c019488613b24565b0390a36001600b55604051908152f35b611b7e81613aa8565b805160078a0192916001600160401b038211610c6157602090611ba18386613a4e565b0183600052602060002060005b838110611c05575050505060005b818110611bca575050611b05565b80611bd86001928487613ada565b35611bfd611be683876138e6565b819391549060031b91821b91600019901b19161790565b905501611bbc565b600190602084519401938184015501611bae565b013590508f8f610b61565b838352602083209290915087601f198116825b818110611c6f575010611c55575b505050600185811b019055611aa3565b0135600019600388901b60f8161c191690558c8c81611c45565b936020925083958392946001920135815501940192018f92918991611c37565b90508901358f611a55565b5081815260208120908a601f198116825b8b828210611ce457505010611cca575b5050600189811b019055611a5e565b88013560001960038c901b60f8161c191690558c80611cbb565b84013585556001909401936020938401938e935001611cab565b90504210158a6119e0565b63ee39e85560e01b60005260046000fd5b60081c6001600160a01b03168015611dbe57600354978815611daf5750602060009160648a60405194859384926323b872dd60e01b845233600485015230602485015260448401525af190811561081557600091611d90575b5015611d7f57896119c3565b63501c2aaf60e01b60005260046000fd5b611da9915060203d60201161080e576108048183613736565b8a611d73565b63501c2aaf60e01b8152600490fd5b63e92eebef60e01b8852600488fd5b633b529a9760e11b60005260046000fd5b5033600052600460205260ff60406000205416156119b4565b346102d75760003660031901126102d757602060ff60005460a01c166040519015158152f35b346102d75760003660031901126102d75760ff60025416604051600382101561060c576020918152f35b346102d75760203660031901126102d757611e606136a7565b6000546001600160a01b031633036103645760207ffcedad5b627dd7e8aa295bc0afeb76597c18047112fa7d4ac4d131f0e250a3c2911515600c5460ff60a01b8260a01b169060ff60a01b191617600c55604051908152a1005b346102d75760203660031901126102d7576001600160a01b03611edb613622565b1660005260086020526020604060002054604051908152f35b346102d75760403660031901126102d757611f0d613622565b611f156136b6565b9060018060a01b036000541633141580611f84575b610fc0576001600160a01b03169081156103535760207f97b4072981ad9b2269406ff8cc9d70c26afd27cea67b75e2573b8710a5e880c99183600052600482526118f08160406000209060ff801983541691151516179055565b5033600052600160205260ff6040600020541615611f2a565b346102d75760c03660031901126102d7576004356024356001600160401b0381116102d757611fd090369060040161364e565b9091906044356001600160401b0381116102d757611ff290369060040161364e565b9093906064356084356001600160401b0381116102d75761201790369060040161384b565b929096612022613691565b9760ff60005460a01c166104ce576000888152600760205260409020546001600160a01b0316801561063357330361062257876000526007602052604060002060ff600482015416600681101561060c57600103610d3b5760058611611d09576001600160401b038a16801515908161233d575b506104ce57600181016001600160401b038911610c61576120bb89611a3483546136c5565b600089601f81116001146122d957806120db926000916122ce57506139a2565b90555b60028101906001600160401b038511610c6157612105856120ff84546136c5565b8461395d565b60009185601f811160011461226657806121299160079560009161225b57506139a2565b90555b600381018690556006810180546001600160401b031916426001600160401b031617815561215b908c906139de565b019485546000875580612234575b50806121ad575b5050916121a893917ff9cdeb830204e1e6135fb07822aaac23761d75003d5dde41bcb94fa818c1b52197989360405197889788613b24565b0390a2005b6121b681613aa8565b8051906001600160401b038211610c61576020906121d4838a613a4e565b0187600052602060002060005b838110612220575050505060005b8181106121fc5750612170565b8061220a6001928486613ada565b35612218611be6838b6138e6565b9055016121ef565b6001906020845194019381840155016121e1565b866000526020600020908101905b81811061224f5750612169565b60008155600101612242565b90508701358f611a55565b50808352602083208387601f1981165b8087106122b0576007965010612296575b5050600186811b01905561212c565b860135600019600389901b60f8161c191690558c80612287565b88830135845560209687019660019094019390920191899150612276565b90508a01358e611a55565b5081815260208120908a601f198116825b8c82821061232357505010612309575b5050600189811b0190556120de565b89013560001960038c901b60f8161c191690558b806122fa565b84013585556001909401936020938401938e9350016122ea565b90504210158b612096565b346102d75760203660031901126102d757612361613622565b6000546001600160a01b0316330361036457600c80546001600160a01b0319166001600160a01b039290921691821790557ff51d0449bf7d477688401ef33c6c6e576ec0a95e4e9337a86904163bb41c2673600080a2005b346102d75760203660031901126102d75760006101606040516123db816136ff565b828152826020820152826040820152606080820152606060808201528260a08201528260c08201528260e082015282610100820152826101208201528261014082015201526004356000526010602052604060002060018060a01b036001820154168015610765576040918251612451816136ff565b815481526020810192835260028201546001600160a01b03168482019081529061247d60038401613759565b916060820192835261249160048501613759565b9260808301938452600660058601549560a0850196875201549360c084016001808a1b038616815261256960e08601926001808c1b03888c1c1684526125566101008801956001808e1b038a60801c16875261012089019760ff8b60c01c16151589526101408a019960ff8c60c81c1615158b5260ff61016082019c60d01c1615158c528e519e8f9e8f926020845251602084015260018060a01b0390511691015260018060a01b0390511660608d01525161018060808d01526101a08c01906137fd565b90518a8203601f190160a08c01526137fd565b965160c0890152516001600160401b0390811660e0890152905181166101008801529051166101208601525115156101408501525115156101608401525115156101808301520390f35b346102d75760203660031901126102d7576001600160a01b036125d4613622565b166000526001602052602060ff604060002054166040519015158152f35b346102d75760003660031901126102d757602060ff600554166040519015158152f35b346102d75760003660031901126102d75760025460405160089190911c6001600160a01b03168152602090f35b346102d75760203660031901126102d757600435600081815260076020526040902080546001600160a01b03161561063357600481019060ff825416600681101561060c57600103610d3b57600601805490919060401c6001600160401b03168015908115612719575b50610d1f57805460ff1916600517905580546001600160401b031916426001600160401b03161781557fe77a20b7941129acbb78a11f4d13c89ec2c9d5d36d21f0f7083e304c3e4338c99060209061270384613dfa565b546040805191901c6001600160401b03168152a2005b90504210846126ac565b346102d75760003660031901126102d7576020600954604051908152f35b346102d75760603660031901126102d75760043561275d613638565b906044356001600160a01b03811691908290036102d75760ff60005460a01c166104ce5733600052600160205260ff6040600020541615610fc0576001600b54036104bd576002600b556001600160a01b038316928315801561293a575b61035357600082815260076020526040902080549091906001600160a01b03161561063357600482019160ff835416600681101561060c5760010361292957600084815260106020526040902060018101546001600160a01b0316156128d95760028101546001600160a01b03168703610cdf576006015460c01c60ff161561076557600080516020613faa833981519152926020925b8154610100600160a81b03191660089190911b610100600160a81b03161781556005820180546001600160a01b03191687179055805460ff191660021790556006810180546001600160401b031916426001600160401b03161790556128b784613dfa565b6128c081613ebc565b546040519485526001600160a01b031693a46001600b55005b509060ff600c5460a01c16612902575b90600080516020613faa83398151915292602092612852565b9083600052600e602052604060002086600052602052604060002054156104ac57906128e9565b635e78c1e560e01b60005260046000fd5b5082156127bb565b346102d75760003660031901126102d757602060ff600c5460a01c166040519015158152f35b346102d75760003660031901126102d757600c546040516001600160a01b039091168152602090f35b346102d75760203660031901126102d75760043560ff60005460a01c166104ce57600081815260106020526040902060018101546001600160a01b0316801561076557330361062257600601805460ff8160c01c168015612a76575b8015612a69575b6107295760ff60d01b1916600160d01b179055600081815260076020526040812060048101805460ff1916600317905560060180546001600160401b031916426001600160401b03161790553391907ffb8711a5137bf47cb38ba3154d9eecef4b4228afa89e3c863ae877901c1d7dce9080a3005b5060ff8160d01c166129f4565b5060ff8160c81c166129ed565b346102d75760003660031901126102d7576020600354604051908152f35b346102d75760203660031901126102d75760043560ff60005460a01c166104ce576000818152600760205260409020546001600160a01b03168015610633573303610622576001600b54036104bd576002600b5580600052600760205260406000206004810160ff815416600681101561060c57600103610d3b57805460ff191660031790556006810180546001600160401b031916426001600160401b0316179055612b4d82613dfa565b612b5681613ebc565b546001600160a01b0316907ff1ab0865975dad5c69ae8e4baaf13114c875728afa7cc86368534c22a631d0b0600080a36001600b55005b346102d75760203660031901126102d757600435600090815260076020526040902080546001600160a01b0316612bc660018301613759565b91612bd360028201613759565b6003820154916004810154600582015490612c106008600685015494015494611074604051998a998a5261016060208b01526101608a01906137fd565b946060870152612c266080870160ff831661383e565b60081c6001600160a01b0390811660a08781019190915290821660c08701521c6001600160401b0390811660e086015281811661010086015260409190911c166101208401526101408301520390f35b346102d75760203660031901126102d757612c8f6136a7565b600054906001600160a01b0382163303610364577f40db37ff5c0bdc2c427fbb2078c8f24afea940abac0e3c23bb4ea3bf2da2b2129160209115159060ff60a01b8260a01b169060ff60a01b191617600055604051908152a1005b346102d75760c03660031901126102d757612d03613622565b6024356001600160401b0381116102d757612d2290369060040161364e565b6044356001600160401b0381116102d757612d4190369060040161364e565b919092612d4c61367b565b94612d55613691565b9160ff60005460a01c166104ce576001600b54036104bd576002600b556001600160a01b0382161561035357606435156133a9576001600160401b038316151580613396575b6104ce57600c546001600160a01b03168061332a575b5060025460081c6001600160a01b0316806132a4575b5060065494612dd586613937565b600655600086815260076020526040902080546001600160a01b0319163317815597600189016001600160401b038711610c6157612e1787611a3483546136c5565b600087601f81116001146132415780612e379260009161323657506139a2565b90555b6001600160401b038211610c615788612e6583612e5c600260209d01546136c5565b6002840161395d565b858360008b601f83116001146131bc5782600693612edf9693612e90936000926131b15750506139a2565b60028201555b606435600382015560048101805460ff19169055612ec0426001600160401b0316600583016139b5565b0180546001600160401b031916426001600160401b03161781556139de565b600087815260108a52604081208881556001810180546001600160a01b031990811633179091556002820180549091166001600160a01b038816179055600381015491939091612f3d908990612f34906136c5565b6003850161395d565b8399601f891160011461314457612f6189808c9d889d9b9c9d9161313957506139a2565b60038401555b612f8182612f7860048601546136c5565b6004860161395d565b8490601f83116001146130ab5794600080516020613f8a833981519152979694600661305995612fc1868d9760409761306b9c88926130a05750506139a2565b60048201555b60643560058201550190600180851b0316600180851b0319825416178155612ff6600180851b034216826139de565b8054600160801b600160c01b03191660808c901b600160801b600160c01b031617905533815260088d5281812061302e908490613a07565b6001600160a01b038716815260118d5281812061304c908490613a07565b33815260128d5220613a07565b60405196606088526060880191613a2d565b606435868901526001600160401b0390941660408601526001600160a01b031693339381900390a46001600b55604051908152f35b013590503880610b61565b6004840186528c862091865b601f198516811061311f57509460066130599560018660409661306b9b968f999b600080516020613f8a8339815191529f9e9c601f19811610613105575b505050811b016004820155612fc7565b0135600019600384901b60f8161c191690553880806130f5565b8183013584558d9a50600190930192908e01908e016130b7565b90508801358f611a55565b6003830185528b8520859b5b601f198b168d1061319a578b9c508a601f9c9a9b9c19811610613180575b505060018a811b016003840155612f67565b87013560001960038d901b60f8161c191690558c8061316e565b908d60018192848b013581550192019c019b613150565b01359050388f610b61565b509290506002810183528b83208b845b601f198816811061321a57509060069291612edf9588601f19811610613200575b505050600186811b016002820155612e96565b0135600019600389901b60f8161c191690558d8c816131ed565b908501358255938d01938993506001909101908c908e016131cc565b90508601358d611a55565b50818152602081209088601f198116825b81811061328957501061326f575b5050600187811b019055612e3a565b85013560001960038a901b60f8161c191690558a80613260565b8884013585556001909401936020938401938c935001613252565b60206040518092636eb1769f60e11b825281806132c53033600484016138fe565b03915afa908115610815576000916132f8575b50606435116132e75787612dc7565b6313be252b60e01b60005260046000fd5b90506020813d602011613322575b8161331360209383613736565b810103126102d75751886132d8565b3d9150613306565b604051630f5664e760e31b81526001600160a01b038416600482015290602090829060249082905afa90811561081557600091613377575b506001600160a01b031615610cdf5787612db1565b613390915060203d602011610d1857610d0a8183613736565b88613362565b50426001600160401b0384161115612d9b565b6365e52d5160e11b60005260046000fd5b346102d75760203660031901126102d7576004359060ff60005460a01c166104ce576001600b54036104bd576002600b55600082815260106020526040902060018101546001600160a01b031680156107655760028201546001600160a01b0316330361075457600682019283549260ff8460c01c168015613615575b8015613608575b61072957608084901c6001600160401b031680151590816135fe575b506135ed5760025460081c6001600160a01b031692836134f6575b5050505060ff60c01b1916600160c01b179055600081815260076020908152604080832060048101805460ff1916600117905560060180546001600160401b031916426001600160401b0316179055519182523392917f60bcf2631b8cd90b44e22ec240672853133a97befb77c37c5177ddb28ae27cac9190a36001600b55005b6370a0823160e01b835260048301819052602083602481875afa928315610815576000936135b8575b5060209061354593946040518080968194636eb1769f60e11b83523090600484016138fe565b03915afa91821561081557600092613583575b506005015480921061357257106132e75783808080613475565b631e9acf1760e31b60005260046000fd5b9091506020813d6020116135b0575b8161359f60209383613736565b810103126102d75751906005613558565b3d9150613592565b9092506020813d6020116135e5575b816135d460209383613736565b810103126102d7575191602061351f565b3d91506135c7565b639cb1308760e01b60005260046000fd5b905042118761345a565b5060ff8460d01c1661343e565b5060ff8460c81c16613437565b600435906001600160a01b03821682036102d757565b602435906001600160a01b03821682036102d757565b9181601f840112156102d7578235916001600160401b0383116102d757602083818601950101116102d757565b608435906001600160401b03821682036102d757565b60a435906001600160401b03821682036102d757565b6004359081151582036102d757565b6024359081151582036102d757565b90600182811c921680156136f5575b60208310146136df57565b634e487b7160e01b600052602260045260246000fd5b91607f16916136d4565b61018081019081106001600160401b03821117610c6157604052565b60a081019081106001600160401b03821117610c6157604052565b601f909101601f19168101906001600160401b03821190821017610c6157604052565b906040519182600082549261376d846136c5565b80845293600181169081156137db5750600114613794575b5061379292500383613736565b565b90506000929192526020600020906000915b8183106137bf5750509060206137929282010138613785565b60209193508060019154838589010152019101909184926137a6565b90506020925061379294915060ff191682840152151560051b82010138613785565b919082519283825260005b848110613829575050826000602080949584010152601f8019910116010190565b80602080928401015182828601015201613808565b90600682101561060c5752565b9181601f840112156102d7578235916001600160401b0383116102d7576020808501948460051b0101116102d757565b602060408183019282815284518094520192019060005b81811061389f5750505090565b8251845260209384019390920191600101613892565b6009548110156138d057600960005260206000200190600090565b634e487b7160e01b600052603260045260246000fd5b80548210156138d05760005260206000200190600090565b6001600160a01b0391821681529116602082015260400190565b908160209103126102d757516001600160a01b03811681036102d75790565b60001981146104965760010190565b818110613951575050565b60008155600101613946565b9190601f811161396c57505050565b613792926000526020600020906020601f840160051c83019310613998575b601f0160051c0190613946565b909150819061398b565b8160011b916000199060031b1c19161790565b8054600160a01b600160e01b03191660a09290921b600160a01b600160e01b0316919091179055565b8054600160401b600160801b03191660409290921b600160401b600160801b0316919091179055565b805490600160401b821015610c615781611be6916001613a29940181556138e6565b9055565b908060209392818452848401376000828201840152601f01601f1916010190565b90600160401b8111610c6157815491818155828210613a6c57505050565b600052602060002091820191015b818110613a85575050565b60008155600101613a7a565b6001600160401b038111610c615760051b60200190565b90613ab282613a91565b613abf6040519182613736565b8281528092613ad0601f1991613a91565b0190602036910137565b91908110156138d05760051b0190565b906020825491828152019160005260206000209060005b818110613b0e5750505090565b8254845260209093019260019283019201613b01565b959192613b6894613b47613b5593608098969b9a9b60a08b5260a08b0191613a2d565b9188830360208a0152613a2d565b9160408601528482036060860152613aea565b6001600160401b03909416910152565b908160209103126102d7575180151581036102d75790565b9190820180921161049657565b9190820391821161049657565b80518210156138d05760209160051b010190565b6001600160a01b031660008181526008602052604090205490939281831015613c5e57613bff91613bf0849283613b90565b90808211613c56575b50613b9d565b90613c0982613aa8565b9360005b838110613c1a5750505050565b600190826000526008602052613c3e6040600020613c388387613b90565b906138e6565b90549060031b1c613c4f8289613baa565b5201613c0d565b905038613bf9565b5050509050604051613c71602082613736565b60008152600036813790565b80548210156138d05760005260206000209060021b0190600090565b92909192600052600d60205260406000209283549081841015613d3057613cc591613bf0859283613b90565b613cce81613aa8565b93613cd882613aa8565b9360005b838110613ce95750505050565b80613cff613cf960019385613b90565b85613c7d565b5054828060a01b038116613d13838b613baa565b52828060401b039060a01c16613d298289613baa565b5201613cdc565b5050915050602090604051613d458382613736565b60008152600036813760405192613d5c8185613736565b600084525060003681379190565b91906009549081841015613dcd57613d8791613bf0859283613b90565b613d9081613aa8565b9260005b828110613da057505050565b80613db5613db060019385613b90565b6138b5565b90549060031b1c613dc68288613baa565b5201613d94565b50509050604051613c71602082613736565b6001600160a01b039091168152602081019190915260400190565b80600052600a602052604060002054908115613eb8576000198201918083116104965760095460001981019390841161049657613e36846138b5565b90549060031b1c906000948103613e95575b5050506009548015613e815760001901613e61816138b5565b8154906000199060031b1b191690556009558152600a6020526040812055565b634e487b7160e01b83526031600452602483fd5b613ea2611be683926138b5565b90558352600a6020526040832055388080613e48565b5050565b6008810180548015613f3657600091829055600254925460405163a9059cbb60e01b815293602093859360089290921c6001600160a01b039081169385938492613f0a921660048401613ddf565b03925af1801561081557613f1b5750565b613f339060203d60201161080e576108048183613736565b50565b505050565b80600052600a602052604060002054613f3357600954600160401b811015610c6157613f73611be682600185940160095560096138e6565b905560095490600052600a60205260406000205556fed6ac994b68de9eb3fb03c0acdd73d49612427f02a32430cb5f555bb42baf3c4d18d75305648a74597b581f82d18a431cb8a7ddbf7a7131ceb3e9e5343ed77089ffce64a4a888e2eca6ed6b5e083b220b5f57250b9c0c7badb33012f1607a0847a26469706673582212207bbc97a64a5966cdad4d2a7d901ad929289a26843ebe47e11f0b55accec2923564736f6c634300081c0033",
  "linkReferences": {},
  "deployedLinkReferences": {}
}