{
  "_format": "hh-sol-artifact-1",
  "contractName": "FreelancerFactory",
  "sourceName": "contracts/Freelancing/FreelancerFactory.sol",
  "abi": [
    {
      "inputs": [],
      "stateMutability": "nonpayable",
      "type": "constructor"
    },
    {
      "inputs": [],
      "name": "AttesterNotAuthorized",
      "type": "error"
    },
    {
      "inputs": [],
      "name": "ECDSAInvalidSignature",
      "type": "error"
    },
    {
      "inputs": [
        {
          "internalType": "uint256",
          "name": "length",
          "type": "uint256"
        }
      ],
      "name": "ECDSAInvalidSignatureLength",
      "type": "error"
    },
    {
      "inputs": [
        {
          "internalType": "bytes32",
          "name": "s",
          "type": "bytes32"
        }
      ],
      "name": "ECDSAInvalidSignatureS",
      "type": "error"
    },
    {
      "inputs": [],
      "name": "InvalidNonce",
      "type": "error"
    },
    {
      "inputs": [],
      "name": "NoProfile",
      "type": "error"
    },
    {
      "inputs": [],
      "name": "NotEscrowDeployerOrOwner",
      "type": "error"
    },
    {
      "inputs": [],
      "name": "NotOwner",
      "type": "error"
    },
    {
      "inputs": [],
      "name": "ProfileExists",
      "type": "error"
    },
    {
      "inputs": [],
      "name": "SignatureExpired",
      "type": "error"
    },
    {
      "inputs": [],
      "name": "ZeroAddress",
      "type": "error"
    },
    {
      "anonymous": false,
      "inputs": [
        {
          "indexed": true,
          "internalType": "address",
          "name": "attester",
          "type": "address"
        },
        {
          "indexed": false,
          "internalType": "bool",
          "name": "enabled",
          "type": "bool"
        }
      ],
      "name": "AttesterSet",
      "type": "event"
    },
    {
      "anonymous": false,
      "inputs": [
        {
          "indexed": true,
          "internalType": "address",
          "name": "registry",
          "type": "address"
        }
      ],
      "name": "CompanyRegistrySet",
      "type": "event"
    },
    {
      "anonymous": false,
      "inputs": [
        {
          "indexed": true,
          "internalType": "address",
          "name": "deployer",
          "type": "address"
        },
        {
          "indexed": false,
          "internalType": "bool",
          "name": "enabled",
          "type": "bool"
        }
      ],
      "name": "EscrowDeployerSet",
      "type": "event"
    },
    {
      "anonymous": false,
      "inputs": [
        {
          "indexed": true,
          "internalType": "address",
          "name": "freelancer",
          "type": "address"
        },
        {
          "indexed": true,
          "internalType": "address",
          "name": "profile",
          "type": "address"
        },
        {
          "indexed": true,
          "internalType": "address",
          "name": "escrow",
          "type": "address"
        }
      ],
      "name": "EscrowLinked",
      "type": "event"
    },
    {
      "anonymous": false,
      "inputs": [
        {
          "indexed": true,
          "internalType": "address",
          "name": "freelancer",
          "type": "address"
        },
        {
          "indexed": true,
          "internalType": "address",
          "name": "profile",
          "type": "address"
        },
        {
          "indexed": false,
          "internalType": "bool",
          "name": "status",
          "type": "bool"
        },
        {
          "indexed": true,
          "internalType": "address",
          "name": "attester",
          "type": "address"
        }
      ],
      "name": "KYCSetByAttestation",
      "type": "event"
    },
    {
      "anonymous": false,
      "inputs": [
        {
          "indexed": true,
          "internalType": "address",
          "name": "freelancer",
          "type": "address"
        },
        {
          "indexed": true,
          "internalType": "address",
          "name": "profile",
          "type": "address"
        },
        {
          "indexed": false,
          "internalType": "bool",
          "name": "status",
          "type": "bool"
        }
      ],
      "name": "KYCSetByOwner",
      "type": "event"
    },
    {
      "anonymous": false,
      "inputs": [
        {
          "indexed": true,
          "internalType": "address",
          "name": "previousOwner",
          "type": "address"
        },
        {
          "indexed": true,
          "internalType": "address",
          "name": "newOwner",
          "type": "address"
        }
      ],
      "name": "OwnerChanged",
      "type": "event"
    },
    {
      "anonymous": false,
      "inputs": [
        {
          "indexed": true,
          "internalType": "address",
          "name": "freelancer",
          "type": "address"
        },
        {
          "indexed": true,
          "internalType": "address",
          "name": "profile",
          "type": "address"
        }
      ],
      "name": "ProfileDeployed",
      "type": "event"
    },
    {
      "anonymous": false,
      "inputs": [
        {
          "indexed": true,
          "internalType": "address",
          "name": "freelancer",
          "type": "address"
        },
        {
          "indexed": true,
          "internalType": "address",
          "name": "profile",
          "type": "address"
        },
        {
          "indexed": true,
          "internalType": "address",
          "name": "vault",
          "type": "address"
        }
      ],
      "name": "VaultLinked",
      "type": "event"
    },
    {
      "inputs": [
        {
          "internalType": "address",
          "name": "",
          "type": "address"
        }
      ],
      "name": "attesters",
      "outputs": [
        {
          "internalType": "bool",
          "name": "",
          "type": "bool"
        }
      ],
      "stateMutability": "view",
      "type": "function"
    },
    {
      "inputs": [],
      "name": "companyRegistry",
      "outputs": [
        {
          "internalType": "address",
          "name": "",
          "type": "address"
        }
      ],
      "stateMutability": "view",
      "type": "function"
    },
    {
      "inputs": [
        {
          "internalType": "string",
          "name": "_name",
          "type": "string"
        },
        {
          "internalType": "string",
          "name": "_bio",
          "type": "string"
        },
        {
          "internalType": "string",
          "name": "_profileURI",
          "type": "string"
        }
      ],
      "name": "deployFreelancerProfile",
      "outputs": [
        {
          "internalType": "address",
          "name": "profileAddr",
          "type": "address"
        }
      ],
      "stateMutability": "nonpayable",
      "type": "function"
    },
    {
      "inputs": [
        {
          "internalType": "address",
          "name": "",
          "type": "address"
        }
      ],
      "name": "escrowDeployers",
      "outputs": [
        {
          "internalType": "bool",
          "name": "",
          "type": "bool"
        }
      ],
      "stateMutability": "view",
      "type": "function"
    },
    {
      "inputs": [
        {
          "internalType": "address",
          "name": "",
          "type": "address"
        }
      ],
      "name": "freelancerProfile",
      "outputs": [
        {
          "internalType": "address",
          "name": "",
          "type": "address"
        }
      ],
      "stateMutability": "view",
      "type": "function"
    },
    {
      "inputs": [],
      "name": "getAllFreelancerProfiles",
      "outputs": [
        {
          "internalType": "address[]",
          "name": "wallets",
          "type": "address[]"
        },
        {
          "internalType": "address[]",
          "name": "profiles",
          "type": "address[]"
        }
      ],
      "stateMutability": "view",
      "type": "function"
    },
    {
      "inputs": [],
      "name": "getAllFreelancers",
      "outputs": [
        {
          "internalType": "address[]",
          "name": "",
          "type": "address[]"
        }
      ],
      "stateMutability": "view",
      "type": "function"
    },
    {
      "inputs": [
        {
          "internalType": "address",
          "name": "freelancer",
          "type": "address"
        },
        {
          "internalType": "address",
          "name": "escrowAddr",
          "type": "address"
        }
      ],
      "name": "linkEscrowToProfile",
      "outputs": [],
      "stateMutability": "nonpayable",
      "type": "function"
    },
    {
      "inputs": [
        {
          "internalType": "address",
          "name": "freelancer",
          "type": "address"
        },
        {
          "internalType": "address",
          "name": "vaultAddr",
          "type": "address"
        }
      ],
      "name": "linkVaultToProfile",
      "outputs": [],
      "stateMutability": "nonpayable",
      "type": "function"
    },
    {
      "inputs": [
        {
          "internalType": "address",
          "name": "",
          "type": "address"
        }
      ],
      "name": "nonces",
      "outputs": [
        {
          "internalType": "uint256",
          "name": "",
          "type": "uint256"
        }
      ],
      "stateMutability": "view",
      "type": "function"
    },
    {
      "inputs": [],
      "name": "owner",
      "outputs": [
        {
          "internalType": "address",
          "name": "",
          "type": "address"
        }
      ],
      "stateMutability": "view",
      "type": "function"
    },
    {
      "inputs": [
        {
          "internalType": "address",
          "name": "_attester",
          "type": "address"
        },
        {
          "internalType": "bool",
          "name": "_enabled",
          "type": "bool"
        }
      ],
      "name": "setAttester",
      "outputs": [],
      "stateMutability": "nonpayable",
      "type": "function"
    },
    {
      "inputs": [
        {
          "internalType": "address",
          "name": "_registry",
          "type": "address"
        }
      ],
      "name": "setCompanyRegistry",
      "outputs": [],
      "stateMutability": "nonpayable",
      "type": "function"
    },
    {
      "inputs": [
        {
          "internalType": "address",
          "name": "_deployer",
          "type": "address"
        },
        {
          "internalType": "bool",
          "name": "_enabled",
          "type": "bool"
        }
      ],
      "name": "setEscrowDeployer",
      "outputs": [],
      "stateMutability": "nonpayable",
      "type": "function"
    },
    {
      "inputs": [
        {
          "internalType": "address",
          "name": "freelancer",
          "type": "address"
        },
        {
          "internalType": "bool",
          "name": "status",
          "type": "bool"
        },
        {
          "internalType": "uint256",
          "name": "nonce",
          "type": "uint256"
        },
        {
          "internalType": "uint256",
          "name": "expiry",
          "type": "uint256"
        },
        {
          "internalType": "bytes",
          "name": "signature",
          "type": "bytes"
        }
      ],
      "name": "setKYCByAttestation",
      "outputs": [],
      "stateMutability": "nonpayable",
      "type": "function"
    },
    {
      "inputs": [
        {
          "internalType": "address",
          "name": "freelancer",
          "type": "address"
        },
        {
          "internalType": "bool",
          "name": "status",
          "type": "bool"
        }
      ],
      "name": "setKYCFor",
      "outputs": [],
      "stateMutability": "nonpayable",
      "type": "function"
    },
    {
      "inputs": [],
      "name": "totalFreelancers",
      "outputs": [
        {
          "internalType": "uint256",
          "name": "",
          "type": "uint256"
        }
      ],
      "stateMutability": "view",
      "type": "function"
    },
    {
      "inputs": [
        {
          "internalType": "address",
          "name": "_newOwner",
          "type": "address"
        }
      ],
      "name": "transferOwnership",
      "outputs": [],
      "stateMutability": "nonpayable",
      "type": "function"
    }
  ],
  "bytecode": "0x60808060405234602757600080546001600160a01b0319163317905561352e908161002d8239f35b600080fdfe608080604052600436101561001357600080fd5b600090813560e01c908163131a91ad14610cee57508063148680ad14610b1057806332dabbf014610a13578063359b248c1461098157806338f6e47c1461094257806350304f031461089a5780635c0204d9146108105780635e586eb1146107f25780636120303a146107615780636c0ca68a146106915780636e8e87ab146104365780637ab32738146103f55780637ecebe00146103bc5780638da5cb5b14610395578063b687a452146102f0578063c51aba2b146102c7578063f2fde38b146102345763fab9b285146100e757600080fd5b3461023157604036600319011261023157610100610d2a565b610108610d45565b9060018060a01b038354163314158061021a575b61020b576001600160a01b0316801580156101fa575b6101eb57808352600160205260408320546001600160a01b03169081156101dc57813b156101cd576040516339d3ad7760e01b81526001600160a01b0390931660048401819052928490818160248183885af180156101d1576101b8575b50807f08d16763167296b8f84c1eaa662972554a494252231d9e04a4ca648884ece49d91a480f35b816101c291610e26565b6101cd578338610190565b8380fd5b6040513d84823e3d90fd5b636f86092760e01b8452600484fd5b63d92e233d60e01b8352600483fd5b506001600160a01b03821615610132565b63024eb4d760e01b8352600483fd5b50338352600560205260ff6040842054161561011c565b80fd5b50346102315760203660031901126102315761024e610d2a565b8154906001600160a01b03821690338290036102b8576001600160a01b03169182156102a9576001600160a01b031916821783557fb532073b38c83145e3e5135377a08bf9aab55bc0fd7c1179cd4fb995d2a5159c8380a380f35b63d92e233d60e01b8452600484fd5b6330cd747160e01b8452600484fd5b50346102315780600319360112610231576006546040516001600160a01b039091168152602090f35b50346102315760403660031901126102315761030a610d2a565b610312610dc5565b82549091906001600160a01b03163303610386576001600160a01b03169081156101eb5760207f74afebffc8acdd9c14bc56f7149db484f30e25c597b991a4319178a309dfc9db918385526005825261037a81604087209060ff801983541691151516179055565b6040519015158152a280f35b6330cd747160e01b8352600483fd5b5034610231578060031936011261023157546040516001600160a01b039091168152602090f35b5034610231576020366003190112610231576020906040906001600160a01b036103e4610d2a565b168152600483522054604051908152f35b5034610231576020366003190112610231576020906001600160a01b0361041a610d2a565b16815260018252604060018060a01b0391205416604051908152f35b50346102315760a036600319011261023157610450610d2a565b610458610dc5565b6044359160643591906084356001600160401b03811161068d57610480903690600401610d5b565b909184421161067e576001600160a01b031680875260046020526040872054909390860361066f57604051602081019185835215159586604083015287606083015260808201523060a082015260a081526104dc60c082610e26565b5190207b0ca2ba3432b932bab69029b4b3b732b21026b2b9b9b0b3b29d05199960211b8752601c52603c86206001600160401b03821161065b576040519061052e601f8401601f191660200183610e26565b828252873684860111610231576020846105539561055c978387013784010152610ebc565b90929192610ef8565b6001600160a01b03168085526003602052604085205490939060ff161561064c57600181018091116106385781855260046020526040852055808452600160205260018060a01b0360408520541691821561062957823b156106255784604051630394abbf60e31b8152826004820152818160248183895af180156101d157610610575b505060207fd2952936061920788f0b2fc69e5db186c12626952e14b81b39e48e6acef0877091604051908152a480f35b8161061a91610e26565b6106255784386105e0565b8480fd5b636f86092760e01b8552600485fd5b634e487b7160e01b85526011600452602485fd5b634e090add60e11b8552600485fd5b634e487b7160e01b87526041600452602487fd5b633ab3447f60e11b8752600487fd5b630819bdcd60e01b8752600487fd5b8580fd5b5034610231576040366003190112610231576106ab610d2a565b6106b3610dc5565b82549091906001600160a01b03163303610386576001600160a01b03908116808452600160205260408420549091169182156101dc57823b156101cd578360405191630394abbf60e31b8352151591826004820152818160248183895af180156101d15761074c575b505060207f54a5ffc7ba6d36586b4e16b091b7c60a338db2d70d6e5a3ff9f20e31e87e7b2d91604051908152a380f35b8161075691610e26565b6101cd57833861071c565b50346102315760203660031901126102315761077b610d2a565b81546001600160a01b031633036107e3576001600160a01b031680156107d457600680546001600160a01b031916821790557faf08bcabed1715c2ea8ae32e24bd98c82b123f065c44abf9b0a1b953649eecdc8280a280f35b63d92e233d60e01b8252600482fd5b6330cd747160e01b8252600482fd5b50346102315780600319360112610231576020600254604051908152f35b50346102315760403660031901126102315761082a610d2a565b610832610dc5565b82549091906001600160a01b03163303610386576001600160a01b03169081156101eb5760207fe282e8f39d469f44e202567418af903a001092d0eaa89b1070c44d3f01c0db2a918385526003825261037a81604087209060ff801983541691151516179055565b50346102315780600319360112610231576002546108b781610e76565b906108c181610e76565b92805b8281106108f9576108e7846108f587604051938493604085526040850190610d88565b908382036020850152610d88565b0390f35b80610905600192610df5565b838060a01b0391549060031b1c168061091e8388610ea8565b52835281602052818060a01b0360408420541661093b8288610ea8565b52016108c4565b50346102315760203660031901126102315760209060ff906040906001600160a01b0361096d610d2a565b168152600584522054166040519015158152f35b503461023157806003193601126102315760405160028054808352908352909160208301917f405787fa12a823e0f2b7631cc41b3ba8828b3321ca811111fa75cd3aa3bb5ace915b8181106109f4576108f5856109e081870382610e26565b604051918291602083526020830190610d88565b82546001600160a01b03168452602090930192600192830192016109c9565b503461023157604036600319011261023157610a2d610d2a565b610a35610d45565b6006549091906001600160a01b0316330361020b576001600160a01b031680158015610aff575b6101eb57808352600160205260408320546001600160a01b03169081156101dc57813b156101cd57604051639c9bb1e360e01b81526001600160a01b039093166004840181905292848160248183875af18015610af457610ae0575b507fe1741020b046934a153534961e789b881a25802d1988c8b6256da257a784656b8480a480f35b84610aed91959295610e26565b9238610ab8565b6040513d87823e3d90fd5b506001600160a01b03821615610a5c565b5034610231576060366003190112610231576004356001600160401b038111610cea57610b41903690600401610d5b565b6024356001600160401b0381116101cd57610b60903690600401610d5b565b6044356001600160401b03811161068d57610b7f903690600401610d5b565b3387526001602052604087205490939192906001600160a01b0316610cdb57604051956124ed80880196906001600160401b03881189891017610cc75792610bed610bfb93610c099896938b9a989661100c8c393389523060208a015260a060408a015260a0890191610dd4565b918683036060880152610dd4565b926080818503910152610dd4565b039082f08015610cba5733825260016020526040822080546001600160a01b0319166001600160a01b039290921691821790556002549190600160401b831015610ca657610c5f83600160209501600255610df5565b81549060031b9033821b9160018060a01b03901b191617905580604051927fa93072ad567e6157cd68a9a276afb4889cadc9462eba7f74ffc891e62238158b339180a38152f35b634e487b7160e01b82526041600452602482fd5b50604051903d90823e3d90fd5b634e487b7160e01b8a52604160045260248afd5b638d2c60db60e01b8752600487fd5b5080fd5b905034610cea576020366003190112610cea5760209160ff906040906001600160a01b03610d1a610d2a565b1681526003855220541615158152f35b600435906001600160a01b0382168203610d4057565b600080fd5b602435906001600160a01b0382168203610d4057565b9181601f84011215610d40578235916001600160401b038311610d405760208381860195010111610d4057565b906020808351928381520192019060005b818110610da65750505090565b82516001600160a01b0316845260209384019390920191600101610d99565b602435908115158203610d4057565b908060209392818452848401376000828201840152601f01601f1916010190565b600254811015610e1057600260005260206000200190600090565b634e487b7160e01b600052603260045260246000fd5b601f909101601f19168101906001600160401b03821190821017610e4957604052565b634e487b7160e01b600052604160045260246000fd5b6001600160401b038111610e495760051b60200190565b90610e8082610e5f565b610e8d6040519182610e26565b8281528092610e9e601f1991610e5f565b0190602036910137565b8051821015610e105760209160051b010190565b8151919060418303610eed57610ee692506020820151906060604084015193015160001a90610f80565b9192909190565b505060009160029190565b9190916004811015610f6a5780610f0e57509050565b600060018203610f295763f645eedf60e01b60005260046000fd5b5060028103610f47578263fce698f760e01b60005260045260246000fd5b9091600360009214610f57575050565b6335e2f38360e21b825260045260249150fd5b634e487b7160e01b600052602160045260246000fd5b91906fa2a8918ca85bafe22016d0b997e4df60600160ff1b038411610fff579160209360809260ff60009560405194855216868401526040830152606082015282805260015afa15610ff3576000516001600160a01b03811615610fe75790600090600090565b50600090600190600090565b6040513d6000823e3d90fd5b5050506000916003919056fe60c060405234610599576124ed803803806100198161059e565b928339810160a08282031261059957610031826105c3565b9161003e602082016105c3565b60408201516001600160401b038111610599578361005d9184016105fa565b60608301519092906001600160401b038111610599578461007f9183016105fa565b60808201519094906001600160401b0381116105995761009f92016105fa565b936001600160a01b038116158015610588575b6105775760805260a05280516001600160401b0381116103a457600054600181811c9116801561056d575b602082101461038457601f8111610509575b50806020601f82116001146104a55760009161049a575b508160011b916000199060031b1c1916176000555b8151926001600160401b0384116103a457600154600181811c91168015610490575b602082101461038457601f811161042b575b50602093601f81116001146103c55780919293946000916103ba575b508160011b916000199060031b1c1916176001555b8051926001600160401b0384116103a457600254600181811c9116801561039a575b602082101461038457601f811161031f575b50602093601f811160011461029f5791610238610246928461022a96956000805160206124cd83398151915298600091610294575b508160011b916000199060031b1c1916176002555b6000600455600060055560ff19600654166006554260085560405195869560608752606087019061064a565b90858203602087015261064a565b90838203604085015261064a565b0390a1604051611e5d908161067082396080518181816104f20152818161108a01526113df015260a0518181816109b101528181610a7101528181610d3c015281816111c101526113330152f35b9050840151386101e9565b601f1981166002600052856000209060005b818110610307575092600183610238936000805160206124cd8339815191529961022a99989661024698106102ee575b5050811b016002556101fe565b86015160001960f88460031b161c1916905538806102e1565b858801518355602097880197600190930192016102b1565b60026000527f405787fa12a823e0f2b7631cc41b3ba8828b3321ca811111fa75cd3aa3bb5ace601f860160051c8101916020871061037a575b601f0160051c01905b81811061036e57506101b4565b60008155600101610361565b9091508190610358565b634e487b7160e01b600052602260045260246000fd5b90607f16906101a2565b634e487b7160e01b600052604160045260246000fd5b90508401513861016b565b601f198116946001600052806000209060005b878110610413575082600194959697106103fa575b5050811b01600155610180565b86015160001960f88460031b161c1916905538806103ed565b9091602060018192858a0151815501930191016103d8565b60016000527fb10e2d527612073b26eecdfd717e6a320cf44b4afac2b0732d9fcbe2b7fa0cf6601f860160051c81019160208710610486575b601f0160051c01905b81811061047a575061014f565b6000815560010161046d565b9091508190610464565b90607f169061013d565b905082015138610106565b60008080528181209250601f198416905b8181106104f1575090836001949392106104d8575b5050811b0160005561011b565b84015160001960f88460031b161c1916905538806104cb565b919260206001819286890151815501940192016104b6565b600080527f290decd9548b62a8d60345a988386fc84ba6bc95484008f6362f93160ef3e563601f830160051c81019160208410610563575b601f0160051c01905b81811061055757506100ef565b6000815560010161054a565b9091508190610541565b90607f16906100dd565b63d92e233d60e01b60005260046000fd5b506001600160a01b038216156100b2565b600080fd5b6040519190601f01601f191682016001600160401b038111838210176103a457604052565b51906001600160a01b038216820361059957565b60005b8381106105ea5750506000910152565b81810151838201526020016105da565b81601f820112156105995780516001600160401b0381116103a457610628601f8201601f191660200161059e565b92818452602082840101116105995761064791602080850191016105d7565b90565b90602091610663815180928185528580860191016105d7565b601f01601f191601019056fe608080604052600436101561001357600080fd5b60003560e01c90816306237526146117da5750806306fdde03146117bc5780631105a5eb1461136a5780631ca55df81461131457806320d7f08b146112f15780632b757cb8146112695780632df3eba41461124b57806339d3ad7714611199578063567142be1461117b5780635abe34e214610946578063633e5d2a1461115d5780636fd5ae151461113c57806379442d771461111e5780637bc4c0611461110057806387dc37c7146110e25780638a77ba1a146110b95780638da5cb5b14611074578063963310af14610fde5780639c53a12014610dc75780639c9bb1e314610d14578063a3abe42514610b8e578063aa98efee14610357578063c031eddf14610b59578063c22c4f4314610aa0578063c45a015514610a5b578063e86bffdf14610989578063e904f66714610946578063ef8f25961461045b578063f516b42214610388578063f7a13d89146103575763fa40d2e81461017457600080fd5b346103525760203660031901126103525760043533600052600b60205260ff60406000205416156103415780156103305780600052600d60205260ff60406000205460a01c1660088110156103095761031f57604051426001600160401b03166101dd8261182f565b3382526001602080840191825260006040808601828152606087018381526080880187815260a08901978852898552600d90955291909220955186546001600160a01b0319166001600160a01b0391909116178655925193929060088510156103095760ff61025a9161025260019789611a7b565b511686611a5e565b518454915160b885811b60f887901b03801960ff60b01b1990951693151560b01b60ff60b01b169390931793909316921b161783555191810180546001600160401b0319166001600160401b03604084811b94909403949094169390931692909217909155519033817f18737ba33cf8fc3ca591008614a168159cb822fcb206ab8e12c6c200a39b95fb600080a36000825260016020830152600080516020611d8883398151915260403393a3005b634e487b7160e01b600052602160045260246000fd5b631e8fa57160e31b60005260046000fd5b63406729f960e11b60005260046000fd5b6318eb746b60e11b60005260046000fd5b600080fd5b3461035257602036600319011261035257600435600052600e602052602060ff604060002054166040519015158152f35b346103525760003660031901126103525760405160006001546103aa816117f5565b808452906001811690811561043757506001146103ea575b6103e6836103d28185038261184a565b604051918291602083526020830190611911565b0390f35b60016000908152600080516020611e08833981519152939250905b80821061041d575090915081016020016103d26103c2565b919260018160209254838588010152019101909291610405565b60ff191660208086019190915291151560051b840190910191506103d290506103c2565b346103525760a0366003190112610352576004356001600160401b0381116103525761048b903690600401611952565b906024356001600160401b038111610352576104ab903690600401611952565b92906044356001600160401b038111610352576104cc903690600401611952565b9094906064356001600160401b038111610352576104ee903690600401611952565b96907f00000000000000000000000000000000000000000000000000000000000000006001600160a01b031633036109355760ff600354161561092457601054946064861015610913576105829261056461057392604051976105508961182f565b61055b368c8e611b00565b89523691611b00565b94602087019586523691611b00565b97604085019889523691611b00565b95606083019687526080830191608435835260a084019460018652600052600f6020526040600020935180519060018060401b0382116107bd576105d0826105ca88546117f5565b8861198c565b602090601f83116001146108ac576105f3929160009183610746575b50506119de565b84555b51805160018501916001600160401b0382116107bd576106208261061a85546117f5565b8561198c565b602090601f8311600114610845576106429291600091836107465750506119de565b90555b51805160028401916001600160401b0382116107bd576106698261061a85546117f5565b602090601f83116001146107de5761068b9291600091836107d35750506119de565b90555b9451805190959060038301906001600160401b0381116107bd576106bc816106b684546117f5565b8461198c565b6020601f821160011461075157816005959493926106e59260019b6000926107465750506119de565b90555b516004820155019051151560ff801983541691161790557fe1f8251252d428948683869e48119b3d7a3f4df9e46c775f5c6591cbd065f4d560105492839261073d6040519283926020845260208401916119f1565b0390a201601055005b015190508b806105ec565b601f1982169083600052806000209160005b8181106107a5575091839160019b6005989796958d951061078c575b505050811b0190556106e8565b015160001960f88460031b161c191690558a808061077f565b9192602060018192868f015181550194019201610763565b634e487b7160e01b600052604160045260246000fd5b015190508a806105ec565b90601f1983169184600052816000209260005b81811061082d5750908460019594939210610814575b505050811b01905561068e565b015160001960f88460031b161c19169055898080610807565b929360206001819287860151815501950193016107f1565b90601f1983169184600052816000209260005b818110610894575090846001959493921061087b575b505050811b019055610645565b015160001960f88460031b161c191690558a808061086e565b92936020600181928786015181550195019301610858565b90601f1983169187600052816000209260005b8181106108fb57509084600195949392106108e2575b505050811b0184556105f6565b015160001960f88460031b161c191690558a80806108d5565b929360206001819287860151815501950193016108bf565b6336cd606760e21b60005260046000fd5b63a95362b560e01b60005260046000fd5b6330cd747160e01b60005260046000fd5b34610352576020366003190112610352576004356001600160a01b0381169081900361035257600052600b602052602060ff604060002054166040519015158152f35b34610352576020366003190112610352576004356001600160a01b03811690819003610352577f00000000000000000000000000000000000000000000000000000000000000006001600160a01b03163303610a4a578015610a395780600052600b60205260ff60406000205416156103415780600052600b602052604060002060ff1981541690557f9cfe83a14fc052fe86cb71c1329bd455873a823933cf98c5dcff5721beca5152600080a2005b63d92e233d60e01b60005260046000fd5b631966391b60e11b60005260046000fd5b34610352576000366003190112610352576040517f00000000000000000000000000000000000000000000000000000000000000006001600160a01b03168152602090f35b3461035257602036600319011261035257600435600052600f602052610b1e6040600020610acd8161186d565b90610ada6001820161186d565b610b48610ae96002840161186d565b610b3a610af86003860161186d565b91610b2c60ff600560048901549801541695604051998a9960c08b5260c08b0190611911565b9089820360208b0152611911565b908782036040890152611911565b908582036060870152611911565b916080840152151560a08301520390f35b346103525760203660031901126103525733600052600b60205260ff604060002054161561034157610b8c600435611abb565b005b346103525760403660031901126103525760243560043560088210156103525733600052600b60205260ff604060002054161561034157610bce81611b46565b8054336001600160a01b03821603610d035760ff8160b01c16610cf25760a01c60ff1692610bfc8185611c16565b15610ce15760006005821480610cb9575b15610c7b57506001610c6592610c24600954611aac565b6009555b610c328382611a7b565b0180546001600160401b031916426001600160401b031617905560405193610c5b90859061197f565b602084019061197f565b600080516020611d8883398151915260403393a3005b506006811480610ca5575b610c659260019115610c2857610c9d600a54611aac565b600a55610c28565b506008841015610309576006841415610c86565b506008851015610ccd576005851415610c0d565b634e487b7160e01b81526021600452602490fd5b63088bd32360e11b60005260046000fd5b63311d737b60e21b60005260046000fd5b631818917b60e01b60005260046000fd5b34610352576020366003190112610352576004356001600160a01b03811690819003610352577f00000000000000000000000000000000000000000000000000000000000000006001600160a01b03163303610a4a578015610a3957600c546001600160a01b038116610db7576001600160a01b0319168117600c557f86a3809fa04bafd0f6847c1ffd8b4e66f7c551f4923c11b214905e36d7fd0461600080a2005b628ce1d160e01b60005260046000fd5b346103525760403660031901126103525760043560ff811690818103610352576024359033600052600b60205260ff60406000205416156103415791610e0c82611b46565b8054909190336001600160a01b03821603610d035760ff8160b01c16610cf25760a01c60ff16600881101561030957600403610fce57600111610fc5575b600560ff841611610fbc575b80610e6384600193611a5e565b805462ff00ff60a01b191660b083901b17600760a01b1781550180546001600160401b031916426001600160401b03161790556000818152600e60205260409020805460ff1916600117905560045460ff9290921691610ec38382611a9f565b90816004556005549060018201809211610fa65760407f2a4f386dacbb02a5d478d3fc1d2dbc487b69ed735b8d629e99d905680db927eb91836005558151908152846020820152a16006549160ff831660ff610f1f8385611b6c565b16809460ff191617600655808403610f70575b506040519485526020850152604084015260608301527f3d5d384ab80e19e25a6f89bd353f3309482fad32e210aff2b1c6ae7ee2096b6460803393a3005b60407fe3baeb7cde6b34690f45a4b6b0c8d17538edc7064370627da2e7d25c2437147d918151908152856020820152a185610f32565b634e487b7160e01b600052601160045260246000fd5b60059250610e56565b60019250610e4a565b6215588160e91b60005260046000fd5b34610352576000366003190112610352576040516000600254611000816117f5565b80845290600181169081156104375750600114611027576103e6836103d28185038261184a565b60026000908152600080516020611da8833981519152939250905b80821061105a575090915081016020016103d26103c2565b919260018160209254838588010152019101909291611042565b34610352576000366003190112610352576040517f00000000000000000000000000000000000000000000000000000000000000006001600160a01b03168152602090f35b3461035257600036600319011261035257600c546040516001600160a01b039091168152602090f35b34610352576000366003190112610352576020600854604051908152f35b34610352576000366003190112610352576020600554604051908152f35b34610352576000366003190112610352576020600954604051908152f35b3461035257600036600319011261035257602060ff60065416604051908152f35b34610352576000366003190112610352576020600a54604051908152f35b34610352576000366003190112610352576020600454604051908152f35b34610352576020366003190112610352576004356001600160a01b03811690819003610352577f00000000000000000000000000000000000000000000000000000000000000006001600160a01b03163303610a4a578015610a395780600052600b60205260ff60406000205416610db75780600052600b6020526040600020600160ff198254161790557fdf2cab5618b04639fbd29a022852edb95271f3d11b3702eea922c21ff7d5c067600080a2005b34610352576000366003190112610352576020600754604051908152f35b3461035257602036600319011261035257600435600052600d60205260c060406000208054906001808060401b03910154166040519160018060a01b03811683526112bd6020840160ff8360a01c1661197f565b60a881901c60ff908116604085015260b082901c161515606084015260b81c6001600160401b0316608083015260a0820152f35b3461035257600036600319011261035257602060ff600354166040519015158152f35b34610352576020366003190112610352576004358015158103610352577f00000000000000000000000000000000000000000000000000000000000000006001600160a01b03163303610a4a57610b8c90611a12565b34610352576060366003190112610352576004356001600160401b0381116103525761139a903690600401611952565b906024356001600160401b038111610352576113ba903690600401611952565b92906044356001600160401b038111610352576113db903690600401611952565b90917f00000000000000000000000000000000000000000000000000000000000000006001600160a01b03163303610935576001600160401b0384116107bd576114266000546117f5565b601f8111611758575b50600084601f81116001146116f45780611451926000916116e9575b506119de565b6000555b6001600160401b0386116107bd5761146e6001546117f5565b601f8111611696575b50600086601f811160011461162657806114989260009161161b57506119de565b6001555b6001600160401b0382116107bd576114b56002546117f5565b601f81116115c8575b50600095601f8311600114611540578291611522916114f9846115309796600080516020611dc88339815191529b60009161153557506119de565b6002555b61151460405198899860608a5260608a01916119f1565b9187830360208901526119f1565b9184830360408601526119f1565b0390a1005b90508701358c61144b565b60028752600080516020611da883398151915296601f198416815b8181106115b0575091600080516020611dc88339815191529885949261153097966115229510611596575b5050600184811b016002556114fd565b860135600019600387901b60f8161c191690558980611586565b868301358a556001909901986020928301920161155b565b6002600052600080516020611da8833981519152601f840160051c81019160208510611611575b601f0160051c01905b81811061160557506114be565b600081556001016115f8565b90915081906115ef565b90508301358961144b565b5060018152600080516020611e088339815191529087601f198116825b81811061167b575010611661575b5050600186811b0160015561149c565b820135600019600389901b60f8161c191690558680611651565b8584013585556001909401936020938401938b935001611643565b6001600052600080516020611e08833981519152601f880160051c810191602089106116df575b601f0160051c01905b8181106116d35750611477565b600081556001016116c6565b90915081906116bd565b90508701358961144b565b50808052602081209085601f198116825b81811061173d575010611723575b5050600184811b01600055611455565b860135600019600387901b60f8161c191690558680611713565b89840135855560019094019360209384019389935001611705565b600080527f290decd9548b62a8d60345a988386fc84ba6bc95484008f6362f93160ef3e563601f860160051c810191602087106117b2575b601f0160051c01905b8181106117a6575061142f565b60008155600101611799565b9091508190611790565b34610352576000366003190112610352576103e66103d2600061186d565b34610352576000366003190112610352576020906010548152f35b90600182811c92168015611825575b602083101461180f57565b634e487b7160e01b600052602260045260246000fd5b91607f1691611804565b60c081019081106001600160401b038211176107bd57604052565b601f909101601f19168101906001600160401b038211908210176107bd57604052565b9060405191826000825492611881846117f5565b80845293600181169081156118ef57506001146118a8575b506118a69250038361184a565b565b90506000929192526020600020906000915b8183106118d35750509060206118a69282010138611899565b60209193508060019154838589010152019101909184926118ba565b9050602092506118a694915060ff191682840152151560051b82010138611899565b919082519283825260005b84811061193d575050826000602080949584010152601f8019910116010190565b8060208092840101518282860101520161191c565b9181601f84011215610352578235916001600160401b038311610352576020838186019501011161035257565b9060088210156103095752565b601f821161199957505050565b6000526020600020906020601f840160051c830193106119d4575b601f0160051c01905b8181106119c8575050565b600081556001016119bd565b90915081906119b4565b8160011b916000199060031b1c19161790565b908060209392818452848401376000828201840152601f01601f1916010190565b600354901515908160ff8216151514611a475760ff191660ff82161760035533600080516020611de8833981519152600080a3565b5033600080516020611de8833981519152600080a3565b805460ff60a81b191660a89290921b60ff60a81b16919091179055565b90600881101561030957815460ff60a01b191660a09190911b60ff60a01b16179055565b91908201809211610fa657565b6000198114610fa65760010190565b8015611afd576020611af07fa222a953ec1a643c6ae01f4db11065d319439bbf943b2668635988c0b0bd408392600754611a9f565b80600755604051908152a1565b50565b9192916001600160401b0382116107bd5760405191611b29601f8201601f19166020018461184a565b829481845281830111610352578281602093846000960137010152565b600052600d60205260406000209060ff825460a01c166008811015610309571561033057565b601981101580611c0b575b611c0457601481101580611bf9575b611bf257600f81101580611be7575b611be057600a81101580611bd5575b611bce57600511159081611bc2575b50611bbd57600090565b600190565b60149150101538611bb3565b5050600290565b50602d821015611ba4565b5050600390565b506046821015611b95565b5050600490565b50605f821015611b86565b5050600590565b506078821015611b77565b6008811015610309576001811480611d6a575b611cca5760006002821480611d2a575b611c9b57506003811480611cd1575b611cca576000906004811480611ca3575b611c9b5760059150149081611c725750611bbd57600090565b905060088110156103095760048114908115611c90575b5038611bb3565b600691501438611c89565b505050600190565b506008831015611cb65760078314611c59565b634e487b7160e01b82526021600452602482fd5b5050600190565b506008821015806103095760048314908115611d1d575b8115611d0c575b8115611cfc575b50611c48565b9050610309576003821438611cf6565b809150610309576006831490611cef565b5050600582146000611ce8565b50600883101580611cb65760038414908115611d5e575b8115611d4e575b50611c39565b9050610ccd576005831438611d48565b50506006831481611d41565b506008821015610309576002821480611c29575060068214611c2956fe8cc8bd6dd4c5914c8824d0a2e6d02d8cbd54de0113506d38fa9c2cd5611d2104405787fa12a823e0f2b7631cc41b3ba8828b3321ca811111fa75cd3aa3bb5ace7dc9ed3d635c09f8d480400bd28952dcf48619b0f27d3d69668fa24b1f7af8a43a620c3544f4661f38b303e51ff3c4cc552da5a80ec55d4e3875af78775e1a82b10e2d527612073b26eecdfd717e6a320cf44b4afac2b0732d9fcbe2b7fa0cf6a2646970667358221220263612cd6e914000fa141945a22e8e71165e69df825a9c71fd450d0050b8094a64736f6c634300081c00337dc9ed3d635c09f8d480400bd28952dcf48619b0f27d3d69668fa24b1f7af8a4a264697066735822122010e8366bd16cb7e95dc4b65f6bc61fec29855d951f67fdb58ff67e646e170f1a64736f6c634300081c0033",
  "linkReferences": {},
  "deployedLinkReferences": {}
}