{
  "_format": "hh-sol-artifact-1",
  "contractName": "FreelancerProfile",
  "sourceName": "contracts/Freelancing/FreelancerProfile.sol",
  "abi": [
    {
      "inputs": [
        {
          "internalType": "address",
          "name": "_owner",
          "type": "address"
        },
        {
          "internalType": "address",
          "name": "_factory",
          "type": "address"
        },
        {
          "internalType": "string",
          "name": "_name",
          "type": "string"
        },
        {
          "internalType": "string",
          "name": "_bio",
          "type": "string"
        },
        {
          "internalType": "string",
          "name": "_profileURI",
          "type": "string"
        }
      ],
      "stateMutability": "nonpayable",
      "type": "constructor"
    },
    {
      "inputs": [],
      "name": "EscrowAlreadyRegistered",
      "type": "error"
    },
    {
      "inputs": [],
      "name": "EscrowNotAuthorized",
      "type": "error"
    },
    {
      "inputs": [],
      "name": "InvalidStatusTransition",
      "type": "error"
    },
    {
      "inputs": [],
      "name": "JobAlreadyFinalized",
      "type": "error"
    },
    {
      "inputs": [],
      "name": "JobExists",
      "type": "error"
    },
    {
      "inputs": [],
      "name": "JobNotApproved",
      "type": "error"
    },
    {
      "inputs": [],
      "name": "JobUnknown",
      "type": "error"
    },
    {
      "inputs": [],
      "name": "JobWrongEscrow",
      "type": "error"
    },
    {
      "inputs": [],
      "name": "MaxServicesReached",
      "type": "error"
    },
    {
      "inputs": [],
      "name": "NotFactory",
      "type": "error"
    },
    {
      "inputs": [],
      "name": "NotOwner",
      "type": "error"
    },
    {
      "inputs": [],
      "name": "NotVerified",
      "type": "error"
    },
    {
      "inputs": [],
      "name": "ServiceNotFound",
      "type": "error"
    },
    {
      "inputs": [],
      "name": "ZeroAddress",
      "type": "error"
    },
    {
      "anonymous": false,
      "inputs": [
        {
          "indexed": true,
          "internalType": "address",
          "name": "vault",
          "type": "address"
        }
      ],
      "name": "CompanyVaultSet",
      "type": "event"
    },
    {
      "anonymous": false,
      "inputs": [
        {
          "indexed": false,
          "internalType": "uint256",
          "name": "totalEarnings",
          "type": "uint256"
        }
      ],
      "name": "EarningsUpdated",
      "type": "event"
    },
    {
      "anonymous": false,
      "inputs": [
        {
          "indexed": true,
          "internalType": "address",
          "name": "escrow",
          "type": "address"
        }
      ],
      "name": "EscrowRegistered",
      "type": "event"
    },
    {
      "anonymous": false,
      "inputs": [
        {
          "indexed": true,
          "internalType": "address",
          "name": "escrow",
          "type": "address"
        }
      ],
      "name": "EscrowUnregistered",
      "type": "event"
    },
    {
      "anonymous": false,
      "inputs": [
        {
          "indexed": true,
          "internalType": "bytes32",
          "name": "jobKey",
          "type": "bytes32"
        },
        {
          "indexed": true,
          "internalType": "address",
          "name": "escrow",
          "type": "address"
        },
        {
          "indexed": false,
          "internalType": "uint8",
          "name": "rating",
          "type": "uint8"
        },
        {
          "indexed": false,
          "internalType": "uint256",
          "name": "totalPoints",
          "type": "uint256"
        },
        {
          "indexed": false,
          "internalType": "uint256",
          "name": "completedJobs",
          "type": "uint256"
        },
        {
          "indexed": false,
          "internalType": "uint8",
          "name": "newLevel",
          "type": "uint8"
        }
      ],
      "name": "JobCompleted",
      "type": "event"
    },
    {
      "anonymous": false,
      "inputs": [
        {
          "indexed": true,
          "internalType": "bytes32",
          "name": "jobKey",
          "type": "bytes32"
        },
        {
          "indexed": true,
          "internalType": "address",
          "name": "escrow",
          "type": "address"
        }
      ],
      "name": "JobRegistered",
      "type": "event"
    },
    {
      "anonymous": false,
      "inputs": [
        {
          "indexed": true,
          "internalType": "bytes32",
          "name": "jobKey",
          "type": "bytes32"
        },
        {
          "indexed": true,
          "internalType": "address",
          "name": "escrow",
          "type": "address"
        },
        {
          "indexed": false,
          "internalType": "enum FreelancerProfile.JobStatus",
          "name": "oldStatus",
          "type": "uint8"
        },
        {
          "indexed": false,
          "internalType": "enum FreelancerProfile.JobStatus",
          "name": "newStatus",
          "type": "uint8"
        }
      ],
      "name": "JobStatusChanged",
      "type": "event"
    },
    {
      "anonymous": false,
      "inputs": [
        {
          "indexed": true,
          "internalType": "address",
          "name": "setter",
          "type": "address"
        },
        {
          "indexed": true,
          "internalType": "bool",
          "name": "status",
          "type": "bool"
        }
      ],
      "name": "KYCStatusChanged",
      "type": "event"
    },
    {
      "anonymous": false,
      "inputs": [
        {
          "indexed": false,
          "internalType": "uint8",
          "name": "oldLevel",
          "type": "uint8"
        },
        {
          "indexed": false,
          "internalType": "uint8",
          "name": "newLevel",
          "type": "uint8"
        }
      ],
      "name": "LevelUpdated",
      "type": "event"
    },
    {
      "anonymous": false,
      "inputs": [
        {
          "indexed": false,
          "internalType": "uint256",
          "name": "oldPoints",
          "type": "uint256"
        },
        {
          "indexed": false,
          "internalType": "uint256",
          "name": "newPoints",
          "type": "uint256"
        }
      ],
      "name": "PointsUpdated",
      "type": "event"
    },
    {
      "anonymous": false,
      "inputs": [
        {
          "indexed": false,
          "internalType": "string",
          "name": "name",
          "type": "string"
        },
        {
          "indexed": false,
          "internalType": "string",
          "name": "bio",
          "type": "string"
        },
        {
          "indexed": false,
          "internalType": "string",
          "name": "profileURI",
          "type": "string"
        }
      ],
      "name": "ProfileUpdated",
      "type": "event"
    },
    {
      "anonymous": false,
      "inputs": [
        {
          "indexed": true,
          "internalType": "uint256",
          "name": "id",
          "type": "uint256"
        },
        {
          "indexed": false,
          "internalType": "string",
          "name": "title",
          "type": "string"
        }
      ],
      "name": "ServiceAdded",
      "type": "event"
    },
    {
      "inputs": [
        {
          "internalType": "address",
          "name": "",
          "type": "address"
        }
      ],
      "name": "activeEscrows",
      "outputs": [
        {
          "internalType": "bool",
          "name": "",
          "type": "bool"
        }
      ],
      "stateMutability": "view",
      "type": "function"
    },
    {
      "inputs": [
        {
          "internalType": "uint256",
          "name": "amount",
          "type": "uint256"
        }
      ],
      "name": "addEarnings",
      "outputs": [],
      "stateMutability": "nonpayable",
      "type": "function"
    },
    {
      "inputs": [
        {
          "internalType": "string",
          "name": "_title",
          "type": "string"
        },
        {
          "internalType": "string",
          "name": "_description",
          "type": "string"
        },
        {
          "internalType": "string",
          "name": "_imageURI",
          "type": "string"
        },
        {
          "internalType": "string",
          "name": "_videoURI",
          "type": "string"
        },
        {
          "internalType": "uint256",
          "name": "_priceUSDC",
          "type": "uint256"
        }
      ],
      "name": "addService",
      "outputs": [],
      "stateMutability": "nonpayable",
      "type": "function"
    },
    {
      "inputs": [],
      "name": "bio",
      "outputs": [
        {
          "internalType": "string",
          "name": "",
          "type": "string"
        }
      ],
      "stateMutability": "view",
      "type": "function"
    },
    {
      "inputs": [],
      "name": "cancelledJobs",
      "outputs": [
        {
          "internalType": "uint256",
          "name": "",
          "type": "uint256"
        }
      ],
      "stateMutability": "view",
      "type": "function"
    },
    {
      "inputs": [],
      "name": "companyVault",
      "outputs": [
        {
          "internalType": "address",
          "name": "",
          "type": "address"
        }
      ],
      "stateMutability": "view",
      "type": "function"
    },
    {
      "inputs": [],
      "name": "completedJobs",
      "outputs": [
        {
          "internalType": "uint256",
          "name": "",
          "type": "uint256"
        }
      ],
      "stateMutability": "view",
      "type": "function"
    },
    {
      "inputs": [],
      "name": "disputedJobs",
      "outputs": [
        {
          "internalType": "uint256",
          "name": "",
          "type": "uint256"
        }
      ],
      "stateMutability": "view",
      "type": "function"
    },
    {
      "inputs": [],
      "name": "factory",
      "outputs": [
        {
          "internalType": "address",
          "name": "",
          "type": "address"
        }
      ],
      "stateMutability": "view",
      "type": "function"
    },
    {
      "inputs": [
        {
          "internalType": "address",
          "name": "escrowAddr",
          "type": "address"
        }
      ],
      "name": "isEscrowActive",
      "outputs": [
        {
          "internalType": "bool",
          "name": "",
          "type": "bool"
        }
      ],
      "stateMutability": "view",
      "type": "function"
    },
    {
      "inputs": [
        {
          "internalType": "bytes32",
          "name": "jobKey",
          "type": "bytes32"
        }
      ],
      "name": "isJobProcessed",
      "outputs": [
        {
          "internalType": "bool",
          "name": "",
          "type": "bool"
        }
      ],
      "stateMutability": "view",
      "type": "function"
    },
    {
      "inputs": [],
      "name": "isKYCVerified",
      "outputs": [
        {
          "internalType": "bool",
          "name": "",
          "type": "bool"
        }
      ],
      "stateMutability": "view",
      "type": "function"
    },
    {
      "inputs": [
        {
          "internalType": "bytes32",
          "name": "jobKey",
          "type": "bytes32"
        }
      ],
      "name": "jobInfo",
      "outputs": [
        {
          "internalType": "address",
          "name": "escrow",
          "type": "address"
        },
        {
          "internalType": "enum FreelancerProfile.JobStatus",
          "name": "status",
          "type": "uint8"
        },
        {
          "internalType": "uint8",
          "name": "rating",
          "type": "uint8"
        },
        {
          "internalType": "bool",
          "name": "finalized",
          "type": "bool"
        },
        {
          "internalType": "uint64",
          "name": "createdAt",
          "type": "uint64"
        },
        {
          "internalType": "uint64",
          "name": "updatedAt",
          "type": "uint64"
        }
      ],
      "stateMutability": "view",
      "type": "function"
    },
    {
      "inputs": [
        {
          "internalType": "bytes32",
          "name": "",
          "type": "bytes32"
        }
      ],
      "name": "jobProcessed",
      "outputs": [
        {
          "internalType": "bool",
          "name": "",
          "type": "bool"
        }
      ],
      "stateMutability": "view",
      "type": "function"
    },
    {
      "inputs": [],
      "name": "joinedAt",
      "outputs": [
        {
          "internalType": "uint256",
          "name": "",
          "type": "uint256"
        }
      ],
      "stateMutability": "view",
      "type": "function"
    },
    {
      "inputs": [],
      "name": "level",
      "outputs": [
        {
          "internalType": "uint8",
          "name": "",
          "type": "uint8"
        }
      ],
      "stateMutability": "view",
      "type": "function"
    },
    {
      "inputs": [
        {
          "internalType": "uint8",
          "name": "ratingStars",
          "type": "uint8"
        },
        {
          "internalType": "bytes32",
          "name": "jobKey",
          "type": "bytes32"
        }
      ],
      "name": "markJobCompleted",
      "outputs": [],
      "stateMutability": "nonpayable",
      "type": "function"
    },
    {
      "inputs": [],
      "name": "name",
      "outputs": [
        {
          "internalType": "string",
          "name": "",
          "type": "string"
        }
      ],
      "stateMutability": "view",
      "type": "function"
    },
    {
      "inputs": [],
      "name": "owner",
      "outputs": [
        {
          "internalType": "address",
          "name": "",
          "type": "address"
        }
      ],
      "stateMutability": "view",
      "type": "function"
    },
    {
      "inputs": [],
      "name": "profileURI",
      "outputs": [
        {
          "internalType": "string",
          "name": "",
          "type": "string"
        }
      ],
      "stateMutability": "view",
      "type": "function"
    },
    {
      "inputs": [
        {
          "internalType": "address",
          "name": "escrowAddr",
          "type": "address"
        }
      ],
      "name": "registerEscrow",
      "outputs": [],
      "stateMutability": "nonpayable",
      "type": "function"
    },
    {
      "inputs": [
        {
          "internalType": "bytes32",
          "name": "jobKey",
          "type": "bytes32"
        }
      ],
      "name": "registerJob",
      "outputs": [],
      "stateMutability": "nonpayable",
      "type": "function"
    },
    {
      "inputs": [],
      "name": "serviceCount",
      "outputs": [
        {
          "internalType": "uint256",
          "name": "",
          "type": "uint256"
        }
      ],
      "stateMutability": "view",
      "type": "function"
    },
    {
      "inputs": [
        {
          "internalType": "uint256",
          "name": "",
          "type": "uint256"
        }
      ],
      "name": "services",
      "outputs": [
        {
          "internalType": "string",
          "name": "title",
          "type": "string"
        },
        {
          "internalType": "string",
          "name": "description",
          "type": "string"
        },
        {
          "internalType": "string",
          "name": "imageURI",
          "type": "string"
        },
        {
          "internalType": "string",
          "name": "videoURI",
          "type": "string"
        },
        {
          "internalType": "uint256",
          "name": "priceUSDC",
          "type": "uint256"
        },
        {
          "internalType": "bool",
          "name": "active",
          "type": "bool"
        }
      ],
      "stateMutability": "view",
      "type": "function"
    },
    {
      "inputs": [
        {
          "internalType": "address",
          "name": "_vault",
          "type": "address"
        }
      ],
      "name": "setCompanyVault",
      "outputs": [],
      "stateMutability": "nonpayable",
      "type": "function"
    },
    {
      "inputs": [
        {
          "internalType": "bool",
          "name": "_status",
          "type": "bool"
        }
      ],
      "name": "setKYCVerified",
      "outputs": [],
      "stateMutability": "nonpayable",
      "type": "function"
    },
    {
      "inputs": [],
      "name": "totalEarnings",
      "outputs": [
        {
          "internalType": "uint256",
          "name": "",
          "type": "uint256"
        }
      ],
      "stateMutability": "view",
      "type": "function"
    },
    {
      "inputs": [],
      "name": "totalPoints",
      "outputs": [
        {
          "internalType": "uint256",
          "name": "",
          "type": "uint256"
        }
      ],
      "stateMutability": "view",
      "type": "function"
    },
    {
      "inputs": [
        {
          "internalType": "address",
          "name": "escrowAddr",
          "type": "address"
        }
      ],
      "name": "unregisterEscrow",
      "outputs": [],
      "stateMutability": "nonpayable",
      "type": "function"
    },
    {
      "inputs": [
        {
          "internalType": "bytes32",
          "name": "jobKey",
          "type": "bytes32"
        },
        {
          "internalType": "enum FreelancerProfile.JobStatus",
          "name": "newStatus",
          "type": "uint8"
        }
      ],
      "name": "updateJobStatus",
      "outputs": [],
      "stateMutability": "nonpayable",
      "type": "function"
    },
    {
      "inputs": [
        {
          "internalType": "string",
          "name": "_name",
          "type": "string"
        },
        {
          "internalType": "string",
          "name": "_bio",
          "type": "string"
        },
        {
          "internalType": "string",
          "name": "_profileURI",
          "type": "string"
        }
      ],
      "name": "updateProfile",
      "outputs": [],
      "stateMutability": "nonpayable",
      "type": "function"
    }
  ],
  "bytecode": "0x60c06040523461059957612574803803806100198161059e565b928339810160a08282031261059957610031826105c3565b9161003e602082016105c3565b60408201516001600160401b038111610599578361005d9184016105fa565b60608301519092906001600160401b038111610599578461007f9183016105fa565b60808201519094906001600160401b0381116105995761009f92016105fa565b936001600160a01b038116158015610588575b6105775760805260a05280516001600160401b0381116103a457600054600181811c9116801561056d575b602082101461038457601f8111610509575b50806020601f82116001146104a55760009161049a575b508160011b916000199060031b1c1916176000555b8151926001600160401b0384116103a457600154600181811c91168015610490575b602082101461038457601f811161042b575b50602093601f81116001146103c55780919293946000916103ba575b508160011b916000199060031b1c1916176001555b8051926001600160401b0384116103a457600254600181811c9116801561039a575b602082101461038457601f811161031f575b50602093601f811160011461029f5791610238610246928461022a969560008051602061255483398151915298600091610294575b508160011b916000199060031b1c1916176002555b6000600455600060055560ff19600654166006554260085560405195869560608752606087019061064a565b90858203602087015261064a565b90838203604085015261064a565b0390a1604051611ee4908161067082396080518181816105190152818161110d0152611461015260a051818181610a0e01528181610ace01528181610dac0152818161124401526113b50152f35b9050840151386101e9565b601f1981166002600052856000209060005b818110610307575092600183610238936000805160206125548339815191529961022a99989661024698106102ee575b5050811b016002556101fe565b86015160001960f88460031b161c1916905538806102e1565b858801518355602097880197600190930192016102b1565b60026000527f405787fa12a823e0f2b7631cc41b3ba8828b3321ca811111fa75cd3aa3bb5ace601f860160051c8101916020871061037a575b601f0160051c01905b81811061036e57506101b4565b60008155600101610361565b9091508190610358565b634e487b7160e01b600052602260045260246000fd5b90607f16906101a2565b634e487b7160e01b600052604160045260246000fd5b90508401513861016b565b601f198116946001600052806000209060005b878110610413575082600194959697106103fa575b5050811b01600155610180565b86015160001960f88460031b161c1916905538806103ed565b9091602060018192858a0151815501930191016103d8565b60016000527fb10e2d527612073b26eecdfd717e6a320cf44b4afac2b0732d9fcbe2b7fa0cf6601f860160051c81019160208710610486575b601f0160051c01905b81811061047a575061014f565b6000815560010161046d565b9091508190610464565b90607f169061013d565b905082015138610106565b60008080528181209250601f198416905b8181106104f1575090836001949392106104d8575b5050811b0160005561011b565b84015160001960f88460031b161c1916905538806104cb565b919260206001819286890151815501940192016104b6565b600080527f290decd9548b62a8d60345a988386fc84ba6bc95484008f6362f93160ef3e563601f830160051c81019160208410610563575b601f0160051c01905b81811061055757506100ef565b6000815560010161054a565b9091508190610541565b90607f16906100dd565b63d92e233d60e01b60005260046000fd5b506001600160a01b038216156100b2565b600080fd5b6040519190601f01601f191682016001600160401b038111838210176103a457604052565b51906001600160a01b038216820361059957565b60005b8381106105ea5750506000910152565b81810151838201526020016105da565b81601f820112156105995780516001600160401b0381116103a457610628601f8201601f191660200161059e565b92818452602082840101116105995761064791602080850191016105d7565b90565b90602091610663815180928185528580860191016105d7565b601f01601f191601019056fe608080604052600436101561001357600080fd5b60003560e01c908163062375261461190f5750806306fdde03146118f15780631105a5eb146113ec5780631ca55df81461139657806320d7f08b146113735780632b757cb8146112ec5780632df3eba4146112ce57806339d3ad771461121c578063567142be146111fe5780635abe34e2146109a3578063633e5d2a146111e05780636fd5ae15146111bf57806379442d77146111a15780637bc4c0611461118357806387dc37c7146111655780638a77ba1a1461113c5780638da5cb5b146110f7578063963310af1461104f5780639c53a12014610e375780639c9bb1e314610d84578063a3abe42514610beb578063aa98efee1461036c578063c031eddf14610bb6578063c22c4f4314610afd578063c45a015514610ab8578063e86bffdf146109e6578063e904f667146109a3578063ef8f259614610482578063f516b4221461039d578063f7a13d891461036c5763fa40d2e81461017457600080fd5b346103675760203660031901126103675760043533600052600b60205260ff60406000205416156103565780156103455780600052600d60205260ff60406000205460a01c16600881101561031e5761033457604051426001600160401b03166101dd82611964565b3382526020820160018152604083019060008252606084019260008452608085019181835260a0860191825286600052600d60205260406000209560018060a01b039051166bffffffffffffffffffffffff60a01b8754161786555191600883101561031e576001600160401b039461027960ff60019661025f89978b611ba2565b51895460ff60a81b1916911660a81b60ff60a81b16178855565b51151586549060ff60b01b9060b01b169060ff60b01b1916178655518554908360b81b9060b81b16908360b81b19161785555116920191166001600160401b03198254161790556040519033817f18737ba33cf8fc3ca591008614a168159cb822fcb206ab8e12c6c200a39b95fb600080a360008252600160208301527f8cc8bd6dd4c5914c8824d0a2e6d02d8cbd54de0113506d38fa9c2cd5611d210460403393a3005b634e487b7160e01b600052602160045260246000fd5b631e8fa57160e31b60005260046000fd5b63406729f960e11b60005260046000fd5b6318eb746b60e11b60005260046000fd5b600080fd5b3461036757602036600319011261036757600435600052600e602052602060ff604060002054166040519015158152f35b346103675760003660031901126103675760405160006001546103bf8161192a565b808452906001811690811561045e57506001146103ff575b6103fb836103e78185038261197f565b604051918291602083526020830190611a44565b0390f35b600160009081527fb10e2d527612073b26eecdfd717e6a320cf44b4afac2b0732d9fcbe2b7fa0cf6939250905b808210610444575090915081016020016103e76103d7565b91926001816020925483858801015201910190929161042c565b60ff191660208086019190915291151560051b840190910191506103e790506103d7565b346103675760a0366003190112610367576004356001600160401b038111610367576104b2903690600401611a85565b906024356001600160401b038111610367576104d2903690600401611a85565b92906044356001600160401b038111610367576104f3903690600401611a85565b6064959195356001600160401b03811161036757610515903690600401611a85565b96907f00000000000000000000000000000000000000000000000000000000000000006001600160a01b031633036109925760ff600354161561098157601054946064861015610970576105a99261058b61059a926040519761057789611964565b610582368c8e611c27565b89523691611c27565b94602087019586523691611c27565b97604085019889523691611c27565b95606083019687526080830191608435835260a084019460018652600052600f602052604060002093518051906001600160401b03821161081a576105f8826105f2885461192a565b88611abf565b602090601f8311600114610909576106299291600091836107a3575b50508160011b916000199060031b1c19161790565b84555b51805160018501916001600160401b03821161081a5761065682610650855461192a565b85611abf565b602090601f83116001146108a2576106869291600091836107a35750508160011b916000199060031b1c19161790565b90555b51805160028401916001600160401b03821161081a576106ad82610650855461192a565b602090601f831160011461083b576106dd9291600091836108305750508160011b916000199060031b1c19161790565b90555b6003820195519586516001600160401b03811161081a5761070b81610705845461192a565b84611abf565b6020601f82116001146107ae57816005959493926107429260019b6000926107a35750508160011b916000199060031b1c19161790565b90555b516004820155019051151560ff801983541691161790557fe1f8251252d428948683869e48119b3d7a3f4df9e46c775f5c6591cbd065f4d560105492839261079a604051928392602084526020840191611b11565b0390a201601055005b015190508b80610614565b601f1982169083600052806000209160005b818110610802575091839160019b6005989796958d95106107e9575b505050811b019055610745565b015160001960f88460031b161c191690558a80806107dc565b9192602060018192868f0151815501940192016107c0565b634e487b7160e01b600052604160045260246000fd5b015190508a80610614565b90601f1983169184600052816000209260005b81811061088a5750908460019594939210610871575b505050811b0190556106e0565b015160001960f88460031b161c19169055898080610864565b9293602060018192878601518155019501930161084e565b90601f1983169184600052816000209260005b8181106108f157509084600195949392106108d8575b505050811b019055610689565b015160001960f88460031b161c191690558a80806108cb565b929360206001819287860151815501950193016108b5565b90601f1983169187600052816000209260005b818110610958575090846001959493921061093f575b505050811b01845561062c565b015160001960f88460031b161c191690558a8080610932565b9293602060018192878601518155019501930161091c565b6336cd606760e21b60005260046000fd5b63a95362b560e01b60005260046000fd5b6330cd747160e01b60005260046000fd5b34610367576020366003190112610367576004356001600160a01b0381169081900361036757600052600b602052602060ff604060002054166040519015158152f35b34610367576020366003190112610367576004356001600160a01b03811690819003610367577f00000000000000000000000000000000000000000000000000000000000000006001600160a01b03163303610aa7578015610a965780600052600b60205260ff60406000205416156103565780600052600b602052604060002060ff1981541690557f9cfe83a14fc052fe86cb71c1329bd455873a823933cf98c5dcff5721beca5152600080a2005b63d92e233d60e01b60005260046000fd5b631966391b60e11b60005260046000fd5b34610367576000366003190112610367576040517f00000000000000000000000000000000000000000000000000000000000000006001600160a01b03168152602090f35b3461036757602036600319011261036757600435600052600f602052610b7b6040600020610b2a816119a0565b90610b37600182016119a0565b610ba5610b46600284016119a0565b610b97610b55600386016119a0565b91610b8960ff600560048901549801541695604051998a9960c08b5260c08b0190611a44565b9089820360208b0152611a44565b908782036040890152611a44565b908582036060870152611a44565b916080840152151560a08301520390f35b346103675760203660031901126103675733600052600b60205260ff604060002054161561035657610be9600435611be2565b005b346103675760403660031901126103675760243560043560088210156103675733600052600b60205260ff604060002054161561035657610c2b81611c6d565b8054336001600160a01b03821603610d735760ff8160b01c16610d625760a01c60ff1692610c598185611d3d565b15610d515760006005821480610d29575b15610ceb57506001610cc392610c81600954611bd3565b6009555b610c8f8382611ba2565b01805467ffffffffffffffff1916426001600160401b031617905560405193610cb9908590611ab2565b6020840190611ab2565b7f8cc8bd6dd4c5914c8824d0a2e6d02d8cbd54de0113506d38fa9c2cd5611d210460403393a3005b506006811480610d15575b610cc39260019115610c8557610d0d600a54611bd3565b600a55610c85565b50600884101561031e576006841415610cf6565b506008851015610d3d576005851415610c6a565b634e487b7160e01b81526021600452602490fd5b63088bd32360e11b60005260046000fd5b63311d737b60e21b60005260046000fd5b631818917b60e01b60005260046000fd5b34610367576020366003190112610367576004356001600160a01b03811690819003610367577f00000000000000000000000000000000000000000000000000000000000000006001600160a01b03163303610aa7578015610a9657600c546001600160a01b038116610e27576001600160a01b0319168117600c557f86a3809fa04bafd0f6847c1ffd8b4e66f7c551f4923c11b214905e36d7fd0461600080a2005b628ce1d160e01b60005260046000fd5b346103675760403660031901126103675760043560ff811690818103610367576024359033600052600b60205260ff60406000205416156103565791610e7c82611c6d565b8054909190336001600160a01b03821603610d735760ff8160b01c16610d625760a01c60ff16600881101561031e5760040361103f57600111611036575b600560ff84161161102d575b805460a884901b60ff60a81b1662ffffff60a01b19909116176201000760a01b1781556001908101805467ffffffffffffffff1916426001600160401b03161790556000828152600e60205260409020805460ff1916909117905560045460ff90921691610f348382611bc6565b908160045560055490600182018092116110175760407f2a4f386dacbb02a5d478d3fc1d2dbc487b69ed735b8d629e99d905680db927eb91836005558151908152846020820152a16006549160ff831660ff610f908385611c93565b16809460ff191617600655808403610fe1575b506040519485526020850152604084015260608301527f3d5d384ab80e19e25a6f89bd353f3309482fad32e210aff2b1c6ae7ee2096b6460803393a3005b60407fe3baeb7cde6b34690f45a4b6b0c8d17538edc7064370627da2e7d25c2437147d918151908152856020820152a185610fa3565b634e487b7160e01b600052601160045260246000fd5b60059250610ec6565b60019250610eba565b6215588160e91b60005260046000fd5b346103675760003660031901126103675760405160006002546110718161192a565b808452906001811690811561045e5750600114611098576103fb836103e78185038261197f565b600260009081527f405787fa12a823e0f2b7631cc41b3ba8828b3321ca811111fa75cd3aa3bb5ace939250905b8082106110dd575090915081016020016103e76103d7565b9192600181602092548385880101520191019092916110c5565b34610367576000366003190112610367576040517f00000000000000000000000000000000000000000000000000000000000000006001600160a01b03168152602090f35b3461036757600036600319011261036757600c546040516001600160a01b039091168152602090f35b34610367576000366003190112610367576020600854604051908152f35b34610367576000366003190112610367576020600554604051908152f35b34610367576000366003190112610367576020600954604051908152f35b3461036757600036600319011261036757602060ff60065416604051908152f35b34610367576000366003190112610367576020600a54604051908152f35b34610367576000366003190112610367576020600454604051908152f35b34610367576020366003190112610367576004356001600160a01b03811690819003610367577f00000000000000000000000000000000000000000000000000000000000000006001600160a01b03163303610aa7578015610a965780600052600b60205260ff60406000205416610e275780600052600b6020526040600020600160ff198254161790557fdf2cab5618b04639fbd29a022852edb95271f3d11b3702eea922c21ff7d5c067600080a2005b34610367576000366003190112610367576020600754604051908152f35b3461036757602036600319011261036757600435600052600d60205260c060406000206001600160401b0360018254920154166001600160401b036040519260018060a01b03811684526113496020850160ff8360a01c16611ab2565b60ff8160a81c16604085015260ff8160b01c161515606085015260b81c16608083015260a0820152f35b3461036757600036600319011261036757602060ff600354166040519015158152f35b34610367576020366003190112610367576004358015158103610367577f00000000000000000000000000000000000000000000000000000000000000006001600160a01b03163303610aa757610be990611b32565b34610367576060366003190112610367576004356001600160401b0381116103675761141c903690600401611a85565b906024356001600160401b0381116103675761143c903690600401611a85565b92906044356001600160401b0381116103675761145d903690600401611a85565b90917f00000000000000000000000000000000000000000000000000000000000000006001600160a01b03163303610992576001600160401b03841161081a576114a860005461192a565b601f811161188d575b50600084601f811160011461180c57806114e192600091611801575b508160011b916000199060031b1c19161790565b6000555b6001600160401b03861161081a576114fe60015461192a565b601f811161179c575b50600086601f811160011461171a57806115369260009161170f57508160011b916000199060031b1c19161790565b6001555b6001600160401b03821161081a5761155360025461192a565b601f81116116aa575b50600095601f83116001146115fe5782916115e0916115b7846115ee97967f7dc9ed3d635c09f8d480400bd28952dcf48619b0f27d3d69668fa24b1f7af8a49b6000916115f357508160011b916000199060031b1c19161790565b6002555b6115d260405198899860608a5260608a0191611b11565b918783036020890152611b11565b918483036040860152611b11565b0390a1005b90508701358c6114cd565b600287527f405787fa12a823e0f2b7631cc41b3ba8828b3321ca811111fa75cd3aa3bb5ace96601f198416815b8181106116925750917f7dc9ed3d635c09f8d480400bd28952dcf48619b0f27d3d69668fa24b1f7af8a4988594926115ee97966115e09510611678575b5050600184811b016002556115bb565b860135600019600387901b60f8161c191690558980611668565b868301358a556001909901986020928301920161162b565b60026000527f405787fa12a823e0f2b7631cc41b3ba8828b3321ca811111fa75cd3aa3bb5ace601f840160051c81019160208510611705575b601f0160051c01905b8181106116f9575061155c565b600081556001016116ec565b90915081906116e3565b9050830135896114cd565b50600181527fb10e2d527612073b26eecdfd717e6a320cf44b4afac2b0732d9fcbe2b7fa0cf69087601f198116825b818110611781575010611767575b5050600186811b0160015561153a565b820135600019600389901b60f8161c191690558680611757565b8584013585556001909401936020938401938b935001611749565b60016000527fb10e2d527612073b26eecdfd717e6a320cf44b4afac2b0732d9fcbe2b7fa0cf6601f880160051c810191602089106117f7575b601f0160051c01905b8181106117eb5750611507565b600081556001016117de565b90915081906117d5565b9050870135896114cd565b508080527f290decd9548b62a8d60345a988386fc84ba6bc95484008f6362f93160ef3e5639085601f198116825b818110611872575010611858575b5050600184811b016000556114e5565b860135600019600387901b60f8161c191690558680611848565b8984013585556001909401936020938401938993500161183a565b600080527f290decd9548b62a8d60345a988386fc84ba6bc95484008f6362f93160ef3e563601f860160051c810191602087106118e7575b601f0160051c01905b8181106118db57506114b1565b600081556001016118ce565b90915081906118c5565b34610367576000366003190112610367576103fb6103e760006119a0565b34610367576000366003190112610367576020906010548152f35b90600182811c9216801561195a575b602083101461194457565b634e487b7160e01b600052602260045260246000fd5b91607f1691611939565b60c081019081106001600160401b0382111761081a57604052565b90601f801991011681019081106001600160401b0382111761081a57604052565b90604051918260008254926119b48461192a565b8084529360018116908115611a2257506001146119db575b506119d99250038361197f565b565b90506000929192526020600020906000915b818310611a065750509060206119d992820101386119cc565b60209193508060019154838589010152019101909184926119ed565b9050602092506119d994915060ff191682840152151560051b820101386119cc565b919082519283825260005b848110611a70575050826000602080949584010152601f8019910116010190565b80602080928401015182828601015201611a4f565b9181601f84011215610367578235916001600160401b038311610367576020838186019501011161036757565b90600882101561031e5752565b601f8211611acc57505050565b6000526020600020906020601f840160051c83019310611b07575b601f0160051c01905b818110611afb575050565b60008155600101611af0565b9091508190611ae7565b908060209392818452848401376000828201840152601f01601f1916010190565b600354901515908160ff8216151514611b795760ff191660ff821617600355337f3a620c3544f4661f38b303e51ff3c4cc552da5a80ec55d4e3875af78775e1a82600080a3565b50337f3a620c3544f4661f38b303e51ff3c4cc552da5a80ec55d4e3875af78775e1a82600080a3565b90600881101561031e57815460ff60a01b191660a09190911b60ff60a01b16179055565b9190820180921161101757565b60001981146110175760010190565b8015611c24576020611c177fa222a953ec1a643c6ae01f4db11065d319439bbf943b2668635988c0b0bd408392600754611bc6565b80600755604051908152a1565b50565b9291926001600160401b03821161081a5760405191611c50601f8201601f19166020018461197f565b829481845281830111610367578281602093846000960137010152565b600052600d60205260406000209060ff825460a01c16600881101561031e571561034557565b601981101580611d32575b611d2b57601481101580611d20575b611d1957600f81101580611d0e575b611d0757600a81101580611cfc575b611cf557600511159081611ce9575b50611ce457600090565b600190565b60149150101538611cda565b5050600290565b50602d821015611ccb565b5050600390565b506046821015611cbc565b5050600490565b50605f821015611cad565b5050600590565b506078821015611c9e565b600881101561031e576001811480611e91575b611df15760006002821480611e51575b611dc257506003811480611df8575b611df1576000906004811480611dca575b611dc25760059150149081611d995750611ce457600090565b9050600881101561031e5760048114908115611db7575b5038611cda565b600691501438611db0565b505050600190565b506008831015611ddd5760078314611d80565b634e487b7160e01b82526021600452602482fd5b5050600190565b5060088210158061031e5760048314908115611e44575b8115611e33575b8115611e23575b50611d6f565b905061031e576003821438611e1d565b80915061031e576006831490611e16565b5050600582146000611e0f565b50600883101580611ddd5760038414908115611e85575b8115611e75575b50611d60565b9050610d3d576005831438611e6f565b50506006831481611e68565b50600882101561031e576002821480611d50575060068214611d5056fea26469706673582212206fd9ad4ac56cd55eaac60afa271727877622181192791b012121ebc6f67e83bc64736f6c634300081c00337dc9ed3d635c09f8d480400bd28952dcf48619b0f27d3d69668fa24b1f7af8a4",
  "linkReferences": {},
  "deployedLinkReferences": {}
}