{
  "_format": "hh-sol-artifact-1",
  "contractName": "CompanyShareToken",
  "sourceName": "contracts/CompanyShares/CompanyShareToken.sol",
  "abi": [
    {
      "inputs": [
        {
          "internalType": "string",
          "name": "name_",
          "type": "string"
        },
        {
          "internalType": "string",
          "name": "symbol_",
          "type": "string"
        },
        {
          "internalType": "address",
          "name": "distributor_",
          "type": "address"
        },
        {
          "internalType": "address",
          "name": "initialOwner",
          "type": "address"
        }
      ],
      "stateMutability": "nonpayable",
      "type": "constructor"
    },
    {
      "inputs": [
        {
          "internalType": "address",
          "name": "spender",
          "type": "address"
        },
        {
          "internalType": "uint256",
          "name": "allowance",
          "type": "uint256"
        },
        {
          "internalType": "uint256",
          "name": "needed",
          "type": "uint256"
        }
      ],
      "name": "ERC20InsufficientAllowance",
      "type": "error"
    },
    {
      "inputs": [
        {
          "internalType": "address",
          "name": "sender",
          "type": "address"
        },
        {
          "internalType": "uint256",
          "name": "balance",
          "type": "uint256"
        },
        {
          "internalType": "uint256",
          "name": "needed",
          "type": "uint256"
        }
      ],
      "name": "ERC20InsufficientBalance",
      "type": "error"
    },
    {
      "inputs": [
        {
          "internalType": "address",
          "name": "approver",
          "type": "address"
        }
      ],
      "name": "ERC20InvalidApprover",
      "type": "error"
    },
    {
      "inputs": [
        {
          "internalType": "address",
          "name": "receiver",
          "type": "address"
        }
      ],
      "name": "ERC20InvalidReceiver",
      "type": "error"
    },
    {
      "inputs": [
        {
          "internalType": "address",
          "name": "sender",
          "type": "address"
        }
      ],
      "name": "ERC20InvalidSender",
      "type": "error"
    },
    {
      "inputs": [
        {
          "internalType": "address",
          "name": "spender",
          "type": "address"
        }
      ],
      "name": "ERC20InvalidSpender",
      "type": "error"
    },
    {
      "inputs": [],
      "name": "InvalidMintAddress",
      "type": "error"
    },
    {
      "inputs": [],
      "name": "InvalidMintAmount",
      "type": "error"
    },
    {
      "inputs": [],
      "name": "InvalidSaleAddress",
      "type": "error"
    },
    {
      "inputs": [],
      "name": "OnlySale",
      "type": "error"
    },
    {
      "inputs": [
        {
          "internalType": "address",
          "name": "owner",
          "type": "address"
        }
      ],
      "name": "OwnableInvalidOwner",
      "type": "error"
    },
    {
      "inputs": [
        {
          "internalType": "address",
          "name": "account",
          "type": "address"
        }
      ],
      "name": "OwnableUnauthorizedAccount",
      "type": "error"
    },
    {
      "inputs": [],
      "name": "SaleContractAlreadySet",
      "type": "error"
    },
    {
      "anonymous": false,
      "inputs": [
        {
          "indexed": true,
          "internalType": "address",
          "name": "owner",
          "type": "address"
        },
        {
          "indexed": true,
          "internalType": "address",
          "name": "spender",
          "type": "address"
        },
        {
          "indexed": false,
          "internalType": "uint256",
          "name": "value",
          "type": "uint256"
        }
      ],
      "name": "Approval",
      "type": "event"
    },
    {
      "anonymous": false,
      "inputs": [
        {
          "indexed": true,
          "internalType": "address",
          "name": "previousOwner",
          "type": "address"
        },
        {
          "indexed": true,
          "internalType": "address",
          "name": "newOwner",
          "type": "address"
        }
      ],
      "name": "OwnershipTransferStarted",
      "type": "event"
    },
    {
      "anonymous": false,
      "inputs": [
        {
          "indexed": true,
          "internalType": "address",
          "name": "previousOwner",
          "type": "address"
        },
        {
          "indexed": true,
          "internalType": "address",
          "name": "newOwner",
          "type": "address"
        }
      ],
      "name": "OwnershipTransferred",
      "type": "event"
    },
    {
      "anonymous": false,
      "inputs": [
        {
          "indexed": true,
          "internalType": "address",
          "name": "sale",
          "type": "address"
        }
      ],
      "name": "SaleContractSet",
      "type": "event"
    },
    {
      "anonymous": false,
      "inputs": [
        {
          "indexed": true,
          "internalType": "address",
          "name": "from",
          "type": "address"
        },
        {
          "indexed": true,
          "internalType": "address",
          "name": "to",
          "type": "address"
        },
        {
          "indexed": false,
          "internalType": "uint256",
          "name": "value",
          "type": "uint256"
        }
      ],
      "name": "Transfer",
      "type": "event"
    },
    {
      "inputs": [],
      "name": "acceptOwnership",
      "outputs": [],
      "stateMutability": "nonpayable",
      "type": "function"
    },
    {
      "inputs": [
        {
          "internalType": "address",
          "name": "owner",
          "type": "address"
        },
        {
          "internalType": "address",
          "name": "spender",
          "type": "address"
        }
      ],
      "name": "allowance",
      "outputs": [
        {
          "internalType": "uint256",
          "name": "",
          "type": "uint256"
        }
      ],
      "stateMutability": "view",
      "type": "function"
    },
    {
      "inputs": [
        {
          "internalType": "address",
          "name": "spender",
          "type": "address"
        },
        {
          "internalType": "uint256",
          "name": "value",
          "type": "uint256"
        }
      ],
      "name": "approve",
      "outputs": [
        {
          "internalType": "bool",
          "name": "",
          "type": "bool"
        }
      ],
      "stateMutability": "nonpayable",
      "type": "function"
    },
    {
      "inputs": [
        {
          "internalType": "address",
          "name": "account",
          "type": "address"
        }
      ],
      "name": "balanceOf",
      "outputs": [
        {
          "internalType": "uint256",
          "name": "",
          "type": "uint256"
        }
      ],
      "stateMutability": "view",
      "type": "function"
    },
    {
      "inputs": [],
      "name": "decimals",
      "outputs": [
        {
          "internalType": "uint8",
          "name": "",
          "type": "uint8"
        }
      ],
      "stateMutability": "view",
      "type": "function"
    },
    {
      "inputs": [],
      "name": "distributor",
      "outputs": [
        {
          "internalType": "contract IDividendDistributorHook",
          "name": "",
          "type": "address"
        }
      ],
      "stateMutability": "view",
      "type": "function"
    },
    {
      "inputs": [
        {
          "internalType": "address",
          "name": "to",
          "type": "address"
        },
        {
          "internalType": "uint256",
          "name": "amount",
          "type": "uint256"
        }
      ],
      "name": "mint",
      "outputs": [],
      "stateMutability": "nonpayable",
      "type": "function"
    },
    {
      "inputs": [],
      "name": "name",
      "outputs": [
        {
          "internalType": "string",
          "name": "",
          "type": "string"
        }
      ],
      "stateMutability": "view",
      "type": "function"
    },
    {
      "inputs": [],
      "name": "owner",
      "outputs": [
        {
          "internalType": "address",
          "name": "",
          "type": "address"
        }
      ],
      "stateMutability": "view",
      "type": "function"
    },
    {
      "inputs": [],
      "name": "pendingOwner",
      "outputs": [
        {
          "internalType": "address",
          "name": "",
          "type": "address"
        }
      ],
      "stateMutability": "view",
      "type": "function"
    },
    {
      "inputs": [],
      "name": "renounceOwnership",
      "outputs": [],
      "stateMutability": "nonpayable",
      "type": "function"
    },
    {
      "inputs": [],
      "name": "saleContract",
      "outputs": [
        {
          "internalType": "address",
          "name": "",
          "type": "address"
        }
      ],
      "stateMutability": "view",
      "type": "function"
    },
    {
      "inputs": [
        {
          "internalType": "address",
          "name": "_sale",
          "type": "address"
        }
      ],
      "name": "setSaleContract",
      "outputs": [],
      "stateMutability": "nonpayable",
      "type": "function"
    },
    {
      "inputs": [],
      "name": "symbol",
      "outputs": [
        {
          "internalType": "string",
          "name": "",
          "type": "string"
        }
      ],
      "stateMutability": "view",
      "type": "function"
    },
    {
      "inputs": [],
      "name": "totalSupply",
      "outputs": [
        {
          "internalType": "uint256",
          "name": "",
          "type": "uint256"
        }
      ],
      "stateMutability": "view",
      "type": "function"
    },
    {
      "inputs": [
        {
          "internalType": "address",
          "name": "to",
          "type": "address"
        },
        {
          "internalType": "uint256",
          "name": "value",
          "type": "uint256"
        }
      ],
      "name": "transfer",
      "outputs": [
        {
          "internalType": "bool",
          "name": "",
          "type": "bool"
        }
      ],
      "stateMutability": "nonpayable",
      "type": "function"
    },
    {
      "inputs": [
        {
          "internalType": "address",
          "name": "from",
          "type": "address"
        },
        {
          "internalType": "address",
          "name": "to",
          "type": "address"
        },
        {
          "internalType": "uint256",
          "name": "value",
          "type": "uint256"
        }
      ],
      "name": "transferFrom",
      "outputs": [
        {
          "internalType": "bool",
          "name": "",
          "type": "bool"
        }
      ],
      "stateMutability": "nonpayable",
      "type": "function"
    },
    {
      "inputs": [
        {
          "internalType": "address",
          "name": "newOwner",
          "type": "address"
        }
      ],
      "name": "transferOwnership",
      "outputs": [],
      "stateMutability": "nonpayable",
      "type": "function"
    }
  ],
  "bytecode": "0x60a0604052346103f25761104880380380610019816103f7565b9283398101906080818303126103f25780516001600160401b0381116103f2578261004591830161041c565b602082015190926001600160401b0382116103f25761006591830161041c565b9061007e606061007760408401610487565b9201610487565b83516001600160401b0381116102fb57600354600181811c911680156103e8575b60208210146102db57601f8111610383575b50602094601f821160011461031c57948192939495600092610311575b50508160011b916000199060031b1c1916176003555b82516001600160401b0381116102fb57600454600181811c911680156102f1575b60208210146102db57601f8111610276575b506020601f821160011461020f5781929394600092610204575b50508160011b916000199060031b1c1916176004555b6001600160a01b03169081156101ee57600680546001600160a01b0319908116909155600580549182168417905560405192906001600160a01b03167f8be0079c531659141344cd1fd0a4f28419497f9722a3daafe3b4186f6b6457e0600080a36001600160a01b031680156101dd57608052610bac908161049c8239608051818181610210015281816105280152610a700152f35b630eb2f5d360e01b60005260046000fd5b631e4fbdf760e01b600052600060045260246000fd5b015190503880610131565b601f198216906004600052806000209160005b81811061025e57509583600195969710610245575b505050811b01600455610147565b015160001960f88460031b161c19169055388080610237565b9192602060018192868b015181550194019201610222565b60046000527f8a35acfbc15ff81a39ae7d344fd709f28e8600b4aa8c65c6b64bfe7fe36bd19b601f830160051c810191602084106102d1575b601f0160051c01905b8181106102c55750610117565b600081556001016102b8565b90915081906102af565b634e487b7160e01b600052602260045260246000fd5b90607f1690610105565b634e487b7160e01b600052604160045260246000fd5b0151905038806100ce565b601f198216956003600052806000209160005b88811061036b57508360019596979810610352575b505050811b016003556100e4565b015160001960f88460031b161c19169055388080610344565b9192602060018192868501518155019401920161032f565b60036000527fc2575a0e9e593c00f959f8c92f12db2869c3395a3b0502d05e2516446f71f85b601f830160051c810191602084106103de575b601f0160051c01905b8181106103d257506100b1565b600081556001016103c5565b90915081906103bc565b90607f169061009f565b600080fd5b6040519190601f01601f191682016001600160401b038111838210176102fb57604052565b81601f820112156103f2578051906001600160401b0382116102fb5761044b601f8301601f19166020016103f7565b92828452602083830101116103f25760005b82811061047257505060206000918301015290565b8060208092840101518282870101520161045d565b51906001600160a01b03821682036103f25756fe6080604052600436101561001257600080fd5b6000803560e01c80630593d2441461088657806306fdde03146107c9578063095ea7b31461071f57806318160ddd1461070157806323b872dd14610620578063313ce5671461060457806340c10f19146104a657806370a082311461046e578063715018a61461041957806379ba5097146103a35780638da5cb5b1461037a57806395d89b4114610271578063a9059cbb1461023f578063bfe10928146101fa578063daf6ca30146101d1578063dd62ed3e1461017c578063e30c3978146101535763f2fde38b146100e357600080fd5b34610150576020366003190112610150576100fc61091f565b6101046109d2565b600680546001600160a01b0319166001600160a01b039283169081179091556005549091167f38d16b8cac22d99fc7c124b9cd0de2d3fa1faef420bfe791d8c362d765e227008380a380f35b80fd5b50346101505780600319360112610150576006546040516001600160a01b039091168152602090f35b503461015057604036600319011261015057604061019861091f565b916101a161093a565b9260018060a01b031681526001602052209060018060a01b03166000526020526020604060002054604051908152f35b50346101505780600319360112610150576007546040516001600160a01b039091168152602090f35b50346101505780600319360112610150576040517f00000000000000000000000000000000000000000000000000000000000000006001600160a01b03168152602090f35b50346101505760403660031901126101505761026661025c61091f565b60243590336109fb565b602060405160018152f35b50346101505780600319360112610150576040519080600454908160011c91600181168015610370575b60208410811461035c5783865290811561033557506001146102d8575b6102d4846102c881860382610999565b60405191829182610950565b0390f35b600481527f8a35acfbc15ff81a39ae7d344fd709f28e8600b4aa8c65c6b64bfe7fe36bd19b939250905b80821061031b575090915081016020016102c8826102b8565b919260018160209254838588010152019101909291610302565b60ff191660208087019190915292151560051b850190920192506102c891508390506102b8565b634e487b7160e01b83526022600452602483fd5b92607f169261029b565b50346101505780600319360112610150576005546040516001600160a01b039091168152602090f35b5034610150578060031936011261015057600654336001600160a01b039091160361040657600680546001600160a01b0319908116909155600580543392811683179091556001600160a01b0316600080516020610b378339815191528380a380f35b63118cdaa760e01b815233600452602490fd5b50346101505780600319360112610150576104326109d2565b600680546001600160a01b031990811690915560058054918216905581906001600160a01b0316600080516020610b378339815191528280a380f35b5034610150576020366003190112610150576020906040906001600160a01b0361049661091f565b1681528083522054604051908152f35b5034610150576040366003190112610150576104c061091f565b60075460243591906001600160a01b031633036105f5576001600160a01b031680156105e65781156105d7576002548281018091116105c3576002558290806105ad5782600254036002555b8082600080516020610b578339815191526020604051878152a37f00000000000000000000000000000000000000000000000000000000000000006001600160a01b031692833b156105a9576064839283604051968794859363230cbe4d60e11b8552836004860152602485015260448401525af1801561059c5761058e5780f35b61059791610999565b388180f35b50604051903d90823e3d90fd5b8280fd5b808252816020526040822083815401905561050c565b634e487b7160e01b84526011600452602484fd5b63199f5a0360e31b8352600483fd5b6357da576f60e11b8352600483fd5b6368bacf2160e11b8352600483fd5b5034610150578060031936011261015057602060405160128152f35b50346101505760603660031901126101505761063a61091f565b61064261093a565b6001600160a01b0382168084526001602090815260408086203387529091528420546044359391600019821061067f575b505061026693506109fb565b8482106106e65780156106d25733156106be5760408686926102669852600160205281812060018060a01b033316825260205220910390553880610673565b634a1406b160e11b86526004869052602486fd5b63e602df0560e01b86526004869052602486fd5b6064868684637dc7a0d960e11b835233600452602452604452fd5b50346101505780600319360112610150576020600254604051908152f35b50346101505760403660031901126101505761073961091f565b6024359033156107b5576001600160a01b03169182156107a15760408291338152600160205281812085825260205220556040519081527f8c5be1e5ebec7d5bd14f71427d1e84f3dd0314c0f7b2291e5b200ac8c7c3b92560203392a3602060405160018152f35b634a1406b160e11b81526004819052602490fd5b63e602df0560e01b83526004839052602483fd5b50346101505780600319360112610150576040519080600354908160011c9160018116801561087c575b60208410811461035c57838652908115610335575060011461081f576102d4846102c881860382610999565b600381527fc2575a0e9e593c00f959f8c92f12db2869c3395a3b0502d05e2516446f71f85b939250905b808210610862575090915081016020016102c8826102b8565b919260018160209254838588010152019101909291610849565b92607f16926107f3565b5034610150576020366003190112610150576108a061091f565b6108a86109d2565b6001600160a01b031680156109105760075460ff8160a01c16610901576001600160a81b0319168117600160a01b176007557fd6ec0310b00ef1b646c722317ecf365b0c514717923e1d4d8907c7b0398c60218280a280f35b63fac93ec360e01b8352600483fd5b630eb2f5d360e01b8252600482fd5b600435906001600160a01b038216820361093557565b600080fd5b602435906001600160a01b038216820361093557565b91909160208152825180602083015260005b818110610983575060409293506000838284010152601f8019910116010190565b8060208092870101516040828601015201610962565b601f909101601f19168101906001600160401b038211908210176109bc57604052565b634e487b7160e01b600052604160045260246000fd5b6005546001600160a01b031633036109e657565b63118cdaa760e01b6000523360045260246000fd5b600092916001600160a01b03909116908115610b22576001600160a01b0316908115610b0e57808452836020526040842054838110610af35783908286528560205203604085205581845283602052604084208381540190558181600080516020610b578339815191526020604051878152a37f00000000000000000000000000000000000000000000000000000000000000006001600160a01b0316803b15610aef5784929183606492604051968795869463230cbe4d60e11b86526004860152602485015260448401525af18015610ae457610ad7575050565b81610ae191610999565b50565b6040513d84823e3d90fd5b8480fd5b91506064945063391434e360e21b8452600452602452604452fd5b63ec442f0560e01b84526004849052602484fd5b634b637e8f60e11b84526004849052602484fdfe8be0079c531659141344cd1fd0a4f28419497f9722a3daafe3b4186f6b6457e0ddf252ad1be2c89b69c2b068fc378daa952ba7f163c4a11628f55a4df523b3efa2646970667358221220f46f565305c2d64ce0c17a23aa9f9975e1bf1fba58aa6c6a752262c88a88631f64736f6c634300081c0033",
  "linkReferences": {},
  "deployedLinkReferences": {}
}