{
  "_format": "hh-sol-artifact-1",
  "contractName": "ClientFactory",
  "sourceName": "contracts/Freelancing/ClientFactory.sol",
  "abi": [
    {
      "anonymous": false,
      "inputs": [
        {
          "indexed": true,
          "internalType": "address",
          "name": "client",
          "type": "address"
        },
        {
          "indexed": false,
          "internalType": "address",
          "name": "profile",
          "type": "address"
        }
      ],
      "name": "ClientProfileCreated",
      "type": "event"
    },
    {
      "inputs": [
        {
          "internalType": "address",
          "name": "",
          "type": "address"
        }
      ],
      "name": "clientProfiles",
      "outputs": [
        {
          "internalType": "address",
          "name": "",
          "type": "address"
        }
      ],
      "stateMutability": "view",
      "type": "function"
    },
    {
      "inputs": [
        {
          "internalType": "string",
          "name": "_name",
          "type": "string"
        },
        {
          "internalType": "string",
          "name": "_bio",
          "type": "string"
        },
        {
          "internalType": "string",
          "name": "_company",
          "type": "string"
        },
        {
          "internalType": "string",
          "name": "_profileImage",
          "type": "string"
        }
      ],
      "name": "createClientProfile",
      "outputs": [],
      "stateMutability": "nonpayable",
      "type": "function"
    },
    {
      "inputs": [
        {
          "internalType": "address",
          "name": "client",
          "type": "address"
        }
      ],
      "name": "getProfile",
      "outputs": [
        {
          "internalType": "address",
          "name": "",
          "type": "address"
        }
      ],
      "stateMutability": "view",
      "type": "function"
    }
  ],
  "bytecode": "0x60808060405234601557611719908161001b8239f35b600080fdfe608080604052600436101561001357600080fd5b60003560e01c9081630f53a4701461026457508063a96a13641461008b5763d39069201461004057600080fd5b34610086576020366003190112610086576004356001600160a01b03811690819003610086576000526000602052602060018060a01b0360406000205416604051908152f35b600080fd5b34610086576080366003190112610086576004356001600160401b038111610086576100bb9036906004016102a8565b6024356001600160401b038111610086576100da9036906004016102a8565b906044356001600160401b038111610086576100fa9036906004016102a8565b916064356001600160401b0381116100865761011a9036906004016102a8565b9233600052600060205260018060a01b03604060002054166102265760405193611393808601926001600160401b038411878510176102105761018a6101a69561017c8998610198956103518b3933885260a0602089015260a088019061030f565b90868203604088015261030f565b90848203606086015261030f565b91608081840391015261030f565b03906000f080156102045760018060a01b031633600052600060205260406000208160018060a01b03198254161790556040519081527f53a740eb6df8e086d0eca0463d4289ad6820a5f0514f240e0b8ea44f177c401e60203392a2005b6040513d6000823e3d90fd5b634e487b7160e01b600052604160045260246000fd5b60405162461bcd60e51b815260206004820152601660248201527550726f66696c6520616c72656164792065786973747360501b6044820152606490fd5b34610086576020366003190112610086576004356001600160a01b038116919082900361008657600091825260208281526040909220546001600160a01b03168152f35b81601f82011215610086578035906001600160401b0382116102105760405192601f8301601f19908116603f011684016001600160401b03811185821017610210576040528284526020838301011161008657816000926020809301838601378301015290565b919082519283825260005b84811061033b575050826000602080949584010152601f8019910116010190565b8060208092840101518282860101520161031a56fe60806040523461062957611393803803806100198161062e565b92833981019060a0818303126106295780516001600160a01b03811692908390036106295760208201516001600160401b038111610629578161005d918401610653565b60408301519093906001600160401b038111610629578261007f918501610653565b60608401519093906001600160401b03811161062957836100a1918301610653565b60808201519093906001600160401b038111610629576100c19201610653565b600080546001600160a01b03191690921790915583516001600160401b03811161037257600154600181811c9116801561061f575b602082101461035257601f81116105ba575b50602094601f821160011461055357948192939495600092610548575b50508160011b916000199060031b1c1916176001555b82516001600160401b03811161037257600254600181811c9116801561053e575b602082101461035257601f81116104d9575b506020601f82116001146104725781929394600092610467575b50508160011b916000199060031b1c1916176002555b81516001600160401b03811161037257600354600181811c9116801561045d575b602082101461035257601f81116103f8575b50602092601f82116001146103935792819293600092610388575b50508160011b916000199060031b1c1916176003555b80516001600160401b03811161037257600454600181811c91168015610368575b602082101461035257601f81116102ed575b50602091601f82116001146102895791819260009261027e575b50508160011b916000199060031b1c1916176004555b60006005556000600655604051610cd490816106bf8239f35b01519050388061024f565b601f198216926004600052806000209160005b8581106102d5575083600195106102bc575b505050811b01600455610265565b015160001960f88460031b161c191690553880806102ae565b9192602060018192868501518155019401920161029c565b60046000527f8a35acfbc15ff81a39ae7d344fd709f28e8600b4aa8c65c6b64bfe7fe36bd19b601f830160051c81019160208410610348575b601f0160051c01905b81811061033c5750610235565b6000815560010161032f565b9091508190610326565b634e487b7160e01b600052602260045260246000fd5b90607f1690610223565b634e487b7160e01b600052604160045260246000fd5b0151905038806101ec565b601f198216936003600052806000209160005b8681106103e057508360019596106103c7575b505050811b01600355610202565b015160001960f88460031b161c191690553880806103b9565b919260206001819286850151815501940192016103a6565b60036000527fc2575a0e9e593c00f959f8c92f12db2869c3395a3b0502d05e2516446f71f85b601f830160051c81019160208410610453575b601f0160051c01905b81811061044757506101d1565b6000815560010161043a565b9091508190610431565b90607f16906101bf565b015190503880610188565b601f198216906002600052806000209160005b8181106104c1575095836001959697106104a8575b505050811b0160025561019e565b015160001960f88460031b161c1916905538808061049a565b9192602060018192868b015181550194019201610485565b60026000527f405787fa12a823e0f2b7631cc41b3ba8828b3321ca811111fa75cd3aa3bb5ace601f830160051c81019160208410610534575b601f0160051c01905b818110610528575061016e565b6000815560010161051b565b9091508190610512565b90607f169061015c565b015190503880610125565b601f198216956001600052806000209160005b8881106105a257508360019596979810610589575b505050811b0160015561013b565b015160001960f88460031b161c1916905538808061057b565b91926020600181928685015181550194019201610566565b60016000527fb10e2d527612073b26eecdfd717e6a320cf44b4afac2b0732d9fcbe2b7fa0cf6601f830160051c81019160208410610615575b601f0160051c01905b8181106106095750610108565b600081556001016105fc565b90915081906105f3565b90607f16906100f6565b600080fd5b6040519190601f01601f191682016001600160401b0381118382101761037257604052565b81601f82011215610629578051906001600160401b03821161037257610682601f8301601f191660200161062e565b92828452602083830101116106295760005b8281106106a957505060206000918301015290565b8060208092840101518282870101520161069456fe6080604052600436101561001257600080fd5b60003560e01c806306fdde03146109f5578063342ac3081461099157806340ddaff714610917578063460b26db146108a15780636904c94d1461080b57806386268740146107755780638886140c146106f357806388f77fcb146106d55780638da5cb5b146106ac5780638ee0decf1461068e5780639483f25c146101735763f516b422146100a057600080fd5b3461016e57600036600319011261016e57604051600254600090816100c482610a8b565b808552916001811690811561014757506001146100fc575b6100f8846100ec81860382610ac5565b60405191829182610ae8565b0390f35b60028152600080516020610c1f833981519152939250905b80821061012d575090915081016020016100ec826100dc565b919260018160209254838588010152019101909291610114565b60ff191660208087019190915292151560051b850190920192506100ec91508390506100dc565b600080fd5b3461016e57608036600319011261016e576004356001600160401b03811161016e576101a3903690600401610b6b565b6024356001600160401b03811161016e576101c2903690600401610b6b565b6044356001600160401b03811161016e576101e1903690600401610b6b565b6064356001600160401b03811161016e57610200903690600401610b6b565b61021560018060a01b03600054163314610bc1565b83516001600160401b03811161042b57610230600154610a8b565b601f811161063b575b50602094601f82116001146105d4579481929394956000926105c9575b50508160011b916000199060031b1c1916176001555b82516001600160401b03811161042b57610287600254610a8b565b601f8111610576575b506020601f821160011461050f5781929394600092610504575b50508160011b916000199060031b1c1916176002555b81516001600160401b03811161042b576102db600354610a8b565b601f81116104b1575b50602092601f821160011461044c5792819293600092610441575b50508160011b916000199060031b1c1916176003555b80516001600160401b03811161042b57610330600454610a8b565b601f81116103d8575b50602091601f82116001146103775791819260009261036c575b5050600019600383901b1c191660019190911b17600455005b015190508280610353565b601f198216926004600052806000209160005b8581106103c0575083600195106103a7575b505050811b01600455005b015160001960f88460031b161c1916905582808061039c565b9192602060018192868501518155019401920161038a565b6004600052600080516020610c7f833981519152601f830160051c81019160208410610421575b601f0160051c01905b8181106104155750610339565b60008155600101610408565b90915081906103ff565b634e487b7160e01b600052604160045260246000fd5b0151905083806102ff565b601f198216936003600052806000209160005b8681106104995750836001959610610480575b505050811b01600355610315565b015160001960f88460031b161c19169055838080610472565b9192602060018192868501518155019401920161045f565b6003600052600080516020610c3f833981519152601f830160051c810191602084106104fa575b601f0160051c01905b8181106104ee57506102e4565b600081556001016104e1565b90915081906104d8565b0151905084806102aa565b601f198216906002600052806000209160005b81811061055e57509583600195969710610545575b505050811b016002556102c0565b015160001960f88460031b161c19169055848080610537565b9192602060018192868b015181550194019201610522565b6002600052600080516020610c1f833981519152601f830160051c810191602084106105bf575b601f0160051c01905b8181106105b35750610290565b600081556001016105a6565b909150819061059d565b015190508580610256565b601f198216956001600052806000209160005b8881106106235750836001959697981061060a575b505050811b0160015561026c565b015160001960f88460031b161c191690558580806105fc565b919260206001819286850151815501940192016105e7565b6001600052600080516020610c5f833981519152601f830160051c81019160208410610684575b601f0160051c01905b8181106106785750610239565b6000815560010161066b565b9091508190610662565b3461016e57600036600319011261016e576020600654604051908152f35b3461016e57600036600319011261016e576000546040516001600160a01b039091168152602090f35b3461016e57600036600319011261016e576020600554604051908152f35b3461016e57600036600319011261016e5760405160088054808352600091825260208301917ff3f7a9fe364faab93b216da50a3214154f22a0a2b415b23a84c8169e8b636ee391905b81811061075f576100f88561075381870382610ac5565b60405191829182610b31565b825484526020909301926001928301920161073c565b3461016e57600036600319011261016e576040516004546000908161079982610a8b565b808552916001811690811561014757506001146107c0576100f8846100ec81860382610ac5565b60048152600080516020610c7f833981519152939250905b8082106107f1575090915081016020016100ec826100dc565b9192600181602092548385880101520191019092916107d8565b3461016e57600036600319011261016e576040516003546000908161082f82610a8b565b80855291600181169081156101475750600114610856576100f8846100ec81860382610ac5565b60038152600080516020610c3f833981519152939250905b808210610887575090915081016020016100ec826100dc565b91926001816020925483858801015201910190929161086e565b3461016e57600036600319011261016e5760405160078054808352600091825260208301917fa66cc928b5edb82af9bd49922954155ab7b0942694bea4ce44661d9a8736c68891905b818110610901576100f88561075381870382610ac5565b82548452602090930192600192830192016108ea565b3461016e57602036600319011261016e5761093d60018060a01b03600054163314610bc1565b600754600160401b81101561042b57600181018060075581101561097b5760076000526004359060206000200155610976600554610bf9565b600555005b634e487b7160e01b600052603260045260246000fd5b3461016e57602036600319011261016e576109b760018060a01b03600054163314610bc1565b600854600160401b81101561042b57600181018060085581101561097b57600860005260043590602060002001556109f0600654610bf9565b600655005b3461016e57600036600319011261016e5760405160015460009081610a1982610a8b565b80855291600181169081156101475750600114610a40576100f8846100ec81860382610ac5565b60018152600080516020610c5f833981519152939250905b808210610a71575090915081016020016100ec826100dc565b919260018160209254838588010152019101909291610a58565b90600182811c92168015610abb575b6020831014610aa557565b634e487b7160e01b600052602260045260246000fd5b91607f1691610a9a565b601f909101601f19168101906001600160401b0382119082101761042b57604052565b91909160208152825180602083015260005b818110610b1b575060409293506000838284010152601f8019910116010190565b8060208092870101516040828601015201610afa565b602060408183019282815284518094520192019060005b818110610b555750505090565b8251845260209384019390920191600101610b48565b81601f8201121561016e578035906001600160401b03821161042b5760405192610b9f601f8401601f191660200185610ac5565b8284526020838301011161016e57816000926020809301838601378301015290565b15610bc857565b60405162461bcd60e51b81526020600482015260096024820152682737ba1037bbb732b960b91b6044820152606490fd5b6000198114610c085760010190565b634e487b7160e01b600052601160045260246000fdfe405787fa12a823e0f2b7631cc41b3ba8828b3321ca811111fa75cd3aa3bb5acec2575a0e9e593c00f959f8c92f12db2869c3395a3b0502d05e2516446f71f85bb10e2d527612073b26eecdfd717e6a320cf44b4afac2b0732d9fcbe2b7fa0cf68a35acfbc15ff81a39ae7d344fd709f28e8600b4aa8c65c6b64bfe7fe36bd19ba26469706673582212205132630a7ccccd6142d1bcd1bc31b14d0f67c6e55e50f062d3a4b30aca3413e364736f6c634300081c0033a26469706673582212200887a8e68d88fefd28e7821d9a7b6ff3c34bad0e82c34b4f14c84a99afb9fd2264736f6c634300081c0033",
  "linkReferences": {},
  "deployedLinkReferences": {}
}