{
  "_format": "hh-sol-artifact-1",
  "contractName": "CompanyVault",
  "sourceName": "contracts/CompanyShares/CompanyVault.sol",
  "abi": [
    {
      "inputs": [
        {
          "internalType": "address",
          "name": "_paymentToken",
          "type": "address"
        },
        {
          "internalType": "address",
          "name": "companyOwner",
          "type": "address"
        },
        {
          "internalType": "uint96",
          "name": "_raisedWithdrawBps",
          "type": "uint96"
        },
        {
          "internalType": "address",
          "name": "_registry",
          "type": "address"
        }
      ],
      "stateMutability": "nonpayable",
      "type": "constructor"
    },
    {
      "inputs": [],
      "name": "AlreadySet",
      "type": "error"
    },
    {
      "inputs": [],
      "name": "DistributorNotSet",
      "type": "error"
    },
    {
      "inputs": [],
      "name": "ExceedsWithdrawable",
      "type": "error"
    },
    {
      "inputs": [],
      "name": "InsufficientBalance",
      "type": "error"
    },
    {
      "inputs": [],
      "name": "InvalidAddress",
      "type": "error"
    },
    {
      "inputs": [],
      "name": "InvalidAmount",
      "type": "error"
    },
    {
      "inputs": [],
      "name": "OnlyRevenueDepositor",
      "type": "error"
    },
    {
      "inputs": [],
      "name": "OnlySale",
      "type": "error"
    },
    {
      "inputs": [
        {
          "internalType": "address",
          "name": "owner",
          "type": "address"
        }
      ],
      "name": "OwnableInvalidOwner",
      "type": "error"
    },
    {
      "inputs": [
        {
          "internalType": "address",
          "name": "account",
          "type": "address"
        }
      ],
      "name": "OwnableUnauthorizedAccount",
      "type": "error"
    },
    {
      "inputs": [],
      "name": "ReentrancyGuardReentrantCall",
      "type": "error"
    },
    {
      "inputs": [
        {
          "internalType": "address",
          "name": "token",
          "type": "address"
        }
      ],
      "name": "SafeERC20FailedOperation",
      "type": "error"
    },
    {
      "inputs": [],
      "name": "TooEarly",
      "type": "error"
    },
    {
      "inputs": [],
      "name": "Unauthorized",
      "type": "error"
    },
    {
      "anonymous": false,
      "inputs": [
        {
          "indexed": true,
          "internalType": "address",
          "name": "from",
          "type": "address"
        },
        {
          "indexed": false,
          "internalType": "uint256",
          "name": "amount",
          "type": "uint256"
        }
      ],
      "name": "BusinessRevenueDeposited",
      "type": "event"
    },
    {
      "anonymous": false,
      "inputs": [
        {
          "indexed": true,
          "internalType": "address",
          "name": "distributor",
          "type": "address"
        }
      ],
      "name": "DistributorSet",
      "type": "event"
    },
    {
      "anonymous": false,
      "inputs": [
        {
          "indexed": false,
          "internalType": "uint256",
          "name": "amount",
          "type": "uint256"
        }
      ],
      "name": "DividendsDeposited",
      "type": "event"
    },
    {
      "anonymous": false,
      "inputs": [
        {
          "indexed": true,
          "internalType": "address",
          "name": "to",
          "type": "address"
        },
        {
          "indexed": false,
          "internalType": "uint256",
          "name": "amount",
          "type": "uint256"
        }
      ],
      "name": "EmergencyWithdrawal",
      "type": "event"
    },
    {
      "anonymous": false,
      "inputs": [
        {
          "indexed": false,
          "internalType": "uint256",
          "name": "claimed",
          "type": "uint256"
        },
        {
          "indexed": false,
          "internalType": "uint256",
          "name": "accepted",
          "type": "uint256"
        }
      ],
      "name": "ExpenseSubmitted",
      "type": "event"
    },
    {
      "anonymous": false,
      "inputs": [
        {
          "indexed": true,
          "internalType": "address",
          "name": "owner",
          "type": "address"
        },
        {
          "indexed": false,
          "internalType": "uint256",
          "name": "amount",
          "type": "uint256"
        }
      ],
      "name": "MonthlySoloClaimed",
      "type": "event"
    },
    {
      "anonymous": false,
      "inputs": [
        {
          "indexed": true,
          "internalType": "address",
          "name": "previousOwner",
          "type": "address"
        },
        {
          "indexed": true,
          "internalType": "address",
          "name": "newOwner",
          "type": "address"
        }
      ],
      "name": "OwnershipTransferStarted",
      "type": "event"
    },
    {
      "anonymous": false,
      "inputs": [
        {
          "indexed": true,
          "internalType": "address",
          "name": "previousOwner",
          "type": "address"
        },
        {
          "indexed": true,
          "internalType": "address",
          "name": "newOwner",
          "type": "address"
        }
      ],
      "name": "OwnershipTransferred",
      "type": "event"
    },
    {
      "anonymous": false,
      "inputs": [
        {
          "indexed": false,
          "internalType": "uint256",
          "name": "revenue",
          "type": "uint256"
        },
        {
          "indexed": false,
          "internalType": "uint256",
          "name": "expenses",
          "type": "uint256"
        },
        {
          "indexed": false,
          "internalType": "uint256",
          "name": "investorPayout",
          "type": "uint256"
        },
        {
          "indexed": false,
          "internalType": "uint256",
          "name": "ownerPayout",
          "type": "uint256"
        }
      ],
      "name": "PeriodClosed",
      "type": "event"
    },
    {
      "anonymous": false,
      "inputs": [
        {
          "indexed": true,
          "internalType": "address",
          "name": "profile",
          "type": "address"
        }
      ],
      "name": "ProfileSet",
      "type": "event"
    },
    {
      "anonymous": false,
      "inputs": [
        {
          "indexed": true,
          "internalType": "address",
          "name": "buyer",
          "type": "address"
        },
        {
          "indexed": false,
          "internalType": "uint256",
          "name": "amount",
          "type": "uint256"
        }
      ],
      "name": "RaisedDeposited",
      "type": "event"
    },
    {
      "anonymous": false,
      "inputs": [
        {
          "indexed": true,
          "internalType": "address",
          "name": "depositor",
          "type": "address"
        },
        {
          "indexed": false,
          "internalType": "bool",
          "name": "allowed",
          "type": "bool"
        }
      ],
      "name": "RevenueDepositorSet",
      "type": "event"
    },
    {
      "anonymous": false,
      "inputs": [
        {
          "indexed": true,
          "internalType": "address",
          "name": "sale",
          "type": "address"
        }
      ],
      "name": "SaleSet",
      "type": "event"
    },
    {
      "anonymous": false,
      "inputs": [
        {
          "indexed": true,
          "internalType": "address",
          "name": "to",
          "type": "address"
        },
        {
          "indexed": false,
          "internalType": "uint256",
          "name": "amount",
          "type": "uint256"
        }
      ],
      "name": "WithdrawBusiness",
      "type": "event"
    },
    {
      "anonymous": false,
      "inputs": [
        {
          "indexed": true,
          "internalType": "address",
          "name": "to",
          "type": "address"
        },
        {
          "indexed": false,
          "internalType": "uint256",
          "name": "amount",
          "type": "uint256"
        }
      ],
      "name": "WithdrawRaised",
      "type": "event"
    },
    {
      "inputs": [],
      "name": "EXPENSE_CAP_BPS",
      "outputs": [
        {
          "internalType": "uint96",
          "name": "",
          "type": "uint96"
        }
      ],
      "stateMutability": "view",
      "type": "function"
    },
    {
      "inputs": [],
      "name": "MIN_REVENUE_SHARE_BPS",
      "outputs": [
        {
          "internalType": "uint96",
          "name": "",
          "type": "uint96"
        }
      ],
      "stateMutability": "view",
      "type": "function"
    },
    {
      "inputs": [],
      "name": "PROFIT_SHARE_BPS",
      "outputs": [
        {
          "internalType": "uint96",
          "name": "",
          "type": "uint96"
        }
      ],
      "stateMutability": "view",
      "type": "function"
    },
    {
      "inputs": [],
      "name": "SOLO_CLAIM_COOLDOWN",
      "outputs": [
        {
          "internalType": "uint256",
          "name": "",
          "type": "uint256"
        }
      ],
      "stateMutability": "view",
      "type": "function"
    },
    {
      "inputs": [],
      "name": "acceptOwnership",
      "outputs": [],
      "stateMutability": "nonpayable",
      "type": "function"
    },
    {
      "inputs": [
        {
          "internalType": "uint256",
          "name": "amount",
          "type": "uint256"
        }
      ],
      "name": "claimMonthlySoloJob",
      "outputs": [],
      "stateMutability": "nonpayable",
      "type": "function"
    },
    {
      "inputs": [],
      "name": "closePeriod",
      "outputs": [],
      "stateMutability": "nonpayable",
      "type": "function"
    },
    {
      "inputs": [
        {
          "internalType": "address",
          "name": "buyer",
          "type": "address"
        },
        {
          "internalType": "uint256",
          "name": "amount",
          "type": "uint256"
        }
      ],
      "name": "depositRaisedFrom",
      "outputs": [],
      "stateMutability": "nonpayable",
      "type": "function"
    },
    {
      "inputs": [
        {
          "internalType": "uint256",
          "name": "amount",
          "type": "uint256"
        }
      ],
      "name": "depositRevenue",
      "outputs": [],
      "stateMutability": "nonpayable",
      "type": "function"
    },
    {
      "inputs": [],
      "name": "distributor",
      "outputs": [
        {
          "internalType": "address",
          "name": "",
          "type": "address"
        }
      ],
      "stateMutability": "view",
      "type": "function"
    },
    {
      "inputs": [
        {
          "internalType": "uint256",
          "name": "amount",
          "type": "uint256"
        },
        {
          "internalType": "address",
          "name": "to",
          "type": "address"
        }
      ],
      "name": "emergencyWithdraw",
      "outputs": [],
      "stateMutability": "nonpayable",
      "type": "function"
    },
    {
      "inputs": [],
      "name": "getBalance",
      "outputs": [
        {
          "internalType": "uint256",
          "name": "",
          "type": "uint256"
        }
      ],
      "stateMutability": "view",
      "type": "function"
    },
    {
      "inputs": [],
      "name": "getVaultStatus",
      "outputs": [
        {
          "internalType": "uint256",
          "name": "_raisedTotal",
          "type": "uint256"
        },
        {
          "internalType": "uint256",
          "name": "_raisedWithdrawn",
          "type": "uint256"
        },
        {
          "internalType": "uint256",
          "name": "_totalRevenue",
          "type": "uint256"
        },
        {
          "internalType": "uint256",
          "name": "_totalDistributed",
          "type": "uint256"
        },
        {
          "internalType": "uint256",
          "name": "_periodRevenue",
          "type": "uint256"
        },
        {
          "internalType": "uint256",
          "name": "_periodExpenses",
          "type": "uint256"
        }
      ],
      "stateMutability": "view",
      "type": "function"
    },
    {
      "inputs": [
        {
          "internalType": "address",
          "name": "",
          "type": "address"
        }
      ],
      "name": "isRevenueDepositor",
      "outputs": [
        {
          "internalType": "bool",
          "name": "",
          "type": "bool"
        }
      ],
      "stateMutability": "view",
      "type": "function"
    },
    {
      "inputs": [],
      "name": "lastSoloClaimTimestamp",
      "outputs": [
        {
          "internalType": "uint256",
          "name": "",
          "type": "uint256"
        }
      ],
      "stateMutability": "view",
      "type": "function"
    },
    {
      "inputs": [],
      "name": "owner",
      "outputs": [
        {
          "internalType": "address",
          "name": "",
          "type": "address"
        }
      ],
      "stateMutability": "view",
      "type": "function"
    },
    {
      "inputs": [],
      "name": "ownerWithdrawable",
      "outputs": [
        {
          "internalType": "uint256",
          "name": "",
          "type": "uint256"
        }
      ],
      "stateMutability": "view",
      "type": "function"
    },
    {
      "inputs": [],
      "name": "paymentToken",
      "outputs": [
        {
          "internalType": "contract IERC20",
          "name": "",
          "type": "address"
        }
      ],
      "stateMutability": "view",
      "type": "function"
    },
    {
      "inputs": [],
      "name": "pendingOwner",
      "outputs": [
        {
          "internalType": "address",
          "name": "",
          "type": "address"
        }
      ],
      "stateMutability": "view",
      "type": "function"
    },
    {
      "inputs": [],
      "name": "periodExpenses",
      "outputs": [
        {
          "internalType": "uint256",
          "name": "",
          "type": "uint256"
        }
      ],
      "stateMutability": "view",
      "type": "function"
    },
    {
      "inputs": [],
      "name": "periodRevenue",
      "outputs": [
        {
          "internalType": "uint256",
          "name": "",
          "type": "uint256"
        }
      ],
      "stateMutability": "view",
      "type": "function"
    },
    {
      "inputs": [],
      "name": "profile",
      "outputs": [
        {
          "internalType": "address",
          "name": "",
          "type": "address"
        }
      ],
      "stateMutability": "view",
      "type": "function"
    },
    {
      "inputs": [],
      "name": "raisedTotal",
      "outputs": [
        {
          "internalType": "uint256",
          "name": "",
          "type": "uint256"
        }
      ],
      "stateMutability": "view",
      "type": "function"
    },
    {
      "inputs": [],
      "name": "raisedWithdrawBps",
      "outputs": [
        {
          "internalType": "uint96",
          "name": "",
          "type": "uint96"
        }
      ],
      "stateMutability": "view",
      "type": "function"
    },
    {
      "inputs": [],
      "name": "raisedWithdrawable",
      "outputs": [
        {
          "internalType": "uint256",
          "name": "",
          "type": "uint256"
        }
      ],
      "stateMutability": "view",
      "type": "function"
    },
    {
      "inputs": [],
      "name": "raisedWithdrawn",
      "outputs": [
        {
          "internalType": "uint256",
          "name": "",
          "type": "uint256"
        }
      ],
      "stateMutability": "view",
      "type": "function"
    },
    {
      "inputs": [],
      "name": "registry",
      "outputs": [
        {
          "internalType": "address",
          "name": "",
          "type": "address"
        }
      ],
      "stateMutability": "view",
      "type": "function"
    },
    {
      "inputs": [],
      "name": "renounceOwnership",
      "outputs": [],
      "stateMutability": "nonpayable",
      "type": "function"
    },
    {
      "inputs": [],
      "name": "sale",
      "outputs": [
        {
          "internalType": "address",
          "name": "",
          "type": "address"
        }
      ],
      "stateMutability": "view",
      "type": "function"
    },
    {
      "inputs": [
        {
          "internalType": "address",
          "name": "_distributor",
          "type": "address"
        }
      ],
      "name": "setDistributor",
      "outputs": [],
      "stateMutability": "nonpayable",
      "type": "function"
    },
    {
      "inputs": [
        {
          "internalType": "address",
          "name": "_profile",
          "type": "address"
        }
      ],
      "name": "setProfile",
      "outputs": [],
      "stateMutability": "nonpayable",
      "type": "function"
    },
    {
      "inputs": [
        {
          "internalType": "address",
          "name": "depositor",
          "type": "address"
        },
        {
          "internalType": "bool",
          "name": "allowed",
          "type": "bool"
        }
      ],
      "name": "setRevenueDepositor",
      "outputs": [],
      "stateMutability": "nonpayable",
      "type": "function"
    },
    {
      "inputs": [
        {
          "internalType": "address",
          "name": "_sale",
          "type": "address"
        }
      ],
      "name": "setSale",
      "outputs": [],
      "stateMutability": "nonpayable",
      "type": "function"
    },
    {
      "inputs": [
        {
          "internalType": "uint256",
          "name": "amount",
          "type": "uint256"
        }
      ],
      "name": "submitExpenses",
      "outputs": [],
      "stateMutability": "nonpayable",
      "type": "function"
    },
    {
      "inputs": [],
      "name": "totalDistributed",
      "outputs": [
        {
          "internalType": "uint256",
          "name": "",
          "type": "uint256"
        }
      ],
      "stateMutability": "view",
      "type": "function"
    },
    {
      "inputs": [],
      "name": "totalExpenses",
      "outputs": [
        {
          "internalType": "uint256",
          "name": "",
          "type": "uint256"
        }
      ],
      "stateMutability": "view",
      "type": "function"
    },
    {
      "inputs": [],
      "name": "totalRevenue",
      "outputs": [
        {
          "internalType": "uint256",
          "name": "",
          "type": "uint256"
        }
      ],
      "stateMutability": "view",
      "type": "function"
    },
    {
      "inputs": [
        {
          "internalType": "address",
          "name": "newOwner",
          "type": "address"
        }
      ],
      "name": "transferOwnership",
      "outputs": [],
      "stateMutability": "nonpayable",
      "type": "function"
    },
    {
      "inputs": [
        {
          "internalType": "uint256",
          "name": "amount",
          "type": "uint256"
        },
        {
          "internalType": "address",
          "name": "to",
          "type": "address"
        }
      ],
      "name": "withdrawBusiness",
      "outputs": [],
      "stateMutability": "nonpayable",
      "type": "function"
    },
    {
      "inputs": [
        {
          "internalType": "uint256",
          "name": "amount",
          "type": "uint256"
        },
        {
          "internalType": "address",
          "name": "to",
          "type": "address"
        }
      ],
      "name": "withdrawRaised",
      "outputs": [],
      "stateMutability": "nonpayable",
      "type": "function"
    }
  ],
  "bytecode": "0x60e0346101c757601f6118d838819003918201601f19168301916001600160401b038311848410176101cc578084926080946040528339810103126101c757610047816101e2565b90610054602082016101e2565b604082015190916001600160601b038216908183036101c757606061007991016101e2565b6001600160a01b039093169384156101b157600180546001600160a01b0319908116909155600080549182168717815560405196916001600160a01b0316907f8be0079c531659141344cd1fd0a4f28419497f9722a3daafe3b4186f6b6457e09080a360016002556001600160a01b03169081156101a05761271060009111610191576001600160a01b03841615610182575060805260a05260c0526116e190816101f7823960805181818161025b015281816105220152818161069f01528181610bb601528181610f85015281816110bf01528181611126015281816111af01526112b4015260a05181818161061901526114c8015260c05181818161040f015261094f0152f35b63e6c4247b60e01b8152600490fd5b63162908e360e11b8152600490fd5b63e6c4247b60e01b60005260046000fd5b631e4fbdf760e01b600052600060045260246000fd5b600080fd5b634e487b7160e01b600052604160045260246000fd5b51906001600160a01b03821682036101c75756fe608080604052600436101561001357600080fd5b600090813560e01c9081630afb2dfd1461140d575080631206286e1461133857806312065fe0146112885780632b8dbaa71461126a5780632f940c70146111555780633013ce291461111057806330484a97146110f257806336022ee8146110325780633608031d14610f1a57806336af50fd14610e9b5780633ec789cf14610e7d578063507a732814610b1e578063673d1a1714610b005780636ad1fe0214610ad7578063715018a614610a8457806375619ab5146109f157806379ba50971461097e5780637b103999146109395780637bd35af81461091b57806385a04f6f146108865780638da5cb5b1461085f578063ab60636c14610836578063ad47883714610813578063aede67ea146107cb578063bc1ca3e914610666578063bf2d9e0b14610648578063bf4879f014610603578063bfe10928146105da578063bff33cea146105bc578063c0e9ce541461059f578063cab2556e14610582578063cacd69c01461049b578063cdad61111461047d578063d4a081e71461043e578063e0b6a1e314610374578063e30c39781461034b578063efca2eed1461032d578063f2fde38b146102c0578063f82d288d146101f85763febd7df2146101d957600080fd5b346101f557806003193601126101f5576020604051611b588152f35b80fd5b50346101f55760403660031901126101f557610212611444565b600b5460243591906001600160a01b031633036102b15781156102a25760207f96a653f37606079e67ef7780b058579b147554d1e6c037db00e2ce7f6248ab899161027f8430837f00000000000000000000000000000000000000000000000000000000000000006115c0565b61028b8460035461145a565b6003556040519384526001600160a01b031692a280f35b63162908e360e11b8352600483fd5b6368bacf2160e11b8352600483fd5b50346101f55760203660031901126101f5576102da611444565b6102e2611525565b600180546001600160a01b0319166001600160a01b0392831690811790915582549091167f38d16b8cac22d99fc7c124b9cd0de2d3fa1faef420bfe791d8c362d765e227008380a380f35b50346101f557806003193601126101f5576020600754604051908152f35b50346101f557806003193601126101f5576001546040516001600160a01b039091168152602090f35b50346101f55760203660031901126101f55761038e611444565b81546001600160a01b03163314158061040b575b6103fd576001600160a01b031680156103ee57600d80546001600160a01b031916821790557fc6e71e3aee3e0a9e947f36c5d655ee69031cfd09a416c744a4317f82b676e6ba8280a280f35b63e6c4247b60e01b8252600482fd5b6282b42960e81b8252600482fd5b50337f00000000000000000000000000000000000000000000000000000000000000006001600160a01b031614156103a2565b50346101f55760203660031901126101f55760209060ff906040906001600160a01b03610469611444565b168152601084522054166040519015158152f35b50346101f557806003193601126101f557602060405162278d008152f35b50346101f55760403660031901126101f5576004356104b8611429565b906104c1611525565b6104c961154e565b6001600160a01b03821691821561057357811561056457600a5480831161055557916105468160209361051d827ff851f0abd0151abc88c02c64748cb88a8e0f3e5fe1fef8dd4ada7e0d7257c3df9761147d565b600a557f0000000000000000000000000000000000000000000000000000000000000000611589565b604051908152a2600160025580f35b631a82a05d60e11b8552600485fd5b63162908e360e11b8452600484fd5b63e6c4247b60e01b8452600484fd5b50346101f557806003193601126101f55760206040516103e88152f35b50346101f557806003193601126101f5576020604051610fa08152f35b50346101f557806003193601126101f5576020600454604051908152f35b50346101f557806003193601126101f557600c546040516001600160a01b039091168152602090f35b50346101f557806003193601126101f5576040517f00000000000000000000000000000000000000000000000000000000000000006001600160601b03168152602090f35b50346101f557806003193601126101f5576020600554604051908152f35b50346101f55760203660031901126101f557600435338252601060205260ff6040832054161561071f575b8015610710576106c38130337f00000000000000000000000000000000000000000000000000000000000000006115c0565b6106cf8160055461145a565b6005556106de8160085461145a565b6008556040519081527f4f271dec3fe02a32d56d4f23f177ea998d107abd373f40a2a0ae7c33fc7277c760203392a280f35b63162908e360e11b8252600482fd5b600d546001600160a01b0316801590811561074a575b501561069157634c371db360e11b8252600482fd5b60405163e904f66760e01b81523360048201529150602090829060249082905afa9081156107c0578391610781575b501538610735565b90506020813d6020116107b8575b8161079c6020938361148a565b810103126107b4575180151581036107b45738610779565b8280fd5b3d915061078f565b6040513d85823e3d90fd5b50346101f557806003193601126101f55760c06003546004546005546007546008549160095493604051958652602086015260408501526060840152608083015260a0820152f35b50346101f557806003193601126101f557602061082e6114c3565b604051908152f35b50346101f557806003193601126101f557600d546040516001600160a01b039091168152602090f35b50346101f557806003193601126101f557546040516001600160a01b039091168152602090f35b50346101f55760403660031901126101f5576108a0611444565b602435908115158092036107b4576108b6611525565b6001600160a01b031690811561090c5760207f73e60945fcd9aaf0863c35c2270860c620c7ab1194fac1c19fb35a2d5cdce3a291838552601082526040852060ff1981541660ff8316179055604051908152a280f35b63e6c4247b60e01b8352600483fd5b50346101f557806003193601126101f5576020600654604051908152f35b50346101f557806003193601126101f5576040517f00000000000000000000000000000000000000000000000000000000000000006001600160a01b03168152602090f35b50346101f557806003193601126101f557600154336001600160a01b03909116036109de57600180546001600160a01b0319908116909155815433918116821783556001600160a01b031660008051602061168c8339815191528380a380f35b63118cdaa760e01b815233600452602490fd5b50346101f55760203660031901126101f557610a0b611444565b610a13611525565b6001600160a01b031680156103ee57600f5460ff8160081c16610a7557600c80546001600160a01b0319168317905561ff00191661010017600f557f86719c518c7d99ac94b3d405d462ea876ba5cd0a978461dc9a7c9862a94858868280a280f35b63a741a04560e01b8352600483fd5b50346101f557806003193601126101f557610a9d611525565b600180546001600160a01b03199081169091558154908116825581906001600160a01b031660008051602061168c8339815191528280a380f35b50346101f557806003193601126101f557600b546040516001600160a01b039091168152602090f35b50346101f557806003193601126101f5576020600954604051908152f35b50346101f557806003193601126101f557610b37611525565b610b3f61154e565b600c546001600160a01b03168015610e6e57600854906009549083828411610e5e575b6103e884028481046103e81485151715610e4a57612710900490610fa0810290808204610fa01490151715610e4a57612710900480821115610e425750915b6040516370a0823160e01b81523060048201527f00000000000000000000000000000000000000000000000000000000000000009392906001600160a01b038516908490602081602481865afa908115610e37578991610e01575b50809111610df9575b508694848711610de7575b84610c61575b8760008051602061166c833981519152608089898989610c3883600a5461145a565b600a55604051938452602084015260408301526060820152a18060085580600955600160025580f35b6040519160208981850163095ea7b360e01b8152610c9586610c878b8a6024840161156e565b03601f19810188528761148a565b85519082865af1903d8a519083610dc8575b50505015610d83575b5050600c548691506001600160a01b0316803b15610d7f5781906024604051809481936332fa294960e21b83528860048401525af18015610d7457610d49575b509181608093610d1260008051602061166c833981519152969460075461145a565b6007557f868441bc0e3b50e598fc39ab9d370f6cbab5ee4b02c6b19e17eec2647415609c6020604051848152a19193819395610c16565b9185610d69608095939760008051602061166c833981519152979561148a565b959193509193610cf0565b6040513d88823e3d90fd5b5080fd5b610dbb610dc0936040519063095ea7b360e01b6020830152602482015289604482015260448152610db560648261148a565b82611604565b611604565b388080610cb0565b91925090610ddd57503b15155b388080610ca7565b6001915014610dd5565b9450610df3848761147d565b94610c10565b935038610c05565b90506020813d602011610e2f575b81610e1c6020938361148a565b81010312610e2b575138610bfc565b8880fd5b3d9150610e0f565b6040513d8b823e3d90fd5b905091610ba1565b634e487b7160e01b86526011600452602486fd5b50610e69828461147d565b610b62565b6312df801960e01b8252600482fd5b50346101f557806003193601126101f5576020600a54604051908152f35b50346101f55760203660031901126101f557610eb5611444565b610ebd611525565b6001600160a01b031680156103ee57600f5460ff8116610a7557600b80546001600160a01b0319168317905560ff1916600117600f557f5c440f49267f20468301aadd4dee6e4929708c2a2660e2a55a294aa8b4f86c9c8280a280f35b50346101f55760203660031901126101f557600435610f37611525565b610f3f61154e565b600e548015159081611007575b50610ff857801561071057600854808211610fe95781610f6b9161147d565b60085542600e558154610fa99082906001600160a01b03167f0000000000000000000000000000000000000000000000000000000000000000611589565b81546040519182526001600160a01b0316907ff9cce2ebdc9cd2f2de5f2595df1a8f7700638f557b467e8ad57cadcfc855caa990602090a2600160025580f35b631a82a05d60e11b8352600483fd5b63085de62560e01b8252600482fd5b905062278d00810180911161101e57421038610f4c565b634e487b7160e01b83526011600452602483fd5b50346101f55760403660031901126101f55760043561104f611429565b90611058611525565b61106061154e565b6001600160a01b0382169182156105735781156105645761107f6114c3565b82116110e35781610546816020936110ba7f20e6493495a4bd9849c787cd7372a1ea84e2ff1ae55894766b93ec1c78b1a64f9660045461145a565b6004557f0000000000000000000000000000000000000000000000000000000000000000611589565b631a82a05d60e11b8452600484fd5b50346101f557806003193601126101f5576020600e54604051908152f35b50346101f557806003193601126101f5576040517f00000000000000000000000000000000000000000000000000000000000000006001600160a01b03168152602090f35b50346101f55760403660031901126101f557600435611172611429565b9061117b611525565b61118361154e565b6001600160a01b038216918215610573578115610564576040516370a0823160e01b81523060048201527f0000000000000000000000000000000000000000000000000000000000000000906020816024816001600160a01b0386165afa908115610d74578691611234575b5083116112255791610546816020937f23d6711a1d031134a36921253c75aa59e967d38e369ac625992824315e204f2095611589565b631e9acf1760e31b8552600485fd5b90506020813d602011611262575b8161124f6020938361148a565b8101031261125e5751386111ef565b8580fd5b3d9150611242565b50346101f557806003193601126101f5576020600854604051908152f35b50346101f557806003193601126101f5576040516370a0823160e01b81523060048201526020816024817f00000000000000000000000000000000000000000000000000000000000000006001600160a01b03165afa90811561132d5782916112f7575b602082604051908152f35b90506020813d602011611325575b816113126020938361148a565b81010312610d7f576020915051386112ec565b3d9150611305565b6040513d84823e3d90fd5b50346101f55760203660031901126101f557600435611355611525565b801561071057600854611b58810290808204611b58149015171561101e577faba5e5e8f9b4c6d5f8b8077abb57c77bdd3075dc4a36ad8adab91a31af20c51191612710604092046009548291806113ac858461145a565b116113dd575b50816113bd9161145a565b6009556113cc8160065461145a565b60065582519182526020820152a180f35b90915081908082106113f95750506113bd8580925b91506113b2565b6113bd916114069161147d565b80926113f2565b905034610d7f5781600319360112610d7f576020906003548152f35b602435906001600160a01b038216820361143f57565b600080fd5b600435906001600160a01b038216820361143f57565b9190820180921161146757565b634e487b7160e01b600052601160045260246000fd5b9190820391821161146757565b601f909101601f19168101906001600160401b038211908210176114ad57604052565b634e487b7160e01b600052604160045260246000fd5b6003547f00000000000000000000000000000000000000000000000000000000000000006001600160601b031680820291801590830490911417156114675761271090046004548082111561151e5761151b9161147d565b90565b5050600090565b6000546001600160a01b0316330361153957565b63118cdaa760e01b6000523360045260246000fd5b600280541461155d5760028055565b633ee5aeb560e01b60005260046000fd5b6001600160a01b039091168152602081019190915260400190565b610dbb6115be93926115b060405194859263a9059cbb60e01b60208501526024840161156e565b03601f19810184528361148a565b565b6040516323b872dd60e01b60208201526001600160a01b0392831660248201529290911660448301526064808301939093529181526115be91610dbb60848361148a565b906000602091828151910182855af11561165f576000513d61165657506001600160a01b0381163b155b6116355750565b635274afe760e01b60009081526001600160a01b0391909116600452602490fd5b6001141561162e565b6040513d6000823e3d90fdfead48006bd5fccb46a5e25e1cf4e091900c52fac23a2a557c4512e544e2dcef7d8be0079c531659141344cd1fd0a4f28419497f9722a3daafe3b4186f6b6457e0a26469706673582212201c5c3b2b5ec41b30d8141eed6778589bbb82b00d3734de68a5377a5aaaf7bb4f64736f6c634300081c0033",
  "linkReferences": {},
  "deployedLinkReferences": {}
}