{
  "_format": "hh-sol-artifact-1",
  "contractName": "CompanyVault",
  "sourceName": "contracts/CompanyShares/CompanyVault.sol",
  "abi": [
    {
      "inputs": [
        {
          "internalType": "address",
          "name": "_paymentToken",
          "type": "address"
        },
        {
          "internalType": "address",
          "name": "companyOwner",
          "type": "address"
        },
        {
          "internalType": "uint96",
          "name": "_raisedWithdrawBps",
          "type": "uint96"
        }
      ],
      "stateMutability": "nonpayable",
      "type": "constructor"
    },
    {
      "inputs": [],
      "name": "AlreadySet",
      "type": "error"
    },
    {
      "inputs": [],
      "name": "DistributorNotSet",
      "type": "error"
    },
    {
      "inputs": [],
      "name": "ExceedsWithdrawable",
      "type": "error"
    },
    {
      "inputs": [],
      "name": "InsufficientBalance",
      "type": "error"
    },
    {
      "inputs": [],
      "name": "InvalidAddress",
      "type": "error"
    },
    {
      "inputs": [],
      "name": "InvalidAmount",
      "type": "error"
    },
    {
      "inputs": [],
      "name": "OnlyRevenueDepositor",
      "type": "error"
    },
    {
      "inputs": [],
      "name": "OnlySale",
      "type": "error"
    },
    {
      "inputs": [
        {
          "internalType": "address",
          "name": "owner",
          "type": "address"
        }
      ],
      "name": "OwnableInvalidOwner",
      "type": "error"
    },
    {
      "inputs": [
        {
          "internalType": "address",
          "name": "account",
          "type": "address"
        }
      ],
      "name": "OwnableUnauthorizedAccount",
      "type": "error"
    },
    {
      "inputs": [],
      "name": "ReentrancyGuardReentrantCall",
      "type": "error"
    },
    {
      "inputs": [
        {
          "internalType": "address",
          "name": "token",
          "type": "address"
        }
      ],
      "name": "SafeERC20FailedOperation",
      "type": "error"
    },
    {
      "anonymous": false,
      "inputs": [
        {
          "indexed": true,
          "internalType": "address",
          "name": "from",
          "type": "address"
        },
        {
          "indexed": false,
          "internalType": "uint256",
          "name": "amount",
          "type": "uint256"
        }
      ],
      "name": "BusinessRevenueDeposited",
      "type": "event"
    },
    {
      "anonymous": false,
      "inputs": [
        {
          "indexed": true,
          "internalType": "address",
          "name": "distributor",
          "type": "address"
        }
      ],
      "name": "DistributorSet",
      "type": "event"
    },
    {
      "anonymous": false,
      "inputs": [
        {
          "indexed": false,
          "internalType": "uint256",
          "name": "amount",
          "type": "uint256"
        }
      ],
      "name": "DividendsDeposited",
      "type": "event"
    },
    {
      "anonymous": false,
      "inputs": [
        {
          "indexed": true,
          "internalType": "address",
          "name": "to",
          "type": "address"
        },
        {
          "indexed": false,
          "internalType": "uint256",
          "name": "amount",
          "type": "uint256"
        }
      ],
      "name": "EmergencyWithdrawal",
      "type": "event"
    },
    {
      "anonymous": false,
      "inputs": [
        {
          "indexed": false,
          "internalType": "uint256",
          "name": "claimed",
          "type": "uint256"
        },
        {
          "indexed": false,
          "internalType": "uint256",
          "name": "accepted",
          "type": "uint256"
        }
      ],
      "name": "ExpenseSubmitted",
      "type": "event"
    },
    {
      "anonymous": false,
      "inputs": [
        {
          "indexed": true,
          "internalType": "address",
          "name": "previousOwner",
          "type": "address"
        },
        {
          "indexed": true,
          "internalType": "address",
          "name": "newOwner",
          "type": "address"
        }
      ],
      "name": "OwnershipTransferStarted",
      "type": "event"
    },
    {
      "anonymous": false,
      "inputs": [
        {
          "indexed": true,
          "internalType": "address",
          "name": "previousOwner",
          "type": "address"
        },
        {
          "indexed": true,
          "internalType": "address",
          "name": "newOwner",
          "type": "address"
        }
      ],
      "name": "OwnershipTransferred",
      "type": "event"
    },
    {
      "anonymous": false,
      "inputs": [
        {
          "indexed": false,
          "internalType": "uint256",
          "name": "revenue",
          "type": "uint256"
        },
        {
          "indexed": false,
          "internalType": "uint256",
          "name": "expenses",
          "type": "uint256"
        },
        {
          "indexed": false,
          "internalType": "uint256",
          "name": "investorPayout",
          "type": "uint256"
        },
        {
          "indexed": false,
          "internalType": "uint256",
          "name": "ownerPayout",
          "type": "uint256"
        }
      ],
      "name": "PeriodClosed",
      "type": "event"
    },
    {
      "anonymous": false,
      "inputs": [
        {
          "indexed": true,
          "internalType": "address",
          "name": "profile",
          "type": "address"
        }
      ],
      "name": "ProfileSet",
      "type": "event"
    },
    {
      "anonymous": false,
      "inputs": [
        {
          "indexed": true,
          "internalType": "address",
          "name": "buyer",
          "type": "address"
        },
        {
          "indexed": false,
          "internalType": "uint256",
          "name": "amount",
          "type": "uint256"
        }
      ],
      "name": "RaisedDeposited",
      "type": "event"
    },
    {
      "anonymous": false,
      "inputs": [
        {
          "indexed": true,
          "internalType": "address",
          "name": "depositor",
          "type": "address"
        },
        {
          "indexed": false,
          "internalType": "bool",
          "name": "allowed",
          "type": "bool"
        }
      ],
      "name": "RevenueDepositorSet",
      "type": "event"
    },
    {
      "anonymous": false,
      "inputs": [
        {
          "indexed": true,
          "internalType": "address",
          "name": "sale",
          "type": "address"
        }
      ],
      "name": "SaleSet",
      "type": "event"
    },
    {
      "anonymous": false,
      "inputs": [
        {
          "indexed": true,
          "internalType": "address",
          "name": "to",
          "type": "address"
        },
        {
          "indexed": false,
          "internalType": "uint256",
          "name": "amount",
          "type": "uint256"
        }
      ],
      "name": "WithdrawBusiness",
      "type": "event"
    },
    {
      "anonymous": false,
      "inputs": [
        {
          "indexed": true,
          "internalType": "address",
          "name": "to",
          "type": "address"
        },
        {
          "indexed": false,
          "internalType": "uint256",
          "name": "amount",
          "type": "uint256"
        }
      ],
      "name": "WithdrawRaised",
      "type": "event"
    },
    {
      "inputs": [],
      "name": "EXPENSE_CAP_BPS",
      "outputs": [
        {
          "internalType": "uint96",
          "name": "",
          "type": "uint96"
        }
      ],
      "stateMutability": "view",
      "type": "function"
    },
    {
      "inputs": [],
      "name": "MIN_REVENUE_SHARE_BPS",
      "outputs": [
        {
          "internalType": "uint96",
          "name": "",
          "type": "uint96"
        }
      ],
      "stateMutability": "view",
      "type": "function"
    },
    {
      "inputs": [],
      "name": "PROFIT_SHARE_BPS",
      "outputs": [
        {
          "internalType": "uint96",
          "name": "",
          "type": "uint96"
        }
      ],
      "stateMutability": "view",
      "type": "function"
    },
    {
      "inputs": [],
      "name": "acceptOwnership",
      "outputs": [],
      "stateMutability": "nonpayable",
      "type": "function"
    },
    {
      "inputs": [],
      "name": "closePeriod",
      "outputs": [],
      "stateMutability": "nonpayable",
      "type": "function"
    },
    {
      "inputs": [
        {
          "internalType": "address",
          "name": "buyer",
          "type": "address"
        },
        {
          "internalType": "uint256",
          "name": "amount",
          "type": "uint256"
        }
      ],
      "name": "depositRaisedFrom",
      "outputs": [],
      "stateMutability": "nonpayable",
      "type": "function"
    },
    {
      "inputs": [
        {
          "internalType": "uint256",
          "name": "amount",
          "type": "uint256"
        }
      ],
      "name": "depositRevenue",
      "outputs": [],
      "stateMutability": "nonpayable",
      "type": "function"
    },
    {
      "inputs": [],
      "name": "distributor",
      "outputs": [
        {
          "internalType": "address",
          "name": "",
          "type": "address"
        }
      ],
      "stateMutability": "view",
      "type": "function"
    },
    {
      "inputs": [
        {
          "internalType": "uint256",
          "name": "amount",
          "type": "uint256"
        },
        {
          "internalType": "address",
          "name": "to",
          "type": "address"
        }
      ],
      "name": "emergencyWithdraw",
      "outputs": [],
      "stateMutability": "nonpayable",
      "type": "function"
    },
    {
      "inputs": [],
      "name": "getBalance",
      "outputs": [
        {
          "internalType": "uint256",
          "name": "",
          "type": "uint256"
        }
      ],
      "stateMutability": "view",
      "type": "function"
    },
    {
      "inputs": [],
      "name": "getVaultStatus",
      "outputs": [
        {
          "internalType": "uint256",
          "name": "_raisedTotal",
          "type": "uint256"
        },
        {
          "internalType": "uint256",
          "name": "_raisedWithdrawn",
          "type": "uint256"
        },
        {
          "internalType": "uint256",
          "name": "_totalRevenue",
          "type": "uint256"
        },
        {
          "internalType": "uint256",
          "name": "_totalDistributed",
          "type": "uint256"
        },
        {
          "internalType": "uint256",
          "name": "_periodRevenue",
          "type": "uint256"
        },
        {
          "internalType": "uint256",
          "name": "_periodExpenses",
          "type": "uint256"
        }
      ],
      "stateMutability": "view",
      "type": "function"
    },
    {
      "inputs": [
        {
          "internalType": "address",
          "name": "",
          "type": "address"
        }
      ],
      "name": "isRevenueDepositor",
      "outputs": [
        {
          "internalType": "bool",
          "name": "",
          "type": "bool"
        }
      ],
      "stateMutability": "view",
      "type": "function"
    },
    {
      "inputs": [],
      "name": "owner",
      "outputs": [
        {
          "internalType": "address",
          "name": "",
          "type": "address"
        }
      ],
      "stateMutability": "view",
      "type": "function"
    },
    {
      "inputs": [],
      "name": "ownerWithdrawable",
      "outputs": [
        {
          "internalType": "uint256",
          "name": "",
          "type": "uint256"
        }
      ],
      "stateMutability": "view",
      "type": "function"
    },
    {
      "inputs": [],
      "name": "paymentToken",
      "outputs": [
        {
          "internalType": "contract IERC20",
          "name": "",
          "type": "address"
        }
      ],
      "stateMutability": "view",
      "type": "function"
    },
    {
      "inputs": [],
      "name": "pendingOwner",
      "outputs": [
        {
          "internalType": "address",
          "name": "",
          "type": "address"
        }
      ],
      "stateMutability": "view",
      "type": "function"
    },
    {
      "inputs": [],
      "name": "periodExpenses",
      "outputs": [
        {
          "internalType": "uint256",
          "name": "",
          "type": "uint256"
        }
      ],
      "stateMutability": "view",
      "type": "function"
    },
    {
      "inputs": [],
      "name": "periodRevenue",
      "outputs": [
        {
          "internalType": "uint256",
          "name": "",
          "type": "uint256"
        }
      ],
      "stateMutability": "view",
      "type": "function"
    },
    {
      "inputs": [],
      "name": "profile",
      "outputs": [
        {
          "internalType": "address",
          "name": "",
          "type": "address"
        }
      ],
      "stateMutability": "view",
      "type": "function"
    },
    {
      "inputs": [],
      "name": "raisedTotal",
      "outputs": [
        {
          "internalType": "uint256",
          "name": "",
          "type": "uint256"
        }
      ],
      "stateMutability": "view",
      "type": "function"
    },
    {
      "inputs": [],
      "name": "raisedWithdrawBps",
      "outputs": [
        {
          "internalType": "uint96",
          "name": "",
          "type": "uint96"
        }
      ],
      "stateMutability": "view",
      "type": "function"
    },
    {
      "inputs": [],
      "name": "raisedWithdrawable",
      "outputs": [
        {
          "internalType": "uint256",
          "name": "",
          "type": "uint256"
        }
      ],
      "stateMutability": "view",
      "type": "function"
    },
    {
      "inputs": [],
      "name": "raisedWithdrawn",
      "outputs": [
        {
          "internalType": "uint256",
          "name": "",
          "type": "uint256"
        }
      ],
      "stateMutability": "view",
      "type": "function"
    },
    {
      "inputs": [],
      "name": "renounceOwnership",
      "outputs": [],
      "stateMutability": "nonpayable",
      "type": "function"
    },
    {
      "inputs": [],
      "name": "sale",
      "outputs": [
        {
          "internalType": "address",
          "name": "",
          "type": "address"
        }
      ],
      "stateMutability": "view",
      "type": "function"
    },
    {
      "inputs": [
        {
          "internalType": "address",
          "name": "_distributor",
          "type": "address"
        }
      ],
      "name": "setDistributor",
      "outputs": [],
      "stateMutability": "nonpayable",
      "type": "function"
    },
    {
      "inputs": [
        {
          "internalType": "address",
          "name": "_profile",
          "type": "address"
        }
      ],
      "name": "setProfile",
      "outputs": [],
      "stateMutability": "nonpayable",
      "type": "function"
    },
    {
      "inputs": [
        {
          "internalType": "address",
          "name": "depositor",
          "type": "address"
        },
        {
          "internalType": "bool",
          "name": "allowed",
          "type": "bool"
        }
      ],
      "name": "setRevenueDepositor",
      "outputs": [],
      "stateMutability": "nonpayable",
      "type": "function"
    },
    {
      "inputs": [
        {
          "internalType": "address",
          "name": "_sale",
          "type": "address"
        }
      ],
      "name": "setSale",
      "outputs": [],
      "stateMutability": "nonpayable",
      "type": "function"
    },
    {
      "inputs": [
        {
          "internalType": "uint256",
          "name": "amount",
          "type": "uint256"
        }
      ],
      "name": "submitExpenses",
      "outputs": [],
      "stateMutability": "nonpayable",
      "type": "function"
    },
    {
      "inputs": [],
      "name": "totalDistributed",
      "outputs": [
        {
          "internalType": "uint256",
          "name": "",
          "type": "uint256"
        }
      ],
      "stateMutability": "view",
      "type": "function"
    },
    {
      "inputs": [],
      "name": "totalExpenses",
      "outputs": [
        {
          "internalType": "uint256",
          "name": "",
          "type": "uint256"
        }
      ],
      "stateMutability": "view",
      "type": "function"
    },
    {
      "inputs": [],
      "name": "totalRevenue",
      "outputs": [
        {
          "internalType": "uint256",
          "name": "",
          "type": "uint256"
        }
      ],
      "stateMutability": "view",
      "type": "function"
    },
    {
      "inputs": [
        {
          "internalType": "address",
          "name": "newOwner",
          "type": "address"
        }
      ],
      "name": "transferOwnership",
      "outputs": [],
      "stateMutability": "nonpayable",
      "type": "function"
    },
    {
      "inputs": [
        {
          "internalType": "uint256",
          "name": "amount",
          "type": "uint256"
        },
        {
          "internalType": "address",
          "name": "to",
          "type": "address"
        }
      ],
      "name": "withdrawBusiness",
      "outputs": [],
      "stateMutability": "nonpayable",
      "type": "function"
    },
    {
      "inputs": [
        {
          "internalType": "uint256",
          "name": "amount",
          "type": "uint256"
        },
        {
          "internalType": "address",
          "name": "to",
          "type": "address"
        }
      ],
      "name": "withdrawRaised",
      "outputs": [],
      "stateMutability": "nonpayable",
      "type": "function"
    }
  ],
  "bytecode": "0x60c03461017e57601f6116c338819003918201601f19168301916001600160401b038311848410176101835780849260609460405283398101031261017e5761004781610199565b90604061005660208301610199565b910151906001600160601b0382169081830361017e576001600160a01b031692831561016857600180546001600160a01b0319908116909155600080549182168617815560405195916001600160a01b0316907f8be0079c531659141344cd1fd0a4f28419497f9722a3daafe3b4186f6b6457e09080a360016002556001600160a01b031690811561015757612710106101465760805260a05261151590816101ae823960805181818161022f015281816104a90152818161062a01528181610b1501528181610f4e01528181610f97015281816110200152611125015260a0518181816105af01526113590152f35b63162908e360e11b60005260046000fd5b63e6c4247b60e01b60005260046000fd5b631e4fbdf760e01b600052600060045260246000fd5b600080fd5b634e487b7160e01b600052604160045260246000fd5b51906001600160a01b038216820361017e5756fe608080604052600436101561001357600080fd5b600090813560e01c9081630afb2dfd14611292575080631206286e146111a957806312065fe0146110f95780632b8dbaa7146110db5780632f940c7014610fc65780633013ce2914610f8157806336022ee814610ec157806336af50fd14610e395780633ec789cf14610e1b578063507a732814610a7d578063673d1a1714610a5f5780636ad1fe0214610a36578063715018a6146109d157806375619ab51461094957806379ba5097146108c45780637bd35af8146108a657806385a04f6f146108115780638da5cb5b146107ea578063ab60636c146107c1578063ad4788371461079e578063aede67ea14610756578063bc1ca3e9146105f1578063bf2d9e0b146105d3578063bf4879f01461058a578063bfe1092814610561578063bff33cea14610543578063c0e9ce5414610526578063cab2556e14610509578063cacd69c014610422578063d4a081e7146103e3578063e0b6a1e314610348578063e30c39781461031f578063efca2eed14610301578063f2fde38b14610294578063f82d288d146101cc5763febd7df2146101ad57600080fd5b346101c957806003193601126101c9576020604051611b588152f35b80fd5b50346101c95760403660031901126101c9576101e66112c9565b600b5460243591906001600160a01b031633036102855781156102765760207f96a653f37606079e67ef7780b058579b147554d1e6c037db00e2ce7f6248ab89916102538430837f0000000000000000000000000000000000000000000000000000000000000000611434565b61025f846003546112df565b6003556040519384526001600160a01b031692a280f35b63162908e360e11b8352600483fd5b6368bacf2160e11b8352600483fd5b50346101c95760203660031901126101c9576102ae6112c9565b6102b66113ad565b600180546001600160a01b0319166001600160a01b0392831690811790915582549091167f38d16b8cac22d99fc7c124b9cd0de2d3fa1faef420bfe791d8c362d765e227008380a380f35b50346101c957806003193601126101c9576020600754604051908152f35b50346101c957806003193601126101c9576001546040516001600160a01b039091168152602090f35b50346101c95760203660031901126101c9576103626112c9565b61036a6113ad565b6001600160a01b031680156103d457600d5460ff8160b01c166103c557600162ff000160a01b0319168117600160b01b17600d557fc6e71e3aee3e0a9e947f36c5d655ee69031cfd09a416c744a4317f82b676e6ba8280a280f35b63a741a04560e01b8352600483fd5b63e6c4247b60e01b8252600482fd5b50346101c95760203660031901126101c95760209060ff906040906001600160a01b0361040e6112c9565b168152600e84522054166040519015158152f35b50346101c95760403660031901126101c95760043561043f6112ae565b906104486113ad565b6104506113d6565b6001600160a01b0382169182156104fa5781156104eb57600a548083116104dc57916104cd816020936104a4827ff851f0abd0151abc88c02c64748cb88a8e0f3e5fe1fef8dd4ada7e0d7257c3df97611302565b600a557f00000000000000000000000000000000000000000000000000000000000000006113f6565b604051908152a2600160025580f35b631a82a05d60e11b8552600485fd5b63162908e360e11b8452600484fd5b63e6c4247b60e01b8452600484fd5b50346101c957806003193601126101c95760206040516103e88152f35b50346101c957806003193601126101c9576020604051610fa08152f35b50346101c957806003193601126101c9576020600454604051908152f35b50346101c957806003193601126101c957600c546040516001600160a01b039091168152602090f35b50346101c957806003193601126101c95760206040516bffffffffffffffffffffffff7f0000000000000000000000000000000000000000000000000000000000000000168152f35b50346101c957806003193601126101c9576020600554604051908152f35b50346101c95760203660031901126101c957600435338252600e60205260ff604083205416156106aa575b801561069b5761064e8130337f0000000000000000000000000000000000000000000000000000000000000000611434565b61065a816005546112df565b600555610669816008546112df565b6008556040519081527f4f271dec3fe02a32d56d4f23f177ea998d107abd373f40a2a0ae7c33fc7277c760203392a280f35b63162908e360e11b8252600482fd5b600d546001600160a01b031680159081156106d5575b501561061c57634c371db360e11b8252600482fd5b60405163e904f66760e01b81523360048201529150602090829060249082905afa90811561074b57839161070c575b5015386106c0565b90506020813d602011610743575b816107276020938361130f565b8101031261073f5751801515810361073f5738610704565b8280fd5b3d915061071a565b6040513d85823e3d90fd5b50346101c957806003193601126101c95760c06003546004546005546007546008549160095493604051958652602086015260408501526060840152608083015260a0820152f35b50346101c957806003193601126101c95760206107b9611347565b604051908152f35b50346101c957806003193601126101c957600d546040516001600160a01b039091168152602090f35b50346101c957806003193601126101c957546040516001600160a01b039091168152602090f35b50346101c95760403660031901126101c95761082b6112c9565b6024359081151580920361073f576108416113ad565b6001600160a01b03169081156108975760207f73e60945fcd9aaf0863c35c2270860c620c7ab1194fac1c19fb35a2d5cdce3a291838552600e82526040852060ff1981541660ff8316179055604051908152a280f35b63e6c4247b60e01b8352600483fd5b50346101c957806003193601126101c9576020600654604051908152f35b50346101c957806003193601126101c957600154336001600160a01b039091160361093657600180546001600160a01b0319908116909155815433918116821783556001600160a01b03167f8be0079c531659141344cd1fd0a4f28419497f9722a3daafe3b4186f6b6457e08380a380f35b63118cdaa760e01b815233600452602490fd5b50346101c95760203660031901126101c9576109636112c9565b61096b6113ad565b6001600160a01b031680156103d457600d5460ff8160a81c166103c557600c80546001600160a01b0319168317905560ff60a81b1916600160a81b17600d557f86719c518c7d99ac94b3d405d462ea876ba5cd0a978461dc9a7c9862a94858868280a280f35b50346101c957806003193601126101c9576109ea6113ad565b600180546001600160a01b03199081169091558154908116825581906001600160a01b03167f8be0079c531659141344cd1fd0a4f28419497f9722a3daafe3b4186f6b6457e08280a380f35b50346101c957806003193601126101c957600b546040516001600160a01b039091168152602090f35b50346101c957806003193601126101c9576020600954604051908152f35b50346101c957806003193601126101c957610a966113ad565b610a9e6113d6565b600c546001600160a01b03168015610e0c57600854906009549083828411610dfc575b6103e884028481046103e81485151715610de857612710900490610fa0810290808204610fa01490151715610de857612710900480821115610de05750915b6040516370a0823160e01b81523060048201527f00000000000000000000000000000000000000000000000000000000000000009392906001600160a01b038516908490602081602481865afa908115610dd5578991610d9f575b50809111610d97575b508694848711610d85575b84610bd2575b877fad48006bd5fccb46a5e25e1cf4e091900c52fac23a2a557c4512e544e2dcef7d608089898989610ba983600a546112df565b600a55604051938452602084015260408301526060820152a18060085580600955600160025580f35b60405163095ea7b360e01b60208083019182526001600160a01b038616602484015260448084018990528352919391908a90610c0f60648761130f565b85519082865af1903d8a519083610d66575b50505015610d21575b5050600c548691506001600160a01b0316803b15610d1d5781906024604051809481936332fa294960e21b83528860048401525af18015610d1257610cd5575b509181608093610c9e7fad48006bd5fccb46a5e25e1cf4e091900c52fac23a2a557c4512e544e2dcef7d96946007546112df565b6007557f868441bc0e3b50e598fc39ab9d370f6cbab5ee4b02c6b19e17eec2647415609c6020604051848152a19193819395610b75565b9185610d0760809593977fad48006bd5fccb46a5e25e1cf4e091900c52fac23a2a557c4512e544e2dcef7d979561130f565b959193509193610c6a565b6040513d88823e3d90fd5b5080fd5b610d59610d5e936040519063095ea7b360e01b6020830152602482015289604482015260448152610d5360648261130f565b82611478565b611478565b388080610c2a565b91925090610d7b57503b15155b388080610c21565b6001915014610d73565b9450610d918487611302565b94610b6f565b935038610b64565b90506020813d602011610dcd575b81610dba6020938361130f565b81010312610dc9575138610b5b565b8880fd5b3d9150610dad565b6040513d8b823e3d90fd5b905091610b00565b634e487b7160e01b86526011600452602486fd5b50610e078284611302565b610ac1565b6312df801960e01b8252600482fd5b50346101c957806003193601126101c9576020600a54604051908152f35b50346101c95760203660031901126101c957610e536112c9565b610e5b6113ad565b6001600160a01b031680156103d457600d5460ff8160a01c166103c557600b80546001600160a01b0319168317905560ff60a01b1916600160a01b17600d557f5c440f49267f20468301aadd4dee6e4929708c2a2660e2a55a294aa8b4f86c9c8280a280f35b50346101c95760403660031901126101c957600435610ede6112ae565b90610ee76113ad565b610eef6113d6565b6001600160a01b0382169182156104fa5781156104eb57610f0e611347565b8211610f7257816104cd81602093610f497f20e6493495a4bd9849c787cd7372a1ea84e2ff1ae55894766b93ec1c78b1a64f966004546112df565b6004557f00000000000000000000000000000000000000000000000000000000000000006113f6565b631a82a05d60e11b8452600484fd5b50346101c957806003193601126101c9576040517f00000000000000000000000000000000000000000000000000000000000000006001600160a01b03168152602090f35b50346101c95760403660031901126101c957600435610fe36112ae565b90610fec6113ad565b610ff46113d6565b6001600160a01b0382169182156104fa5781156104eb576040516370a0823160e01b81523060048201527f0000000000000000000000000000000000000000000000000000000000000000906020816024816001600160a01b0386165afa908115610d125786916110a5575b50831161109657916104cd816020937f23d6711a1d031134a36921253c75aa59e967d38e369ac625992824315e204f20956113f6565b631e9acf1760e31b8552600485fd5b90506020813d6020116110d3575b816110c06020938361130f565b810103126110cf575138611060565b8580fd5b3d91506110b3565b50346101c957806003193601126101c9576020600854604051908152f35b50346101c957806003193601126101c9576040516370a0823160e01b81523060048201526020816024817f00000000000000000000000000000000000000000000000000000000000000006001600160a01b03165afa90811561119e578291611168575b602082604051908152f35b90506020813d602011611196575b816111836020938361130f565b81010312610d1d5760209150513861115d565b3d9150611176565b6040513d84823e3d90fd5b50346101c95760203660031901126101c9576004356111c66113ad565b801561069b57600854611b58810290808204611b58149015171561127e577faba5e5e8f9b4c6d5f8b8077abb57c77bdd3075dc4a36ad8adab91a31af20c511916127106040920460095482918061121d85846112df565b1161124e575b508161122e916112df565b60095561123d816006546112df565b60065582519182526020820152a180f35b909150819080821061126a57505061122e8580925b9150611223565b61122e9161127791611302565b8092611263565b634e487b7160e01b83526011600452602483fd5b905034610d1d5781600319360112610d1d576020906003548152f35b602435906001600160a01b03821682036112c457565b600080fd5b600435906001600160a01b03821682036112c457565b919082018092116112ec57565b634e487b7160e01b600052601160045260246000fd5b919082039182116112ec57565b90601f8019910116810190811067ffffffffffffffff82111761133157604052565b634e487b7160e01b600052604160045260246000fd5b6003546bffffffffffffffffffffffff7f000000000000000000000000000000000000000000000000000000000000000016908181029181830414901517156112ec576127109004600454808211156113a6576113a391611302565b90565b5050600090565b6000546001600160a01b031633036113c157565b63118cdaa760e01b6000523360045260246000fd5b60028054146113e55760028055565b633ee5aeb560e01b60005260046000fd5b60405163a9059cbb60e01b60208201526001600160a01b0392909216602483015260448083019390935291815261143291610d5960648361130f565b565b6040516323b872dd60e01b60208201526001600160a01b03928316602482015292909116604483015260648083019390935291815261143291610d5960848361130f565b906000602091828151910182855af1156114d3576000513d6114ca57506001600160a01b0381163b155b6114a95750565b635274afe760e01b60009081526001600160a01b0391909116600452602490fd5b600114156114a2565b6040513d6000823e3d90fdfea264697066735822122051e40655b6962dd8f6c2a77de5cf2cf0c70ce9346b0079a75c6ccbb3170b662e64736f6c634300081c0033",
  "linkReferences": {},
  "deployedLinkReferences": {}
}