{
  "_format": "hh-sol-artifact-1",
  "contractName": "EscrowFactory",
  "sourceName": "contracts/EscrowFactory.sol",
  "abi": [
    {
      "inputs": [
        {
          "internalType": "address",
          "name": "_freelancerFactory",
          "type": "address"
        },
        {
          "internalType": "address",
          "name": "_usdt",
          "type": "address"
        },
        {
          "internalType": "address",
          "name": "_platformWallet",
          "type": "address"
        },
        {
          "internalType": "uint16",
          "name": "_platformFeeBps",
          "type": "uint16"
        },
        {
          "internalType": "address",
          "name": "_resolver",
          "type": "address"
        },
        {
          "internalType": "address",
          "name": "_jobBoard",
          "type": "address"
        }
      ],
      "stateMutability": "nonpayable",
      "type": "constructor"
    },
    {
      "inputs": [],
      "name": "AmountZero",
      "type": "error"
    },
    {
      "inputs": [],
      "name": "BpsTooHigh",
      "type": "error"
    },
    {
      "inputs": [],
      "name": "ProfileMissing",
      "type": "error"
    },
    {
      "inputs": [],
      "name": "ZeroAddress",
      "type": "error"
    },
    {
      "anonymous": false,
      "inputs": [
        {
          "indexed": true,
          "internalType": "bytes32",
          "name": "jobKey",
          "type": "bytes32"
        },
        {
          "indexed": true,
          "internalType": "address",
          "name": "escrow",
          "type": "address"
        },
        {
          "indexed": true,
          "internalType": "address",
          "name": "client",
          "type": "address"
        },
        {
          "indexed": false,
          "internalType": "address",
          "name": "freelancer",
          "type": "address"
        },
        {
          "indexed": false,
          "internalType": "uint256",
          "name": "amount",
          "type": "uint256"
        },
        {
          "indexed": false,
          "internalType": "uint64",
          "name": "cancelWindowEnd",
          "type": "uint64"
        },
        {
          "indexed": false,
          "internalType": "uint64",
          "name": "deliveryDue",
          "type": "uint64"
        },
        {
          "indexed": false,
          "internalType": "uint64",
          "name": "reviewDue",
          "type": "uint64"
        }
      ],
      "name": "EscrowCreated",
      "type": "event"
    },
    {
      "anonymous": false,
      "inputs": [
        {
          "indexed": true,
          "internalType": "address",
          "name": "previousOwner",
          "type": "address"
        },
        {
          "indexed": true,
          "internalType": "address",
          "name": "newOwner",
          "type": "address"
        }
      ],
      "name": "OwnershipTransferred",
      "type": "event"
    },
    {
      "inputs": [
        {
          "internalType": "address",
          "name": "freelancer",
          "type": "address"
        },
        {
          "internalType": "uint256",
          "name": "amountUSDT",
          "type": "uint256"
        },
        {
          "internalType": "string",
          "name": "metadataURI",
          "type": "string"
        },
        {
          "internalType": "uint64",
          "name": "cancelWindowSecs",
          "type": "uint64"
        },
        {
          "internalType": "uint64",
          "name": "deliveryDueTs",
          "type": "uint64"
        },
        {
          "internalType": "uint64",
          "name": "reviewWindowSecs",
          "type": "uint64"
        },
        {
          "internalType": "uint8",
          "name": "autoApproveDefaultRating",
          "type": "uint8"
        }
      ],
      "name": "createAndFundEscrow",
      "outputs": [
        {
          "internalType": "address",
          "name": "escrowAddr",
          "type": "address"
        }
      ],
      "stateMutability": "nonpayable",
      "type": "function"
    },
    {
      "inputs": [
        {
          "internalType": "uint256",
          "name": "jobId",
          "type": "uint256"
        },
        {
          "internalType": "address",
          "name": "freelancer",
          "type": "address"
        },
        {
          "internalType": "uint256",
          "name": "amountUSDT",
          "type": "uint256"
        },
        {
          "internalType": "string",
          "name": "metadataURI",
          "type": "string"
        },
        {
          "internalType": "uint64",
          "name": "cancelWindowSecs",
          "type": "uint64"
        },
        {
          "internalType": "uint64",
          "name": "deliveryDueTs",
          "type": "uint64"
        },
        {
          "internalType": "uint64",
          "name": "reviewWindowSecs",
          "type": "uint64"
        },
        {
          "internalType": "uint8",
          "name": "autoApproveDefaultRating",
          "type": "uint8"
        }
      ],
      "name": "createAndFundEscrowForJob",
      "outputs": [
        {
          "internalType": "address",
          "name": "escrowAddr",
          "type": "address"
        }
      ],
      "stateMutability": "nonpayable",
      "type": "function"
    },
    {
      "inputs": [],
      "name": "freelancerFactory",
      "outputs": [
        {
          "internalType": "contract FreelancerFactory",
          "name": "",
          "type": "address"
        }
      ],
      "stateMutability": "view",
      "type": "function"
    },
    {
      "inputs": [],
      "name": "jobBoard",
      "outputs": [
        {
          "internalType": "contract JobBoard",
          "name": "",
          "type": "address"
        }
      ],
      "stateMutability": "view",
      "type": "function"
    },
    {
      "inputs": [],
      "name": "owner",
      "outputs": [
        {
          "internalType": "address",
          "name": "",
          "type": "address"
        }
      ],
      "stateMutability": "view",
      "type": "function"
    },
    {
      "inputs": [],
      "name": "platformFeeBps",
      "outputs": [
        {
          "internalType": "uint16",
          "name": "",
          "type": "uint16"
        }
      ],
      "stateMutability": "view",
      "type": "function"
    },
    {
      "inputs": [],
      "name": "platformWallet",
      "outputs": [
        {
          "internalType": "address",
          "name": "",
          "type": "address"
        }
      ],
      "stateMutability": "view",
      "type": "function"
    },
    {
      "inputs": [],
      "name": "renounceOwnership",
      "outputs": [],
      "stateMutability": "nonpayable",
      "type": "function"
    },
    {
      "inputs": [],
      "name": "resolver",
      "outputs": [
        {
          "internalType": "address",
          "name": "",
          "type": "address"
        }
      ],
      "stateMutability": "view",
      "type": "function"
    },
    {
      "inputs": [
        {
          "internalType": "uint16",
          "name": "_bps",
          "type": "uint16"
        },
        {
          "internalType": "address",
          "name": "_wallet",
          "type": "address"
        }
      ],
      "name": "setPlatformFee",
      "outputs": [],
      "stateMutability": "nonpayable",
      "type": "function"
    },
    {
      "inputs": [
        {
          "internalType": "address",
          "name": "_resolver",
          "type": "address"
        }
      ],
      "name": "setResolver",
      "outputs": [],
      "stateMutability": "nonpayable",
      "type": "function"
    },
    {
      "inputs": [
        {
          "internalType": "address",
          "name": "newOwner",
          "type": "address"
        }
      ],
      "name": "transferOwnership",
      "outputs": [],
      "stateMutability": "nonpayable",
      "type": "function"
    },
    {
      "inputs": [],
      "name": "usdt",
      "outputs": [
        {
          "internalType": "contract IERC20",
          "name": "",
          "type": "address"
        }
      ],
      "stateMutability": "view",
      "type": "function"
    }
  ],
  "bytecode": "0x60e0346101e357601f61375b38819003918201601f19168301916001600160401b038311848410176101e85780849260c0946040528339810103126101e357610047816101fe565b90610054602082016101fe565b610060604083016101fe565b60608301519161ffff83168084036101e35761008a60a0610083608088016101fe565b96016101fe565b9561009433610212565b61009d33610212565b6001600160a01b031690811580156101d2575b80156101c1575b80156101b0575b801561019f575b61018e576127101061017d5760a09081526001600160a01b03918216608052600180546001600160a01b03199081169484169490941790556000805461ffff60a01b19169490911b61ffff60a01b169390931790925560028054909116928216929092179091551660c052604051613501908161025a8239608051818181610538015281816107ea0152818161096701526109d1015260a05181818161057d015261070b015260c0518181816101b701526102ff0152f35b63bbf4268d60e01b60005260046000fd5b63d92e233d60e01b60005260046000fd5b506001600160a01b038716156100c5565b506001600160a01b038616156100be565b506001600160a01b038416156100b7565b506001600160a01b038316156100b0565b600080fd5b634e487b7160e01b600052604160045260246000fd5b51906001600160a01b03821682036101e357565b600080546001600160a01b039283166001600160a01b03198216811783559216907f8be0079c531659141344cd1fd0a4f28419497f9722a3daafe3b4186f6b6457e09080a356fe60a080604052600436101561001357600080fd5b600090813560e01c90816304f3bcec146105d05750806322dcd13e146105ac5780632ce606e3146105675780632f48ab7d146105225780634e543b26146104c7578063715018a61461046d5780637b19ebb8146103d65780638da5cb5b146103af578063c910558c14610283578063ccad5ff8146101e6578063eab0ba68146101a1578063f2fde38b146100db5763fa2af9da146100b057600080fd5b346100d857806003193601126100d8576001546040516001600160a01b039091168152602090f35b80fd5b50346100d85760203660031901126100d8576100f56105f5565b6100fd610d62565b6001600160a01b0316801561014d5781546001600160a01b03198116821783556001600160a01b03167f8be0079c531659141344cd1fd0a4f28419497f9722a3daafe3b4186f6b6457e08380a380f35b60405162461bcd60e51b815260206004820152602660248201527f4f776e61626c653a206e6577206f776e657220697320746865207a65726f206160448201526564647265737360d01b6064820152608490fd5b50346100d857806003193601126100d8576040517f00000000000000000000000000000000000000000000000000000000000000006001600160a01b03168152602090f35b50346100d85760403660031901126100d85760043561ffff81169081810361027f57610210610610565b610218610d62565b6001600160a01b0316918215610270576127101061026157825461ffff60a01b191660a09190911b61ffff60a01b16178255600180546001600160a01b03191691909117905580f35b63bbf4268d60e01b8352600483fd5b63d92e233d60e01b8452600484fd5b8280fd5b50346100d8576101003660031901126100d85761029e610610565b816064356001600160401b0381116103ab576102be903690600401610626565b6102c6610653565b6102ce610669565b60c435916001600160401b03831683036103a75760e4359360ff851685036103a3576102fd95604435896106ca565b7f00000000000000000000000000000000000000000000000000000000000000006001600160a01b03169290833b1561027f57604051633120906160e01b815260048035908201526001600160a01b039283166024820152911660448201819052909390928291859160649183915af192831561039657602093610386575b5050604051908152f35b816103909161067f565b3861037c565b50604051903d90823e3d90fd5b8680fd5b8580fd5b5080fd5b50346100d857806003193601126100d857546040516001600160a01b039091168152602090f35b50346100d85760e03660031901126100d8576103f06105f5565b6044356001600160401b03811161027f5761040f903690600401610626565b606435906001600160401b03821682036104695761042b610653565b92610434610669565b9460c4359660ff881688036100d85760206104578989898989896024358a6106ca565b6040516001600160a01b039091168152f35b8480fd5b50346100d857806003193601126100d857610486610d62565b80546001600160a01b03198116825581906001600160a01b03167f8be0079c531659141344cd1fd0a4f28419497f9722a3daafe3b4186f6b6457e08280a380f35b50346100d85760203660031901126100d8576104e16105f5565b6104e9610d62565b6001600160a01b03168015610513576bffffffffffffffffffffffff60a01b600254161760025580f35b63d92e233d60e01b8252600482fd5b50346100d857806003193601126100d8576040517f00000000000000000000000000000000000000000000000000000000000000006001600160a01b03168152602090f35b50346100d857806003193601126100d8576040517f00000000000000000000000000000000000000000000000000000000000000006001600160a01b03168152602090f35b50346100d857806003193601126100d85761ffff6020915460a01c16604051908152f35b9050346103ab57816003193601126103ab576002546001600160a01b03168152602090f35b600435906001600160a01b038216820361060b57565b600080fd5b602435906001600160a01b038216820361060b57565b9181601f8401121561060b578235916001600160401b03831161060b576020838186019501011161060b57565b608435906001600160401b038216820361060b57565b60a435906001600160401b038216820361060b57565b90601f801991011681019081106001600160401b038211176106a057604052565b634e487b7160e01b600052604160045260246000fd5b51906001600160401b038216820361060b57565b600098979296909591949091906001600160a01b03871615610d53578515610d4457604051630f5664e760e31b81526001600160a01b0388811660048301527f000000000000000000000000000000000000000000000000000000000000000016986020826024818d5afa918215610d39578c92610cf1575b506001600160a01b03821615610ce2578b5460015460025460405160808190526001600160a01b0391821694929091169260a01c61ffff1691906001600160401b036126418201908111911117610cce579460ff97948f948b9a98946001600160401b0398948f978f6101e09f6101e0918d9b9982918d9b612641610e8b6080513933612641608051015260018060a01b0316602061264160805101015260018060a01b037f000000000000000000000000000000000000000000000000000000000000000016604061264160805101015260606126416080510101526101c060806126418151010152816101c0612641608051010152836126416080510101376126416080510101015260a061264160805101015260c061264160805101015260e061264160805101015260018060a01b031661010061264160805101015216610120612641608051010152166101406126416080510101521661016061264160805101015216610180612641608051010152306101a061264160805101015260805190601f80199101166126416080510101030160805186f08015610cc3576040516323b872dd60e01b602082019081523360248301526001600160a01b03929092166044820181905260648083018590528252949061092660848261067f565b8780604094855193610938878661067f565b60208086527f5361666545524332303a206c6f772d6c6576656c2063616c6c206661696c6564908601525190827f00000000000000000000000000000000000000000000000000000000000000006001600160a01b03165af13d15610cb6573d906001600160401b038211610ca25784516109fe93929091906109c5601f8201601f19166020018461067f565b82523d8b602084013e5b7f00000000000000000000000000000000000000000000000000000000000000006001600160a01b0316610dba565b8051908115918215610c7b575b505015610c24578087913b156103ab57825163fab9b28560e01b81526001600160a01b03861660048201526024810187905291908290604490829084905af18015610c1a57610c06575b50833b156103a7578051632876384d60e11b815286908181600481838a5af18015610bfc57610be7575b50508051631fcbb2f960e31b8152606081600481885afa918215610bde578788928994610b87575b50815163bcc9c5ed60e01b8152946020866004818b5afa958615610b7d578a899a9b99989997610b33575b505082516001600160a01b03909816885260208801526001600160401b0390811691870191909152908116606086015216608084015233927fbb892459db619b0a9029d58f54f43c338c02be1231c93020038c63949cc838cf9060a090a490565b9197509192939495506020823d602011610b75575b81610b556020938361067f565b810103126100d857505187959094939291906001600160401b0380610ad2565b3d9150610b48565b83513d8c823e3d90fd5b93505090506060823d606011610bd6575b81610ba56060938361067f565b810103126103a357610bb6826106b6565b90610bce81610bc7602086016106b6565b94016106b6565b929138610aa7565b3d9150610b98565b513d88823e3d90fd5b81610bf19161067f565b6103a7578538610a7f565b83513d84823e3d90fd5b86610c139197929761067f565b9438610a55565b82513d89823e3d90fd5b815162461bcd60e51b815260206004820152602a60248201527f5361666545524332303a204552433230206f7065726174696f6e20646964206e6044820152691bdd081cdd58d8d9595960b21b6064820152608490fd5b8192509060209181010312610c9e57602001518015158103610c9e573880610a0b565b8780fd5b634e487b7160e01b8a52604160045260248afd5b906109fe916060906109cf565b6040513d87823e3d90fd5b634e487b7160e01b8f52604160045260248ffd5b63a2e2361360e01b8c5260048cfd5b9091506020813d602011610d31575b81610d0d6020938361067f565b81010312610d2d57516001600160a01b0381168103610d2d579038610743565b8b80fd5b3d9150610d00565b6040513d8e823e3d90fd5b6365e52d5160e11b8a5260048afd5b63d92e233d60e01b8a5260048afd5b6000546001600160a01b03163303610d7657565b606460405162461bcd60e51b815260206004820152602060248201527f4f776e61626c653a2063616c6c6572206973206e6f7420746865206f776e65726044820152fd5b91929015610e1c5750815115610dce575090565b3b15610dd75790565b60405162461bcd60e51b815260206004820152601d60248201527f416464726573733a2063616c6c20746f206e6f6e2d636f6e74726163740000006044820152606490fd5b825190915015610e2f5750805190602001fd5b6040519062461bcd60e51b8252602060048301528181519182602483015260005b838110610e725750508160006044809484010152601f80199101168101030190fd5b60208282018101516044878401015285935001610e5056fe610220806040523461045257612641803803809161001d8285610482565b833981016101c08282031261045257610035826104a5565b91610042602082016104a5565b9161004f604083016104a5565b60608301516080840151919290916001600160401b0381116104525784019080601f83011215610452578151916001600160401b03831161046c57604051916100a2601f8501601f191660200184610482565b838352602084830101116104525760005b838110610457575050600091016020015260a083015161ffff811695868203610452576100e260c086016104a5565b6100ee60e087016104a5565b6100fb61010088016104a5565b9161010961012089016104b9565b946101176101408a016104b9565b966101256101608b016104b9565b986101808b01519a60ff8c168c03610452576101a061014491016104a5565b60016000556001600160a01b0388169d9097908e158015610441575b8015610430575b801561041f575b801561040e575b80156103fd575b80156103ec575b6103db5783156103ca57612710106103b9576080528b60a05260018060a01b031660c05260e05261010052610120526101405260018060a01b0316610160526101805260018060401b031660018060401b0342160160018060401b0381116103a3576101a0526101c0526101e05261020052604051906020820192308452604083015260018060a01b0316606082015260608152610222608082610482565b51902060015560405161217390816104ce82396080518181816102c501528181610b7901528181611056015281816114c6015281816119360152611d17015260a05181818161037f015281816109ad01528181610dd30152818161158201528181611a390152611f7e015260c051818181610fd20152818161128c01528181611c3c0152611de4015260e0518161094701526101005181818161101c015281816113760152611e2c01526101205181818161024f015281816115fc0152611ff9015261014051818181610f5101526110bf0152610160518181816104510152818161090001528181610c1701528181610e48015281816113aa0152818161163f01528181611c890152611e610152610180518181816107770152610e1501526101a05181818161019a0152818161080701526119fc01526101c0518181816101c601528181610215015281816117e5015261181701526101e05181818161042301528181610b0701526118f2015261020051818181610a2e01526118400152f35b634e487b7160e01b600052601160045260246000fd5b63bbf4268d60e01b60005260046000fd5b6365e52d5160e11b60005260046000fd5b63d92e233d60e01b60005260046000fd5b506001600160a01b03891615610183565b506001600160a01b0388161561017c565b506001600160a01b03871615610175565b506001600160a01b0386161561016e565b506001600160a01b03831615610167565b506001600160a01b038e1615610160565b600080fd5b806020809284010151828286010152016100b3565b634e487b7160e01b600052604160045260246000fd5b601f909101601f19168101906001600160401b0382119082101761046c57604052565b51906001600160a01b038216820361045257565b51906001600160401b03821682036104525756fe608080604052600436101561001357600080fd5b600090813560e01c90816304f3bcec146110ab575080630695c46c14611085578063109e94cf1461104057806322dcd13e146110015780632f48ab7d14610fbc57806346a8634814610f1457806350ec709a14610e02578063725a3b4b14610b595780637a1a464d14610b2b578063805bf08a14610ae7578063916b2f8814610a5257806392c67f7214610a14578063a0d3db85146109dc578063a37dda2c14610997578063a9ac153e1461096a578063aa8c217c1461092f578063ab60636c146108ea578063b533a0cc146108c0578063b6d98b6b1461082b578063b7810853146107e7578063bbdfbfba146107c4578063bcc9c5ed146107a6578063bdd1daaa14610761578063dd3d06b914610694578063e4933ae31461036e578063f0df51b3146102a4578063f45d0bc61461027e578063fa2af9da14610239578063fd35b33c146101f55763fe5d97c81461016b57600080fd5b346101f257806003193601126101f25760606001600160401b0360025460181c16604051906001600160401b037f00000000000000000000000000000000000000000000000000000000000000001682526001600160401b037f00000000000000000000000000000000000000000000000000000000000000001660208301526040820152f35b80fd5b50346101f257806003193601126101f25760206040516001600160401b037f0000000000000000000000000000000000000000000000000000000000000000168152f35b50346101f257806003193601126101f2576040517f00000000000000000000000000000000000000000000000000000000000000006001600160a01b03168152602090f35b50346101f257806003193601126101f257602060ff60025460101c166040519015158152f35b50346101f25760203660031901126101f25760043560ff8116810361036a577f00000000000000000000000000000000000000000000000000000000000000006001600160a01b0316330361035b5760ff60025460101c1661034c57610308611a68565b60025460ff81161561033d5760081c60ff1661032e5761032790611db3565b6001815580f35b6362e6201d60e01b8252600482fd5b630a8bd16f60e21b8352600483fd5b63e405a43360e01b8252600482fd5b630836f21d60e21b8252600482fd5b5080fd5b50346101f25761037d366110ee565b7f00000000000000000000000000000000000000000000000000000000000000006001600160a01b031633036106855760025460ff8160101c166106765760ff81166106675760ff19166001176002556001600160401b038111610653576103e6600354611142565b601f81116105e8575b508083601f821160011461057857849161056d575b508160011b906000198360031b1c1916176003555b6001600160401b037f00000000000000000000000000000000000000000000000000000000000000001680610513575b5060015483907f00000000000000000000000000000000000000000000000000000000000000006001600160a01b031690813b1561050457829160448392604051948593849263a3abe42560e01b84526004840152600360248401525af18015610508576104ef575b50507f6d9e4862e2f82a8175fcd785cd60c14f21a2af0c38c0b7682015fece7158e7e490600154926104e96040519283928361175b565b0390a280f35b816104f99161117c565b6105045782386104b2565b8280fd5b6040513d84823e3d90fd5b6001600160401b034216016001600160401b038111610559576affffffffffffffff0000006002549160181b16906affffffffffffffff00000019161760025538610449565b634e487b7160e01b84526011600452602484fd5b905082013538610404565b600385526000805160206120fe833981519152915082601f198116865b8181106105cd5750106105b3575b5050600181811b01600355610419565b830135600019600384901b60f8161c1916905538806105a3565b86840135855560019094019360209384019386935001610595565b60038452601f820160051c6000805160206120fe83398151915201906020831061063d575b601f0160051c6000805160206120fe83398151915201905b81811061063257506103ef565b848155600101610625565b6000805160206120fe833981519152915061060d565b634e487b7160e01b83526041600452602483fd5b63b9f7965360e01b8452600484fd5b63e405a43360e01b8452600484fd5b633832386960e11b8352600483fd5b50346101f257806003193601126101f2576040519080600354906106b782611142565b808552916001811690811561073a57506001146106ef575b6106eb846106df8186038261117c565b604051918291826111b3565b0390f35b600381526000805160206120fe833981519152939250905b808210610720575090915081016020016106df826106cf565b919260018160209254838588010152019101909291610707565b60ff191660208087019190915292151560051b850190920192506106df91508390506106cf565b50346101f257806003193601126101f2576040517f00000000000000000000000000000000000000000000000000000000000000006001600160a01b03168152602090f35b50346101f257806003193601126101f2576020600154604051908152f35b50346101f257806003193601126101f257602060ff600254166040519015158152f35b50346101f257806003193601126101f25760206040516001600160401b037f0000000000000000000000000000000000000000000000000000000000000000168152f35b50346101f257806003193601126101f25760405190806004549061084e82611142565b808552916001811690811561073a5750600114610875576106eb846106df8186038261117c565b6004815260008051602061211e833981519152939250905b8082106108a6575090915081016020016106df826106cf565b91926001816020925483858801015201910190929161088d565b50346101f257806003193601126101f25760206001600160401b0360025460181c16604051908152f35b50346101f257806003193601126101f2576040517f00000000000000000000000000000000000000000000000000000000000000006001600160a01b03168152602090f35b50346101f257806003193601126101f25760206040517f00000000000000000000000000000000000000000000000000000000000000008152f35b50346101f257806003193601126101f25760025460405160589190911c6001600160a01b03168152602090f35b50346101f257806003193601126101f2576040517f00000000000000000000000000000000000000000000000000000000000000006001600160a01b03168152602090f35b50346101f257806003193601126101f25760ff60025460101c16610a0557610a02611933565b80f35b63e405a43360e01b8152600490fd5b50346101f257806003193601126101f257602060405160ff7f0000000000000000000000000000000000000000000000000000000000000000168152f35b50346101f257806003193601126101f25760ff60025460101c16610a0557610a78611a68565b60025460581c6001600160a01b03168015610ad8573314610ac957610a9b611c24565b6001547f4897449f1b0ce6101a99ba5e17eea100dbfc65a5eb810060f708a392668bce978280a26001815580f35b6348f5c3ed60e01b8152600490fd5b6399fcd6df60e01b8252600482fd5b50346101f257806003193601126101f25760206040516001600160401b037f0000000000000000000000000000000000000000000000000000000000000000168152f35b50346101f257806003193601126101f25760ff60025460101c16610a0557610b51611a68565b610327611783565b50346101f257610b68366110ee565b60025460ff8160101c1661067657337f00000000000000000000000000000000000000000000000000000000000000006001600160a01b0316141580610dcf575b610dc05760ff8160081c16610db15761ff001916610100176002556001600160401b03811161065357610bdd600454611142565b601f8111610d46575b508083601f8211600114610cd6578491610ccb575b508160011b906000198360031b1c1916176004555b60015483907f00000000000000000000000000000000000000000000000000000000000000006001600160a01b031690813b1561050457829160448392604051948593849263a3abe42560e01b84526004840152600560248401525af1801561050857610cb6575b50507f49e53fd224357020766ce272815e8a15c300aace14a011cfcded9335798fbd0e610cb06001549260405191829133968361175b565b0390a380f35b81610cc09161117c565b610504578238610c78565b905082013538610bfb565b6004855260008051602061211e833981519152915082601f198116865b818110610d2b575010610d11575b5050600181811b01600455610c10565b830135600019600384901b60f8161c191690553880610d01565b86840135855560019094019360209384019386935001610cf3565b60048452601f820160051c60008051602061211e833981519152019060208310610d9b575b601f0160051c60008051602061211e83398151915201905b818110610d905750610be6565b848155600101610d83565b60008051602061211e8339815191529150610d6b565b6362e6201d60e01b8452600484fd5b6348f5c3ed60e01b8452600484fd5b50337f00000000000000000000000000000000000000000000000000000000000000006001600160a01b03161415610ba9565b50346101f257806003193601126101f2577f00000000000000000000000000000000000000000000000000000000000000006001600160a01b03163303610f05576001547f00000000000000000000000000000000000000000000000000000000000000006001600160a01b03169190823b1561036a5760405190631f481a5d60e31b82526004820152818160248183875af1801561050857610ef5575b508091600154813b15610ef157829160448392604051948593849263a3abe42560e01b84526004840152600260248401525af1801561050857610ee05750f35b81610eea9161117c565b6101f25780f35b5050fd5b81610eff9161117c565b38610ea0565b631966391b60e11b8152600490fd5b50346101f25760603660031901126101f2576004359061ffff821682036101f25760243560ff8116810361036a57604435906002821015610504577f00000000000000000000000000000000000000000000000000000000000000006001600160a01b03163303610fad5760ff60025460101c16610f9e576103279293610f99611a68565b611255565b63e405a43360e01b8352600483fd5b635d154fe160e11b8352600483fd5b50346101f257806003193601126101f2576040517f00000000000000000000000000000000000000000000000000000000000000006001600160a01b03168152602090f35b50346101f257806003193601126101f257602060405161ffff7f0000000000000000000000000000000000000000000000000000000000000000168152f35b50346101f257806003193601126101f2576040517f00000000000000000000000000000000000000000000000000000000000000006001600160a01b03168152602090f35b50346101f257806003193601126101f257602060ff60025460081c166040519015158152f35b90503461036a578160031936011261036a577f00000000000000000000000000000000000000000000000000000000000000006001600160a01b03168152602090f35b90602060031983011261113d576004356001600160401b03811161113d578260238201121561113d578060040135926001600160401b03841161113d576024848301011161113d576024019190565b600080fd5b90600182811c92168015611172575b602083101461115c57565b634e487b7160e01b600052602260045260246000fd5b91607f1691611151565b90601f801991011681019081106001600160401b0382111761119d57604052565b634e487b7160e01b600052604160045260246000fd5b91909160208152825180602083015260005b8181106111e6575060409293506000838284010152601f8019910116010190565b80602080928701015160408286010152016111c5565b8181029291811591840414171561120f57565b634e487b7160e01b600052601160045260246000fd5b9190820391821161120f57565b90600282101561123f5752565b634e487b7160e01b600052602160045260246000fd5b91906002549260ff60009460081c161561174c5761ffff16612710811161173d576040516370a0823160e01b8152306004820152917f00000000000000000000000000000000000000000000000000000000000000006020846024816001600160a01b0385165afa9384156117325786946116fa575b5060028510156116e6578415611335575050507f81084fdb1640d4d17bced528639ccc751b0b4d9e399790b6d89dccf33c1b66409160a09161130b611c24565b6001549461131c6040518094611232565b80602084015280604084015260608301526080820152a2565b61135061271061134885879699976111fc565b048094611225565b938381811561163857600160ff86161061162f575b600560ff861611611626575b61ffff7f000000000000000000000000000000000000000000000000000000000000000016806115ce575b508161155d575b50506001547f00000000000000000000000000000000000000000000000000000000000000006001600160a01b031690813b156105045760405163a3abe42560e01b81526004808201929092526024810191909152828160448183865af180156115525790839161153d575b5050600154813b15610504576040516304e29d0960e51b815260ff8616600482015260248101919091529082908290604490829084905af1801561050857611528575b50509160ff60a094927f81084fdb1640d4d17bced528639ccc751b0b4d9e399790b6d89dccf33c1b664096945b846114c0575b506201000062ff0000196002541617600255600154976114a86040518097611232565b602086015216604084015260608301526080820152a2565b6114ec857f00000000000000000000000000000000000000000000000000000000000000008093611abe565b6001547ff552ca82e113ac3c539c3d617f29fcd19c172a0c75dad017555c9e109f7fe1836020604051938885526001808c1b031693a338611485565b61153382809261117c565b6101f25780611452565b816115479161117c565b61036a57813861140f565b6040513d85823e3d90fd5b7f5ce467ae5694ddb233a02ca7eb987835c5e2ea71eec0e379bf3a5e1207ae245960407f00000000000000000000000000000000000000000000000000000000000000006115ac858289611abe565b600154825195865260208601949094526001600160a01b031693a338806113a3565b61271092506115de9150866111fc565b046115e98186611225565b90806115f6575b3861139c565b611621817f000000000000000000000000000000000000000000000000000000000000000086611abe565b6115f0565b60059450611371565b60019450611365565b50506001547f00000000000000000000000000000000000000000000000000000000000000006001600160a01b0316803b156105045760405163a3abe42560e01b815260048101929092526006602483015282908290604490829084905af18015610508579260ff9260a09795927f81084fdb1640d4d17bced528639ccc751b0b4d9e399790b6d89dccf33c1b66409997956116d6575b505061147f565b816116e09161117c565b386116cf565b634e487b7160e01b86526021600452602486fd5b9093506020813d60201161172a575b816117166020938361117c565b81010312611726575192386112cb565b8580fd5b3d9150611709565b6040513d88823e3d90fd5b63bbf4268d60e01b8452600484fd5b63126ea8e960e31b8452600484fd5b90918060409360208452816020850152848401376000828201840152601f01601f1916010190565b60025460ff81169081611923575b816118f0575b816118d9575b816118c3575b5061183e5760ff60025416158061180c575b806117da575b6117d05763085de62560e01b60005260046000fd5b6117d8611c24565b565b506001600160401b037f00000000000000000000000000000000000000000000000000000000000000001642116117bb565b506001600160401b037f00000000000000000000000000000000000000000000000000000000000000001615156117b5565b7f0000000000000000000000000000000000000000000000000000000000000000600160ff8216106118bb575b600560ff8216116118b3575b61188081611db3565b7f1be1750ddd59392ba6c564a4194b0874f9295a7595042a77fc9b7f34938aa0af60206001549260ff60405191168152a2565b506005611877565b50600161186b565b6001600160401b03915060181c164211386117a3565b90506001600160401b038160181c1615159061179d565b7f00000000000000000000000000000000000000000000000000000000000000006001600160401b031615159150611797565b905060ff8160081c161590611791565b337f00000000000000000000000000000000000000000000000000000000000000006001600160a01b031614801580611a35575b611a245760ff60025416156119e1575b50600280547fff0000000000000000000000000000000000000000ffffffffffffffffffffff1633605881901b600160581b600160f81b0316919091179091556001547f7c2fb7ad28ff3012b206b788cc80d55099949fd45e69314f27fdace959bae761600080a3565b806119f1575b6117d05738611977565b506001600160401b037f0000000000000000000000000000000000000000000000000000000000000000164211156119e7565b6348f5c3ed60e01b60005260046000fd5b50337f00000000000000000000000000000000000000000000000000000000000000006001600160a01b03161415611967565b600260005414611a79576002600055565b60405162461bcd60e51b815260206004820152601f60248201527f5265656e7472616e637947756172643a207265656e7472616e742063616c6c006044820152606490fd5b60405163a9059cbb60e01b602082019081526001600160a01b039093166024820152604480820194909452928352909190611afa60648361117c565b60018060a01b031690600080604094855193611b16878661117c565b602085527f5361666545524332303a206c6f772d6c6576656c2063616c6c206661696c65646020860152519082865af13d15611c17573d906001600160401b03821161119d578451611b87949092611b78601f8201601f19166020018561117c565b83523d6000602085013e612068565b8051908115918215611bf4575b505015611b9e5750565b5162461bcd60e51b815260206004820152602a60248201527f5361666545524332303a204552433230206f7065726174696f6e20646964206e6044820152691bdd081cdd58d8d9595960b21b6064820152608490fd5b819250906020918101031261113d5760200151801515810361113d573880611b94565b91611b8792606091612068565b6040516370a0823160e01b81523060048201526000907f00000000000000000000000000000000000000000000000000000000000000006020826024816001600160a01b0385165afa918215611552578392611d7f575b5081611d11575b50506001547f00000000000000000000000000000000000000000000000000000000000000006001600160a01b0316803b156105045760405163a3abe42560e01b815260048101929092526006602483015282908290604490829084905af1801561050857611d01575b50506201000062ff0000196002541617600255565b81611d0b9161117c565b38611cec565b611d3d827f00000000000000000000000000000000000000000000000000000000000000008093611abe565b6001546040519283526001600160a01b03909116917ff552ca82e113ac3c539c3d617f29fcd19c172a0c75dad017555c9e109f7fe18390602090a33880611c82565b9091506020813d602011611dab575b81611d9b6020938361117c565b8101031261050457519038611c7b565b3d9150611d8e565b600160ff821610612060575b600560ff821611612058575b6040516370a0823160e01b8152306004820152600091907f00000000000000000000000000000000000000000000000000000000000000006020826024816001600160a01b0385165afa918215611f49578492612024575b5083908261ffff7f00000000000000000000000000000000000000000000000000000000000000001680611fc7575b505082611f54575b50506001547f00000000000000000000000000000000000000000000000000000000000000006001600160a01b03169150813b15611f315760405163a3abe42560e01b81526004808201929092526024810191909152838160448183865af18015611f4957611f35575b5060015491813b15611f31576040516304e29d0960e51b815260ff919091166004820152602481019290925282908290604490829084905af1801561050857611f1c5750506201000062ff0000196002541617600255565b611f2782809261117c565b6101f25780611cec565b8380fd5b83611f429194929461117c565b9138611ec4565b6040513d86823e3d90fd5b60407f5ce467ae5694ddb233a02ca7eb987835c5e2ea71eec0e379bf3a5e1207ae245991611fa4857f00000000000000000000000000000000000000000000000000000000000000008093611abe565b600154825195865260208601949094526001600160a01b031693a3388080611e5a565b819350611fd790612710926111fc565b049182611fe5575b80611e52565b611ff29193508290611225565b9161201e827f000000000000000000000000000000000000000000000000000000000000000083611abe565b38611fdf565b9091506020813d602011612050575b816120406020938361117c565b81010312611f3157519038611e23565b3d9150612033565b506005611dcb565b506001611dbf565b919290156120ca575081511561207c575090565b3b156120855790565b60405162461bcd60e51b815260206004820152601d60248201527f416464726573733a2063616c6c20746f206e6f6e2d636f6e74726163740000006044820152606490fd5b8251909150156120dd5750805190602001fd5b60405162461bcd60e51b81529081906120f990600483016111b3565b0390fdfec2575a0e9e593c00f959f8c92f12db2869c3395a3b0502d05e2516446f71f85b8a35acfbc15ff81a39ae7d344fd709f28e8600b4aa8c65c6b64bfe7fe36bd19ba2646970667358221220bd38a207105c6fc8e17f3a671d667863b139e1dacc9c985fe7139b8f2ec8a29e64736f6c634300081c0033a264697066735822122039d646a7ecaccf650f0dcf7789b0fe549bb32f67bac4f641b4ca4caadb1863a564736f6c634300081c0033",
  "linkReferences": {},
  "deployedLinkReferences": {}
}