{
  "_format": "hh-sol-artifact-1",
  "contractName": "EscrowFactory",
  "sourceName": "contracts/Freelancing/EscrowFactory.sol",
  "abi": [
    {
      "inputs": [
        {
          "internalType": "address",
          "name": "_freelancerFactory",
          "type": "address"
        },
        {
          "internalType": "address",
          "name": "_usdt",
          "type": "address"
        },
        {
          "internalType": "address",
          "name": "_platformWallet",
          "type": "address"
        },
        {
          "internalType": "uint16",
          "name": "_platformFeeBps",
          "type": "uint16"
        },
        {
          "internalType": "address",
          "name": "_resolver",
          "type": "address"
        },
        {
          "internalType": "address",
          "name": "_jobBoard",
          "type": "address"
        }
      ],
      "stateMutability": "nonpayable",
      "type": "constructor"
    },
    {
      "inputs": [],
      "name": "AmountZero",
      "type": "error"
    },
    {
      "inputs": [],
      "name": "BpsTooHigh",
      "type": "error"
    },
    {
      "inputs": [],
      "name": "NotOwner",
      "type": "error"
    },
    {
      "inputs": [
        {
          "internalType": "address",
          "name": "owner",
          "type": "address"
        }
      ],
      "name": "OwnableInvalidOwner",
      "type": "error"
    },
    {
      "inputs": [
        {
          "internalType": "address",
          "name": "account",
          "type": "address"
        }
      ],
      "name": "OwnableUnauthorizedAccount",
      "type": "error"
    },
    {
      "inputs": [],
      "name": "ProfileMissing",
      "type": "error"
    },
    {
      "inputs": [
        {
          "internalType": "address",
          "name": "token",
          "type": "address"
        }
      ],
      "name": "SafeERC20FailedOperation",
      "type": "error"
    },
    {
      "inputs": [],
      "name": "ZeroAddress",
      "type": "error"
    },
    {
      "anonymous": false,
      "inputs": [
        {
          "indexed": true,
          "internalType": "bytes32",
          "name": "jobKey",
          "type": "bytes32"
        },
        {
          "indexed": true,
          "internalType": "address",
          "name": "escrow",
          "type": "address"
        },
        {
          "indexed": true,
          "internalType": "address",
          "name": "client",
          "type": "address"
        },
        {
          "indexed": false,
          "internalType": "address",
          "name": "freelancer",
          "type": "address"
        },
        {
          "indexed": false,
          "internalType": "uint256",
          "name": "amount",
          "type": "uint256"
        },
        {
          "indexed": false,
          "internalType": "uint64",
          "name": "cancelWindowEnd",
          "type": "uint64"
        },
        {
          "indexed": false,
          "internalType": "uint64",
          "name": "deliveryDue",
          "type": "uint64"
        },
        {
          "indexed": false,
          "internalType": "uint64",
          "name": "reviewDue",
          "type": "uint64"
        }
      ],
      "name": "EscrowCreated",
      "type": "event"
    },
    {
      "anonymous": false,
      "inputs": [
        {
          "indexed": true,
          "internalType": "address",
          "name": "previousOwner",
          "type": "address"
        },
        {
          "indexed": true,
          "internalType": "address",
          "name": "newOwner",
          "type": "address"
        }
      ],
      "name": "OwnershipTransferred",
      "type": "event"
    },
    {
      "inputs": [
        {
          "internalType": "uint256",
          "name": "",
          "type": "uint256"
        }
      ],
      "name": "allDisputes",
      "outputs": [
        {
          "internalType": "uint256",
          "name": "jobId",
          "type": "uint256"
        },
        {
          "internalType": "address",
          "name": "escrow",
          "type": "address"
        },
        {
          "internalType": "address",
          "name": "client",
          "type": "address"
        },
        {
          "internalType": "address",
          "name": "freelancer",
          "type": "address"
        },
        {
          "internalType": "string",
          "name": "reasonURI",
          "type": "string"
        },
        {
          "internalType": "bool",
          "name": "resolved",
          "type": "bool"
        }
      ],
      "stateMutability": "view",
      "type": "function"
    },
    {
      "inputs": [
        {
          "internalType": "address",
          "name": "freelancer",
          "type": "address"
        },
        {
          "internalType": "uint256",
          "name": "amountUSDT",
          "type": "uint256"
        },
        {
          "internalType": "string",
          "name": "metadataURI",
          "type": "string"
        },
        {
          "internalType": "uint64",
          "name": "cancelWindowSecs",
          "type": "uint64"
        },
        {
          "internalType": "uint64",
          "name": "deliveryDueTs",
          "type": "uint64"
        },
        {
          "internalType": "uint64",
          "name": "reviewWindowSecs",
          "type": "uint64"
        },
        {
          "internalType": "uint8",
          "name": "autoApproveDefaultRating",
          "type": "uint8"
        }
      ],
      "name": "createAndFundEscrow",
      "outputs": [
        {
          "internalType": "address",
          "name": "escrowAddr",
          "type": "address"
        }
      ],
      "stateMutability": "nonpayable",
      "type": "function"
    },
    {
      "inputs": [
        {
          "internalType": "uint256",
          "name": "jobId",
          "type": "uint256"
        },
        {
          "internalType": "address",
          "name": "freelancer",
          "type": "address"
        },
        {
          "internalType": "uint256",
          "name": "amountUSDT",
          "type": "uint256"
        },
        {
          "internalType": "string",
          "name": "metadataURI",
          "type": "string"
        },
        {
          "internalType": "uint64",
          "name": "cancelWindowSecs",
          "type": "uint64"
        },
        {
          "internalType": "uint64",
          "name": "deliveryDueTs",
          "type": "uint64"
        },
        {
          "internalType": "uint64",
          "name": "reviewWindowSecs",
          "type": "uint64"
        },
        {
          "internalType": "uint8",
          "name": "autoApproveDefaultRating",
          "type": "uint8"
        }
      ],
      "name": "createAndFundEscrowForJob",
      "outputs": [
        {
          "internalType": "address",
          "name": "escrowAddr",
          "type": "address"
        }
      ],
      "stateMutability": "nonpayable",
      "type": "function"
    },
    {
      "inputs": [
        {
          "internalType": "address",
          "name": "",
          "type": "address"
        }
      ],
      "name": "escrowJobId",
      "outputs": [
        {
          "internalType": "uint256",
          "name": "",
          "type": "uint256"
        }
      ],
      "stateMutability": "view",
      "type": "function"
    },
    {
      "inputs": [
        {
          "internalType": "address",
          "name": "",
          "type": "address"
        }
      ],
      "name": "escrowToDisputeIndex",
      "outputs": [
        {
          "internalType": "uint256",
          "name": "",
          "type": "uint256"
        }
      ],
      "stateMutability": "view",
      "type": "function"
    },
    {
      "inputs": [],
      "name": "freelancerFactory",
      "outputs": [
        {
          "internalType": "contract FreelancerFactory",
          "name": "",
          "type": "address"
        }
      ],
      "stateMutability": "view",
      "type": "function"
    },
    {
      "inputs": [],
      "name": "getActiveDisputes",
      "outputs": [
        {
          "components": [
            {
              "internalType": "uint256",
              "name": "jobId",
              "type": "uint256"
            },
            {
              "internalType": "address",
              "name": "escrow",
              "type": "address"
            },
            {
              "internalType": "address",
              "name": "client",
              "type": "address"
            },
            {
              "internalType": "address",
              "name": "freelancer",
              "type": "address"
            },
            {
              "internalType": "string",
              "name": "reasonURI",
              "type": "string"
            },
            {
              "internalType": "bool",
              "name": "resolved",
              "type": "bool"
            }
          ],
          "internalType": "struct EscrowFactory.DisputeRecord[]",
          "name": "",
          "type": "tuple[]"
        }
      ],
      "stateMutability": "view",
      "type": "function"
    },
    {
      "inputs": [
        {
          "internalType": "uint256",
          "name": "offset",
          "type": "uint256"
        },
        {
          "internalType": "uint256",
          "name": "limit",
          "type": "uint256"
        }
      ],
      "name": "getDisputes",
      "outputs": [
        {
          "components": [
            {
              "internalType": "uint256",
              "name": "jobId",
              "type": "uint256"
            },
            {
              "internalType": "address",
              "name": "escrow",
              "type": "address"
            },
            {
              "internalType": "address",
              "name": "client",
              "type": "address"
            },
            {
              "internalType": "address",
              "name": "freelancer",
              "type": "address"
            },
            {
              "internalType": "string",
              "name": "reasonURI",
              "type": "string"
            },
            {
              "internalType": "bool",
              "name": "resolved",
              "type": "bool"
            }
          ],
          "internalType": "struct EscrowFactory.DisputeRecord[]",
          "name": "",
          "type": "tuple[]"
        }
      ],
      "stateMutability": "view",
      "type": "function"
    },
    {
      "inputs": [],
      "name": "getTotalDisputes",
      "outputs": [
        {
          "internalType": "uint256",
          "name": "",
          "type": "uint256"
        }
      ],
      "stateMutability": "view",
      "type": "function"
    },
    {
      "inputs": [
        {
          "internalType": "address",
          "name": "",
          "type": "address"
        }
      ],
      "name": "hasDispute",
      "outputs": [
        {
          "internalType": "bool",
          "name": "",
          "type": "bool"
        }
      ],
      "stateMutability": "view",
      "type": "function"
    },
    {
      "inputs": [
        {
          "internalType": "address",
          "name": "",
          "type": "address"
        }
      ],
      "name": "isEscrowValid",
      "outputs": [
        {
          "internalType": "bool",
          "name": "",
          "type": "bool"
        }
      ],
      "stateMutability": "view",
      "type": "function"
    },
    {
      "inputs": [],
      "name": "jobBoard",
      "outputs": [
        {
          "internalType": "contract JobBoard",
          "name": "",
          "type": "address"
        }
      ],
      "stateMutability": "view",
      "type": "function"
    },
    {
      "inputs": [],
      "name": "owner",
      "outputs": [
        {
          "internalType": "address",
          "name": "",
          "type": "address"
        }
      ],
      "stateMutability": "view",
      "type": "function"
    },
    {
      "inputs": [],
      "name": "platformFeeBps",
      "outputs": [
        {
          "internalType": "uint16",
          "name": "",
          "type": "uint16"
        }
      ],
      "stateMutability": "view",
      "type": "function"
    },
    {
      "inputs": [],
      "name": "platformWallet",
      "outputs": [
        {
          "internalType": "address",
          "name": "",
          "type": "address"
        }
      ],
      "stateMutability": "view",
      "type": "function"
    },
    {
      "inputs": [
        {
          "internalType": "address",
          "name": "client",
          "type": "address"
        },
        {
          "internalType": "address",
          "name": "freelancer",
          "type": "address"
        },
        {
          "internalType": "string",
          "name": "reasonURI",
          "type": "string"
        }
      ],
      "name": "recordDispute",
      "outputs": [],
      "stateMutability": "nonpayable",
      "type": "function"
    },
    {
      "inputs": [],
      "name": "renounceOwnership",
      "outputs": [],
      "stateMutability": "nonpayable",
      "type": "function"
    },
    {
      "inputs": [
        {
          "internalType": "address",
          "name": "escrowAddr",
          "type": "address"
        }
      ],
      "name": "resolveDisputeRecord",
      "outputs": [],
      "stateMutability": "nonpayable",
      "type": "function"
    },
    {
      "inputs": [],
      "name": "resolver",
      "outputs": [
        {
          "internalType": "address",
          "name": "",
          "type": "address"
        }
      ],
      "stateMutability": "view",
      "type": "function"
    },
    {
      "inputs": [
        {
          "internalType": "uint16",
          "name": "_bps",
          "type": "uint16"
        },
        {
          "internalType": "address",
          "name": "_wallet",
          "type": "address"
        }
      ],
      "name": "setPlatformFee",
      "outputs": [],
      "stateMutability": "nonpayable",
      "type": "function"
    },
    {
      "inputs": [
        {
          "internalType": "address",
          "name": "_resolver",
          "type": "address"
        }
      ],
      "name": "setResolver",
      "outputs": [],
      "stateMutability": "nonpayable",
      "type": "function"
    },
    {
      "inputs": [
        {
          "internalType": "address",
          "name": "newOwner",
          "type": "address"
        }
      ],
      "name": "transferOwnership",
      "outputs": [],
      "stateMutability": "nonpayable",
      "type": "function"
    },
    {
      "inputs": [],
      "name": "usdt",
      "outputs": [
        {
          "internalType": "contract IERC20",
          "name": "",
          "type": "address"
        }
      ],
      "stateMutability": "view",
      "type": "function"
    }
  ],
  "bytecode": "0x60e0346101f657601f614d4d38819003918201601f19168301916001600160401b038311848410176101fb5780849260c0946040528339810103126101f65761004781610211565b9061005460208201610211565b61006060408301610211565b60608301519161ffff83168093036101f65761008a60a061008360808701610211565b9501610211565b9433156101e05761009a33610225565b6100a333610225565b6001600160a01b0316801580156101cf575b80156101be575b80156101ad575b801561019c575b61018b57612710841161017a5760a0526001600160a01b03908116608052600680546001600160b01b03191660109390931b62010000600160b01b031692909217929092179055600780546001600160a01b031916928216929092179091551660c052604051614ae0908161026d823960805181818161081c015261112a015260a051818181610861015281816110e8015281816112c60152611325015260c05181818161020c01526103dd0152f35b63bbf4268d60e01b60005260046000fd5b63d92e233d60e01b60005260046000fd5b506001600160a01b038616156100ca565b506001600160a01b038516156100c3565b506001600160a01b038316156100bc565b506001600160a01b038216156100b5565b631e4fbdf760e01b600052600060045260246000fd5b600080fd5b634e487b7160e01b600052604160045260246000fd5b51906001600160a01b03821682036101f657565b600080546001600160a01b039283166001600160a01b03198216811783559216907f8be0079c531659141344cd1fd0a4f28419497f9722a3daafe3b4186f6b6457e09080a356fe6080604052600436101561001257600080fd5b6000803560e01c806303a09d18146108db57806304f3bcec146108b257806322dcd13e146108905780632ce606e31461084b5780632f48ab7d14610806578063317aa9cf1461076d5780634e543b261461071657806356d0aa41146106c257806366e6031914610683578063715018a61461063b5780637b19ebb8146105a45780638da5cb5b1461057d57806397fbc2fb1461055f578063afe7379b14610520578063ba29c5a814610484578063c910558c1461033f578063ccad5ff8146102a7578063d351a75e1461026e578063e081a5b61461023b578063eab0ba68146101f6578063f2fde38b14610182578063f639db91146101495763fa2af9da1461011a57600080fd5b3461014657806003193601126101465760065460405160109190911c6001600160a01b03168152602090f35b80fd5b5034610146576020366003190112610146576020906040906001600160a01b03610171610c03565b168152600283522054604051908152f35b50346101465760203660031901126101465761019c610c03565b6101a46116e4565b6001600160a01b031680156101e25781546001600160a01b03198116821783556001600160a01b0316600080516020614a8b8339815191528380a380f35b631e4fbdf760e01b82526004829052602482fd5b50346101465780600319360112610146576040517f00000000000000000000000000000000000000000000000000000000000000006001600160a01b03168152602090f35b50346101465760403660031901126101465761026a61025e6024356004356115fa565b604051918291826109ea565b0390f35b5034610146576020366003190112610146576020906040906001600160a01b03610296610c03565b168152600483522054604051908152f35b50346101465760403660031901126101465760043561ffff811680910361033b576102d0610c1e565b906102d96116e4565b6001600160a01b0382161561032c57612710811161031d57600680546001600160b01b0319169190911760109290921b62010000600160b01b031691909117905580f35b63bbf4268d60e01b8352600483fd5b63d92e233d60e01b8352600483fd5b5080fd5b503461014657610100366003190112610146576004359061035e610c1e565b906064356001600160401b03811161033b5761037e903690600401610c34565b610386610c61565b61038e610c77565b60c435916001600160401b03831683036104805760e4359360ff8516850361047c576001600160a01b03956103cb9594939291906044358a611099565b168082526004602052604082208490557f00000000000000000000000000000000000000000000000000000000000000006001600160a01b031693909290843b15610478579060648392836040519788948593633120906160e01b8552600485015260018060a01b031660248401528760448401525af192831561046b5760209361045b575b5050604051908152f35b8161046591610b3c565b38610451565b50604051903d90823e3d90fd5b8280fd5b8680fd5b8580fd5b50346101465760203660031901126101465761049e610c03565b338252600560205260ff60408320541615610511576001600160a01b03163381900361050257808252600360205260ff6040832054166104dc575080f35b8152600260205260056104f26040832054610a9c565b5001805460ff1916600117905580f35b6330cd747160e01b8252600482fd5b63a2e2361360e01b8252600482fd5b50346101465760203660031901126101465760209060ff906040906001600160a01b0361054b610c03565b168152600584522054166040519015158152f35b50346101465780600319360112610146576020600154604051908152f35b5034610146578060031936011261014657546040516001600160a01b039091168152602090f35b50346101465760e0366003190112610146576105be610c03565b6044356001600160401b038111610478576105dd903690600401610c34565b606435906001600160401b0382168203610637576105f9610c61565b92610602610c77565b9460c4359660ff881688036101465760206106258989898989896024358a611099565b6040516001600160a01b039091168152f35b8480fd5b50346101465780600319360112610146576106546116e4565b80546001600160a01b03198116825581906001600160a01b0316600080516020614a8b8339815191528280a380f35b50346101465760203660031901126101465760209060ff906040906001600160a01b036106ae610c03565b168152600384522054166040519015158152f35b5034610146576060366003190112610146576106dc610c03565b6106e4610c1e565b604435916001600160401b0383116107125761070761070f933690600401610c34565b929091610dbb565b80f35b8380fd5b503461014657602036600319011261014657610730610c03565b6107386116e4565b6001600160a01b0316801561075e57600780546001600160a01b03191691909117905580f35b63d92e233d60e01b8252600482fd5b50346101465760203660031901126101465760043560015481101561033b5761079590610a9c565b5080546001820154600283015460038401546001600160a01b0392831694918316926107fa92911660ff60056107cd60048501610b5f565b9301541693604051968796875260208701526040860152606085015260c0608085015260c08401906109a9565b90151560a08301520390f35b50346101465780600319360112610146576040517f00000000000000000000000000000000000000000000000000000000000000006001600160a01b03168152602090f35b50346101465780600319360112610146576040517f00000000000000000000000000000000000000000000000000000000000000006001600160a01b03168152602090f35b5034610146578060031936011261014657602061ffff60065416604051908152f35b50346101465780600319360112610146576007546040516001600160a01b039091168152602090f35b503461014657806003193601126101465760015481825b828110610976575061090390610cc9565b91805b82811061091b576040518061026a86826109ea565b60ff600561092883610a9c565b500154161561093a575b600101610906565b9061096e60019161095361094d85610a9c565b50610d57565b61095d8288610d43565b526109688187610d43565b50610c8d565b919050610932565b60ff600561098383610a9c565b5001541615610995575b6001016108f2565b906109a1600191610c8d565b91905061098d565b919082519283825260005b8481106109d5575050826000602080949584010152601f8019910116010190565b806020809284010151828286010152016109b4565b602081016020825282518091526040820191602060408360051b8301019401926000915b838310610a1d57505050505090565b9091929394602080600192603f1985820301865288519081518152848060a01b03838301511683820152848060a01b036040830151166040820152848060a01b03606083015116606082015260a080610a85608085015160c0608086015260c08501906109a9565b930151151591015297019301930191939290610a0e565b600154811015610abb5760016000526006602060002091020190600090565b634e487b7160e01b600052603260045260246000fd5b90600182811c92168015610b01575b6020831014610aeb57565b634e487b7160e01b600052602260045260246000fd5b91607f1691610ae0565b60c081019081106001600160401b03821117610b2657604052565b634e487b7160e01b600052604160045260246000fd5b601f909101601f19168101906001600160401b03821190821017610b2657604052565b9060405191826000825492610b7384610ad1565b8084529360018116908115610be15750600114610b9a575b50610b9892500383610b3c565b565b90506000929192526020600020906000915b818310610bc5575050906020610b989282010138610b8b565b6020919350806001915483858901015201910190918492610bac565b905060209250610b9894915060ff191682840152151560051b82010138610b8b565b600435906001600160a01b0382168203610c1957565b600080fd5b602435906001600160a01b0382168203610c1957565b9181601f84011215610c19578235916001600160401b038311610c195760208381860195010111610c1957565b608435906001600160401b0382168203610c1957565b60a435906001600160401b0382168203610c1957565b6000198114610c9c5760010190565b634e487b7160e01b600052601160045260246000fd5b6001600160401b038111610b265760051b60200190565b90610cd382610cb2565b610ce06040519182610b3c565b8281528092610cf1601f1991610cb2565b019060005b828110610d0257505050565b602090604051610d1181610b0b565b60008152600083820152600060408201526000606082015260606080820152600060a082015282828501015201610cf6565b8051821015610abb5760209160051b010190565b90604051610d6481610b0b565b8254815260018301546001600160a01b039081166020830152600284015481166040830152600384015416606082015291829060a09060ff90600590610dac60048201610b5f565b60808601520154161515910152565b919033600052600560205260ff60406000205416156110745733600052600360205260ff6040600020541661106e573360005260046020526040600020549260405193610e0785610b0b565b845233602085019081526001600160a01b0391821660408601908152929091166060850190815290949091906001600160401b038111610b265760405193610e59601f8301601f191660200186610b3c565b8185523682820111610c19578160009260209283880137850101526080840192835260a084019460008652600154600160401b811015610b2657806001610ea39201600155610a9c565b95909561105857518555516001850180546001600160a01b039283166001600160a01b0319918216179091559151600286018054918316918416919091179055915160038501805491909316911617905551805160048301916001600160401b038211610b2657610f148354610ad1565b601f8111611010575b50602090601f8311600114610fa55760059493929160009183610f9a575b50508160011b916000199060031b1c19161790555b019051151560ff801983541691161790556001546000198101908111610c9c573360005260026020526040600020553360005260036020526040600020600160ff19825416179055565b015190503880610f3b565b90601f1983169184600052816000209260005b818110610ff8575091600193918560059897969410610fdf575b505050811b019055610f50565b015160001960f88460031b161c19169055388080610fd2565b92936020600181928786015181550195019301610fb8565b836000526020600020601f840160051c8101916020851061104e575b601f0160051c01905b8181106110425750610f1d565b60008155600101611035565b909150819061102c565b634e487b7160e01b600052600060045260246000fd5b50505050565b63a2e2361360e01b60005260046000fd5b51906001600160401b0382168203610c1957565b60009897949690959194929392916001600160a01b038716156115de5785156115cf57604051630f5664e760e31b81526001600160a01b0388811660048301529098906020908a9060249082907f0000000000000000000000000000000000000000000000000000000000000000165afa9889156115c4578b9961157c575b506001600160a01b0389161561156d577f00000000000000000000000000000000000000000000000000000000000000009860065460018060a01b036007541690604051988961337d81011060018060401b0361337d8c011117611559579260ff95928f928b9996938f9b8f978f6101c06101e09f8f9092859f9c93869461337d61170e85393361337d9485019081526001600160a01b0391821660208201529116604082015260608101919091526080810183905291909101919091528d018e013761337d8b01808b018d019190915261ffff821660a082015260109190911c6001600160a01b0390811660c083015260e082019290925291166101008201526001600160401b03918216610120820152918116610140830152919091166101608201529116610180820152306101a0820152601f909101601f19160103019086f0801561154e5760018060a01b031692602086604051828101906323b872dd60e01b82523360248201528760448201528560648201526064815261129f608482610b3c565b519082855af11561154e5785513d61154557506001600160a01b0381163b155b61152a57507f00000000000000000000000000000000000000000000000000000000000000006001600160a01b03163b156106375760405163fab9b28560e01b81526001600160a01b0383811660048301526024820185905286908290604490829084907f0000000000000000000000000000000000000000000000000000000000000000165af180156114eb57611516575b50828552600560205260408520805460ff19166001179055823b1561063757604051632876384d60e11b81528590818160048183895af1801561150b576114f6575b5050604051631fcbb2f960e31b8152606081600481875afa9081156114eb578687918893611495575b5060405163bcc9c5ed60e01b8152936020856004818a5afa94851561148a57899561144d575b50604080516001600160a01b03909716875260208701919091526001600160401b03918216908601529081166060850152166080830152929350909133918391907fbb892459db619b0a9029d58f54f43c338c02be1231c93020038c63949cc838cf9060a090a490565b9094506020813d602011611482575b8161146960209383610b3c565b8101031261147e5751969750879693866113e3565b8880fd5b3d915061145c565b6040513d8b823e3d90fd5b925050506060813d6060116114e3575b816114b260609383610b3c565b81010312610480576114c381611085565b6114db60406114d460208501611085565b9301611085565b9190386113bd565b3d91506114a5565b6040513d88823e3d90fd5b8161150091610b3c565b610637578438611394565b6040513d84823e3d90fd5b8561152391969296610b3c565b9338611352565b635274afe760e01b86526001600160a01b0316600452602485fd5b600114156112bf565b6040513d87823e3d90fd5b634e487b7160e01b8f52604160045260248ffd5b63a2e2361360e01b8b5260048bfd5b9098506020813d6020116115bc575b8161159860209383610b3c565b810103126115b857516001600160a01b03811681036115b8579738611118565b8a80fd5b3d915061158b565b6040513d8d823e3d90fd5b6365e52d5160e11b8a5260048afd5b63d92e233d60e01b8a5260048afd5b91908201809211610c9c57565b906060600154908184101561167b57508061161583856115ed565b1161166a575b5061162581610cc9565b9160005b8281106116365750505090565b8061164e61094d611649600194866115ed565b610a9c565b6116588287610d43565b526116638186610d43565b5001611629565b82810391508111610c9c573861161b565b6040519350915060009050611691602084610b3c565b8252600090815b8281106116a55750505090565b6020906040516116b481610b0b565b6000815260008382015260006040820152600084820152836080820152600060a082015282828701015201611698565b6000546001600160a01b031633036116f857565b63118cdaa760e01b6000523360045260246000fdfe610220806040523461049f5761337d803803809161001d82856104cf565b833981016101c08282031261049f57610035826104f2565b91610042602082016104f2565b9161004f604083016104f2565b60608301516080840151919290916001600160401b03811161049f5784019080601f8301121561049f578151916001600160401b0383116104b957604051916100a2601f8501601f1916602001846104cf565b8383526020848301011161049f5760005b8381106104a4575050600091016020015260a083015161ffff81169586820361049f576100e260c086016104f2565b6100ee60e087016104f2565b6100fb61010088016104f2565b916101096101208901610506565b946101176101408a01610506565b966101256101608b01610506565b986101808b01519a60ff8c168c0361049f576101a061014491016104f2565b60016000556001600160a01b0388169d9097908e15801561048e575b801561047d575b801561046c575b801561045b575b801561044a575b8015610439575b6104285783156104175761271010610406576080528b60a05260018060a01b031660c05260e05261010052610120526101405260018060a01b0316610160526101805260018060401b031660018060401b0342160160018060401b0381116103f0576101a0526101c0526101e05261020052604051906020820192308452604083015260018060a01b03166060820152606081526102226080826104cf565b519020600155604051612e62908161051b82396080518181816102ff015281816110810152818161164701528181611d210152818161240e0152612755015260a0518181816103ba01528181610bec01528181610d67015281816111cb015281816113a601528181611eca0152818161207c015281816124fc01528181612a9d0152612c30015260c0518181816115a501528181611a1b0152818161267a0152612810015260e05181610d0101526101005181818161160d01528181611b740152612858015261012051818181610289015281816121030152612cb601526101405181818161152401526117030152610160518181816105ca01528181610cba0152818161111c0152818161141b01528181611ba801528181611e4101528181611f7101528181612149015281816126c70152818161288d01528181612a140152612b33015261018051818181610a4c01528181611184015281816113e801528181611a780152611c6c01526101a0518181816101ce01528181610ad201526124b701526101c0518181816101f301528181610244015281816122b501526122e701526101e0518181816105480152818161100401526123ca015261020051818181610de801526123180152f35b634e487b7160e01b600052601160045260246000fd5b63bbf4268d60e01b60005260046000fd5b6365e52d5160e11b60005260046000fd5b63d92e233d60e01b60005260046000fd5b506001600160a01b03891615610183565b506001600160a01b0388161561017c565b506001600160a01b03871615610175565b506001600160a01b0386161561016e565b506001600160a01b03831615610167565b506001600160a01b038e1615610160565b600080fd5b806020809284010151828286010152016100b3565b634e487b7160e01b600052604160045260246000fd5b601f909101601f19168101906001600160401b038211908210176104b957604052565b51906001600160a01b038216820361049f57565b51906001600160401b038216820361049f5756fe608080604052600436101561001357600080fd5b600090813560e01c90816304f3bcec146116ef575080630695c46c146116c9578063080077a114611676578063109e94cf1461163157806322dcd13e146115f25780632f051579146115d45780632f48ab7d1461158f57806346a86348146114e757806350ec709a146113d5578063725a3b4b146110615780637a1a464d14611033578063805bf08a14610fee5780638f00c31514610ea1578063916b2f8814610e0c57806392c67f7214610dce578063a0d3db8514610d96578063a37dda2c14610d51578063a9ac153e14610d24578063aa8c217c14610ce9578063ab60636c14610ca4578063afcbdd6014610bc3578063b533a0cc14610b96578063b6d98b6b14610b01578063b781085314610abc578063bbdfbfba14610a99578063bcc9c5ed14610a7b578063bdd1daaa14610a36578063dd3d06b914610965578063de8211a9146108d7578063e35d804c146108ae578063e4933ae3146103a8578063f0df51b3146102de578063f45d0bc6146102b8578063fa2af9da14610273578063fd35b33c1461022e5763fe5d97c8146101ad57600080fd5b3461022b578060031936011261022b57600254604080516001600160401b037f0000000000000000000000000000000000000000000000000000000000000000811682527f00000000000000000000000000000000000000000000000000000000000000008116602083015260189390931c90921690820152606090f35b80fd5b503461022b578060031936011261022b576040517f00000000000000000000000000000000000000000000000000000000000000006001600160401b03168152602090f35b503461022b578060031936011261022b576040517f00000000000000000000000000000000000000000000000000000000000000006001600160a01b03168152602090f35b503461022b578060031936011261022b57602060ff60025460101c166040519015158152f35b503461022b57602036600319011261022b5760043560ff811681036103a4577f00000000000000000000000000000000000000000000000000000000000000006001600160a01b031633036103955760ff60025460101c166103865761034261252b565b60025460ff8116156103775760081c60ff1661036857610361906127df565b6001815580f35b6362e6201d60e01b8252600482fd5b630a8bd16f60e21b8352600483fd5b63e405a43360e01b8252600482fd5b630836f21d60e21b8252600482fd5b5080fd5b503461022b576103b736611903565b907f00000000000000000000000000000000000000000000000000000000000000006001600160a01b0316330361089f5760025460ff8160101c166108905760ff811615610880575b506001600160401b03821161086c5761041a600354611767565b601f811161081b575b508282601f81116001146107ab57806104439286916107a0575b50612229565b6003555b600654426001600160401b0316906001810180821161078c576040519161046d836117a1565b604051610484601f8801601f1916602001826117d2565b868152368787011161078857868660208301378760208883010152835260208301908482526040840192808452600160401b821015610760576006556104c990611732565b93909361077457518051906001600160401b038211610760576104ec8554611767565b601f811161071b575b50602090601f83116001146106b457918061051d9260029695948c926106a9575b5050612229565b84555b516001840180546001600160401b0319166001600160401b03928316179055905191909201557f0000000000000000000000000000000000000000000000000000000000000000169081610656575b505060ff60025460081c16156105c3575b7f6d9e4862e2f82a8175fcd785cd60c14f21a2af0c38c0b7682015fece7158e7e490600154926105bd60405192839260208452602084019161223c565b0390a280f35b60015483907f00000000000000000000000000000000000000000000000000000000000000006001600160a01b031690813b1561064757829160448392604051948593849263a3abe42560e01b84526004840152600360248401525af1801561064b57610632575b5050610580565b8161063c916117d2565b61064757823861062b565b8280fd5b6040513d84823e3d90fd5b016001600160401b03811161069557600280546301000000600160581b03191660189290921b6301000000600160581b0316919091179055388061056f565b634e487b7160e01b84526011600452602484fd5b015190503880610516565b858a52818a209190601f1984168b5b8181106107035750916001939185600298979694106106ea575b505050811b018455610520565b015160001960f88460031b161c191690553880806106dd565b929360206001819287860151815501950193016106c3565b858a5260208a20601f840160051c81019160208510610756575b601f0160051c01905b81811061074b57506104f5565b8a815560010161073e565b9091508190610735565b634e487b7160e01b89526041600452602489fd5b634e487b7160e01b88526004889052602488fd5b8780fd5b634e487b7160e01b86526011600452602486fd5b90508301353861043d565b5060038452600080516020612d8d8339815191529083601f198116865b8181106108005750106107e6575b5050600182811b01600355610447565b820135600019600385901b60f8161c1916905538806107d6565b858401358555600190940193602093840193879350016107c8565b60038452600080516020612d8d833981519152601f840160051c81019160208510610862575b601f0160051c01905b8181106108575750610423565b84815560010161084a565b9091508190610841565b634e487b7160e01b83526041600452602483fd5b60ff191660011760025538610400565b63e405a43360e01b8452600484fd5b633832386960e11b8352600483fd5b503461022b578060031936011261022b576005546040516001600160a01b039091168152602090f35b503461022b57602036600319011261022b57600435600654811015610930576108ff90611732565b5060018060401b036001820154169061092c61091f6002830154926117f5565b91604051938493846118da565b0390f35b60405162461bcd60e51b815260206004820152600d60248201526c092dcecc2d8d2c840d2dcc8caf609b1b6044820152606490fd5b503461022b578060031936011261022b5760405190806003549061098882611767565b8085529160018116908115610a0f57506001146109c4575b61092c846109b0818603826117d2565b604051918291602083526020830190611899565b60038152600080516020612d8d833981519152939250905b8082106109f5575090915081016020016109b0826109a0565b9192600181602092548385880101520191019092916109dc565b60ff191660208087019190915292151560051b850190920192506109b091508390506109a0565b503461022b578060031936011261022b576040517f00000000000000000000000000000000000000000000000000000000000000006001600160a01b03168152602090f35b503461022b578060031936011261022b576020600154604051908152f35b503461022b578060031936011261022b57602060ff600254166040519015158152f35b503461022b578060031936011261022b576040517f00000000000000000000000000000000000000000000000000000000000000006001600160401b03168152602090f35b503461022b578060031936011261022b57604051908060045490610b2482611767565b8085529160018116908115610a0f5750600114610b4b5761092c846109b0818603826117d2565b60048152600080516020612ded833981519152939250905b808210610b7c575090915081016020016109b0826109a0565b919260018160209254838588010152019101909291610b63565b503461022b578060031936011261022b5760025460405160189190911c6001600160401b03168152602090f35b503461022b57602036600319011261022b576004356001600160a01b038116908190036103a4577f00000000000000000000000000000000000000000000000000000000000000006001600160a01b03163303610c955760ff60025460101c16610386576005546001600160a01b038116610c86578115610c77576001600160a01b03191681176005556001547f7ba7f2073452ad5352396aae454b889f27d8b61e31820eed827ad53a11ea72158380a380f35b63d92e233d60e01b8352600483fd5b6348f5c3ed60e01b8352600483fd5b633832386960e11b8252600482fd5b503461022b578060031936011261022b576040517f00000000000000000000000000000000000000000000000000000000000000006001600160a01b03168152602090f35b503461022b578060031936011261022b5760206040517f00000000000000000000000000000000000000000000000000000000000000008152f35b503461022b578060031936011261022b5760025460405160589190911c6001600160a01b03168152602090f35b503461022b578060031936011261022b576040517f00000000000000000000000000000000000000000000000000000000000000006001600160a01b03168152602090f35b503461022b578060031936011261022b5760ff60025460101c16610dbf57610dbc61240b565b80f35b63e405a43360e01b8152600490fd5b503461022b578060031936011261022b57602060405160ff7f0000000000000000000000000000000000000000000000000000000000000000168152f35b503461022b578060031936011261022b5760ff60025460101c16610dbf57610e3261252b565b60025460581c6001600160a01b03168015610e92573314610e8357610e55612662565b6001547f4897449f1b0ce6101a99ba5e17eea100dbfc65a5eb810060f708a392668bce978280a26001815580f35b6348f5c3ed60e01b8152600490fd5b6399fcd6df60e01b8252600482fd5b503461022b578060031936011261022b576006546001600160401b038111610fda57604051610ed660208360051b01826117d2565b818152600683526020810191837ff652222313e28459528d920b65115c16c04f3efc82aaedc97be59f3f377c0d3f845b838310610f9557868587604051928392602084019060208552518091526040840160408260051b8601019392905b828210610f4357505050500390f35b919360019193955060208091603f19898203018552875190604080610f718451606085526060850190611899565b938780831b0386820151168685015201519101529601920192018594939192610f34565b60036020600192604051610fa8816117a1565b610fb1866117f5565b8152848060401b0385870154168382015260028601546040820152815201920192019190610f06565b634e487b7160e01b82526041600452602482fd5b503461022b578060031936011261022b576040517f00000000000000000000000000000000000000000000000000000000000000006001600160401b03168152602090f35b503461022b578060031936011261022b5760ff60025460101c16610dbf5761105961252b565b61036161225d565b503461022b5761107036611903565b9060025460ff8160101c16610890577f00000000000000000000000000000000000000000000000000000000000000006001600160a01b03169033821415806113a2575b6113935760ff8160081c166113845761ff001916610100176002556001600160401b0383116113705783906110ea600454611767565b601f8111611321575b508382601f82116001146112ae5790806111139285916112a35750612229565b6004555b6001547f00000000000000000000000000000000000000000000000000000000000000006001600160a01b031690813b1561129f57839160448392604051948593849263a3abe42560e01b84526004840152600560248401525af190811561129457839161127f575b50507f00000000000000000000000000000000000000000000000000000000000000006001600160a01b031690813b15610647576040516356d0aa4160e01b815260048101919091527f00000000000000000000000000000000000000000000000000000000000000006001600160a01b03166024820152606060448201529082908290818381611215606482018b8b61223c565b03925af1801561064b5761126a575b50507f49e53fd224357020766ce272815e8a15c300aace14a011cfcded9335798fbd0e61126460015492604051918291602083523396602084019161223c565b0390a380f35b81611274916117d2565b610647578238611224565b81611289916117d2565b6103a4578138611180565b6040513d85823e3d90fd5b8380fd5b90508501353861043d565b60048452600080516020612ded833981519152915085601f198116855b8181106113035750106112e9575b5050600184811b01600455611117565b840135600019600387901b60f8161c1916905538806112d9565b878401358555899650600190940193602093840193899350016112cb565b90916004905260208520601f850160051c81019160208610611366575b90601f879493920160051c01905b81811061135957506110f3565b928355859260010161134c565b909150819061133e565b634e487b7160e01b84526041600452602484fd5b6362e6201d60e01b8552600485fd5b6348f5c3ed60e01b8552600485fd5b50337f00000000000000000000000000000000000000000000000000000000000000006001600160a01b031614156110b4565b503461022b578060031936011261022b577f00000000000000000000000000000000000000000000000000000000000000006001600160a01b031633036114d8576001547f00000000000000000000000000000000000000000000000000000000000000006001600160a01b03169190823b156103a45760405190631f481a5d60e31b82526004820152818160248183875af1801561064b576114c8575b508091600154813b156114c457829160448392604051948593849263a3abe42560e01b84526004840152600260248401525af1801561064b576114b35750f35b816114bd916117d2565b61022b5780f35b5050fd5b816114d2916117d2565b38611473565b631966391b60e11b8152600490fd5b503461022b57606036600319011261022b576004359061ffff8216820361022b5760243560ff811681036103a457604435906002821015610647577f00000000000000000000000000000000000000000000000000000000000000006001600160a01b031633036115805760ff60025460101c1661157157610361929361156c61252b565b6119e4565b63e405a43360e01b8352600483fd5b635d154fe160e11b8352600483fd5b503461022b578060031936011261022b576040517f00000000000000000000000000000000000000000000000000000000000000006001600160a01b03168152602090f35b503461022b578060031936011261022b576020600654604051908152f35b503461022b578060031936011261022b57602060405161ffff7f0000000000000000000000000000000000000000000000000000000000000000168152f35b503461022b578060031936011261022b576040517f00000000000000000000000000000000000000000000000000000000000000006001600160a01b03168152602090f35b503461022b57602036600319011261022b576004356006548110156103a45761169e90611732565b506116a8816117f5565b61092c600260018060401b03600185015416930154604051938493846118da565b503461022b578060031936011261022b57602060ff60025460081c166040519015158152f35b9050346103a457816003193601126103a4577f00000000000000000000000000000000000000000000000000000000000000006001600160a01b03168152602090f35b6006548110156117515760066000526003602060002091020190600090565b634e487b7160e01b600052603260045260246000fd5b90600182811c92168015611797575b602083101461178157565b634e487b7160e01b600052602260045260246000fd5b91607f1691611776565b606081019081106001600160401b038211176117bc57604052565b634e487b7160e01b600052604160045260246000fd5b601f909101601f19168101906001600160401b038211908210176117bc57604052565b906040519182600082549261180984611767565b80845293600181169081156118775750600114611830575b5061182e925003836117d2565b565b90506000929192526020600020906000915b81831061185b57505090602061182e9282010138611821565b6020919350806001915483858901015201910190918492611842565b90506020925061182e94915060ff191682840152151560051b82010138611821565b919082519283825260005b8481106118c5575050826000602080949584010152601f8019910116010190565b806020809284010151828286010152016118a4565b6118f260409295949395606083526060830190611899565b94600180841b031660208201520152565b906020600319830112611952576004356001600160401b0381116119525782602382011215611952576004810135926001600160401b0384116119525760248483010111611952576024019190565b600080fd5b8181029291811591840414171561196a57565b634e487b7160e01b600052601160045260246000fd5b9190820391821161196a57565b9081602091031261195257516001600160a01b03811681036119525790565b6020909392919360ff60408201951681520152565b9060028210156119ce5752565b634e487b7160e01b600052602160045260246000fd5b91906002549260ff60009460081c161561221a5761ffff16612710811161220b576040516370a0823160e01b8152306004820152917f0000000000000000000000000000000000000000000000000000000000000000906020846024816001600160a01b0386165afa9384156120685786946121d7575b5060028510156121c3578415611b3257505050611a76612662565b7f00000000000000000000000000000000000000000000000000000000000000006001600160a01b0316803b1561129f5783809160246040518094819363174538b560e31b83523060048401525af18015611b2757908491611b12575b5050600080516020612dcd8339815191529160a09160015494611af960405180946119c1565b80602084015280604084015260608301526080820152a2565b81611b1c916117d2565b610647578238611ad3565b6040513d86823e3d90fd5b90929194611b4e612710611b468886611957565b048094611980565b938382811561213f57600160ff861610612136575b600560ff86161161212d575b61ffff7f000000000000000000000000000000000000000000000000000000000000000016806120d5575b5081611da0575b50506001547f00000000000000000000000000000000000000000000000000000000000000006001600160a01b031690813b1561129f5760405163a3abe42560e01b81526004808201929092526024810191909152838160448183865af18015611b2757908491611d8b575b5050600154813b1561129f57611c3d849283926040519485809481936304e29d0960e51b83528b600484016119ac565b03925af1801561129457908391611d76575b50505b84611d1b575b506002805462ff00001916620100001790557f00000000000000000000000000000000000000000000000000000000000000006001600160a01b0316803b156103a45781809160246040518094819363174538b560e31b83523060048401525af1801561064b57611d06575b505091600080516020612dcd833981519152939160ff60a09460015497611cee60405180976119c1565b602086015216604084015260608301526080820152a2565b611d118280926117d2565b61022b5780611cc4565b611d47857f00000000000000000000000000000000000000000000000000000000000000008093612568565b6001546040518681526001600160a01b0390921691600080516020612dad83398151915290602090a338611c58565b81611d80916117d2565b6103a4578138611c4f565b81611d95916117d2565b610647578238611c0d565b6005546001600160a01b031615611f6257600554611dc99083906001600160a01b031685612568565b6005546001600160a01b0316803b15611f5e578480916024604051809481936391c05b0b60e01b83528860048401525af18015611f0857908591611f49575b5050600554604051630e672fe160e01b815290602090829060049082906001600160a01b03165afa908115611f08578591611f17575b507f00000000000000000000000000000000000000000000000000000000000000006001600160a01b031690813b15611f1357859160248392604051948593849263c031eddf60e01b845260048401525af18015611f0857908591611ef3575b50505b600154906040519283526020830152600080516020612e0d833981519152604060018060a01b037f00000000000000000000000000000000000000000000000000000000000000001693a33880611ba1565b81611efd916117d2565b61129f578338611e9e565b6040513d87823e3d90fd5b8580fd5b90506020813d602011611f41575b81611f32602093836117d2565b81010312611952575138611e3e565b3d9150611f25565b81611f53916117d2565b61129f578338611e08565b8480fd5b60405163453bdd0d60e11b81527f00000000000000000000000000000000000000000000000000000000000000006001600160a01b031690602081600481855afa9081156120685786916120a6575b506001600160a01b0381169084821561207357611fce91876125a2565b803b15611f135785809160246040518094819363bc1ca3e960e01b83528960048401525af1801561206857908691612053575b50505b803b15611f5e5784809160246040518094819363c031eddf60e01b83528860048401525af18015611f085790859161203e575b5050611ea1565b81612048916117d2565b61129f578338612037565b8161205d916117d2565b611f5e578438612001565b6040513d88823e3d90fd5b90506120a191507f000000000000000000000000000000000000000000000000000000000000000086612568565b612004565b6120c8915060203d6020116120ce575b6120c081836117d2565b81019061198d565b38611fb1565b503d6120b6565b61271092506120e5915086611957565b046120f08186611980565b90806120fd575b38611b9a565b612128817f000000000000000000000000000000000000000000000000000000000000000085612568565b6120f7565b60059450611b6f565b60019450611b63565b50506001549091907f00000000000000000000000000000000000000000000000000000000000000006001600160a01b0316803b156106475760405163a3abe42560e01b815260048101929092526006602483015282908290604490829084905af1801561064b576121b3575b5090611c52565b816121bd916117d2565b386121ac565b634e487b7160e01b86526021600452602486fd5b9093506020813d602011612203575b816121f3602093836117d2565b81010312611f1357519238611a5b565b3d91506121e6565b63bbf4268d60e01b8452600484fd5b63126ea8e960e31b8452600484fd5b8160011b916000199060031b1c19161790565b908060209392818452848401376000828201840152601f01601f1916010190565b60025460ff811690816123fb575b816123c8575b816123b1575b8161239b575b506123165760ff6002541615806122e4575b806122b2575b6122aa5763085de62560e01b60005260046000fd5b61182e612662565b507f00000000000000000000000000000000000000000000000000000000000000006001600160401b03164211612295565b507f00000000000000000000000000000000000000000000000000000000000000006001600160401b0316151561228f565b7f0000000000000000000000000000000000000000000000000000000000000000600160ff821610612393575b600560ff82161161238b575b612358816127df565b7f1be1750ddd59392ba6c564a4194b0874f9295a7595042a77fc9b7f34938aa0af60206001549260ff60405191168152a2565b50600561234f565b506001612343565b60181c6001600160401b0316421190503861227d565b601881901c6001600160401b031615159150612277565b7f00000000000000000000000000000000000000000000000000000000000000006001600160401b031615159150612271565b905060ff8160081c16159061226b565b337f00000000000000000000000000000000000000000000000000000000000000006001600160a01b0316148015806124f8575b6124e75760ff60025416156124a4575b5060028054600160581b600160f81b03191633605881901b600160581b600160f81b0316919091179091556001547f7c2fb7ad28ff3012b206b788cc80d55099949fd45e69314f27fdace959bae761600080a3565b806124b4575b6122aa573861244f565b507f00000000000000000000000000000000000000000000000000000000000000006001600160401b03164211156124aa565b6348f5c3ed60e01b60005260046000fd5b50337f00000000000000000000000000000000000000000000000000000000000000006001600160a01b0316141561243f565b60026000541461253c576002600055565b633ee5aeb560e01b60005260046000fd5b6001600160a01b039091168152602081019190915260400190565b61259d61182e939261258f60405194859263a9059cbb60e01b60208501526024840161254d565b03601f1981018452836117d2565b612d25565b91909160206000604051936125da856125cc8582019363095ea7b360e01b8552896024840161254d565b03601f1981018752866117d2565b84519082855af16000513d8261263d575b5050156125f757505050565b60405163095ea7b360e01b60208201526001600160a01b0390931660248401526000604480850191909152835261182e9261259d906126376064826117d2565b82612d25565b90915061265a57506001600160a01b0381163b15155b38806125eb565b600114612653565b6040516370a0823160e01b81523060048201526000907f00000000000000000000000000000000000000000000000000000000000000006020826024816001600160a01b0385165afa9182156112945783926127ab575b508161274f575b50506001547f00000000000000000000000000000000000000000000000000000000000000006001600160a01b0316803b156106475760405163a3abe42560e01b815260048101929092526006602483015282908290604490829084905af1801561064b5761273f575b50506201000062ff0000196002541617600255565b81612749916117d2565b3861272a565b61277b827f00000000000000000000000000000000000000000000000000000000000000008093612568565b6001546040519283526001600160a01b0390911691600080516020612dad83398151915290602090a338806126c0565b9091506020813d6020116127d7575b816127c7602093836117d2565b81010312610647575190386126b9565b3d91506127ba565b600160ff821610612d1d575b600560ff821611612d15575b6040516370a0823160e01b8152306004820152600091907f00000000000000000000000000000000000000000000000000000000000000006020826024816001600160a01b0385165afa918215611b27578492612ce1575b5083908261ffff7f00000000000000000000000000000000000000000000000000000000000000001680612c84575b505082612971575b50506001547f00000000000000000000000000000000000000000000000000000000000000006001600160a01b03169150813b1561129f5760405163a3abe42560e01b81526004808201929092526024810191909152838160448183865af18015611b275790849161295c575b505060015491813b1561129f5791839161292493836040518096819582946304e29d0960e51b8452600484016119ac565b03925af1801561064b576129475750506201000062ff0000196002541617600255565b6129528280926117d2565b61022b578061272a565b81612966916117d2565b6106475782386128f3565b60055483906001600160a01b031615612b235760055461299c926001600160a01b0390911690612568565b6005546001600160a01b0316803b15611f5e578480916024604051809481936391c05b0b60e01b83528860048401525af18015611f0857908591612b0e575b5050600554604051630e672fe160e01b815290602090829060049082906001600160a01b03165afa908115611f08578591612adc575b507f00000000000000000000000000000000000000000000000000000000000000006001600160a01b031690813b15611f1357859160248392604051948593849263c031eddf60e01b845260048401525af18015611f0857908591612ac7575b50505b600154906040519283526020830152600080516020612e0d833981519152604060018060a01b037f00000000000000000000000000000000000000000000000000000000000000001693a3388080612886565b81612ad1916117d2565b61129f578338612a71565b90506020813d602011612b06575b81612af7602093836117d2565b81010312611952575138612a11565b3d9150612aea565b81612b18916117d2565b61129f5783386129db565b5060405163453bdd0d60e11b81527f00000000000000000000000000000000000000000000000000000000000000006001600160a01b03169190602081600481865afa908115612c79578791612c5a575b506001600160a01b0381169085908215612c2757612b9292936125a2565b803b15611f135785809160246040518094819363bc1ca3e960e01b83528960048401525af1801561206857612c13575b505b803b15611f5e5784809160246040518094819363c031eddf60e01b83528860048401525af18015611f0857908591612bfe575b5050612a74565b81612c08916117d2565b61129f578338612bf7565b85612c20919692966117d2565b9338612bc2565b509050612c55917f000000000000000000000000000000000000000000000000000000000000000090612568565b612bc4565b612c73915060203d6020116120ce576120c081836117d2565b38612b74565b6040513d89823e3d90fd5b819350612c949061271092611957565b049182612ca2575b8061287e565b612caf9193508290611980565b91612cdb827f000000000000000000000000000000000000000000000000000000000000000083612568565b38612c9c565b9091506020813d602011612d0d575b81612cfd602093836117d2565b8101031261129f5751903861284f565b3d9150612cf0565b5060056127f7565b5060016127eb565b906000602091828151910182855af115612d80576000513d612d7757506001600160a01b0381163b155b612d565750565b635274afe760e01b60009081526001600160a01b0391909116600452602490fd5b60011415612d4f565b6040513d6000823e3d90fdfec2575a0e9e593c00f959f8c92f12db2869c3395a3b0502d05e2516446f71f85bf552ca82e113ac3c539c3d617f29fcd19c172a0c75dad017555c9e109f7fe18381084fdb1640d4d17bced528639ccc751b0b4d9e399790b6d89dccf33c1b66408a35acfbc15ff81a39ae7d344fd709f28e8600b4aa8c65c6b64bfe7fe36bd19b5ce467ae5694ddb233a02ca7eb987835c5e2ea71eec0e379bf3a5e1207ae2459a2646970667358221220451812ba067251b04c60ea8dd5d00c8d6331f92d4ba35854ba242fa7da0bffcc64736f6c634300081c00338be0079c531659141344cd1fd0a4f28419497f9722a3daafe3b4186f6b6457e0a2646970667358221220250d49e737018c990ed917ba3489173af0453061949a3e3de1ca8cdc29a576e064736f6c634300081c0033",
  "linkReferences": {},
  "deployedLinkReferences": {}
}