{
  "_format": "hh-sol-artifact-1",
  "contractName": "EscrowFactory",
  "sourceName": "contracts/Freelancing/EscrowFactory.sol",
  "abi": [
    {
      "inputs": [
        {
          "internalType": "address",
          "name": "_freelancerFactory",
          "type": "address"
        },
        {
          "internalType": "address",
          "name": "_usdt",
          "type": "address"
        },
        {
          "internalType": "address",
          "name": "_platformWallet",
          "type": "address"
        },
        {
          "internalType": "uint16",
          "name": "_platformFeeBps",
          "type": "uint16"
        },
        {
          "internalType": "address",
          "name": "_resolver",
          "type": "address"
        },
        {
          "internalType": "address",
          "name": "_jobBoard",
          "type": "address"
        }
      ],
      "stateMutability": "nonpayable",
      "type": "constructor"
    },
    {
      "inputs": [],
      "name": "AmountZero",
      "type": "error"
    },
    {
      "inputs": [],
      "name": "BpsTooHigh",
      "type": "error"
    },
    {
      "inputs": [],
      "name": "NotOwner",
      "type": "error"
    },
    {
      "inputs": [
        {
          "internalType": "address",
          "name": "owner",
          "type": "address"
        }
      ],
      "name": "OwnableInvalidOwner",
      "type": "error"
    },
    {
      "inputs": [
        {
          "internalType": "address",
          "name": "account",
          "type": "address"
        }
      ],
      "name": "OwnableUnauthorizedAccount",
      "type": "error"
    },
    {
      "inputs": [],
      "name": "ProfileMissing",
      "type": "error"
    },
    {
      "inputs": [
        {
          "internalType": "address",
          "name": "token",
          "type": "address"
        }
      ],
      "name": "SafeERC20FailedOperation",
      "type": "error"
    },
    {
      "inputs": [],
      "name": "ZeroAddress",
      "type": "error"
    },
    {
      "anonymous": false,
      "inputs": [
        {
          "indexed": true,
          "internalType": "bytes32",
          "name": "jobKey",
          "type": "bytes32"
        },
        {
          "indexed": true,
          "internalType": "address",
          "name": "escrow",
          "type": "address"
        },
        {
          "indexed": true,
          "internalType": "address",
          "name": "client",
          "type": "address"
        },
        {
          "indexed": false,
          "internalType": "address",
          "name": "freelancer",
          "type": "address"
        },
        {
          "indexed": false,
          "internalType": "uint256",
          "name": "amount",
          "type": "uint256"
        },
        {
          "indexed": false,
          "internalType": "uint64",
          "name": "cancelWindowEnd",
          "type": "uint64"
        },
        {
          "indexed": false,
          "internalType": "uint64",
          "name": "deliveryDue",
          "type": "uint64"
        },
        {
          "indexed": false,
          "internalType": "uint64",
          "name": "reviewDue",
          "type": "uint64"
        }
      ],
      "name": "EscrowCreated",
      "type": "event"
    },
    {
      "anonymous": false,
      "inputs": [
        {
          "indexed": true,
          "internalType": "address",
          "name": "previousOwner",
          "type": "address"
        },
        {
          "indexed": true,
          "internalType": "address",
          "name": "newOwner",
          "type": "address"
        }
      ],
      "name": "OwnershipTransferred",
      "type": "event"
    },
    {
      "inputs": [
        {
          "internalType": "uint256",
          "name": "",
          "type": "uint256"
        }
      ],
      "name": "allDisputes",
      "outputs": [
        {
          "internalType": "uint256",
          "name": "jobId",
          "type": "uint256"
        },
        {
          "internalType": "address",
          "name": "escrow",
          "type": "address"
        },
        {
          "internalType": "address",
          "name": "client",
          "type": "address"
        },
        {
          "internalType": "address",
          "name": "freelancer",
          "type": "address"
        },
        {
          "internalType": "string",
          "name": "reasonURI",
          "type": "string"
        },
        {
          "internalType": "bool",
          "name": "resolved",
          "type": "bool"
        }
      ],
      "stateMutability": "view",
      "type": "function"
    },
    {
      "inputs": [
        {
          "internalType": "address",
          "name": "freelancer",
          "type": "address"
        },
        {
          "internalType": "uint256",
          "name": "amountUSDT",
          "type": "uint256"
        },
        {
          "internalType": "string",
          "name": "metadataURI",
          "type": "string"
        },
        {
          "internalType": "uint64",
          "name": "cancelWindowSecs",
          "type": "uint64"
        },
        {
          "internalType": "uint64",
          "name": "deliveryDueTs",
          "type": "uint64"
        },
        {
          "internalType": "uint64",
          "name": "reviewWindowSecs",
          "type": "uint64"
        },
        {
          "internalType": "uint8",
          "name": "autoApproveDefaultRating",
          "type": "uint8"
        }
      ],
      "name": "createAndFundEscrow",
      "outputs": [
        {
          "internalType": "address",
          "name": "escrowAddr",
          "type": "address"
        }
      ],
      "stateMutability": "nonpayable",
      "type": "function"
    },
    {
      "inputs": [
        {
          "internalType": "uint256",
          "name": "jobId",
          "type": "uint256"
        },
        {
          "internalType": "address",
          "name": "freelancer",
          "type": "address"
        },
        {
          "internalType": "uint256",
          "name": "amountUSDT",
          "type": "uint256"
        },
        {
          "internalType": "string",
          "name": "metadataURI",
          "type": "string"
        },
        {
          "internalType": "uint64",
          "name": "cancelWindowSecs",
          "type": "uint64"
        },
        {
          "internalType": "uint64",
          "name": "deliveryDueTs",
          "type": "uint64"
        },
        {
          "internalType": "uint64",
          "name": "reviewWindowSecs",
          "type": "uint64"
        },
        {
          "internalType": "uint8",
          "name": "autoApproveDefaultRating",
          "type": "uint8"
        }
      ],
      "name": "createAndFundEscrowForJob",
      "outputs": [
        {
          "internalType": "address",
          "name": "escrowAddr",
          "type": "address"
        }
      ],
      "stateMutability": "nonpayable",
      "type": "function"
    },
    {
      "inputs": [
        {
          "internalType": "address",
          "name": "",
          "type": "address"
        }
      ],
      "name": "escrowJobId",
      "outputs": [
        {
          "internalType": "uint256",
          "name": "",
          "type": "uint256"
        }
      ],
      "stateMutability": "view",
      "type": "function"
    },
    {
      "inputs": [
        {
          "internalType": "address",
          "name": "",
          "type": "address"
        }
      ],
      "name": "escrowToDisputeIndex",
      "outputs": [
        {
          "internalType": "uint256",
          "name": "",
          "type": "uint256"
        }
      ],
      "stateMutability": "view",
      "type": "function"
    },
    {
      "inputs": [],
      "name": "freelancerFactory",
      "outputs": [
        {
          "internalType": "contract FreelancerFactory",
          "name": "",
          "type": "address"
        }
      ],
      "stateMutability": "view",
      "type": "function"
    },
    {
      "inputs": [],
      "name": "getActiveDisputes",
      "outputs": [
        {
          "components": [
            {
              "internalType": "uint256",
              "name": "jobId",
              "type": "uint256"
            },
            {
              "internalType": "address",
              "name": "escrow",
              "type": "address"
            },
            {
              "internalType": "address",
              "name": "client",
              "type": "address"
            },
            {
              "internalType": "address",
              "name": "freelancer",
              "type": "address"
            },
            {
              "internalType": "string",
              "name": "reasonURI",
              "type": "string"
            },
            {
              "internalType": "bool",
              "name": "resolved",
              "type": "bool"
            }
          ],
          "internalType": "struct EscrowFactory.DisputeRecord[]",
          "name": "",
          "type": "tuple[]"
        }
      ],
      "stateMutability": "view",
      "type": "function"
    },
    {
      "inputs": [
        {
          "internalType": "uint256",
          "name": "offset",
          "type": "uint256"
        },
        {
          "internalType": "uint256",
          "name": "limit",
          "type": "uint256"
        }
      ],
      "name": "getDisputes",
      "outputs": [
        {
          "components": [
            {
              "internalType": "uint256",
              "name": "jobId",
              "type": "uint256"
            },
            {
              "internalType": "address",
              "name": "escrow",
              "type": "address"
            },
            {
              "internalType": "address",
              "name": "client",
              "type": "address"
            },
            {
              "internalType": "address",
              "name": "freelancer",
              "type": "address"
            },
            {
              "internalType": "string",
              "name": "reasonURI",
              "type": "string"
            },
            {
              "internalType": "bool",
              "name": "resolved",
              "type": "bool"
            }
          ],
          "internalType": "struct EscrowFactory.DisputeRecord[]",
          "name": "",
          "type": "tuple[]"
        }
      ],
      "stateMutability": "view",
      "type": "function"
    },
    {
      "inputs": [],
      "name": "getTotalDisputes",
      "outputs": [
        {
          "internalType": "uint256",
          "name": "",
          "type": "uint256"
        }
      ],
      "stateMutability": "view",
      "type": "function"
    },
    {
      "inputs": [
        {
          "internalType": "address",
          "name": "",
          "type": "address"
        }
      ],
      "name": "hasDispute",
      "outputs": [
        {
          "internalType": "bool",
          "name": "",
          "type": "bool"
        }
      ],
      "stateMutability": "view",
      "type": "function"
    },
    {
      "inputs": [
        {
          "internalType": "address",
          "name": "",
          "type": "address"
        }
      ],
      "name": "isEscrowValid",
      "outputs": [
        {
          "internalType": "bool",
          "name": "",
          "type": "bool"
        }
      ],
      "stateMutability": "view",
      "type": "function"
    },
    {
      "inputs": [],
      "name": "jobBoard",
      "outputs": [
        {
          "internalType": "contract JobBoard",
          "name": "",
          "type": "address"
        }
      ],
      "stateMutability": "view",
      "type": "function"
    },
    {
      "inputs": [],
      "name": "owner",
      "outputs": [
        {
          "internalType": "address",
          "name": "",
          "type": "address"
        }
      ],
      "stateMutability": "view",
      "type": "function"
    },
    {
      "inputs": [],
      "name": "platformFeeBps",
      "outputs": [
        {
          "internalType": "uint16",
          "name": "",
          "type": "uint16"
        }
      ],
      "stateMutability": "view",
      "type": "function"
    },
    {
      "inputs": [],
      "name": "platformWallet",
      "outputs": [
        {
          "internalType": "address",
          "name": "",
          "type": "address"
        }
      ],
      "stateMutability": "view",
      "type": "function"
    },
    {
      "inputs": [
        {
          "internalType": "address",
          "name": "client",
          "type": "address"
        },
        {
          "internalType": "address",
          "name": "freelancer",
          "type": "address"
        },
        {
          "internalType": "string",
          "name": "reasonURI",
          "type": "string"
        }
      ],
      "name": "recordDispute",
      "outputs": [],
      "stateMutability": "nonpayable",
      "type": "function"
    },
    {
      "inputs": [],
      "name": "renounceOwnership",
      "outputs": [],
      "stateMutability": "nonpayable",
      "type": "function"
    },
    {
      "inputs": [
        {
          "internalType": "address",
          "name": "escrowAddr",
          "type": "address"
        }
      ],
      "name": "resolveDisputeRecord",
      "outputs": [],
      "stateMutability": "nonpayable",
      "type": "function"
    },
    {
      "inputs": [],
      "name": "resolver",
      "outputs": [
        {
          "internalType": "address",
          "name": "",
          "type": "address"
        }
      ],
      "stateMutability": "view",
      "type": "function"
    },
    {
      "inputs": [
        {
          "internalType": "uint16",
          "name": "_bps",
          "type": "uint16"
        },
        {
          "internalType": "address",
          "name": "_wallet",
          "type": "address"
        }
      ],
      "name": "setPlatformFee",
      "outputs": [],
      "stateMutability": "nonpayable",
      "type": "function"
    },
    {
      "inputs": [
        {
          "internalType": "address",
          "name": "_resolver",
          "type": "address"
        }
      ],
      "name": "setResolver",
      "outputs": [],
      "stateMutability": "nonpayable",
      "type": "function"
    },
    {
      "inputs": [
        {
          "internalType": "address",
          "name": "newOwner",
          "type": "address"
        }
      ],
      "name": "transferOwnership",
      "outputs": [],
      "stateMutability": "nonpayable",
      "type": "function"
    },
    {
      "inputs": [],
      "name": "usdt",
      "outputs": [
        {
          "internalType": "contract IERC20",
          "name": "",
          "type": "address"
        }
      ],
      "stateMutability": "view",
      "type": "function"
    }
  ],
  "bytecode": "0x60e0346101f657601f614da838819003918201601f19168301916001600160401b038311848410176101fb5780849260c0946040528339810103126101f65761004781610211565b9061005460208201610211565b61006060408301610211565b60608301519161ffff83168093036101f65761008a60a061008360808701610211565b9501610211565b9433156101e05761009a33610225565b6100a333610225565b6001600160a01b0316801580156101cf575b80156101be575b80156101ad575b801561019c575b61018b57612710841161017a5760a0526001600160a01b03908116608052600680546001600160b01b03191660109390931b62010000600160b01b031692909217929092179055600780546001600160a01b031916928216929092179091551660c052604051614b3b908161026d8239608051818181610843015261114b015260a05181818161088801528181611109015281816112f10152611350015260c05181818161021e01526103ee0152f35b63bbf4268d60e01b60005260046000fd5b63d92e233d60e01b60005260046000fd5b506001600160a01b038616156100ca565b506001600160a01b038516156100c3565b506001600160a01b038316156100bc565b506001600160a01b038216156100b5565b631e4fbdf760e01b600052600060045260246000fd5b600080fd5b634e487b7160e01b600052604160045260246000fd5b51906001600160a01b03821682036101f657565b600080546001600160a01b039283166001600160a01b03198216811783559216907f8be0079c531659141344cd1fd0a4f28419497f9722a3daafe3b4186f6b6457e09080a356fe6080604052600436101561001257600080fd5b6000803560e01c806303a09d181461090257806304f3bcec146108d957806322dcd13e146108b75780632ce606e3146108725780632f48ab7d1461082d578063317aa9cf146107945780634e543b261461073957806356d0aa41146106e557806366e60319146106a6578063715018a61461064c5780637b19ebb8146105b55780638da5cb5b1461058e57806397fbc2fb14610570578063afe7379b14610531578063ba29c5a814610495578063c910558c14610350578063ccad5ff8146102b9578063d351a75e14610280578063e081a5b61461024d578063eab0ba6814610208578063f2fde38b14610182578063f639db91146101495763fa2af9da1461011a57600080fd5b3461014657806003193601126101465760065460405160109190911c6001600160a01b03168152602090f35b80fd5b5034610146576020366003190112610146576020906040906001600160a01b03610171610c28565b168152600283522054604051908152f35b50346101465760203660031901126101465761019c610c28565b6101a4611715565b6001600160a01b031680156101f45781546001600160a01b03198116821783556001600160a01b03167f8be0079c531659141344cd1fd0a4f28419497f9722a3daafe3b4186f6b6457e08380a380f35b631e4fbdf760e01b82526004829052602482fd5b50346101465780600319360112610146576040517f00000000000000000000000000000000000000000000000000000000000000006001600160a01b03168152602090f35b50346101465760403660031901126101465761027c61027060243560043561162b565b60405191829182610a11565b0390f35b5034610146576020366003190112610146576020906040906001600160a01b036102a8610c28565b168152600483522054604051908152f35b50346101465760403660031901126101465760043561ffff811680910361034c576102e2610c43565b906102eb611715565b6001600160a01b0382161561033d57612710811161032e576006549162010000600160b01b039060101b169169ffffffffffffffffffff60b01b16171760065580f35b63bbf4268d60e01b8352600483fd5b63d92e233d60e01b8352600483fd5b5080fd5b503461014657610100366003190112610146576004359061036f610c43565b906064356001600160401b03811161034c5761038f903690600401610c59565b610397610c86565b61039f610c9c565b60c435916001600160401b03831683036104915760e4359360ff8516850361048d576001600160a01b03956103dc9594939291906044358a6110bf565b168082526004602052604082208490557f00000000000000000000000000000000000000000000000000000000000000006001600160a01b031693909290843b15610489579060648392836040519788948593633120906160e01b8552600485015260018060a01b031660248401528760448401525af192831561047c5760209361046c575b5050604051908152f35b8161047691610b63565b38610462565b50604051903d90823e3d90fd5b8280fd5b8680fd5b8580fd5b5034610146576020366003190112610146576104af610c28565b338252600560205260ff60408320541615610522576001600160a01b03163381900361051357808252600360205260ff6040832054166104ed575080f35b8152600260205260056105036040832054610ac3565b5001805460ff1916600117905580f35b6330cd747160e01b8252600482fd5b63a2e2361360e01b8252600482fd5b50346101465760203660031901126101465760209060ff906040906001600160a01b0361055c610c28565b168152600584522054166040519015158152f35b50346101465780600319360112610146576020600154604051908152f35b5034610146578060031936011261014657546040516001600160a01b039091168152602090f35b50346101465760e0366003190112610146576105cf610c28565b6044356001600160401b038111610489576105ee903690600401610c59565b606435906001600160401b03821682036106485761060a610c86565b92610613610c9c565b9460c4359660ff881688036101465760206106368989898989896024358a6110bf565b6040516001600160a01b039091168152f35b8480fd5b5034610146578060031936011261014657610665611715565b80546001600160a01b03198116825581906001600160a01b03167f8be0079c531659141344cd1fd0a4f28419497f9722a3daafe3b4186f6b6457e08280a380f35b50346101465760203660031901126101465760209060ff906040906001600160a01b036106d1610c28565b168152600384522054166040519015158152f35b5034610146576060366003190112610146576106ff610c28565b610707610c43565b604435916001600160401b0383116107355761072a610732933690600401610c59565b929091610de0565b80f35b8380fd5b503461014657602036600319011261014657610753610c28565b61075b611715565b6001600160a01b03168015610785576bffffffffffffffffffffffff60a01b600754161760075580f35b63d92e233d60e01b8252600482fd5b50346101465760203660031901126101465760043560015481101561034c576107bc90610ac3565b5080546001820154600283015460038401546001600160a01b03928316949183169261082192911660ff60056107f460048501610b84565b9301541693604051968796875260208701526040860152606085015260c0608085015260c08401906109d0565b90151560a08301520390f35b50346101465780600319360112610146576040517f00000000000000000000000000000000000000000000000000000000000000006001600160a01b03168152602090f35b50346101465780600319360112610146576040517f00000000000000000000000000000000000000000000000000000000000000006001600160a01b03168152602090f35b5034610146578060031936011261014657602061ffff60065416604051908152f35b50346101465780600319360112610146576007546040516001600160a01b039091168152602090f35b503461014657806003193601126101465760015481825b82811061099d575061092a90610cee565b91805b828110610942576040518061027c8682610a11565b60ff600561094f83610ac3565b5001541615610961575b60010161092d565b9061099560019161097a61097485610ac3565b50610d7c565b6109848288610d68565b5261098f8187610d68565b50610cb2565b919050610959565b60ff60056109aa83610ac3565b50015416156109bc575b600101610919565b906109c8600191610cb2565b9190506109b4565b919082519283825260005b8481106109fc575050826000602080949584010152601f8019910116010190565b806020809284010151828286010152016109db565b602081016020825282518091526040820191602060408360051b8301019401926000915b838310610a4457505050505090565b9091929394602080600192603f1985820301865288519081518152848060a01b03838301511683820152848060a01b036040830151166040820152848060a01b03606083015116606082015260a080610aac608085015160c0608086015260c08501906109d0565b930151151591015297019301930191939290610a35565b600154811015610ae25760016000526006602060002091020190600090565b634e487b7160e01b600052603260045260246000fd5b90600182811c92168015610b28575b6020831014610b1257565b634e487b7160e01b600052602260045260246000fd5b91607f1691610b07565b60c081019081106001600160401b03821117610b4d57604052565b634e487b7160e01b600052604160045260246000fd5b90601f801991011681019081106001600160401b03821117610b4d57604052565b9060405191826000825492610b9884610af8565b8084529360018116908115610c065750600114610bbf575b50610bbd92500383610b63565b565b90506000929192526020600020906000915b818310610bea575050906020610bbd9282010138610bb0565b6020919350806001915483858901015201910190918492610bd1565b905060209250610bbd94915060ff191682840152151560051b82010138610bb0565b600435906001600160a01b0382168203610c3e57565b600080fd5b602435906001600160a01b0382168203610c3e57565b9181601f84011215610c3e578235916001600160401b038311610c3e5760208381860195010111610c3e57565b608435906001600160401b0382168203610c3e57565b60a435906001600160401b0382168203610c3e57565b6000198114610cc15760010190565b634e487b7160e01b600052601160045260246000fd5b6001600160401b038111610b4d5760051b60200190565b90610cf882610cd7565b610d056040519182610b63565b8281528092610d16601f1991610cd7565b019060005b828110610d2757505050565b602090604051610d3681610b32565b60008152600083820152600060408201526000606082015260606080820152600060a082015282828501015201610d1b565b8051821015610ae25760209160051b010190565b90604051610d8981610b32565b8254815260018301546001600160a01b039081166020830152600284015481166040830152600384015416606082015291829060a09060ff90600590610dd160048201610b84565b60808601520154161515910152565b919033600052600560205260ff604060002054161561109a5733600052600360205260ff60406000205416611094573360005260046020526040600020549260405193610e2c85610b32565b84526020840194338652604085019160018060a01b03168252606085019260018060a01b031683526001600160401b038111610b4d5760405193610e7a601f8301601f191660200186610b63565b8185523682820111610c3e578160009260209283880137850101526080840192835260a08401946000865260015468010000000000000000811015610b4d57806001610ec99201600155610ac3565b95909561107e57518555516001850180546001600160a01b039283166001600160a01b0319918216179091559151600286018054918316918416919091179055915160038501805491909316911617905551805160048301916001600160401b038211610b4d57610f3a8354610af8565b601f8111611036575b50602090601f8311600114610fcb5760059493929160009183610fc0575b50508160011b916000199060031b1c19161790555b019051151560ff801983541691161790556001546000198101908111610cc1573360005260026020526040600020553360005260036020526040600020600160ff19825416179055565b015190503880610f61565b90601f1983169184600052816000209260005b81811061101e575091600193918560059897969410611005575b505050811b019055610f76565b015160001960f88460031b161c19169055388080610ff8565b92936020600181928786015181550195019301610fde565b836000526020600020601f840160051c81019160208510611074575b601f0160051c01905b8181106110685750610f43565b6000815560010161105b565b9091508190611052565b634e487b7160e01b600052600060045260246000fd5b50505050565b63a2e2361360e01b60005260046000fd5b51906001600160401b0382168203610c3e57565b9394969092979560009760018060a01b0386161561160f57841561160057604051630f5664e760e31b81526001600160a01b038781166004830152909790602090899060249082907f0000000000000000000000000000000000000000000000000000000000000000165afa9788156115f5578a986115ad575b506001600160a01b0388161561159e577f00000000000000000000000000000000000000000000000000000000000000009760065460018060a01b03600754169060405197886133c78101106001600160401b036133c78b01111761158a57946001600160401b038e9f9793958d9e9f958b9c9d9e978f958f986101e09e9d9a8f908f8f60ff9f8a9e82948c9e6133c761173f8739336133c787019081526001600160a01b0391821660208201529116604082015260608101919091526101c06080820181905281018390528501376133c790810191909101919091019190915261ffff821660a0918f01918201526001600160a01b0360109290921c821660c082015260e0810192909252919091166101008201529116610120820152911661014082015291166101608201529116610180820152306101a0820152601f91909101601f19160103019086f0801561157f5760018060a01b031692602086604051828101906323b872dd60e01b8252336024820152876044820152856064820152606481526112ca608482610b63565b519082855af11561157f5785513d61157657506001600160a01b0381163b155b61155b57507f00000000000000000000000000000000000000000000000000000000000000006001600160a01b03163b156106485760405163fab9b28560e01b81526001600160a01b0383811660048301526024820185905286908290604490829084907f0000000000000000000000000000000000000000000000000000000000000000165af1801561151c57611547575b50828552600560205260408520805460ff19166001179055823b1561064857604051632876384d60e11b81528590818160048183895af1801561153c57611527575b5050604051631fcbb2f960e31b8152606081600481875afa90811561151c5786879188936114c6575b5060405163bcc9c5ed60e01b8152936020856004818a5afa9485156114bb578988999a98979896611473575b5050916001600160401b038094939281936040519960018060a01b03168a5260208a01521660408801521660608601521660808401527fbb892459db619b0a9029d58f54f43c338c02be1231c93020038c63949cc838cf60a03394a490565b91965091929394506020823d6020116114b3575b8161149460209383610b63565b81010312610146575051869490939291906001600160401b0380611414565b3d9150611487565b6040513d8b823e3d90fd5b925050506060813d606011611514575b816114e360609383610b63565b81010312610491576114f4816110ab565b61150c6040611505602085016110ab565b93016110ab565b9190386113e8565b3d91506114d6565b6040513d88823e3d90fd5b8161153191610b63565b6106485784386113bf565b6040513d84823e3d90fd5b8561155491969296610b63565b933861137d565b635274afe760e01b86526001600160a01b0316600452602485fd5b600114156112ea565b6040513d87823e3d90fd5b634e487b7160e01b8e52604160045260248efd5b63a2e2361360e01b8a5260048afd5b9097506020813d6020116115ed575b816115c960209383610b63565b810103126115e957516001600160a01b03811681036115e9579638611139565b8980fd5b3d91506115bc565b6040513d8c823e3d90fd5b6365e52d5160e11b8952600489fd5b63d92e233d60e01b8952600489fd5b91908201809211610cc157565b90606060015490818410156116ac575080611646838561161e565b1161169b575b5061165681610cee565b9160005b8281106116675750505090565b8061167f61097461167a6001948661161e565b610ac3565b6116898287610d68565b526116948186610d68565b500161165a565b82810391508111610cc1573861164c565b60405193509150600090506116c2602084610b63565b8252600090815b8281106116d65750505090565b6020906040516116e581610b32565b6000815260008382015260006040820152600084820152836080820152600060a0820152828287010152016116c9565b6000546001600160a01b0316330361172957565b63118cdaa760e01b6000523360045260246000fdfe610220806040523461049f576133c7803803809161001d82856104cf565b833981016101c08282031261049f57610035826104f2565b91610042602082016104f2565b9161004f604083016104f2565b60608301516080840151919290916001600160401b03811161049f5784019080601f8301121561049f578151916001600160401b0383116104b957604051916100a2601f8501601f1916602001846104cf565b8383526020848301011161049f5760005b8381106104a4575050600091016020015260a083015161ffff81169586820361049f576100e260c086016104f2565b6100ee60e087016104f2565b6100fb61010088016104f2565b916101096101208901610506565b946101176101408a01610506565b966101256101608b01610506565b986101808b01519a60ff8c168c0361049f576101a061014491016104f2565b60016000556001600160a01b0388169d9097908e15801561048e575b801561047d575b801561046c575b801561045b575b801561044a575b8015610439575b6104285783156104175761271010610406576080528b60a05260018060a01b031660c05260e05261010052610120526101405260018060a01b0316610160526101805260018060401b031660018060401b0342160160018060401b0381116103f0576101a0526101c0526101e05261020052604051906020820192308452604083015260018060a01b03166060820152606081526102226080826104cf565b519020600155604051612eac908161051b8239608051818181610307015281816110f4015281816116da01528181611dc8015281816124c60152612816015260a0518181816103c201528181610c5b01528181610dd60152818161124c0152818161143901528181611f9501528181612147015281816125c901528181612b870152612d1a015260c05181818161163801528181611a9a0152818161273b01526128e3015260e05181610d700152610100518181816116a001528181611c05015261292b015261012051818181610291015281816121ce0152612da00152610140518181816115b701526117970152610160518181816105f601528181610d290152818161119d015281816114ae01528181611c3901528181611efa0152818161203c01528181612214015281816127880152818161296001528181612aec0152612c1d015261018051818181610aad015281816112050152818161147b01528181611af70152611d0101526101a0518181816101dc01528181610b3d015261258c01526101c051818181610208015281816102570152818161237501526123a701526101e051818181610574015281816110820152612482015261020051818181610e5701526123d00152f35b634e487b7160e01b600052601160045260246000fd5b63bbf4268d60e01b60005260046000fd5b6365e52d5160e11b60005260046000fd5b63d92e233d60e01b60005260046000fd5b506001600160a01b03891615610183565b506001600160a01b0388161561017c565b506001600160a01b03871615610175565b506001600160a01b0386161561016e565b506001600160a01b03831615610167565b506001600160a01b038e1615610160565b600080fd5b806020809284010151828286010152016100b3565b634e487b7160e01b600052604160045260246000fd5b601f909101601f19168101906001600160401b038211908210176104b957604052565b51906001600160a01b038216820361049f57565b51906001600160401b038216820361049f5756fe608080604052600436101561001357600080fd5b600090813560e01c90816304f3bcec14611783575080630695c46c1461175d578063080077a114611709578063109e94cf146116c457806322dcd13e146116855780632f051579146116675780632f48ab7d1461162257806346a863481461157a57806350ec709a14611468578063725a3b4b146110d45780637a1a464d146110a6578063805bf08a146110625780638f00c31514610f10578063916b2f8814610e7b57806392c67f7214610e3d578063a0d3db8514610e05578063a37dda2c14610dc0578063a9ac153e14610d93578063aa8c217c14610d58578063ab60636c14610d13578063afcbdd6014610c32578063b533a0cc14610c08578063b6d98b6b14610b61578063b781085314610b1d578063bbdfbfba14610afa578063bcc9c5ed14610adc578063bdd1daaa14610a97578063dd3d06b9146109b4578063de8211a914610925578063e35d804c146108fc578063e4933ae3146103b0578063f0df51b3146102e6578063f45d0bc6146102c0578063fa2af9da1461027b578063fd35b33c146102375763fe5d97c8146101ad57600080fd5b3461023457806003193601126102345760606001600160401b0360025460181c16604051906001600160401b037f00000000000000000000000000000000000000000000000000000000000000001682526001600160401b037f00000000000000000000000000000000000000000000000000000000000000001660208301526040820152f35b80fd5b503461023457806003193601126102345760206040516001600160401b037f0000000000000000000000000000000000000000000000000000000000000000168152f35b50346102345780600319360112610234576040517f00000000000000000000000000000000000000000000000000000000000000006001600160a01b03168152602090f35b5034610234578060031936011261023457602060ff60025460101c166040519015158152f35b50346102345760203660031901126102345760043560ff811681036103ac577f00000000000000000000000000000000000000000000000000000000000000006001600160a01b0316330361039d5760ff60025460101c1661038e5761034a6125f8565b60025460ff81161561037f5760081c60ff1661037057610369906128b2565b6001815580f35b6362e6201d60e01b8252600482fd5b630a8bd16f60e21b8352600483fd5b63e405a43360e01b8252600482fd5b630836f21d60e21b8252600482fd5b5080fd5b5034610234576103bf36611997565b907f00000000000000000000000000000000000000000000000000000000000000006001600160a01b031633036108ed5760025460ff8160101c166108de5760ff8116156108ce575b506001600160401b0382116108ba576104226003546117fb565b601f8111610857575b508282601f81116001146107d557806104599286916107ca575b508160011b916000199060031b1c19161790565b6003555b6001600160401b034216600654600181018082116107b6576040519161048283611835565b604051610499601f8801601f191660200182611866565b86815236878701116107b2578686602083013787602088830101528352602083019084825260408401928084526801000000000000000082101561078a576006556104e3906117c6565b93909361079e57518051906001600160401b03821161078a5761050685546117fb565b601f8111610745575b50602090601f83116001146106de5791806105459260029695948c926106d3575b50508160011b916000199060031b1c19161790565b84555b6001600160401b03600185019151166001600160401b0319825416179055519101556001600160401b037f0000000000000000000000000000000000000000000000000000000000000000169081610682575b505060ff60025460081c16156105ef575b7f6d9e4862e2f82a8175fcd785cd60c14f21a2af0c38c0b7682015fece7158e7e490600154926105e96040519283926020845260208401916122f4565b0390a280f35b60015483907f00000000000000000000000000000000000000000000000000000000000000006001600160a01b031690813b1561067357829160448392604051948593849263a3abe42560e01b84526004840152600360248401525af180156106775761065e575b50506105ac565b8161066891611866565b610673578238610657565b8280fd5b6040513d84823e3d90fd5b016001600160401b0381116106bf576affffffffffffffff0000006002549160181b16906affffffffffffffff000000191617600255388061059b565b634e487b7160e01b84526011600452602484fd5b015190503880610530565b858a52818a209190601f1984168b5b81811061072d575091600193918560029897969410610714575b505050811b018455610548565b015160001960f88460031b161c19169055388080610707565b929360206001819287860151815501950193016106ed565b858a5260208a20601f840160051c81019160208510610780575b601f0160051c01905b818110610775575061050f565b8a8155600101610768565b909150819061075f565b634e487b7160e01b89526041600452602489fd5b634e487b7160e01b88526004889052602488fd5b8780fd5b634e487b7160e01b86526011600452602486fd5b905083013538610445565b50600384527fc2575a0e9e593c00f959f8c92f12db2869c3395a3b0502d05e2516446f71f85b9083601f198116865b81811061083c575010610822575b5050600182811b0160035561045d565b820135600019600385901b60f8161c191690553880610812565b85840135855560019094019360209384019387935001610804565b600384527fc2575a0e9e593c00f959f8c92f12db2869c3395a3b0502d05e2516446f71f85b601f840160051c810191602085106108b0575b601f0160051c01905b8181106108a5575061042b565b848155600101610898565b909150819061088f565b634e487b7160e01b83526041600452602483fd5b60ff191660011760025538610408565b63e405a43360e01b8452600484fd5b633832386960e11b8352600483fd5b50346102345780600319360112610234576005546040516001600160a01b039091168152602090f35b50346102345760203660031901126102345760043560065481101561097f5761094d906117c6565b506001600160401b036001820154169061097b61096e600283015492611887565b916040519384938461196c565b0390f35b60405162461bcd60e51b815260206004820152600d60248201526c092dcecc2d8d2c840d2dcc8caf609b1b6044820152606490fd5b50346102345780600319360112610234576040519080600354906109d7826117fb565b8085529160018116908115610a705750600114610a13575b61097b846109ff81860382611866565b60405191829160208352602083019061192b565b600381527fc2575a0e9e593c00f959f8c92f12db2869c3395a3b0502d05e2516446f71f85b939250905b808210610a56575090915081016020016109ff826109ef565b919260018160209254838588010152019101909291610a3d565b60ff191660208087019190915292151560051b850190920192506109ff91508390506109ef565b50346102345780600319360112610234576040517f00000000000000000000000000000000000000000000000000000000000000006001600160a01b03168152602090f35b50346102345780600319360112610234576020600154604051908152f35b5034610234578060031936011261023457602060ff600254166040519015158152f35b503461023457806003193601126102345760206040516001600160401b037f0000000000000000000000000000000000000000000000000000000000000000168152f35b5034610234578060031936011261023457604051908060045490610b84826117fb565b8085529160018116908115610a705750600114610bab5761097b846109ff81860382611866565b600481527f8a35acfbc15ff81a39ae7d344fd709f28e8600b4aa8c65c6b64bfe7fe36bd19b939250905b808210610bee575090915081016020016109ff826109ef565b919260018160209254838588010152019101909291610bd5565b503461023457806003193601126102345760206001600160401b0360025460181c16604051908152f35b5034610234576020366003190112610234576004356001600160a01b038116908190036103ac577f00000000000000000000000000000000000000000000000000000000000000006001600160a01b03163303610d045760ff60025460101c1661038e576005546001600160a01b038116610cf5578115610ce6576001600160a01b03191681176005556001547f7ba7f2073452ad5352396aae454b889f27d8b61e31820eed827ad53a11ea72158380a380f35b63d92e233d60e01b8352600483fd5b6348f5c3ed60e01b8352600483fd5b633832386960e11b8252600482fd5b50346102345780600319360112610234576040517f00000000000000000000000000000000000000000000000000000000000000006001600160a01b03168152602090f35b503461023457806003193601126102345760206040517f00000000000000000000000000000000000000000000000000000000000000008152f35b503461023457806003193601126102345760025460405160589190911c6001600160a01b03168152602090f35b50346102345780600319360112610234576040517f00000000000000000000000000000000000000000000000000000000000000006001600160a01b03168152602090f35b503461023457806003193601126102345760ff60025460101c16610e2e57610e2b6124c3565b80f35b63e405a43360e01b8152600490fd5b5034610234578060031936011261023457602060405160ff7f0000000000000000000000000000000000000000000000000000000000000000168152f35b503461023457806003193601126102345760ff60025460101c16610e2e57610ea16125f8565b60025460581c6001600160a01b03168015610f01573314610ef257610ec4612723565b6001547f4897449f1b0ce6101a99ba5e17eea100dbfc65a5eb810060f708a392668bce978280a26001815580f35b6348f5c3ed60e01b8152600490fd5b6399fcd6df60e01b8252600482fd5b50346102345780600319360112610234576006546001600160401b03811161104e57604051610f4560208360051b0182611866565b818152600683526020810191837ff652222313e28459528d920b65115c16c04f3efc82aaedc97be59f3f377c0d3f845b83831061100757868587604051928392602084019060208552518091526040840160408260051b8601019392905b828210610fb257505050500390f35b919360019193955060208091603f19898203018552875190604080610fe0845160608552606085019061192b565b936001600160401b0386820151168685015201519101529601920192018594939192610fa3565b6003602060019260405161101a81611835565b61102386611887565b81526001600160401b0385870154168382015260028601546040820152815201920192019190610f75565b634e487b7160e01b82526041600452602482fd5b503461023457806003193601126102345760206040516001600160401b037f0000000000000000000000000000000000000000000000000000000000000000168152f35b503461023457806003193601126102345760ff60025460101c16610e2e576110cc6125f8565b610369612315565b5034610234576110e336611997565b9060025460ff8160101c166108de577f00000000000000000000000000000000000000000000000000000000000000006001600160a01b0316903382141580611435575b6114265760ff8160081c166114175761ff001916610100176002556001600160401b03831161140357839061115d6004546117fb565b601f81116113b4575b508382601f821160011461132f57908061119492859161132457508160011b916000199060031b1c19161790565b6004555b6001547f00000000000000000000000000000000000000000000000000000000000000006001600160a01b031690813b1561132057839160448392604051948593849263a3abe42560e01b84526004840152600560248401525af1908115611315578391611300575b50507f00000000000000000000000000000000000000000000000000000000000000006001600160a01b031690813b15610673576040516356d0aa4160e01b815260048101919091527f00000000000000000000000000000000000000000000000000000000000000006001600160a01b03166024820152606060448201529082908290818381611296606482018b8b6122f4565b03925af18015610677576112eb575b50507f49e53fd224357020766ce272815e8a15c300aace14a011cfcded9335798fbd0e6112e56001549260405191829160208352339660208401916122f4565b0390a380f35b816112f591611866565b6106735782386112a5565b8161130a91611866565b6103ac578138611201565b6040513d85823e3d90fd5b8380fd5b905085013538610445565b600484527f8a35acfbc15ff81a39ae7d344fd709f28e8600b4aa8c65c6b64bfe7fe36bd19b915085601f198116855b81811061139657501061137c575b5050600184811b01600455611198565b840135600019600387901b60f8161c19169055388061136c565b8784013585558996506001909401936020938401938993500161135e565b90916004905260208520601f850160051c810191602086106113f9575b90601f879493920160051c01905b8181106113ec5750611166565b92835585926001016113df565b90915081906113d1565b634e487b7160e01b84526041600452602484fd5b6362e6201d60e01b8552600485fd5b6348f5c3ed60e01b8552600485fd5b50337f00000000000000000000000000000000000000000000000000000000000000006001600160a01b03161415611127565b50346102345780600319360112610234577f00000000000000000000000000000000000000000000000000000000000000006001600160a01b0316330361156b576001547f00000000000000000000000000000000000000000000000000000000000000006001600160a01b03169190823b156103ac5760405190631f481a5d60e31b82526004820152818160248183875af180156106775761155b575b508091600154813b1561155757829160448392604051948593849263a3abe42560e01b84526004840152600260248401525af18015610677576115465750f35b8161155091611866565b6102345780f35b5050fd5b8161156591611866565b38611506565b631966391b60e11b8152600490fd5b5034610234576060366003190112610234576004359061ffff821682036102345760243560ff811681036103ac57604435906002821015610673577f00000000000000000000000000000000000000000000000000000000000000006001600160a01b031633036116135760ff60025460101c166116045761036992936115ff6125f8565b611a63565b63e405a43360e01b8352600483fd5b635d154fe160e11b8352600483fd5b50346102345780600319360112610234576040517f00000000000000000000000000000000000000000000000000000000000000006001600160a01b03168152602090f35b50346102345780600319360112610234576020600654604051908152f35b5034610234578060031936011261023457602060405161ffff7f0000000000000000000000000000000000000000000000000000000000000000168152f35b50346102345780600319360112610234576040517f00000000000000000000000000000000000000000000000000000000000000006001600160a01b03168152602090f35b5034610234576020366003190112610234576004356006548110156103ac57611731906117c6565b5061173b81611887565b61097b60026001600160401b036001850154169301546040519384938461196c565b5034610234578060031936011261023457602060ff60025460081c166040519015158152f35b9050346103ac57816003193601126103ac577f00000000000000000000000000000000000000000000000000000000000000006001600160a01b03168152602090f35b6006548110156117e55760066000526003602060002091020190600090565b634e487b7160e01b600052603260045260246000fd5b90600182811c9216801561182b575b602083101461181557565b634e487b7160e01b600052602260045260246000fd5b91607f169161180a565b606081019081106001600160401b0382111761185057604052565b634e487b7160e01b600052604160045260246000fd5b90601f801991011681019081106001600160401b0382111761185057604052565b906040519182600082549261189b846117fb565b808452936001811690811561190957506001146118c2575b506118c092500383611866565b565b90506000929192526020600020906000915b8183106118ed5750509060206118c092820101386118b3565b60209193508060019154838589010152019101909184926118d4565b9050602092506118c094915060ff191682840152151560051b820101386118b3565b919082519283825260005b848110611957575050826000602080949584010152601f8019910116010190565b80602080928401015182828601015201611936565b6001600160401b0361198c6040939695949660608452606084019061192b565b951660208201520152565b9060206003198301126119e6576004356001600160401b0381116119e657826023820112156119e6578060040135926001600160401b0384116119e657602484830101116119e6576024019190565b600080fd5b818102929181159184041417156119fe57565b634e487b7160e01b600052601160045260246000fd5b919082039182116119fe57565b908160209103126119e657516001600160a01b03811681036119e65790565b906002821015611a4d5752565b634e487b7160e01b600052602160045260246000fd5b91906002549260ff60009460081c16156122e55761ffff1661271081116122d6576040516370a0823160e01b8152306004820152917f0000000000000000000000000000000000000000000000000000000000000000906020846024816001600160a01b0386165afa9384156121335786946122a2575b50600285101561228e578415611bc357505050611af5612723565b7f00000000000000000000000000000000000000000000000000000000000000006001600160a01b0316803b156113205783809160246040518094819363174538b560e31b83523060048401525af18015611bb857908491611ba3575b50507f81084fdb1640d4d17bced528639ccc751b0b4d9e399790b6d89dccf33c1b66409160a09160015494611b8a6040518094611a40565b80602084015280604084015260608301526080820152a2565b81611bad91611866565b610673578238611b52565b6040513d86823e3d90fd5b90929194611bdf612710611bd788866119eb565b048094611a14565b938382811561220a57600160ff861610612201575b600560ff8616116121f8575b61ffff7f000000000000000000000000000000000000000000000000000000000000000016806121a0575b5081611e59575b50506001547f00000000000000000000000000000000000000000000000000000000000000006001600160a01b031690813b156113205760405163a3abe42560e01b81526004808201929092526024810191909152838160448183865af18015611bb857908491611e44575b5050600154813b15611320576040516304e29d0960e51b815260ff8616600482015260248101919091529083908290604490829084905af1801561131557908391611e2f575b50505b84611dc2575b506002805462ff00001916620100001790557f00000000000000000000000000000000000000000000000000000000000000006001600160a01b0316803b156103ac5781809160246040518094819363174538b560e31b83523060048401525af1801561067757611dad575b5050917f81084fdb1640d4d17bced528639ccc751b0b4d9e399790b6d89dccf33c1b6640939160ff60a09460015497611d956040518097611a40565b602086015216604084015260608301526080820152a2565b611db8828092611866565b6102345780611d59565b611dee857f0000000000000000000000000000000000000000000000000000000000000000809361261a565b6001546040518681526001600160a01b03909216917ff552ca82e113ac3c539c3d617f29fcd19c172a0c75dad017555c9e109f7fe18390602090a338611ced565b81611e3991611866565b6103ac578138611ce4565b81611e4e91611866565b610673578238611c9e565b6005546001600160a01b03161561202d57600554611e829083906001600160a01b03168561261a565b6005546001600160a01b0316803b15612029578480916024604051809481936391c05b0b60e01b83528860048401525af18015611fd357908591612014575b5050600554604051630e672fe160e01b815290602090829060049082906001600160a01b03165afa908115611fd3578591611fe2575b507f00000000000000000000000000000000000000000000000000000000000000006001600160a01b031690813b15611fde57859160248392604051948593849263c031eddf60e01b845260048401525af18015611fd357908591611fbe575b50505b6001549060405192835260208301527f5ce467ae5694ddb233a02ca7eb987835c5e2ea71eec0e379bf3a5e1207ae2459604060018060a01b037f00000000000000000000000000000000000000000000000000000000000000001693a33880611c32565b81611fc891611866565b611320578338611f57565b6040513d87823e3d90fd5b8580fd5b90506020813d60201161200c575b81611ffd60209383611866565b810103126119e6575138611ef7565b3d9150611ff0565b8161201e91611866565b611320578338611ec1565b8480fd5b60405163453bdd0d60e11b81527f00000000000000000000000000000000000000000000000000000000000000006001600160a01b031690602081600481855afa908115612133578691612171575b506001600160a01b0381169084821561213e57612099918761265b565b803b15611fde5785809160246040518094819363bc1ca3e960e01b83528960048401525af180156121335790869161211e575b50505b803b156120295784809160246040518094819363c031eddf60e01b83528860048401525af18015611fd357908591612109575b5050611f5a565b8161211391611866565b611320578338612102565b8161212891611866565b6120295784386120cc565b6040513d88823e3d90fd5b905061216c91507f00000000000000000000000000000000000000000000000000000000000000008661261a565b6120cf565b612193915060203d602011612199575b61218b8183611866565b810190611a21565b3861207c565b503d612181565b61271092506121b09150866119eb565b046121bb8186611a14565b90806121c8575b38611c2b565b6121f3817f00000000000000000000000000000000000000000000000000000000000000008561261a565b6121c2565b60059450611c00565b60019450611bf4565b50506001549091907f00000000000000000000000000000000000000000000000000000000000000006001600160a01b0316803b156106735760405163a3abe42560e01b815260048101929092526006602483015282908290604490829084905af180156106775761227e575b5090611ce7565b8161228891611866565b38612277565b634e487b7160e01b86526021600452602486fd5b9093506020813d6020116122ce575b816122be60209383611866565b81010312611fde57519238611ada565b3d91506122b1565b63bbf4268d60e01b8452600484fd5b63126ea8e960e31b8452600484fd5b908060209392818452848401376000828201840152601f01601f1916010190565b60025460ff811690816124b3575b81612480575b81612469575b81612453575b506123ce5760ff60025416158061239c575b8061236a575b6123625763085de62560e01b60005260046000fd5b6118c0612723565b506001600160401b037f000000000000000000000000000000000000000000000000000000000000000016421161234d565b506001600160401b037f0000000000000000000000000000000000000000000000000000000000000000161515612347565b7f0000000000000000000000000000000000000000000000000000000000000000600160ff82161061244b575b600560ff821611612443575b612410816128b2565b7f1be1750ddd59392ba6c564a4194b0874f9295a7595042a77fc9b7f34938aa0af60206001549260ff60405191168152a2565b506005612407565b5060016123fb565b6001600160401b03915060181c16421138612335565b90506001600160401b038160181c1615159061232f565b7f00000000000000000000000000000000000000000000000000000000000000006001600160401b031615159150612329565b905060ff8160081c161590612323565b337f00000000000000000000000000000000000000000000000000000000000000006001600160a01b0316148015806125c5575b6125b45760ff6002541615612571575b50600280547fff0000000000000000000000000000000000000000ffffffffffffffffffffff1633605881901b600160581b600160f81b0316919091179091556001547f7c2fb7ad28ff3012b206b788cc80d55099949fd45e69314f27fdace959bae761600080a3565b80612581575b6123625738612507565b506001600160401b037f000000000000000000000000000000000000000000000000000000000000000016421115612577565b6348f5c3ed60e01b60005260046000fd5b50337f00000000000000000000000000000000000000000000000000000000000000006001600160a01b031614156124f7565b600260005414612609576002600055565b633ee5aeb560e01b60005260046000fd5b60405163a9059cbb60e01b60208201526001600160a01b039290921660248301526044808301939093529181526118c091612656606483611866565b612e0f565b60405163095ea7b360e01b60208083019182526001600160a01b03851660248401526044808401969096529482529293909260009061269b606486611866565b84519082855af16000513d826126fe575b5050156126b857505050565b60405163095ea7b360e01b60208201526001600160a01b039093166024840152600060448085019190915283526118c092612656906126f8606482611866565b82612e0f565b90915061271b57506001600160a01b0381163b15155b38806126ac565b600114612714565b6040516370a0823160e01b81523060048201526000907f00000000000000000000000000000000000000000000000000000000000000006020826024816001600160a01b0385165afa91821561131557839261287e575b5081612810575b50506001547f00000000000000000000000000000000000000000000000000000000000000006001600160a01b0316803b156106735760405163a3abe42560e01b815260048101929092526006602483015282908290604490829084905af1801561067757612800575b50506201000062ff0000196002541617600255565b8161280a91611866565b386127eb565b61283c827f0000000000000000000000000000000000000000000000000000000000000000809361261a565b6001546040519283526001600160a01b03909116917ff552ca82e113ac3c539c3d617f29fcd19c172a0c75dad017555c9e109f7fe18390602090a33880612781565b9091506020813d6020116128aa575b8161289a60209383611866565b810103126106735751903861277a565b3d915061288d565b600160ff821610612e07575b600560ff821611612dff575b6040516370a0823160e01b8152306004820152600091907f00000000000000000000000000000000000000000000000000000000000000006020826024816001600160a01b0385165afa918215611bb8578492612dcb575b5083908261ffff7f00000000000000000000000000000000000000000000000000000000000000001680612d6e575b505082612a49575b50506001547f00000000000000000000000000000000000000000000000000000000000000006001600160a01b03169150813b156113205760405163a3abe42560e01b81526004808201929092526024810191909152838160448183865af18015611bb857908491612a34575b505060015491813b15611320576040516304e29d0960e51b815260ff919091166004820152602481019290925282908290604490829084905af1801561067757612a1f5750506201000062ff0000196002541617600255565b612a2a828092611866565b61023457806127eb565b81612a3e91611866565b6106735782386129c6565b60055483906001600160a01b031615612c0d57600554612a74926001600160a01b039091169061261a565b6005546001600160a01b0316803b15612029578480916024604051809481936391c05b0b60e01b83528860048401525af18015611fd357908591612bf8575b5050600554604051630e672fe160e01b815290602090829060049082906001600160a01b03165afa908115611fd3578591612bc6575b507f00000000000000000000000000000000000000000000000000000000000000006001600160a01b031690813b15611fde57859160248392604051948593849263c031eddf60e01b845260048401525af18015611fd357908591612bb1575b50505b6001549060405192835260208301527f5ce467ae5694ddb233a02ca7eb987835c5e2ea71eec0e379bf3a5e1207ae2459604060018060a01b037f00000000000000000000000000000000000000000000000000000000000000001693a3388080612959565b81612bbb91611866565b611320578338612b49565b90506020813d602011612bf0575b81612be160209383611866565b810103126119e6575138612ae9565b3d9150612bd4565b81612c0291611866565b611320578338612ab3565b5060405163453bdd0d60e11b81527f00000000000000000000000000000000000000000000000000000000000000006001600160a01b03169190602081600481865afa908115612d63578791612d44575b506001600160a01b0381169085908215612d1157612c7c929361265b565b803b15611fde5785809160246040518094819363bc1ca3e960e01b83528960048401525af1801561213357612cfd575b505b803b156120295784809160246040518094819363c031eddf60e01b83528860048401525af18015611fd357908591612ce8575b5050612b4c565b81612cf291611866565b611320578338612ce1565b85612d0a91969296611866565b9338612cac565b509050612d3f917f00000000000000000000000000000000000000000000000000000000000000009061261a565b612cae565b612d5d915060203d6020116121995761218b8183611866565b38612c5e565b6040513d89823e3d90fd5b819350612d7e90612710926119eb565b049182612d8c575b80612951565b612d999193508290611a14565b91612dc5827f00000000000000000000000000000000000000000000000000000000000000008361261a565b38612d86565b9091506020813d602011612df7575b81612de760209383611866565b8101031261132057519038612922565b3d9150612dda565b5060056128ca565b5060016128be565b906000602091828151910182855af115612e6a576000513d612e6157506001600160a01b0381163b155b612e405750565b635274afe760e01b60009081526001600160a01b0391909116600452602490fd5b60011415612e39565b6040513d6000823e3d90fdfea2646970667358221220035663504633735db1304963b624a57e0871303b08e2805243ba5124c35a794d64736f6c634300081c0033a264697066735822122099d2f335a587f3e8a96dea79af9a4e6aa42a054a52c1ac7f37c199d4c49a4d6664736f6c634300081c0033",
  "linkReferences": {},
  "deployedLinkReferences": {}
}