{
  "_format": "hh-sol-artifact-1",
  "contractName": "ShareSale",
  "sourceName": "contracts/CompanyShares/ShareSale.sol",
  "abi": [
    {
      "inputs": [
        {
          "internalType": "address",
          "name": "_paymentToken",
          "type": "address"
        },
        {
          "internalType": "address",
          "name": "_shareToken",
          "type": "address"
        },
        {
          "internalType": "address",
          "name": "_vault",
          "type": "address"
        },
        {
          "internalType": "address",
          "name": "_companyOwner",
          "type": "address"
        },
        {
          "internalType": "address",
          "name": "_feeRecipient",
          "type": "address"
        },
        {
          "internalType": "uint96",
          "name": "_feeBps",
          "type": "uint96"
        },
        {
          "internalType": "address",
          "name": "_investorRegistry",
          "type": "address"
        },
        {
          "internalType": "uint256",
          "name": "_companyId",
          "type": "uint256"
        }
      ],
      "stateMutability": "nonpayable",
      "type": "constructor"
    },
    {
      "inputs": [],
      "name": "EnforcedPause",
      "type": "error"
    },
    {
      "inputs": [],
      "name": "ExpectedPause",
      "type": "error"
    },
    {
      "inputs": [],
      "name": "InsufficientRoundLiquidity",
      "type": "error"
    },
    {
      "inputs": [],
      "name": "InvalidAmount",
      "type": "error"
    },
    {
      "inputs": [],
      "name": "InvalidPrice",
      "type": "error"
    },
    {
      "inputs": [],
      "name": "OnlyCompanyOwner",
      "type": "error"
    },
    {
      "inputs": [],
      "name": "PriceOverflow",
      "type": "error"
    },
    {
      "inputs": [],
      "name": "PurchaseTooLarge",
      "type": "error"
    },
    {
      "inputs": [],
      "name": "ReentrancyGuardReentrantCall",
      "type": "error"
    },
    {
      "inputs": [],
      "name": "RoundAlreadyActive",
      "type": "error"
    },
    {
      "inputs": [],
      "name": "RoundNotActive",
      "type": "error"
    },
    {
      "inputs": [
        {
          "internalType": "address",
          "name": "token",
          "type": "address"
        }
      ],
      "name": "SafeERC20FailedOperation",
      "type": "error"
    },
    {
      "anonymous": false,
      "inputs": [
        {
          "indexed": true,
          "internalType": "address",
          "name": "by",
          "type": "address"
        }
      ],
      "name": "EmergencyPaused",
      "type": "event"
    },
    {
      "anonymous": false,
      "inputs": [
        {
          "indexed": true,
          "internalType": "address",
          "name": "by",
          "type": "address"
        }
      ],
      "name": "EmergencyUnpaused",
      "type": "event"
    },
    {
      "anonymous": false,
      "inputs": [
        {
          "indexed": false,
          "internalType": "address",
          "name": "account",
          "type": "address"
        }
      ],
      "name": "Paused",
      "type": "event"
    },
    {
      "anonymous": false,
      "inputs": [
        {
          "indexed": true,
          "internalType": "uint256",
          "name": "roundId",
          "type": "uint256"
        },
        {
          "indexed": false,
          "internalType": "uint256",
          "name": "sharesRemaining",
          "type": "uint256"
        }
      ],
      "name": "RoundEnded",
      "type": "event"
    },
    {
      "anonymous": false,
      "inputs": [
        {
          "indexed": true,
          "internalType": "uint256",
          "name": "roundId",
          "type": "uint256"
        },
        {
          "indexed": false,
          "internalType": "uint256",
          "name": "pricePerShare",
          "type": "uint256"
        },
        {
          "indexed": false,
          "internalType": "uint256",
          "name": "sharesMinted",
          "type": "uint256"
        }
      ],
      "name": "RoundStarted",
      "type": "event"
    },
    {
      "anonymous": false,
      "inputs": [
        {
          "indexed": true,
          "internalType": "uint256",
          "name": "roundId",
          "type": "uint256"
        },
        {
          "indexed": true,
          "internalType": "address",
          "name": "buyer",
          "type": "address"
        },
        {
          "indexed": false,
          "internalType": "uint256",
          "name": "usdtPaid",
          "type": "uint256"
        },
        {
          "indexed": false,
          "internalType": "uint256",
          "name": "sharesReceived",
          "type": "uint256"
        }
      ],
      "name": "SharesBought",
      "type": "event"
    },
    {
      "anonymous": false,
      "inputs": [
        {
          "indexed": false,
          "internalType": "address",
          "name": "account",
          "type": "address"
        }
      ],
      "name": "Unpaused",
      "type": "event"
    },
    {
      "inputs": [],
      "name": "MAX_PRICE_PER_SHARE",
      "outputs": [
        {
          "internalType": "uint256",
          "name": "",
          "type": "uint256"
        }
      ],
      "stateMutability": "view",
      "type": "function"
    },
    {
      "inputs": [],
      "name": "MAX_SHARES_PER_PURCHASE",
      "outputs": [
        {
          "internalType": "uint256",
          "name": "",
          "type": "uint256"
        }
      ],
      "stateMutability": "view",
      "type": "function"
    },
    {
      "inputs": [
        {
          "internalType": "uint256",
          "name": "sharesWei",
          "type": "uint256"
        }
      ],
      "name": "buyExactShares",
      "outputs": [
        {
          "internalType": "uint256",
          "name": "usdtCost",
          "type": "uint256"
        }
      ],
      "stateMutability": "nonpayable",
      "type": "function"
    },
    {
      "inputs": [
        {
          "internalType": "uint256",
          "name": "usdtAmount",
          "type": "uint256"
        }
      ],
      "name": "buyWithUSDT",
      "outputs": [
        {
          "internalType": "uint256",
          "name": "sharesWei",
          "type": "uint256"
        }
      ],
      "stateMutability": "nonpayable",
      "type": "function"
    },
    {
      "inputs": [],
      "name": "companyId",
      "outputs": [
        {
          "internalType": "uint256",
          "name": "",
          "type": "uint256"
        }
      ],
      "stateMutability": "view",
      "type": "function"
    },
    {
      "inputs": [],
      "name": "companyOwner",
      "outputs": [
        {
          "internalType": "address",
          "name": "",
          "type": "address"
        }
      ],
      "stateMutability": "view",
      "type": "function"
    },
    {
      "inputs": [],
      "name": "endRound",
      "outputs": [],
      "stateMutability": "nonpayable",
      "type": "function"
    },
    {
      "inputs": [],
      "name": "feeBps",
      "outputs": [
        {
          "internalType": "uint96",
          "name": "",
          "type": "uint96"
        }
      ],
      "stateMutability": "view",
      "type": "function"
    },
    {
      "inputs": [],
      "name": "feeRecipient",
      "outputs": [
        {
          "internalType": "address",
          "name": "",
          "type": "address"
        }
      ],
      "stateMutability": "view",
      "type": "function"
    },
    {
      "inputs": [],
      "name": "getRoundInfo",
      "outputs": [
        {
          "internalType": "uint256",
          "name": "_roundId",
          "type": "uint256"
        },
        {
          "internalType": "uint256",
          "name": "_pricePerShare",
          "type": "uint256"
        },
        {
          "internalType": "uint256",
          "name": "_sharesRemaining",
          "type": "uint256"
        },
        {
          "internalType": "bool",
          "name": "_active",
          "type": "bool"
        }
      ],
      "stateMutability": "view",
      "type": "function"
    },
    {
      "inputs": [],
      "name": "investorRegistry",
      "outputs": [
        {
          "internalType": "contract IInvestorRegistrySale",
          "name": "",
          "type": "address"
        }
      ],
      "stateMutability": "view",
      "type": "function"
    },
    {
      "inputs": [],
      "name": "pause",
      "outputs": [],
      "stateMutability": "nonpayable",
      "type": "function"
    },
    {
      "inputs": [],
      "name": "paused",
      "outputs": [
        {
          "internalType": "bool",
          "name": "",
          "type": "bool"
        }
      ],
      "stateMutability": "view",
      "type": "function"
    },
    {
      "inputs": [],
      "name": "paymentToken",
      "outputs": [
        {
          "internalType": "contract IERC20",
          "name": "",
          "type": "address"
        }
      ],
      "stateMutability": "view",
      "type": "function"
    },
    {
      "inputs": [],
      "name": "pricePerShare",
      "outputs": [
        {
          "internalType": "uint256",
          "name": "",
          "type": "uint256"
        }
      ],
      "stateMutability": "view",
      "type": "function"
    },
    {
      "inputs": [],
      "name": "roundActive",
      "outputs": [
        {
          "internalType": "bool",
          "name": "",
          "type": "bool"
        }
      ],
      "stateMutability": "view",
      "type": "function"
    },
    {
      "inputs": [],
      "name": "roundId",
      "outputs": [
        {
          "internalType": "uint256",
          "name": "",
          "type": "uint256"
        }
      ],
      "stateMutability": "view",
      "type": "function"
    },
    {
      "inputs": [],
      "name": "roundSharesRemaining",
      "outputs": [
        {
          "internalType": "uint256",
          "name": "",
          "type": "uint256"
        }
      ],
      "stateMutability": "view",
      "type": "function"
    },
    {
      "inputs": [],
      "name": "shareToken",
      "outputs": [
        {
          "internalType": "contract ICompanyShareToken",
          "name": "",
          "type": "address"
        }
      ],
      "stateMutability": "view",
      "type": "function"
    },
    {
      "inputs": [
        {
          "internalType": "uint256",
          "name": "_pricePerShare",
          "type": "uint256"
        },
        {
          "internalType": "uint256",
          "name": "sharesToMint",
          "type": "uint256"
        }
      ],
      "name": "startRound",
      "outputs": [],
      "stateMutability": "nonpayable",
      "type": "function"
    },
    {
      "inputs": [],
      "name": "unpause",
      "outputs": [],
      "stateMutability": "nonpayable",
      "type": "function"
    },
    {
      "inputs": [],
      "name": "vault",
      "outputs": [
        {
          "internalType": "contract ICompanyVault",
          "name": "",
          "type": "address"
        }
      ],
      "stateMutability": "view",
      "type": "function"
    }
  ],
  "bytecode": "0x6101803461025757601f61139238819003918201601f19168301916001600160401b0383118484101761025c57808492610100946040528339810103126102575761004981610272565b9061005660208201610272565b61006260408301610272565b61006e60608401610272565b61007a60808501610272565b60a0850151939092906001600160601b0385168086036102575760e06100a260c08901610272565b9701516001600055976001600160a01b03169081158015610246575b8015610235575b610213576001600160a01b03851615610224576001600160a01b03861615610213576103e810610203576080526001600160a01b0390811660a05290811660c05260e091909152610100919091526101209190915216610140526101605260405161110b908161028782396080518181816106b501528181610c460152610dfc015260a0518181816102550152818161052d0152818161097d0152610ade015260c051818181610128015281816104a30152610a57015260e05181818161018e015281816101f7015281816107ec015281816108dd0152610cff01526101005181818161069301528181610c240152610cbd01526101205181818161045401528181610a0e0152610e4101526101405181818161056d01528181610b1e0152610db70152610160518181816105ed015281816108a70152610b9e0152f35b62bfc92160e01b60005260046000fd5b63162908e360e11b60005260046000fd5b63a7505eb960e01b60005260046000fd5b506001600160a01b038416156100c5565b506001600160a01b038316156100be565b600080fd5b634e487b7160e01b600052604160045260246000fd5b51906001600160a01b03821682036102575756fe608080604052600436101561001357600080fd5b600090813560e01c908163027471b014610e975750806305f71b0714610e7057806324a9d85314610e2b5780633013ce2914610de65780633734256e14610da15780633f4ba83a14610cec5780634690484014610ca75780635c975abb14610c845780636b4f0e14146109ac5780636c9fa59e14610967578063749aa2d9146108ca5780637bc3a7331461088f5780638456cb59146107d957806384bc76a61461079d5780638cd221c91461077f57806399530b0614610761578063a7c601601461039b578063c3964372146101dd578063cee51bb7146101bd578063d27fb60714610178578063ebb59d331461015a5763fbfa77cf1461011357600080fd5b346101575780600319360112610157576040517f00000000000000000000000000000000000000000000000000000000000000006001600160a01b03168152602090f35b80fd5b50346101575780600319360112610157576020600354604051908152f35b50346101575780600319360112610157576040517f00000000000000000000000000000000000000000000000000000000000000006001600160a01b03168152602090f35b5034610157578060031936011261015757602060405164e8d4a510008152f35b5034610157576040366003190112610157576024356004357f00000000000000000000000000000000000000000000000000000000000000006001600160a01b0316330361038c5761022d610f7d565b610235610f9f565b60ff6005541661037d578015801561036f575b61036157811561035257827f00000000000000000000000000000000000000000000000000000000000000006001600160a01b0316803b1561034e578160405180926340c10f1960e01b82528183816102a58a3060048401610f27565b03925af180156103435761032a575b505080600255816003556004546000198114610316577fa359b664a68acd8839e42112eb50eff3408165e15074fde89ddb58a0db2e691d916001604092019384600455600160ff19600554161760055582519182526020820152a26001815580f35b634e487b7160e01b84526011600452602484fd5b8161033491610eee565b61033f5782386102b4565b8280fd5b6040513d84823e3d90fd5b5080fd5b63162908e360e11b8352600483fd5b62bfc92160e01b8352600483fd5b5064e8d4a510008111610248565b6391d83a1b60e01b8352600483fd5b63a7505eb960e01b8352600483fd5b5034610157576020366003190112610157576004356103b8610f7d565b6103c0610f9f565b60ff600554161561075257801561070c577812725dd1d243aba0e75fe645cc4873f9e65afe688c928e1f21811161074357670de0b6b3a76400008102908104670de0b6b3a76400000361072f5760025490811561071b5704801561070c57676765c793fa10079d601b1b81116106fd576003548082116106ee5761044382610fbc565b9081156106df5783906127106104827f00000000000000000000000000000000000000000000000000000000000000006001600160601b031685610eb8565b04610497856104918387610ee1565b93610ee1565b6003558061068d575b507f00000000000000000000000000000000000000000000000000000000000000006001600160a01b0316803b1561033f5760405163f82d288d60e01b815291839183918290849082906104f8903360048401610f27565b03925af1801561034357610678575b505060405163a9059cbb60e01b815260208180610528863360048401610f27565b0381877f00000000000000000000000000000000000000000000000000000000000000006001600160a01b03165af190811561063a578491610649575b5015610352577f00000000000000000000000000000000000000000000000000000000000000006001600160a01b0316806105cd575b5060209260019160045460405191825284868301526000805160206110b683398151915260403393a355604051908152f35b803b156106455783604051809263e16fb2f960e01b8252818381610616887f00000000000000000000000000000000000000000000000000000000000000003360048501610f5f565b03925af1801561063a571561059b57610630848092610eee565b61033f573861059b565b6040513d86823e3d90fd5b8380fd5b61066b915060203d602011610671575b6106638183610eee565b810190610f42565b38610565565b503d610659565b8161068291610eee565b61033f578238610507565b6106d9907f0000000000000000000000000000000000000000000000000000000000000000337f000000000000000000000000000000000000000000000000000000000000000061100f565b386104a0565b63162908e360e11b8452600484fd5b63e645450960e01b8352600483fd5b634dcb7efd60e11b8252600482fd5b63162908e360e11b8252600482fd5b634e487b7160e01b83526012600452602483fd5b634e487b7160e01b82526011600452602482fd5b63f5c787f160e01b8252600482fd5b633df07da560e01b8252600482fd5b50346101575780600319360112610157576020600254604051908152f35b50346101575780600319360112610157576020600454604051908152f35b5034610157578060031936011261015757608060045460025460035460ff60055416916040519384526020840152604083015215156060820152f35b50346101575780600319360112610157577f00000000000000000000000000000000000000000000000000000000000000006001600160a01b0316330361088057610822610f9f565b600160ff19815416176001557f62e78cea01bee320cd4e420270b5ea74000d11b0c9f74754ebdbfc544b05a2586020604051338152a1337fb8fad2fa0ed7a383e747c309ef2c4391d7b65592a48893e57ccc1fab707914568280a280f35b63a7505eb960e01b8152600490fd5b503461015757806003193601126101575760206040517f00000000000000000000000000000000000000000000000000000000000000008152f35b50346101575780600319360112610157577f00000000000000000000000000000000000000000000000000000000000000006001600160a01b0316330361088057610913610f7d565b60055460ff811615610752576003549060ff191660055581600355816002557f8868888cc18628a149bc88cc32a91976ab30e2cd9aececb0cfe184a73fe551f9602060045492604051908152a26001815580f35b50346101575780600319360112610157576040517f00000000000000000000000000000000000000000000000000000000000000006001600160a01b03168152602090f35b5034610157576020366003190112610157576004356109c9610f7d565b6109d1610f9f565b60ff60055416156107525780158015610c70575b61070c57600354908181116106ee576109fd81610fbc565b9182156106df578390612710610a3c7f00000000000000000000000000000000000000000000000000000000000000006001600160601b031686610eb8565b04610a4b846104918388610ee1565b60035580610c1e575b507f00000000000000000000000000000000000000000000000000000000000000006001600160a01b031690813b1561033f578291610aaa9160405194858094819363f82d288d60e01b83523360048401610f27565b03925af1801561063a57610c0a575b5060405163a9059cbb60e01b815260208180610ad9853360048401610f27565b0381877f00000000000000000000000000000000000000000000000000000000000000006001600160a01b03165af190811561063a578491610beb575b5015610352577f00000000000000000000000000000000000000000000000000000000000000006001600160a01b031680610b7e575b5060209260019160045460405191858352868301526000805160206110b683398151915260403393a355604051908152f35b803b156106455783604051809263e16fb2f960e01b8252818381610bc7897f00000000000000000000000000000000000000000000000000000000000000003360048501610f5f565b03925af1801561063a5715610b4c57610be1848092610eee565b61033f5738610b4c565b610c04915060203d602011610671576106638183610eee565b38610b16565b83610c1791949294610eee565b9138610ab9565b610c6a907f0000000000000000000000000000000000000000000000000000000000000000337f000000000000000000000000000000000000000000000000000000000000000061100f565b38610a54565b50676765c793fa10079d601b1b81116109e5565b5034610157578060031936011261015757602060ff600154166040519015158152f35b50346101575780600319360112610157576040517f00000000000000000000000000000000000000000000000000000000000000006001600160a01b03168152602090f35b50346101575780600319360112610157577f00000000000000000000000000000000000000000000000000000000000000006001600160a01b031633036108805760015460ff811615610d925760ff19166001557f5db9ee0a495bf2e6ff9c91a7834c1ba4fdd244a5e8aa4e537bd38aeae4b073aa6020604051338152a1337ff5cbf596165cc457b2cd92e8d8450827ee314968160a5696402d75766fc52caf8280a280f35b638dfc202b60e01b8252600482fd5b50346101575780600319360112610157576040517f00000000000000000000000000000000000000000000000000000000000000006001600160a01b03168152602090f35b50346101575780600319360112610157576040517f00000000000000000000000000000000000000000000000000000000000000006001600160a01b03168152602090f35b50346101575780600319360112610157576040517f00000000000000000000000000000000000000000000000000000000000000006001600160601b03168152602090f35b5034610157578060031936011261015757604051676765c793fa10079d601b1b8152602090f35b90503461034e578160031936011261034e5760209060ff6005541615158152f35b81810292918115918404141715610ecb57565b634e487b7160e01b600052601160045260246000fd5b91908203918211610ecb57565b601f909101601f19168101906001600160401b03821190821017610f1157604052565b634e487b7160e01b600052604160045260246000fd5b6001600160a01b039091168152602081019190915260400190565b90816020910312610f5a57518015158103610f5a5790565b600080fd5b604091949392606082019560018060a01b0316825260208201520152565b600260005414610f8e576002600055565b633ee5aeb560e01b60005260046000fd5b60ff60015416610fab57565b63d93c066560e01b60005260046000fd5b600254908115610ff95781600019048111610fe857670de0b6b3a764000091610fe491610eb8565b0490565b63f5c787f160e01b60005260046000fd5b634e487b7160e01b600052601260045260246000fd5b6040516323b872dd60e01b60208083019182526001600160a01b0394851660248401529490931660448201526064808201959095529384529260009190611057608482610eee565b519082855af1156110a9576000513d6110a057506001600160a01b0381163b155b61107f5750565b635274afe760e01b60009081526001600160a01b0391909116600452602490fd5b60011415611078565b6040513d6000823e3d90fdfe0831583cced7554a81e1cd091e811afaadc7d575a17fbd354716145bb597efc9a2646970667358221220dad82e35b2a0aa041d6b0e27ac8ca082412298b4e7cad18db5343f88edd079d264736f6c634300081c0033",
  "linkReferences": {},
  "deployedLinkReferences": {}
}