{
  "_format": "hh-sol-artifact-1",
  "contractName": "ShareSale",
  "sourceName": "contracts/CompanyShares/ShareSale.sol",
  "abi": [
    {
      "inputs": [
        {
          "internalType": "address",
          "name": "_paymentToken",
          "type": "address"
        },
        {
          "internalType": "address",
          "name": "_shareToken",
          "type": "address"
        },
        {
          "internalType": "address",
          "name": "_vault",
          "type": "address"
        },
        {
          "internalType": "address",
          "name": "_companyOwner",
          "type": "address"
        },
        {
          "internalType": "address",
          "name": "_feeRecipient",
          "type": "address"
        },
        {
          "internalType": "uint96",
          "name": "_feeBps",
          "type": "uint96"
        },
        {
          "internalType": "address",
          "name": "_investorRegistry",
          "type": "address"
        },
        {
          "internalType": "uint256",
          "name": "_companyId",
          "type": "uint256"
        }
      ],
      "stateMutability": "nonpayable",
      "type": "constructor"
    },
    {
      "inputs": [],
      "name": "EnforcedPause",
      "type": "error"
    },
    {
      "inputs": [],
      "name": "ExpectedPause",
      "type": "error"
    },
    {
      "inputs": [],
      "name": "InsufficientRoundLiquidity",
      "type": "error"
    },
    {
      "inputs": [],
      "name": "InvalidAmount",
      "type": "error"
    },
    {
      "inputs": [],
      "name": "InvalidPrice",
      "type": "error"
    },
    {
      "inputs": [],
      "name": "OnlyCompanyOwner",
      "type": "error"
    },
    {
      "inputs": [],
      "name": "PriceOverflow",
      "type": "error"
    },
    {
      "inputs": [],
      "name": "PurchaseTooLarge",
      "type": "error"
    },
    {
      "inputs": [],
      "name": "ReentrancyGuardReentrantCall",
      "type": "error"
    },
    {
      "inputs": [],
      "name": "RoundAlreadyActive",
      "type": "error"
    },
    {
      "inputs": [],
      "name": "RoundNotActive",
      "type": "error"
    },
    {
      "inputs": [
        {
          "internalType": "address",
          "name": "token",
          "type": "address"
        }
      ],
      "name": "SafeERC20FailedOperation",
      "type": "error"
    },
    {
      "anonymous": false,
      "inputs": [
        {
          "indexed": true,
          "internalType": "address",
          "name": "by",
          "type": "address"
        }
      ],
      "name": "EmergencyPaused",
      "type": "event"
    },
    {
      "anonymous": false,
      "inputs": [
        {
          "indexed": true,
          "internalType": "address",
          "name": "by",
          "type": "address"
        }
      ],
      "name": "EmergencyUnpaused",
      "type": "event"
    },
    {
      "anonymous": false,
      "inputs": [
        {
          "indexed": false,
          "internalType": "address",
          "name": "account",
          "type": "address"
        }
      ],
      "name": "Paused",
      "type": "event"
    },
    {
      "anonymous": false,
      "inputs": [
        {
          "indexed": true,
          "internalType": "uint256",
          "name": "roundId",
          "type": "uint256"
        },
        {
          "indexed": false,
          "internalType": "uint256",
          "name": "sharesRemaining",
          "type": "uint256"
        }
      ],
      "name": "RoundEnded",
      "type": "event"
    },
    {
      "anonymous": false,
      "inputs": [
        {
          "indexed": true,
          "internalType": "uint256",
          "name": "roundId",
          "type": "uint256"
        },
        {
          "indexed": false,
          "internalType": "uint256",
          "name": "pricePerShare",
          "type": "uint256"
        },
        {
          "indexed": false,
          "internalType": "uint256",
          "name": "sharesMinted",
          "type": "uint256"
        }
      ],
      "name": "RoundStarted",
      "type": "event"
    },
    {
      "anonymous": false,
      "inputs": [
        {
          "indexed": true,
          "internalType": "uint256",
          "name": "roundId",
          "type": "uint256"
        },
        {
          "indexed": true,
          "internalType": "address",
          "name": "buyer",
          "type": "address"
        },
        {
          "indexed": false,
          "internalType": "uint256",
          "name": "usdtPaid",
          "type": "uint256"
        },
        {
          "indexed": false,
          "internalType": "uint256",
          "name": "sharesReceived",
          "type": "uint256"
        }
      ],
      "name": "SharesBought",
      "type": "event"
    },
    {
      "anonymous": false,
      "inputs": [
        {
          "indexed": false,
          "internalType": "address",
          "name": "account",
          "type": "address"
        }
      ],
      "name": "Unpaused",
      "type": "event"
    },
    {
      "inputs": [],
      "name": "MAX_PRICE_PER_SHARE",
      "outputs": [
        {
          "internalType": "uint256",
          "name": "",
          "type": "uint256"
        }
      ],
      "stateMutability": "view",
      "type": "function"
    },
    {
      "inputs": [],
      "name": "MAX_SHARES_PER_PURCHASE",
      "outputs": [
        {
          "internalType": "uint256",
          "name": "",
          "type": "uint256"
        }
      ],
      "stateMutability": "view",
      "type": "function"
    },
    {
      "inputs": [
        {
          "internalType": "uint256",
          "name": "sharesWei",
          "type": "uint256"
        }
      ],
      "name": "buyExactShares",
      "outputs": [
        {
          "internalType": "uint256",
          "name": "usdtCost",
          "type": "uint256"
        }
      ],
      "stateMutability": "nonpayable",
      "type": "function"
    },
    {
      "inputs": [
        {
          "internalType": "uint256",
          "name": "usdtAmount",
          "type": "uint256"
        }
      ],
      "name": "buyWithUSDT",
      "outputs": [
        {
          "internalType": "uint256",
          "name": "sharesWei",
          "type": "uint256"
        }
      ],
      "stateMutability": "nonpayable",
      "type": "function"
    },
    {
      "inputs": [],
      "name": "companyId",
      "outputs": [
        {
          "internalType": "uint256",
          "name": "",
          "type": "uint256"
        }
      ],
      "stateMutability": "view",
      "type": "function"
    },
    {
      "inputs": [],
      "name": "companyOwner",
      "outputs": [
        {
          "internalType": "address",
          "name": "",
          "type": "address"
        }
      ],
      "stateMutability": "view",
      "type": "function"
    },
    {
      "inputs": [],
      "name": "endRound",
      "outputs": [],
      "stateMutability": "nonpayable",
      "type": "function"
    },
    {
      "inputs": [],
      "name": "feeBps",
      "outputs": [
        {
          "internalType": "uint96",
          "name": "",
          "type": "uint96"
        }
      ],
      "stateMutability": "view",
      "type": "function"
    },
    {
      "inputs": [],
      "name": "feeRecipient",
      "outputs": [
        {
          "internalType": "address",
          "name": "",
          "type": "address"
        }
      ],
      "stateMutability": "view",
      "type": "function"
    },
    {
      "inputs": [],
      "name": "getRoundInfo",
      "outputs": [
        {
          "internalType": "uint256",
          "name": "_roundId",
          "type": "uint256"
        },
        {
          "internalType": "uint256",
          "name": "_pricePerShare",
          "type": "uint256"
        },
        {
          "internalType": "uint256",
          "name": "_sharesRemaining",
          "type": "uint256"
        },
        {
          "internalType": "bool",
          "name": "_active",
          "type": "bool"
        }
      ],
      "stateMutability": "view",
      "type": "function"
    },
    {
      "inputs": [],
      "name": "investorRegistry",
      "outputs": [
        {
          "internalType": "contract IInvestorRegistrySale",
          "name": "",
          "type": "address"
        }
      ],
      "stateMutability": "view",
      "type": "function"
    },
    {
      "inputs": [],
      "name": "pause",
      "outputs": [],
      "stateMutability": "nonpayable",
      "type": "function"
    },
    {
      "inputs": [],
      "name": "paused",
      "outputs": [
        {
          "internalType": "bool",
          "name": "",
          "type": "bool"
        }
      ],
      "stateMutability": "view",
      "type": "function"
    },
    {
      "inputs": [],
      "name": "paymentToken",
      "outputs": [
        {
          "internalType": "contract IERC20",
          "name": "",
          "type": "address"
        }
      ],
      "stateMutability": "view",
      "type": "function"
    },
    {
      "inputs": [],
      "name": "pricePerShare",
      "outputs": [
        {
          "internalType": "uint256",
          "name": "",
          "type": "uint256"
        }
      ],
      "stateMutability": "view",
      "type": "function"
    },
    {
      "inputs": [],
      "name": "roundActive",
      "outputs": [
        {
          "internalType": "bool",
          "name": "",
          "type": "bool"
        }
      ],
      "stateMutability": "view",
      "type": "function"
    },
    {
      "inputs": [],
      "name": "roundId",
      "outputs": [
        {
          "internalType": "uint256",
          "name": "",
          "type": "uint256"
        }
      ],
      "stateMutability": "view",
      "type": "function"
    },
    {
      "inputs": [],
      "name": "roundSharesRemaining",
      "outputs": [
        {
          "internalType": "uint256",
          "name": "",
          "type": "uint256"
        }
      ],
      "stateMutability": "view",
      "type": "function"
    },
    {
      "inputs": [],
      "name": "shareToken",
      "outputs": [
        {
          "internalType": "contract ICompanyShareToken",
          "name": "",
          "type": "address"
        }
      ],
      "stateMutability": "view",
      "type": "function"
    },
    {
      "inputs": [
        {
          "internalType": "uint256",
          "name": "_pricePerShare",
          "type": "uint256"
        },
        {
          "internalType": "uint256",
          "name": "sharesToMint",
          "type": "uint256"
        }
      ],
      "name": "startRound",
      "outputs": [],
      "stateMutability": "nonpayable",
      "type": "function"
    },
    {
      "inputs": [],
      "name": "unpause",
      "outputs": [],
      "stateMutability": "nonpayable",
      "type": "function"
    },
    {
      "inputs": [],
      "name": "vault",
      "outputs": [
        {
          "internalType": "contract ICompanyVault",
          "name": "",
          "type": "address"
        }
      ],
      "stateMutability": "view",
      "type": "function"
    }
  ],
  "bytecode": "0x6101803461025757601f61136d38819003918201601f19168301916001600160401b0383118484101761025c57808492610100946040528339810103126102575761004981610272565b9061005660208201610272565b61006260408301610272565b61006e60608401610272565b61007a60808501610272565b60a0850151939092906001600160601b0385168086036102575760e06100a260c08901610272565b9701516001600055976001600160a01b03169081158015610246575b8015610235575b610213576001600160a01b03851615610224576001600160a01b03861615610213576103e810610203576080526001600160a01b0390811660a05290811660c05260e09190915261010091909152610120919091521661014052610160526040516110e6908161028782396080518181816106d001528181610c7b0152610e32015260a05181818161025501528181610536015281816109980152610b01015260c051818181610128015281816104a70152610a72015260e05181818161018e015281816101f701528181610807015281816108f80152610d350152610100518181816106ae01528181610c590152610cf301526101205181818161046001528181610a310152610e8101526101405181818161056e01528181610b390152610ded0152610160518181816105fc015281816108c20152610bc70152f35b62bfc92160e01b60005260046000fd5b63162908e360e11b60005260046000fd5b63a7505eb960e01b60005260046000fd5b506001600160a01b038416156100c5565b506001600160a01b038316156100be565b600080fd5b634e487b7160e01b600052604160045260246000fd5b51906001600160a01b03821682036102575756fe608080604052600436101561001357600080fd5b600090813560e01c908163027471b014610ecc5750806305f71b0714610ea557806324a9d85314610e615780633013ce2914610e1c5780633734256e14610dd75780633f4ba83a14610d225780634690484014610cdd5780635c975abb14610cba5780636b4f0e14146109c75780636c9fa59e14610982578063749aa2d9146108e55780637bc3a733146108aa5780638456cb59146107f457806384bc76a6146107b85780638cd221c91461079a57806399530b061461077c578063a7c601601461039e578063c3964372146101dd578063cee51bb7146101bd578063d27fb60714610178578063ebb59d331461015a5763fbfa77cf1461011357600080fd5b346101575780600319360112610157576040517f00000000000000000000000000000000000000000000000000000000000000006001600160a01b03168152602090f35b80fd5b50346101575780600319360112610157576020600354604051908152f35b50346101575780600319360112610157576040517f00000000000000000000000000000000000000000000000000000000000000006001600160a01b03168152602090f35b5034610157578060031936011261015757602060405164e8d4a510008152f35b5034610157576040366003190112610157576024356004357f00000000000000000000000000000000000000000000000000000000000000006001600160a01b0316330361038f5761022d610f78565b610235610f9a565b60ff600554166103805780158015610372575b61036457811561035557827f00000000000000000000000000000000000000000000000000000000000000006001600160a01b0316803b15610351576040516340c10f1960e01b8152306004820152602481018590529082908290604490829084905af180156103465761032d575b505080600255816003556004546000198114610319577fa359b664a68acd8839e42112eb50eff3408165e15074fde89ddb58a0db2e691d916001604092019384600455600160ff19600554161760055582519182526020820152a26001815580f35b634e487b7160e01b84526011600452602484fd5b8161033791610f23565b6103425782386102b7565b8280fd5b6040513d84823e3d90fd5b5080fd5b63162908e360e11b8352600483fd5b62bfc92160e01b8352600483fd5b5064e8d4a510008111610248565b6391d83a1b60e01b8352600483fd5b63a7505eb960e01b8352600483fd5b5034610157576020366003190112610157576004356103bb610f78565b6103c3610f9a565b60ff600554161561076d578015610727577812725dd1d243aba0e75fe645cc4873f9e65afe688c928e1f21811161075e57670de0b6b3a76400008102908104670de0b6b3a76400000361074a5760025490811561073657048015610727576b033b2e3c9fd0803ce80000008111610718576003548082116107095761044782610fb7565b9081156106fa5783906127106104866001600160601b037f00000000000000000000000000000000000000000000000000000000000000001685610eed565b0461049b856104958387610f16565b93610f16565b600355806106a8575b507f00000000000000000000000000000000000000000000000000000000000000006001600160a01b0316803b156103425760405163f82d288d60e01b8152336004820152602481019290925282908290604490829084905af1801561034657610693575b505060405163a9059cbb60e01b815233600482015260248101839052602081604481876001600160a01b037f0000000000000000000000000000000000000000000000000000000000000000165af1908115610655578491610664575b5015610355577f00000000000000000000000000000000000000000000000000000000000000006001600160a01b0316806105e0575b5060209260019160045460405191825284868301527f0831583cced7554a81e1cd091e811afaadc7d575a17fbd354716145bb597efc960403393a355604051908152f35b803b156106605760405163e16fb2f960e01b81523360048201527f00000000000000000000000000000000000000000000000000000000000000006024820152604481018390529084908290606490829084905af18015610655571561059c5761064b848092610f23565b610342573861059c565b6040513d86823e3d90fd5b8380fd5b610686915060203d60201161068c575b61067e8183610f23565b810190610f5b565b38610566565b503d610674565b8161069d91610f23565b610342578238610509565b6106f4907f0000000000000000000000000000000000000000000000000000000000000000337f000000000000000000000000000000000000000000000000000000000000000061100a565b386104a4565b63162908e360e11b8452600484fd5b63e645450960e01b8352600483fd5b634dcb7efd60e11b8252600482fd5b63162908e360e11b8252600482fd5b634e487b7160e01b83526012600452602483fd5b634e487b7160e01b82526011600452602482fd5b63f5c787f160e01b8252600482fd5b633df07da560e01b8252600482fd5b50346101575780600319360112610157576020600254604051908152f35b50346101575780600319360112610157576020600454604051908152f35b5034610157578060031936011261015757608060045460025460035460ff60055416916040519384526020840152604083015215156060820152f35b50346101575780600319360112610157577f00000000000000000000000000000000000000000000000000000000000000006001600160a01b0316330361089b5761083d610f9a565b600160ff19815416176001557f62e78cea01bee320cd4e420270b5ea74000d11b0c9f74754ebdbfc544b05a2586020604051338152a1337fb8fad2fa0ed7a383e747c309ef2c4391d7b65592a48893e57ccc1fab707914568280a280f35b63a7505eb960e01b8152600490fd5b503461015757806003193601126101575760206040517f00000000000000000000000000000000000000000000000000000000000000008152f35b50346101575780600319360112610157577f00000000000000000000000000000000000000000000000000000000000000006001600160a01b0316330361089b5761092e610f78565b60055460ff81161561076d576003549060ff191660055581600355816002557f8868888cc18628a149bc88cc32a91976ab30e2cd9aececb0cfe184a73fe551f9602060045492604051908152a26001815580f35b50346101575780600319360112610157576040517f00000000000000000000000000000000000000000000000000000000000000006001600160a01b03168152602090f35b5034610157576020366003190112610157576004356109e4610f78565b6109ec610f9a565b60ff600554161561076d5780158015610ca5575b610727576003549081811161070957610a1881610fb7565b9182156106fa578390612710610a576001600160601b037f00000000000000000000000000000000000000000000000000000000000000001686610eed565b04610a66846104958388610f16565b60035580610c53575b507f00000000000000000000000000000000000000000000000000000000000000006001600160a01b031690813b156103425760405163f82d288d60e01b8152336004820152602481019190915291908290604490829084905af1801561065557610c3f575b5060405163a9059cbb60e01b815233600482015260248101829052602081604481876001600160a01b037f0000000000000000000000000000000000000000000000000000000000000000165af1908115610655578491610c20575b5015610355577f00000000000000000000000000000000000000000000000000000000000000006001600160a01b031680610bab575b5060209260019160045460405191858352868301527f0831583cced7554a81e1cd091e811afaadc7d575a17fbd354716145bb597efc960403393a355604051908152f35b803b156106605760405163e16fb2f960e01b81523360048201527f00000000000000000000000000000000000000000000000000000000000000006024820152604481018490529084908290606490829084905af180156106555715610b6757610c16848092610f23565b6103425738610b67565b610c39915060203d60201161068c5761067e8183610f23565b38610b31565b83610c4c91949294610f23565b9138610ad5565b610c9f907f0000000000000000000000000000000000000000000000000000000000000000337f000000000000000000000000000000000000000000000000000000000000000061100a565b38610a6f565b506b033b2e3c9fd0803ce80000008111610a00565b5034610157578060031936011261015757602060ff600154166040519015158152f35b50346101575780600319360112610157576040517f00000000000000000000000000000000000000000000000000000000000000006001600160a01b03168152602090f35b50346101575780600319360112610157577f00000000000000000000000000000000000000000000000000000000000000006001600160a01b0316330361089b5760015460ff811615610dc85760ff19166001557f5db9ee0a495bf2e6ff9c91a7834c1ba4fdd244a5e8aa4e537bd38aeae4b073aa6020604051338152a1337ff5cbf596165cc457b2cd92e8d8450827ee314968160a5696402d75766fc52caf8280a280f35b638dfc202b60e01b8252600482fd5b50346101575780600319360112610157576040517f00000000000000000000000000000000000000000000000000000000000000006001600160a01b03168152602090f35b50346101575780600319360112610157576040517f00000000000000000000000000000000000000000000000000000000000000006001600160a01b03168152602090f35b503461015757806003193601126101575760206040516001600160601b037f0000000000000000000000000000000000000000000000000000000000000000168152f35b503461015757806003193601126101575760206040516b033b2e3c9fd0803ce80000008152f35b90503461035157816003193601126103515760209060ff6005541615158152f35b81810292918115918404141715610f0057565b634e487b7160e01b600052601160045260246000fd5b91908203918211610f0057565b90601f8019910116810190811067ffffffffffffffff821117610f4557604052565b634e487b7160e01b600052604160045260246000fd5b90816020910312610f7357518015158103610f735790565b600080fd5b600260005414610f89576002600055565b633ee5aeb560e01b60005260046000fd5b60ff60015416610fa657565b63d93c066560e01b60005260046000fd5b600254908115610ff45781600019048111610fe357670de0b6b3a764000091610fdf91610eed565b0490565b63f5c787f160e01b60005260046000fd5b634e487b7160e01b600052601260045260246000fd5b6040516323b872dd60e01b60208083019182526001600160a01b0394851660248401529490931660448201526064808201959095529384529260009190611052608482610f23565b519082855af1156110a4576000513d61109b57506001600160a01b0381163b155b61107a5750565b635274afe760e01b60009081526001600160a01b0391909116600452602490fd5b60011415611073565b6040513d6000823e3d90fdfea264697066735822122009e8a22ae6ea8f8e77188ca236948a3173c7c7c9db957fad704b58f10093c32164736f6c634300081c0033",
  "linkReferences": {},
  "deployedLinkReferences": {}
}